{
  "_format": "hh3-artifact-1",
  "contractName": "AccountConfig",
  "sourceName": "contracts/AccountConfig.sol",
  "abi": [
    {
      "inputs": [],
      "stateMutability": "nonpayable",
      "type": "constructor"
    },
    {
      "inputs": [
        {
          "internalType": "uint256",
          "name": "apiKeyHash",
          "type": "uint256"
        }
      ],
      "name": "AccountAlreadyExists",
      "type": "error"
    },
    {
      "inputs": [
        {
          "internalType": "uint256",
          "name": "apiKeyHash",
          "type": "uint256"
        }
      ],
      "name": "AccountDoesNotExist",
      "type": "error"
    },
    {
      "inputs": [
        {
          "internalType": "uint256",
          "name": "apiKeyHash",
          "type": "uint256"
        },
        {
          "internalType": "uint256",
          "name": "groupId",
          "type": "uint256"
        },
        {
          "internalType": "uint256",
          "name": "action",
          "type": "uint256"
        }
      ],
      "name": "ActionDoesNotExist",
      "type": "error"
    },
    {
      "inputs": [
        {
          "internalType": "uint256",
          "name": "apiKeyHash",
          "type": "uint256"
        },
        {
          "internalType": "uint256",
          "name": "groupId",
          "type": "uint256"
        }
      ],
      "name": "GroupDoesNotExist",
      "type": "error"
    },
    {
      "inputs": [
        {
          "internalType": "uint256",
          "name": "apiKeyHash",
          "type": "uint256"
        },
        {
          "internalType": "uint256",
          "name": "amount",
          "type": "uint256"
        }
      ],
      "name": "InsufficientBalance",
      "type": "error"
    },
    {
      "inputs": [
        {
          "internalType": "uint256",
          "name": "apiKeyHash",
          "type": "uint256"
        },
        {
          "internalType": "address",
          "name": "sender",
          "type": "address"
        }
      ],
      "name": "NoAccountAccess",
      "type": "error"
    },
    {
      "inputs": [
        {
          "internalType": "uint256",
          "name": "apiKeyHash",
          "type": "uint256"
        }
      ],
      "name": "NotMasterAccount",
      "type": "error"
    },
    {
      "inputs": [
        {
          "internalType": "address",
          "name": "caller",
          "type": "address"
        }
      ],
      "name": "OnlyApiPayer",
      "type": "error"
    },
    {
      "inputs": [
        {
          "internalType": "address",
          "name": "caller",
          "type": "address"
        }
      ],
      "name": "OnlyApiPayerOrPricingOperator",
      "type": "error"
    },
    {
      "inputs": [
        {
          "internalType": "uint256",
          "name": "apiKeyHash",
          "type": "uint256"
        },
        {
          "internalType": "uint256",
          "name": "usageApiKeyHash",
          "type": "uint256"
        }
      ],
      "name": "UsageApiKeyDoesNotExist",
      "type": "error"
    },
    {
      "inputs": [
        {
          "internalType": "uint256",
          "name": "apiKeyHash",
          "type": "uint256"
        },
        {
          "internalType": "uint256",
          "name": "groupId",
          "type": "uint256"
        },
        {
          "internalType": "uint256",
          "name": "Wallet",
          "type": "uint256"
        }
      ],
      "name": "WalletDoesNotExist",
      "type": "error"
    },
    {
      "inputs": [
        {
          "internalType": "uint256",
          "name": "apiKeyHash",
          "type": "uint256"
        }
      ],
      "name": "accountExistsAndIsMutable",
      "outputs": [
        {
          "internalType": "bool",
          "name": "",
          "type": "bool"
        }
      ],
      "stateMutability": "view",
      "type": "function"
    },
    {
      "inputs": [
        {
          "internalType": "uint256",
          "name": "accountApiKeyHash",
          "type": "uint256"
        },
        {
          "internalType": "uint256",
          "name": "groupId",
          "type": "uint256"
        },
        {
          "internalType": "uint256",
          "name": "action",
          "type": "uint256"
        },
        {
          "internalType": "string",
          "name": "name",
          "type": "string"
        },
        {
          "internalType": "string",
          "name": "description",
          "type": "string"
        }
      ],
      "name": "addActionToGroup",
      "outputs": [],
      "stateMutability": "nonpayable",
      "type": "function"
    },
    {
      "inputs": [
        {
          "internalType": "uint256",
          "name": "accountApiKeyHash",
          "type": "uint256"
        },
        {
          "internalType": "uint256",
          "name": "usageApiKeyHash",
          "type": "uint256"
        },
        {
          "internalType": "uint256",
          "name": "expiration",
          "type": "uint256"
        },
        {
          "internalType": "uint256",
          "name": "balance",
          "type": "uint256"
        },
        {
          "internalType": "string",
          "name": "name",
          "type": "string"
        },
        {
          "internalType": "string",
          "name": "description",
          "type": "string"
        }
      ],
      "name": "addApiKey",
      "outputs": [],
      "stateMutability": "nonpayable",
      "type": "function"
    },
    {
      "inputs": [
        {
          "internalType": "uint256",
          "name": "accountApiKeyHash",
          "type": "uint256"
        },
        {
          "internalType": "string",
          "name": "name",
          "type": "string"
        },
        {
          "internalType": "string",
          "name": "description",
          "type": "string"
        },
        {
          "internalType": "uint256[]",
          "name": "permitted_actions",
          "type": "uint256[]"
        },
        {
          "internalType": "uint256[]",
          "name": "Wallets",
          "type": "uint256[]"
        },
        {
          "internalType": "bool",
          "name": "all_wallets_permitted",
          "type": "bool"
        },
        {
          "internalType": "bool",
          "name": "all_actions_permitted",
          "type": "bool"
        }
      ],
      "name": "addGroup",
      "outputs": [],
      "stateMutability": "nonpayable",
      "type": "function"
    },
    {
      "inputs": [
        {
          "internalType": "uint256",
          "name": "accountApiKeyHash",
          "type": "uint256"
        },
        {
          "internalType": "uint256",
          "name": "groupId",
          "type": "uint256"
        },
        {
          "internalType": "uint256",
          "name": "walletAddressHash",
          "type": "uint256"
        }
      ],
      "name": "addWalletToGroup",
      "outputs": [],
      "stateMutability": "nonpayable",
      "type": "function"
    },
    {
      "inputs": [
        {
          "internalType": "uint256",
          "name": "index",
          "type": "uint256"
        }
      ],
      "name": "allWalletAddressesAt",
      "outputs": [
        {
          "internalType": "address",
          "name": "",
          "type": "address"
        }
      ],
      "stateMutability": "view",
      "type": "function"
    },
    {
      "inputs": [],
      "name": "api_payer",
      "outputs": [
        {
          "internalType": "address",
          "name": "",
          "type": "address"
        }
      ],
      "stateMutability": "view",
      "type": "function"
    },
    {
      "inputs": [
        {
          "internalType": "uint256",
          "name": "apiKeyHash",
          "type": "uint256"
        },
        {
          "internalType": "uint256",
          "name": "amount",
          "type": "uint256"
        }
      ],
      "name": "creditApiKey",
      "outputs": [],
      "stateMutability": "nonpayable",
      "type": "function"
    },
    {
      "inputs": [
        {
          "internalType": "uint256",
          "name": "apiKeyHash",
          "type": "uint256"
        },
        {
          "internalType": "uint256",
          "name": "amount",
          "type": "uint256"
        }
      ],
      "name": "debitApiKey",
      "outputs": [],
      "stateMutability": "nonpayable",
      "type": "function"
    },
    {
      "inputs": [
        {
          "internalType": "uint256",
          "name": "pricingItemId",
          "type": "uint256"
        }
      ],
      "name": "getPricing",
      "outputs": [
        {
          "internalType": "uint256",
          "name": "",
          "type": "uint256"
        }
      ],
      "stateMutability": "view",
      "type": "function"
    },
    {
      "inputs": [
        {
          "internalType": "uint256",
          "name": "apiKeyHash",
          "type": "uint256"
        },
        {
          "internalType": "address",
          "name": "walletAddress",
          "type": "address"
        }
      ],
      "name": "getWalletDerivation",
      "outputs": [
        {
          "internalType": "uint256",
          "name": "",
          "type": "uint256"
        }
      ],
      "stateMutability": "view",
      "type": "function"
    },
    {
      "inputs": [
        {
          "internalType": "uint256",
          "name": "index",
          "type": "uint256"
        }
      ],
      "name": "indexToAccountHashAt",
      "outputs": [
        {
          "internalType": "uint256",
          "name": "",
          "type": "uint256"
        }
      ],
      "stateMutability": "view",
      "type": "function"
    },
    {
      "inputs": [
        {
          "internalType": "uint256",
          "name": "accountApiKeyHash",
          "type": "uint256"
        },
        {
          "internalType": "uint256",
          "name": "groupId",
          "type": "uint256"
        },
        {
          "internalType": "uint256",
          "name": "pageNumber",
          "type": "uint256"
        },
        {
          "internalType": "uint256",
          "name": "pageSize",
          "type": "uint256"
        }
      ],
      "name": "listActions",
      "outputs": [
        {
          "components": [
            {
              "internalType": "uint256",
              "name": "id",
              "type": "uint256"
            },
            {
              "internalType": "string",
              "name": "name",
              "type": "string"
            },
            {
              "internalType": "string",
              "name": "description",
              "type": "string"
            }
          ],
          "internalType": "struct LibAccountConfigStorage.Metadata[]",
          "name": "",
          "type": "tuple[]"
        }
      ],
      "stateMutability": "view",
      "type": "function"
    },
    {
      "inputs": [
        {
          "internalType": "uint256",
          "name": "accountApiKeyHash",
          "type": "uint256"
        },
        {
          "internalType": "uint256",
          "name": "pageNumber",
          "type": "uint256"
        },
        {
          "internalType": "uint256",
          "name": "pageSize",
          "type": "uint256"
        }
      ],
      "name": "listApiKeys",
      "outputs": [
        {
          "components": [
            {
              "components": [
                {
                  "internalType": "uint256",
                  "name": "id",
                  "type": "uint256"
                },
                {
                  "internalType": "string",
                  "name": "name",
                  "type": "string"
                },
                {
                  "internalType": "string",
                  "name": "description",
                  "type": "string"
                }
              ],
              "internalType": "struct LibAccountConfigStorage.Metadata",
              "name": "metadata",
              "type": "tuple"
            },
            {
              "internalType": "uint256",
              "name": "apiKeyHash",
              "type": "uint256"
            },
            {
              "internalType": "uint256",
              "name": "expiration",
              "type": "uint256"
            },
            {
              "internalType": "uint256",
              "name": "balance",
              "type": "uint256"
            },
            {
              "internalType": "bool",
              "name": "runActions",
              "type": "bool"
            },
            {
              "internalType": "bool",
              "name": "manageGroups",
              "type": "bool"
            },
            {
              "internalType": "bool",
              "name": "manageWallets",
              "type": "bool"
            },
            {
              "internalType": "bool",
              "name": "manageIPFSIds",
              "type": "bool"
            },
            {
              "internalType": "bool",
              "name": "manageUsageApiKeys",
              "type": "bool"
            }
          ],
          "internalType": "struct LibAccountConfigStorage.UsageApiKey[]",
          "name": "",
          "type": "tuple[]"
        }
      ],
      "stateMutability": "view",
      "type": "function"
    },
    {
      "inputs": [
        {
          "internalType": "uint256",
          "name": "accountApiKeyHash",
          "type": "uint256"
        },
        {
          "internalType": "uint256",
          "name": "pageNumber",
          "type": "uint256"
        },
        {
          "internalType": "uint256",
          "name": "pageSize",
          "type": "uint256"
        }
      ],
      "name": "listGroups",
      "outputs": [
        {
          "components": [
            {
              "internalType": "uint256",
              "name": "id",
              "type": "uint256"
            },
            {
              "internalType": "string",
              "name": "name",
              "type": "string"
            },
            {
              "internalType": "string",
              "name": "description",
              "type": "string"
            }
          ],
          "internalType": "struct LibAccountConfigStorage.Metadata[]",
          "name": "",
          "type": "tuple[]"
        }
      ],
      "stateMutability": "view",
      "type": "function"
    },
    {
      "inputs": [
        {
          "internalType": "uint256",
          "name": "accountApiKeyHash",
          "type": "uint256"
        },
        {
          "internalType": "uint256",
          "name": "pageNumber",
          "type": "uint256"
        },
        {
          "internalType": "uint256",
          "name": "pageSize",
          "type": "uint256"
        }
      ],
      "name": "listWallets",
      "outputs": [
        {
          "components": [
            {
              "internalType": "uint256",
              "name": "id",
              "type": "uint256"
            },
            {
              "internalType": "string",
              "name": "name",
              "type": "string"
            },
            {
              "internalType": "string",
              "name": "description",
              "type": "string"
            },
            {
              "internalType": "address",
              "name": "walletAddress",
              "type": "address"
            }
          ],
          "internalType": "struct LibAccountConfigStorage.WalletData[]",
          "name": "",
          "type": "tuple[]"
        }
      ],
      "stateMutability": "view",
      "type": "function"
    },
    {
      "inputs": [
        {
          "internalType": "uint256",
          "name": "accountApiKeyHash",
          "type": "uint256"
        },
        {
          "internalType": "uint256",
          "name": "groupId",
          "type": "uint256"
        },
        {
          "internalType": "uint256",
          "name": "pageNumber",
          "type": "uint256"
        },
        {
          "internalType": "uint256",
          "name": "pageSize",
          "type": "uint256"
        }
      ],
      "name": "listWalletsInGroup",
      "outputs": [
        {
          "components": [
            {
              "internalType": "uint256",
              "name": "id",
              "type": "uint256"
            },
            {
              "internalType": "string",
              "name": "name",
              "type": "string"
            },
            {
              "internalType": "string",
              "name": "description",
              "type": "string"
            },
            {
              "internalType": "address",
              "name": "walletAddress",
              "type": "address"
            }
          ],
          "internalType": "struct LibAccountConfigStorage.WalletData[]",
          "name": "",
          "type": "tuple[]"
        }
      ],
      "stateMutability": "view",
      "type": "function"
    },
    {
      "inputs": [
        {
          "internalType": "uint256",
          "name": "apiKeyHash",
          "type": "uint256"
        },
        {
          "internalType": "bool",
          "name": "managed",
          "type": "bool"
        },
        {
          "internalType": "string",
          "name": "accountName",
          "type": "string"
        },
        {
          "internalType": "string",
          "name": "accountDescription",
          "type": "string"
        },
        {
          "internalType": "address",
          "name": "creatorWalletAddress",
          "type": "address"
        }
      ],
      "name": "newAccount",
      "outputs": [],
      "stateMutability": "nonpayable",
      "type": "function"
    },
    {
      "inputs": [],
      "name": "nextAccountCount",
      "outputs": [
        {
          "internalType": "uint256",
          "name": "",
          "type": "uint256"
        }
      ],
      "stateMutability": "view",
      "type": "function"
    },
    {
      "inputs": [],
      "name": "nextWalletCount",
      "outputs": [
        {
          "internalType": "uint256",
          "name": "",
          "type": "uint256"
        }
      ],
      "stateMutability": "view",
      "type": "function"
    },
    {
      "inputs": [
        {
          "internalType": "uint256",
          "name": "index",
          "type": "uint256"
        }
      ],
      "name": "pricingAt",
      "outputs": [
        {
          "internalType": "uint256",
          "name": "",
          "type": "uint256"
        }
      ],
      "stateMutability": "view",
      "type": "function"
    },
    {
      "inputs": [],
      "name": "pricing_operator",
      "outputs": [
        {
          "internalType": "address",
          "name": "",
          "type": "address"
        }
      ],
      "stateMutability": "view",
      "type": "function"
    },
    {
      "inputs": [
        {
          "internalType": "uint256",
          "name": "accountApiKeyHash",
          "type": "uint256"
        },
        {
          "internalType": "address",
          "name": "walletAddress",
          "type": "address"
        },
        {
          "internalType": "uint256",
          "name": "derivationPath",
          "type": "uint256"
        },
        {
          "internalType": "string",
          "name": "name",
          "type": "string"
        },
        {
          "internalType": "string",
          "name": "description",
          "type": "string"
        }
      ],
      "name": "registerWalletDerivation",
      "outputs": [],
      "stateMutability": "nonpayable",
      "type": "function"
    },
    {
      "inputs": [
        {
          "internalType": "uint256",
          "name": "accountApiKeyHash",
          "type": "uint256"
        },
        {
          "internalType": "uint256",
          "name": "groupId",
          "type": "uint256"
        },
        {
          "internalType": "uint256",
          "name": "action",
          "type": "uint256"
        }
      ],
      "name": "removeActionFromGroup",
      "outputs": [],
      "stateMutability": "nonpayable",
      "type": "function"
    },
    {
      "inputs": [
        {
          "internalType": "uint256",
          "name": "accountApiKeyHash",
          "type": "uint256"
        },
        {
          "internalType": "uint256",
          "name": "usageApiKeyHash",
          "type": "uint256"
        }
      ],
      "name": "removeUsageApiKey",
      "outputs": [],
      "stateMutability": "nonpayable",
      "type": "function"
    },
    {
      "inputs": [
        {
          "internalType": "uint256",
          "name": "accountApiKeyHash",
          "type": "uint256"
        },
        {
          "internalType": "uint256",
          "name": "groupId",
          "type": "uint256"
        },
        {
          "internalType": "uint256",
          "name": "walletAddressHash",
          "type": "uint256"
        }
      ],
      "name": "removeWalletFromGroup",
      "outputs": [],
      "stateMutability": "nonpayable",
      "type": "function"
    },
    {
      "inputs": [
        {
          "internalType": "uint256",
          "name": "pricingItemId",
          "type": "uint256"
        },
        {
          "internalType": "uint256",
          "name": "price",
          "type": "uint256"
        }
      ],
      "name": "setPricing",
      "outputs": [],
      "stateMutability": "nonpayable",
      "type": "function"
    },
    {
      "inputs": [
        {
          "internalType": "address",
          "name": "newPricingOperator",
          "type": "address"
        }
      ],
      "name": "setPricingOperator",
      "outputs": [],
      "stateMutability": "nonpayable",
      "type": "function"
    },
    {
      "inputs": [
        {
          "internalType": "uint256",
          "name": "accountApiKeyHash",
          "type": "uint256"
        },
        {
          "internalType": "uint256",
          "name": "actionHash",
          "type": "uint256"
        },
        {
          "internalType": "uint256",
          "name": "groupId",
          "type": "uint256"
        },
        {
          "internalType": "string",
          "name": "name",
          "type": "string"
        },
        {
          "internalType": "string",
          "name": "description",
          "type": "string"
        }
      ],
      "name": "updateActionMetadata",
      "outputs": [],
      "stateMutability": "nonpayable",
      "type": "function"
    },
    {
      "inputs": [
        {
          "internalType": "uint256",
          "name": "accountApiKeyHash",
          "type": "uint256"
        },
        {
          "internalType": "uint256",
          "name": "groupId",
          "type": "uint256"
        },
        {
          "internalType": "string",
          "name": "name",
          "type": "string"
        },
        {
          "internalType": "string",
          "name": "description",
          "type": "string"
        },
        {
          "internalType": "bool",
          "name": "all_wallets_permitted",
          "type": "bool"
        },
        {
          "internalType": "bool",
          "name": "all_actions_permitted",
          "type": "bool"
        }
      ],
      "name": "updateGroup",
      "outputs": [],
      "stateMutability": "nonpayable",
      "type": "function"
    },
    {
      "inputs": [
        {
          "internalType": "uint256",
          "name": "accountApiKeyHash",
          "type": "uint256"
        },
        {
          "internalType": "uint256",
          "name": "usageApiKeyHash",
          "type": "uint256"
        },
        {
          "internalType": "string",
          "name": "name",
          "type": "string"
        },
        {
          "internalType": "string",
          "name": "description",
          "type": "string"
        }
      ],
      "name": "updateUsageApiKeyMetadata",
      "outputs": [],
      "stateMutability": "nonpayable",
      "type": "function"
    }
  ],
  "bytecode": "0x608060405234801561000f575f5ffd5b5061001e61002360201b60201c565b61021e565b5f61003261017a60201b60201c565b90505f73ffffffffffffffffffffffffffffffffffffffff16816005015f9054906101000a900473ffffffffffffffffffffffffffffffffffffffff1673ffffffffffffffffffffffffffffffffffffffff16146100c5576040517f08c379a00000000000000000000000000000000000000000000000000000000081526004016100bc90610200565b60405180910390fd5b33816005015f6101000a81548173ffffffffffffffffffffffffffffffffffffffff021916908373ffffffffffffffffffffffffffffffffffffffff16021790555033816006015f6101000a81548173ffffffffffffffffffffffffffffffffffffffff021916908373ffffffffffffffffffffffffffffffffffffffff16021790555060018160070181905550600181600801819055506001816004015f600181526020019081526020015f208190555050565b5f5f7f171def12e82c8f3351e4c79b7854be19ad60a75b888f74b9660c07cd7461963390508091505090565b5f82825260208201905092915050565b7f616c726561647920696e697469616c697a6564000000000000000000000000005f82015250565b5f6101ea6013836101a6565b91506101f5826101b6565b602082019050919050565b5f6020820190508181035f830152610217816101de565b9050919050565b6142ee8061022b5f395ff3fe608060405234801561000f575f5ffd5b50600436106101e3575f3560e01c80637af361ef1161010d578063c1aff899116100a0578063ccb78fb61161006f578063ccb78fb614610597578063e6ad2928146105c7578063f75c8b2d146105e3578063fec99aef14610613576101e3565b8063c1aff899146104ff578063c5f5b9841461052f578063c704668c1461054b578063ca05588a1461057b576101e3565b806396a7cc54116100dc57806396a7cc541461047b578063a6b6b67214610497578063bac710ea146104b3578063c12f1a42146104cf576101e3565b80637af361ef146103e15780638845698c1461041157806390222cad1461042f578063921415521461045f576101e3565b80635d861c72116101855780636fe1fb84116101545780636fe1fb8414610349578063719fac4314610379578063749e4d07146103a957806379312245146103c5576101e3565b80635d861c72146102d9578063683f2de8146102f55780636a3d77a9146103115780636e06ac9c1461032d576101e3565b806340b4d453116101c157806340b4d453146102515780634705161e1461026d5780634cd882ac1461028b578063542970ed146102a9576101e3565b80630f9a6021146101e7578063291ff1ea146102055780632fa92e4114610235575b5f5ffd5b6101ef61062f565b6040516101fc9190612f41565b60405180910390f35b61021f600480360381019061021a9190612f95565b610641565b60405161022c91906131d9565b60405180910390f35b61024f600480360381019061024a9190613325565b6109f7565b005b61026b600480360381019061026691906133d4565b610ad7565b005b610275610bc2565b6040516102829190612f41565b60405180910390f35b610293610bd4565b6040516102a09190613421565b60405180910390f35b6102c360048036038101906102be9190612f95565b610c05565b6040516102d09190613549565b60405180910390f35b6102f360048036038101906102ee9190613569565b610e51565b005b61030f600480360381019061030a91906133d4565b610edb565b005b61032b600480360381019061032691906135b9565b610f7b565b005b61034760048036038101906103429190613569565b611017565b005b610363600480360381019061035e9190613655565b61107f565b6040516103709190612f41565b60405180910390f35b610393600480360381019061038e9190613655565b6110a2565b6040516103a0919061369a565b60405180910390f35b6103c360048036038101906103be91906137a1565b6110b4565b005b6103df60048036038101906103da91906138d8565b611247565b005b6103fb60048036038101906103f69190613569565b61147b565b60405161040891906131d9565b60405180910390f35b6104196117ec565b6040516104269190613421565b60405180910390f35b61044960048036038101906104449190613987565b61181d565b6040516104569190612f41565b60405180910390f35b610479600480360381019061047491906139c5565b611875565b005b61049560048036038101906104909190613a74565b611a72565b005b6104b160048036038101906104ac9190613325565b611b20565b005b6104cd60048036038101906104c89190613569565b611ba5565b005b6104e960048036038101906104e49190613655565b611c03565b6040516104f69190612f41565b60405180910390f35b61051960048036038101906105149190613655565b611c26565b6040516105269190612f41565b60405180910390f35b610549600480360381019061054491906133d4565b611c49565b005b61056560048036038101906105609190613569565b611d70565b6040516105729190613cc1565b60405180910390f35b610595600480360381019061059091906133d4565b61205c565b005b6105b160048036038101906105ac9190613655565b612088565b6040516105be9190613421565b60405180910390f35b6105e160048036038101906105dc9190613ce1565b6120ca565b005b6105fd60048036038101906105f89190613569565b61211f565b60405161060a9190613549565b60405180910390f35b61062d60048036038101906106289190613d0c565b612355565b005b5f6106386124cb565b60080154905090565b60605f61064d866124f7565b90505f6106586124cb565b90505f82600d015f8881526020019081526020015f2090505f5f6106886106818460050161257e565b8989612591565b915091505f8167ffffffffffffffff8111156106a7576106a6613201565b5b6040519080825280602002602001820160405280156106e057816020015b6106cd612e21565b8152602001906001900390816106c55790505b5090505f5f90505b828110156109e5575f61071282866107009190613dfa565b876005016125fb90919063ffffffff16565b90505f876003015f8381526020019081526020015f205f9054906101000a900473ffffffffffffffffffffffffffffffffffffffff1690508084848151811061075e5761075d613e2d565b5b60200260200101516060019073ffffffffffffffffffffffffffffffffffffffff16908173ffffffffffffffffffffffffffffffffffffffff1681525050886012015f8273ffffffffffffffffffffffffffffffffffffffff1673ffffffffffffffffffffffffffffffffffffffff1681526020019081526020015f2060010180546107e990613e87565b80601f016020809104026020016040519081016040528092919081815260200182805461081590613e87565b80156108605780601f1061083757610100808354040283529160200191610860565b820191905f5260205f20905b81548152906001019060200180831161084357829003601f168201915b505050505084848151811061087857610877613e2d565b5b602002602001015160200181905250886012015f8273ffffffffffffffffffffffffffffffffffffffff1673ffffffffffffffffffffffffffffffffffffffff1681526020019081526020015f2060020180546108d490613e87565b80601f016020809104026020016040519081016040528092919081815260200182805461090090613e87565b801561094b5780601f106109225761010080835404028352916020019161094b565b820191905f5260205f20905b81548152906001019060200180831161092e57829003601f168201915b505050505084848151811061096357610962613e2d565b5b602002602001015160400181905250886012015f8273ffffffffffffffffffffffffffffffffffffffff1673ffffffffffffffffffffffffffffffffffffffff1681526020019081526020015f205f01548484815181106109c7576109c6613e2d565b5b60200260200101515f018181525050505080806001019150506106e8565b50809650505050505050949350505050565b610a018585612612565b610a0a85612629565b5f610a136124cb565b90505f815f015f8881526020019081526020015f209050610a528582600d015f8981526020019081526020015f2060030161268f90919063ffffffff16565b5084816010015f8781526020019081526020015f205f018190555083816010015f8781526020019081526020015f206001019081610a909190614057565b5082816010015f8781526020019081526020015f206002019081610ab49190614057565b50806015015f815480929190610ac990614126565b919050555050505050505050565b610ae0336126a6565b610ae9826126ba565b610af282612629565b5f610afb6124cb565b90505f816002015f8581526020019081526020015f205490505f825f015f8381526020019081526020015f2090505f85825f016003015414610b4f5781600a015f8781526020019081526020015f20610b53565b815f015b90508481600501541015610ba05785856040517fcf479181000000000000000000000000000000000000000000000000000000008152600401610b9792919061416d565b60405180910390fd5b84816005015f828254610bb39190614194565b92505081905550505050505050565b5f610bcb6124cb565b60070154905090565b5f610bdd6124cb565b6006015f9054906101000a900473ffffffffffffffffffffffffffffffffffffffff16905090565b60605f610c11866124f7565b90505f81600d015f8781526020019081526020015f2090505f610c368260030161257e565b90505f5f610c45838989612591565b915091505f8167ffffffffffffffff811115610c6457610c63613201565b5b604051908082528060200260200182016040528015610c9d57816020015b610c8a612e5d565b815260200190600190039081610c825790505b5090505f5f90505b82811015610e3f57866010015f610cd38387610cc19190613dfa565b896003016125fb90919063ffffffff16565b81526020019081526020015f206040518060600160405290815f8201548152602001600182018054610d0490613e87565b80601f0160208091040260200160405190810160405280929190818152602001828054610d3090613e87565b8015610d7b5780601f10610d5257610100808354040283529160200191610d7b565b820191905f5260205f20905b815481529060010190602001808311610d5e57829003601f168201915b50505050508152602001600282018054610d9490613e87565b80601f0160208091040260200160405190810160405280929190818152602001828054610dc090613e87565b8015610e0b5780601f10610de257610100808354040283529160200191610e0b565b820191905f5260205f20905b815481529060010190602001808311610dee57829003601f168201915b505050505081525050828281518110610e2757610e26613e2d565b5b60200260200101819052508080600101915050610ca5565b50809650505050505050949350505050565b610e5c8383836126c7565b610e6583612629565b5f610e6e6124cb565b90505f815f015f8681526020019081526020015f209050610ead8382600d015f8781526020019081526020015f2060030161276090919063ffffffff16565b505f81601501541115610ed457806015015f815480929190610ece906141c7565b91905055505b5050505050565b610ee4336126a6565b610eed826126ba565b610ef682612629565b5f610eff6124cb565b90505f816002015f8581526020019081526020015f205490505f825f015f8381526020019081526020015f2090505f85825f016003015414610f535781600a015f8781526020019081526020015f20610f57565b815f015b905084816005015f828254610f6c9190613dfa565b92505081905550505050505050565b610f84846126ba565b610f8e8484612777565b610f9784612629565b5f610fa06124cb565b905082815f015f8781526020019081526020015f20600a015f8681526020019081526020015f205f016001019081610fd89190614057565b5081815f015f8781526020019081526020015f20600a015f8681526020019081526020015f205f01600201908161100f9190614057565b505050505050565b611020836126ba565b61102b8383836127f4565b61103483612629565b5f61103d6124cb565b905061107882825f015f8781526020019081526020015f20600d015f8681526020019081526020015f2060050161276090919063ffffffff16565b5050505050565b5f6110886124cb565b6001015f8381526020019081526020015f20549050919050565b5f6110ad823361288d565b9050919050565b6110bd876126ba565b6110c687612629565b5f6110cf6124cb565b90505f815f015f8a81526020019081526020015f209050611100816016015482600b0161268f90919063ffffffff16565b505f81600d015f836016015481526020019081526020015f2090508160160154815f015f018190555088815f01600101908161113c9190614057565b5087815f0160020190816111509190614057565b505f5f90505b875181101561119d5761118f88828151811061117557611174613e2d565b5b60200260200101518360030161268f90919063ffffffff16565b508080600101915050611156565b505f5f90505b86518110156111ea576111dc8782815181106111c2576111c1613e2d565b5b60200260200101518360050161268f90919063ffffffff16565b5080806001019150506111a3565b5084816007015f6101000a81548160ff021916908315150217905550838160070160016101000a81548160ff021916908315150217905550816016015f81548092919061123690614126565b919050555050505050505050505050565b611250336129cf565b5f6112596124cb565b90505f816002015f8881526020019081526020015f2054146112b257856040517f8be1f3fb0000000000000000000000000000000000000000000000000000000081526004016112a99190612f41565b60405180910390fd5b5f815f015f8881526020019081526020015f20905085816013015f6101000a81548160ff02191690831515021790555082816007015f6101000a81548173ffffffffffffffffffffffffffffffffffffffff021916908373ffffffffffffffffffffffffffffffffffffffff16021790555086815f015f015f018190555084815f015f0160010190816113459190614057565b5083815f015f01600201908161135b9190614057565b505f815f016006015f6101000a81548160ff0219169083151502179055506001815f0160060160016101000a81548160ff0219169083151502179055506001815f0160060160026101000a81548160ff0219169083151502179055506001815f0160060160036101000a81548160ff0219169083151502179055506001815f0160060160046101000a81548160ff02191690831515021790555086815f01600301819055506312cc0300426114109190613dfa565b815f01600401819055505f815f016005018190555086826002015f8981526020019081526020015f208190555086826001015f846008015481526020019081526020015f2081905550816008015f81548092919061146d90614126565b919050555050505050505050565b60605f611487856124f7565b90505f5f61149a83601401548787612591565b915091505f8167ffffffffffffffff8111156114b9576114b8613201565b5b6040519080825280602002602001820160405280156114f257816020015b6114df612e21565b8152602001906001900390816114d75790505b5090505f5f90505b828110156117dd575f856011015f83876115149190613dfa565b81526020019081526020015f205f9054906101000a900473ffffffffffffffffffffffffffffffffffffffff1690508083838151811061155757611556613e2d565b5b60200260200101516060019073ffffffffffffffffffffffffffffffffffffffff16908173ffffffffffffffffffffffffffffffffffffffff1681525050856012015f8273ffffffffffffffffffffffffffffffffffffffff1673ffffffffffffffffffffffffffffffffffffffff1681526020019081526020015f2060010180546115e290613e87565b80601f016020809104026020016040519081016040528092919081815260200182805461160e90613e87565b80156116595780601f1061163057610100808354040283529160200191611659565b820191905f5260205f20905b81548152906001019060200180831161163c57829003601f168201915b505050505083838151811061167157611670613e2d565b5b602002602001015160200181905250856012015f8273ffffffffffffffffffffffffffffffffffffffff1673ffffffffffffffffffffffffffffffffffffffff1681526020019081526020015f2060020180546116cd90613e87565b80601f01602080910402602001604051908101604052809291908181526020018280546116f990613e87565b80156117445780601f1061171b57610100808354040283529160200191611744565b820191905f5260205f20905b81548152906001019060200180831161172757829003601f168201915b505050505083838151811061175c5761175b613e2d565b5b602002602001015160400181905250856012015f8273ffffffffffffffffffffffffffffffffffffffff1673ffffffffffffffffffffffffffffffffffffffff1681526020019081526020015f205f01548383815181106117c0576117bf613e2d565b5b60200260200101515f0181815250505080806001019150506114fa565b50809450505050509392505050565b5f6117f56124cb565b6005015f9054906101000a900473ffffffffffffffffffffffffffffffffffffffff16905090565b5f5f611828846124f7565b9050806012015f8473ffffffffffffffffffffffffffffffffffffffff1673ffffffffffffffffffffffffffffffffffffffff1681526020019081526020015f205f015491505092915050565b61187e856126ba565b61188785612629565b5f6118906124cb565b90505f815f015f8881526020019081526020015f20905084816012015f8873ffffffffffffffffffffffffffffffffffffffff1673ffffffffffffffffffffffffffffffffffffffff1681526020019081526020015f205f018190555083816012015f8873ffffffffffffffffffffffffffffffffffffffff1673ffffffffffffffffffffffffffffffffffffffff1681526020019081526020015f20600101908161193c9190614057565b5082816012015f8873ffffffffffffffffffffffffffffffffffffffff1673ffffffffffffffffffffffffffffffffffffffff1681526020019081526020015f20600201908161198c9190614057565b5085816011015f836014015481526020019081526020015f205f6101000a81548173ffffffffffffffffffffffffffffffffffffffff021916908373ffffffffffffffffffffffffffffffffffffffff16021790555085826003015f846007015481526020019081526020015f205f6101000a81548173ffffffffffffffffffffffffffffffffffffffff021916908373ffffffffffffffffffffffffffffffffffffffff160217905550806014015f815480929190611a4b90614126565b9190505550816007015f815480929190611a6490614126565b919050555050505050505050565b611a7c8686612612565b611a8586612629565b5f611a8e6124cb565b90505f815f015f8981526020019081526020015f20600d015f8881526020019081526020015f20905085815f016001019081611aca9190614057565b5084815f016002019081611ade9190614057565b5083816007015f6101000a81548160ff021916908315150217905550828160070160016101000a81548160ff0219169083151502179055505050505050505050565b611b2b8584866126c7565b611b3485612629565b5f611b3d6124cb565b90505f815f015f8881526020019081526020015f20905083816010015f8881526020019081526020015f206001019081611b779190614057565b5082816010015f8881526020019081526020015f206002019081611b9b9190614057565b5050505050505050565b611baf8383612612565b611bb883612629565b5f611bc16124cb565b9050611bfc82825f015f8781526020019081526020015f20600d015f8681526020019081526020015f2060050161268f90919063ffffffff16565b5050505050565b5f611c0c6124cb565b6004015f8381526020019081526020015f20549050919050565b5f611c2f6124cb565b6004015f8381526020019081526020015f20549050919050565b611c52826126ba565b611c5c8282612777565b611c6582612629565b5f611c6e6124cb565b90505f815f015f8581526020019081526020015f209050611c9b838260080161276090919063ffffffff16565b5080600a015f8481526020019081526020015f205f5f82015f5f82015f9055600182015f611cc99190612e7d565b600282015f611cd89190612e7d565b5050600382015f9055600482015f9055600582015f9055600682015f6101000a81549060ff02191690556006820160016101000a81549060ff02191690556006820160026101000a81549060ff02191690556006820160036101000a81549060ff02191690556006820160046101000a81549060ff02191690555050816002015f8481526020019081526020015f205f905550505050565b60605f611d7c856124f7565b90505f611d8b8260080161257e565b90505f5f611d9a838888612591565b915091505f8167ffffffffffffffff811115611db957611db8613201565b5b604051908082528060200260200182016040528015611df257816020015b611ddf612eba565b815260200190600190039081611dd75790505b5090505f5f90505b8281101561204c5785600a015f611e288387611e169190613dfa565b896008016125fb90919063ffffffff16565b81526020019081526020015f20604051806101200160405290815f82016040518060600160405290815f8201548152602001600182018054611e6990613e87565b80601f0160208091040260200160405190810160405280929190818152602001828054611e9590613e87565b8015611ee05780601f10611eb757610100808354040283529160200191611ee0565b820191905f5260205f20905b815481529060010190602001808311611ec357829003601f168201915b50505050508152602001600282018054611ef990613e87565b80601f0160208091040260200160405190810160405280929190818152602001828054611f2590613e87565b8015611f705780601f10611f4757610100808354040283529160200191611f70565b820191905f5260205f20905b815481529060010190602001808311611f5357829003601f168201915b5050505050815250508152602001600382015481526020016004820154815260200160058201548152602001600682015f9054906101000a900460ff161515151581526020016006820160019054906101000a900460ff161515151581526020016006820160029054906101000a900460ff161515151581526020016006820160039054906101000a900460ff161515151581526020016006820160049054906101000a900460ff16151515158152505082828151811061203457612033613e2d565b5b60200260200101819052508080600101915050611dfa565b5080955050505050509392505050565b612065336126a6565b8061206e6124cb565b6004015f8481526020019081526020015f20819055505050565b5f6120916124cb565b6003015f8381526020019081526020015f205f9054906101000a900473ffffffffffffffffffffffffffffffffffffffff169050919050565b6120d3336126a6565b806120dc6124cb565b6006015f6101000a81548173ffffffffffffffffffffffffffffffffffffffff021916908373ffffffffffffffffffffffffffffffffffffffff16021790555050565b60605f61212b856124f7565b90505f61213a82600b0161257e565b90505f5f612149838888612591565b915091505f8167ffffffffffffffff81111561216857612167613201565b5b6040519080825280602002602001820160405280156121a157816020015b61218e612e5d565b8152602001906001900390816121865790505b5090505f5f90505b828110156123455785600d015f6121d783876121c59190613dfa565b89600b016125fb90919063ffffffff16565b81526020019081526020015f205f016040518060600160405290815f820154815260200160018201805461220a90613e87565b80601f016020809104026020016040519081016040528092919081815260200182805461223690613e87565b80156122815780601f1061225857610100808354040283529160200191612281565b820191905f5260205f20905b81548152906001019060200180831161226457829003601f168201915b5050505050815260200160028201805461229a90613e87565b80601f01602080910402602001604051908101604052809291908181526020018280546122c690613e87565b80156123115780601f106122e857610100808354040283529160200191612311565b820191905f5260205f20905b8154815290600101906020018083116122f457829003601f168201915b50505050508152505082828151811061232d5761232c613e2d565b5b602002602001018190525080806001019150506121a9565b5080955050505050509392505050565b61235e866126ba565b5f6123676124cb565b90505f816002015f8981526020019081526020015f205490505f825f015f8381526020019081526020015f20600a015f8981526020019081526020015f2090508781600301819055508681600401819055508581600501819055506001816006015f6101000a81548160ff0219169083151502179055505f8160060160016101000a81548160ff0219169083151502179055505f8160060160026101000a81548160ff0219169083151502179055505f8160060160036101000a81548160ff0219169083151502179055505f8160060160046101000a81548160ff02191690831515021790555087815f015f018190555084815f01600101908161246b9190614057565b5083815f01600201908161247f9190614057565b506124a788845f015f8581526020019081526020015f2060080161268f90919063ffffffff16565b5081836002015f8a81526020019081526020015f2081905550505050505050505050565b5f5f7f171def12e82c8f3351e4c79b7854be19ad60a75b888f74b9660c07cd7461963390508091505090565b5f5f6125016124cb565b90505f816002015f8581526020019081526020015f205490505f810361255e57836040517fd4a847370000000000000000000000000000000000000000000000000000000081526004016125559190612f41565b60405180910390fd5b5f825f015f8381526020019081526020015f209050809350505050919050565b5f61258a825f01612a71565b9050919050565b5f5f848311156125a2578492505f93505b5f83856125af91906141ee565b90508581106125c4575f5f92509250506125f3565b5f84826125d19190613dfa565b9050868111156125df578690505b8182826125ec9190614194565b9350935050505b935093915050565b5f612608835f0183612a80565b5f1c905092915050565b61261b826126ba565b6126258282612aa7565b5050565b5f6126326124cb565b905081816002015f8481526020019081526020015f20541461268b57816040517f1d0932ee0000000000000000000000000000000000000000000000000000000081526004016126829190612f41565b60405180910390fd5b5050565b5f61269e835f01835f1b612af8565b905092915050565b6126b76126b16124cb565b82612b5f565b50565b6126c48133612c53565b50565b6126d18383612612565b5f6126da6124cb565b905061271582825f015f8781526020019081526020015f20600d015f8681526020019081526020015f20600301612ca490919063ffffffff16565b61275a578383836040517fef25d02d0000000000000000000000000000000000000000000000000000000081526004016127519392919061422f565b60405180910390fd5b50505050565b5f61276f835f01835f1b612cbb565b905092915050565b5f6127806124cb565b905081815f015f8581526020019081526020015f20600a015f8481526020019081526020015f2060030154146127ef5782826040517f748e712a0000000000000000000000000000000000000000000000000000000081526004016127e692919061416d565b60405180910390fd5b505050565b6127fe8383612612565b5f6128076124cb565b905061284282825f015f8781526020019081526020015f20600d015f8681526020019081526020015f20600501612ca490919063ffffffff16565b612887578383836040517f7916785800000000000000000000000000000000000000000000000000000000815260040161287e9392919061422f565b60405180910390fd5b50505050565b5f5f6128976124cb565b90505f816002015f8681526020019081526020015f205490505f81036128c1575f925050506129c9565b5f825f015f8381526020019081526020015f20905081815f0160030154146128ee575f93505050506129c9565b826005015f9054906101000a900473ffffffffffffffffffffffffffffffffffffffff1673ffffffffffffffffffffffffffffffffffffffff168573ffffffffffffffffffffffffffffffffffffffff16148015612960575060011515816013015f9054906101000a900460ff161515145b1561297157600193505050506129c9565b8473ffffffffffffffffffffffffffffffffffffffff16816007015f9054906101000a900473ffffffffffffffffffffffffffffffffffffffff1673ffffffffffffffffffffffffffffffffffffffff161493505050505b92915050565b5f6129d86124cb565b9050806005015f9054906101000a900473ffffffffffffffffffffffffffffffffffffffff1673ffffffffffffffffffffffffffffffffffffffff168273ffffffffffffffffffffffffffffffffffffffff1614612a6d57816040517f92f13c4e000000000000000000000000000000000000000000000000000000008152600401612a649190613421565b60405180910390fd5b5050565b5f815f01805490509050919050565b5f825f018281548110612a9657612a95613e2d565b5b905f5260205f200154905092915050565b612ab18282612db7565b612af45781816040517f931a85b3000000000000000000000000000000000000000000000000000000008152600401612aeb92919061416d565b60405180910390fd5b5050565b5f612b038383612e01565b612b5557825f0182908060018154018082558091505060019003905f5260205f20015f9091909190915055825f0180549050836001015f8481526020019081526020015f208190555060019050612b59565b5f90505b92915050565b816005015f9054906101000a900473ffffffffffffffffffffffffffffffffffffffff1673ffffffffffffffffffffffffffffffffffffffff168173ffffffffffffffffffffffffffffffffffffffff1614158015612c0d5750816006015f9054906101000a900473ffffffffffffffffffffffffffffffffffffffff1673ffffffffffffffffffffffffffffffffffffffff168173ffffffffffffffffffffffffffffffffffffffff1614155b15612c4f57806040517f9ed88e07000000000000000000000000000000000000000000000000000000008152600401612c469190613421565b60405180910390fd5b5050565b612c5d828261288d565b612ca05781816040517f7b0f9c07000000000000000000000000000000000000000000000000000000008152600401612c97929190614264565b60405180910390fd5b5050565b5f612cb3835f01835f1b612e01565b905092915050565b5f5f836001015f8481526020019081526020015f205490505f8114612dac575f600182612ce89190614194565b90505f6001865f0180549050612cfe9190614194565b9050808214612d64575f865f018281548110612d1d57612d1c613e2d565b5b905f5260205f200154905080875f018481548110612d3e57612d3d613e2d565b5b905f5260205f20018190555083876001015f8381526020019081526020015f2081905550505b855f01805480612d7757612d7661428b565b5b600190038181905f5260205f20015f90559055856001015f8681526020019081526020015f205f905560019350505050612db1565b5f9150505b92915050565b5f5f612dc16124cb565b90505f815f015f8681526020019081526020015f2090505f81600d015f8681526020019081526020015f20905084815f015f015414935050505092915050565b5f5f836001015f8481526020019081526020015f20541415905092915050565b60405180608001604052805f815260200160608152602001606081526020015f73ffffffffffffffffffffffffffffffffffffffff1681525090565b60405180606001604052805f815260200160608152602001606081525090565b508054612e8990613e87565b5f825580601f10612e9a5750612eb7565b601f0160209004905f5260205f2090810190612eb69190612f0e565b5b50565b604051806101200160405280612ece612e5d565b81526020015f81526020015f81526020015f81526020015f151581526020015f151581526020015f151581526020015f151581526020015f151581525090565b5b80821115612f25575f815f905550600101612f0f565b5090565b5f819050919050565b612f3b81612f29565b82525050565b5f602082019050612f545f830184612f32565b92915050565b5f604051905090565b5f5ffd5b5f5ffd5b612f7481612f29565b8114612f7e575f5ffd5b50565b5f81359050612f8f81612f6b565b92915050565b5f5f5f5f60808587031215612fad57612fac612f63565b5b5f612fba87828801612f81565b9450506020612fcb87828801612f81565b9350506040612fdc87828801612f81565b9250506060612fed87828801612f81565b91505092959194509250565b5f81519050919050565b5f82825260208201905092915050565b5f819050602082019050919050565b61302b81612f29565b82525050565b5f81519050919050565b5f82825260208201905092915050565b8281835e5f83830152505050565b5f601f19601f8301169050919050565b5f61307382613031565b61307d818561303b565b935061308d81856020860161304b565b61309681613059565b840191505092915050565b5f73ffffffffffffffffffffffffffffffffffffffff82169050919050565b5f6130ca826130a1565b9050919050565b6130da816130c0565b82525050565b5f608083015f8301516130f55f860182613022565b506020830151848203602086015261310d8282613069565b915050604083015184820360408601526131278282613069565b915050606083015161313c60608601826130d1565b508091505092915050565b5f61315283836130e0565b905092915050565b5f602082019050919050565b5f61317082612ff9565b61317a8185613003565b93508360208202850161318c85613013565b805f5b858110156131c757848403895281516131a88582613147565b94506131b38361315a565b925060208a0199505060018101905061318f565b50829750879550505050505092915050565b5f6020820190508181035f8301526131f18184613166565b905092915050565b5f5ffd5b5f5ffd5b7f4e487b71000000000000000000000000000000000000000000000000000000005f52604160045260245ffd5b61323782613059565b810181811067ffffffffffffffff8211171561325657613255613201565b5b80604052505050565b5f613268612f5a565b9050613274828261322e565b919050565b5f67ffffffffffffffff82111561329357613292613201565b5b61329c82613059565b9050602081019050919050565b828183375f83830152505050565b5f6132c96132c484613279565b61325f565b9050828152602081018484840111156132e5576132e46131fd565b5b6132f08482856132a9565b509392505050565b5f82601f83011261330c5761330b6131f9565b5b813561331c8482602086016132b7565b91505092915050565b5f5f5f5f5f60a0868803121561333e5761333d612f63565b5b5f61334b88828901612f81565b955050602061335c88828901612f81565b945050604061336d88828901612f81565b935050606086013567ffffffffffffffff81111561338e5761338d612f67565b5b61339a888289016132f8565b925050608086013567ffffffffffffffff8111156133bb576133ba612f67565b5b6133c7888289016132f8565b9150509295509295909350565b5f5f604083850312156133ea576133e9612f63565b5b5f6133f785828601612f81565b925050602061340885828601612f81565b9150509250929050565b61341b816130c0565b82525050565b5f6020820190506134345f830184613412565b92915050565b5f81519050919050565b5f82825260208201905092915050565b5f819050602082019050919050565b5f606083015f8301516134785f860182613022565b50602083015184820360208601526134908282613069565b915050604083015184820360408601526134aa8282613069565b9150508091505092915050565b5f6134c28383613463565b905092915050565b5f602082019050919050565b5f6134e08261343a565b6134ea8185613444565b9350836020820285016134fc85613454565b805f5b85811015613537578484038952815161351885826134b7565b9450613523836134ca565b925060208a019950506001810190506134ff565b50829750879550505050505092915050565b5f6020820190508181035f83015261356181846134d6565b905092915050565b5f5f5f606084860312156135805761357f612f63565b5b5f61358d86828701612f81565b935050602061359e86828701612f81565b92505060406135af86828701612f81565b9150509250925092565b5f5f5f5f608085870312156135d1576135d0612f63565b5b5f6135de87828801612f81565b94505060206135ef87828801612f81565b935050604085013567ffffffffffffffff8111156136105761360f612f67565b5b61361c878288016132f8565b925050606085013567ffffffffffffffff81111561363d5761363c612f67565b5b613649878288016132f8565b91505092959194509250565b5f6020828403121561366a57613669612f63565b5b5f61367784828501612f81565b91505092915050565b5f8115159050919050565b61369481613680565b82525050565b5f6020820190506136ad5f83018461368b565b92915050565b5f67ffffffffffffffff8211156136cd576136cc613201565b5b602082029050602081019050919050565b5f5ffd5b5f6136f46136ef846136b3565b61325f565b90508083825260208201905060208402830185811115613717576137166136de565b5b835b81811015613740578061372c8882612f81565b845260208401935050602081019050613719565b5050509392505050565b5f82601f83011261375e5761375d6131f9565b5b813561376e8482602086016136e2565b91505092915050565b61378081613680565b811461378a575f5ffd5b50565b5f8135905061379b81613777565b92915050565b5f5f5f5f5f5f5f60e0888a0312156137bc576137bb612f63565b5b5f6137c98a828b01612f81565b975050602088013567ffffffffffffffff8111156137ea576137e9612f67565b5b6137f68a828b016132f8565b965050604088013567ffffffffffffffff81111561381757613816612f67565b5b6138238a828b016132f8565b955050606088013567ffffffffffffffff81111561384457613843612f67565b5b6138508a828b0161374a565b945050608088013567ffffffffffffffff81111561387157613870612f67565b5b61387d8a828b0161374a565b93505060a061388e8a828b0161378d565b92505060c061389f8a828b0161378d565b91505092959891949750929550565b6138b7816130c0565b81146138c1575f5ffd5b50565b5f813590506138d2816138ae565b92915050565b5f5f5f5f5f60a086880312156138f1576138f0612f63565b5b5f6138fe88828901612f81565b955050602061390f8882890161378d565b945050604086013567ffffffffffffffff8111156139305761392f612f67565b5b61393c888289016132f8565b935050606086013567ffffffffffffffff81111561395d5761395c612f67565b5b613969888289016132f8565b925050608061397a888289016138c4565b9150509295509295909350565b5f5f6040838503121561399d5761399c612f63565b5b5f6139aa85828601612f81565b92505060206139bb858286016138c4565b9150509250929050565b5f5f5f5f5f60a086880312156139de576139dd612f63565b5b5f6139eb88828901612f81565b95505060206139fc888289016138c4565b9450506040613a0d88828901612f81565b935050606086013567ffffffffffffffff811115613a2e57613a2d612f67565b5b613a3a888289016132f8565b925050608086013567ffffffffffffffff811115613a5b57613a5a612f67565b5b613a67888289016132f8565b9150509295509295909350565b5f5f5f5f5f5f60c08789031215613a8e57613a8d612f63565b5b5f613a9b89828a01612f81565b9650506020613aac89828a01612f81565b955050604087013567ffffffffffffffff811115613acd57613acc612f67565b5b613ad989828a016132f8565b945050606087013567ffffffffffffffff811115613afa57613af9612f67565b5b613b0689828a016132f8565b9350506080613b1789828a0161378d565b92505060a0613b2889828a0161378d565b9150509295509295509295565b5f81519050919050565b5f82825260208201905092915050565b5f819050602082019050919050565b613b6781613680565b82525050565b5f61012083015f8301518482035f860152613b888282613463565b9150506020830151613b9d6020860182613022565b506040830151613bb06040860182613022565b506060830151613bc36060860182613022565b506080830151613bd66080860182613b5e565b5060a0830151613be960a0860182613b5e565b5060c0830151613bfc60c0860182613b5e565b5060e0830151613c0f60e0860182613b5e565b50610100830151613c24610100860182613b5e565b508091505092915050565b5f613c3a8383613b6d565b905092915050565b5f602082019050919050565b5f613c5882613b35565b613c628185613b3f565b935083602082028501613c7485613b4f565b805f5b85811015613caf5784840389528151613c908582613c2f565b9450613c9b83613c42565b925060208a01995050600181019050613c77565b50829750879550505050505092915050565b5f6020820190508181035f830152613cd98184613c4e565b905092915050565b5f60208284031215613cf657613cf5612f63565b5b5f613d03848285016138c4565b91505092915050565b5f5f5f5f5f5f60c08789031215613d2657613d25612f63565b5b5f613d3389828a01612f81565b9650506020613d4489828a01612f81565b9550506040613d5589828a01612f81565b9450506060613d6689828a01612f81565b935050608087013567ffffffffffffffff811115613d8757613d86612f67565b5b613d9389828a016132f8565b92505060a087013567ffffffffffffffff811115613db457613db3612f67565b5b613dc089828a016132f8565b9150509295509295509295565b7f4e487b71000000000000000000000000000000000000000000000000000000005f52601160045260245ffd5b5f613e0482612f29565b9150613e0f83612f29565b9250828201905080821115613e2757613e26613dcd565b5b92915050565b7f4e487b71000000000000000000000000000000000000000000000000000000005f52603260045260245ffd5b7f4e487b71000000000000000000000000000000000000000000000000000000005f52602260045260245ffd5b5f6002820490506001821680613e9e57607f821691505b602082108103613eb157613eb0613e5a565b5b50919050565b5f819050815f5260205f209050919050565b5f6020601f8301049050919050565b5f82821b905092915050565b5f60088302613f137fffffffffffffffffffffffffffffffffffffffffffffffffffffffffffffffff82613ed8565b613f1d8683613ed8565b95508019841693508086168417925050509392505050565b5f819050919050565b5f613f58613f53613f4e84612f29565b613f35565b612f29565b9050919050565b5f819050919050565b613f7183613f3e565b613f85613f7d82613f5f565b848454613ee4565b825550505050565b5f5f905090565b613f9c613f8d565b613fa7818484613f68565b505050565b5b81811015613fca57613fbf5f82613f94565b600181019050613fad565b5050565b601f82111561400f57613fe081613eb7565b613fe984613ec9565b81016020851015613ff8578190505b61400c61400485613ec9565b830182613fac565b50505b505050565b5f82821c905092915050565b5f61402f5f1984600802614014565b1980831691505092915050565b5f6140478383614020565b9150826002028217905092915050565b61406082613031565b67ffffffffffffffff81111561407957614078613201565b5b6140838254613e87565b61408e828285613fce565b5f60209050601f8311600181146140bf575f84156140ad578287015190505b6140b7858261403c565b86555061411e565b601f1984166140cd86613eb7565b5f5b828110156140f4578489015182556001820191506020850194506020810190506140cf565b86831015614111578489015161410d601f891682614020565b8355505b6001600288020188555050505b505050505050565b5f61413082612f29565b91507fffffffffffffffffffffffffffffffffffffffffffffffffffffffffffffffff820361416257614161613dcd565b5b600182019050919050565b5f6040820190506141805f830185612f32565b61418d6020830184612f32565b9392505050565b5f61419e82612f29565b91506141a983612f29565b92508282039050818111156141c1576141c0613dcd565b5b92915050565b5f6141d182612f29565b91505f82036141e3576141e2613dcd565b5b600182039050919050565b5f6141f882612f29565b915061420383612f29565b925082820261421181612f29565b9150828204841483151761422857614227613dcd565b5b5092915050565b5f6060820190506142425f830186612f32565b61424f6020830185612f32565b61425c6040830184612f32565b949350505050565b5f6040820190506142775f830185612f32565b6142846020830184613412565b9392505050565b7f4e487b71000000000000000000000000000000000000000000000000000000005f52603160045260245ffdfea26469706673582212200d1e296ac6aebb34c2474cc83ef3ec2562718b78dcda5c204ceb6b592d4a7cce64736f6c634300081c0033",
  "linkReferences": {},
  "deployedLinkReferences": {},
  "immutableReferences": {},
  "inputSourceName": "project/contracts/AccountConfig.sol",
  "buildInfoId": "solc-0_8_28-c113167a518c282dd7351dffdab53f197f5fd168"
}