{
  "_format": "hh3-artifact-1",
  "contractName": "AccountConfig",
  "sourceName": "contracts/AccountConfig.sol",
  "abi": [
    {
      "inputs": [],
      "stateMutability": "nonpayable",
      "type": "constructor"
    },
    {
      "inputs": [
        {
          "internalType": "uint256",
          "name": "apiKey",
          "type": "uint256"
        }
      ],
      "name": "AccountDoesNotExist",
      "type": "error"
    },
    {
      "inputs": [
        {
          "internalType": "uint256",
          "name": "apiKey",
          "type": "uint256"
        },
        {
          "internalType": "uint256",
          "name": "groupId",
          "type": "uint256"
        },
        {
          "internalType": "uint256",
          "name": "action",
          "type": "uint256"
        }
      ],
      "name": "ActionDoesNotExist",
      "type": "error"
    },
    {
      "inputs": [
        {
          "internalType": "uint256",
          "name": "apiKey",
          "type": "uint256"
        },
        {
          "internalType": "uint256",
          "name": "groupId",
          "type": "uint256"
        }
      ],
      "name": "GroupDoesNotExist",
      "type": "error"
    },
    {
      "inputs": [
        {
          "internalType": "uint256",
          "name": "apiKey",
          "type": "uint256"
        },
        {
          "internalType": "uint256",
          "name": "usageApiKey",
          "type": "uint256"
        }
      ],
      "name": "UsageApiKeyDoesNotExist",
      "type": "error"
    },
    {
      "inputs": [
        {
          "internalType": "uint256",
          "name": "apiKey",
          "type": "uint256"
        },
        {
          "internalType": "uint256",
          "name": "groupId",
          "type": "uint256"
        },
        {
          "internalType": "uint256",
          "name": "Wallet",
          "type": "uint256"
        }
      ],
      "name": "WalletDoesNotExist",
      "type": "error"
    },
    {
      "inputs": [
        {
          "internalType": "uint256",
          "name": "apiKeyHash",
          "type": "uint256"
        }
      ],
      "name": "accountExistsAndIsMutable",
      "outputs": [
        {
          "internalType": "bool",
          "name": "",
          "type": "bool"
        }
      ],
      "stateMutability": "view",
      "type": "function"
    },
    {
      "inputs": [
        {
          "internalType": "uint256",
          "name": "accountApiKeyHash",
          "type": "uint256"
        },
        {
          "internalType": "uint256",
          "name": "groupId",
          "type": "uint256"
        },
        {
          "internalType": "uint256",
          "name": "action",
          "type": "uint256"
        },
        {
          "internalType": "string",
          "name": "name",
          "type": "string"
        },
        {
          "internalType": "string",
          "name": "description",
          "type": "string"
        }
      ],
      "name": "addActionToGroup",
      "outputs": [],
      "stateMutability": "nonpayable",
      "type": "function"
    },
    {
      "inputs": [
        {
          "internalType": "uint256",
          "name": "accountApiKeyHash",
          "type": "uint256"
        },
        {
          "internalType": "uint256",
          "name": "usageApiKeyHash",
          "type": "uint256"
        },
        {
          "internalType": "uint256",
          "name": "expiration",
          "type": "uint256"
        },
        {
          "internalType": "uint256",
          "name": "balance",
          "type": "uint256"
        }
      ],
      "name": "addApiKey",
      "outputs": [],
      "stateMutability": "nonpayable",
      "type": "function"
    },
    {
      "inputs": [
        {
          "internalType": "uint256",
          "name": "accountApiKeyHash",
          "type": "uint256"
        },
        {
          "internalType": "string",
          "name": "name",
          "type": "string"
        },
        {
          "internalType": "string",
          "name": "description",
          "type": "string"
        },
        {
          "internalType": "uint256[]",
          "name": "permitted_actions",
          "type": "uint256[]"
        },
        {
          "internalType": "uint256[]",
          "name": "Wallets",
          "type": "uint256[]"
        },
        {
          "internalType": "bool",
          "name": "all_wallets_permitted",
          "type": "bool"
        },
        {
          "internalType": "bool",
          "name": "all_actions_permitted",
          "type": "bool"
        }
      ],
      "name": "addGroup",
      "outputs": [],
      "stateMutability": "nonpayable",
      "type": "function"
    },
    {
      "inputs": [
        {
          "internalType": "uint256",
          "name": "accountApiKeyHash",
          "type": "uint256"
        },
        {
          "internalType": "uint256",
          "name": "groupId",
          "type": "uint256"
        },
        {
          "internalType": "uint256",
          "name": "walletAddressHash",
          "type": "uint256"
        }
      ],
      "name": "addWalletToGroup",
      "outputs": [],
      "stateMutability": "nonpayable",
      "type": "function"
    },
    {
      "inputs": [
        {
          "internalType": "uint256",
          "name": "accountApiKeyHash",
          "type": "uint256"
        },
        {
          "internalType": "uint256",
          "name": "walletAddressHash",
          "type": "uint256"
        }
      ],
      "name": "getWalletDerivation",
      "outputs": [
        {
          "internalType": "uint256",
          "name": "",
          "type": "uint256"
        }
      ],
      "stateMutability": "view",
      "type": "function"
    },
    {
      "inputs": [
        {
          "internalType": "uint256",
          "name": "accountApiKeyHash",
          "type": "uint256"
        },
        {
          "internalType": "uint256",
          "name": "groupId",
          "type": "uint256"
        },
        {
          "internalType": "uint256",
          "name": "pageNumber",
          "type": "uint256"
        },
        {
          "internalType": "uint256",
          "name": "pageSize",
          "type": "uint256"
        }
      ],
      "name": "listActions",
      "outputs": [
        {
          "components": [
            {
              "internalType": "uint256",
              "name": "id",
              "type": "uint256"
            },
            {
              "internalType": "string",
              "name": "name",
              "type": "string"
            },
            {
              "internalType": "string",
              "name": "description",
              "type": "string"
            }
          ],
          "internalType": "struct AccountConfig.Metadata[]",
          "name": "",
          "type": "tuple[]"
        }
      ],
      "stateMutability": "view",
      "type": "function"
    },
    {
      "inputs": [
        {
          "internalType": "uint256",
          "name": "accountApiKeyHash",
          "type": "uint256"
        },
        {
          "internalType": "uint256",
          "name": "pageNumber",
          "type": "uint256"
        },
        {
          "internalType": "uint256",
          "name": "pageSize",
          "type": "uint256"
        }
      ],
      "name": "listGroups",
      "outputs": [
        {
          "components": [
            {
              "internalType": "uint256",
              "name": "id",
              "type": "uint256"
            },
            {
              "internalType": "string",
              "name": "name",
              "type": "string"
            },
            {
              "internalType": "string",
              "name": "description",
              "type": "string"
            }
          ],
          "internalType": "struct AccountConfig.Metadata[]",
          "name": "",
          "type": "tuple[]"
        }
      ],
      "stateMutability": "view",
      "type": "function"
    },
    {
      "inputs": [
        {
          "internalType": "uint256",
          "name": "accountApiKeyHash",
          "type": "uint256"
        },
        {
          "internalType": "uint256",
          "name": "pageNumber",
          "type": "uint256"
        },
        {
          "internalType": "uint256",
          "name": "pageSize",
          "type": "uint256"
        }
      ],
      "name": "listWallets",
      "outputs": [
        {
          "components": [
            {
              "internalType": "uint256",
              "name": "id",
              "type": "uint256"
            },
            {
              "internalType": "string",
              "name": "name",
              "type": "string"
            },
            {
              "internalType": "string",
              "name": "description",
              "type": "string"
            }
          ],
          "internalType": "struct AccountConfig.Metadata[]",
          "name": "",
          "type": "tuple[]"
        }
      ],
      "stateMutability": "view",
      "type": "function"
    },
    {
      "inputs": [
        {
          "internalType": "uint256",
          "name": "accountApiKeyHash",
          "type": "uint256"
        },
        {
          "internalType": "uint256",
          "name": "groupId",
          "type": "uint256"
        },
        {
          "internalType": "uint256",
          "name": "pageNumber",
          "type": "uint256"
        },
        {
          "internalType": "uint256",
          "name": "pageSize",
          "type": "uint256"
        }
      ],
      "name": "listWalletsInGroup",
      "outputs": [
        {
          "components": [
            {
              "internalType": "uint256",
              "name": "id",
              "type": "uint256"
            },
            {
              "internalType": "string",
              "name": "name",
              "type": "string"
            },
            {
              "internalType": "string",
              "name": "description",
              "type": "string"
            }
          ],
          "internalType": "struct AccountConfig.Metadata[]",
          "name": "",
          "type": "tuple[]"
        }
      ],
      "stateMutability": "view",
      "type": "function"
    },
    {
      "inputs": [
        {
          "internalType": "uint256",
          "name": "apiKeyHash",
          "type": "uint256"
        },
        {
          "internalType": "bool",
          "name": "managed",
          "type": "bool"
        },
        {
          "internalType": "string",
          "name": "accountName",
          "type": "string"
        },
        {
          "internalType": "string",
          "name": "accountDescription",
          "type": "string"
        },
        {
          "internalType": "address",
          "name": "creatorWalletAddress",
          "type": "address"
        },
        {
          "internalType": "uint256",
          "name": "initialBalance",
          "type": "uint256"
        }
      ],
      "name": "newAccount",
      "outputs": [],
      "stateMutability": "nonpayable",
      "type": "function"
    },
    {
      "inputs": [],
      "name": "nextWalletCount",
      "outputs": [
        {
          "internalType": "uint256",
          "name": "",
          "type": "uint256"
        }
      ],
      "stateMutability": "view",
      "type": "function"
    },
    {
      "inputs": [],
      "name": "owner",
      "outputs": [
        {
          "internalType": "address",
          "name": "",
          "type": "address"
        }
      ],
      "stateMutability": "view",
      "type": "function"
    },
    {
      "inputs": [
        {
          "internalType": "uint256",
          "name": "accountApiKeyHash",
          "type": "uint256"
        },
        {
          "internalType": "uint256",
          "name": "walletAddressHash",
          "type": "uint256"
        },
        {
          "internalType": "uint256",
          "name": "derivationPath",
          "type": "uint256"
        },
        {
          "internalType": "string",
          "name": "name",
          "type": "string"
        },
        {
          "internalType": "string",
          "name": "description",
          "type": "string"
        }
      ],
      "name": "registerWalletDerivation",
      "outputs": [],
      "stateMutability": "nonpayable",
      "type": "function"
    },
    {
      "inputs": [
        {
          "internalType": "uint256",
          "name": "accountApiKeyHash",
          "type": "uint256"
        },
        {
          "internalType": "uint256",
          "name": "groupId",
          "type": "uint256"
        },
        {
          "internalType": "uint256",
          "name": "action",
          "type": "uint256"
        }
      ],
      "name": "removeActionFromGroup",
      "outputs": [],
      "stateMutability": "nonpayable",
      "type": "function"
    },
    {
      "inputs": [
        {
          "internalType": "uint256",
          "name": "accountApiKeyHash",
          "type": "uint256"
        },
        {
          "internalType": "uint256",
          "name": "usageApiKeyHash",
          "type": "uint256"
        }
      ],
      "name": "removeUsageApiKey",
      "outputs": [],
      "stateMutability": "nonpayable",
      "type": "function"
    },
    {
      "inputs": [
        {
          "internalType": "uint256",
          "name": "accountApiKeyHash",
          "type": "uint256"
        },
        {
          "internalType": "uint256",
          "name": "groupId",
          "type": "uint256"
        },
        {
          "internalType": "uint256",
          "name": "walletAddressHash",
          "type": "uint256"
        }
      ],
      "name": "removeWalletFromGroup",
      "outputs": [],
      "stateMutability": "nonpayable",
      "type": "function"
    },
    {
      "inputs": [
        {
          "internalType": "uint256",
          "name": "accountApiKeyHash",
          "type": "uint256"
        },
        {
          "internalType": "uint256",
          "name": "actionHash",
          "type": "uint256"
        },
        {
          "internalType": "uint256",
          "name": "groupId",
          "type": "uint256"
        },
        {
          "internalType": "string",
          "name": "name",
          "type": "string"
        },
        {
          "internalType": "string",
          "name": "description",
          "type": "string"
        }
      ],
      "name": "updateActionMetadata",
      "outputs": [],
      "stateMutability": "nonpayable",
      "type": "function"
    },
    {
      "inputs": [
        {
          "internalType": "uint256",
          "name": "accountApiKeyHash",
          "type": "uint256"
        },
        {
          "internalType": "uint256",
          "name": "groupId",
          "type": "uint256"
        },
        {
          "internalType": "string",
          "name": "name",
          "type": "string"
        },
        {
          "internalType": "string",
          "name": "description",
          "type": "string"
        },
        {
          "internalType": "bool",
          "name": "all_wallets_permitted",
          "type": "bool"
        },
        {
          "internalType": "bool",
          "name": "all_actions_permitted",
          "type": "bool"
        }
      ],
      "name": "updateGroup",
      "outputs": [],
      "stateMutability": "nonpayable",
      "type": "function"
    },
    {
      "inputs": [
        {
          "internalType": "uint256",
          "name": "accountApiKeyHash",
          "type": "uint256"
        },
        {
          "internalType": "uint256",
          "name": "usageApiKeyHash",
          "type": "uint256"
        },
        {
          "internalType": "string",
          "name": "name",
          "type": "string"
        },
        {
          "internalType": "string",
          "name": "description",
          "type": "string"
        }
      ],
      "name": "updateUsageApiKeyMetadata",
      "outputs": [],
      "stateMutability": "nonpayable",
      "type": "function"
    }
  ],
  "bytecode": "0x6080604052348015600e575f5ffd5b503360025f6101000a81548173ffffffffffffffffffffffffffffffffffffffff021916908373ffffffffffffffffffffffffffffffffffffffff1602179055506001600381905550612ae8806100645f395ff3fe608060405234801561000f575f5ffd5b506004361061012a575f3560e01c806379b8e691116100ab578063bac710ea1161006f578063bac710ea1461033a578063bd9aed5114610356578063c5f5b98414610372578063dbb17a0b1461038e578063f75c8b2d146103aa5761012a565b806379b8e691146102845780637af361ef146102b45780638da5cb5b146102e457806396a7cc5414610302578063a6b6b6721461031e5761012a565b80635d861c72116100f25780635d861c72146101e45780636a3d77a9146102005780636e06ac9c1461021c578063719fac4314610238578063749e4d07146102685761012a565b8063291ff1ea1461012e5780632fa92e411461015e5780634705161e1461017a5780634971793514610198578063542970ed146101b4575b5f5ffd5b61014860048036038101906101439190611c52565b6103da565b6040516101559190611e44565b60405180910390f35b61017860048036038101906101739190611f90565b61068b565b005b610182610754565b60405161018f919061204e565b60405180910390f35b6101b260048036038101906101ad9190611c52565b61075a565b005b6101ce60048036038101906101c99190611c52565b6107d0565b6040516101db9190611e44565b60405180910390f35b6101fe60048036038101906101f99190612067565b610a81565b005b61021a600480360381019061021591906120b7565b610af4565b005b61023660048036038101906102319190612067565b610b64565b005b610252600480360381019061024d9190612153565b610bb1565b60405161025f9190612198565b60405180910390f35b610282600480360381019061027d919061229f565b610cb4565b005b61029e600480360381019061029991906123ac565b610e30565b6040516102ab919061204e565b60405180910390f35b6102ce60048036038101906102c99190612067565b610e6a565b6040516102db9190611e44565b60405180910390f35b6102ec6110da565b6040516102f99190612429565b60405180910390f35b61031c60048036038101906103179190612442565b6110ff565b005b61033860048036038101906103339190611f90565b6111cc565b005b610354600480360381019061034f9190612067565b61123a565b005b610370600480360381019061036b919061252d565b611286565b005b61038c600480360381019061038791906123ac565b611364565b005b6103a860048036038101906103a39190611f90565b61139d565b005b6103c460048036038101906103bf9190612067565b611483565b6040516103d19190611e44565b60405180910390f35b60606103e6858561171d565b5f5f5f8781526020019081526020015f2090505f81600f015f8781526020019081526020015f20905061041b8160050161176e565b8411156104345761042e8160050161176e565b93505f94505b5f8486610441919061261b565b90505f8582610450919061265c565b905061045e8360050161176e565b811115610474576104718360050161176e565b90505b5f8282610481919061268f565b90505f8167ffffffffffffffff81111561049e5761049d611e6c565b5b6040519080825280602002602001820160405280156104d757816020015b6104c4611bee565b8152602001906001900390816104bc5790505b5090505f5f90505b8281101561067957866015015f61050d83886104fb919061265c565b8960050161178190919063ffffffff16565b81526020019081526020015f206040518060600160405290815f820154815260200160018201805461053e906126ef565b80601f016020809104026020016040519081016040528092919081815260200182805461056a906126ef565b80156105b55780601f1061058c576101008083540402835291602001916105b5565b820191905f5260205f20905b81548152906001019060200180831161059857829003601f168201915b505050505081526020016002820180546105ce906126ef565b80601f01602080910402602001604051908101604052809291908181526020018280546105fa906126ef565b80156106455780601f1061061c57610100808354040283529160200191610645565b820191905f5260205f20905b81548152906001019060200180831161062857829003601f168201915b5050505050815250508282815181106106615761066061271f565b5b602002602001018190525080806001019150506104df565b50809650505050505050949350505050565b610695858561171d565b5f5f5f8781526020019081526020015f2090506106d08482600f015f8881526020019081526020015f2060030161179890919063ffffffff16565b5083816012015f8681526020019081526020015f205f018190555082816012015f8681526020019081526020015f20600101908161070e91906128ec565b5081816012015f8681526020019081526020015f20600201908161073291906128ec565b50806017015f815480929190610747906129bb565b9190505550505050505050565b60035481565b610763846117af565b5f5f5f8681526020019081526020015f20600c015f8581526020019081526020015f2090508381600301819055508281600401819055508181600501819055506107c8845f5f8881526020019081526020015f20600a0161179890919063ffffffff16565b505050505050565b60606107dc858561171d565b5f5f5f8781526020019081526020015f2090505f81600f015f8781526020019081526020015f2090506108118160030161176e565b84111561082a576108248160030161176e565b93505f94505b5f8486610837919061261b565b90505f8582610846919061265c565b90506108548360030161176e565b81111561086a576108678360030161176e565b90505b5f8282610877919061268f565b90505f8167ffffffffffffffff81111561089457610893611e6c565b5b6040519080825280602002602001820160405280156108cd57816020015b6108ba611bee565b8152602001906001900390816108b25790505b5090505f5f90505b82811015610a6f57866012015f61090383886108f1919061265c565b8960030161178190919063ffffffff16565b81526020019081526020015f206040518060600160405290815f8201548152602001600182018054610934906126ef565b80601f0160208091040260200160405190810160405280929190818152602001828054610960906126ef565b80156109ab5780601f10610982576101008083540402835291602001916109ab565b820191905f5260205f20905b81548152906001019060200180831161098e57829003601f168201915b505050505081526020016002820180546109c4906126ef565b80601f01602080910402602001604051908101604052809291908181526020018280546109f0906126ef565b8015610a3b5780601f10610a1257610100808354040283529160200191610a3b565b820191905f5260205f20905b815481529060010190602001808311610a1e57829003601f168201915b505050505081525050828281518110610a5757610a5661271f565b5b602002602001018190525080806001019150506108d5565b50809650505050505050949350505050565b610a8c8383836117fc565b5f5f5f8581526020019081526020015f209050610ac78282600f015f8681526020019081526020015f2060030161185190919063ffffffff16565b505f81601701541115610aee57806017015f815480929190610ae890612a02565b91905055505b50505050565b610afe8484611868565b5f5f5f8681526020019081526020015f2090508281600c015f8681526020019081526020015f205f016001019081610b3691906128ec565b508181600c015f8681526020019081526020015f205f016002019081610b5c91906128ec565b505050505050565b610b6f8383836118b9565b5f5f5f8581526020019081526020015f209050610baa8282600f015f8681526020019081526020015f2060050161185190919063ffffffff16565b5050505050565b5f5f5f5f8481526020019081526020015f20905082815f015f015414610bda575f915050610caf565b60025f9054906101000a900473ffffffffffffffffffffffffffffffffffffffff1673ffffffffffffffffffffffffffffffffffffffff163373ffffffffffffffffffffffffffffffffffffffff16148015610c4a575060011515816013015f9054906101000a900460ff161515145b15610c59576001915050610caf565b3373ffffffffffffffffffffffffffffffffffffffff16816009015f9054906101000a900473ffffffffffffffffffffffffffffffffffffffff1673ffffffffffffffffffffffffffffffffffffffff16149150505b919050565b610cbd876117af565b5f5f5f8981526020019081526020015f209050610cea816018015482600d0161179890919063ffffffff16565b505f81600f015f836018015481526020019081526020015f2090508160180154815f015f018190555087815f016001019081610d2691906128ec565b5086815f016002019081610d3a91906128ec565b505f5f90505b8651811015610d8757610d79878281518110610d5f57610d5e61271f565b5b60200260200101518360030161179890919063ffffffff16565b508080600101915050610d40565b505f5f90505b8551811015610dd457610dc6868281518110610dac57610dab61271f565b5b60200260200101518360050161179890919063ffffffff16565b508080600101915050610d8d565b5083816007015f6101000a81548160ff021916908315150217905550828160070160016101000a81548160ff021916908315150217905550816018015f815480929190610e20906129bb565b9190505550505050505050505050565b5f610e3a836117af565b5f5f5f8581526020019081526020015f209050806014015f8481526020019081526020015f205491505092915050565b6060610e75846117af565b5f5f5f8681526020019081526020015f209050600354831115610e9b5760035492505f93505b5f8385610ea8919061261b565b90505f8482610eb7919061265c565b9050600354811115610ec95760035490505b5f8282610ed6919061268f565b90505f8167ffffffffffffffff811115610ef357610ef2611e6c565b5b604051908082528060200260200182016040528015610f2c57816020015b610f19611bee565b815260200190600190039081610f115790505b5090505f5f90505b828110156110ca57856015015f60015f8489610f50919061265c565b81526020019081526020015f205481526020019081526020015f206040518060600160405290815f8201548152602001600182018054610f8f906126ef565b80601f0160208091040260200160405190810160405280929190818152602001828054610fbb906126ef565b80156110065780601f10610fdd57610100808354040283529160200191611006565b820191905f5260205f20905b815481529060010190602001808311610fe957829003601f168201915b5050505050815260200160028201805461101f906126ef565b80601f016020809104026020016040519081016040528092919081815260200182805461104b906126ef565b80156110965780601f1061106d57610100808354040283529160200191611096565b820191905f5260205f20905b81548152906001019060200180831161107957829003601f168201915b5050505050815250508282815181106110b2576110b161271f565b5b60200260200101819052508080600101915050610f34565b5080955050505050509392505050565b60025f9054906101000a900473ffffffffffffffffffffffffffffffffffffffff1681565b611109868661171d565b5f5f5f8881526020019081526020015f2090508481600f015f8881526020019081526020015f205f01600101908161114191906128ec565b508381600f015f8881526020019081526020015f205f01600201908161116791906128ec565b508281600f015f8881526020019081526020015f206007015f6101000a81548160ff0219169083151502179055508181600f015f8881526020019081526020015f2060070160016101000a81548160ff02191690831515021790555050505050505050565b6111d78584866117fc565b5f5f5f8781526020019081526020015f20905082816012015f8781526020019081526020015f20600101908161120d91906128ec565b5081816012015f8781526020019081526020015f20600201908161123191906128ec565b50505050505050565b611244838361171d565b5f5f5f8581526020019081526020015f20905061127f8282600f015f8681526020019081526020015f2060050161179890919063ffffffff16565b5050505050565b5f5f5f8881526020019081526020015f20905085816013015f6101000a81548160ff02191690831515021790555082816009015f6101000a81548173ffffffffffffffffffffffffffffffffffffffff021916908373ffffffffffffffffffffffffffffffffffffffff16021790555086815f015f018190555084815f01600101908161131391906128ec565b5083815f01600201908161132791906128ec565b508681600301600301819055506312cc030042611344919061265c565b816003016004018190555081816003016005018190555050505050505050565b61136e8282611868565b5f5f5f8481526020019081526020015f2090506113978282600a0161185190919063ffffffff16565b50505050565b6113a6856117af565b5f5f5f8781526020019081526020015f20905083816014015f8781526020019081526020015f208190555084816015015f8781526020019081526020015f205f018190555082816015015f8781526020019081526020015f20600101908161140e91906128ec565b5081816015015f8781526020019081526020015f20600201908161143291906128ec565b508460015f60035481526020019081526020015f2081905550806016015f81548092919061145f906129bb565b919050555060035f815480929190611476906129bb565b9190505550505050505050565b606061148e846117af565b5f5f5f8681526020019081526020015f2090506114ad81600d0161176e565b8311156114c6576114c081600d0161176e565b92505f93505b5f83856114d3919061261b565b90505f84826114e2919061265c565b90506114f083600d0161176e565b8111156115065761150383600d0161176e565b90505b5f8282611513919061268f565b90505f8167ffffffffffffffff8111156115305761152f611e6c565b5b60405190808252806020026020018201604052801561156957816020015b611556611bee565b81526020019060019003908161154e5790505b5090505f5f90505b8281101561170d5785600f015f61159f838861158d919061265c565b89600d0161178190919063ffffffff16565b81526020019081526020015f205f016040518060600160405290815f82015481526020016001820180546115d2906126ef565b80601f01602080910402602001604051908101604052809291908181526020018280546115fe906126ef565b80156116495780601f1061162057610100808354040283529160200191611649565b820191905f5260205f20905b81548152906001019060200180831161162c57829003601f168201915b50505050508152602001600282018054611662906126ef565b80601f016020809104026020016040519081016040528092919081815260200182805461168e906126ef565b80156116d95780601f106116b0576101008083540402835291602001916116d9565b820191905f5260205f20905b8154815290600101906020018083116116bc57829003601f168201915b5050505050815250508282815181106116f5576116f461271f565b5b60200260200101819052508080600101915050611571565b5080955050505050509392505050565b611727828261190e565b61176a5781816040517f931a85b3000000000000000000000000000000000000000000000000000000008152600401611761929190612a29565b60405180910390fd5b5050565b5f61177a825f0161194e565b9050919050565b5f61178e835f018361195d565b5f1c905092915050565b5f6117a7835f01835f1b611984565b905092915050565b6117b881610bb1565b6117f957806040517fd4a847370000000000000000000000000000000000000000000000000000000081526004016117f0919061204e565b60405180910390fd5b50565b6118078383836119eb565b61184c578282826040517fef25d02d00000000000000000000000000000000000000000000000000000000815260040161184393929190612a50565b60405180910390fd5b505050565b5f611860835f01835f1b611a36565b905092915050565b6118728282611b32565b6118b55781816040517f748e712a0000000000000000000000000000000000000000000000000000000081526004016118ac929190612a29565b60405180910390fd5b5050565b6118c4838383611b6c565b611909578282826040517f7916785800000000000000000000000000000000000000000000000000000000815260040161190093929190612a50565b60405180910390fd5b505050565b5f611918836117af565b5f5f5f8581526020019081526020015f20600f015f8481526020019081526020015f20905082815f015f01541491505092915050565b5f815f01805490509050919050565b5f825f0182815481106119735761197261271f565b5b905f5260205f200154905092915050565b5f61198f8383611bb7565b6119e157825f0182908060018154018082558091505060019003905f5260205f20015f9091909190915055825f0180549050836001015f8481526020019081526020015f2081905550600190506119e5565b5f90505b92915050565b5f6119f6848461171d565b611a2d825f5f8781526020019081526020015f20600f015f8681526020019081526020015f20600301611bd790919063ffffffff16565b90509392505050565b5f5f836001015f8481526020019081526020015f205490505f8114611b27575f600182611a63919061268f565b90505f6001865f0180549050611a79919061268f565b9050808214611adf575f865f018281548110611a9857611a9761271f565b5b905f5260205f200154905080875f018481548110611ab957611ab861271f565b5b905f5260205f20018190555083876001015f8381526020019081526020015f2081905550505b855f01805480611af257611af1612a85565b5b600190038181905f5260205f20015f90559055856001015f8681526020019081526020015f205f905560019350505050611b2c565b5f9150505b92915050565b5f611b3c836117af565b815f5f8581526020019081526020015f20600c015f8481526020019081526020015f206003015414905092915050565b5f611b77848461171d565b611bae825f5f8781526020019081526020015f20600f015f8681526020019081526020015f20600501611bd790919063ffffffff16565b90509392505050565b5f5f836001015f8481526020019081526020015f20541415905092915050565b5f611be6835f01835f1b611bb7565b905092915050565b60405180606001604052805f815260200160608152602001606081525090565b5f604051905090565b5f5ffd5b5f5ffd5b5f819050919050565b611c3181611c1f565b8114611c3b575f5ffd5b50565b5f81359050611c4c81611c28565b92915050565b5f5f5f5f60808587031215611c6a57611c69611c17565b5b5f611c7787828801611c3e565b9450506020611c8887828801611c3e565b9350506040611c9987828801611c3e565b9250506060611caa87828801611c3e565b91505092959194509250565b5f81519050919050565b5f82825260208201905092915050565b5f819050602082019050919050565b611ce881611c1f565b82525050565b5f81519050919050565b5f82825260208201905092915050565b8281835e5f83830152505050565b5f601f19601f8301169050919050565b5f611d3082611cee565b611d3a8185611cf8565b9350611d4a818560208601611d08565b611d5381611d16565b840191505092915050565b5f606083015f830151611d735f860182611cdf565b5060208301518482036020860152611d8b8282611d26565b91505060408301518482036040860152611da58282611d26565b9150508091505092915050565b5f611dbd8383611d5e565b905092915050565b5f602082019050919050565b5f611ddb82611cb6565b611de58185611cc0565b935083602082028501611df785611cd0565b805f5b85811015611e325784840389528151611e138582611db2565b9450611e1e83611dc5565b925060208a01995050600181019050611dfa565b50829750879550505050505092915050565b5f6020820190508181035f830152611e5c8184611dd1565b905092915050565b5f5ffd5b5f5ffd5b7f4e487b71000000000000000000000000000000000000000000000000000000005f52604160045260245ffd5b611ea282611d16565b810181811067ffffffffffffffff82111715611ec157611ec0611e6c565b5b80604052505050565b5f611ed3611c0e565b9050611edf8282611e99565b919050565b5f67ffffffffffffffff821115611efe57611efd611e6c565b5b611f0782611d16565b9050602081019050919050565b828183375f83830152505050565b5f611f34611f2f84611ee4565b611eca565b905082815260208101848484011115611f5057611f4f611e68565b5b611f5b848285611f14565b509392505050565b5f82601f830112611f7757611f76611e64565b5b8135611f87848260208601611f22565b91505092915050565b5f5f5f5f5f60a08688031215611fa957611fa8611c17565b5b5f611fb688828901611c3e565b9550506020611fc788828901611c3e565b9450506040611fd888828901611c3e565b935050606086013567ffffffffffffffff811115611ff957611ff8611c1b565b5b61200588828901611f63565b925050608086013567ffffffffffffffff81111561202657612025611c1b565b5b61203288828901611f63565b9150509295509295909350565b61204881611c1f565b82525050565b5f6020820190506120615f83018461203f565b92915050565b5f5f5f6060848603121561207e5761207d611c17565b5b5f61208b86828701611c3e565b935050602061209c86828701611c3e565b92505060406120ad86828701611c3e565b9150509250925092565b5f5f5f5f608085870312156120cf576120ce611c17565b5b5f6120dc87828801611c3e565b94505060206120ed87828801611c3e565b935050604085013567ffffffffffffffff81111561210e5761210d611c1b565b5b61211a87828801611f63565b925050606085013567ffffffffffffffff81111561213b5761213a611c1b565b5b61214787828801611f63565b91505092959194509250565b5f6020828403121561216857612167611c17565b5b5f61217584828501611c3e565b91505092915050565b5f8115159050919050565b6121928161217e565b82525050565b5f6020820190506121ab5f830184612189565b92915050565b5f67ffffffffffffffff8211156121cb576121ca611e6c565b5b602082029050602081019050919050565b5f5ffd5b5f6121f26121ed846121b1565b611eca565b90508083825260208201905060208402830185811115612215576122146121dc565b5b835b8181101561223e578061222a8882611c3e565b845260208401935050602081019050612217565b5050509392505050565b5f82601f83011261225c5761225b611e64565b5b813561226c8482602086016121e0565b91505092915050565b61227e8161217e565b8114612288575f5ffd5b50565b5f8135905061229981612275565b92915050565b5f5f5f5f5f5f5f60e0888a0312156122ba576122b9611c17565b5b5f6122c78a828b01611c3e565b975050602088013567ffffffffffffffff8111156122e8576122e7611c1b565b5b6122f48a828b01611f63565b965050604088013567ffffffffffffffff81111561231557612314611c1b565b5b6123218a828b01611f63565b955050606088013567ffffffffffffffff81111561234257612341611c1b565b5b61234e8a828b01612248565b945050608088013567ffffffffffffffff81111561236f5761236e611c1b565b5b61237b8a828b01612248565b93505060a061238c8a828b0161228b565b92505060c061239d8a828b0161228b565b91505092959891949750929550565b5f5f604083850312156123c2576123c1611c17565b5b5f6123cf85828601611c3e565b92505060206123e085828601611c3e565b9150509250929050565b5f73ffffffffffffffffffffffffffffffffffffffff82169050919050565b5f612413826123ea565b9050919050565b61242381612409565b82525050565b5f60208201905061243c5f83018461241a565b92915050565b5f5f5f5f5f5f60c0878903121561245c5761245b611c17565b5b5f61246989828a01611c3e565b965050602061247a89828a01611c3e565b955050604087013567ffffffffffffffff81111561249b5761249a611c1b565b5b6124a789828a01611f63565b945050606087013567ffffffffffffffff8111156124c8576124c7611c1b565b5b6124d489828a01611f63565b93505060806124e589828a0161228b565b92505060a06124f689828a0161228b565b9150509295509295509295565b61250c81612409565b8114612516575f5ffd5b50565b5f8135905061252781612503565b92915050565b5f5f5f5f5f5f60c0878903121561254757612546611c17565b5b5f61255489828a01611c3e565b965050602061256589828a0161228b565b955050604087013567ffffffffffffffff81111561258657612585611c1b565b5b61259289828a01611f63565b945050606087013567ffffffffffffffff8111156125b3576125b2611c1b565b5b6125bf89828a01611f63565b93505060806125d089828a01612519565b92505060a06125e189828a01611c3e565b9150509295509295509295565b7f4e487b71000000000000000000000000000000000000000000000000000000005f52601160045260245ffd5b5f61262582611c1f565b915061263083611c1f565b925082820261263e81611c1f565b91508282048414831517612655576126546125ee565b5b5092915050565b5f61266682611c1f565b915061267183611c1f565b9250828201905080821115612689576126886125ee565b5b92915050565b5f61269982611c1f565b91506126a483611c1f565b92508282039050818111156126bc576126bb6125ee565b5b92915050565b7f4e487b71000000000000000000000000000000000000000000000000000000005f52602260045260245ffd5b5f600282049050600182168061270657607f821691505b602082108103612719576127186126c2565b5b50919050565b7f4e487b71000000000000000000000000000000000000000000000000000000005f52603260045260245ffd5b5f819050815f5260205f209050919050565b5f6020601f8301049050919050565b5f82821b905092915050565b5f600883026127a87fffffffffffffffffffffffffffffffffffffffffffffffffffffffffffffffff8261276d565b6127b2868361276d565b95508019841693508086168417925050509392505050565b5f819050919050565b5f6127ed6127e86127e384611c1f565b6127ca565b611c1f565b9050919050565b5f819050919050565b612806836127d3565b61281a612812826127f4565b848454612779565b825550505050565b5f5f905090565b612831612822565b61283c8184846127fd565b505050565b5b8181101561285f576128545f82612829565b600181019050612842565b5050565b601f8211156128a4576128758161274c565b61287e8461275e565b8101602085101561288d578190505b6128a16128998561275e565b830182612841565b50505b505050565b5f82821c905092915050565b5f6128c45f19846008026128a9565b1980831691505092915050565b5f6128dc83836128b5565b9150826002028217905092915050565b6128f582611cee565b67ffffffffffffffff81111561290e5761290d611e6c565b5b61291882546126ef565b612923828285612863565b5f60209050601f831160018114612954575f8415612942578287015190505b61294c85826128d1565b8655506129b3565b601f1984166129628661274c565b5f5b8281101561298957848901518255600182019150602085019450602081019050612964565b868310156129a657848901516129a2601f8916826128b5565b8355505b6001600288020188555050505b505050505050565b5f6129c582611c1f565b91507fffffffffffffffffffffffffffffffffffffffffffffffffffffffffffffffff82036129f7576129f66125ee565b5b600182019050919050565b5f612a0c82611c1f565b91505f8203612a1e57612a1d6125ee565b5b600182039050919050565b5f604082019050612a3c5f83018561203f565b612a49602083018461203f565b9392505050565b5f606082019050612a635f83018661203f565b612a70602083018561203f565b612a7d604083018461203f565b949350505050565b7f4e487b71000000000000000000000000000000000000000000000000000000005f52603160045260245ffdfea264697066735822122016f549664482680224730aa391a09448943ebd551476efd5dbfa5f7e28b552ca64736f6c634300081c0033",
  "linkReferences": {},
  "deployedLinkReferences": {},
  "immutableReferences": {},
  "inputSourceName": "project/contracts/AccountConfig.sol",
  "buildInfoId": "solc-0_8_28-cb798076132a321027b23cbce32f18fd21b11578"
}