{
  "_format": "hh3-artifact-1",
  "contractName": "AccountConfig",
  "sourceName": "contracts/AccountConfig.sol",
  "abi": [
    {
      "inputs": [],
      "stateMutability": "nonpayable",
      "type": "constructor"
    },
    {
      "inputs": [
        {
          "internalType": "uint256",
          "name": "apiKey",
          "type": "uint256"
        }
      ],
      "name": "AccountDoesNotExist",
      "type": "error"
    },
    {
      "inputs": [
        {
          "internalType": "uint256",
          "name": "apiKey",
          "type": "uint256"
        },
        {
          "internalType": "uint256",
          "name": "groupId",
          "type": "uint256"
        },
        {
          "internalType": "uint256",
          "name": "action",
          "type": "uint256"
        }
      ],
      "name": "ActionDoesNotExist",
      "type": "error"
    },
    {
      "inputs": [
        {
          "internalType": "uint256",
          "name": "apiKey",
          "type": "uint256"
        },
        {
          "internalType": "uint256",
          "name": "groupId",
          "type": "uint256"
        }
      ],
      "name": "GroupDoesNotExist",
      "type": "error"
    },
    {
      "inputs": [
        {
          "internalType": "uint256",
          "name": "apiKey",
          "type": "uint256"
        },
        {
          "internalType": "uint256",
          "name": "amount",
          "type": "uint256"
        }
      ],
      "name": "InsufficientBalance",
      "type": "error"
    },
    {
      "inputs": [
        {
          "internalType": "address",
          "name": "caller",
          "type": "address"
        }
      ],
      "name": "OnlyApiPayerOrPricingOperator",
      "type": "error"
    },
    {
      "inputs": [
        {
          "internalType": "uint256",
          "name": "apiKey",
          "type": "uint256"
        },
        {
          "internalType": "uint256",
          "name": "usageApiKey",
          "type": "uint256"
        }
      ],
      "name": "UsageApiKeyDoesNotExist",
      "type": "error"
    },
    {
      "inputs": [
        {
          "internalType": "uint256",
          "name": "apiKey",
          "type": "uint256"
        },
        {
          "internalType": "uint256",
          "name": "groupId",
          "type": "uint256"
        },
        {
          "internalType": "uint256",
          "name": "Wallet",
          "type": "uint256"
        }
      ],
      "name": "WalletDoesNotExist",
      "type": "error"
    },
    {
      "inputs": [
        {
          "internalType": "uint256",
          "name": "apiKeyHash",
          "type": "uint256"
        }
      ],
      "name": "accountExistsAndIsMutable",
      "outputs": [
        {
          "internalType": "bool",
          "name": "",
          "type": "bool"
        }
      ],
      "stateMutability": "view",
      "type": "function"
    },
    {
      "inputs": [
        {
          "internalType": "uint256",
          "name": "accountApiKeyHash",
          "type": "uint256"
        },
        {
          "internalType": "uint256",
          "name": "groupId",
          "type": "uint256"
        },
        {
          "internalType": "uint256",
          "name": "action",
          "type": "uint256"
        },
        {
          "internalType": "string",
          "name": "name",
          "type": "string"
        },
        {
          "internalType": "string",
          "name": "description",
          "type": "string"
        }
      ],
      "name": "addActionToGroup",
      "outputs": [],
      "stateMutability": "nonpayable",
      "type": "function"
    },
    {
      "inputs": [
        {
          "internalType": "uint256",
          "name": "accountApiKeyHash",
          "type": "uint256"
        },
        {
          "internalType": "uint256",
          "name": "usageApiKeyHash",
          "type": "uint256"
        },
        {
          "internalType": "uint256",
          "name": "expiration",
          "type": "uint256"
        },
        {
          "internalType": "uint256",
          "name": "balance",
          "type": "uint256"
        }
      ],
      "name": "addApiKey",
      "outputs": [],
      "stateMutability": "nonpayable",
      "type": "function"
    },
    {
      "inputs": [
        {
          "internalType": "uint256",
          "name": "accountApiKeyHash",
          "type": "uint256"
        },
        {
          "internalType": "string",
          "name": "name",
          "type": "string"
        },
        {
          "internalType": "string",
          "name": "description",
          "type": "string"
        },
        {
          "internalType": "uint256[]",
          "name": "permitted_actions",
          "type": "uint256[]"
        },
        {
          "internalType": "uint256[]",
          "name": "Wallets",
          "type": "uint256[]"
        },
        {
          "internalType": "bool",
          "name": "all_wallets_permitted",
          "type": "bool"
        },
        {
          "internalType": "bool",
          "name": "all_actions_permitted",
          "type": "bool"
        }
      ],
      "name": "addGroup",
      "outputs": [],
      "stateMutability": "nonpayable",
      "type": "function"
    },
    {
      "inputs": [
        {
          "internalType": "uint256",
          "name": "accountApiKeyHash",
          "type": "uint256"
        },
        {
          "internalType": "uint256",
          "name": "groupId",
          "type": "uint256"
        },
        {
          "internalType": "uint256",
          "name": "walletAddressHash",
          "type": "uint256"
        }
      ],
      "name": "addWalletToGroup",
      "outputs": [],
      "stateMutability": "nonpayable",
      "type": "function"
    },
    {
      "inputs": [
        {
          "internalType": "uint256",
          "name": "",
          "type": "uint256"
        }
      ],
      "name": "allApiKeyHashes",
      "outputs": [
        {
          "internalType": "uint256",
          "name": "",
          "type": "uint256"
        }
      ],
      "stateMutability": "view",
      "type": "function"
    },
    {
      "inputs": [],
      "name": "api_payer",
      "outputs": [
        {
          "internalType": "address",
          "name": "",
          "type": "address"
        }
      ],
      "stateMutability": "view",
      "type": "function"
    },
    {
      "inputs": [
        {
          "internalType": "uint256",
          "name": "apiKeyHash",
          "type": "uint256"
        },
        {
          "internalType": "uint256",
          "name": "amount",
          "type": "uint256"
        }
      ],
      "name": "creditApiKey",
      "outputs": [],
      "stateMutability": "nonpayable",
      "type": "function"
    },
    {
      "inputs": [
        {
          "internalType": "uint256",
          "name": "apiKeyHash",
          "type": "uint256"
        },
        {
          "internalType": "uint256",
          "name": "amount",
          "type": "uint256"
        }
      ],
      "name": "debitApiKey",
      "outputs": [],
      "stateMutability": "nonpayable",
      "type": "function"
    },
    {
      "inputs": [
        {
          "internalType": "uint256",
          "name": "apiKeyHash",
          "type": "uint256"
        },
        {
          "internalType": "uint256",
          "name": "walletAddressHash",
          "type": "uint256"
        }
      ],
      "name": "getWalletDerivation",
      "outputs": [
        {
          "internalType": "uint256",
          "name": "",
          "type": "uint256"
        }
      ],
      "stateMutability": "view",
      "type": "function"
    },
    {
      "inputs": [
        {
          "internalType": "uint256",
          "name": "accountApiKeyHash",
          "type": "uint256"
        },
        {
          "internalType": "uint256",
          "name": "groupId",
          "type": "uint256"
        },
        {
          "internalType": "uint256",
          "name": "pageNumber",
          "type": "uint256"
        },
        {
          "internalType": "uint256",
          "name": "pageSize",
          "type": "uint256"
        }
      ],
      "name": "listActions",
      "outputs": [
        {
          "components": [
            {
              "internalType": "uint256",
              "name": "id",
              "type": "uint256"
            },
            {
              "internalType": "string",
              "name": "name",
              "type": "string"
            },
            {
              "internalType": "string",
              "name": "description",
              "type": "string"
            }
          ],
          "internalType": "struct AccountConfig.Metadata[]",
          "name": "",
          "type": "tuple[]"
        }
      ],
      "stateMutability": "view",
      "type": "function"
    },
    {
      "inputs": [
        {
          "internalType": "uint256",
          "name": "accountApiKeyHash",
          "type": "uint256"
        },
        {
          "internalType": "uint256",
          "name": "pageNumber",
          "type": "uint256"
        },
        {
          "internalType": "uint256",
          "name": "pageSize",
          "type": "uint256"
        }
      ],
      "name": "listApiKeys",
      "outputs": [
        {
          "components": [
            {
              "components": [
                {
                  "internalType": "uint256",
                  "name": "id",
                  "type": "uint256"
                },
                {
                  "internalType": "string",
                  "name": "name",
                  "type": "string"
                },
                {
                  "internalType": "string",
                  "name": "description",
                  "type": "string"
                }
              ],
              "internalType": "struct AccountConfig.Metadata",
              "name": "metadata",
              "type": "tuple"
            },
            {
              "internalType": "uint256",
              "name": "apiKeyHash",
              "type": "uint256"
            },
            {
              "internalType": "uint256",
              "name": "expiration",
              "type": "uint256"
            },
            {
              "internalType": "uint256",
              "name": "balance",
              "type": "uint256"
            }
          ],
          "internalType": "struct AccountConfig.UsageApiKey[]",
          "name": "",
          "type": "tuple[]"
        }
      ],
      "stateMutability": "view",
      "type": "function"
    },
    {
      "inputs": [
        {
          "internalType": "uint256",
          "name": "accountApiKeyHash",
          "type": "uint256"
        },
        {
          "internalType": "uint256",
          "name": "pageNumber",
          "type": "uint256"
        },
        {
          "internalType": "uint256",
          "name": "pageSize",
          "type": "uint256"
        }
      ],
      "name": "listGroups",
      "outputs": [
        {
          "components": [
            {
              "internalType": "uint256",
              "name": "id",
              "type": "uint256"
            },
            {
              "internalType": "string",
              "name": "name",
              "type": "string"
            },
            {
              "internalType": "string",
              "name": "description",
              "type": "string"
            }
          ],
          "internalType": "struct AccountConfig.Metadata[]",
          "name": "",
          "type": "tuple[]"
        }
      ],
      "stateMutability": "view",
      "type": "function"
    },
    {
      "inputs": [
        {
          "internalType": "uint256",
          "name": "accountApiKeyHash",
          "type": "uint256"
        },
        {
          "internalType": "uint256",
          "name": "pageNumber",
          "type": "uint256"
        },
        {
          "internalType": "uint256",
          "name": "pageSize",
          "type": "uint256"
        }
      ],
      "name": "listWallets",
      "outputs": [
        {
          "components": [
            {
              "internalType": "uint256",
              "name": "id",
              "type": "uint256"
            },
            {
              "internalType": "string",
              "name": "name",
              "type": "string"
            },
            {
              "internalType": "string",
              "name": "description",
              "type": "string"
            }
          ],
          "internalType": "struct AccountConfig.Metadata[]",
          "name": "",
          "type": "tuple[]"
        }
      ],
      "stateMutability": "view",
      "type": "function"
    },
    {
      "inputs": [
        {
          "internalType": "uint256",
          "name": "accountApiKeyHash",
          "type": "uint256"
        },
        {
          "internalType": "uint256",
          "name": "groupId",
          "type": "uint256"
        },
        {
          "internalType": "uint256",
          "name": "pageNumber",
          "type": "uint256"
        },
        {
          "internalType": "uint256",
          "name": "pageSize",
          "type": "uint256"
        }
      ],
      "name": "listWalletsInGroup",
      "outputs": [
        {
          "components": [
            {
              "internalType": "uint256",
              "name": "id",
              "type": "uint256"
            },
            {
              "internalType": "string",
              "name": "name",
              "type": "string"
            },
            {
              "internalType": "string",
              "name": "description",
              "type": "string"
            }
          ],
          "internalType": "struct AccountConfig.Metadata[]",
          "name": "",
          "type": "tuple[]"
        }
      ],
      "stateMutability": "view",
      "type": "function"
    },
    {
      "inputs": [
        {
          "internalType": "uint256",
          "name": "apiKeyHash",
          "type": "uint256"
        },
        {
          "internalType": "bool",
          "name": "managed",
          "type": "bool"
        },
        {
          "internalType": "string",
          "name": "accountName",
          "type": "string"
        },
        {
          "internalType": "string",
          "name": "accountDescription",
          "type": "string"
        },
        {
          "internalType": "address",
          "name": "creatorWalletAddress",
          "type": "address"
        },
        {
          "internalType": "uint256",
          "name": "initialBalance",
          "type": "uint256"
        }
      ],
      "name": "newAccount",
      "outputs": [],
      "stateMutability": "nonpayable",
      "type": "function"
    },
    {
      "inputs": [],
      "name": "nextWalletCount",
      "outputs": [
        {
          "internalType": "uint256",
          "name": "",
          "type": "uint256"
        }
      ],
      "stateMutability": "view",
      "type": "function"
    },
    {
      "inputs": [
        {
          "internalType": "uint256",
          "name": "",
          "type": "uint256"
        }
      ],
      "name": "pricing",
      "outputs": [
        {
          "internalType": "uint256",
          "name": "",
          "type": "uint256"
        }
      ],
      "stateMutability": "view",
      "type": "function"
    },
    {
      "inputs": [],
      "name": "pricing_operator",
      "outputs": [
        {
          "internalType": "address",
          "name": "",
          "type": "address"
        }
      ],
      "stateMutability": "view",
      "type": "function"
    },
    {
      "inputs": [
        {
          "internalType": "uint256",
          "name": "accountApiKeyHash",
          "type": "uint256"
        },
        {
          "internalType": "uint256",
          "name": "walletAddressHash",
          "type": "uint256"
        },
        {
          "internalType": "uint256",
          "name": "derivationPath",
          "type": "uint256"
        },
        {
          "internalType": "string",
          "name": "name",
          "type": "string"
        },
        {
          "internalType": "string",
          "name": "description",
          "type": "string"
        }
      ],
      "name": "registerWalletDerivation",
      "outputs": [],
      "stateMutability": "nonpayable",
      "type": "function"
    },
    {
      "inputs": [
        {
          "internalType": "uint256",
          "name": "accountApiKeyHash",
          "type": "uint256"
        },
        {
          "internalType": "uint256",
          "name": "groupId",
          "type": "uint256"
        },
        {
          "internalType": "uint256",
          "name": "action",
          "type": "uint256"
        }
      ],
      "name": "removeActionFromGroup",
      "outputs": [],
      "stateMutability": "nonpayable",
      "type": "function"
    },
    {
      "inputs": [
        {
          "internalType": "uint256",
          "name": "accountApiKeyHash",
          "type": "uint256"
        },
        {
          "internalType": "uint256",
          "name": "usageApiKeyHash",
          "type": "uint256"
        }
      ],
      "name": "removeUsageApiKey",
      "outputs": [],
      "stateMutability": "nonpayable",
      "type": "function"
    },
    {
      "inputs": [
        {
          "internalType": "uint256",
          "name": "accountApiKeyHash",
          "type": "uint256"
        },
        {
          "internalType": "uint256",
          "name": "groupId",
          "type": "uint256"
        },
        {
          "internalType": "uint256",
          "name": "walletAddressHash",
          "type": "uint256"
        }
      ],
      "name": "removeWalletFromGroup",
      "outputs": [],
      "stateMutability": "nonpayable",
      "type": "function"
    },
    {
      "inputs": [
        {
          "internalType": "uint256",
          "name": "pricingItemId",
          "type": "uint256"
        },
        {
          "internalType": "uint256",
          "name": "price",
          "type": "uint256"
        }
      ],
      "name": "setPricing",
      "outputs": [],
      "stateMutability": "nonpayable",
      "type": "function"
    },
    {
      "inputs": [
        {
          "internalType": "address",
          "name": "newPricingOperator",
          "type": "address"
        }
      ],
      "name": "setPricingOperator",
      "outputs": [],
      "stateMutability": "nonpayable",
      "type": "function"
    },
    {
      "inputs": [
        {
          "internalType": "uint256",
          "name": "accountApiKeyHash",
          "type": "uint256"
        },
        {
          "internalType": "uint256",
          "name": "actionHash",
          "type": "uint256"
        },
        {
          "internalType": "uint256",
          "name": "groupId",
          "type": "uint256"
        },
        {
          "internalType": "string",
          "name": "name",
          "type": "string"
        },
        {
          "internalType": "string",
          "name": "description",
          "type": "string"
        }
      ],
      "name": "updateActionMetadata",
      "outputs": [],
      "stateMutability": "nonpayable",
      "type": "function"
    },
    {
      "inputs": [
        {
          "internalType": "uint256",
          "name": "accountApiKeyHash",
          "type": "uint256"
        },
        {
          "internalType": "uint256",
          "name": "groupId",
          "type": "uint256"
        },
        {
          "internalType": "string",
          "name": "name",
          "type": "string"
        },
        {
          "internalType": "string",
          "name": "description",
          "type": "string"
        },
        {
          "internalType": "bool",
          "name": "all_wallets_permitted",
          "type": "bool"
        },
        {
          "internalType": "bool",
          "name": "all_actions_permitted",
          "type": "bool"
        }
      ],
      "name": "updateGroup",
      "outputs": [],
      "stateMutability": "nonpayable",
      "type": "function"
    },
    {
      "inputs": [
        {
          "internalType": "uint256",
          "name": "accountApiKeyHash",
          "type": "uint256"
        },
        {
          "internalType": "uint256",
          "name": "usageApiKeyHash",
          "type": "uint256"
        },
        {
          "internalType": "string",
          "name": "name",
          "type": "string"
        },
        {
          "internalType": "string",
          "name": "description",
          "type": "string"
        }
      ],
      "name": "updateUsageApiKeyMetadata",
      "outputs": [],
      "stateMutability": "nonpayable",
      "type": "function"
    }
  ],
  "bytecode": "0x6080604052348015600e575f5ffd5b503360045f6101000a81548173ffffffffffffffffffffffffffffffffffffffff021916908373ffffffffffffffffffffffffffffffffffffffff1602179055503360055f6101000a81548173ffffffffffffffffffffffffffffffffffffffff021916908373ffffffffffffffffffffffffffffffffffffffff1602179055506001600681905550600160035f600181526020019081526020015f2081905550613481806100bc5f395ff3fe608060405234801561000f575f5ffd5b50600436106101c2575f3560e01c806379b8e691116100f7578063c5f5b98411610095578063dbb17a0b1161006f578063dbb17a0b146104f8578063e6ad292814610514578063ee020f7b14610530578063f75c8b2d14610560576101c2565b8063c5f5b98414610490578063c704668c146104ac578063ca05588a146104dc576101c2565b806396a7cc54116100d157806396a7cc5414610420578063a6b6b6721461043c578063bac710ea14610458578063bd9aed5114610474576101c2565b806379b8e691146103a25780637af361ef146103d25780638845698c14610402576101c2565b80635d861c72116101645780636a3d77a91161013e5780636a3d77a91461031e5780636e06ac9c1461033a578063719fac4314610356578063749e4d0714610386576101c2565b80635d861c72146102b6578063683f2de8146102d25780636945d800146102ee576101c2565b80634705161e116101a05780634705161e1461022e578063497179351461024c5780634cd882ac14610268578063542970ed14610286576101c2565b8063291ff1ea146101c65780632fa92e41146101f657806340b4d45314610212575b5f5ffd5b6101e060048036038101906101db9190612485565b610590565b6040516101ed9190612677565b60405180910390f35b610210600480360381019061020b91906127c3565b610841565b005b61022c60048036038101906102279190612872565b61090a565b005b6102366109de565b60405161024391906128bf565b60405180910390f35b61026660048036038101906102619190612485565b6109e4565b005b610270610a70565b60405161027d9190612917565b60405180910390f35b6102a0600480360381019061029b9190612485565b610a95565b6040516102ad9190612677565b60405180910390f35b6102d060048036038101906102cb9190612930565b610d46565b005b6102ec60048036038101906102e79190612872565b610db9565b005b61030860048036038101906103039190612980565b610e42565b60405161031591906128bf565b60405180910390f35b610338600480360381019061033391906129ab565b610e57565b005b610354600480360381019061034f9190612930565b610ec7565b005b610370600480360381019061036b9190612980565b610f14565b60405161037d9190612a61565b60405180910390f35b6103a0600480360381019061039b9190612b68565b61104f565b005b6103bc60048036038101906103b79190612872565b6111cb565b6040516103c991906128bf565b60405180910390f35b6103ec60048036038101906103e79190612930565b61121b565b6040516103f99190612677565b60405180910390f35b61040a611495565b6040516104179190612917565b60405180910390f35b61043a60048036038101906104359190612c75565b6114ba565b005b610456600480360381019061045191906127c3565b611587565b005b610472600480360381019061046d9190612930565b6115f5565b005b61048e60048036038101906104899190612d60565b611641565b005b6104aa60048036038101906104a59190612872565b611735565b005b6104c660048036038101906104c19190612930565b61176e565b6040516104d39190612f3c565b60405180910390f35b6104f660048036038101906104f19190612872565b611a16565b005b610512600480360381019061050d91906127c3565b611a39565b005b61052e60048036038101906105299190612f5c565b611b3b565b005b61054a60048036038101906105459190612980565b611b87565b60405161055791906128bf565b60405180910390f35b61057a60048036038101906105759190612930565b611b9c565b6040516105879190612677565b60405180910390f35b606061059c8585611e36565b5f5f5f8781526020019081526020015f2090505f81600f015f8781526020019081526020015f2090506105d181600501611e87565b8411156105ea576105e481600501611e87565b93505f94505b5f84866105f79190612fb4565b90505f85826106069190612ff5565b905061061483600501611e87565b81111561062a5761062783600501611e87565b90505b5f82826106379190613028565b90505f8167ffffffffffffffff8111156106545761065361269f565b5b60405190808252806020026020018201604052801561068d57816020015b61067a6123f6565b8152602001906001900390816106725790505b5090505f5f90505b8281101561082f57866016015f6106c383886106b19190612ff5565b89600501611e9a90919063ffffffff16565b81526020019081526020015f206040518060600160405290815f82015481526020016001820180546106f490613088565b80601f016020809104026020016040519081016040528092919081815260200182805461072090613088565b801561076b5780601f106107425761010080835404028352916020019161076b565b820191905f5260205f20905b81548152906001019060200180831161074e57829003601f168201915b5050505050815260200160028201805461078490613088565b80601f01602080910402602001604051908101604052809291908181526020018280546107b090613088565b80156107fb5780601f106107d2576101008083540402835291602001916107fb565b820191905f5260205f20905b8154815290600101906020018083116107de57829003601f168201915b505050505081525050828281518110610817576108166130b8565b5b60200260200101819052508080600101915050610695565b50809650505050505050949350505050565b61084b8585611e36565b5f5f5f8781526020019081526020015f2090506108868482600f015f8881526020019081526020015f20600301611eb190919063ffffffff16565b5083816012015f8681526020019081526020015f205f018190555082816012015f8681526020019081526020015f2060010190816108c49190613285565b5081816012015f8681526020019081526020015f2060020190816108e89190613285565b50806018015f8154809291906108fd90613354565b9190505550505050505050565b61091333611ec8565b61091c82611fb7565b5f60015f8481526020019081526020015f205490505f5f5f8381526020019081526020015f2090505f8482600301600301541461096b5781600c015f8681526020019081526020015f20610970565b816003015b905083816005015410156109bd5784846040517fcf4791810000000000000000000000000000000000000000000000000000000081526004016109b492919061339b565b60405180910390fd5b83816005015f8282546109d09190613028565b925050819055505050505050565b60065481565b6109ed84611fb7565b5f5f5f8681526020019081526020015f20600c015f8581526020019081526020015f209050838160030181905550828160040181905550818160050181905550610a52845f5f8881526020019081526020015f20600a01611eb190919063ffffffff16565b508460015f8681526020019081526020015f20819055505050505050565b60055f9054906101000a900473ffffffffffffffffffffffffffffffffffffffff1681565b6060610aa18585611e36565b5f5f5f8781526020019081526020015f2090505f81600f015f8781526020019081526020015f209050610ad681600301611e87565b841115610aef57610ae981600301611e87565b93505f94505b5f8486610afc9190612fb4565b90505f8582610b0b9190612ff5565b9050610b1983600301611e87565b811115610b2f57610b2c83600301611e87565b90505b5f8282610b3c9190613028565b90505f8167ffffffffffffffff811115610b5957610b5861269f565b5b604051908082528060200260200182016040528015610b9257816020015b610b7f6123f6565b815260200190600190039081610b775790505b5090505f5f90505b82811015610d3457866012015f610bc88388610bb69190612ff5565b89600301611e9a90919063ffffffff16565b81526020019081526020015f206040518060600160405290815f8201548152602001600182018054610bf990613088565b80601f0160208091040260200160405190810160405280929190818152602001828054610c2590613088565b8015610c705780601f10610c4757610100808354040283529160200191610c70565b820191905f5260205f20905b815481529060010190602001808311610c5357829003601f168201915b50505050508152602001600282018054610c8990613088565b80601f0160208091040260200160405190810160405280929190818152602001828054610cb590613088565b8015610d005780601f10610cd757610100808354040283529160200191610d00565b820191905f5260205f20905b815481529060010190602001808311610ce357829003601f168201915b505050505081525050828281518110610d1c57610d1b6130b8565b5b60200260200101819052508080600101915050610b9a565b50809650505050505050949350505050565b610d51838383612004565b5f5f5f8581526020019081526020015f209050610d8c8282600f015f8681526020019081526020015f2060030161205990919063ffffffff16565b505f81601801541115610db357806018015f815480929190610dad906133c2565b91905055505b50505050565b610dc233611ec8565b610dcb82611fb7565b5f60015f8481526020019081526020015f205490505f5f5f8381526020019081526020015f2090505f84826003016003015414610e1a5781600c015f8681526020019081526020015f20610e1f565b816003015b905083816005015f828254610e349190612ff5565b925050819055505050505050565b6003602052805f5260405f205f915090505481565b610e618484612070565b5f5f5f8681526020019081526020015f2090508281600c015f8681526020019081526020015f205f016001019081610e999190613285565b508181600c015f8681526020019081526020015f205f016002019081610ebf9190613285565b505050505050565b610ed28383836120c1565b5f5f5f8581526020019081526020015f209050610f0d8282600f015f8681526020019081526020015f2060050161205990919063ffffffff16565b5050505050565b5f5f60015f8481526020019081526020015f205403610f35575f905061104a565b5f60015f8481526020019081526020015f205490505f5f5f8381526020019081526020015f20905081815f015f015414610f73575f9250505061104a565b60045f9054906101000a900473ffffffffffffffffffffffffffffffffffffffff1673ffffffffffffffffffffffffffffffffffffffff163373ffffffffffffffffffffffffffffffffffffffff16148015610fe3575060011515816013015f9054906101000a900460ff161515145b15610ff35760019250505061104a565b3373ffffffffffffffffffffffffffffffffffffffff16816009015f9054906101000a900473ffffffffffffffffffffffffffffffffffffffff1673ffffffffffffffffffffffffffffffffffffffff1614925050505b919050565b61105887611fb7565b5f5f5f8981526020019081526020015f209050611085816019015482600d01611eb190919063ffffffff16565b505f81600f015f836019015481526020019081526020015f2090508160190154815f015f018190555087815f0160010190816110c19190613285565b5086815f0160020190816110d59190613285565b505f5f90505b8651811015611122576111148782815181106110fa576110f96130b8565b5b602002602001015183600301611eb190919063ffffffff16565b5080806001019150506110db565b505f5f90505b855181101561116f57611161868281518110611147576111466130b8565b5b602002602001015183600501611eb190919063ffffffff16565b508080600101915050611128565b5083816007015f6101000a81548160ff021916908315150217905550828160070160016101000a81548160ff021916908315150217905550816019015f8154809291906111bb90613354565b9190505550505050505050505050565b5f6111d583611fb7565b5f60015f8581526020019081526020015f205490505f5f5f8381526020019081526020015f209050806015015f8581526020019081526020015f20549250505092915050565b606061122684611fb7565b5f5f5f8681526020019081526020015f209050806017015483111561125057806017015492505f93505b5f838561125d9190612fb4565b90505f848261126c9190612ff5565b9050826017015481111561128257826017015490505b5f828261128f9190613028565b90505f8167ffffffffffffffff8111156112ac576112ab61269f565b5b6040519080825280602002602001820160405280156112e557816020015b6112d26123f6565b8152602001906001900390816112ca5790505b5090505f5f90505b8281101561148557856016015f876014015f848961130b9190612ff5565b81526020019081526020015f205481526020019081526020015f206040518060600160405290815f820154815260200160018201805461134a90613088565b80601f016020809104026020016040519081016040528092919081815260200182805461137690613088565b80156113c15780601f10611398576101008083540402835291602001916113c1565b820191905f5260205f20905b8154815290600101906020018083116113a457829003601f168201915b505050505081526020016002820180546113da90613088565b80601f016020809104026020016040519081016040528092919081815260200182805461140690613088565b80156114515780601f1061142857610100808354040283529160200191611451565b820191905f5260205f20905b81548152906001019060200180831161143457829003601f168201915b50505050508152505082828151811061146d5761146c6130b8565b5b602002602001018190525080806001019150506112ed565b5080955050505050509392505050565b60045f9054906101000a900473ffffffffffffffffffffffffffffffffffffffff1681565b6114c48686611e36565b5f5f5f8881526020019081526020015f2090508481600f015f8881526020019081526020015f205f0160010190816114fc9190613285565b508381600f015f8881526020019081526020015f205f0160020190816115229190613285565b508281600f015f8881526020019081526020015f206007015f6101000a81548160ff0219169083151502179055508181600f015f8881526020019081526020015f2060070160016101000a81548160ff02191690831515021790555050505050505050565b611592858486612004565b5f5f5f8781526020019081526020015f20905082816012015f8781526020019081526020015f2060010190816115c89190613285565b5081816012015f8781526020019081526020015f2060020190816115ec9190613285565b50505050505050565b6115ff8383611e36565b5f5f5f8581526020019081526020015f20905061163a8282600f015f8681526020019081526020015f20600501611eb190919063ffffffff16565b5050505050565b5f5f5f8881526020019081526020015f20905085816013015f6101000a81548160ff02191690831515021790555082816009015f6101000a81548173ffffffffffffffffffffffffffffffffffffffff021916908373ffffffffffffffffffffffffffffffffffffffff16021790555086815f015f018190555084815f0160010190816116ce9190613285565b5083815f0160020190816116e29190613285565b508681600301600301819055506312cc0300426116ff9190612ff5565b81600301600401819055508181600301600501819055508660015f8981526020019081526020015f208190555050505050505050565b61173f8282612070565b5f5f5f8481526020019081526020015f2090506117688282600a0161205990919063ffffffff16565b50505050565b606061177984611fb7565b5f5f5f8681526020019081526020015f2090505f61179982600a01611e87565b9050808411156117aa578093505f94505b5f84866117b79190612fb4565b90505f85826117c69190612ff5565b9050828111156117d4578290505b5f82826117e19190613028565b67ffffffffffffffff8111156117fa576117f961269f565b5b60405190808252806020026020018201604052801561183357816020015b611820612416565b8152602001906001900390816118185790505b5090505f5f90505b84811015611a065785600c015f61186983876118579190612ff5565b89600a01611e9a90919063ffffffff16565b81526020019081526020015f206040518060800160405290815f82016040518060600160405290815f82015481526020016001820180546118a990613088565b80601f01602080910402602001604051908101604052809291908181526020018280546118d590613088565b80156119205780601f106118f757610100808354040283529160200191611920565b820191905f5260205f20905b81548152906001019060200180831161190357829003601f168201915b5050505050815260200160028201805461193990613088565b80601f016020809104026020016040519081016040528092919081815260200182805461196590613088565b80156119b05780601f10611987576101008083540402835291602001916119b0565b820191905f5260205f20905b81548152906001019060200180831161199357829003601f168201915b505050505081525050815260200160038201548152602001600482015481526020016005820154815250508282815181106119ee576119ed6130b8565b5b6020026020010181905250808060010191505061183b565b5080955050505050509392505050565b611a1f33611ec8565b8060035f8481526020019081526020015f20819055505050565b611a4285611fb7565b5f5f5f8781526020019081526020015f20905083816015015f8781526020019081526020015f208190555084816016015f8781526020019081526020015f205f018190555082816016015f8781526020019081526020015f206001019081611aaa9190613285565b5081816016015f8781526020019081526020015f206002019081611ace9190613285565b5084816014015f836017015481526020019081526020015f20819055508460025f60065481526020019081526020015f2081905550806017015f815480929190611b1790613354565b919050555060065f815480929190611b2e90613354565b9190505550505050505050565b611b4433611ec8565b8060055f6101000a81548173ffffffffffffffffffffffffffffffffffffffff021916908373ffffffffffffffffffffffffffffffffffffffff16021790555050565b6001602052805f5260405f205f915090505481565b6060611ba784611fb7565b5f5f5f8681526020019081526020015f209050611bc681600d01611e87565b831115611bdf57611bd981600d01611e87565b92505f93505b5f8385611bec9190612fb4565b90505f8482611bfb9190612ff5565b9050611c0983600d01611e87565b811115611c1f57611c1c83600d01611e87565b90505b5f8282611c2c9190613028565b90505f8167ffffffffffffffff811115611c4957611c4861269f565b5b604051908082528060200260200182016040528015611c8257816020015b611c6f6123f6565b815260200190600190039081611c675790505b5090505f5f90505b82811015611e265785600f015f611cb88388611ca69190612ff5565b89600d01611e9a90919063ffffffff16565b81526020019081526020015f205f016040518060600160405290815f8201548152602001600182018054611ceb90613088565b80601f0160208091040260200160405190810160405280929190818152602001828054611d1790613088565b8015611d625780601f10611d3957610100808354040283529160200191611d62565b820191905f5260205f20905b815481529060010190602001808311611d4557829003601f168201915b50505050508152602001600282018054611d7b90613088565b80601f0160208091040260200160405190810160405280929190818152602001828054611da790613088565b8015611df25780601f10611dc957610100808354040283529160200191611df2565b820191905f5260205f20905b815481529060010190602001808311611dd557829003601f168201915b505050505081525050828281518110611e0e57611e0d6130b8565b5b60200260200101819052508080600101915050611c8a565b5080955050505050509392505050565b611e408282612116565b611e835781816040517f931a85b3000000000000000000000000000000000000000000000000000000008152600401611e7a92919061339b565b60405180910390fd5b5050565b5f611e93825f01612156565b9050919050565b5f611ea7835f0183612165565b5f1c905092915050565b5f611ec0835f01835f1b61218c565b905092915050565b60045f9054906101000a900473ffffffffffffffffffffffffffffffffffffffff1673ffffffffffffffffffffffffffffffffffffffff168173ffffffffffffffffffffffffffffffffffffffff1614158015611f72575060055f9054906101000a900473ffffffffffffffffffffffffffffffffffffffff1673ffffffffffffffffffffffffffffffffffffffff168173ffffffffffffffffffffffffffffffffffffffff1614155b15611fb457806040517f9ed88e07000000000000000000000000000000000000000000000000000000008152600401611fab9190612917565b60405180910390fd5b50565b611fc081610f14565b61200157806040517fd4a84737000000000000000000000000000000000000000000000000000000008152600401611ff891906128bf565b60405180910390fd5b50565b61200f8383836121f3565b612054578282826040517fef25d02d00000000000000000000000000000000000000000000000000000000815260040161204b939291906133e9565b60405180910390fd5b505050565b5f612068835f01835f1b61223e565b905092915050565b61207a828261233a565b6120bd5781816040517f748e712a0000000000000000000000000000000000000000000000000000000081526004016120b492919061339b565b60405180910390fd5b5050565b6120cc838383612374565b612111578282826040517f79167858000000000000000000000000000000000000000000000000000000008152600401612108939291906133e9565b60405180910390fd5b505050565b5f61212083611fb7565b5f5f5f8581526020019081526020015f20600f015f8481526020019081526020015f20905082815f015f01541491505092915050565b5f815f01805490509050919050565b5f825f01828154811061217b5761217a6130b8565b5b905f5260205f200154905092915050565b5f61219783836123bf565b6121e957825f0182908060018154018082558091505060019003905f5260205f20015f9091909190915055825f0180549050836001015f8481526020019081526020015f2081905550600190506121ed565b5f90505b92915050565b5f6121fe8484611e36565b612235825f5f8781526020019081526020015f20600f015f8681526020019081526020015f206003016123df90919063ffffffff16565b90509392505050565b5f5f836001015f8481526020019081526020015f205490505f811461232f575f60018261226b9190613028565b90505f6001865f01805490506122819190613028565b90508082146122e7575f865f0182815481106122a05761229f6130b8565b5b905f5260205f200154905080875f0184815481106122c1576122c06130b8565b5b905f5260205f20018190555083876001015f8381526020019081526020015f2081905550505b855f018054806122fa576122f961341e565b5b600190038181905f5260205f20015f90559055856001015f8681526020019081526020015f205f905560019350505050612334565b5f9150505b92915050565b5f61234483611fb7565b815f5f8581526020019081526020015f20600c015f8481526020019081526020015f206003015414905092915050565b5f61237f8484611e36565b6123b6825f5f8781526020019081526020015f20600f015f8681526020019081526020015f206005016123df90919063ffffffff16565b90509392505050565b5f5f836001015f8481526020019081526020015f20541415905092915050565b5f6123ee835f01835f1b6123bf565b905092915050565b60405180606001604052805f815260200160608152602001606081525090565b60405180608001604052806124296123f6565b81526020015f81526020015f81526020015f81525090565b5f604051905090565b5f5ffd5b5f5ffd5b5f819050919050565b61246481612452565b811461246e575f5ffd5b50565b5f8135905061247f8161245b565b92915050565b5f5f5f5f6080858703121561249d5761249c61244a565b5b5f6124aa87828801612471565b94505060206124bb87828801612471565b93505060406124cc87828801612471565b92505060606124dd87828801612471565b91505092959194509250565b5f81519050919050565b5f82825260208201905092915050565b5f819050602082019050919050565b61251b81612452565b82525050565b5f81519050919050565b5f82825260208201905092915050565b8281835e5f83830152505050565b5f601f19601f8301169050919050565b5f61256382612521565b61256d818561252b565b935061257d81856020860161253b565b61258681612549565b840191505092915050565b5f606083015f8301516125a65f860182612512565b50602083015184820360208601526125be8282612559565b915050604083015184820360408601526125d88282612559565b9150508091505092915050565b5f6125f08383612591565b905092915050565b5f602082019050919050565b5f61260e826124e9565b61261881856124f3565b93508360208202850161262a85612503565b805f5b85811015612665578484038952815161264685826125e5565b9450612651836125f8565b925060208a0199505060018101905061262d565b50829750879550505050505092915050565b5f6020820190508181035f83015261268f8184612604565b905092915050565b5f5ffd5b5f5ffd5b7f4e487b71000000000000000000000000000000000000000000000000000000005f52604160045260245ffd5b6126d582612549565b810181811067ffffffffffffffff821117156126f4576126f361269f565b5b80604052505050565b5f612706612441565b905061271282826126cc565b919050565b5f67ffffffffffffffff8211156127315761273061269f565b5b61273a82612549565b9050602081019050919050565b828183375f83830152505050565b5f61276761276284612717565b6126fd565b9050828152602081018484840111156127835761278261269b565b5b61278e848285612747565b509392505050565b5f82601f8301126127aa576127a9612697565b5b81356127ba848260208601612755565b91505092915050565b5f5f5f5f5f60a086880312156127dc576127db61244a565b5b5f6127e988828901612471565b95505060206127fa88828901612471565b945050604061280b88828901612471565b935050606086013567ffffffffffffffff81111561282c5761282b61244e565b5b61283888828901612796565b925050608086013567ffffffffffffffff8111156128595761285861244e565b5b61286588828901612796565b9150509295509295909350565b5f5f604083850312156128885761288761244a565b5b5f61289585828601612471565b92505060206128a685828601612471565b9150509250929050565b6128b981612452565b82525050565b5f6020820190506128d25f8301846128b0565b92915050565b5f73ffffffffffffffffffffffffffffffffffffffff82169050919050565b5f612901826128d8565b9050919050565b612911816128f7565b82525050565b5f60208201905061292a5f830184612908565b92915050565b5f5f5f606084860312156129475761294661244a565b5b5f61295486828701612471565b935050602061296586828701612471565b925050604061297686828701612471565b9150509250925092565b5f602082840312156129955761299461244a565b5b5f6129a284828501612471565b91505092915050565b5f5f5f5f608085870312156129c3576129c261244a565b5b5f6129d087828801612471565b94505060206129e187828801612471565b935050604085013567ffffffffffffffff811115612a0257612a0161244e565b5b612a0e87828801612796565b925050606085013567ffffffffffffffff811115612a2f57612a2e61244e565b5b612a3b87828801612796565b91505092959194509250565b5f8115159050919050565b612a5b81612a47565b82525050565b5f602082019050612a745f830184612a52565b92915050565b5f67ffffffffffffffff821115612a9457612a9361269f565b5b602082029050602081019050919050565b5f5ffd5b5f612abb612ab684612a7a565b6126fd565b90508083825260208201905060208402830185811115612ade57612add612aa5565b5b835b81811015612b075780612af38882612471565b845260208401935050602081019050612ae0565b5050509392505050565b5f82601f830112612b2557612b24612697565b5b8135612b35848260208601612aa9565b91505092915050565b612b4781612a47565b8114612b51575f5ffd5b50565b5f81359050612b6281612b3e565b92915050565b5f5f5f5f5f5f5f60e0888a031215612b8357612b8261244a565b5b5f612b908a828b01612471565b975050602088013567ffffffffffffffff811115612bb157612bb061244e565b5b612bbd8a828b01612796565b965050604088013567ffffffffffffffff811115612bde57612bdd61244e565b5b612bea8a828b01612796565b955050606088013567ffffffffffffffff811115612c0b57612c0a61244e565b5b612c178a828b01612b11565b945050608088013567ffffffffffffffff811115612c3857612c3761244e565b5b612c448a828b01612b11565b93505060a0612c558a828b01612b54565b92505060c0612c668a828b01612b54565b91505092959891949750929550565b5f5f5f5f5f5f60c08789031215612c8f57612c8e61244a565b5b5f612c9c89828a01612471565b9650506020612cad89828a01612471565b955050604087013567ffffffffffffffff811115612cce57612ccd61244e565b5b612cda89828a01612796565b945050606087013567ffffffffffffffff811115612cfb57612cfa61244e565b5b612d0789828a01612796565b9350506080612d1889828a01612b54565b92505060a0612d2989828a01612b54565b9150509295509295509295565b612d3f816128f7565b8114612d49575f5ffd5b50565b5f81359050612d5a81612d36565b92915050565b5f5f5f5f5f5f60c08789031215612d7a57612d7961244a565b5b5f612d8789828a01612471565b9650506020612d9889828a01612b54565b955050604087013567ffffffffffffffff811115612db957612db861244e565b5b612dc589828a01612796565b945050606087013567ffffffffffffffff811115612de657612de561244e565b5b612df289828a01612796565b9350506080612e0389828a01612d4c565b92505060a0612e1489828a01612471565b9150509295509295509295565b5f81519050919050565b5f82825260208201905092915050565b5f819050602082019050919050565b5f608083015f8301518482035f860152612e648282612591565b9150506020830151612e796020860182612512565b506040830151612e8c6040860182612512565b506060830151612e9f6060860182612512565b508091505092915050565b5f612eb58383612e4a565b905092915050565b5f602082019050919050565b5f612ed382612e21565b612edd8185612e2b565b935083602082028501612eef85612e3b565b805f5b85811015612f2a5784840389528151612f0b8582612eaa565b9450612f1683612ebd565b925060208a01995050600181019050612ef2565b50829750879550505050505092915050565b5f6020820190508181035f830152612f548184612ec9565b905092915050565b5f60208284031215612f7157612f7061244a565b5b5f612f7e84828501612d4c565b91505092915050565b7f4e487b71000000000000000000000000000000000000000000000000000000005f52601160045260245ffd5b5f612fbe82612452565b9150612fc983612452565b9250828202612fd781612452565b91508282048414831517612fee57612fed612f87565b5b5092915050565b5f612fff82612452565b915061300a83612452565b925082820190508082111561302257613021612f87565b5b92915050565b5f61303282612452565b915061303d83612452565b925082820390508181111561305557613054612f87565b5b92915050565b7f4e487b71000000000000000000000000000000000000000000000000000000005f52602260045260245ffd5b5f600282049050600182168061309f57607f821691505b6020821081036130b2576130b161305b565b5b50919050565b7f4e487b71000000000000000000000000000000000000000000000000000000005f52603260045260245ffd5b5f819050815f5260205f209050919050565b5f6020601f8301049050919050565b5f82821b905092915050565b5f600883026131417fffffffffffffffffffffffffffffffffffffffffffffffffffffffffffffffff82613106565b61314b8683613106565b95508019841693508086168417925050509392505050565b5f819050919050565b5f61318661318161317c84612452565b613163565b612452565b9050919050565b5f819050919050565b61319f8361316c565b6131b36131ab8261318d565b848454613112565b825550505050565b5f5f905090565b6131ca6131bb565b6131d5818484613196565b505050565b5b818110156131f8576131ed5f826131c2565b6001810190506131db565b5050565b601f82111561323d5761320e816130e5565b613217846130f7565b81016020851015613226578190505b61323a613232856130f7565b8301826131da565b50505b505050565b5f82821c905092915050565b5f61325d5f1984600802613242565b1980831691505092915050565b5f613275838361324e565b9150826002028217905092915050565b61328e82612521565b67ffffffffffffffff8111156132a7576132a661269f565b5b6132b18254613088565b6132bc8282856131fc565b5f60209050601f8311600181146132ed575f84156132db578287015190505b6132e5858261326a565b86555061334c565b601f1984166132fb866130e5565b5f5b82811015613322578489015182556001820191506020850194506020810190506132fd565b8683101561333f578489015161333b601f89168261324e565b8355505b6001600288020188555050505b505050505050565b5f61335e82612452565b91507fffffffffffffffffffffffffffffffffffffffffffffffffffffffffffffffff82036133905761338f612f87565b5b600182019050919050565b5f6040820190506133ae5f8301856128b0565b6133bb60208301846128b0565b9392505050565b5f6133cc82612452565b91505f82036133de576133dd612f87565b5b600182039050919050565b5f6060820190506133fc5f8301866128b0565b61340960208301856128b0565b61341660408301846128b0565b949350505050565b7f4e487b71000000000000000000000000000000000000000000000000000000005f52603160045260245ffdfea26469706673582212208dbd9ede0968d74fdd29fe1454a86810fad2132b3054d5b6081c5b115a61f02064736f6c634300081c0033",
  "linkReferences": {},
  "deployedLinkReferences": {},
  "immutableReferences": {},
  "inputSourceName": "project/contracts/AccountConfig.sol",
  "buildInfoId": "solc-0_8_28-490c2e7a9a1df366a372cdcee157beaf244a6fc5"
}