{
  "_format": "hh3-artifact-1",
  "contractName": "AccountConfig",
  "sourceName": "contracts/AccountConfig.sol",
  "abi": [
    {
      "inputs": [],
      "stateMutability": "nonpayable",
      "type": "constructor"
    },
    {
      "inputs": [
        {
          "internalType": "uint256",
          "name": "apiKey",
          "type": "uint256"
        }
      ],
      "name": "AccountAlreadyExists",
      "type": "error"
    },
    {
      "inputs": [
        {
          "internalType": "uint256",
          "name": "apiKey",
          "type": "uint256"
        }
      ],
      "name": "AccountDoesNotExist",
      "type": "error"
    },
    {
      "inputs": [
        {
          "internalType": "uint256",
          "name": "apiKey",
          "type": "uint256"
        },
        {
          "internalType": "uint256",
          "name": "groupId",
          "type": "uint256"
        },
        {
          "internalType": "uint256",
          "name": "action",
          "type": "uint256"
        }
      ],
      "name": "ActionDoesNotExist",
      "type": "error"
    },
    {
      "inputs": [
        {
          "internalType": "uint256",
          "name": "apiKey",
          "type": "uint256"
        },
        {
          "internalType": "uint256",
          "name": "groupId",
          "type": "uint256"
        }
      ],
      "name": "GroupDoesNotExist",
      "type": "error"
    },
    {
      "inputs": [
        {
          "internalType": "uint256",
          "name": "apiKey",
          "type": "uint256"
        },
        {
          "internalType": "uint256",
          "name": "amount",
          "type": "uint256"
        }
      ],
      "name": "InsufficientBalance",
      "type": "error"
    },
    {
      "inputs": [
        {
          "internalType": "uint256",
          "name": "apiKey",
          "type": "uint256"
        },
        {
          "internalType": "address",
          "name": "sender",
          "type": "address"
        }
      ],
      "name": "NoAccountAccess",
      "type": "error"
    },
    {
      "inputs": [
        {
          "internalType": "address",
          "name": "caller",
          "type": "address"
        }
      ],
      "name": "OnlyApiPayer",
      "type": "error"
    },
    {
      "inputs": [
        {
          "internalType": "address",
          "name": "caller",
          "type": "address"
        }
      ],
      "name": "OnlyApiPayerOrPricingOperator",
      "type": "error"
    },
    {
      "inputs": [
        {
          "internalType": "uint256",
          "name": "apiKey",
          "type": "uint256"
        },
        {
          "internalType": "uint256",
          "name": "usageApiKey",
          "type": "uint256"
        }
      ],
      "name": "UsageApiKeyDoesNotExist",
      "type": "error"
    },
    {
      "inputs": [
        {
          "internalType": "uint256",
          "name": "apiKey",
          "type": "uint256"
        },
        {
          "internalType": "uint256",
          "name": "groupId",
          "type": "uint256"
        },
        {
          "internalType": "uint256",
          "name": "Wallet",
          "type": "uint256"
        }
      ],
      "name": "WalletDoesNotExist",
      "type": "error"
    },
    {
      "inputs": [
        {
          "internalType": "uint256",
          "name": "apiKeyHash",
          "type": "uint256"
        }
      ],
      "name": "accountExistsAndIsMutable",
      "outputs": [
        {
          "internalType": "bool",
          "name": "",
          "type": "bool"
        }
      ],
      "stateMutability": "view",
      "type": "function"
    },
    {
      "inputs": [
        {
          "internalType": "uint256",
          "name": "accountApiKeyHash",
          "type": "uint256"
        },
        {
          "internalType": "uint256",
          "name": "groupId",
          "type": "uint256"
        },
        {
          "internalType": "uint256",
          "name": "action",
          "type": "uint256"
        },
        {
          "internalType": "string",
          "name": "name",
          "type": "string"
        },
        {
          "internalType": "string",
          "name": "description",
          "type": "string"
        }
      ],
      "name": "addActionToGroup",
      "outputs": [],
      "stateMutability": "nonpayable",
      "type": "function"
    },
    {
      "inputs": [
        {
          "internalType": "uint256",
          "name": "accountApiKeyHash",
          "type": "uint256"
        },
        {
          "internalType": "uint256",
          "name": "usageApiKeyHash",
          "type": "uint256"
        },
        {
          "internalType": "uint256",
          "name": "expiration",
          "type": "uint256"
        },
        {
          "internalType": "uint256",
          "name": "balance",
          "type": "uint256"
        }
      ],
      "name": "addApiKey",
      "outputs": [],
      "stateMutability": "nonpayable",
      "type": "function"
    },
    {
      "inputs": [
        {
          "internalType": "uint256",
          "name": "accountApiKeyHash",
          "type": "uint256"
        },
        {
          "internalType": "string",
          "name": "name",
          "type": "string"
        },
        {
          "internalType": "string",
          "name": "description",
          "type": "string"
        },
        {
          "internalType": "uint256[]",
          "name": "permitted_actions",
          "type": "uint256[]"
        },
        {
          "internalType": "uint256[]",
          "name": "Wallets",
          "type": "uint256[]"
        },
        {
          "internalType": "bool",
          "name": "all_wallets_permitted",
          "type": "bool"
        },
        {
          "internalType": "bool",
          "name": "all_actions_permitted",
          "type": "bool"
        }
      ],
      "name": "addGroup",
      "outputs": [],
      "stateMutability": "nonpayable",
      "type": "function"
    },
    {
      "inputs": [
        {
          "internalType": "uint256",
          "name": "accountApiKeyHash",
          "type": "uint256"
        },
        {
          "internalType": "uint256",
          "name": "groupId",
          "type": "uint256"
        },
        {
          "internalType": "uint256",
          "name": "walletAddressHash",
          "type": "uint256"
        }
      ],
      "name": "addWalletToGroup",
      "outputs": [],
      "stateMutability": "nonpayable",
      "type": "function"
    },
    {
      "inputs": [
        {
          "internalType": "uint256",
          "name": "index",
          "type": "uint256"
        }
      ],
      "name": "allWalletAddressesAt",
      "outputs": [
        {
          "internalType": "address",
          "name": "",
          "type": "address"
        }
      ],
      "stateMutability": "view",
      "type": "function"
    },
    {
      "inputs": [],
      "name": "api_payer",
      "outputs": [
        {
          "internalType": "address",
          "name": "",
          "type": "address"
        }
      ],
      "stateMutability": "view",
      "type": "function"
    },
    {
      "inputs": [
        {
          "internalType": "uint256",
          "name": "apiKeyHash",
          "type": "uint256"
        },
        {
          "internalType": "uint256",
          "name": "amount",
          "type": "uint256"
        }
      ],
      "name": "creditApiKey",
      "outputs": [],
      "stateMutability": "nonpayable",
      "type": "function"
    },
    {
      "inputs": [
        {
          "internalType": "uint256",
          "name": "apiKeyHash",
          "type": "uint256"
        },
        {
          "internalType": "uint256",
          "name": "amount",
          "type": "uint256"
        }
      ],
      "name": "debitApiKey",
      "outputs": [],
      "stateMutability": "nonpayable",
      "type": "function"
    },
    {
      "inputs": [
        {
          "internalType": "uint256",
          "name": "pricingItemId",
          "type": "uint256"
        }
      ],
      "name": "getPricing",
      "outputs": [
        {
          "internalType": "uint256",
          "name": "",
          "type": "uint256"
        }
      ],
      "stateMutability": "view",
      "type": "function"
    },
    {
      "inputs": [
        {
          "internalType": "uint256",
          "name": "apiKeyHash",
          "type": "uint256"
        },
        {
          "internalType": "address",
          "name": "walletAddress",
          "type": "address"
        }
      ],
      "name": "getWalletDerivation",
      "outputs": [
        {
          "internalType": "uint256",
          "name": "",
          "type": "uint256"
        }
      ],
      "stateMutability": "view",
      "type": "function"
    },
    {
      "inputs": [
        {
          "internalType": "uint256",
          "name": "index",
          "type": "uint256"
        }
      ],
      "name": "indexToAccountHashAt",
      "outputs": [
        {
          "internalType": "uint256",
          "name": "",
          "type": "uint256"
        }
      ],
      "stateMutability": "view",
      "type": "function"
    },
    {
      "inputs": [
        {
          "internalType": "uint256",
          "name": "accountApiKeyHash",
          "type": "uint256"
        },
        {
          "internalType": "uint256",
          "name": "groupId",
          "type": "uint256"
        },
        {
          "internalType": "uint256",
          "name": "pageNumber",
          "type": "uint256"
        },
        {
          "internalType": "uint256",
          "name": "pageSize",
          "type": "uint256"
        }
      ],
      "name": "listActions",
      "outputs": [
        {
          "components": [
            {
              "internalType": "uint256",
              "name": "id",
              "type": "uint256"
            },
            {
              "internalType": "string",
              "name": "name",
              "type": "string"
            },
            {
              "internalType": "string",
              "name": "description",
              "type": "string"
            }
          ],
          "internalType": "struct LibAccountConfigStorage.Metadata[]",
          "name": "",
          "type": "tuple[]"
        }
      ],
      "stateMutability": "view",
      "type": "function"
    },
    {
      "inputs": [
        {
          "internalType": "uint256",
          "name": "accountApiKeyHash",
          "type": "uint256"
        },
        {
          "internalType": "uint256",
          "name": "pageNumber",
          "type": "uint256"
        },
        {
          "internalType": "uint256",
          "name": "pageSize",
          "type": "uint256"
        }
      ],
      "name": "listApiKeys",
      "outputs": [
        {
          "components": [
            {
              "components": [
                {
                  "internalType": "uint256",
                  "name": "id",
                  "type": "uint256"
                },
                {
                  "internalType": "string",
                  "name": "name",
                  "type": "string"
                },
                {
                  "internalType": "string",
                  "name": "description",
                  "type": "string"
                }
              ],
              "internalType": "struct LibAccountConfigStorage.Metadata",
              "name": "metadata",
              "type": "tuple"
            },
            {
              "internalType": "uint256",
              "name": "apiKeyHash",
              "type": "uint256"
            },
            {
              "internalType": "uint256",
              "name": "expiration",
              "type": "uint256"
            },
            {
              "internalType": "uint256",
              "name": "balance",
              "type": "uint256"
            },
            {
              "internalType": "bool",
              "name": "runActions",
              "type": "bool"
            },
            {
              "internalType": "bool",
              "name": "manageGroups",
              "type": "bool"
            },
            {
              "internalType": "bool",
              "name": "manageWallets",
              "type": "bool"
            },
            {
              "internalType": "bool",
              "name": "manageIPFSIds",
              "type": "bool"
            },
            {
              "internalType": "bool",
              "name": "manageUsageApiKeys",
              "type": "bool"
            }
          ],
          "internalType": "struct LibAccountConfigStorage.UsageApiKey[]",
          "name": "",
          "type": "tuple[]"
        }
      ],
      "stateMutability": "view",
      "type": "function"
    },
    {
      "inputs": [
        {
          "internalType": "uint256",
          "name": "accountApiKeyHash",
          "type": "uint256"
        },
        {
          "internalType": "uint256",
          "name": "pageNumber",
          "type": "uint256"
        },
        {
          "internalType": "uint256",
          "name": "pageSize",
          "type": "uint256"
        }
      ],
      "name": "listGroups",
      "outputs": [
        {
          "components": [
            {
              "internalType": "uint256",
              "name": "id",
              "type": "uint256"
            },
            {
              "internalType": "string",
              "name": "name",
              "type": "string"
            },
            {
              "internalType": "string",
              "name": "description",
              "type": "string"
            }
          ],
          "internalType": "struct LibAccountConfigStorage.Metadata[]",
          "name": "",
          "type": "tuple[]"
        }
      ],
      "stateMutability": "view",
      "type": "function"
    },
    {
      "inputs": [
        {
          "internalType": "uint256",
          "name": "accountApiKeyHash",
          "type": "uint256"
        },
        {
          "internalType": "uint256",
          "name": "pageNumber",
          "type": "uint256"
        },
        {
          "internalType": "uint256",
          "name": "pageSize",
          "type": "uint256"
        }
      ],
      "name": "listWallets",
      "outputs": [
        {
          "components": [
            {
              "internalType": "uint256",
              "name": "id",
              "type": "uint256"
            },
            {
              "internalType": "string",
              "name": "name",
              "type": "string"
            },
            {
              "internalType": "string",
              "name": "description",
              "type": "string"
            },
            {
              "internalType": "address",
              "name": "walletAddress",
              "type": "address"
            }
          ],
          "internalType": "struct LibAccountConfigStorage.WalletData[]",
          "name": "",
          "type": "tuple[]"
        }
      ],
      "stateMutability": "view",
      "type": "function"
    },
    {
      "inputs": [
        {
          "internalType": "uint256",
          "name": "accountApiKeyHash",
          "type": "uint256"
        },
        {
          "internalType": "uint256",
          "name": "groupId",
          "type": "uint256"
        },
        {
          "internalType": "uint256",
          "name": "pageNumber",
          "type": "uint256"
        },
        {
          "internalType": "uint256",
          "name": "pageSize",
          "type": "uint256"
        }
      ],
      "name": "listWalletsInGroup",
      "outputs": [
        {
          "components": [
            {
              "internalType": "uint256",
              "name": "id",
              "type": "uint256"
            },
            {
              "internalType": "string",
              "name": "name",
              "type": "string"
            },
            {
              "internalType": "string",
              "name": "description",
              "type": "string"
            },
            {
              "internalType": "address",
              "name": "walletAddress",
              "type": "address"
            }
          ],
          "internalType": "struct LibAccountConfigStorage.WalletData[]",
          "name": "",
          "type": "tuple[]"
        }
      ],
      "stateMutability": "view",
      "type": "function"
    },
    {
      "inputs": [
        {
          "internalType": "uint256",
          "name": "apiKeyHash",
          "type": "uint256"
        },
        {
          "internalType": "bool",
          "name": "managed",
          "type": "bool"
        },
        {
          "internalType": "string",
          "name": "accountName",
          "type": "string"
        },
        {
          "internalType": "string",
          "name": "accountDescription",
          "type": "string"
        },
        {
          "internalType": "address",
          "name": "creatorWalletAddress",
          "type": "address"
        },
        {
          "internalType": "uint256",
          "name": "initialBalance",
          "type": "uint256"
        }
      ],
      "name": "newAccount",
      "outputs": [],
      "stateMutability": "nonpayable",
      "type": "function"
    },
    {
      "inputs": [],
      "name": "nextAccountCount",
      "outputs": [
        {
          "internalType": "uint256",
          "name": "",
          "type": "uint256"
        }
      ],
      "stateMutability": "view",
      "type": "function"
    },
    {
      "inputs": [],
      "name": "nextWalletCount",
      "outputs": [
        {
          "internalType": "uint256",
          "name": "",
          "type": "uint256"
        }
      ],
      "stateMutability": "view",
      "type": "function"
    },
    {
      "inputs": [
        {
          "internalType": "uint256",
          "name": "index",
          "type": "uint256"
        }
      ],
      "name": "pricingAt",
      "outputs": [
        {
          "internalType": "uint256",
          "name": "",
          "type": "uint256"
        }
      ],
      "stateMutability": "view",
      "type": "function"
    },
    {
      "inputs": [],
      "name": "pricing_operator",
      "outputs": [
        {
          "internalType": "address",
          "name": "",
          "type": "address"
        }
      ],
      "stateMutability": "view",
      "type": "function"
    },
    {
      "inputs": [
        {
          "internalType": "uint256",
          "name": "accountApiKeyHash",
          "type": "uint256"
        },
        {
          "internalType": "address",
          "name": "walletAddress",
          "type": "address"
        },
        {
          "internalType": "uint256",
          "name": "derivationPath",
          "type": "uint256"
        },
        {
          "internalType": "string",
          "name": "name",
          "type": "string"
        },
        {
          "internalType": "string",
          "name": "description",
          "type": "string"
        }
      ],
      "name": "registerWalletDerivation",
      "outputs": [],
      "stateMutability": "nonpayable",
      "type": "function"
    },
    {
      "inputs": [
        {
          "internalType": "uint256",
          "name": "accountApiKeyHash",
          "type": "uint256"
        },
        {
          "internalType": "uint256",
          "name": "groupId",
          "type": "uint256"
        },
        {
          "internalType": "uint256",
          "name": "action",
          "type": "uint256"
        }
      ],
      "name": "removeActionFromGroup",
      "outputs": [],
      "stateMutability": "nonpayable",
      "type": "function"
    },
    {
      "inputs": [
        {
          "internalType": "uint256",
          "name": "accountApiKeyHash",
          "type": "uint256"
        },
        {
          "internalType": "uint256",
          "name": "usageApiKeyHash",
          "type": "uint256"
        }
      ],
      "name": "removeUsageApiKey",
      "outputs": [],
      "stateMutability": "nonpayable",
      "type": "function"
    },
    {
      "inputs": [
        {
          "internalType": "uint256",
          "name": "accountApiKeyHash",
          "type": "uint256"
        },
        {
          "internalType": "uint256",
          "name": "groupId",
          "type": "uint256"
        },
        {
          "internalType": "uint256",
          "name": "walletAddressHash",
          "type": "uint256"
        }
      ],
      "name": "removeWalletFromGroup",
      "outputs": [],
      "stateMutability": "nonpayable",
      "type": "function"
    },
    {
      "inputs": [
        {
          "internalType": "uint256",
          "name": "pricingItemId",
          "type": "uint256"
        },
        {
          "internalType": "uint256",
          "name": "price",
          "type": "uint256"
        }
      ],
      "name": "setPricing",
      "outputs": [],
      "stateMutability": "nonpayable",
      "type": "function"
    },
    {
      "inputs": [
        {
          "internalType": "address",
          "name": "newPricingOperator",
          "type": "address"
        }
      ],
      "name": "setPricingOperator",
      "outputs": [],
      "stateMutability": "nonpayable",
      "type": "function"
    },
    {
      "inputs": [
        {
          "internalType": "uint256",
          "name": "accountApiKeyHash",
          "type": "uint256"
        },
        {
          "internalType": "uint256",
          "name": "actionHash",
          "type": "uint256"
        },
        {
          "internalType": "uint256",
          "name": "groupId",
          "type": "uint256"
        },
        {
          "internalType": "string",
          "name": "name",
          "type": "string"
        },
        {
          "internalType": "string",
          "name": "description",
          "type": "string"
        }
      ],
      "name": "updateActionMetadata",
      "outputs": [],
      "stateMutability": "nonpayable",
      "type": "function"
    },
    {
      "inputs": [
        {
          "internalType": "uint256",
          "name": "accountApiKeyHash",
          "type": "uint256"
        },
        {
          "internalType": "uint256",
          "name": "groupId",
          "type": "uint256"
        },
        {
          "internalType": "string",
          "name": "name",
          "type": "string"
        },
        {
          "internalType": "string",
          "name": "description",
          "type": "string"
        },
        {
          "internalType": "bool",
          "name": "all_wallets_permitted",
          "type": "bool"
        },
        {
          "internalType": "bool",
          "name": "all_actions_permitted",
          "type": "bool"
        }
      ],
      "name": "updateGroup",
      "outputs": [],
      "stateMutability": "nonpayable",
      "type": "function"
    },
    {
      "inputs": [
        {
          "internalType": "uint256",
          "name": "accountApiKeyHash",
          "type": "uint256"
        },
        {
          "internalType": "uint256",
          "name": "usageApiKeyHash",
          "type": "uint256"
        },
        {
          "internalType": "string",
          "name": "name",
          "type": "string"
        },
        {
          "internalType": "string",
          "name": "description",
          "type": "string"
        }
      ],
      "name": "updateUsageApiKeyMetadata",
      "outputs": [],
      "stateMutability": "nonpayable",
      "type": "function"
    }
  ],
  "bytecode": "0x608060405234801561000f575f5ffd5b5061001e61002360201b60201c565b610214565b5f61003261017060201b60201c565b90505f73ffffffffffffffffffffffffffffffffffffffff16816005015f9054906101000a900473ffffffffffffffffffffffffffffffffffffffff1673ffffffffffffffffffffffffffffffffffffffff16146100c5576040517f08c379a00000000000000000000000000000000000000000000000000000000081526004016100bc906101f6565b60405180910390fd5b33816005015f6101000a81548173ffffffffffffffffffffffffffffffffffffffff021916908373ffffffffffffffffffffffffffffffffffffffff16021790555033816006015f6101000a81548173ffffffffffffffffffffffffffffffffffffffff021916908373ffffffffffffffffffffffffffffffffffffffff160217905550600181600701819055506001816004015f600181526020019081526020015f208190555050565b5f5f7f171def12e82c8f3351e4c79b7854be19ad60a75b888f74b9660c07cd7461963390508091505090565b5f82825260208201905092915050565b7f616c726561647920696e697469616c697a6564000000000000000000000000005f82015250565b5f6101e060138361019c565b91506101eb826101ac565b602082019050919050565b5f6020820190508181035f83015261020d816101d4565b9050919050565b614188806102215f395ff3fe608060405234801561000f575f5ffd5b50600436106101e3575f3560e01c80637af361ef1161010d578063c12f1a42116100a0578063ca05588a1161006f578063ca05588a14610597578063ccb78fb6146105b3578063e6ad2928146105e3578063f75c8b2d146105ff576101e3565b8063c12f1a42146104eb578063c1aff8991461051b578063c5f5b9841461054b578063c704668c14610567576101e3565b806396a7cc54116100dc57806396a7cc541461047b578063a6b6b67214610497578063bac710ea146104b3578063bd9aed51146104cf576101e3565b80637af361ef146103e15780638845698c1461041157806390222cad1461042f578063921415521461045f576101e3565b8063542970ed116101855780636e06ac9c116101545780636e06ac9c146103495780636fe1fb8414610365578063719fac4314610395578063749e4d07146103c5576101e3565b8063542970ed146102c55780635d861c72146102f5578063683f2de8146103115780636a3d77a91461032d576101e3565b806340b4d453116101c157806340b4d453146102515780634705161e1461026d578063497179351461028b5780634cd882ac146102a7576101e3565b80630f9a6021146101e7578063291ff1ea146102055780632fa92e4114610235575b5f5ffd5b6101ef61062f565b6040516101fc9190612e8a565b60405180910390f35b61021f600480360381019061021a9190612ede565b610641565b60405161022c9190613122565b60405180910390f35b61024f600480360381019061024a919061326e565b6109d1565b005b61026b6004803603810190610266919061331d565b610aa8565b005b610275610b8a565b6040516102829190612e8a565b60405180910390f35b6102a560048036038101906102a09190612ede565b610b9c565b005b6102af610cde565b6040516102bc919061336a565b60405180910390f35b6102df60048036038101906102da9190612ede565b610d0f565b6040516102ec9190613492565b60405180910390f35b61030f600480360381019061030a91906134b2565b610f5b565b005b61032b6004803603810190610326919061331d565b610fdc565b005b61034760048036038101906103429190613502565b611073565b005b610363600480360381019061035e91906134b2565b611106565b005b61037f600480360381019061037a919061359e565b611165565b60405161038c9190612e8a565b60405180910390f35b6103af60048036038101906103aa919061359e565b611188565b6040516103bc91906135e3565b60405180910390f35b6103df60048036038101906103da91906136ea565b61119a565b005b6103fb60048036038101906103f691906134b2565b611324565b6040516104089190613122565b60405180910390f35b6104196116a1565b604051610426919061336a565b60405180910390f35b61044960048036038101906104449190613821565b6116d2565b6040516104569190612e8a565b60405180910390f35b6104796004803603810190610474919061385f565b61172a565b005b6104956004803603810190610490919061390e565b611953565b005b6104b160048036038101906104ac919061326e565b6119f8565b005b6104cd60048036038101906104c891906134b2565b611a74565b005b6104e960048036038101906104e491906139cf565b611ac9565b005b6105056004803603810190610500919061359e565b611cfe565b6040516105129190612e8a565b60405180910390f35b6105356004803603810190610530919061359e565b611d21565b6040516105429190612e8a565b60405180910390f35b6105656004803603810190610560919061331d565b611d44565b005b610581600480360381019061057c91906134b2565b611e62565b60405161058e9190613c1c565b60405180910390f35b6105b160048036038101906105ac919061331d565b61214e565b005b6105cd60048036038101906105c8919061359e565b61217a565b6040516105da919061336a565b60405180910390f35b6105fd60048036038101906105f89190613c3c565b6121bc565b005b610619600480360381019061061491906134b2565b612211565b6040516106269190613492565b60405180910390f35b5f610638612447565b60080154905090565b60605f61064d86612473565b90505f81600d015f8781526020019081526020015f2090505f5f61067d610676846005016124fa565b888861250d565b915091505f8167ffffffffffffffff81111561069c5761069b61314a565b5b6040519080825280602002602001820160405280156106d557816020015b6106c2612d6a565b8152602001906001900390816106ba5790505b5090505f5f90505b828110156109c0575f866011015f83876106f79190613c94565b81526020019081526020015f205f9054906101000a900473ffffffffffffffffffffffffffffffffffffffff1690508083838151811061073a57610739613cc7565b5b60200260200101516060019073ffffffffffffffffffffffffffffffffffffffff16908173ffffffffffffffffffffffffffffffffffffffff1681525050866012015f8273ffffffffffffffffffffffffffffffffffffffff1673ffffffffffffffffffffffffffffffffffffffff1681526020019081526020015f2060010180546107c590613d21565b80601f01602080910402602001604051908101604052809291908181526020018280546107f190613d21565b801561083c5780601f106108135761010080835404028352916020019161083c565b820191905f5260205f20905b81548152906001019060200180831161081f57829003601f168201915b505050505083838151811061085457610853613cc7565b5b602002602001015160200181905250866012015f8273ffffffffffffffffffffffffffffffffffffffff1673ffffffffffffffffffffffffffffffffffffffff1681526020019081526020015f2060020180546108b090613d21565b80601f01602080910402602001604051908101604052809291908181526020018280546108dc90613d21565b80156109275780601f106108fe57610100808354040283529160200191610927565b820191905f5260205f20905b81548152906001019060200180831161090a57829003601f168201915b505050505083838151811061093f5761093e613cc7565b5b602002602001015160400181905250866012015f8273ffffffffffffffffffffffffffffffffffffffff1673ffffffffffffffffffffffffffffffffffffffff1681526020019081526020015f205f01548383815181106109a3576109a2613cc7565b5b60200260200101515f0181815250505080806001019150506106dd565b508095505050505050949350505050565b6109db8585612577565b5f6109e4612447565b90505f815f015f8881526020019081526020015f209050610a238582600d015f8981526020019081526020015f2060030161258e90919063ffffffff16565b5084816010015f8781526020019081526020015f205f018190555083816010015f8781526020019081526020015f206001019081610a619190613ef1565b5082816010015f8781526020019081526020015f206002019081610a859190613ef1565b50806015015f815480929190610a9a90613fc0565b919050555050505050505050565b610ab1336125a5565b610aba826125b9565b5f610ac3612447565b90505f816002015f8581526020019081526020015f205490505f825f015f8381526020019081526020015f2090505f85825f016003015414610b175781600a015f8781526020019081526020015f20610b1b565b815f015b90508481600501541015610b685785856040517fcf479181000000000000000000000000000000000000000000000000000000008152600401610b5f929190614007565b60405180910390fd5b84816005015f828254610b7b919061402e565b92505081905550505050505050565b5f610b93612447565b60070154905090565b610ba5846125b9565b5f610bae612447565b90505f816002015f8781526020019081526020015f205490505f825f015f8381526020019081526020015f20600a015f8781526020019081526020015f2090508581600301819055508481600401819055508381600501819055506001816006015f6101000a81548160ff0219169083151502179055505f8160060160016101000a81548160ff0219169083151502179055505f8160060160026101000a81548160ff0219169083151502179055505f8160060160036101000a81548160ff0219169083151502179055505f8160060160046101000a81548160ff021916908315150217905550610cbc86845f015f8581526020019081526020015f2060080161258e90919063ffffffff16565b5081836002015f8881526020019081526020015f208190555050505050505050565b5f610ce7612447565b6006015f9054906101000a900473ffffffffffffffffffffffffffffffffffffffff16905090565b60605f610d1b86612473565b90505f81600d015f8781526020019081526020015f2090505f610d40826003016124fa565b90505f5f610d4f83898961250d565b915091505f8167ffffffffffffffff811115610d6e57610d6d61314a565b5b604051908082528060200260200182016040528015610da757816020015b610d94612da6565b815260200190600190039081610d8c5790505b5090505f5f90505b82811015610f4957866010015f610ddd8387610dcb9190613c94565b896003016125c690919063ffffffff16565b81526020019081526020015f206040518060600160405290815f8201548152602001600182018054610e0e90613d21565b80601f0160208091040260200160405190810160405280929190818152602001828054610e3a90613d21565b8015610e855780601f10610e5c57610100808354040283529160200191610e85565b820191905f5260205f20905b815481529060010190602001808311610e6857829003601f168201915b50505050508152602001600282018054610e9e90613d21565b80601f0160208091040260200160405190810160405280929190818152602001828054610eca90613d21565b8015610f155780601f10610eec57610100808354040283529160200191610f15565b820191905f5260205f20905b815481529060010190602001808311610ef857829003601f168201915b505050505081525050828281518110610f3157610f30613cc7565b5b60200260200101819052508080600101915050610daf565b50809650505050505050949350505050565b610f668383836125dd565b5f610f6f612447565b90505f815f015f8681526020019081526020015f209050610fae8382600d015f8781526020019081526020015f2060030161267690919063ffffffff16565b505f81601501541115610fd557806015015f815480929190610fcf90614061565b91905055505b5050505050565b610fe5336125a5565b610fee826125b9565b5f610ff7612447565b90505f816002015f8581526020019081526020015f205490505f825f015f8381526020019081526020015f2090505f85825f01600301541461104b5781600a015f8781526020019081526020015f2061104f565b815f015b905084816005015f8282546110649190613c94565b92505081905550505050505050565b61107c846125b9565b611086848461268d565b5f61108f612447565b905082815f015f8781526020019081526020015f20600a015f8681526020019081526020015f205f0160010190816110c79190613ef1565b5081815f015f8781526020019081526020015f20600a015f8681526020019081526020015f205f0160020190816110fe9190613ef1565b505050505050565b61110f836125b9565b61111a83838361270a565b5f611123612447565b905061115e82825f015f8781526020019081526020015f20600d015f8681526020019081526020015f2060050161267690919063ffffffff16565b5050505050565b5f61116e612447565b6001015f8381526020019081526020015f20549050919050565b5f61119382336127a3565b9050919050565b6111a3876125b9565b5f6111ac612447565b90505f815f015f8a81526020019081526020015f2090506111dd816016015482600b0161258e90919063ffffffff16565b505f81600d015f836016015481526020019081526020015f2090508160160154815f015f018190555088815f0160010190816112199190613ef1565b5087815f01600201908161122d9190613ef1565b505f5f90505b875181101561127a5761126c88828151811061125257611251613cc7565b5b60200260200101518360030161258e90919063ffffffff16565b508080600101915050611233565b505f5f90505b86518110156112c7576112b987828151811061129f5761129e613cc7565b5b60200260200101518360050161258e90919063ffffffff16565b508080600101915050611280565b5084816007015f6101000a81548160ff021916908315150217905550838160070160016101000a81548160ff021916908315150217905550816016015f81548092919061131390613fc0565b919050555050505050505050505050565b60605f61133085612473565b90505f5f61134f60018460140154611348919061402e565b878761250d565b915091505f8167ffffffffffffffff81111561136e5761136d61314a565b5b6040519080825280602002602001820160405280156113a757816020015b611394612d6a565b81526020019060019003908161138c5790505b5090505f5f90505b82811015611692575f856011015f83876113c99190613c94565b81526020019081526020015f205f9054906101000a900473ffffffffffffffffffffffffffffffffffffffff1690508083838151811061140c5761140b613cc7565b5b60200260200101516060019073ffffffffffffffffffffffffffffffffffffffff16908173ffffffffffffffffffffffffffffffffffffffff1681525050856012015f8273ffffffffffffffffffffffffffffffffffffffff1673ffffffffffffffffffffffffffffffffffffffff1681526020019081526020015f20600101805461149790613d21565b80601f01602080910402602001604051908101604052809291908181526020018280546114c390613d21565b801561150e5780601f106114e55761010080835404028352916020019161150e565b820191905f5260205f20905b8154815290600101906020018083116114f157829003601f168201915b505050505083838151811061152657611525613cc7565b5b602002602001015160200181905250856012015f8273ffffffffffffffffffffffffffffffffffffffff1673ffffffffffffffffffffffffffffffffffffffff1681526020019081526020015f20600201805461158290613d21565b80601f01602080910402602001604051908101604052809291908181526020018280546115ae90613d21565b80156115f95780601f106115d0576101008083540402835291602001916115f9565b820191905f5260205f20905b8154815290600101906020018083116115dc57829003601f168201915b505050505083838151811061161157611610613cc7565b5b602002602001015160400181905250856012015f8273ffffffffffffffffffffffffffffffffffffffff1673ffffffffffffffffffffffffffffffffffffffff1681526020019081526020015f205f015483838151811061167557611674613cc7565b5b60200260200101515f0181815250505080806001019150506113af565b50809450505050509392505050565b5f6116aa612447565b6005015f9054906101000a900473ffffffffffffffffffffffffffffffffffffffff16905090565b5f5f6116dd84612473565b9050806012015f8473ffffffffffffffffffffffffffffffffffffffff1673ffffffffffffffffffffffffffffffffffffffff1681526020019081526020015f205f015491505092915050565b611733856125b9565b5f61173c612447565b90505f815f015f8881526020019081526020015f20905086826001015f846008015481526020019081526020015f2081905550816008015f81548092919061178390613fc0565b919050555084816012015f8873ffffffffffffffffffffffffffffffffffffffff1673ffffffffffffffffffffffffffffffffffffffff1681526020019081526020015f205f018190555083816012015f8873ffffffffffffffffffffffffffffffffffffffff1673ffffffffffffffffffffffffffffffffffffffff1681526020019081526020015f20600101908161181d9190613ef1565b5082816012015f8873ffffffffffffffffffffffffffffffffffffffff1673ffffffffffffffffffffffffffffffffffffffff1681526020019081526020015f20600201908161186d9190613ef1565b5085816011015f836014015481526020019081526020015f205f6101000a81548173ffffffffffffffffffffffffffffffffffffffff021916908373ffffffffffffffffffffffffffffffffffffffff16021790555085826003015f846007015481526020019081526020015f205f6101000a81548173ffffffffffffffffffffffffffffffffffffffff021916908373ffffffffffffffffffffffffffffffffffffffff160217905550806014015f81548092919061192c90613fc0565b9190505550816007015f81548092919061194590613fc0565b919050555050505050505050565b61195d8686612577565b5f611966612447565b90505f815f015f8981526020019081526020015f20600d015f8881526020019081526020015f20905085815f0160010190816119a29190613ef1565b5084815f0160020190816119b69190613ef1565b5083816007015f6101000a81548160ff021916908315150217905550828160070160016101000a81548160ff0219169083151502179055505050505050505050565b611a038584866125dd565b5f611a0c612447565b90505f815f015f8881526020019081526020015f20905083816010015f8881526020019081526020015f206001019081611a469190613ef1565b5082816010015f8881526020019081526020015f206002019081611a6a9190613ef1565b5050505050505050565b611a7e8383612577565b5f611a87612447565b9050611ac282825f015f8781526020019081526020015f20600d015f8681526020019081526020015f2060050161258e90919063ffffffff16565b5050505050565b611ad233612918565b5f611adb612447565b90505f816002015f8981526020019081526020015f205414611b3457866040517f8be1f3fb000000000000000000000000000000000000000000000000000000008152600401611b2b9190612e8a565b60405180910390fd5b5f815f015f8981526020019081526020015f20905086816013015f6101000a81548160ff02191690831515021790555083816007015f6101000a81548173ffffffffffffffffffffffffffffffffffffffff021916908373ffffffffffffffffffffffffffffffffffffffff16021790555087815f015f015f018190555085815f015f016001019081611bc79190613ef1565b5084815f015f016002019081611bdd9190613ef1565b505f815f016006015f6101000a81548160ff0219169083151502179055506001815f0160060160016101000a81548160ff0219169083151502179055506001815f0160060160026101000a81548160ff0219169083151502179055506001815f0160060160036101000a81548160ff0219169083151502179055506001815f0160060160046101000a81548160ff02191690831515021790555087815f01600301819055506312cc030042611c929190613c94565b815f016004018190555082815f016005018190555087826002015f8a81526020019081526020015f208190555087826001015f846008015481526020019081526020015f2081905550816008015f815480929190611cef90613fc0565b91905055505050505050505050565b5f611d07612447565b6004015f8381526020019081526020015f20549050919050565b5f611d2a612447565b6004015f8381526020019081526020015f20549050919050565b611d4d826125b9565b611d57828261268d565b5f611d60612447565b90505f815f015f8581526020019081526020015f209050611d8d838260080161267690919063ffffffff16565b5080600a015f8481526020019081526020015f205f5f82015f5f82015f9055600182015f611dbb9190612dc6565b600282015f611dca9190612dc6565b5050600382015f9055600482015f9055600582015f9055600682015f6101000a81549060ff02191690556006820160016101000a81549060ff02191690556006820160026101000a81549060ff02191690556006820160036101000a81549060ff02191690556006820160046101000a81549060ff02191690555050816002015f8481526020019081526020015f205f905550505050565b60605f611e6e85612473565b90505f611e7d826008016124fa565b90505f5f611e8c83888861250d565b915091505f8167ffffffffffffffff811115611eab57611eaa61314a565b5b604051908082528060200260200182016040528015611ee457816020015b611ed1612e03565b815260200190600190039081611ec95790505b5090505f5f90505b8281101561213e5785600a015f611f1a8387611f089190613c94565b896008016125c690919063ffffffff16565b81526020019081526020015f20604051806101200160405290815f82016040518060600160405290815f8201548152602001600182018054611f5b90613d21565b80601f0160208091040260200160405190810160405280929190818152602001828054611f8790613d21565b8015611fd25780601f10611fa957610100808354040283529160200191611fd2565b820191905f5260205f20905b815481529060010190602001808311611fb557829003601f168201915b50505050508152602001600282018054611feb90613d21565b80601f016020809104026020016040519081016040528092919081815260200182805461201790613d21565b80156120625780601f1061203957610100808354040283529160200191612062565b820191905f5260205f20905b81548152906001019060200180831161204557829003601f168201915b5050505050815250508152602001600382015481526020016004820154815260200160058201548152602001600682015f9054906101000a900460ff161515151581526020016006820160019054906101000a900460ff161515151581526020016006820160029054906101000a900460ff161515151581526020016006820160039054906101000a900460ff161515151581526020016006820160049054906101000a900460ff16151515158152505082828151811061212657612125613cc7565b5b60200260200101819052508080600101915050611eec565b5080955050505050509392505050565b612157336125a5565b80612160612447565b6004015f8481526020019081526020015f20819055505050565b5f612183612447565b6003015f8381526020019081526020015f205f9054906101000a900473ffffffffffffffffffffffffffffffffffffffff169050919050565b6121c5336125a5565b806121ce612447565b6006015f6101000a81548173ffffffffffffffffffffffffffffffffffffffff021916908373ffffffffffffffffffffffffffffffffffffffff16021790555050565b60605f61221d85612473565b90505f61222c82600b016124fa565b90505f5f61223b83888861250d565b915091505f8167ffffffffffffffff81111561225a5761225961314a565b5b60405190808252806020026020018201604052801561229357816020015b612280612da6565b8152602001906001900390816122785790505b5090505f5f90505b828110156124375785600d015f6122c983876122b79190613c94565b89600b016125c690919063ffffffff16565b81526020019081526020015f205f016040518060600160405290815f82015481526020016001820180546122fc90613d21565b80601f016020809104026020016040519081016040528092919081815260200182805461232890613d21565b80156123735780601f1061234a57610100808354040283529160200191612373565b820191905f5260205f20905b81548152906001019060200180831161235657829003601f168201915b5050505050815260200160028201805461238c90613d21565b80601f01602080910402602001604051908101604052809291908181526020018280546123b890613d21565b80156124035780601f106123da57610100808354040283529160200191612403565b820191905f5260205f20905b8154815290600101906020018083116123e657829003601f168201915b50505050508152505082828151811061241f5761241e613cc7565b5b6020026020010181905250808060010191505061229b565b5080955050505050509392505050565b5f5f7f171def12e82c8f3351e4c79b7854be19ad60a75b888f74b9660c07cd7461963390508091505090565b5f5f61247d612447565b90505f816002015f8581526020019081526020015f205490505f81036124da57836040517fd4a847370000000000000000000000000000000000000000000000000000000081526004016124d19190612e8a565b60405180910390fd5b5f825f015f8381526020019081526020015f209050809350505050919050565b5f612506825f016129ba565b9050919050565b5f5f8483111561251e578492505f93505b5f838561252b9190614088565b9050858110612540575f5f925092505061256f565b5f848261254d9190613c94565b90508681111561255b578690505b818282612568919061402e565b9350935050505b935093915050565b612580826125b9565b61258a82826129c9565b5050565b5f61259d835f01835f1b612a1a565b905092915050565b6125b66125b0612447565b82612a81565b50565b6125c38133612b75565b50565b5f6125d3835f0183612bc6565b5f1c905092915050565b6125e78383612577565b5f6125f0612447565b905061262b82825f015f8781526020019081526020015f20600d015f8681526020019081526020015f20600301612bed90919063ffffffff16565b612670578383836040517fef25d02d000000000000000000000000000000000000000000000000000000008152600401612667939291906140c9565b60405180910390fd5b50505050565b5f612685835f01835f1b612c04565b905092915050565b5f612696612447565b905081815f015f8581526020019081526020015f20600a015f8481526020019081526020015f2060030154146127055782826040517f748e712a0000000000000000000000000000000000000000000000000000000081526004016126fc929190614007565b60405180910390fd5b505050565b6127148383612577565b5f61271d612447565b905061275882825f015f8781526020019081526020015f20600d015f8681526020019081526020015f20600501612bed90919063ffffffff16565b61279d578383836040517f79167858000000000000000000000000000000000000000000000000000000008152600401612794939291906140c9565b60405180910390fd5b50505050565b5f5f6127ad612447565b90505f816002015f8681526020019081526020015f205490505f810361280a57846040517fd4a847370000000000000000000000000000000000000000000000000000000081526004016128019190612e8a565b60405180910390fd5b5f825f015f8381526020019081526020015f20905081815f016003015414612837575f9350505050612912565b826005015f9054906101000a900473ffffffffffffffffffffffffffffffffffffffff1673ffffffffffffffffffffffffffffffffffffffff168573ffffffffffffffffffffffffffffffffffffffff161480156128a9575060011515816013015f9054906101000a900460ff161515145b156128ba5760019350505050612912565b8473ffffffffffffffffffffffffffffffffffffffff16816007015f9054906101000a900473ffffffffffffffffffffffffffffffffffffffff1673ffffffffffffffffffffffffffffffffffffffff161493505050505b92915050565b5f612921612447565b9050806005015f9054906101000a900473ffffffffffffffffffffffffffffffffffffffff1673ffffffffffffffffffffffffffffffffffffffff168273ffffffffffffffffffffffffffffffffffffffff16146129b657816040517f92f13c4e0000000000000000000000000000000000000000000000000000000081526004016129ad919061336a565b60405180910390fd5b5050565b5f815f01805490509050919050565b6129d38282612d00565b612a165781816040517f931a85b3000000000000000000000000000000000000000000000000000000008152600401612a0d929190614007565b60405180910390fd5b5050565b5f612a258383612d4a565b612a7757825f0182908060018154018082558091505060019003905f5260205f20015f9091909190915055825f0180549050836001015f8481526020019081526020015f208190555060019050612a7b565b5f90505b92915050565b816005015f9054906101000a900473ffffffffffffffffffffffffffffffffffffffff1673ffffffffffffffffffffffffffffffffffffffff168173ffffffffffffffffffffffffffffffffffffffff1614158015612b2f5750816006015f9054906101000a900473ffffffffffffffffffffffffffffffffffffffff1673ffffffffffffffffffffffffffffffffffffffff168173ffffffffffffffffffffffffffffffffffffffff1614155b15612b7157806040517f9ed88e07000000000000000000000000000000000000000000000000000000008152600401612b68919061336a565b60405180910390fd5b5050565b612b7f82826127a3565b612bc25781816040517f7b0f9c07000000000000000000000000000000000000000000000000000000008152600401612bb99291906140fe565b60405180910390fd5b5050565b5f825f018281548110612bdc57612bdb613cc7565b5b905f5260205f200154905092915050565b5f612bfc835f01835f1b612d4a565b905092915050565b5f5f836001015f8481526020019081526020015f205490505f8114612cf5575f600182612c31919061402e565b90505f6001865f0180549050612c47919061402e565b9050808214612cad575f865f018281548110612c6657612c65613cc7565b5b905f5260205f200154905080875f018481548110612c8757612c86613cc7565b5b905f5260205f20018190555083876001015f8381526020019081526020015f2081905550505b855f01805480612cc057612cbf614125565b5b600190038181905f5260205f20015f90559055856001015f8681526020019081526020015f205f905560019350505050612cfa565b5f9150505b92915050565b5f5f612d0a612447565b90505f815f015f8681526020019081526020015f2090505f81600d015f8681526020019081526020015f20905084815f015f015414935050505092915050565b5f5f836001015f8481526020019081526020015f20541415905092915050565b60405180608001604052805f815260200160608152602001606081526020015f73ffffffffffffffffffffffffffffffffffffffff1681525090565b60405180606001604052805f815260200160608152602001606081525090565b508054612dd290613d21565b5f825580601f10612de35750612e00565b601f0160209004905f5260205f2090810190612dff9190612e57565b5b50565b604051806101200160405280612e17612da6565b81526020015f81526020015f81526020015f81526020015f151581526020015f151581526020015f151581526020015f151581526020015f151581525090565b5b80821115612e6e575f815f905550600101612e58565b5090565b5f819050919050565b612e8481612e72565b82525050565b5f602082019050612e9d5f830184612e7b565b92915050565b5f604051905090565b5f5ffd5b5f5ffd5b612ebd81612e72565b8114612ec7575f5ffd5b50565b5f81359050612ed881612eb4565b92915050565b5f5f5f5f60808587031215612ef657612ef5612eac565b5b5f612f0387828801612eca565b9450506020612f1487828801612eca565b9350506040612f2587828801612eca565b9250506060612f3687828801612eca565b91505092959194509250565b5f81519050919050565b5f82825260208201905092915050565b5f819050602082019050919050565b612f7481612e72565b82525050565b5f81519050919050565b5f82825260208201905092915050565b8281835e5f83830152505050565b5f601f19601f8301169050919050565b5f612fbc82612f7a565b612fc68185612f84565b9350612fd6818560208601612f94565b612fdf81612fa2565b840191505092915050565b5f73ffffffffffffffffffffffffffffffffffffffff82169050919050565b5f61301382612fea565b9050919050565b61302381613009565b82525050565b5f608083015f83015161303e5f860182612f6b565b50602083015184820360208601526130568282612fb2565b915050604083015184820360408601526130708282612fb2565b9150506060830151613085606086018261301a565b508091505092915050565b5f61309b8383613029565b905092915050565b5f602082019050919050565b5f6130b982612f42565b6130c38185612f4c565b9350836020820285016130d585612f5c565b805f5b8581101561311057848403895281516130f18582613090565b94506130fc836130a3565b925060208a019950506001810190506130d8565b50829750879550505050505092915050565b5f6020820190508181035f83015261313a81846130af565b905092915050565b5f5ffd5b5f5ffd5b7f4e487b71000000000000000000000000000000000000000000000000000000005f52604160045260245ffd5b61318082612fa2565b810181811067ffffffffffffffff8211171561319f5761319e61314a565b5b80604052505050565b5f6131b1612ea3565b90506131bd8282613177565b919050565b5f67ffffffffffffffff8211156131dc576131db61314a565b5b6131e582612fa2565b9050602081019050919050565b828183375f83830152505050565b5f61321261320d846131c2565b6131a8565b90508281526020810184848401111561322e5761322d613146565b5b6132398482856131f2565b509392505050565b5f82601f83011261325557613254613142565b5b8135613265848260208601613200565b91505092915050565b5f5f5f5f5f60a0868803121561328757613286612eac565b5b5f61329488828901612eca565b95505060206132a588828901612eca565b94505060406132b688828901612eca565b935050606086013567ffffffffffffffff8111156132d7576132d6612eb0565b5b6132e388828901613241565b925050608086013567ffffffffffffffff81111561330457613303612eb0565b5b61331088828901613241565b9150509295509295909350565b5f5f6040838503121561333357613332612eac565b5b5f61334085828601612eca565b925050602061335185828601612eca565b9150509250929050565b61336481613009565b82525050565b5f60208201905061337d5f83018461335b565b92915050565b5f81519050919050565b5f82825260208201905092915050565b5f819050602082019050919050565b5f606083015f8301516133c15f860182612f6b565b50602083015184820360208601526133d98282612fb2565b915050604083015184820360408601526133f38282612fb2565b9150508091505092915050565b5f61340b83836133ac565b905092915050565b5f602082019050919050565b5f61342982613383565b613433818561338d565b9350836020820285016134458561339d565b805f5b8581101561348057848403895281516134618582613400565b945061346c83613413565b925060208a01995050600181019050613448565b50829750879550505050505092915050565b5f6020820190508181035f8301526134aa818461341f565b905092915050565b5f5f5f606084860312156134c9576134c8612eac565b5b5f6134d686828701612eca565b93505060206134e786828701612eca565b92505060406134f886828701612eca565b9150509250925092565b5f5f5f5f6080858703121561351a57613519612eac565b5b5f61352787828801612eca565b945050602061353887828801612eca565b935050604085013567ffffffffffffffff81111561355957613558612eb0565b5b61356587828801613241565b925050606085013567ffffffffffffffff81111561358657613585612eb0565b5b61359287828801613241565b91505092959194509250565b5f602082840312156135b3576135b2612eac565b5b5f6135c084828501612eca565b91505092915050565b5f8115159050919050565b6135dd816135c9565b82525050565b5f6020820190506135f65f8301846135d4565b92915050565b5f67ffffffffffffffff8211156136165761361561314a565b5b602082029050602081019050919050565b5f5ffd5b5f61363d613638846135fc565b6131a8565b905080838252602082019050602084028301858111156136605761365f613627565b5b835b8181101561368957806136758882612eca565b845260208401935050602081019050613662565b5050509392505050565b5f82601f8301126136a7576136a6613142565b5b81356136b784826020860161362b565b91505092915050565b6136c9816135c9565b81146136d3575f5ffd5b50565b5f813590506136e4816136c0565b92915050565b5f5f5f5f5f5f5f60e0888a03121561370557613704612eac565b5b5f6137128a828b01612eca565b975050602088013567ffffffffffffffff81111561373357613732612eb0565b5b61373f8a828b01613241565b965050604088013567ffffffffffffffff8111156137605761375f612eb0565b5b61376c8a828b01613241565b955050606088013567ffffffffffffffff81111561378d5761378c612eb0565b5b6137998a828b01613693565b945050608088013567ffffffffffffffff8111156137ba576137b9612eb0565b5b6137c68a828b01613693565b93505060a06137d78a828b016136d6565b92505060c06137e88a828b016136d6565b91505092959891949750929550565b61380081613009565b811461380a575f5ffd5b50565b5f8135905061381b816137f7565b92915050565b5f5f6040838503121561383757613836612eac565b5b5f61384485828601612eca565b92505060206138558582860161380d565b9150509250929050565b5f5f5f5f5f60a0868803121561387857613877612eac565b5b5f61388588828901612eca565b95505060206138968882890161380d565b94505060406138a788828901612eca565b935050606086013567ffffffffffffffff8111156138c8576138c7612eb0565b5b6138d488828901613241565b925050608086013567ffffffffffffffff8111156138f5576138f4612eb0565b5b61390188828901613241565b9150509295509295909350565b5f5f5f5f5f5f60c0878903121561392857613927612eac565b5b5f61393589828a01612eca565b965050602061394689828a01612eca565b955050604087013567ffffffffffffffff81111561396757613966612eb0565b5b61397389828a01613241565b945050606087013567ffffffffffffffff81111561399457613993612eb0565b5b6139a089828a01613241565b93505060806139b189828a016136d6565b92505060a06139c289828a016136d6565b9150509295509295509295565b5f5f5f5f5f5f60c087890312156139e9576139e8612eac565b5b5f6139f689828a01612eca565b9650506020613a0789828a016136d6565b955050604087013567ffffffffffffffff811115613a2857613a27612eb0565b5b613a3489828a01613241565b945050606087013567ffffffffffffffff811115613a5557613a54612eb0565b5b613a6189828a01613241565b9350506080613a7289828a0161380d565b92505060a0613a8389828a01612eca565b9150509295509295509295565b5f81519050919050565b5f82825260208201905092915050565b5f819050602082019050919050565b613ac2816135c9565b82525050565b5f61012083015f8301518482035f860152613ae382826133ac565b9150506020830151613af86020860182612f6b565b506040830151613b0b6040860182612f6b565b506060830151613b1e6060860182612f6b565b506080830151613b316080860182613ab9565b5060a0830151613b4460a0860182613ab9565b5060c0830151613b5760c0860182613ab9565b5060e0830151613b6a60e0860182613ab9565b50610100830151613b7f610100860182613ab9565b508091505092915050565b5f613b958383613ac8565b905092915050565b5f602082019050919050565b5f613bb382613a90565b613bbd8185613a9a565b935083602082028501613bcf85613aaa565b805f5b85811015613c0a5784840389528151613beb8582613b8a565b9450613bf683613b9d565b925060208a01995050600181019050613bd2565b50829750879550505050505092915050565b5f6020820190508181035f830152613c348184613ba9565b905092915050565b5f60208284031215613c5157613c50612eac565b5b5f613c5e8482850161380d565b91505092915050565b7f4e487b71000000000000000000000000000000000000000000000000000000005f52601160045260245ffd5b5f613c9e82612e72565b9150613ca983612e72565b9250828201905080821115613cc157613cc0613c67565b5b92915050565b7f4e487b71000000000000000000000000000000000000000000000000000000005f52603260045260245ffd5b7f4e487b71000000000000000000000000000000000000000000000000000000005f52602260045260245ffd5b5f6002820490506001821680613d3857607f821691505b602082108103613d4b57613d4a613cf4565b5b50919050565b5f819050815f5260205f209050919050565b5f6020601f8301049050919050565b5f82821b905092915050565b5f60088302613dad7fffffffffffffffffffffffffffffffffffffffffffffffffffffffffffffffff82613d72565b613db78683613d72565b95508019841693508086168417925050509392505050565b5f819050919050565b5f613df2613ded613de884612e72565b613dcf565b612e72565b9050919050565b5f819050919050565b613e0b83613dd8565b613e1f613e1782613df9565b848454613d7e565b825550505050565b5f5f905090565b613e36613e27565b613e41818484613e02565b505050565b5b81811015613e6457613e595f82613e2e565b600181019050613e47565b5050565b601f821115613ea957613e7a81613d51565b613e8384613d63565b81016020851015613e92578190505b613ea6613e9e85613d63565b830182613e46565b50505b505050565b5f82821c905092915050565b5f613ec95f1984600802613eae565b1980831691505092915050565b5f613ee18383613eba565b9150826002028217905092915050565b613efa82612f7a565b67ffffffffffffffff811115613f1357613f1261314a565b5b613f1d8254613d21565b613f28828285613e68565b5f60209050601f831160018114613f59575f8415613f47578287015190505b613f518582613ed6565b865550613fb8565b601f198416613f6786613d51565b5f5b82811015613f8e57848901518255600182019150602085019450602081019050613f69565b86831015613fab5784890151613fa7601f891682613eba565b8355505b6001600288020188555050505b505050505050565b5f613fca82612e72565b91507fffffffffffffffffffffffffffffffffffffffffffffffffffffffffffffffff8203613ffc57613ffb613c67565b5b600182019050919050565b5f60408201905061401a5f830185612e7b565b6140276020830184612e7b565b9392505050565b5f61403882612e72565b915061404383612e72565b925082820390508181111561405b5761405a613c67565b5b92915050565b5f61406b82612e72565b91505f820361407d5761407c613c67565b5b600182039050919050565b5f61409282612e72565b915061409d83612e72565b92508282026140ab81612e72565b915082820484148315176140c2576140c1613c67565b5b5092915050565b5f6060820190506140dc5f830186612e7b565b6140e96020830185612e7b565b6140f66040830184612e7b565b949350505050565b5f6040820190506141115f830185612e7b565b61411e602083018461335b565b9392505050565b7f4e487b71000000000000000000000000000000000000000000000000000000005f52603160045260245ffdfea2646970667358221220ee5de60d094f00d362b833199dc8fea8229b9bdee07d5d843d31d106cd58891364736f6c634300081c0033",
  "linkReferences": {},
  "deployedLinkReferences": {},
  "immutableReferences": {},
  "inputSourceName": "project/contracts/AccountConfig.sol",
  "buildInfoId": "solc-0_8_28-0fe86d7dac08f98582fa23ed343015cf4a069079"
}