{
  "_format": "hh3-artifact-1",
  "contractName": "AccountConfig",
  "sourceName": "contracts/AccountConfig.sol",
  "abi": [
    {
      "inputs": [],
      "stateMutability": "nonpayable",
      "type": "constructor"
    },
    {
      "inputs": [
        {
          "internalType": "uint256",
          "name": "apiKey",
          "type": "uint256"
        }
      ],
      "name": "AccountDoesNotExist",
      "type": "error"
    },
    {
      "inputs": [
        {
          "internalType": "uint256",
          "name": "apiKey",
          "type": "uint256"
        },
        {
          "internalType": "uint256",
          "name": "groupId",
          "type": "uint256"
        },
        {
          "internalType": "uint256",
          "name": "action",
          "type": "uint256"
        }
      ],
      "name": "ActionDoesNotExist",
      "type": "error"
    },
    {
      "inputs": [
        {
          "internalType": "uint256",
          "name": "apiKey",
          "type": "uint256"
        },
        {
          "internalType": "uint256",
          "name": "groupId",
          "type": "uint256"
        }
      ],
      "name": "GroupDoesNotExist",
      "type": "error"
    },
    {
      "inputs": [
        {
          "internalType": "uint256",
          "name": "apiKey",
          "type": "uint256"
        },
        {
          "internalType": "uint256",
          "name": "usageApiKey",
          "type": "uint256"
        }
      ],
      "name": "UsageApiKeyDoesNotExist",
      "type": "error"
    },
    {
      "inputs": [
        {
          "internalType": "uint256",
          "name": "apiKey",
          "type": "uint256"
        },
        {
          "internalType": "uint256",
          "name": "groupId",
          "type": "uint256"
        },
        {
          "internalType": "uint256",
          "name": "Wallet",
          "type": "uint256"
        }
      ],
      "name": "WalletDoesNotExist",
      "type": "error"
    },
    {
      "inputs": [
        {
          "internalType": "uint256",
          "name": "apiKeyHash",
          "type": "uint256"
        }
      ],
      "name": "accountExistsAndIsMutable",
      "outputs": [
        {
          "internalType": "bool",
          "name": "",
          "type": "bool"
        }
      ],
      "stateMutability": "view",
      "type": "function"
    },
    {
      "inputs": [
        {
          "internalType": "uint256",
          "name": "accountApiKeyHash",
          "type": "uint256"
        },
        {
          "internalType": "uint256",
          "name": "groupId",
          "type": "uint256"
        },
        {
          "internalType": "uint256",
          "name": "action",
          "type": "uint256"
        },
        {
          "internalType": "string",
          "name": "name",
          "type": "string"
        },
        {
          "internalType": "string",
          "name": "description",
          "type": "string"
        }
      ],
      "name": "addActionToGroup",
      "outputs": [],
      "stateMutability": "nonpayable",
      "type": "function"
    },
    {
      "inputs": [
        {
          "internalType": "uint256",
          "name": "accountApiKeyHash",
          "type": "uint256"
        },
        {
          "internalType": "uint256",
          "name": "usageApiKeyHash",
          "type": "uint256"
        },
        {
          "internalType": "uint256",
          "name": "expiration",
          "type": "uint256"
        },
        {
          "internalType": "uint256",
          "name": "balance",
          "type": "uint256"
        }
      ],
      "name": "addApiKey",
      "outputs": [],
      "stateMutability": "nonpayable",
      "type": "function"
    },
    {
      "inputs": [
        {
          "internalType": "uint256",
          "name": "accountApiKeyHash",
          "type": "uint256"
        },
        {
          "internalType": "string",
          "name": "name",
          "type": "string"
        },
        {
          "internalType": "string",
          "name": "description",
          "type": "string"
        },
        {
          "internalType": "uint256[]",
          "name": "permitted_actions",
          "type": "uint256[]"
        },
        {
          "internalType": "uint256[]",
          "name": "Wallets",
          "type": "uint256[]"
        },
        {
          "internalType": "bool",
          "name": "all_wallets_permitted",
          "type": "bool"
        },
        {
          "internalType": "bool",
          "name": "all_actions_permitted",
          "type": "bool"
        }
      ],
      "name": "addGroup",
      "outputs": [],
      "stateMutability": "nonpayable",
      "type": "function"
    },
    {
      "inputs": [
        {
          "internalType": "uint256",
          "name": "accountApiKeyHash",
          "type": "uint256"
        },
        {
          "internalType": "uint256",
          "name": "groupId",
          "type": "uint256"
        },
        {
          "internalType": "uint256",
          "name": "walletAddressHash",
          "type": "uint256"
        }
      ],
      "name": "addWalletToGroup",
      "outputs": [],
      "stateMutability": "nonpayable",
      "type": "function"
    },
    {
      "inputs": [
        {
          "internalType": "uint256",
          "name": "accountApiKeyHash",
          "type": "uint256"
        },
        {
          "internalType": "uint256",
          "name": "walletAddressHash",
          "type": "uint256"
        }
      ],
      "name": "getWalletDerivation",
      "outputs": [
        {
          "internalType": "uint256",
          "name": "",
          "type": "uint256"
        }
      ],
      "stateMutability": "view",
      "type": "function"
    },
    {
      "inputs": [
        {
          "internalType": "uint256",
          "name": "accountApiKeyHash",
          "type": "uint256"
        },
        {
          "internalType": "uint256",
          "name": "groupId",
          "type": "uint256"
        },
        {
          "internalType": "uint256",
          "name": "pageNumber",
          "type": "uint256"
        },
        {
          "internalType": "uint256",
          "name": "pageSize",
          "type": "uint256"
        }
      ],
      "name": "listActions",
      "outputs": [
        {
          "components": [
            {
              "internalType": "uint256",
              "name": "id",
              "type": "uint256"
            },
            {
              "internalType": "string",
              "name": "name",
              "type": "string"
            },
            {
              "internalType": "string",
              "name": "description",
              "type": "string"
            }
          ],
          "internalType": "struct AccountConfig.Metadata[]",
          "name": "",
          "type": "tuple[]"
        }
      ],
      "stateMutability": "view",
      "type": "function"
    },
    {
      "inputs": [
        {
          "internalType": "uint256",
          "name": "accountApiKeyHash",
          "type": "uint256"
        },
        {
          "internalType": "uint256",
          "name": "pageNumber",
          "type": "uint256"
        },
        {
          "internalType": "uint256",
          "name": "pageSize",
          "type": "uint256"
        }
      ],
      "name": "listApiKeys",
      "outputs": [
        {
          "components": [
            {
              "components": [
                {
                  "internalType": "uint256",
                  "name": "id",
                  "type": "uint256"
                },
                {
                  "internalType": "string",
                  "name": "name",
                  "type": "string"
                },
                {
                  "internalType": "string",
                  "name": "description",
                  "type": "string"
                }
              ],
              "internalType": "struct AccountConfig.Metadata",
              "name": "metadata",
              "type": "tuple"
            },
            {
              "internalType": "uint256",
              "name": "apiKeyHash",
              "type": "uint256"
            },
            {
              "internalType": "uint256",
              "name": "expiration",
              "type": "uint256"
            },
            {
              "internalType": "uint256",
              "name": "balance",
              "type": "uint256"
            }
          ],
          "internalType": "struct AccountConfig.UsageApiKey[]",
          "name": "",
          "type": "tuple[]"
        }
      ],
      "stateMutability": "view",
      "type": "function"
    },
    {
      "inputs": [
        {
          "internalType": "uint256",
          "name": "accountApiKeyHash",
          "type": "uint256"
        },
        {
          "internalType": "uint256",
          "name": "pageNumber",
          "type": "uint256"
        },
        {
          "internalType": "uint256",
          "name": "pageSize",
          "type": "uint256"
        }
      ],
      "name": "listGroups",
      "outputs": [
        {
          "components": [
            {
              "internalType": "uint256",
              "name": "id",
              "type": "uint256"
            },
            {
              "internalType": "string",
              "name": "name",
              "type": "string"
            },
            {
              "internalType": "string",
              "name": "description",
              "type": "string"
            }
          ],
          "internalType": "struct AccountConfig.Metadata[]",
          "name": "",
          "type": "tuple[]"
        }
      ],
      "stateMutability": "view",
      "type": "function"
    },
    {
      "inputs": [
        {
          "internalType": "uint256",
          "name": "accountApiKeyHash",
          "type": "uint256"
        },
        {
          "internalType": "uint256",
          "name": "pageNumber",
          "type": "uint256"
        },
        {
          "internalType": "uint256",
          "name": "pageSize",
          "type": "uint256"
        }
      ],
      "name": "listWallets",
      "outputs": [
        {
          "components": [
            {
              "internalType": "uint256",
              "name": "id",
              "type": "uint256"
            },
            {
              "internalType": "string",
              "name": "name",
              "type": "string"
            },
            {
              "internalType": "string",
              "name": "description",
              "type": "string"
            }
          ],
          "internalType": "struct AccountConfig.Metadata[]",
          "name": "",
          "type": "tuple[]"
        }
      ],
      "stateMutability": "view",
      "type": "function"
    },
    {
      "inputs": [
        {
          "internalType": "uint256",
          "name": "accountApiKeyHash",
          "type": "uint256"
        },
        {
          "internalType": "uint256",
          "name": "groupId",
          "type": "uint256"
        },
        {
          "internalType": "uint256",
          "name": "pageNumber",
          "type": "uint256"
        },
        {
          "internalType": "uint256",
          "name": "pageSize",
          "type": "uint256"
        }
      ],
      "name": "listWalletsInGroup",
      "outputs": [
        {
          "components": [
            {
              "internalType": "uint256",
              "name": "id",
              "type": "uint256"
            },
            {
              "internalType": "string",
              "name": "name",
              "type": "string"
            },
            {
              "internalType": "string",
              "name": "description",
              "type": "string"
            }
          ],
          "internalType": "struct AccountConfig.Metadata[]",
          "name": "",
          "type": "tuple[]"
        }
      ],
      "stateMutability": "view",
      "type": "function"
    },
    {
      "inputs": [
        {
          "internalType": "uint256",
          "name": "apiKeyHash",
          "type": "uint256"
        },
        {
          "internalType": "bool",
          "name": "managed",
          "type": "bool"
        },
        {
          "internalType": "string",
          "name": "accountName",
          "type": "string"
        },
        {
          "internalType": "string",
          "name": "accountDescription",
          "type": "string"
        },
        {
          "internalType": "address",
          "name": "creatorWalletAddress",
          "type": "address"
        },
        {
          "internalType": "uint256",
          "name": "initialBalance",
          "type": "uint256"
        }
      ],
      "name": "newAccount",
      "outputs": [],
      "stateMutability": "nonpayable",
      "type": "function"
    },
    {
      "inputs": [],
      "name": "nextWalletCount",
      "outputs": [
        {
          "internalType": "uint256",
          "name": "",
          "type": "uint256"
        }
      ],
      "stateMutability": "view",
      "type": "function"
    },
    {
      "inputs": [],
      "name": "owner",
      "outputs": [
        {
          "internalType": "address",
          "name": "",
          "type": "address"
        }
      ],
      "stateMutability": "view",
      "type": "function"
    },
    {
      "inputs": [
        {
          "internalType": "uint256",
          "name": "accountApiKeyHash",
          "type": "uint256"
        },
        {
          "internalType": "uint256",
          "name": "walletAddressHash",
          "type": "uint256"
        },
        {
          "internalType": "uint256",
          "name": "derivationPath",
          "type": "uint256"
        },
        {
          "internalType": "string",
          "name": "name",
          "type": "string"
        },
        {
          "internalType": "string",
          "name": "description",
          "type": "string"
        }
      ],
      "name": "registerWalletDerivation",
      "outputs": [],
      "stateMutability": "nonpayable",
      "type": "function"
    },
    {
      "inputs": [
        {
          "internalType": "uint256",
          "name": "accountApiKeyHash",
          "type": "uint256"
        },
        {
          "internalType": "uint256",
          "name": "groupId",
          "type": "uint256"
        },
        {
          "internalType": "uint256",
          "name": "action",
          "type": "uint256"
        }
      ],
      "name": "removeActionFromGroup",
      "outputs": [],
      "stateMutability": "nonpayable",
      "type": "function"
    },
    {
      "inputs": [
        {
          "internalType": "uint256",
          "name": "accountApiKeyHash",
          "type": "uint256"
        },
        {
          "internalType": "uint256",
          "name": "usageApiKeyHash",
          "type": "uint256"
        }
      ],
      "name": "removeUsageApiKey",
      "outputs": [],
      "stateMutability": "nonpayable",
      "type": "function"
    },
    {
      "inputs": [
        {
          "internalType": "uint256",
          "name": "accountApiKeyHash",
          "type": "uint256"
        },
        {
          "internalType": "uint256",
          "name": "groupId",
          "type": "uint256"
        },
        {
          "internalType": "uint256",
          "name": "walletAddressHash",
          "type": "uint256"
        }
      ],
      "name": "removeWalletFromGroup",
      "outputs": [],
      "stateMutability": "nonpayable",
      "type": "function"
    },
    {
      "inputs": [
        {
          "internalType": "uint256",
          "name": "accountApiKeyHash",
          "type": "uint256"
        },
        {
          "internalType": "uint256",
          "name": "actionHash",
          "type": "uint256"
        },
        {
          "internalType": "uint256",
          "name": "groupId",
          "type": "uint256"
        },
        {
          "internalType": "string",
          "name": "name",
          "type": "string"
        },
        {
          "internalType": "string",
          "name": "description",
          "type": "string"
        }
      ],
      "name": "updateActionMetadata",
      "outputs": [],
      "stateMutability": "nonpayable",
      "type": "function"
    },
    {
      "inputs": [
        {
          "internalType": "uint256",
          "name": "accountApiKeyHash",
          "type": "uint256"
        },
        {
          "internalType": "uint256",
          "name": "groupId",
          "type": "uint256"
        },
        {
          "internalType": "string",
          "name": "name",
          "type": "string"
        },
        {
          "internalType": "string",
          "name": "description",
          "type": "string"
        },
        {
          "internalType": "bool",
          "name": "all_wallets_permitted",
          "type": "bool"
        },
        {
          "internalType": "bool",
          "name": "all_actions_permitted",
          "type": "bool"
        }
      ],
      "name": "updateGroup",
      "outputs": [],
      "stateMutability": "nonpayable",
      "type": "function"
    },
    {
      "inputs": [
        {
          "internalType": "uint256",
          "name": "accountApiKeyHash",
          "type": "uint256"
        },
        {
          "internalType": "uint256",
          "name": "usageApiKeyHash",
          "type": "uint256"
        },
        {
          "internalType": "string",
          "name": "name",
          "type": "string"
        },
        {
          "internalType": "string",
          "name": "description",
          "type": "string"
        }
      ],
      "name": "updateUsageApiKeyMetadata",
      "outputs": [],
      "stateMutability": "nonpayable",
      "type": "function"
    }
  ],
  "bytecode": "0x6080604052348015600e575f5ffd5b503360025f6101000a81548173ffffffffffffffffffffffffffffffffffffffff021916908373ffffffffffffffffffffffffffffffffffffffff1602179055506001600381905550612f31806100645f395ff3fe608060405234801561000f575f5ffd5b5060043610610135575f3560e01c806379b8e691116100b6578063bac710ea1161007a578063bac710ea14610345578063bd9aed5114610361578063c5f5b9841461037d578063c704668c14610399578063dbb17a0b146103c9578063f75c8b2d146103e557610135565b806379b8e6911461028f5780637af361ef146102bf5780638da5cb5b146102ef57806396a7cc541461030d578063a6b6b6721461032957610135565b80635d861c72116100fd5780635d861c72146101ef5780636a3d77a91461020b5780636e06ac9c14610227578063719fac4314610243578063749e4d071461027357610135565b8063291ff1ea146101395780632fa92e41146101695780634705161e1461018557806349717935146101a3578063542970ed146101bf575b5f5ffd5b610153600480360381019061014e9190611f60565b610415565b6040516101609190612152565b60405180910390f35b610183600480360381019061017e919061229e565b6106c6565b005b61018d61078f565b60405161019a919061235c565b60405180910390f35b6101bd60048036038101906101b89190611f60565b610795565b005b6101d960048036038101906101d49190611f60565b61080b565b6040516101e69190612152565b60405180910390f35b61020960048036038101906102049190612375565b610abc565b005b610225600480360381019061022091906123c5565b610b2f565b005b610241600480360381019061023c9190612375565b610b9f565b005b61025d60048036038101906102589190612461565b610bec565b60405161026a91906124a6565b60405180910390f35b61028d600480360381019061028891906125ad565b610cef565b005b6102a960048036038101906102a491906126ba565b610e6b565b6040516102b6919061235c565b60405180910390f35b6102d960048036038101906102d49190612375565b610ea5565b6040516102e69190612152565b60405180910390f35b6102f7611115565b6040516103049190612737565b60405180910390f35b61032760048036038101906103229190612750565b61113a565b005b610343600480360381019061033e919061229e565b611207565b005b61035f600480360381019061035a9190612375565b611275565b005b61037b6004803603810190610376919061283b565b6112c1565b005b610397600480360381019061039291906126ba565b61139f565b005b6103b360048036038101906103ae9190612375565b6113d8565b6040516103c09190612a17565b60405180910390f35b6103e360048036038101906103de919061229e565b611680565b005b6103ff60048036038101906103fa9190612375565b611766565b60405161040c9190612152565b60405180910390f35b60606104218585611a00565b5f5f5f8781526020019081526020015f2090505f81600f015f8781526020019081526020015f20905061045681600501611a51565b84111561046f5761046981600501611a51565b93505f94505b5f848661047c9190612a64565b90505f858261048b9190612aa5565b905061049983600501611a51565b8111156104af576104ac83600501611a51565b90505b5f82826104bc9190612ad8565b90505f8167ffffffffffffffff8111156104d9576104d861217a565b5b60405190808252806020026020018201604052801561051257816020015b6104ff611ed1565b8152602001906001900390816104f75790505b5090505f5f90505b828110156106b457866015015f61054883886105369190612aa5565b89600501611a6490919063ffffffff16565b81526020019081526020015f206040518060600160405290815f820154815260200160018201805461057990612b38565b80601f01602080910402602001604051908101604052809291908181526020018280546105a590612b38565b80156105f05780601f106105c7576101008083540402835291602001916105f0565b820191905f5260205f20905b8154815290600101906020018083116105d357829003601f168201915b5050505050815260200160028201805461060990612b38565b80601f016020809104026020016040519081016040528092919081815260200182805461063590612b38565b80156106805780601f1061065757610100808354040283529160200191610680565b820191905f5260205f20905b81548152906001019060200180831161066357829003601f168201915b50505050508152505082828151811061069c5761069b612b68565b5b6020026020010181905250808060010191505061051a565b50809650505050505050949350505050565b6106d08585611a00565b5f5f5f8781526020019081526020015f20905061070b8482600f015f8881526020019081526020015f20600301611a7b90919063ffffffff16565b5083816012015f8681526020019081526020015f205f018190555082816012015f8681526020019081526020015f2060010190816107499190612d35565b5081816012015f8681526020019081526020015f20600201908161076d9190612d35565b50806017015f81548092919061078290612e04565b9190505550505050505050565b60035481565b61079e84611a92565b5f5f5f8681526020019081526020015f20600c015f8581526020019081526020015f209050838160030181905550828160040181905550818160050181905550610803845f5f8881526020019081526020015f20600a01611a7b90919063ffffffff16565b505050505050565b60606108178585611a00565b5f5f5f8781526020019081526020015f2090505f81600f015f8781526020019081526020015f20905061084c81600301611a51565b8411156108655761085f81600301611a51565b93505f94505b5f84866108729190612a64565b90505f85826108819190612aa5565b905061088f83600301611a51565b8111156108a5576108a283600301611a51565b90505b5f82826108b29190612ad8565b90505f8167ffffffffffffffff8111156108cf576108ce61217a565b5b60405190808252806020026020018201604052801561090857816020015b6108f5611ed1565b8152602001906001900390816108ed5790505b5090505f5f90505b82811015610aaa57866012015f61093e838861092c9190612aa5565b89600301611a6490919063ffffffff16565b81526020019081526020015f206040518060600160405290815f820154815260200160018201805461096f90612b38565b80601f016020809104026020016040519081016040528092919081815260200182805461099b90612b38565b80156109e65780601f106109bd576101008083540402835291602001916109e6565b820191905f5260205f20905b8154815290600101906020018083116109c957829003601f168201915b505050505081526020016002820180546109ff90612b38565b80601f0160208091040260200160405190810160405280929190818152602001828054610a2b90612b38565b8015610a765780601f10610a4d57610100808354040283529160200191610a76565b820191905f5260205f20905b815481529060010190602001808311610a5957829003601f168201915b505050505081525050828281518110610a9257610a91612b68565b5b60200260200101819052508080600101915050610910565b50809650505050505050949350505050565b610ac7838383611adf565b5f5f5f8581526020019081526020015f209050610b028282600f015f8681526020019081526020015f20600301611b3490919063ffffffff16565b505f81601701541115610b2957806017015f815480929190610b2390612e4b565b91905055505b50505050565b610b398484611b4b565b5f5f5f8681526020019081526020015f2090508281600c015f8681526020019081526020015f205f016001019081610b719190612d35565b508181600c015f8681526020019081526020015f205f016002019081610b979190612d35565b505050505050565b610baa838383611b9c565b5f5f5f8581526020019081526020015f209050610be58282600f015f8681526020019081526020015f20600501611b3490919063ffffffff16565b5050505050565b5f5f5f5f8481526020019081526020015f20905082815f015f015414610c15575f915050610cea565b60025f9054906101000a900473ffffffffffffffffffffffffffffffffffffffff1673ffffffffffffffffffffffffffffffffffffffff163373ffffffffffffffffffffffffffffffffffffffff16148015610c85575060011515816013015f9054906101000a900460ff161515145b15610c94576001915050610cea565b3373ffffffffffffffffffffffffffffffffffffffff16816009015f9054906101000a900473ffffffffffffffffffffffffffffffffffffffff1673ffffffffffffffffffffffffffffffffffffffff16149150505b919050565b610cf887611a92565b5f5f5f8981526020019081526020015f209050610d25816018015482600d01611a7b90919063ffffffff16565b505f81600f015f836018015481526020019081526020015f2090508160180154815f015f018190555087815f016001019081610d619190612d35565b5086815f016002019081610d759190612d35565b505f5f90505b8651811015610dc257610db4878281518110610d9a57610d99612b68565b5b602002602001015183600301611a7b90919063ffffffff16565b508080600101915050610d7b565b505f5f90505b8551811015610e0f57610e01868281518110610de757610de6612b68565b5b602002602001015183600501611a7b90919063ffffffff16565b508080600101915050610dc8565b5083816007015f6101000a81548160ff021916908315150217905550828160070160016101000a81548160ff021916908315150217905550816018015f815480929190610e5b90612e04565b9190505550505050505050505050565b5f610e7583611a92565b5f5f5f8581526020019081526020015f209050806014015f8481526020019081526020015f205491505092915050565b6060610eb084611a92565b5f5f5f8681526020019081526020015f209050600354831115610ed65760035492505f93505b5f8385610ee39190612a64565b90505f8482610ef29190612aa5565b9050600354811115610f045760035490505b5f8282610f119190612ad8565b90505f8167ffffffffffffffff811115610f2e57610f2d61217a565b5b604051908082528060200260200182016040528015610f6757816020015b610f54611ed1565b815260200190600190039081610f4c5790505b5090505f5f90505b8281101561110557856015015f60015f8489610f8b9190612aa5565b81526020019081526020015f205481526020019081526020015f206040518060600160405290815f8201548152602001600182018054610fca90612b38565b80601f0160208091040260200160405190810160405280929190818152602001828054610ff690612b38565b80156110415780601f1061101857610100808354040283529160200191611041565b820191905f5260205f20905b81548152906001019060200180831161102457829003601f168201915b5050505050815260200160028201805461105a90612b38565b80601f016020809104026020016040519081016040528092919081815260200182805461108690612b38565b80156110d15780601f106110a8576101008083540402835291602001916110d1565b820191905f5260205f20905b8154815290600101906020018083116110b457829003601f168201915b5050505050815250508282815181106110ed576110ec612b68565b5b60200260200101819052508080600101915050610f6f565b5080955050505050509392505050565b60025f9054906101000a900473ffffffffffffffffffffffffffffffffffffffff1681565b6111448686611a00565b5f5f5f8881526020019081526020015f2090508481600f015f8881526020019081526020015f205f01600101908161117c9190612d35565b508381600f015f8881526020019081526020015f205f0160020190816111a29190612d35565b508281600f015f8881526020019081526020015f206007015f6101000a81548160ff0219169083151502179055508181600f015f8881526020019081526020015f2060070160016101000a81548160ff02191690831515021790555050505050505050565b611212858486611adf565b5f5f5f8781526020019081526020015f20905082816012015f8781526020019081526020015f2060010190816112489190612d35565b5081816012015f8781526020019081526020015f20600201908161126c9190612d35565b50505050505050565b61127f8383611a00565b5f5f5f8581526020019081526020015f2090506112ba8282600f015f8681526020019081526020015f20600501611a7b90919063ffffffff16565b5050505050565b5f5f5f8881526020019081526020015f20905085816013015f6101000a81548160ff02191690831515021790555082816009015f6101000a81548173ffffffffffffffffffffffffffffffffffffffff021916908373ffffffffffffffffffffffffffffffffffffffff16021790555086815f015f018190555084815f01600101908161134e9190612d35565b5083815f0160020190816113629190612d35565b508681600301600301819055506312cc03004261137f9190612aa5565b816003016004018190555081816003016005018190555050505050505050565b6113a98282611b4b565b5f5f5f8481526020019081526020015f2090506113d28282600a01611b3490919063ffffffff16565b50505050565b60606113e384611a92565b5f5f5f8681526020019081526020015f2090505f61140382600a01611a51565b905080841115611414578093505f94505b5f84866114219190612a64565b90505f85826114309190612aa5565b90508281111561143e578290505b5f828261144b9190612ad8565b67ffffffffffffffff8111156114645761146361217a565b5b60405190808252806020026020018201604052801561149d57816020015b61148a611ef1565b8152602001906001900390816114825790505b5090505f5f90505b848110156116705785600c015f6114d383876114c19190612aa5565b89600a01611a6490919063ffffffff16565b81526020019081526020015f206040518060800160405290815f82016040518060600160405290815f820154815260200160018201805461151390612b38565b80601f016020809104026020016040519081016040528092919081815260200182805461153f90612b38565b801561158a5780601f106115615761010080835404028352916020019161158a565b820191905f5260205f20905b81548152906001019060200180831161156d57829003601f168201915b505050505081526020016002820180546115a390612b38565b80601f01602080910402602001604051908101604052809291908181526020018280546115cf90612b38565b801561161a5780601f106115f15761010080835404028352916020019161161a565b820191905f5260205f20905b8154815290600101906020018083116115fd57829003601f168201915b5050505050815250508152602001600382015481526020016004820154815260200160058201548152505082828151811061165857611657612b68565b5b602002602001018190525080806001019150506114a5565b5080955050505050509392505050565b61168985611a92565b5f5f5f8781526020019081526020015f20905083816014015f8781526020019081526020015f208190555084816015015f8781526020019081526020015f205f018190555082816015015f8781526020019081526020015f2060010190816116f19190612d35565b5081816015015f8781526020019081526020015f2060020190816117159190612d35565b508460015f60035481526020019081526020015f2081905550806016015f81548092919061174290612e04565b919050555060035f81548092919061175990612e04565b9190505550505050505050565b606061177184611a92565b5f5f5f8681526020019081526020015f20905061179081600d01611a51565b8311156117a9576117a381600d01611a51565b92505f93505b5f83856117b69190612a64565b90505f84826117c59190612aa5565b90506117d383600d01611a51565b8111156117e9576117e683600d01611a51565b90505b5f82826117f69190612ad8565b90505f8167ffffffffffffffff8111156118135761181261217a565b5b60405190808252806020026020018201604052801561184c57816020015b611839611ed1565b8152602001906001900390816118315790505b5090505f5f90505b828110156119f05785600f015f61188283886118709190612aa5565b89600d01611a6490919063ffffffff16565b81526020019081526020015f205f016040518060600160405290815f82015481526020016001820180546118b590612b38565b80601f01602080910402602001604051908101604052809291908181526020018280546118e190612b38565b801561192c5780601f106119035761010080835404028352916020019161192c565b820191905f5260205f20905b81548152906001019060200180831161190f57829003601f168201915b5050505050815260200160028201805461194590612b38565b80601f016020809104026020016040519081016040528092919081815260200182805461197190612b38565b80156119bc5780601f10611993576101008083540402835291602001916119bc565b820191905f5260205f20905b81548152906001019060200180831161199f57829003601f168201915b5050505050815250508282815181106119d8576119d7612b68565b5b60200260200101819052508080600101915050611854565b5080955050505050509392505050565b611a0a8282611bf1565b611a4d5781816040517f931a85b3000000000000000000000000000000000000000000000000000000008152600401611a44929190612e72565b60405180910390fd5b5050565b5f611a5d825f01611c31565b9050919050565b5f611a71835f0183611c40565b5f1c905092915050565b5f611a8a835f01835f1b611c67565b905092915050565b611a9b81610bec565b611adc57806040517fd4a84737000000000000000000000000000000000000000000000000000000008152600401611ad3919061235c565b60405180910390fd5b50565b611aea838383611cce565b611b2f578282826040517fef25d02d000000000000000000000000000000000000000000000000000000008152600401611b2693929190612e99565b60405180910390fd5b505050565b5f611b43835f01835f1b611d19565b905092915050565b611b558282611e15565b611b985781816040517f748e712a000000000000000000000000000000000000000000000000000000008152600401611b8f929190612e72565b60405180910390fd5b5050565b611ba7838383611e4f565b611bec578282826040517f79167858000000000000000000000000000000000000000000000000000000008152600401611be393929190612e99565b60405180910390fd5b505050565b5f611bfb83611a92565b5f5f5f8581526020019081526020015f20600f015f8481526020019081526020015f20905082815f015f01541491505092915050565b5f815f01805490509050919050565b5f825f018281548110611c5657611c55612b68565b5b905f5260205f200154905092915050565b5f611c728383611e9a565b611cc457825f0182908060018154018082558091505060019003905f5260205f20015f9091909190915055825f0180549050836001015f8481526020019081526020015f208190555060019050611cc8565b5f90505b92915050565b5f611cd98484611a00565b611d10825f5f8781526020019081526020015f20600f015f8681526020019081526020015f20600301611eba90919063ffffffff16565b90509392505050565b5f5f836001015f8481526020019081526020015f205490505f8114611e0a575f600182611d469190612ad8565b90505f6001865f0180549050611d5c9190612ad8565b9050808214611dc2575f865f018281548110611d7b57611d7a612b68565b5b905f5260205f200154905080875f018481548110611d9c57611d9b612b68565b5b905f5260205f20018190555083876001015f8381526020019081526020015f2081905550505b855f01805480611dd557611dd4612ece565b5b600190038181905f5260205f20015f90559055856001015f8681526020019081526020015f205f905560019350505050611e0f565b5f9150505b92915050565b5f611e1f83611a92565b815f5f8581526020019081526020015f20600c015f8481526020019081526020015f206003015414905092915050565b5f611e5a8484611a00565b611e91825f5f8781526020019081526020015f20600f015f8681526020019081526020015f20600501611eba90919063ffffffff16565b90509392505050565b5f5f836001015f8481526020019081526020015f20541415905092915050565b5f611ec9835f01835f1b611e9a565b905092915050565b60405180606001604052805f815260200160608152602001606081525090565b6040518060800160405280611f04611ed1565b81526020015f81526020015f81526020015f81525090565b5f604051905090565b5f5ffd5b5f5ffd5b5f819050919050565b611f3f81611f2d565b8114611f49575f5ffd5b50565b5f81359050611f5a81611f36565b92915050565b5f5f5f5f60808587031215611f7857611f77611f25565b5b5f611f8587828801611f4c565b9450506020611f9687828801611f4c565b9350506040611fa787828801611f4c565b9250506060611fb887828801611f4c565b91505092959194509250565b5f81519050919050565b5f82825260208201905092915050565b5f819050602082019050919050565b611ff681611f2d565b82525050565b5f81519050919050565b5f82825260208201905092915050565b8281835e5f83830152505050565b5f601f19601f8301169050919050565b5f61203e82611ffc565b6120488185612006565b9350612058818560208601612016565b61206181612024565b840191505092915050565b5f606083015f8301516120815f860182611fed565b50602083015184820360208601526120998282612034565b915050604083015184820360408601526120b38282612034565b9150508091505092915050565b5f6120cb838361206c565b905092915050565b5f602082019050919050565b5f6120e982611fc4565b6120f38185611fce565b93508360208202850161210585611fde565b805f5b85811015612140578484038952815161212185826120c0565b945061212c836120d3565b925060208a01995050600181019050612108565b50829750879550505050505092915050565b5f6020820190508181035f83015261216a81846120df565b905092915050565b5f5ffd5b5f5ffd5b7f4e487b71000000000000000000000000000000000000000000000000000000005f52604160045260245ffd5b6121b082612024565b810181811067ffffffffffffffff821117156121cf576121ce61217a565b5b80604052505050565b5f6121e1611f1c565b90506121ed82826121a7565b919050565b5f67ffffffffffffffff82111561220c5761220b61217a565b5b61221582612024565b9050602081019050919050565b828183375f83830152505050565b5f61224261223d846121f2565b6121d8565b90508281526020810184848401111561225e5761225d612176565b5b612269848285612222565b509392505050565b5f82601f83011261228557612284612172565b5b8135612295848260208601612230565b91505092915050565b5f5f5f5f5f60a086880312156122b7576122b6611f25565b5b5f6122c488828901611f4c565b95505060206122d588828901611f4c565b94505060406122e688828901611f4c565b935050606086013567ffffffffffffffff81111561230757612306611f29565b5b61231388828901612271565b925050608086013567ffffffffffffffff81111561233457612333611f29565b5b61234088828901612271565b9150509295509295909350565b61235681611f2d565b82525050565b5f60208201905061236f5f83018461234d565b92915050565b5f5f5f6060848603121561238c5761238b611f25565b5b5f61239986828701611f4c565b93505060206123aa86828701611f4c565b92505060406123bb86828701611f4c565b9150509250925092565b5f5f5f5f608085870312156123dd576123dc611f25565b5b5f6123ea87828801611f4c565b94505060206123fb87828801611f4c565b935050604085013567ffffffffffffffff81111561241c5761241b611f29565b5b61242887828801612271565b925050606085013567ffffffffffffffff81111561244957612448611f29565b5b61245587828801612271565b91505092959194509250565b5f6020828403121561247657612475611f25565b5b5f61248384828501611f4c565b91505092915050565b5f8115159050919050565b6124a08161248c565b82525050565b5f6020820190506124b95f830184612497565b92915050565b5f67ffffffffffffffff8211156124d9576124d861217a565b5b602082029050602081019050919050565b5f5ffd5b5f6125006124fb846124bf565b6121d8565b90508083825260208201905060208402830185811115612523576125226124ea565b5b835b8181101561254c57806125388882611f4c565b845260208401935050602081019050612525565b5050509392505050565b5f82601f83011261256a57612569612172565b5b813561257a8482602086016124ee565b91505092915050565b61258c8161248c565b8114612596575f5ffd5b50565b5f813590506125a781612583565b92915050565b5f5f5f5f5f5f5f60e0888a0312156125c8576125c7611f25565b5b5f6125d58a828b01611f4c565b975050602088013567ffffffffffffffff8111156125f6576125f5611f29565b5b6126028a828b01612271565b965050604088013567ffffffffffffffff81111561262357612622611f29565b5b61262f8a828b01612271565b955050606088013567ffffffffffffffff8111156126505761264f611f29565b5b61265c8a828b01612556565b945050608088013567ffffffffffffffff81111561267d5761267c611f29565b5b6126898a828b01612556565b93505060a061269a8a828b01612599565b92505060c06126ab8a828b01612599565b91505092959891949750929550565b5f5f604083850312156126d0576126cf611f25565b5b5f6126dd85828601611f4c565b92505060206126ee85828601611f4c565b9150509250929050565b5f73ffffffffffffffffffffffffffffffffffffffff82169050919050565b5f612721826126f8565b9050919050565b61273181612717565b82525050565b5f60208201905061274a5f830184612728565b92915050565b5f5f5f5f5f5f60c0878903121561276a57612769611f25565b5b5f61277789828a01611f4c565b965050602061278889828a01611f4c565b955050604087013567ffffffffffffffff8111156127a9576127a8611f29565b5b6127b589828a01612271565b945050606087013567ffffffffffffffff8111156127d6576127d5611f29565b5b6127e289828a01612271565b93505060806127f389828a01612599565b92505060a061280489828a01612599565b9150509295509295509295565b61281a81612717565b8114612824575f5ffd5b50565b5f8135905061283581612811565b92915050565b5f5f5f5f5f5f60c0878903121561285557612854611f25565b5b5f61286289828a01611f4c565b965050602061287389828a01612599565b955050604087013567ffffffffffffffff81111561289457612893611f29565b5b6128a089828a01612271565b945050606087013567ffffffffffffffff8111156128c1576128c0611f29565b5b6128cd89828a01612271565b93505060806128de89828a01612827565b92505060a06128ef89828a01611f4c565b9150509295509295509295565b5f81519050919050565b5f82825260208201905092915050565b5f819050602082019050919050565b5f608083015f8301518482035f86015261293f828261206c565b91505060208301516129546020860182611fed565b5060408301516129676040860182611fed565b50606083015161297a6060860182611fed565b508091505092915050565b5f6129908383612925565b905092915050565b5f602082019050919050565b5f6129ae826128fc565b6129b88185612906565b9350836020820285016129ca85612916565b805f5b85811015612a0557848403895281516129e68582612985565b94506129f183612998565b925060208a019950506001810190506129cd565b50829750879550505050505092915050565b5f6020820190508181035f830152612a2f81846129a4565b905092915050565b7f4e487b71000000000000000000000000000000000000000000000000000000005f52601160045260245ffd5b5f612a6e82611f2d565b9150612a7983611f2d565b9250828202612a8781611f2d565b91508282048414831517612a9e57612a9d612a37565b5b5092915050565b5f612aaf82611f2d565b9150612aba83611f2d565b9250828201905080821115612ad257612ad1612a37565b5b92915050565b5f612ae282611f2d565b9150612aed83611f2d565b9250828203905081811115612b0557612b04612a37565b5b92915050565b7f4e487b71000000000000000000000000000000000000000000000000000000005f52602260045260245ffd5b5f6002820490506001821680612b4f57607f821691505b602082108103612b6257612b61612b0b565b5b50919050565b7f4e487b71000000000000000000000000000000000000000000000000000000005f52603260045260245ffd5b5f819050815f5260205f209050919050565b5f6020601f8301049050919050565b5f82821b905092915050565b5f60088302612bf17fffffffffffffffffffffffffffffffffffffffffffffffffffffffffffffffff82612bb6565b612bfb8683612bb6565b95508019841693508086168417925050509392505050565b5f819050919050565b5f612c36612c31612c2c84611f2d565b612c13565b611f2d565b9050919050565b5f819050919050565b612c4f83612c1c565b612c63612c5b82612c3d565b848454612bc2565b825550505050565b5f5f905090565b612c7a612c6b565b612c85818484612c46565b505050565b5b81811015612ca857612c9d5f82612c72565b600181019050612c8b565b5050565b601f821115612ced57612cbe81612b95565b612cc784612ba7565b81016020851015612cd6578190505b612cea612ce285612ba7565b830182612c8a565b50505b505050565b5f82821c905092915050565b5f612d0d5f1984600802612cf2565b1980831691505092915050565b5f612d258383612cfe565b9150826002028217905092915050565b612d3e82611ffc565b67ffffffffffffffff811115612d5757612d5661217a565b5b612d618254612b38565b612d6c828285612cac565b5f60209050601f831160018114612d9d575f8415612d8b578287015190505b612d958582612d1a565b865550612dfc565b601f198416612dab86612b95565b5f5b82811015612dd257848901518255600182019150602085019450602081019050612dad565b86831015612def5784890151612deb601f891682612cfe565b8355505b6001600288020188555050505b505050505050565b5f612e0e82611f2d565b91507fffffffffffffffffffffffffffffffffffffffffffffffffffffffffffffffff8203612e4057612e3f612a37565b5b600182019050919050565b5f612e5582611f2d565b91505f8203612e6757612e66612a37565b5b600182039050919050565b5f604082019050612e855f83018561234d565b612e92602083018461234d565b9392505050565b5f606082019050612eac5f83018661234d565b612eb9602083018561234d565b612ec6604083018461234d565b949350505050565b7f4e487b71000000000000000000000000000000000000000000000000000000005f52603160045260245ffdfea2646970667358221220c05ef7793b7a00212752b614f8eb58fb401919c5d2ff91bd18427a206cd4b0c364736f6c634300081c0033",
  "linkReferences": {},
  "deployedLinkReferences": {},
  "immutableReferences": {},
  "inputSourceName": "project/contracts/AccountConfig.sol",
  "buildInfoId": "solc-0_8_28-02ae287f3aa647df39c56dcdd3cd88a7a28102c1"
}