{
  "_format": "hh3-artifact-1",
  "contractName": "AccountConfig",
  "sourceName": "contracts/AccountConfig.sol",
  "abi": [
    {
      "inputs": [],
      "stateMutability": "nonpayable",
      "type": "constructor"
    },
    {
      "inputs": [
        {
          "internalType": "uint256",
          "name": "apiKey",
          "type": "uint256"
        }
      ],
      "name": "AccountDoesNotExist",
      "type": "error"
    },
    {
      "inputs": [
        {
          "internalType": "uint256",
          "name": "apiKey",
          "type": "uint256"
        },
        {
          "internalType": "uint256",
          "name": "groupId",
          "type": "uint256"
        },
        {
          "internalType": "uint256",
          "name": "action",
          "type": "uint256"
        }
      ],
      "name": "ActionDoesNotExist",
      "type": "error"
    },
    {
      "inputs": [
        {
          "internalType": "uint256",
          "name": "apiKey",
          "type": "uint256"
        },
        {
          "internalType": "uint256",
          "name": "groupId",
          "type": "uint256"
        }
      ],
      "name": "GroupDoesNotExist",
      "type": "error"
    },
    {
      "inputs": [
        {
          "internalType": "uint256",
          "name": "apiKey",
          "type": "uint256"
        },
        {
          "internalType": "uint256",
          "name": "usageApiKey",
          "type": "uint256"
        }
      ],
      "name": "UsageApiKeyDoesNotExist",
      "type": "error"
    },
    {
      "inputs": [
        {
          "internalType": "uint256",
          "name": "apiKey",
          "type": "uint256"
        },
        {
          "internalType": "uint256",
          "name": "groupId",
          "type": "uint256"
        },
        {
          "internalType": "uint256",
          "name": "Wallet",
          "type": "uint256"
        }
      ],
      "name": "WalletDoesNotExist",
      "type": "error"
    },
    {
      "inputs": [
        {
          "internalType": "uint256",
          "name": "apiKeyHash",
          "type": "uint256"
        }
      ],
      "name": "accountExistsAndIsMutable",
      "outputs": [
        {
          "internalType": "bool",
          "name": "",
          "type": "bool"
        }
      ],
      "stateMutability": "view",
      "type": "function"
    },
    {
      "inputs": [
        {
          "internalType": "uint256",
          "name": "accountApiKeyHash",
          "type": "uint256"
        },
        {
          "internalType": "uint256",
          "name": "groupId",
          "type": "uint256"
        },
        {
          "internalType": "uint256",
          "name": "action",
          "type": "uint256"
        },
        {
          "internalType": "string",
          "name": "name",
          "type": "string"
        },
        {
          "internalType": "string",
          "name": "description",
          "type": "string"
        }
      ],
      "name": "addActionToGroup",
      "outputs": [],
      "stateMutability": "nonpayable",
      "type": "function"
    },
    {
      "inputs": [
        {
          "internalType": "uint256",
          "name": "accountApiKeyHash",
          "type": "uint256"
        },
        {
          "internalType": "uint256",
          "name": "usageApiKeyHash",
          "type": "uint256"
        },
        {
          "internalType": "uint256",
          "name": "expiration",
          "type": "uint256"
        },
        {
          "internalType": "uint256",
          "name": "balance",
          "type": "uint256"
        }
      ],
      "name": "addApiKey",
      "outputs": [],
      "stateMutability": "nonpayable",
      "type": "function"
    },
    {
      "inputs": [
        {
          "internalType": "uint256",
          "name": "accountApiKeyHash",
          "type": "uint256"
        },
        {
          "internalType": "string",
          "name": "name",
          "type": "string"
        },
        {
          "internalType": "string",
          "name": "description",
          "type": "string"
        },
        {
          "internalType": "uint256[]",
          "name": "permitted_actions",
          "type": "uint256[]"
        },
        {
          "internalType": "uint256[]",
          "name": "Wallets",
          "type": "uint256[]"
        },
        {
          "internalType": "bool",
          "name": "all_wallets_permitted",
          "type": "bool"
        },
        {
          "internalType": "bool",
          "name": "all_actions_permitted",
          "type": "bool"
        }
      ],
      "name": "addGroup",
      "outputs": [],
      "stateMutability": "nonpayable",
      "type": "function"
    },
    {
      "inputs": [
        {
          "internalType": "uint256",
          "name": "accountApiKeyHash",
          "type": "uint256"
        },
        {
          "internalType": "uint256",
          "name": "groupId",
          "type": "uint256"
        },
        {
          "internalType": "uint256",
          "name": "walletAddressHash",
          "type": "uint256"
        }
      ],
      "name": "addWalletToGroup",
      "outputs": [],
      "stateMutability": "nonpayable",
      "type": "function"
    },
    {
      "inputs": [
        {
          "internalType": "uint256",
          "name": "accountApiKeyHash",
          "type": "uint256"
        },
        {
          "internalType": "uint256",
          "name": "walletAddressHash",
          "type": "uint256"
        }
      ],
      "name": "getWalletDerivation",
      "outputs": [
        {
          "internalType": "uint256",
          "name": "",
          "type": "uint256"
        }
      ],
      "stateMutability": "view",
      "type": "function"
    },
    {
      "inputs": [
        {
          "internalType": "uint256",
          "name": "accountApiKeyHash",
          "type": "uint256"
        },
        {
          "internalType": "uint256",
          "name": "groupId",
          "type": "uint256"
        },
        {
          "internalType": "uint256",
          "name": "pageNumber",
          "type": "uint256"
        },
        {
          "internalType": "uint256",
          "name": "pageSize",
          "type": "uint256"
        }
      ],
      "name": "listActions",
      "outputs": [
        {
          "components": [
            {
              "internalType": "uint256",
              "name": "id",
              "type": "uint256"
            },
            {
              "internalType": "string",
              "name": "name",
              "type": "string"
            },
            {
              "internalType": "string",
              "name": "description",
              "type": "string"
            }
          ],
          "internalType": "struct AccountConfig.Metadata[]",
          "name": "",
          "type": "tuple[]"
        }
      ],
      "stateMutability": "view",
      "type": "function"
    },
    {
      "inputs": [
        {
          "internalType": "uint256",
          "name": "accountApiKeyHash",
          "type": "uint256"
        },
        {
          "internalType": "uint256",
          "name": "pageNumber",
          "type": "uint256"
        },
        {
          "internalType": "uint256",
          "name": "pageSize",
          "type": "uint256"
        }
      ],
      "name": "listApiKeys",
      "outputs": [
        {
          "components": [
            {
              "components": [
                {
                  "internalType": "uint256",
                  "name": "id",
                  "type": "uint256"
                },
                {
                  "internalType": "string",
                  "name": "name",
                  "type": "string"
                },
                {
                  "internalType": "string",
                  "name": "description",
                  "type": "string"
                }
              ],
              "internalType": "struct AccountConfig.Metadata",
              "name": "metadata",
              "type": "tuple"
            },
            {
              "internalType": "uint256",
              "name": "apiKeyHash",
              "type": "uint256"
            },
            {
              "internalType": "uint256",
              "name": "expiration",
              "type": "uint256"
            },
            {
              "internalType": "uint256",
              "name": "balance",
              "type": "uint256"
            }
          ],
          "internalType": "struct AccountConfig.UsageApiKey[]",
          "name": "",
          "type": "tuple[]"
        }
      ],
      "stateMutability": "view",
      "type": "function"
    },
    {
      "inputs": [
        {
          "internalType": "uint256",
          "name": "accountApiKeyHash",
          "type": "uint256"
        },
        {
          "internalType": "uint256",
          "name": "pageNumber",
          "type": "uint256"
        },
        {
          "internalType": "uint256",
          "name": "pageSize",
          "type": "uint256"
        }
      ],
      "name": "listGroups",
      "outputs": [
        {
          "components": [
            {
              "internalType": "uint256",
              "name": "id",
              "type": "uint256"
            },
            {
              "internalType": "string",
              "name": "name",
              "type": "string"
            },
            {
              "internalType": "string",
              "name": "description",
              "type": "string"
            }
          ],
          "internalType": "struct AccountConfig.Metadata[]",
          "name": "",
          "type": "tuple[]"
        }
      ],
      "stateMutability": "view",
      "type": "function"
    },
    {
      "inputs": [
        {
          "internalType": "uint256",
          "name": "accountApiKeyHash",
          "type": "uint256"
        },
        {
          "internalType": "uint256",
          "name": "pageNumber",
          "type": "uint256"
        },
        {
          "internalType": "uint256",
          "name": "pageSize",
          "type": "uint256"
        }
      ],
      "name": "listWallets",
      "outputs": [
        {
          "components": [
            {
              "internalType": "uint256",
              "name": "id",
              "type": "uint256"
            },
            {
              "internalType": "string",
              "name": "name",
              "type": "string"
            },
            {
              "internalType": "string",
              "name": "description",
              "type": "string"
            }
          ],
          "internalType": "struct AccountConfig.Metadata[]",
          "name": "",
          "type": "tuple[]"
        }
      ],
      "stateMutability": "view",
      "type": "function"
    },
    {
      "inputs": [
        {
          "internalType": "uint256",
          "name": "accountApiKeyHash",
          "type": "uint256"
        },
        {
          "internalType": "uint256",
          "name": "groupId",
          "type": "uint256"
        },
        {
          "internalType": "uint256",
          "name": "pageNumber",
          "type": "uint256"
        },
        {
          "internalType": "uint256",
          "name": "pageSize",
          "type": "uint256"
        }
      ],
      "name": "listWalletsInGroup",
      "outputs": [
        {
          "components": [
            {
              "internalType": "uint256",
              "name": "id",
              "type": "uint256"
            },
            {
              "internalType": "string",
              "name": "name",
              "type": "string"
            },
            {
              "internalType": "string",
              "name": "description",
              "type": "string"
            }
          ],
          "internalType": "struct AccountConfig.Metadata[]",
          "name": "",
          "type": "tuple[]"
        }
      ],
      "stateMutability": "view",
      "type": "function"
    },
    {
      "inputs": [
        {
          "internalType": "uint256",
          "name": "apiKeyHash",
          "type": "uint256"
        },
        {
          "internalType": "bool",
          "name": "managed",
          "type": "bool"
        },
        {
          "internalType": "string",
          "name": "accountName",
          "type": "string"
        },
        {
          "internalType": "string",
          "name": "accountDescription",
          "type": "string"
        },
        {
          "internalType": "address",
          "name": "creatorWalletAddress",
          "type": "address"
        },
        {
          "internalType": "uint256",
          "name": "initialBalance",
          "type": "uint256"
        }
      ],
      "name": "newAccount",
      "outputs": [],
      "stateMutability": "nonpayable",
      "type": "function"
    },
    {
      "inputs": [],
      "name": "nextWalletCount",
      "outputs": [
        {
          "internalType": "uint256",
          "name": "",
          "type": "uint256"
        }
      ],
      "stateMutability": "view",
      "type": "function"
    },
    {
      "inputs": [],
      "name": "owner",
      "outputs": [
        {
          "internalType": "address",
          "name": "",
          "type": "address"
        }
      ],
      "stateMutability": "view",
      "type": "function"
    },
    {
      "inputs": [
        {
          "internalType": "uint256",
          "name": "accountApiKeyHash",
          "type": "uint256"
        },
        {
          "internalType": "uint256",
          "name": "walletAddressHash",
          "type": "uint256"
        },
        {
          "internalType": "uint256",
          "name": "derivationPath",
          "type": "uint256"
        },
        {
          "internalType": "string",
          "name": "name",
          "type": "string"
        },
        {
          "internalType": "string",
          "name": "description",
          "type": "string"
        }
      ],
      "name": "registerWalletDerivation",
      "outputs": [],
      "stateMutability": "nonpayable",
      "type": "function"
    },
    {
      "inputs": [
        {
          "internalType": "uint256",
          "name": "accountApiKeyHash",
          "type": "uint256"
        },
        {
          "internalType": "uint256",
          "name": "groupId",
          "type": "uint256"
        },
        {
          "internalType": "uint256",
          "name": "action",
          "type": "uint256"
        }
      ],
      "name": "removeActionFromGroup",
      "outputs": [],
      "stateMutability": "nonpayable",
      "type": "function"
    },
    {
      "inputs": [
        {
          "internalType": "uint256",
          "name": "accountApiKeyHash",
          "type": "uint256"
        },
        {
          "internalType": "uint256",
          "name": "usageApiKeyHash",
          "type": "uint256"
        }
      ],
      "name": "removeUsageApiKey",
      "outputs": [],
      "stateMutability": "nonpayable",
      "type": "function"
    },
    {
      "inputs": [
        {
          "internalType": "uint256",
          "name": "accountApiKeyHash",
          "type": "uint256"
        },
        {
          "internalType": "uint256",
          "name": "groupId",
          "type": "uint256"
        },
        {
          "internalType": "uint256",
          "name": "walletAddressHash",
          "type": "uint256"
        }
      ],
      "name": "removeWalletFromGroup",
      "outputs": [],
      "stateMutability": "nonpayable",
      "type": "function"
    },
    {
      "inputs": [
        {
          "internalType": "uint256",
          "name": "accountApiKeyHash",
          "type": "uint256"
        },
        {
          "internalType": "uint256",
          "name": "actionHash",
          "type": "uint256"
        },
        {
          "internalType": "uint256",
          "name": "groupId",
          "type": "uint256"
        },
        {
          "internalType": "string",
          "name": "name",
          "type": "string"
        },
        {
          "internalType": "string",
          "name": "description",
          "type": "string"
        }
      ],
      "name": "updateActionMetadata",
      "outputs": [],
      "stateMutability": "nonpayable",
      "type": "function"
    },
    {
      "inputs": [
        {
          "internalType": "uint256",
          "name": "accountApiKeyHash",
          "type": "uint256"
        },
        {
          "internalType": "uint256",
          "name": "groupId",
          "type": "uint256"
        },
        {
          "internalType": "string",
          "name": "name",
          "type": "string"
        },
        {
          "internalType": "string",
          "name": "description",
          "type": "string"
        },
        {
          "internalType": "bool",
          "name": "all_wallets_permitted",
          "type": "bool"
        },
        {
          "internalType": "bool",
          "name": "all_actions_permitted",
          "type": "bool"
        }
      ],
      "name": "updateGroup",
      "outputs": [],
      "stateMutability": "nonpayable",
      "type": "function"
    },
    {
      "inputs": [
        {
          "internalType": "uint256",
          "name": "accountApiKeyHash",
          "type": "uint256"
        },
        {
          "internalType": "uint256",
          "name": "usageApiKeyHash",
          "type": "uint256"
        },
        {
          "internalType": "string",
          "name": "name",
          "type": "string"
        },
        {
          "internalType": "string",
          "name": "description",
          "type": "string"
        }
      ],
      "name": "updateUsageApiKeyMetadata",
      "outputs": [],
      "stateMutability": "nonpayable",
      "type": "function"
    }
  ],
  "bytecode": "0x6080604052348015600e575f5ffd5b503360025f6101000a81548173ffffffffffffffffffffffffffffffffffffffff021916908373ffffffffffffffffffffffffffffffffffffffff1602179055506001600381905550612f57806100645f395ff3fe608060405234801561000f575f5ffd5b5060043610610135575f3560e01c806379b8e691116100b6578063bac710ea1161007a578063bac710ea14610345578063bd9aed5114610361578063c5f5b9841461037d578063c704668c14610399578063dbb17a0b146103c9578063f75c8b2d146103e557610135565b806379b8e6911461028f5780637af361ef146102bf5780638da5cb5b146102ef57806396a7cc541461030d578063a6b6b6721461032957610135565b80635d861c72116100fd5780635d861c72146101ef5780636a3d77a91461020b5780636e06ac9c14610227578063719fac4314610243578063749e4d071461027357610135565b8063291ff1ea146101395780632fa92e41146101695780634705161e1461018557806349717935146101a3578063542970ed146101bf575b5f5ffd5b610153600480360381019061014e9190611f86565b610415565b6040516101609190612178565b60405180910390f35b610183600480360381019061017e91906122c4565b6106c6565b005b61018d61078f565b60405161019a9190612382565b60405180910390f35b6101bd60048036038101906101b89190611f86565b610795565b005b6101d960048036038101906101d49190611f86565b61080b565b6040516101e69190612178565b60405180910390f35b6102096004803603810190610204919061239b565b610abc565b005b610225600480360381019061022091906123eb565b610b2f565b005b610241600480360381019061023c919061239b565b610b9f565b005b61025d60048036038101906102589190612487565b610bec565b60405161026a91906124cc565b60405180910390f35b61028d600480360381019061028891906125d3565b610cef565b005b6102a960048036038101906102a491906126e0565b610e6b565b6040516102b69190612382565b60405180910390f35b6102d960048036038101906102d4919061239b565b610ea5565b6040516102e69190612178565b60405180910390f35b6102f761111f565b604051610304919061275d565b60405180910390f35b61032760048036038101906103229190612776565b611144565b005b610343600480360381019061033e91906122c4565b611211565b005b61035f600480360381019061035a919061239b565b61127f565b005b61037b60048036038101906103769190612861565b6112cb565b005b610397600480360381019061039291906126e0565b6113a9565b005b6103b360048036038101906103ae919061239b565b6113e2565b6040516103c09190612a3d565b60405180910390f35b6103e360048036038101906103de91906122c4565b61168a565b005b6103ff60048036038101906103fa919061239b565b61178c565b60405161040c9190612178565b60405180910390f35b60606104218585611a26565b5f5f5f8781526020019081526020015f2090505f81600f015f8781526020019081526020015f20905061045681600501611a77565b84111561046f5761046981600501611a77565b93505f94505b5f848661047c9190612a8a565b90505f858261048b9190612acb565b905061049983600501611a77565b8111156104af576104ac83600501611a77565b90505b5f82826104bc9190612afe565b90505f8167ffffffffffffffff8111156104d9576104d86121a0565b5b60405190808252806020026020018201604052801561051257816020015b6104ff611ef7565b8152602001906001900390816104f75790505b5090505f5f90505b828110156106b457866016015f61054883886105369190612acb565b89600501611a8a90919063ffffffff16565b81526020019081526020015f206040518060600160405290815f820154815260200160018201805461057990612b5e565b80601f01602080910402602001604051908101604052809291908181526020018280546105a590612b5e565b80156105f05780601f106105c7576101008083540402835291602001916105f0565b820191905f5260205f20905b8154815290600101906020018083116105d357829003601f168201915b5050505050815260200160028201805461060990612b5e565b80601f016020809104026020016040519081016040528092919081815260200182805461063590612b5e565b80156106805780601f1061065757610100808354040283529160200191610680565b820191905f5260205f20905b81548152906001019060200180831161066357829003601f168201915b50505050508152505082828151811061069c5761069b612b8e565b5b6020026020010181905250808060010191505061051a565b50809650505050505050949350505050565b6106d08585611a26565b5f5f5f8781526020019081526020015f20905061070b8482600f015f8881526020019081526020015f20600301611aa190919063ffffffff16565b5083816012015f8681526020019081526020015f205f018190555082816012015f8681526020019081526020015f2060010190816107499190612d5b565b5081816012015f8681526020019081526020015f20600201908161076d9190612d5b565b50806018015f81548092919061078290612e2a565b9190505550505050505050565b60035481565b61079e84611ab8565b5f5f5f8681526020019081526020015f20600c015f8581526020019081526020015f209050838160030181905550828160040181905550818160050181905550610803845f5f8881526020019081526020015f20600a01611aa190919063ffffffff16565b505050505050565b60606108178585611a26565b5f5f5f8781526020019081526020015f2090505f81600f015f8781526020019081526020015f20905061084c81600301611a77565b8411156108655761085f81600301611a77565b93505f94505b5f84866108729190612a8a565b90505f85826108819190612acb565b905061088f83600301611a77565b8111156108a5576108a283600301611a77565b90505b5f82826108b29190612afe565b90505f8167ffffffffffffffff8111156108cf576108ce6121a0565b5b60405190808252806020026020018201604052801561090857816020015b6108f5611ef7565b8152602001906001900390816108ed5790505b5090505f5f90505b82811015610aaa57866012015f61093e838861092c9190612acb565b89600301611a8a90919063ffffffff16565b81526020019081526020015f206040518060600160405290815f820154815260200160018201805461096f90612b5e565b80601f016020809104026020016040519081016040528092919081815260200182805461099b90612b5e565b80156109e65780601f106109bd576101008083540402835291602001916109e6565b820191905f5260205f20905b8154815290600101906020018083116109c957829003601f168201915b505050505081526020016002820180546109ff90612b5e565b80601f0160208091040260200160405190810160405280929190818152602001828054610a2b90612b5e565b8015610a765780601f10610a4d57610100808354040283529160200191610a76565b820191905f5260205f20905b815481529060010190602001808311610a5957829003601f168201915b505050505081525050828281518110610a9257610a91612b8e565b5b60200260200101819052508080600101915050610910565b50809650505050505050949350505050565b610ac7838383611b05565b5f5f5f8581526020019081526020015f209050610b028282600f015f8681526020019081526020015f20600301611b5a90919063ffffffff16565b505f81601801541115610b2957806018015f815480929190610b2390612e71565b91905055505b50505050565b610b398484611b71565b5f5f5f8681526020019081526020015f2090508281600c015f8681526020019081526020015f205f016001019081610b719190612d5b565b508181600c015f8681526020019081526020015f205f016002019081610b979190612d5b565b505050505050565b610baa838383611bc2565b5f5f5f8581526020019081526020015f209050610be58282600f015f8681526020019081526020015f20600501611b5a90919063ffffffff16565b5050505050565b5f5f5f5f8481526020019081526020015f20905082815f015f015414610c15575f915050610cea565b60025f9054906101000a900473ffffffffffffffffffffffffffffffffffffffff1673ffffffffffffffffffffffffffffffffffffffff163373ffffffffffffffffffffffffffffffffffffffff16148015610c85575060011515816013015f9054906101000a900460ff161515145b15610c94576001915050610cea565b3373ffffffffffffffffffffffffffffffffffffffff16816009015f9054906101000a900473ffffffffffffffffffffffffffffffffffffffff1673ffffffffffffffffffffffffffffffffffffffff16149150505b919050565b610cf887611ab8565b5f5f5f8981526020019081526020015f209050610d25816019015482600d01611aa190919063ffffffff16565b505f81600f015f836019015481526020019081526020015f2090508160190154815f015f018190555087815f016001019081610d619190612d5b565b5086815f016002019081610d759190612d5b565b505f5f90505b8651811015610dc257610db4878281518110610d9a57610d99612b8e565b5b602002602001015183600301611aa190919063ffffffff16565b508080600101915050610d7b565b505f5f90505b8551811015610e0f57610e01868281518110610de757610de6612b8e565b5b602002602001015183600501611aa190919063ffffffff16565b508080600101915050610dc8565b5083816007015f6101000a81548160ff021916908315150217905550828160070160016101000a81548160ff021916908315150217905550816019015f815480929190610e5b90612e2a565b9190505550505050505050505050565b5f610e7583611ab8565b5f5f5f8581526020019081526020015f209050806015015f8481526020019081526020015f205491505092915050565b6060610eb084611ab8565b5f5f5f8681526020019081526020015f2090508060170154831115610eda57806017015492505f93505b5f8385610ee79190612a8a565b90505f8482610ef69190612acb565b90508260170154811115610f0c57826017015490505b5f8282610f199190612afe565b90505f8167ffffffffffffffff811115610f3657610f356121a0565b5b604051908082528060200260200182016040528015610f6f57816020015b610f5c611ef7565b815260200190600190039081610f545790505b5090505f5f90505b8281101561110f57856016015f876014015f8489610f959190612acb565b81526020019081526020015f205481526020019081526020015f206040518060600160405290815f8201548152602001600182018054610fd490612b5e565b80601f016020809104026020016040519081016040528092919081815260200182805461100090612b5e565b801561104b5780601f106110225761010080835404028352916020019161104b565b820191905f5260205f20905b81548152906001019060200180831161102e57829003601f168201915b5050505050815260200160028201805461106490612b5e565b80601f016020809104026020016040519081016040528092919081815260200182805461109090612b5e565b80156110db5780601f106110b2576101008083540402835291602001916110db565b820191905f5260205f20905b8154815290600101906020018083116110be57829003601f168201915b5050505050815250508282815181106110f7576110f6612b8e565b5b60200260200101819052508080600101915050610f77565b5080955050505050509392505050565b60025f9054906101000a900473ffffffffffffffffffffffffffffffffffffffff1681565b61114e8686611a26565b5f5f5f8881526020019081526020015f2090508481600f015f8881526020019081526020015f205f0160010190816111869190612d5b565b508381600f015f8881526020019081526020015f205f0160020190816111ac9190612d5b565b508281600f015f8881526020019081526020015f206007015f6101000a81548160ff0219169083151502179055508181600f015f8881526020019081526020015f2060070160016101000a81548160ff02191690831515021790555050505050505050565b61121c858486611b05565b5f5f5f8781526020019081526020015f20905082816012015f8781526020019081526020015f2060010190816112529190612d5b565b5081816012015f8781526020019081526020015f2060020190816112769190612d5b565b50505050505050565b6112898383611a26565b5f5f5f8581526020019081526020015f2090506112c48282600f015f8681526020019081526020015f20600501611aa190919063ffffffff16565b5050505050565b5f5f5f8881526020019081526020015f20905085816013015f6101000a81548160ff02191690831515021790555082816009015f6101000a81548173ffffffffffffffffffffffffffffffffffffffff021916908373ffffffffffffffffffffffffffffffffffffffff16021790555086815f015f018190555084815f0160010190816113589190612d5b565b5083815f01600201908161136c9190612d5b565b508681600301600301819055506312cc0300426113899190612acb565b816003016004018190555081816003016005018190555050505050505050565b6113b38282611b71565b5f5f5f8481526020019081526020015f2090506113dc8282600a01611b5a90919063ffffffff16565b50505050565b60606113ed84611ab8565b5f5f5f8681526020019081526020015f2090505f61140d82600a01611a77565b90508084111561141e578093505f94505b5f848661142b9190612a8a565b90505f858261143a9190612acb565b905082811115611448578290505b5f82826114559190612afe565b67ffffffffffffffff81111561146e5761146d6121a0565b5b6040519080825280602002602001820160405280156114a757816020015b611494611f17565b81526020019060019003908161148c5790505b5090505f5f90505b8481101561167a5785600c015f6114dd83876114cb9190612acb565b89600a01611a8a90919063ffffffff16565b81526020019081526020015f206040518060800160405290815f82016040518060600160405290815f820154815260200160018201805461151d90612b5e565b80601f016020809104026020016040519081016040528092919081815260200182805461154990612b5e565b80156115945780601f1061156b57610100808354040283529160200191611594565b820191905f5260205f20905b81548152906001019060200180831161157757829003601f168201915b505050505081526020016002820180546115ad90612b5e565b80601f01602080910402602001604051908101604052809291908181526020018280546115d990612b5e565b80156116245780601f106115fb57610100808354040283529160200191611624565b820191905f5260205f20905b81548152906001019060200180831161160757829003601f168201915b5050505050815250508152602001600382015481526020016004820154815260200160058201548152505082828151811061166257611661612b8e565b5b602002602001018190525080806001019150506114af565b5080955050505050509392505050565b61169385611ab8565b5f5f5f8781526020019081526020015f20905083816015015f8781526020019081526020015f208190555084816016015f8781526020019081526020015f205f018190555082816016015f8781526020019081526020015f2060010190816116fb9190612d5b565b5081816016015f8781526020019081526020015f20600201908161171f9190612d5b565b5084816014015f836017015481526020019081526020015f20819055508460015f60035481526020019081526020015f2081905550806017015f81548092919061176890612e2a565b919050555060035f81548092919061177f90612e2a565b9190505550505050505050565b606061179784611ab8565b5f5f5f8681526020019081526020015f2090506117b681600d01611a77565b8311156117cf576117c981600d01611a77565b92505f93505b5f83856117dc9190612a8a565b90505f84826117eb9190612acb565b90506117f983600d01611a77565b81111561180f5761180c83600d01611a77565b90505b5f828261181c9190612afe565b90505f8167ffffffffffffffff811115611839576118386121a0565b5b60405190808252806020026020018201604052801561187257816020015b61185f611ef7565b8152602001906001900390816118575790505b5090505f5f90505b82811015611a165785600f015f6118a883886118969190612acb565b89600d01611a8a90919063ffffffff16565b81526020019081526020015f205f016040518060600160405290815f82015481526020016001820180546118db90612b5e565b80601f016020809104026020016040519081016040528092919081815260200182805461190790612b5e565b80156119525780601f1061192957610100808354040283529160200191611952565b820191905f5260205f20905b81548152906001019060200180831161193557829003601f168201915b5050505050815260200160028201805461196b90612b5e565b80601f016020809104026020016040519081016040528092919081815260200182805461199790612b5e565b80156119e25780601f106119b9576101008083540402835291602001916119e2565b820191905f5260205f20905b8154815290600101906020018083116119c557829003601f168201915b5050505050815250508282815181106119fe576119fd612b8e565b5b6020026020010181905250808060010191505061187a565b5080955050505050509392505050565b611a308282611c17565b611a735781816040517f931a85b3000000000000000000000000000000000000000000000000000000008152600401611a6a929190612e98565b60405180910390fd5b5050565b5f611a83825f01611c57565b9050919050565b5f611a97835f0183611c66565b5f1c905092915050565b5f611ab0835f01835f1b611c8d565b905092915050565b611ac181610bec565b611b0257806040517fd4a84737000000000000000000000000000000000000000000000000000000008152600401611af99190612382565b60405180910390fd5b50565b611b10838383611cf4565b611b55578282826040517fef25d02d000000000000000000000000000000000000000000000000000000008152600401611b4c93929190612ebf565b60405180910390fd5b505050565b5f611b69835f01835f1b611d3f565b905092915050565b611b7b8282611e3b565b611bbe5781816040517f748e712a000000000000000000000000000000000000000000000000000000008152600401611bb5929190612e98565b60405180910390fd5b5050565b611bcd838383611e75565b611c12578282826040517f79167858000000000000000000000000000000000000000000000000000000008152600401611c0993929190612ebf565b60405180910390fd5b505050565b5f611c2183611ab8565b5f5f5f8581526020019081526020015f20600f015f8481526020019081526020015f20905082815f015f01541491505092915050565b5f815f01805490509050919050565b5f825f018281548110611c7c57611c7b612b8e565b5b905f5260205f200154905092915050565b5f611c988383611ec0565b611cea57825f0182908060018154018082558091505060019003905f5260205f20015f9091909190915055825f0180549050836001015f8481526020019081526020015f208190555060019050611cee565b5f90505b92915050565b5f611cff8484611a26565b611d36825f5f8781526020019081526020015f20600f015f8681526020019081526020015f20600301611ee090919063ffffffff16565b90509392505050565b5f5f836001015f8481526020019081526020015f205490505f8114611e30575f600182611d6c9190612afe565b90505f6001865f0180549050611d829190612afe565b9050808214611de8575f865f018281548110611da157611da0612b8e565b5b905f5260205f200154905080875f018481548110611dc257611dc1612b8e565b5b905f5260205f20018190555083876001015f8381526020019081526020015f2081905550505b855f01805480611dfb57611dfa612ef4565b5b600190038181905f5260205f20015f90559055856001015f8681526020019081526020015f205f905560019350505050611e35565b5f9150505b92915050565b5f611e4583611ab8565b815f5f8581526020019081526020015f20600c015f8481526020019081526020015f206003015414905092915050565b5f611e808484611a26565b611eb7825f5f8781526020019081526020015f20600f015f8681526020019081526020015f20600501611ee090919063ffffffff16565b90509392505050565b5f5f836001015f8481526020019081526020015f20541415905092915050565b5f611eef835f01835f1b611ec0565b905092915050565b60405180606001604052805f815260200160608152602001606081525090565b6040518060800160405280611f2a611ef7565b81526020015f81526020015f81526020015f81525090565b5f604051905090565b5f5ffd5b5f5ffd5b5f819050919050565b611f6581611f53565b8114611f6f575f5ffd5b50565b5f81359050611f8081611f5c565b92915050565b5f5f5f5f60808587031215611f9e57611f9d611f4b565b5b5f611fab87828801611f72565b9450506020611fbc87828801611f72565b9350506040611fcd87828801611f72565b9250506060611fde87828801611f72565b91505092959194509250565b5f81519050919050565b5f82825260208201905092915050565b5f819050602082019050919050565b61201c81611f53565b82525050565b5f81519050919050565b5f82825260208201905092915050565b8281835e5f83830152505050565b5f601f19601f8301169050919050565b5f61206482612022565b61206e818561202c565b935061207e81856020860161203c565b6120878161204a565b840191505092915050565b5f606083015f8301516120a75f860182612013565b50602083015184820360208601526120bf828261205a565b915050604083015184820360408601526120d9828261205a565b9150508091505092915050565b5f6120f18383612092565b905092915050565b5f602082019050919050565b5f61210f82611fea565b6121198185611ff4565b93508360208202850161212b85612004565b805f5b85811015612166578484038952815161214785826120e6565b9450612152836120f9565b925060208a0199505060018101905061212e565b50829750879550505050505092915050565b5f6020820190508181035f8301526121908184612105565b905092915050565b5f5ffd5b5f5ffd5b7f4e487b71000000000000000000000000000000000000000000000000000000005f52604160045260245ffd5b6121d68261204a565b810181811067ffffffffffffffff821117156121f5576121f46121a0565b5b80604052505050565b5f612207611f42565b905061221382826121cd565b919050565b5f67ffffffffffffffff821115612232576122316121a0565b5b61223b8261204a565b9050602081019050919050565b828183375f83830152505050565b5f61226861226384612218565b6121fe565b9050828152602081018484840111156122845761228361219c565b5b61228f848285612248565b509392505050565b5f82601f8301126122ab576122aa612198565b5b81356122bb848260208601612256565b91505092915050565b5f5f5f5f5f60a086880312156122dd576122dc611f4b565b5b5f6122ea88828901611f72565b95505060206122fb88828901611f72565b945050604061230c88828901611f72565b935050606086013567ffffffffffffffff81111561232d5761232c611f4f565b5b61233988828901612297565b925050608086013567ffffffffffffffff81111561235a57612359611f4f565b5b61236688828901612297565b9150509295509295909350565b61237c81611f53565b82525050565b5f6020820190506123955f830184612373565b92915050565b5f5f5f606084860312156123b2576123b1611f4b565b5b5f6123bf86828701611f72565b93505060206123d086828701611f72565b92505060406123e186828701611f72565b9150509250925092565b5f5f5f5f6080858703121561240357612402611f4b565b5b5f61241087828801611f72565b945050602061242187828801611f72565b935050604085013567ffffffffffffffff81111561244257612441611f4f565b5b61244e87828801612297565b925050606085013567ffffffffffffffff81111561246f5761246e611f4f565b5b61247b87828801612297565b91505092959194509250565b5f6020828403121561249c5761249b611f4b565b5b5f6124a984828501611f72565b91505092915050565b5f8115159050919050565b6124c6816124b2565b82525050565b5f6020820190506124df5f8301846124bd565b92915050565b5f67ffffffffffffffff8211156124ff576124fe6121a0565b5b602082029050602081019050919050565b5f5ffd5b5f612526612521846124e5565b6121fe565b9050808382526020820190506020840283018581111561254957612548612510565b5b835b81811015612572578061255e8882611f72565b84526020840193505060208101905061254b565b5050509392505050565b5f82601f8301126125905761258f612198565b5b81356125a0848260208601612514565b91505092915050565b6125b2816124b2565b81146125bc575f5ffd5b50565b5f813590506125cd816125a9565b92915050565b5f5f5f5f5f5f5f60e0888a0312156125ee576125ed611f4b565b5b5f6125fb8a828b01611f72565b975050602088013567ffffffffffffffff81111561261c5761261b611f4f565b5b6126288a828b01612297565b965050604088013567ffffffffffffffff81111561264957612648611f4f565b5b6126558a828b01612297565b955050606088013567ffffffffffffffff81111561267657612675611f4f565b5b6126828a828b0161257c565b945050608088013567ffffffffffffffff8111156126a3576126a2611f4f565b5b6126af8a828b0161257c565b93505060a06126c08a828b016125bf565b92505060c06126d18a828b016125bf565b91505092959891949750929550565b5f5f604083850312156126f6576126f5611f4b565b5b5f61270385828601611f72565b925050602061271485828601611f72565b9150509250929050565b5f73ffffffffffffffffffffffffffffffffffffffff82169050919050565b5f6127478261271e565b9050919050565b6127578161273d565b82525050565b5f6020820190506127705f83018461274e565b92915050565b5f5f5f5f5f5f60c087890312156127905761278f611f4b565b5b5f61279d89828a01611f72565b96505060206127ae89828a01611f72565b955050604087013567ffffffffffffffff8111156127cf576127ce611f4f565b5b6127db89828a01612297565b945050606087013567ffffffffffffffff8111156127fc576127fb611f4f565b5b61280889828a01612297565b935050608061281989828a016125bf565b92505060a061282a89828a016125bf565b9150509295509295509295565b6128408161273d565b811461284a575f5ffd5b50565b5f8135905061285b81612837565b92915050565b5f5f5f5f5f5f60c0878903121561287b5761287a611f4b565b5b5f61288889828a01611f72565b965050602061289989828a016125bf565b955050604087013567ffffffffffffffff8111156128ba576128b9611f4f565b5b6128c689828a01612297565b945050606087013567ffffffffffffffff8111156128e7576128e6611f4f565b5b6128f389828a01612297565b935050608061290489828a0161284d565b92505060a061291589828a01611f72565b9150509295509295509295565b5f81519050919050565b5f82825260208201905092915050565b5f819050602082019050919050565b5f608083015f8301518482035f8601526129658282612092565b915050602083015161297a6020860182612013565b50604083015161298d6040860182612013565b5060608301516129a06060860182612013565b508091505092915050565b5f6129b6838361294b565b905092915050565b5f602082019050919050565b5f6129d482612922565b6129de818561292c565b9350836020820285016129f08561293c565b805f5b85811015612a2b5784840389528151612a0c85826129ab565b9450612a17836129be565b925060208a019950506001810190506129f3565b50829750879550505050505092915050565b5f6020820190508181035f830152612a5581846129ca565b905092915050565b7f4e487b71000000000000000000000000000000000000000000000000000000005f52601160045260245ffd5b5f612a9482611f53565b9150612a9f83611f53565b9250828202612aad81611f53565b91508282048414831517612ac457612ac3612a5d565b5b5092915050565b5f612ad582611f53565b9150612ae083611f53565b9250828201905080821115612af857612af7612a5d565b5b92915050565b5f612b0882611f53565b9150612b1383611f53565b9250828203905081811115612b2b57612b2a612a5d565b5b92915050565b7f4e487b71000000000000000000000000000000000000000000000000000000005f52602260045260245ffd5b5f6002820490506001821680612b7557607f821691505b602082108103612b8857612b87612b31565b5b50919050565b7f4e487b71000000000000000000000000000000000000000000000000000000005f52603260045260245ffd5b5f819050815f5260205f209050919050565b5f6020601f8301049050919050565b5f82821b905092915050565b5f60088302612c177fffffffffffffffffffffffffffffffffffffffffffffffffffffffffffffffff82612bdc565b612c218683612bdc565b95508019841693508086168417925050509392505050565b5f819050919050565b5f612c5c612c57612c5284611f53565b612c39565b611f53565b9050919050565b5f819050919050565b612c7583612c42565b612c89612c8182612c63565b848454612be8565b825550505050565b5f5f905090565b612ca0612c91565b612cab818484612c6c565b505050565b5b81811015612cce57612cc35f82612c98565b600181019050612cb1565b5050565b601f821115612d1357612ce481612bbb565b612ced84612bcd565b81016020851015612cfc578190505b612d10612d0885612bcd565b830182612cb0565b50505b505050565b5f82821c905092915050565b5f612d335f1984600802612d18565b1980831691505092915050565b5f612d4b8383612d24565b9150826002028217905092915050565b612d6482612022565b67ffffffffffffffff811115612d7d57612d7c6121a0565b5b612d878254612b5e565b612d92828285612cd2565b5f60209050601f831160018114612dc3575f8415612db1578287015190505b612dbb8582612d40565b865550612e22565b601f198416612dd186612bbb565b5f5b82811015612df857848901518255600182019150602085019450602081019050612dd3565b86831015612e155784890151612e11601f891682612d24565b8355505b6001600288020188555050505b505050505050565b5f612e3482611f53565b91507fffffffffffffffffffffffffffffffffffffffffffffffffffffffffffffffff8203612e6657612e65612a5d565b5b600182019050919050565b5f612e7b82611f53565b91505f8203612e8d57612e8c612a5d565b5b600182039050919050565b5f604082019050612eab5f830185612373565b612eb86020830184612373565b9392505050565b5f606082019050612ed25f830186612373565b612edf6020830185612373565b612eec6040830184612373565b949350505050565b7f4e487b71000000000000000000000000000000000000000000000000000000005f52603160045260245ffdfea26469706673582212204a83e0737dc932ce98bcc40e1abe9c5a97e77ab2c9fd214a15cbfb1ce662f82564736f6c634300081c0033",
  "linkReferences": {},
  "deployedLinkReferences": {},
  "immutableReferences": {},
  "inputSourceName": "project/contracts/AccountConfig.sol",
  "buildInfoId": "solc-0_8_28-f1e13e673fbe428eed709fff9f15f1c9286c9464"
}