{
  "_format": "hh3-artifact-1",
  "contractName": "AccountConfig",
  "sourceName": "contracts/AccountConfig.sol",
  "abi": [
    {
      "inputs": [],
      "stateMutability": "nonpayable",
      "type": "constructor"
    },
    {
      "inputs": [
        {
          "internalType": "uint256",
          "name": "apiKey",
          "type": "uint256"
        },
        {
          "internalType": "uint256",
          "name": "accountApiKey",
          "type": "uint256"
        }
      ],
      "name": "AccountApiKeyDoesNotExist",
      "type": "error"
    },
    {
      "inputs": [
        {
          "internalType": "uint256",
          "name": "apiKey",
          "type": "uint256"
        }
      ],
      "name": "AccountDoesNotExist",
      "type": "error"
    },
    {
      "inputs": [
        {
          "internalType": "uint256",
          "name": "apiKey",
          "type": "uint256"
        },
        {
          "internalType": "uint256",
          "name": "groupId",
          "type": "uint256"
        },
        {
          "internalType": "uint256",
          "name": "action",
          "type": "uint256"
        }
      ],
      "name": "ActionDoesNotExist",
      "type": "error"
    },
    {
      "inputs": [
        {
          "internalType": "uint256",
          "name": "apiKey",
          "type": "uint256"
        },
        {
          "internalType": "uint256",
          "name": "groupId",
          "type": "uint256"
        }
      ],
      "name": "GroupDoesNotExist",
      "type": "error"
    },
    {
      "inputs": [
        {
          "internalType": "uint256",
          "name": "pageSize",
          "type": "uint256"
        }
      ],
      "name": "PageSizeTooLarge",
      "type": "error"
    },
    {
      "inputs": [
        {
          "internalType": "uint256",
          "name": "apiKey",
          "type": "uint256"
        },
        {
          "internalType": "uint256",
          "name": "usageApiKey",
          "type": "uint256"
        }
      ],
      "name": "UsageApiKeyDoesNotExist",
      "type": "error"
    },
    {
      "inputs": [
        {
          "internalType": "uint256",
          "name": "apiKey",
          "type": "uint256"
        },
        {
          "internalType": "uint256",
          "name": "groupId",
          "type": "uint256"
        },
        {
          "internalType": "uint256",
          "name": "Wallet",
          "type": "uint256"
        }
      ],
      "name": "WalletDoesNotExist",
      "type": "error"
    },
    {
      "inputs": [
        {
          "internalType": "uint256",
          "name": "accountApiKeyHash",
          "type": "uint256"
        },
        {
          "internalType": "uint256",
          "name": "groupId",
          "type": "uint256"
        },
        {
          "internalType": "uint256",
          "name": "action",
          "type": "uint256"
        },
        {
          "internalType": "string",
          "name": "name",
          "type": "string"
        },
        {
          "internalType": "string",
          "name": "description",
          "type": "string"
        }
      ],
      "name": "addActionToGroup",
      "outputs": [],
      "stateMutability": "nonpayable",
      "type": "function"
    },
    {
      "inputs": [
        {
          "internalType": "uint256",
          "name": "accountApiKeyHash",
          "type": "uint256"
        },
        {
          "internalType": "uint256",
          "name": "usageApiKeyHash",
          "type": "uint256"
        },
        {
          "internalType": "uint256",
          "name": "expiration",
          "type": "uint256"
        },
        {
          "internalType": "uint256",
          "name": "balance",
          "type": "uint256"
        }
      ],
      "name": "addApiKey",
      "outputs": [],
      "stateMutability": "nonpayable",
      "type": "function"
    },
    {
      "inputs": [
        {
          "internalType": "uint256",
          "name": "accountApiKeyHash",
          "type": "uint256"
        },
        {
          "internalType": "string",
          "name": "name",
          "type": "string"
        },
        {
          "internalType": "string",
          "name": "description",
          "type": "string"
        },
        {
          "internalType": "uint256[]",
          "name": "permitted_actions",
          "type": "uint256[]"
        },
        {
          "internalType": "uint256[]",
          "name": "Wallets",
          "type": "uint256[]"
        }
      ],
      "name": "addGroup",
      "outputs": [],
      "stateMutability": "nonpayable",
      "type": "function"
    },
    {
      "inputs": [
        {
          "internalType": "uint256",
          "name": "accountApiKeyHash",
          "type": "uint256"
        },
        {
          "internalType": "uint256",
          "name": "groupId",
          "type": "uint256"
        },
        {
          "internalType": "uint256",
          "name": "walletAddressHash",
          "type": "uint256"
        }
      ],
      "name": "addWalletToGroup",
      "outputs": [],
      "stateMutability": "nonpayable",
      "type": "function"
    },
    {
      "inputs": [
        {
          "internalType": "uint256",
          "name": "accountApiKeyHash",
          "type": "uint256"
        },
        {
          "internalType": "uint256",
          "name": "walletAddressHash",
          "type": "uint256"
        }
      ],
      "name": "getWalletDerivation",
      "outputs": [
        {
          "internalType": "uint256",
          "name": "",
          "type": "uint256"
        }
      ],
      "stateMutability": "view",
      "type": "function"
    },
    {
      "inputs": [
        {
          "internalType": "uint256",
          "name": "accountApiKeyHash",
          "type": "uint256"
        },
        {
          "internalType": "uint256",
          "name": "groupId",
          "type": "uint256"
        },
        {
          "internalType": "uint256",
          "name": "pageNumber",
          "type": "uint256"
        },
        {
          "internalType": "uint256",
          "name": "pageSize",
          "type": "uint256"
        }
      ],
      "name": "listActions",
      "outputs": [
        {
          "components": [
            {
              "internalType": "uint256",
              "name": "id",
              "type": "uint256"
            },
            {
              "internalType": "string",
              "name": "name",
              "type": "string"
            },
            {
              "internalType": "string",
              "name": "description",
              "type": "string"
            }
          ],
          "internalType": "struct AccountConfig.Metadata[]",
          "name": "",
          "type": "tuple[]"
        }
      ],
      "stateMutability": "view",
      "type": "function"
    },
    {
      "inputs": [
        {
          "internalType": "uint256",
          "name": "accountApiKeyHash",
          "type": "uint256"
        },
        {
          "internalType": "uint256",
          "name": "pageNumber",
          "type": "uint256"
        },
        {
          "internalType": "uint256",
          "name": "pageSize",
          "type": "uint256"
        }
      ],
      "name": "listGroups",
      "outputs": [
        {
          "components": [
            {
              "internalType": "uint256",
              "name": "id",
              "type": "uint256"
            },
            {
              "internalType": "string",
              "name": "name",
              "type": "string"
            },
            {
              "internalType": "string",
              "name": "description",
              "type": "string"
            }
          ],
          "internalType": "struct AccountConfig.Metadata[]",
          "name": "",
          "type": "tuple[]"
        }
      ],
      "stateMutability": "view",
      "type": "function"
    },
    {
      "inputs": [
        {
          "internalType": "uint256",
          "name": "accountApiKeyHash",
          "type": "uint256"
        },
        {
          "internalType": "uint256",
          "name": "pageNumber",
          "type": "uint256"
        },
        {
          "internalType": "uint256",
          "name": "pageSize",
          "type": "uint256"
        }
      ],
      "name": "listWallets",
      "outputs": [
        {
          "components": [
            {
              "internalType": "uint256",
              "name": "id",
              "type": "uint256"
            },
            {
              "internalType": "string",
              "name": "name",
              "type": "string"
            },
            {
              "internalType": "string",
              "name": "description",
              "type": "string"
            }
          ],
          "internalType": "struct AccountConfig.Metadata[]",
          "name": "",
          "type": "tuple[]"
        }
      ],
      "stateMutability": "view",
      "type": "function"
    },
    {
      "inputs": [
        {
          "internalType": "uint256",
          "name": "accountApiKeyHash",
          "type": "uint256"
        },
        {
          "internalType": "uint256",
          "name": "groupId",
          "type": "uint256"
        },
        {
          "internalType": "uint256",
          "name": "pageNumber",
          "type": "uint256"
        },
        {
          "internalType": "uint256",
          "name": "pageSize",
          "type": "uint256"
        }
      ],
      "name": "listWalletsInGroup",
      "outputs": [
        {
          "components": [
            {
              "internalType": "uint256",
              "name": "id",
              "type": "uint256"
            },
            {
              "internalType": "string",
              "name": "name",
              "type": "string"
            },
            {
              "internalType": "string",
              "name": "description",
              "type": "string"
            }
          ],
          "internalType": "struct AccountConfig.Metadata[]",
          "name": "",
          "type": "tuple[]"
        }
      ],
      "stateMutability": "view",
      "type": "function"
    },
    {
      "inputs": [
        {
          "internalType": "uint256",
          "name": "apiKeyHash",
          "type": "uint256"
        },
        {
          "internalType": "bool",
          "name": "managed",
          "type": "bool"
        },
        {
          "internalType": "string",
          "name": "accountName",
          "type": "string"
        },
        {
          "internalType": "string",
          "name": "accountDescription",
          "type": "string"
        },
        {
          "internalType": "address",
          "name": "creatorWalletAddress",
          "type": "address"
        }
      ],
      "name": "newAccount",
      "outputs": [],
      "stateMutability": "nonpayable",
      "type": "function"
    },
    {
      "inputs": [],
      "name": "nextWalletCount",
      "outputs": [
        {
          "internalType": "uint256",
          "name": "",
          "type": "uint256"
        }
      ],
      "stateMutability": "view",
      "type": "function"
    },
    {
      "inputs": [],
      "name": "owner",
      "outputs": [
        {
          "internalType": "address",
          "name": "",
          "type": "address"
        }
      ],
      "stateMutability": "view",
      "type": "function"
    },
    {
      "inputs": [
        {
          "internalType": "uint256",
          "name": "accountApiKeyHash",
          "type": "uint256"
        },
        {
          "internalType": "uint256",
          "name": "walletAddressHash",
          "type": "uint256"
        },
        {
          "internalType": "uint256",
          "name": "derivationPath",
          "type": "uint256"
        },
        {
          "internalType": "string",
          "name": "name",
          "type": "string"
        },
        {
          "internalType": "string",
          "name": "description",
          "type": "string"
        }
      ],
      "name": "registerWalletDerivation",
      "outputs": [],
      "stateMutability": "nonpayable",
      "type": "function"
    },
    {
      "inputs": [
        {
          "internalType": "uint256",
          "name": "accountApiKeyHash",
          "type": "uint256"
        },
        {
          "internalType": "uint256",
          "name": "groupId",
          "type": "uint256"
        },
        {
          "internalType": "uint256",
          "name": "action",
          "type": "uint256"
        }
      ],
      "name": "removeActionFromGroup",
      "outputs": [],
      "stateMutability": "nonpayable",
      "type": "function"
    },
    {
      "inputs": [
        {
          "internalType": "uint256",
          "name": "accountApiKeyHash",
          "type": "uint256"
        },
        {
          "internalType": "uint256",
          "name": "usageApiKeyHash",
          "type": "uint256"
        }
      ],
      "name": "removeUsageApiKey",
      "outputs": [],
      "stateMutability": "nonpayable",
      "type": "function"
    },
    {
      "inputs": [
        {
          "internalType": "uint256",
          "name": "accountApiKeyHash",
          "type": "uint256"
        },
        {
          "internalType": "uint256",
          "name": "groupId",
          "type": "uint256"
        },
        {
          "internalType": "uint256",
          "name": "walletAddressHash",
          "type": "uint256"
        }
      ],
      "name": "removeWalletFromGroup",
      "outputs": [],
      "stateMutability": "nonpayable",
      "type": "function"
    }
  ],
  "bytecode": "0x6080604052348015600e575f5ffd5b503360025f6101000a81548173ffffffffffffffffffffffffffffffffffffffff021916908373ffffffffffffffffffffffffffffffffffffffff16021790555060016003819055506126f9806100645f395ff3fe608060405234801561000f575f5ffd5b50600436106100fe575f3560e01c80637931224511610095578063bac710ea11610064578063bac710ea146102a6578063c5f5b984146102c2578063dbb17a0b146102de578063f75c8b2d146102fa576100fe565b8063793122451461020c57806379b8e691146102285780637af361ef146102585780638da5cb5b14610288576100fe565b8063542970ed116100d1578063542970ed146101885780635d861c72146101b85780636e06ac9c146101d45780636f2659a7146101f0576100fe565b8063291ff1ea146101025780632fa92e41146101325780634705161e1461014e578063497179351461016c575b5f5ffd5b61011c60048036038101906101179190611a72565b61032a565b6040516101299190611c64565b60405180910390f35b61014c60048036038101906101479190611db0565b610611565b005b6101566106c1565b6040516101639190611e6e565b60405180910390f35b61018660048036038101906101819190611a72565b6106c7565b005b6101a2600480360381019061019d9190611a72565b610717565b6040516101af9190611c64565b60405180910390f35b6101d260048036038101906101cd9190611e87565b6109fe565b005b6101ee60048036038101906101e99190611e87565b610a4b565b005b61020a60048036038101906102059190611f9b565b610a98565b005b61022660048036038101906102219190612111565b610bdb565b005b610242600480360381019061023d91906121c0565b610c7f565b60405161024f9190611e6e565b60405180910390f35b610272600480360381019061026d9190611e87565b610cb9565b60405161027f9190611c64565b60405180910390f35b610290610f5f565b60405161029d919061220d565b60405180910390f35b6102c060048036038101906102bb9190611e87565b610f84565b005b6102dc60048036038101906102d791906121c0565b610fd0565b005b6102f860048036038101906102f39190611db0565b611047565b005b610314600480360381019061030f9190611e87565b611114565b6040516103219190611c64565b60405180910390f35b606061033685856113e4565b5f5f5f8781526020019081526020015f2090505f816007015f8781526020019081526020015f20905061036b81600501611435565b8411156103ba5761037e81600501611435565b6040517f2960bb000000000000000000000000000000000000000000000000000000000081526004016103b19190611e6e565b60405180910390fd5b5f84866103c79190612253565b90505f85826103d69190612294565b90506103e483600501611435565b8111156103fa576103f783600501611435565b90505b5f828261040791906122c7565b90505f8167ffffffffffffffff81111561042457610423611c8c565b5b60405190808252806020026020018201604052801561045d57816020015b61044a6119b6565b8152602001906001900390816104425790505b5090505f5f90505b828110156105ff5786600b015f61049383886104819190612294565b8960050161144890919063ffffffff16565b81526020019081526020015f206040518060600160405290815f82015481526020016001820180546104c490612327565b80601f01602080910402602001604051908101604052809291908181526020018280546104f090612327565b801561053b5780601f106105125761010080835404028352916020019161053b565b820191905f5260205f20905b81548152906001019060200180831161051e57829003601f168201915b5050505050815260200160028201805461055490612327565b80601f016020809104026020016040519081016040528092919081815260200182805461058090612327565b80156105cb5780601f106105a2576101008083540402835291602001916105cb565b820191905f5260205f20905b8154815290600101906020018083116105ae57829003601f168201915b5050505050815250508282815181106105e7576105e6612357565b5b60200260200101819052508080600101915050610465565b50809650505050505050949350505050565b61061b85856113e4565b5f5f5f8781526020019081526020015f20905061065684826007015f8881526020019081526020015f2060030161145f90919063ffffffff16565b508381600c015f8681526020019081526020015f205f01819055508281600c015f8681526020019081526020015f2060010190816106949190612524565b508181600c015f8681526020019081526020015f2060020190816106b89190612524565b50505050505050565b60035481565b6106d084611476565b5f5f5f8681526020019081526020015f206004015f8581526020019081526020015f2090508381600301819055508281600401819055508181600501819055505050505050565b606061072385856113e4565b5f5f5f8781526020019081526020015f2090505f816007015f8781526020019081526020015f20905061075881600301611435565b8411156107a75761076b81600301611435565b6040517f2960bb0000000000000000000000000000000000000000000000000000000000815260040161079e9190611e6e565b60405180910390fd5b5f84866107b49190612253565b90505f85826107c39190612294565b90506107d183600301611435565b8111156107e7576107e483600301611435565b90505b5f82826107f491906122c7565b90505f8167ffffffffffffffff81111561081157610810611c8c565b5b60405190808252806020026020018201604052801561084a57816020015b6108376119b6565b81526020019060019003908161082f5790505b5090505f5f90505b828110156109ec5786600c015f610880838861086e9190612294565b8960030161144890919063ffffffff16565b81526020019081526020015f206040518060600160405290815f82015481526020016001820180546108b190612327565b80601f01602080910402602001604051908101604052809291908181526020018280546108dd90612327565b80156109285780601f106108ff57610100808354040283529160200191610928565b820191905f5260205f20905b81548152906001019060200180831161090b57829003601f168201915b5050505050815260200160028201805461094190612327565b80601f016020809104026020016040519081016040528092919081815260200182805461096d90612327565b80156109b85780601f1061098f576101008083540402835291602001916109b8565b820191905f5260205f20905b81548152906001019060200180831161099b57829003601f168201915b5050505050815250508282815181106109d4576109d3612357565b5b60200260200101819052508080600101915050610852565b50809650505050505050949350505050565b610a098383836114c3565b5f5f5f8581526020019081526020015f209050610a4482826007015f8681526020019081526020015f2060030161151890919063ffffffff16565b5050505050565b610a5683838361152f565b5f5f5f8581526020019081526020015f209050610a9182826007015f8681526020019081526020015f2060050161151890919063ffffffff16565b5050505050565b610aa185611476565b5f5f5f8781526020019081526020015f209050610ace81600901548260050161145f90919063ffffffff16565b505f816007015f836009015481526020019081526020015f2090508160090154815f015f018190555085815f016001019081610b0a9190612524565b5084815f016002019081610b1e9190612524565b505f5f90505b8451811015610b6b57610b5d858281518110610b4357610b42612357565b5b60200260200101518360030161145f90919063ffffffff16565b508080600101915050610b24565b505f5f90505b8351811015610bb857610baa848281518110610b9057610b8f612357565b5b60200260200101518360050161145f90919063ffffffff16565b508080600101915050610b71565b50816009015f815480929190610bcd906125f3565b919050555050505050505050565b5f5f5f8781526020019081526020015f20905085815f018190555084816008015f6101000a81548160ff02191690831515021790555081816001015f6101000a81548173ffffffffffffffffffffffffffffffffffffffff021916908373ffffffffffffffffffffffffffffffffffffffff16021790555083816002019081610c649190612524565b5082816003019081610c769190612524565b50505050505050565b5f610c8983611476565b5f5f5f8581526020019081526020015f20905080600a015f8481526020019081526020015f205491505092915050565b6060610cc484611476565b5f5f5f8681526020019081526020015f209050600354831115610d20576003546040517f2960bb00000000000000000000000000000000000000000000000000000000008152600401610d179190611e6e565b60405180910390fd5b5f8385610d2d9190612253565b90505f8482610d3c9190612294565b9050600354811115610d4e5760035490505b5f8282610d5b91906122c7565b90505f8167ffffffffffffffff811115610d7857610d77611c8c565b5b604051908082528060200260200182016040528015610db157816020015b610d9e6119b6565b815260200190600190039081610d965790505b5090505f5f90505b82811015610f4f5785600b015f60015f8489610dd59190612294565b81526020019081526020015f205481526020019081526020015f206040518060600160405290815f8201548152602001600182018054610e1490612327565b80601f0160208091040260200160405190810160405280929190818152602001828054610e4090612327565b8015610e8b5780601f10610e6257610100808354040283529160200191610e8b565b820191905f5260205f20905b815481529060010190602001808311610e6e57829003601f168201915b50505050508152602001600282018054610ea490612327565b80601f0160208091040260200160405190810160405280929190818152602001828054610ed090612327565b8015610f1b5780601f10610ef257610100808354040283529160200191610f1b565b820191905f5260205f20905b815481529060010190602001808311610efe57829003601f168201915b505050505081525050828281518110610f3757610f36612357565b5b60200260200101819052508080600101915050610db9565b5080955050505050509392505050565b60025f9054906101000a900473ffffffffffffffffffffffffffffffffffffffff1681565b610f8e83836113e4565b5f5f5f8581526020019081526020015f209050610fc982826007015f8681526020019081526020015f2060050161145f90919063ffffffff16565b5050505050565b610fda8282611584565b5f5f5f8481526020019081526020015f209050806004015f8381526020019081526020015f205f5f82015f5f82015f9055600182015f61101a91906119d6565b600282015f61102991906119d6565b5050600382015f9055600482015f9055600582015f90555050505050565b61105085611476565b5f5f5f8781526020019081526020015f2090508381600a015f8781526020019081526020015f20819055508481600b015f8781526020019081526020015f205f01819055508281600b015f8781526020019081526020015f2060010190816110b89190612524565b508181600b015f8781526020019081526020015f2060020190816110dc9190612524565b508460015f60035481526020019081526020015f208190555060035f815480929190611107906125f3565b9190505550505050505050565b606061111f84611476565b5f5f5f8681526020019081526020015f20905061113e81600501611435565b83111561118d5761115181600501611435565b6040517f2960bb000000000000000000000000000000000000000000000000000000000081526004016111849190611e6e565b60405180910390fd5b5f838561119a9190612253565b90505f84826111a99190612294565b90506111b783600501611435565b8111156111cd576111ca83600501611435565b90505b5f82826111da91906122c7565b90505f8167ffffffffffffffff8111156111f7576111f6611c8c565b5b60405190808252806020026020018201604052801561123057816020015b61121d6119b6565b8152602001906001900390816112155790505b5090505f5f90505b828110156113d457856007015f61126683886112549190612294565b8960050161144890919063ffffffff16565b81526020019081526020015f205f016040518060600160405290815f820154815260200160018201805461129990612327565b80601f01602080910402602001604051908101604052809291908181526020018280546112c590612327565b80156113105780601f106112e757610100808354040283529160200191611310565b820191905f5260205f20905b8154815290600101906020018083116112f357829003601f168201915b5050505050815260200160028201805461132990612327565b80601f016020809104026020016040519081016040528092919081815260200182805461135590612327565b80156113a05780601f10611377576101008083540402835291602001916113a0565b820191905f5260205f20905b81548152906001019060200180831161138357829003601f168201915b5050505050815250508282815181106113bc576113bb612357565b5b60200260200101819052508080600101915050611238565b5080955050505050509392505050565b6113ee82826115d5565b6114315781816040517f931a85b300000000000000000000000000000000000000000000000000000000815260040161142892919061263a565b60405180910390fd5b5050565b5f611441825f01611615565b9050919050565b5f611455835f0183611624565b5f1c905092915050565b5f61146e835f01835f1b61164b565b905092915050565b61147f816116b2565b6114c057806040517fd4a847370000000000000000000000000000000000000000000000000000000081526004016114b79190611e6e565b60405180910390fd5b50565b6114ce8383836117b3565b611513578282826040517fef25d02d00000000000000000000000000000000000000000000000000000000815260040161150a93929190612661565b60405180910390fd5b505050565b5f611527835f01835f1b6117fe565b905092915050565b61153a8383836118fa565b61157f578282826040517f7916785800000000000000000000000000000000000000000000000000000000815260040161157693929190612661565b60405180910390fd5b505050565b61158e8282611945565b6115d15781816040517ff411afbe0000000000000000000000000000000000000000000000000000000081526004016115c892919061263a565b60405180910390fd5b5050565b5f6115df83611476565b5f5f5f8581526020019081526020015f206007015f8481526020019081526020015f20905082815f015f01541491505092915050565b5f815f01805490509050919050565b5f825f01828154811061163a57611639612357565b5b905f5260205f200154905092915050565b5f611656838361197f565b6116a857825f0182908060018154018082558091505060019003905f5260205f20015f9091909190915055825f0180549050836001015f8481526020019081526020015f2081905550600190506116ac565b5f90505b92915050565b5f5f5f5f8481526020019081526020015f20905082815f0154146116d9575f9150506117ae565b60025f9054906101000a900473ffffffffffffffffffffffffffffffffffffffff1673ffffffffffffffffffffffffffffffffffffffff163373ffffffffffffffffffffffffffffffffffffffff16148015611749575060011515816008015f9054906101000a900460ff161515145b156117585760019150506117ae565b3373ffffffffffffffffffffffffffffffffffffffff16816001015f9054906101000a900473ffffffffffffffffffffffffffffffffffffffff1673ffffffffffffffffffffffffffffffffffffffff16149150505b919050565b5f6117be84846113e4565b6117f5825f5f8781526020019081526020015f206007015f8681526020019081526020015f2060030161199f90919063ffffffff16565b90509392505050565b5f5f836001015f8481526020019081526020015f205490505f81146118ef575f60018261182b91906122c7565b90505f6001865f018054905061184191906122c7565b90508082146118a7575f865f0182815481106118605761185f612357565b5b905f5260205f200154905080875f01848154811061188157611880612357565b5b905f5260205f20018190555083876001015f8381526020019081526020015f2081905550505b855f018054806118ba576118b9612696565b5b600190038181905f5260205f20015f90559055856001015f8681526020019081526020015f205f9055600193505050506118f4565b5f9150505b92915050565b5f61190584846113e4565b61193c825f5f8781526020019081526020015f206007015f8681526020019081526020015f2060050161199f90919063ffffffff16565b90509392505050565b5f61194f83611476565b815f5f8581526020019081526020015f206004015f8481526020019081526020015f206003015414905092915050565b5f5f836001015f8481526020019081526020015f20541415905092915050565b5f6119ae835f01835f1b61197f565b905092915050565b60405180606001604052805f815260200160608152602001606081525090565b5080546119e290612327565b5f825580601f106119f35750611a10565b601f0160209004905f5260205f2090810190611a0f9190611a13565b5b50565b5b80821115611a2a575f815f905550600101611a14565b5090565b5f604051905090565b5f5ffd5b5f5ffd5b5f819050919050565b611a5181611a3f565b8114611a5b575f5ffd5b50565b5f81359050611a6c81611a48565b92915050565b5f5f5f5f60808587031215611a8a57611a89611a37565b5b5f611a9787828801611a5e565b9450506020611aa887828801611a5e565b9350506040611ab987828801611a5e565b9250506060611aca87828801611a5e565b91505092959194509250565b5f81519050919050565b5f82825260208201905092915050565b5f819050602082019050919050565b611b0881611a3f565b82525050565b5f81519050919050565b5f82825260208201905092915050565b8281835e5f83830152505050565b5f601f19601f8301169050919050565b5f611b5082611b0e565b611b5a8185611b18565b9350611b6a818560208601611b28565b611b7381611b36565b840191505092915050565b5f606083015f830151611b935f860182611aff565b5060208301518482036020860152611bab8282611b46565b91505060408301518482036040860152611bc58282611b46565b9150508091505092915050565b5f611bdd8383611b7e565b905092915050565b5f602082019050919050565b5f611bfb82611ad6565b611c058185611ae0565b935083602082028501611c1785611af0565b805f5b85811015611c525784840389528151611c338582611bd2565b9450611c3e83611be5565b925060208a01995050600181019050611c1a565b50829750879550505050505092915050565b5f6020820190508181035f830152611c7c8184611bf1565b905092915050565b5f5ffd5b5f5ffd5b7f4e487b71000000000000000000000000000000000000000000000000000000005f52604160045260245ffd5b611cc282611b36565b810181811067ffffffffffffffff82111715611ce157611ce0611c8c565b5b80604052505050565b5f611cf3611a2e565b9050611cff8282611cb9565b919050565b5f67ffffffffffffffff821115611d1e57611d1d611c8c565b5b611d2782611b36565b9050602081019050919050565b828183375f83830152505050565b5f611d54611d4f84611d04565b611cea565b905082815260208101848484011115611d7057611d6f611c88565b5b611d7b848285611d34565b509392505050565b5f82601f830112611d9757611d96611c84565b5b8135611da7848260208601611d42565b91505092915050565b5f5f5f5f5f60a08688031215611dc957611dc8611a37565b5b5f611dd688828901611a5e565b9550506020611de788828901611a5e565b9450506040611df888828901611a5e565b935050606086013567ffffffffffffffff811115611e1957611e18611a3b565b5b611e2588828901611d83565b925050608086013567ffffffffffffffff811115611e4657611e45611a3b565b5b611e5288828901611d83565b9150509295509295909350565b611e6881611a3f565b82525050565b5f602082019050611e815f830184611e5f565b92915050565b5f5f5f60608486031215611e9e57611e9d611a37565b5b5f611eab86828701611a5e565b9350506020611ebc86828701611a5e565b9250506040611ecd86828701611a5e565b9150509250925092565b5f67ffffffffffffffff821115611ef157611ef0611c8c565b5b602082029050602081019050919050565b5f5ffd5b5f611f18611f1384611ed7565b611cea565b90508083825260208201905060208402830185811115611f3b57611f3a611f02565b5b835b81811015611f645780611f508882611a5e565b845260208401935050602081019050611f3d565b5050509392505050565b5f82601f830112611f8257611f81611c84565b5b8135611f92848260208601611f06565b91505092915050565b5f5f5f5f5f60a08688031215611fb457611fb3611a37565b5b5f611fc188828901611a5e565b955050602086013567ffffffffffffffff811115611fe257611fe1611a3b565b5b611fee88828901611d83565b945050604086013567ffffffffffffffff81111561200f5761200e611a3b565b5b61201b88828901611d83565b935050606086013567ffffffffffffffff81111561203c5761203b611a3b565b5b61204888828901611f6e565b925050608086013567ffffffffffffffff81111561206957612068611a3b565b5b61207588828901611f6e565b9150509295509295909350565b5f8115159050919050565b61209681612082565b81146120a0575f5ffd5b50565b5f813590506120b18161208d565b92915050565b5f73ffffffffffffffffffffffffffffffffffffffff82169050919050565b5f6120e0826120b7565b9050919050565b6120f0816120d6565b81146120fa575f5ffd5b50565b5f8135905061210b816120e7565b92915050565b5f5f5f5f5f60a0868803121561212a57612129611a37565b5b5f61213788828901611a5e565b9550506020612148888289016120a3565b945050604086013567ffffffffffffffff81111561216957612168611a3b565b5b61217588828901611d83565b935050606086013567ffffffffffffffff81111561219657612195611a3b565b5b6121a288828901611d83565b92505060806121b3888289016120fd565b9150509295509295909350565b5f5f604083850312156121d6576121d5611a37565b5b5f6121e385828601611a5e565b92505060206121f485828601611a5e565b9150509250929050565b612207816120d6565b82525050565b5f6020820190506122205f8301846121fe565b92915050565b7f4e487b71000000000000000000000000000000000000000000000000000000005f52601160045260245ffd5b5f61225d82611a3f565b915061226883611a3f565b925082820261227681611a3f565b9150828204841483151761228d5761228c612226565b5b5092915050565b5f61229e82611a3f565b91506122a983611a3f565b92508282019050808211156122c1576122c0612226565b5b92915050565b5f6122d182611a3f565b91506122dc83611a3f565b92508282039050818111156122f4576122f3612226565b5b92915050565b7f4e487b71000000000000000000000000000000000000000000000000000000005f52602260045260245ffd5b5f600282049050600182168061233e57607f821691505b602082108103612351576123506122fa565b5b50919050565b7f4e487b71000000000000000000000000000000000000000000000000000000005f52603260045260245ffd5b5f819050815f5260205f209050919050565b5f6020601f8301049050919050565b5f82821b905092915050565b5f600883026123e07fffffffffffffffffffffffffffffffffffffffffffffffffffffffffffffffff826123a5565b6123ea86836123a5565b95508019841693508086168417925050509392505050565b5f819050919050565b5f61242561242061241b84611a3f565b612402565b611a3f565b9050919050565b5f819050919050565b61243e8361240b565b61245261244a8261242c565b8484546123b1565b825550505050565b5f5f905090565b61246961245a565b612474818484612435565b505050565b5b818110156124975761248c5f82612461565b60018101905061247a565b5050565b601f8211156124dc576124ad81612384565b6124b684612396565b810160208510156124c5578190505b6124d96124d185612396565b830182612479565b50505b505050565b5f82821c905092915050565b5f6124fc5f19846008026124e1565b1980831691505092915050565b5f61251483836124ed565b9150826002028217905092915050565b61252d82611b0e565b67ffffffffffffffff81111561254657612545611c8c565b5b6125508254612327565b61255b82828561249b565b5f60209050601f83116001811461258c575f841561257a578287015190505b6125848582612509565b8655506125eb565b601f19841661259a86612384565b5f5b828110156125c15784890151825560018201915060208501945060208101905061259c565b868310156125de57848901516125da601f8916826124ed565b8355505b6001600288020188555050505b505050505050565b5f6125fd82611a3f565b91507fffffffffffffffffffffffffffffffffffffffffffffffffffffffffffffffff820361262f5761262e612226565b5b600182019050919050565b5f60408201905061264d5f830185611e5f565b61265a6020830184611e5f565b9392505050565b5f6060820190506126745f830186611e5f565b6126816020830185611e5f565b61268e6040830184611e5f565b949350505050565b7f4e487b71000000000000000000000000000000000000000000000000000000005f52603160045260245ffdfea2646970667358221220acfef9ba75d422a78d38f71f5c5e9568563fd84df61f89b37b83bccbcea953cc64736f6c634300081c0033",
  "linkReferences": {},
  "deployedLinkReferences": {},
  "immutableReferences": {},
  "inputSourceName": "project/contracts/AccountConfig.sol",
  "buildInfoId": "solc-0_8_28-d104bb52378ba407ee620acbd972308500326ff7"
}