{
  "_format": "hh3-artifact-1",
  "contractName": "AccountConfig",
  "sourceName": "contracts/AccountConfig.sol",
  "abi": [
    {
      "inputs": [],
      "stateMutability": "nonpayable",
      "type": "constructor"
    },
    {
      "inputs": [
        {
          "internalType": "uint256",
          "name": "apiKey",
          "type": "uint256"
        }
      ],
      "name": "AccountDoesNotExist",
      "type": "error"
    },
    {
      "inputs": [
        {
          "internalType": "uint256",
          "name": "apiKey",
          "type": "uint256"
        },
        {
          "internalType": "uint256",
          "name": "groupId",
          "type": "uint256"
        },
        {
          "internalType": "uint256",
          "name": "action",
          "type": "uint256"
        }
      ],
      "name": "ActionDoesNotExist",
      "type": "error"
    },
    {
      "inputs": [
        {
          "internalType": "uint256",
          "name": "apiKey",
          "type": "uint256"
        },
        {
          "internalType": "uint256",
          "name": "groupId",
          "type": "uint256"
        }
      ],
      "name": "GroupDoesNotExist",
      "type": "error"
    },
    {
      "inputs": [
        {
          "internalType": "uint256",
          "name": "apiKey",
          "type": "uint256"
        },
        {
          "internalType": "uint256",
          "name": "amount",
          "type": "uint256"
        }
      ],
      "name": "InsufficientBalance",
      "type": "error"
    },
    {
      "inputs": [
        {
          "internalType": "address",
          "name": "caller",
          "type": "address"
        }
      ],
      "name": "OnlyApiPayerOrPricingOperator",
      "type": "error"
    },
    {
      "inputs": [
        {
          "internalType": "uint256",
          "name": "apiKey",
          "type": "uint256"
        },
        {
          "internalType": "uint256",
          "name": "usageApiKey",
          "type": "uint256"
        }
      ],
      "name": "UsageApiKeyDoesNotExist",
      "type": "error"
    },
    {
      "inputs": [
        {
          "internalType": "uint256",
          "name": "apiKey",
          "type": "uint256"
        },
        {
          "internalType": "uint256",
          "name": "groupId",
          "type": "uint256"
        },
        {
          "internalType": "uint256",
          "name": "Wallet",
          "type": "uint256"
        }
      ],
      "name": "WalletDoesNotExist",
      "type": "error"
    },
    {
      "inputs": [
        {
          "internalType": "uint256",
          "name": "apiKeyHash",
          "type": "uint256"
        }
      ],
      "name": "accountExistsAndIsMutable",
      "outputs": [
        {
          "internalType": "bool",
          "name": "",
          "type": "bool"
        }
      ],
      "stateMutability": "view",
      "type": "function"
    },
    {
      "inputs": [
        {
          "internalType": "uint256",
          "name": "accountApiKeyHash",
          "type": "uint256"
        },
        {
          "internalType": "uint256",
          "name": "groupId",
          "type": "uint256"
        },
        {
          "internalType": "uint256",
          "name": "action",
          "type": "uint256"
        },
        {
          "internalType": "string",
          "name": "name",
          "type": "string"
        },
        {
          "internalType": "string",
          "name": "description",
          "type": "string"
        }
      ],
      "name": "addActionToGroup",
      "outputs": [],
      "stateMutability": "nonpayable",
      "type": "function"
    },
    {
      "inputs": [
        {
          "internalType": "uint256",
          "name": "accountApiKeyHash",
          "type": "uint256"
        },
        {
          "internalType": "uint256",
          "name": "usageApiKeyHash",
          "type": "uint256"
        },
        {
          "internalType": "uint256",
          "name": "expiration",
          "type": "uint256"
        },
        {
          "internalType": "uint256",
          "name": "balance",
          "type": "uint256"
        }
      ],
      "name": "addApiKey",
      "outputs": [],
      "stateMutability": "nonpayable",
      "type": "function"
    },
    {
      "inputs": [
        {
          "internalType": "uint256",
          "name": "accountApiKeyHash",
          "type": "uint256"
        },
        {
          "internalType": "string",
          "name": "name",
          "type": "string"
        },
        {
          "internalType": "string",
          "name": "description",
          "type": "string"
        },
        {
          "internalType": "uint256[]",
          "name": "permitted_actions",
          "type": "uint256[]"
        },
        {
          "internalType": "uint256[]",
          "name": "Wallets",
          "type": "uint256[]"
        },
        {
          "internalType": "bool",
          "name": "all_wallets_permitted",
          "type": "bool"
        },
        {
          "internalType": "bool",
          "name": "all_actions_permitted",
          "type": "bool"
        }
      ],
      "name": "addGroup",
      "outputs": [],
      "stateMutability": "nonpayable",
      "type": "function"
    },
    {
      "inputs": [
        {
          "internalType": "uint256",
          "name": "accountApiKeyHash",
          "type": "uint256"
        },
        {
          "internalType": "uint256",
          "name": "groupId",
          "type": "uint256"
        },
        {
          "internalType": "uint256",
          "name": "walletAddressHash",
          "type": "uint256"
        }
      ],
      "name": "addWalletToGroup",
      "outputs": [],
      "stateMutability": "nonpayable",
      "type": "function"
    },
    {
      "inputs": [],
      "name": "api_payer",
      "outputs": [
        {
          "internalType": "address",
          "name": "",
          "type": "address"
        }
      ],
      "stateMutability": "view",
      "type": "function"
    },
    {
      "inputs": [
        {
          "internalType": "uint256",
          "name": "apiKeyHash",
          "type": "uint256"
        },
        {
          "internalType": "uint256",
          "name": "amount",
          "type": "uint256"
        }
      ],
      "name": "creditApiKey",
      "outputs": [],
      "stateMutability": "nonpayable",
      "type": "function"
    },
    {
      "inputs": [
        {
          "internalType": "uint256",
          "name": "apiKeyHash",
          "type": "uint256"
        },
        {
          "internalType": "uint256",
          "name": "amount",
          "type": "uint256"
        }
      ],
      "name": "debitApiKey",
      "outputs": [],
      "stateMutability": "nonpayable",
      "type": "function"
    },
    {
      "inputs": [
        {
          "internalType": "uint256",
          "name": "pricingItemId",
          "type": "uint256"
        }
      ],
      "name": "getPricing",
      "outputs": [
        {
          "internalType": "uint256",
          "name": "",
          "type": "uint256"
        }
      ],
      "stateMutability": "view",
      "type": "function"
    },
    {
      "inputs": [
        {
          "internalType": "uint256",
          "name": "apiKeyHash",
          "type": "uint256"
        },
        {
          "internalType": "uint256",
          "name": "walletAddressHash",
          "type": "uint256"
        }
      ],
      "name": "getWalletDerivation",
      "outputs": [
        {
          "internalType": "uint256",
          "name": "",
          "type": "uint256"
        }
      ],
      "stateMutability": "view",
      "type": "function"
    },
    {
      "inputs": [
        {
          "internalType": "uint256",
          "name": "accountApiKeyHash",
          "type": "uint256"
        },
        {
          "internalType": "uint256",
          "name": "groupId",
          "type": "uint256"
        },
        {
          "internalType": "uint256",
          "name": "pageNumber",
          "type": "uint256"
        },
        {
          "internalType": "uint256",
          "name": "pageSize",
          "type": "uint256"
        }
      ],
      "name": "listActions",
      "outputs": [
        {
          "components": [
            {
              "internalType": "uint256",
              "name": "id",
              "type": "uint256"
            },
            {
              "internalType": "string",
              "name": "name",
              "type": "string"
            },
            {
              "internalType": "string",
              "name": "description",
              "type": "string"
            }
          ],
          "internalType": "struct AccountConfig.Metadata[]",
          "name": "",
          "type": "tuple[]"
        }
      ],
      "stateMutability": "view",
      "type": "function"
    },
    {
      "inputs": [
        {
          "internalType": "uint256",
          "name": "accountApiKeyHash",
          "type": "uint256"
        },
        {
          "internalType": "uint256",
          "name": "pageNumber",
          "type": "uint256"
        },
        {
          "internalType": "uint256",
          "name": "pageSize",
          "type": "uint256"
        }
      ],
      "name": "listApiKeys",
      "outputs": [
        {
          "components": [
            {
              "components": [
                {
                  "internalType": "uint256",
                  "name": "id",
                  "type": "uint256"
                },
                {
                  "internalType": "string",
                  "name": "name",
                  "type": "string"
                },
                {
                  "internalType": "string",
                  "name": "description",
                  "type": "string"
                }
              ],
              "internalType": "struct AccountConfig.Metadata",
              "name": "metadata",
              "type": "tuple"
            },
            {
              "internalType": "uint256",
              "name": "apiKeyHash",
              "type": "uint256"
            },
            {
              "internalType": "uint256",
              "name": "expiration",
              "type": "uint256"
            },
            {
              "internalType": "uint256",
              "name": "balance",
              "type": "uint256"
            }
          ],
          "internalType": "struct AccountConfig.UsageApiKey[]",
          "name": "",
          "type": "tuple[]"
        }
      ],
      "stateMutability": "view",
      "type": "function"
    },
    {
      "inputs": [
        {
          "internalType": "uint256",
          "name": "accountApiKeyHash",
          "type": "uint256"
        },
        {
          "internalType": "uint256",
          "name": "pageNumber",
          "type": "uint256"
        },
        {
          "internalType": "uint256",
          "name": "pageSize",
          "type": "uint256"
        }
      ],
      "name": "listGroups",
      "outputs": [
        {
          "components": [
            {
              "internalType": "uint256",
              "name": "id",
              "type": "uint256"
            },
            {
              "internalType": "string",
              "name": "name",
              "type": "string"
            },
            {
              "internalType": "string",
              "name": "description",
              "type": "string"
            }
          ],
          "internalType": "struct AccountConfig.Metadata[]",
          "name": "",
          "type": "tuple[]"
        }
      ],
      "stateMutability": "view",
      "type": "function"
    },
    {
      "inputs": [
        {
          "internalType": "uint256",
          "name": "accountApiKeyHash",
          "type": "uint256"
        },
        {
          "internalType": "uint256",
          "name": "pageNumber",
          "type": "uint256"
        },
        {
          "internalType": "uint256",
          "name": "pageSize",
          "type": "uint256"
        }
      ],
      "name": "listWallets",
      "outputs": [
        {
          "components": [
            {
              "internalType": "uint256",
              "name": "id",
              "type": "uint256"
            },
            {
              "internalType": "string",
              "name": "name",
              "type": "string"
            },
            {
              "internalType": "string",
              "name": "description",
              "type": "string"
            }
          ],
          "internalType": "struct AccountConfig.Metadata[]",
          "name": "",
          "type": "tuple[]"
        }
      ],
      "stateMutability": "view",
      "type": "function"
    },
    {
      "inputs": [
        {
          "internalType": "uint256",
          "name": "accountApiKeyHash",
          "type": "uint256"
        },
        {
          "internalType": "uint256",
          "name": "groupId",
          "type": "uint256"
        },
        {
          "internalType": "uint256",
          "name": "pageNumber",
          "type": "uint256"
        },
        {
          "internalType": "uint256",
          "name": "pageSize",
          "type": "uint256"
        }
      ],
      "name": "listWalletsInGroup",
      "outputs": [
        {
          "components": [
            {
              "internalType": "uint256",
              "name": "id",
              "type": "uint256"
            },
            {
              "internalType": "string",
              "name": "name",
              "type": "string"
            },
            {
              "internalType": "string",
              "name": "description",
              "type": "string"
            }
          ],
          "internalType": "struct AccountConfig.Metadata[]",
          "name": "",
          "type": "tuple[]"
        }
      ],
      "stateMutability": "view",
      "type": "function"
    },
    {
      "inputs": [
        {
          "internalType": "uint256",
          "name": "apiKeyHash",
          "type": "uint256"
        },
        {
          "internalType": "bool",
          "name": "managed",
          "type": "bool"
        },
        {
          "internalType": "string",
          "name": "accountName",
          "type": "string"
        },
        {
          "internalType": "string",
          "name": "accountDescription",
          "type": "string"
        },
        {
          "internalType": "address",
          "name": "creatorWalletAddress",
          "type": "address"
        },
        {
          "internalType": "uint256",
          "name": "initialBalance",
          "type": "uint256"
        }
      ],
      "name": "newAccount",
      "outputs": [],
      "stateMutability": "nonpayable",
      "type": "function"
    },
    {
      "inputs": [],
      "name": "nextWalletCount",
      "outputs": [
        {
          "internalType": "uint256",
          "name": "",
          "type": "uint256"
        }
      ],
      "stateMutability": "view",
      "type": "function"
    },
    {
      "inputs": [],
      "name": "pricing_operator",
      "outputs": [
        {
          "internalType": "address",
          "name": "",
          "type": "address"
        }
      ],
      "stateMutability": "view",
      "type": "function"
    },
    {
      "inputs": [
        {
          "internalType": "uint256",
          "name": "accountApiKeyHash",
          "type": "uint256"
        },
        {
          "internalType": "uint256",
          "name": "walletAddressHash",
          "type": "uint256"
        },
        {
          "internalType": "uint256",
          "name": "derivationPath",
          "type": "uint256"
        },
        {
          "internalType": "string",
          "name": "name",
          "type": "string"
        },
        {
          "internalType": "string",
          "name": "description",
          "type": "string"
        }
      ],
      "name": "registerWalletDerivation",
      "outputs": [],
      "stateMutability": "nonpayable",
      "type": "function"
    },
    {
      "inputs": [
        {
          "internalType": "uint256",
          "name": "accountApiKeyHash",
          "type": "uint256"
        },
        {
          "internalType": "uint256",
          "name": "groupId",
          "type": "uint256"
        },
        {
          "internalType": "uint256",
          "name": "action",
          "type": "uint256"
        }
      ],
      "name": "removeActionFromGroup",
      "outputs": [],
      "stateMutability": "nonpayable",
      "type": "function"
    },
    {
      "inputs": [
        {
          "internalType": "uint256",
          "name": "accountApiKeyHash",
          "type": "uint256"
        },
        {
          "internalType": "uint256",
          "name": "usageApiKeyHash",
          "type": "uint256"
        }
      ],
      "name": "removeUsageApiKey",
      "outputs": [],
      "stateMutability": "nonpayable",
      "type": "function"
    },
    {
      "inputs": [
        {
          "internalType": "uint256",
          "name": "accountApiKeyHash",
          "type": "uint256"
        },
        {
          "internalType": "uint256",
          "name": "groupId",
          "type": "uint256"
        },
        {
          "internalType": "uint256",
          "name": "walletAddressHash",
          "type": "uint256"
        }
      ],
      "name": "removeWalletFromGroup",
      "outputs": [],
      "stateMutability": "nonpayable",
      "type": "function"
    },
    {
      "inputs": [
        {
          "internalType": "uint256",
          "name": "pricingItemId",
          "type": "uint256"
        },
        {
          "internalType": "uint256",
          "name": "price",
          "type": "uint256"
        }
      ],
      "name": "setPricing",
      "outputs": [],
      "stateMutability": "nonpayable",
      "type": "function"
    },
    {
      "inputs": [
        {
          "internalType": "address",
          "name": "newPricingOperator",
          "type": "address"
        }
      ],
      "name": "setPricingOperator",
      "outputs": [],
      "stateMutability": "nonpayable",
      "type": "function"
    },
    {
      "inputs": [
        {
          "internalType": "uint256",
          "name": "accountApiKeyHash",
          "type": "uint256"
        },
        {
          "internalType": "uint256",
          "name": "actionHash",
          "type": "uint256"
        },
        {
          "internalType": "uint256",
          "name": "groupId",
          "type": "uint256"
        },
        {
          "internalType": "string",
          "name": "name",
          "type": "string"
        },
        {
          "internalType": "string",
          "name": "description",
          "type": "string"
        }
      ],
      "name": "updateActionMetadata",
      "outputs": [],
      "stateMutability": "nonpayable",
      "type": "function"
    },
    {
      "inputs": [
        {
          "internalType": "uint256",
          "name": "accountApiKeyHash",
          "type": "uint256"
        },
        {
          "internalType": "uint256",
          "name": "groupId",
          "type": "uint256"
        },
        {
          "internalType": "string",
          "name": "name",
          "type": "string"
        },
        {
          "internalType": "string",
          "name": "description",
          "type": "string"
        },
        {
          "internalType": "bool",
          "name": "all_wallets_permitted",
          "type": "bool"
        },
        {
          "internalType": "bool",
          "name": "all_actions_permitted",
          "type": "bool"
        }
      ],
      "name": "updateGroup",
      "outputs": [],
      "stateMutability": "nonpayable",
      "type": "function"
    },
    {
      "inputs": [
        {
          "internalType": "uint256",
          "name": "accountApiKeyHash",
          "type": "uint256"
        },
        {
          "internalType": "uint256",
          "name": "usageApiKeyHash",
          "type": "uint256"
        },
        {
          "internalType": "string",
          "name": "name",
          "type": "string"
        },
        {
          "internalType": "string",
          "name": "description",
          "type": "string"
        }
      ],
      "name": "updateUsageApiKeyMetadata",
      "outputs": [],
      "stateMutability": "nonpayable",
      "type": "function"
    }
  ],
  "bytecode": "0x6080604052348015600e575f5ffd5b503360045f6101000a81548173ffffffffffffffffffffffffffffffffffffffff021916908373ffffffffffffffffffffffffffffffffffffffff1602179055503360055f6101000a81548173ffffffffffffffffffffffffffffffffffffffff021916908373ffffffffffffffffffffffffffffffffffffffff1602179055506001600681905550600160035f600181526020019081526020015f2081905550613426806100bc5f395ff3fe608060405234801561000f575f5ffd5b50600436106101a7575f3560e01c806379b8e691116100f7578063c12f1a4211610095578063ca05588a1161006f578063ca05588a146104c1578063dbb17a0b146104dd578063e6ad2928146104f9578063f75c8b2d14610515576101a7565b8063c12f1a4214610445578063c5f5b98414610475578063c704668c14610491576101a7565b806396a7cc54116100d157806396a7cc54146103d5578063a6b6b672146103f1578063bac710ea1461040d578063bd9aed5114610429576101a7565b806379b8e691146103575780637af361ef146103875780638845698c146103b7576101a7565b8063542970ed116101645780636a3d77a91161013e5780636a3d77a9146102d35780636e06ac9c146102ef578063719fac431461030b578063749e4d071461033b576101a7565b8063542970ed1461026b5780635d861c721461029b578063683f2de8146102b7576101a7565b8063291ff1ea146101ab5780632fa92e41146101db57806340b4d453146101f75780634705161e1461021357806349717935146102315780634cd882ac1461024d575b5f5ffd5b6101c560048036038101906101c0919061242a565b610545565b6040516101d2919061261c565b60405180910390f35b6101f560048036038101906101f09190612768565b6107f6565b005b610211600480360381019061020c9190612817565b6108bf565b005b61021b610993565b6040516102289190612864565b60405180910390f35b61024b6004803603810190610246919061242a565b610999565b005b610255610a25565b60405161026291906128bc565b60405180910390f35b6102856004803603810190610280919061242a565b610a4a565b604051610292919061261c565b60405180910390f35b6102b560048036038101906102b091906128d5565b610cfb565b005b6102d160048036038101906102cc9190612817565b610d6e565b005b6102ed60048036038101906102e89190612925565b610df7565b005b610309600480360381019061030491906128d5565b610e67565b005b610325600480360381019061032091906129c1565b610eb4565b6040516103329190612a06565b60405180910390f35b61035560048036038101906103509190612b0d565b610fef565b005b610371600480360381019061036c9190612817565b61116b565b60405161037e9190612864565b60405180910390f35b6103a1600480360381019061039c91906128d5565b6111bb565b6040516103ae919061261c565b60405180910390f35b6103bf611435565b6040516103cc91906128bc565b60405180910390f35b6103ef60048036038101906103ea9190612c1a565b61145a565b005b61040b60048036038101906104069190612768565b611527565b005b610427600480360381019061042291906128d5565b611595565b005b610443600480360381019061043e9190612d05565b6115e1565b005b61045f600480360381019061045a91906129c1565b6116d5565b60405161046c9190612864565b60405180910390f35b61048f600480360381019061048a9190612817565b6116ef565b005b6104ab60048036038101906104a691906128d5565b611728565b6040516104b89190612ee1565b60405180910390f35b6104db60048036038101906104d69190612817565b6119d0565b005b6104f760048036038101906104f29190612768565b6119f3565b005b610513600480360381019061050e9190612f01565b611af5565b005b61052f600480360381019061052a91906128d5565b611b41565b60405161053c919061261c565b60405180910390f35b60606105518585611ddb565b5f5f5f8781526020019081526020015f2090505f81600f015f8781526020019081526020015f20905061058681600501611e2c565b84111561059f5761059981600501611e2c565b93505f94505b5f84866105ac9190612f59565b90505f85826105bb9190612f9a565b90506105c983600501611e2c565b8111156105df576105dc83600501611e2c565b90505b5f82826105ec9190612fcd565b90505f8167ffffffffffffffff81111561060957610608612644565b5b60405190808252806020026020018201604052801561064257816020015b61062f61239b565b8152602001906001900390816106275790505b5090505f5f90505b828110156107e457866016015f61067883886106669190612f9a565b89600501611e3f90919063ffffffff16565b81526020019081526020015f206040518060600160405290815f82015481526020016001820180546106a99061302d565b80601f01602080910402602001604051908101604052809291908181526020018280546106d59061302d565b80156107205780601f106106f757610100808354040283529160200191610720565b820191905f5260205f20905b81548152906001019060200180831161070357829003601f168201915b505050505081526020016002820180546107399061302d565b80601f01602080910402602001604051908101604052809291908181526020018280546107659061302d565b80156107b05780601f10610787576101008083540402835291602001916107b0565b820191905f5260205f20905b81548152906001019060200180831161079357829003601f168201915b5050505050815250508282815181106107cc576107cb61305d565b5b6020026020010181905250808060010191505061064a565b50809650505050505050949350505050565b6108008585611ddb565b5f5f5f8781526020019081526020015f20905061083b8482600f015f8881526020019081526020015f20600301611e5690919063ffffffff16565b5083816012015f8681526020019081526020015f205f018190555082816012015f8681526020019081526020015f206001019081610879919061322a565b5081816012015f8681526020019081526020015f20600201908161089d919061322a565b50806018015f8154809291906108b2906132f9565b9190505550505050505050565b6108c833611e6d565b6108d182611f5c565b5f60015f8481526020019081526020015f205490505f5f5f8381526020019081526020015f2090505f848260030160030154146109205781600c015f8681526020019081526020015f20610925565b816003015b905083816005015410156109725784846040517fcf479181000000000000000000000000000000000000000000000000000000008152600401610969929190613340565b60405180910390fd5b83816005015f8282546109859190612fcd565b925050819055505050505050565b60065481565b6109a284611f5c565b5f5f5f8681526020019081526020015f20600c015f8581526020019081526020015f209050838160030181905550828160040181905550818160050181905550610a07845f5f8881526020019081526020015f20600a01611e5690919063ffffffff16565b508460015f8681526020019081526020015f20819055505050505050565b60055f9054906101000a900473ffffffffffffffffffffffffffffffffffffffff1681565b6060610a568585611ddb565b5f5f5f8781526020019081526020015f2090505f81600f015f8781526020019081526020015f209050610a8b81600301611e2c565b841115610aa457610a9e81600301611e2c565b93505f94505b5f8486610ab19190612f59565b90505f8582610ac09190612f9a565b9050610ace83600301611e2c565b811115610ae457610ae183600301611e2c565b90505b5f8282610af19190612fcd565b90505f8167ffffffffffffffff811115610b0e57610b0d612644565b5b604051908082528060200260200182016040528015610b4757816020015b610b3461239b565b815260200190600190039081610b2c5790505b5090505f5f90505b82811015610ce957866012015f610b7d8388610b6b9190612f9a565b89600301611e3f90919063ffffffff16565b81526020019081526020015f206040518060600160405290815f8201548152602001600182018054610bae9061302d565b80601f0160208091040260200160405190810160405280929190818152602001828054610bda9061302d565b8015610c255780601f10610bfc57610100808354040283529160200191610c25565b820191905f5260205f20905b815481529060010190602001808311610c0857829003601f168201915b50505050508152602001600282018054610c3e9061302d565b80601f0160208091040260200160405190810160405280929190818152602001828054610c6a9061302d565b8015610cb55780601f10610c8c57610100808354040283529160200191610cb5565b820191905f5260205f20905b815481529060010190602001808311610c9857829003601f168201915b505050505081525050828281518110610cd157610cd061305d565b5b60200260200101819052508080600101915050610b4f565b50809650505050505050949350505050565b610d06838383611fa9565b5f5f5f8581526020019081526020015f209050610d418282600f015f8681526020019081526020015f20600301611ffe90919063ffffffff16565b505f81601801541115610d6857806018015f815480929190610d6290613367565b91905055505b50505050565b610d7733611e6d565b610d8082611f5c565b5f60015f8481526020019081526020015f205490505f5f5f8381526020019081526020015f2090505f84826003016003015414610dcf5781600c015f8681526020019081526020015f20610dd4565b816003015b905083816005015f828254610de99190612f9a565b925050819055505050505050565b610e018484612015565b5f5f5f8681526020019081526020015f2090508281600c015f8681526020019081526020015f205f016001019081610e39919061322a565b508181600c015f8681526020019081526020015f205f016002019081610e5f919061322a565b505050505050565b610e72838383612066565b5f5f5f8581526020019081526020015f209050610ead8282600f015f8681526020019081526020015f20600501611ffe90919063ffffffff16565b5050505050565b5f5f60015f8481526020019081526020015f205403610ed5575f9050610fea565b5f60015f8481526020019081526020015f205490505f5f5f8381526020019081526020015f20905081815f015f015414610f13575f92505050610fea565b60045f9054906101000a900473ffffffffffffffffffffffffffffffffffffffff1673ffffffffffffffffffffffffffffffffffffffff163373ffffffffffffffffffffffffffffffffffffffff16148015610f83575060011515816013015f9054906101000a900460ff161515145b15610f9357600192505050610fea565b3373ffffffffffffffffffffffffffffffffffffffff16816009015f9054906101000a900473ffffffffffffffffffffffffffffffffffffffff1673ffffffffffffffffffffffffffffffffffffffff1614925050505b919050565b610ff887611f5c565b5f5f5f8981526020019081526020015f209050611025816019015482600d01611e5690919063ffffffff16565b505f81600f015f836019015481526020019081526020015f2090508160190154815f015f018190555087815f016001019081611061919061322a565b5086815f016002019081611075919061322a565b505f5f90505b86518110156110c2576110b487828151811061109a5761109961305d565b5b602002602001015183600301611e5690919063ffffffff16565b50808060010191505061107b565b505f5f90505b855181101561110f576111018682815181106110e7576110e661305d565b5b602002602001015183600501611e5690919063ffffffff16565b5080806001019150506110c8565b5083816007015f6101000a81548160ff021916908315150217905550828160070160016101000a81548160ff021916908315150217905550816019015f81548092919061115b906132f9565b9190505550505050505050505050565b5f61117583611f5c565b5f60015f8581526020019081526020015f205490505f5f5f8381526020019081526020015f209050806015015f8581526020019081526020015f20549250505092915050565b60606111c684611f5c565b5f5f5f8681526020019081526020015f20905080601701548311156111f057806017015492505f93505b5f83856111fd9190612f59565b90505f848261120c9190612f9a565b9050826017015481111561122257826017015490505b5f828261122f9190612fcd565b90505f8167ffffffffffffffff81111561124c5761124b612644565b5b60405190808252806020026020018201604052801561128557816020015b61127261239b565b81526020019060019003908161126a5790505b5090505f5f90505b8281101561142557856016015f876014015f84896112ab9190612f9a565b81526020019081526020015f205481526020019081526020015f206040518060600160405290815f82015481526020016001820180546112ea9061302d565b80601f01602080910402602001604051908101604052809291908181526020018280546113169061302d565b80156113615780601f1061133857610100808354040283529160200191611361565b820191905f5260205f20905b81548152906001019060200180831161134457829003601f168201915b5050505050815260200160028201805461137a9061302d565b80601f01602080910402602001604051908101604052809291908181526020018280546113a69061302d565b80156113f15780601f106113c8576101008083540402835291602001916113f1565b820191905f5260205f20905b8154815290600101906020018083116113d457829003601f168201915b50505050508152505082828151811061140d5761140c61305d565b5b6020026020010181905250808060010191505061128d565b5080955050505050509392505050565b60045f9054906101000a900473ffffffffffffffffffffffffffffffffffffffff1681565b6114648686611ddb565b5f5f5f8881526020019081526020015f2090508481600f015f8881526020019081526020015f205f01600101908161149c919061322a565b508381600f015f8881526020019081526020015f205f0160020190816114c2919061322a565b508281600f015f8881526020019081526020015f206007015f6101000a81548160ff0219169083151502179055508181600f015f8881526020019081526020015f2060070160016101000a81548160ff02191690831515021790555050505050505050565b611532858486611fa9565b5f5f5f8781526020019081526020015f20905082816012015f8781526020019081526020015f206001019081611568919061322a565b5081816012015f8781526020019081526020015f20600201908161158c919061322a565b50505050505050565b61159f8383611ddb565b5f5f5f8581526020019081526020015f2090506115da8282600f015f8681526020019081526020015f20600501611e5690919063ffffffff16565b5050505050565b5f5f5f8881526020019081526020015f20905085816013015f6101000a81548160ff02191690831515021790555082816009015f6101000a81548173ffffffffffffffffffffffffffffffffffffffff021916908373ffffffffffffffffffffffffffffffffffffffff16021790555086815f015f018190555084815f01600101908161166e919061322a565b5083815f016002019081611682919061322a565b508681600301600301819055506312cc03004261169f9190612f9a565b81600301600401819055508181600301600501819055508660015f8981526020019081526020015f208190555050505050505050565b5f60035f8381526020019081526020015f20549050919050565b6116f98282612015565b5f5f5f8481526020019081526020015f2090506117228282600a01611ffe90919063ffffffff16565b50505050565b606061173384611f5c565b5f5f5f8681526020019081526020015f2090505f61175382600a01611e2c565b905080841115611764578093505f94505b5f84866117719190612f59565b90505f85826117809190612f9a565b90508281111561178e578290505b5f828261179b9190612fcd565b67ffffffffffffffff8111156117b4576117b3612644565b5b6040519080825280602002602001820160405280156117ed57816020015b6117da6123bb565b8152602001906001900390816117d25790505b5090505f5f90505b848110156119c05785600c015f61182383876118119190612f9a565b89600a01611e3f90919063ffffffff16565b81526020019081526020015f206040518060800160405290815f82016040518060600160405290815f82015481526020016001820180546118639061302d565b80601f016020809104026020016040519081016040528092919081815260200182805461188f9061302d565b80156118da5780601f106118b1576101008083540402835291602001916118da565b820191905f5260205f20905b8154815290600101906020018083116118bd57829003601f168201915b505050505081526020016002820180546118f39061302d565b80601f016020809104026020016040519081016040528092919081815260200182805461191f9061302d565b801561196a5780601f106119415761010080835404028352916020019161196a565b820191905f5260205f20905b81548152906001019060200180831161194d57829003601f168201915b505050505081525050815260200160038201548152602001600482015481526020016005820154815250508282815181106119a8576119a761305d565b5b602002602001018190525080806001019150506117f5565b5080955050505050509392505050565b6119d933611e6d565b8060035f8481526020019081526020015f20819055505050565b6119fc85611f5c565b5f5f5f8781526020019081526020015f20905083816015015f8781526020019081526020015f208190555084816016015f8781526020019081526020015f205f018190555082816016015f8781526020019081526020015f206001019081611a64919061322a565b5081816016015f8781526020019081526020015f206002019081611a88919061322a565b5084816014015f836017015481526020019081526020015f20819055508460025f60065481526020019081526020015f2081905550806017015f815480929190611ad1906132f9565b919050555060065f815480929190611ae8906132f9565b9190505550505050505050565b611afe33611e6d565b8060055f6101000a81548173ffffffffffffffffffffffffffffffffffffffff021916908373ffffffffffffffffffffffffffffffffffffffff16021790555050565b6060611b4c84611f5c565b5f5f5f8681526020019081526020015f209050611b6b81600d01611e2c565b831115611b8457611b7e81600d01611e2c565b92505f93505b5f8385611b919190612f59565b90505f8482611ba09190612f9a565b9050611bae83600d01611e2c565b811115611bc457611bc183600d01611e2c565b90505b5f8282611bd19190612fcd565b90505f8167ffffffffffffffff811115611bee57611bed612644565b5b604051908082528060200260200182016040528015611c2757816020015b611c1461239b565b815260200190600190039081611c0c5790505b5090505f5f90505b82811015611dcb5785600f015f611c5d8388611c4b9190612f9a565b89600d01611e3f90919063ffffffff16565b81526020019081526020015f205f016040518060600160405290815f8201548152602001600182018054611c909061302d565b80601f0160208091040260200160405190810160405280929190818152602001828054611cbc9061302d565b8015611d075780601f10611cde57610100808354040283529160200191611d07565b820191905f5260205f20905b815481529060010190602001808311611cea57829003601f168201915b50505050508152602001600282018054611d209061302d565b80601f0160208091040260200160405190810160405280929190818152602001828054611d4c9061302d565b8015611d975780601f10611d6e57610100808354040283529160200191611d97565b820191905f5260205f20905b815481529060010190602001808311611d7a57829003601f168201915b505050505081525050828281518110611db357611db261305d565b5b60200260200101819052508080600101915050611c2f565b5080955050505050509392505050565b611de582826120bb565b611e285781816040517f931a85b3000000000000000000000000000000000000000000000000000000008152600401611e1f929190613340565b60405180910390fd5b5050565b5f611e38825f016120fb565b9050919050565b5f611e4c835f018361210a565b5f1c905092915050565b5f611e65835f01835f1b612131565b905092915050565b60045f9054906101000a900473ffffffffffffffffffffffffffffffffffffffff1673ffffffffffffffffffffffffffffffffffffffff168173ffffffffffffffffffffffffffffffffffffffff1614158015611f17575060055f9054906101000a900473ffffffffffffffffffffffffffffffffffffffff1673ffffffffffffffffffffffffffffffffffffffff168173ffffffffffffffffffffffffffffffffffffffff1614155b15611f5957806040517f9ed88e07000000000000000000000000000000000000000000000000000000008152600401611f5091906128bc565b60405180910390fd5b50565b611f6581610eb4565b611fa657806040517fd4a84737000000000000000000000000000000000000000000000000000000008152600401611f9d9190612864565b60405180910390fd5b50565b611fb4838383612198565b611ff9578282826040517fef25d02d000000000000000000000000000000000000000000000000000000008152600401611ff09392919061338e565b60405180910390fd5b505050565b5f61200d835f01835f1b6121e3565b905092915050565b61201f82826122df565b6120625781816040517f748e712a000000000000000000000000000000000000000000000000000000008152600401612059929190613340565b60405180910390fd5b5050565b612071838383612319565b6120b6578282826040517f791678580000000000000000000000000000000000000000000000000000000081526004016120ad9392919061338e565b60405180910390fd5b505050565b5f6120c583611f5c565b5f5f5f8581526020019081526020015f20600f015f8481526020019081526020015f20905082815f015f01541491505092915050565b5f815f01805490509050919050565b5f825f0182815481106121205761211f61305d565b5b905f5260205f200154905092915050565b5f61213c8383612364565b61218e57825f0182908060018154018082558091505060019003905f5260205f20015f9091909190915055825f0180549050836001015f8481526020019081526020015f208190555060019050612192565b5f90505b92915050565b5f6121a38484611ddb565b6121da825f5f8781526020019081526020015f20600f015f8681526020019081526020015f2060030161238490919063ffffffff16565b90509392505050565b5f5f836001015f8481526020019081526020015f205490505f81146122d4575f6001826122109190612fcd565b90505f6001865f01805490506122269190612fcd565b905080821461228c575f865f0182815481106122455761224461305d565b5b905f5260205f200154905080875f0184815481106122665761226561305d565b5b905f5260205f20018190555083876001015f8381526020019081526020015f2081905550505b855f0180548061229f5761229e6133c3565b5b600190038181905f5260205f20015f90559055856001015f8681526020019081526020015f205f9055600193505050506122d9565b5f9150505b92915050565b5f6122e983611f5c565b815f5f8581526020019081526020015f20600c015f8481526020019081526020015f206003015414905092915050565b5f6123248484611ddb565b61235b825f5f8781526020019081526020015f20600f015f8681526020019081526020015f2060050161238490919063ffffffff16565b90509392505050565b5f5f836001015f8481526020019081526020015f20541415905092915050565b5f612393835f01835f1b612364565b905092915050565b60405180606001604052805f815260200160608152602001606081525090565b60405180608001604052806123ce61239b565b81526020015f81526020015f81526020015f81525090565b5f604051905090565b5f5ffd5b5f5ffd5b5f819050919050565b612409816123f7565b8114612413575f5ffd5b50565b5f8135905061242481612400565b92915050565b5f5f5f5f60808587031215612442576124416123ef565b5b5f61244f87828801612416565b945050602061246087828801612416565b935050604061247187828801612416565b925050606061248287828801612416565b91505092959194509250565b5f81519050919050565b5f82825260208201905092915050565b5f819050602082019050919050565b6124c0816123f7565b82525050565b5f81519050919050565b5f82825260208201905092915050565b8281835e5f83830152505050565b5f601f19601f8301169050919050565b5f612508826124c6565b61251281856124d0565b93506125228185602086016124e0565b61252b816124ee565b840191505092915050565b5f606083015f83015161254b5f8601826124b7565b506020830151848203602086015261256382826124fe565b9150506040830151848203604086015261257d82826124fe565b9150508091505092915050565b5f6125958383612536565b905092915050565b5f602082019050919050565b5f6125b38261248e565b6125bd8185612498565b9350836020820285016125cf856124a8565b805f5b8581101561260a57848403895281516125eb858261258a565b94506125f68361259d565b925060208a019950506001810190506125d2565b50829750879550505050505092915050565b5f6020820190508181035f83015261263481846125a9565b905092915050565b5f5ffd5b5f5ffd5b7f4e487b71000000000000000000000000000000000000000000000000000000005f52604160045260245ffd5b61267a826124ee565b810181811067ffffffffffffffff8211171561269957612698612644565b5b80604052505050565b5f6126ab6123e6565b90506126b78282612671565b919050565b5f67ffffffffffffffff8211156126d6576126d5612644565b5b6126df826124ee565b9050602081019050919050565b828183375f83830152505050565b5f61270c612707846126bc565b6126a2565b90508281526020810184848401111561272857612727612640565b5b6127338482856126ec565b509392505050565b5f82601f83011261274f5761274e61263c565b5b813561275f8482602086016126fa565b91505092915050565b5f5f5f5f5f60a08688031215612781576127806123ef565b5b5f61278e88828901612416565b955050602061279f88828901612416565b94505060406127b088828901612416565b935050606086013567ffffffffffffffff8111156127d1576127d06123f3565b5b6127dd8882890161273b565b925050608086013567ffffffffffffffff8111156127fe576127fd6123f3565b5b61280a8882890161273b565b9150509295509295909350565b5f5f6040838503121561282d5761282c6123ef565b5b5f61283a85828601612416565b925050602061284b85828601612416565b9150509250929050565b61285e816123f7565b82525050565b5f6020820190506128775f830184612855565b92915050565b5f73ffffffffffffffffffffffffffffffffffffffff82169050919050565b5f6128a68261287d565b9050919050565b6128b68161289c565b82525050565b5f6020820190506128cf5f8301846128ad565b92915050565b5f5f5f606084860312156128ec576128eb6123ef565b5b5f6128f986828701612416565b935050602061290a86828701612416565b925050604061291b86828701612416565b9150509250925092565b5f5f5f5f6080858703121561293d5761293c6123ef565b5b5f61294a87828801612416565b945050602061295b87828801612416565b935050604085013567ffffffffffffffff81111561297c5761297b6123f3565b5b6129888782880161273b565b925050606085013567ffffffffffffffff8111156129a9576129a86123f3565b5b6129b58782880161273b565b91505092959194509250565b5f602082840312156129d6576129d56123ef565b5b5f6129e384828501612416565b91505092915050565b5f8115159050919050565b612a00816129ec565b82525050565b5f602082019050612a195f8301846129f7565b92915050565b5f67ffffffffffffffff821115612a3957612a38612644565b5b602082029050602081019050919050565b5f5ffd5b5f612a60612a5b84612a1f565b6126a2565b90508083825260208201905060208402830185811115612a8357612a82612a4a565b5b835b81811015612aac5780612a988882612416565b845260208401935050602081019050612a85565b5050509392505050565b5f82601f830112612aca57612ac961263c565b5b8135612ada848260208601612a4e565b91505092915050565b612aec816129ec565b8114612af6575f5ffd5b50565b5f81359050612b0781612ae3565b92915050565b5f5f5f5f5f5f5f60e0888a031215612b2857612b276123ef565b5b5f612b358a828b01612416565b975050602088013567ffffffffffffffff811115612b5657612b556123f3565b5b612b628a828b0161273b565b965050604088013567ffffffffffffffff811115612b8357612b826123f3565b5b612b8f8a828b0161273b565b955050606088013567ffffffffffffffff811115612bb057612baf6123f3565b5b612bbc8a828b01612ab6565b945050608088013567ffffffffffffffff811115612bdd57612bdc6123f3565b5b612be98a828b01612ab6565b93505060a0612bfa8a828b01612af9565b92505060c0612c0b8a828b01612af9565b91505092959891949750929550565b5f5f5f5f5f5f60c08789031215612c3457612c336123ef565b5b5f612c4189828a01612416565b9650506020612c5289828a01612416565b955050604087013567ffffffffffffffff811115612c7357612c726123f3565b5b612c7f89828a0161273b565b945050606087013567ffffffffffffffff811115612ca057612c9f6123f3565b5b612cac89828a0161273b565b9350506080612cbd89828a01612af9565b92505060a0612cce89828a01612af9565b9150509295509295509295565b612ce48161289c565b8114612cee575f5ffd5b50565b5f81359050612cff81612cdb565b92915050565b5f5f5f5f5f5f60c08789031215612d1f57612d1e6123ef565b5b5f612d2c89828a01612416565b9650506020612d3d89828a01612af9565b955050604087013567ffffffffffffffff811115612d5e57612d5d6123f3565b5b612d6a89828a0161273b565b945050606087013567ffffffffffffffff811115612d8b57612d8a6123f3565b5b612d9789828a0161273b565b9350506080612da889828a01612cf1565b92505060a0612db989828a01612416565b9150509295509295509295565b5f81519050919050565b5f82825260208201905092915050565b5f819050602082019050919050565b5f608083015f8301518482035f860152612e098282612536565b9150506020830151612e1e60208601826124b7565b506040830151612e3160408601826124b7565b506060830151612e4460608601826124b7565b508091505092915050565b5f612e5a8383612def565b905092915050565b5f602082019050919050565b5f612e7882612dc6565b612e828185612dd0565b935083602082028501612e9485612de0565b805f5b85811015612ecf5784840389528151612eb08582612e4f565b9450612ebb83612e62565b925060208a01995050600181019050612e97565b50829750879550505050505092915050565b5f6020820190508181035f830152612ef98184612e6e565b905092915050565b5f60208284031215612f1657612f156123ef565b5b5f612f2384828501612cf1565b91505092915050565b7f4e487b71000000000000000000000000000000000000000000000000000000005f52601160045260245ffd5b5f612f63826123f7565b9150612f6e836123f7565b9250828202612f7c816123f7565b91508282048414831517612f9357612f92612f2c565b5b5092915050565b5f612fa4826123f7565b9150612faf836123f7565b9250828201905080821115612fc757612fc6612f2c565b5b92915050565b5f612fd7826123f7565b9150612fe2836123f7565b9250828203905081811115612ffa57612ff9612f2c565b5b92915050565b7f4e487b71000000000000000000000000000000000000000000000000000000005f52602260045260245ffd5b5f600282049050600182168061304457607f821691505b60208210810361305757613056613000565b5b50919050565b7f4e487b71000000000000000000000000000000000000000000000000000000005f52603260045260245ffd5b5f819050815f5260205f209050919050565b5f6020601f8301049050919050565b5f82821b905092915050565b5f600883026130e67fffffffffffffffffffffffffffffffffffffffffffffffffffffffffffffffff826130ab565b6130f086836130ab565b95508019841693508086168417925050509392505050565b5f819050919050565b5f61312b613126613121846123f7565b613108565b6123f7565b9050919050565b5f819050919050565b61314483613111565b61315861315082613132565b8484546130b7565b825550505050565b5f5f905090565b61316f613160565b61317a81848461313b565b505050565b5b8181101561319d576131925f82613167565b600181019050613180565b5050565b601f8211156131e2576131b38161308a565b6131bc8461309c565b810160208510156131cb578190505b6131df6131d78561309c565b83018261317f565b50505b505050565b5f82821c905092915050565b5f6132025f19846008026131e7565b1980831691505092915050565b5f61321a83836131f3565b9150826002028217905092915050565b613233826124c6565b67ffffffffffffffff81111561324c5761324b612644565b5b613256825461302d565b6132618282856131a1565b5f60209050601f831160018114613292575f8415613280578287015190505b61328a858261320f565b8655506132f1565b601f1984166132a08661308a565b5f5b828110156132c7578489015182556001820191506020850194506020810190506132a2565b868310156132e457848901516132e0601f8916826131f3565b8355505b6001600288020188555050505b505050505050565b5f613303826123f7565b91507fffffffffffffffffffffffffffffffffffffffffffffffffffffffffffffffff820361333557613334612f2c565b5b600182019050919050565b5f6040820190506133535f830185612855565b6133606020830184612855565b9392505050565b5f613371826123f7565b91505f820361338357613382612f2c565b5b600182039050919050565b5f6060820190506133a15f830186612855565b6133ae6020830185612855565b6133bb6040830184612855565b949350505050565b7f4e487b71000000000000000000000000000000000000000000000000000000005f52603160045260245ffdfea2646970667358221220a60f2dffe63a3aedc2f7ae2c5fd798fec1a8e3ca193a96871c290481aa2eb48e64736f6c634300081c0033",
  "linkReferences": {},
  "deployedLinkReferences": {},
  "immutableReferences": {},
  "inputSourceName": "project/contracts/AccountConfig.sol",
  "buildInfoId": "solc-0_8_28-e2797220d8a49f37addaebf120f9a6a74d1b8c96"
}