{
  "_format": "hh3-artifact-1",
  "contractName": "AccountConfig",
  "sourceName": "contracts/AccountConfig.sol",
  "abi": [
    {
      "inputs": [],
      "stateMutability": "nonpayable",
      "type": "constructor"
    },
    {
      "inputs": [
        {
          "internalType": "uint256",
          "name": "apiKeyHash",
          "type": "uint256"
        }
      ],
      "name": "AccountAlreadyExists",
      "type": "error"
    },
    {
      "inputs": [
        {
          "internalType": "uint256",
          "name": "apiKeyHash",
          "type": "uint256"
        }
      ],
      "name": "AccountDoesNotExist",
      "type": "error"
    },
    {
      "inputs": [
        {
          "internalType": "uint256",
          "name": "apiKeyHash",
          "type": "uint256"
        },
        {
          "internalType": "uint256",
          "name": "groupId",
          "type": "uint256"
        },
        {
          "internalType": "uint256",
          "name": "action",
          "type": "uint256"
        }
      ],
      "name": "ActionDoesNotExist",
      "type": "error"
    },
    {
      "inputs": [
        {
          "internalType": "uint256",
          "name": "apiKeyHash",
          "type": "uint256"
        },
        {
          "internalType": "uint256",
          "name": "groupId",
          "type": "uint256"
        }
      ],
      "name": "GroupDoesNotExist",
      "type": "error"
    },
    {
      "inputs": [
        {
          "internalType": "uint256",
          "name": "apiKeyHash",
          "type": "uint256"
        },
        {
          "internalType": "uint256",
          "name": "amount",
          "type": "uint256"
        }
      ],
      "name": "InsufficientBalance",
      "type": "error"
    },
    {
      "inputs": [
        {
          "internalType": "uint256",
          "name": "apiKeyHash",
          "type": "uint256"
        },
        {
          "internalType": "address",
          "name": "sender",
          "type": "address"
        }
      ],
      "name": "NoAccountAccess",
      "type": "error"
    },
    {
      "inputs": [
        {
          "internalType": "uint256",
          "name": "apiKeyHash",
          "type": "uint256"
        }
      ],
      "name": "NotMasterAccount",
      "type": "error"
    },
    {
      "inputs": [
        {
          "internalType": "address",
          "name": "caller",
          "type": "address"
        }
      ],
      "name": "OnlyApiPayer",
      "type": "error"
    },
    {
      "inputs": [
        {
          "internalType": "address",
          "name": "caller",
          "type": "address"
        }
      ],
      "name": "OnlyApiPayerOrPricingOperator",
      "type": "error"
    },
    {
      "inputs": [
        {
          "internalType": "uint256",
          "name": "apiKeyHash",
          "type": "uint256"
        },
        {
          "internalType": "uint256",
          "name": "usageApiKeyHash",
          "type": "uint256"
        }
      ],
      "name": "UsageApiKeyDoesNotExist",
      "type": "error"
    },
    {
      "inputs": [
        {
          "internalType": "uint256",
          "name": "apiKeyHash",
          "type": "uint256"
        },
        {
          "internalType": "uint256",
          "name": "groupId",
          "type": "uint256"
        },
        {
          "internalType": "uint256",
          "name": "Wallet",
          "type": "uint256"
        }
      ],
      "name": "WalletDoesNotExist",
      "type": "error"
    },
    {
      "inputs": [
        {
          "internalType": "uint256",
          "name": "apiKeyHash",
          "type": "uint256"
        }
      ],
      "name": "accountExistsAndIsMutable",
      "outputs": [
        {
          "internalType": "bool",
          "name": "",
          "type": "bool"
        }
      ],
      "stateMutability": "view",
      "type": "function"
    },
    {
      "inputs": [
        {
          "internalType": "uint256",
          "name": "accountApiKeyHash",
          "type": "uint256"
        },
        {
          "internalType": "uint256",
          "name": "groupId",
          "type": "uint256"
        },
        {
          "internalType": "uint256",
          "name": "action",
          "type": "uint256"
        },
        {
          "internalType": "string",
          "name": "name",
          "type": "string"
        },
        {
          "internalType": "string",
          "name": "description",
          "type": "string"
        }
      ],
      "name": "addActionToGroup",
      "outputs": [],
      "stateMutability": "nonpayable",
      "type": "function"
    },
    {
      "inputs": [
        {
          "internalType": "uint256",
          "name": "accountApiKeyHash",
          "type": "uint256"
        },
        {
          "internalType": "uint256",
          "name": "usageApiKeyHash",
          "type": "uint256"
        },
        {
          "internalType": "uint256",
          "name": "expiration",
          "type": "uint256"
        },
        {
          "internalType": "uint256",
          "name": "balance",
          "type": "uint256"
        }
      ],
      "name": "addApiKey",
      "outputs": [],
      "stateMutability": "nonpayable",
      "type": "function"
    },
    {
      "inputs": [
        {
          "internalType": "uint256",
          "name": "accountApiKeyHash",
          "type": "uint256"
        },
        {
          "internalType": "string",
          "name": "name",
          "type": "string"
        },
        {
          "internalType": "string",
          "name": "description",
          "type": "string"
        },
        {
          "internalType": "uint256[]",
          "name": "permitted_actions",
          "type": "uint256[]"
        },
        {
          "internalType": "uint256[]",
          "name": "Wallets",
          "type": "uint256[]"
        },
        {
          "internalType": "bool",
          "name": "all_wallets_permitted",
          "type": "bool"
        },
        {
          "internalType": "bool",
          "name": "all_actions_permitted",
          "type": "bool"
        }
      ],
      "name": "addGroup",
      "outputs": [],
      "stateMutability": "nonpayable",
      "type": "function"
    },
    {
      "inputs": [
        {
          "internalType": "uint256",
          "name": "accountApiKeyHash",
          "type": "uint256"
        },
        {
          "internalType": "uint256",
          "name": "groupId",
          "type": "uint256"
        },
        {
          "internalType": "uint256",
          "name": "walletAddressHash",
          "type": "uint256"
        }
      ],
      "name": "addWalletToGroup",
      "outputs": [],
      "stateMutability": "nonpayable",
      "type": "function"
    },
    {
      "inputs": [
        {
          "internalType": "uint256",
          "name": "index",
          "type": "uint256"
        }
      ],
      "name": "allWalletAddressesAt",
      "outputs": [
        {
          "internalType": "address",
          "name": "",
          "type": "address"
        }
      ],
      "stateMutability": "view",
      "type": "function"
    },
    {
      "inputs": [],
      "name": "api_payer",
      "outputs": [
        {
          "internalType": "address",
          "name": "",
          "type": "address"
        }
      ],
      "stateMutability": "view",
      "type": "function"
    },
    {
      "inputs": [
        {
          "internalType": "uint256",
          "name": "apiKeyHash",
          "type": "uint256"
        },
        {
          "internalType": "uint256",
          "name": "amount",
          "type": "uint256"
        }
      ],
      "name": "creditApiKey",
      "outputs": [],
      "stateMutability": "nonpayable",
      "type": "function"
    },
    {
      "inputs": [
        {
          "internalType": "uint256",
          "name": "apiKeyHash",
          "type": "uint256"
        },
        {
          "internalType": "uint256",
          "name": "amount",
          "type": "uint256"
        }
      ],
      "name": "debitApiKey",
      "outputs": [],
      "stateMutability": "nonpayable",
      "type": "function"
    },
    {
      "inputs": [
        {
          "internalType": "uint256",
          "name": "pricingItemId",
          "type": "uint256"
        }
      ],
      "name": "getPricing",
      "outputs": [
        {
          "internalType": "uint256",
          "name": "",
          "type": "uint256"
        }
      ],
      "stateMutability": "view",
      "type": "function"
    },
    {
      "inputs": [
        {
          "internalType": "uint256",
          "name": "apiKeyHash",
          "type": "uint256"
        },
        {
          "internalType": "address",
          "name": "walletAddress",
          "type": "address"
        }
      ],
      "name": "getWalletDerivation",
      "outputs": [
        {
          "internalType": "uint256",
          "name": "",
          "type": "uint256"
        }
      ],
      "stateMutability": "view",
      "type": "function"
    },
    {
      "inputs": [
        {
          "internalType": "uint256",
          "name": "index",
          "type": "uint256"
        }
      ],
      "name": "indexToAccountHashAt",
      "outputs": [
        {
          "internalType": "uint256",
          "name": "",
          "type": "uint256"
        }
      ],
      "stateMutability": "view",
      "type": "function"
    },
    {
      "inputs": [
        {
          "internalType": "uint256",
          "name": "accountApiKeyHash",
          "type": "uint256"
        },
        {
          "internalType": "uint256",
          "name": "groupId",
          "type": "uint256"
        },
        {
          "internalType": "uint256",
          "name": "pageNumber",
          "type": "uint256"
        },
        {
          "internalType": "uint256",
          "name": "pageSize",
          "type": "uint256"
        }
      ],
      "name": "listActions",
      "outputs": [
        {
          "components": [
            {
              "internalType": "uint256",
              "name": "id",
              "type": "uint256"
            },
            {
              "internalType": "string",
              "name": "name",
              "type": "string"
            },
            {
              "internalType": "string",
              "name": "description",
              "type": "string"
            }
          ],
          "internalType": "struct LibAccountConfigStorage.Metadata[]",
          "name": "",
          "type": "tuple[]"
        }
      ],
      "stateMutability": "view",
      "type": "function"
    },
    {
      "inputs": [
        {
          "internalType": "uint256",
          "name": "accountApiKeyHash",
          "type": "uint256"
        },
        {
          "internalType": "uint256",
          "name": "pageNumber",
          "type": "uint256"
        },
        {
          "internalType": "uint256",
          "name": "pageSize",
          "type": "uint256"
        }
      ],
      "name": "listApiKeys",
      "outputs": [
        {
          "components": [
            {
              "components": [
                {
                  "internalType": "uint256",
                  "name": "id",
                  "type": "uint256"
                },
                {
                  "internalType": "string",
                  "name": "name",
                  "type": "string"
                },
                {
                  "internalType": "string",
                  "name": "description",
                  "type": "string"
                }
              ],
              "internalType": "struct LibAccountConfigStorage.Metadata",
              "name": "metadata",
              "type": "tuple"
            },
            {
              "internalType": "uint256",
              "name": "apiKeyHash",
              "type": "uint256"
            },
            {
              "internalType": "uint256",
              "name": "expiration",
              "type": "uint256"
            },
            {
              "internalType": "uint256",
              "name": "balance",
              "type": "uint256"
            },
            {
              "internalType": "bool",
              "name": "runActions",
              "type": "bool"
            },
            {
              "internalType": "bool",
              "name": "manageGroups",
              "type": "bool"
            },
            {
              "internalType": "bool",
              "name": "manageWallets",
              "type": "bool"
            },
            {
              "internalType": "bool",
              "name": "manageIPFSIds",
              "type": "bool"
            },
            {
              "internalType": "bool",
              "name": "manageUsageApiKeys",
              "type": "bool"
            }
          ],
          "internalType": "struct LibAccountConfigStorage.UsageApiKey[]",
          "name": "",
          "type": "tuple[]"
        }
      ],
      "stateMutability": "view",
      "type": "function"
    },
    {
      "inputs": [
        {
          "internalType": "uint256",
          "name": "accountApiKeyHash",
          "type": "uint256"
        },
        {
          "internalType": "uint256",
          "name": "pageNumber",
          "type": "uint256"
        },
        {
          "internalType": "uint256",
          "name": "pageSize",
          "type": "uint256"
        }
      ],
      "name": "listGroups",
      "outputs": [
        {
          "components": [
            {
              "internalType": "uint256",
              "name": "id",
              "type": "uint256"
            },
            {
              "internalType": "string",
              "name": "name",
              "type": "string"
            },
            {
              "internalType": "string",
              "name": "description",
              "type": "string"
            }
          ],
          "internalType": "struct LibAccountConfigStorage.Metadata[]",
          "name": "",
          "type": "tuple[]"
        }
      ],
      "stateMutability": "view",
      "type": "function"
    },
    {
      "inputs": [
        {
          "internalType": "uint256",
          "name": "accountApiKeyHash",
          "type": "uint256"
        },
        {
          "internalType": "uint256",
          "name": "pageNumber",
          "type": "uint256"
        },
        {
          "internalType": "uint256",
          "name": "pageSize",
          "type": "uint256"
        }
      ],
      "name": "listWallets",
      "outputs": [
        {
          "components": [
            {
              "internalType": "uint256",
              "name": "id",
              "type": "uint256"
            },
            {
              "internalType": "string",
              "name": "name",
              "type": "string"
            },
            {
              "internalType": "string",
              "name": "description",
              "type": "string"
            },
            {
              "internalType": "address",
              "name": "walletAddress",
              "type": "address"
            }
          ],
          "internalType": "struct LibAccountConfigStorage.WalletData[]",
          "name": "",
          "type": "tuple[]"
        }
      ],
      "stateMutability": "view",
      "type": "function"
    },
    {
      "inputs": [
        {
          "internalType": "uint256",
          "name": "accountApiKeyHash",
          "type": "uint256"
        },
        {
          "internalType": "uint256",
          "name": "groupId",
          "type": "uint256"
        },
        {
          "internalType": "uint256",
          "name": "pageNumber",
          "type": "uint256"
        },
        {
          "internalType": "uint256",
          "name": "pageSize",
          "type": "uint256"
        }
      ],
      "name": "listWalletsInGroup",
      "outputs": [
        {
          "components": [
            {
              "internalType": "uint256",
              "name": "id",
              "type": "uint256"
            },
            {
              "internalType": "string",
              "name": "name",
              "type": "string"
            },
            {
              "internalType": "string",
              "name": "description",
              "type": "string"
            },
            {
              "internalType": "address",
              "name": "walletAddress",
              "type": "address"
            }
          ],
          "internalType": "struct LibAccountConfigStorage.WalletData[]",
          "name": "",
          "type": "tuple[]"
        }
      ],
      "stateMutability": "view",
      "type": "function"
    },
    {
      "inputs": [
        {
          "internalType": "uint256",
          "name": "apiKeyHash",
          "type": "uint256"
        },
        {
          "internalType": "bool",
          "name": "managed",
          "type": "bool"
        },
        {
          "internalType": "string",
          "name": "accountName",
          "type": "string"
        },
        {
          "internalType": "string",
          "name": "accountDescription",
          "type": "string"
        },
        {
          "internalType": "address",
          "name": "creatorWalletAddress",
          "type": "address"
        }
      ],
      "name": "newAccount",
      "outputs": [],
      "stateMutability": "nonpayable",
      "type": "function"
    },
    {
      "inputs": [],
      "name": "nextAccountCount",
      "outputs": [
        {
          "internalType": "uint256",
          "name": "",
          "type": "uint256"
        }
      ],
      "stateMutability": "view",
      "type": "function"
    },
    {
      "inputs": [],
      "name": "nextWalletCount",
      "outputs": [
        {
          "internalType": "uint256",
          "name": "",
          "type": "uint256"
        }
      ],
      "stateMutability": "view",
      "type": "function"
    },
    {
      "inputs": [
        {
          "internalType": "uint256",
          "name": "index",
          "type": "uint256"
        }
      ],
      "name": "pricingAt",
      "outputs": [
        {
          "internalType": "uint256",
          "name": "",
          "type": "uint256"
        }
      ],
      "stateMutability": "view",
      "type": "function"
    },
    {
      "inputs": [],
      "name": "pricing_operator",
      "outputs": [
        {
          "internalType": "address",
          "name": "",
          "type": "address"
        }
      ],
      "stateMutability": "view",
      "type": "function"
    },
    {
      "inputs": [
        {
          "internalType": "uint256",
          "name": "accountApiKeyHash",
          "type": "uint256"
        },
        {
          "internalType": "address",
          "name": "walletAddress",
          "type": "address"
        },
        {
          "internalType": "uint256",
          "name": "derivationPath",
          "type": "uint256"
        },
        {
          "internalType": "string",
          "name": "name",
          "type": "string"
        },
        {
          "internalType": "string",
          "name": "description",
          "type": "string"
        }
      ],
      "name": "registerWalletDerivation",
      "outputs": [],
      "stateMutability": "nonpayable",
      "type": "function"
    },
    {
      "inputs": [
        {
          "internalType": "uint256",
          "name": "accountApiKeyHash",
          "type": "uint256"
        },
        {
          "internalType": "uint256",
          "name": "groupId",
          "type": "uint256"
        },
        {
          "internalType": "uint256",
          "name": "action",
          "type": "uint256"
        }
      ],
      "name": "removeActionFromGroup",
      "outputs": [],
      "stateMutability": "nonpayable",
      "type": "function"
    },
    {
      "inputs": [
        {
          "internalType": "uint256",
          "name": "accountApiKeyHash",
          "type": "uint256"
        },
        {
          "internalType": "uint256",
          "name": "usageApiKeyHash",
          "type": "uint256"
        }
      ],
      "name": "removeUsageApiKey",
      "outputs": [],
      "stateMutability": "nonpayable",
      "type": "function"
    },
    {
      "inputs": [
        {
          "internalType": "uint256",
          "name": "accountApiKeyHash",
          "type": "uint256"
        },
        {
          "internalType": "uint256",
          "name": "groupId",
          "type": "uint256"
        },
        {
          "internalType": "uint256",
          "name": "walletAddressHash",
          "type": "uint256"
        }
      ],
      "name": "removeWalletFromGroup",
      "outputs": [],
      "stateMutability": "nonpayable",
      "type": "function"
    },
    {
      "inputs": [
        {
          "internalType": "uint256",
          "name": "pricingItemId",
          "type": "uint256"
        },
        {
          "internalType": "uint256",
          "name": "price",
          "type": "uint256"
        }
      ],
      "name": "setPricing",
      "outputs": [],
      "stateMutability": "nonpayable",
      "type": "function"
    },
    {
      "inputs": [
        {
          "internalType": "address",
          "name": "newPricingOperator",
          "type": "address"
        }
      ],
      "name": "setPricingOperator",
      "outputs": [],
      "stateMutability": "nonpayable",
      "type": "function"
    },
    {
      "inputs": [
        {
          "internalType": "uint256",
          "name": "accountApiKeyHash",
          "type": "uint256"
        },
        {
          "internalType": "uint256",
          "name": "actionHash",
          "type": "uint256"
        },
        {
          "internalType": "uint256",
          "name": "groupId",
          "type": "uint256"
        },
        {
          "internalType": "string",
          "name": "name",
          "type": "string"
        },
        {
          "internalType": "string",
          "name": "description",
          "type": "string"
        }
      ],
      "name": "updateActionMetadata",
      "outputs": [],
      "stateMutability": "nonpayable",
      "type": "function"
    },
    {
      "inputs": [
        {
          "internalType": "uint256",
          "name": "accountApiKeyHash",
          "type": "uint256"
        },
        {
          "internalType": "uint256",
          "name": "groupId",
          "type": "uint256"
        },
        {
          "internalType": "string",
          "name": "name",
          "type": "string"
        },
        {
          "internalType": "string",
          "name": "description",
          "type": "string"
        },
        {
          "internalType": "bool",
          "name": "all_wallets_permitted",
          "type": "bool"
        },
        {
          "internalType": "bool",
          "name": "all_actions_permitted",
          "type": "bool"
        }
      ],
      "name": "updateGroup",
      "outputs": [],
      "stateMutability": "nonpayable",
      "type": "function"
    },
    {
      "inputs": [
        {
          "internalType": "uint256",
          "name": "accountApiKeyHash",
          "type": "uint256"
        },
        {
          "internalType": "uint256",
          "name": "usageApiKeyHash",
          "type": "uint256"
        },
        {
          "internalType": "string",
          "name": "name",
          "type": "string"
        },
        {
          "internalType": "string",
          "name": "description",
          "type": "string"
        }
      ],
      "name": "updateUsageApiKeyMetadata",
      "outputs": [],
      "stateMutability": "nonpayable",
      "type": "function"
    }
  ],
  "bytecode": "0x608060405234801561000f575f5ffd5b5061001e61002360201b60201c565b61021e565b5f61003261017a60201b60201c565b90505f73ffffffffffffffffffffffffffffffffffffffff16816005015f9054906101000a900473ffffffffffffffffffffffffffffffffffffffff1673ffffffffffffffffffffffffffffffffffffffff16146100c5576040517f08c379a00000000000000000000000000000000000000000000000000000000081526004016100bc90610200565b60405180910390fd5b33816005015f6101000a81548173ffffffffffffffffffffffffffffffffffffffff021916908373ffffffffffffffffffffffffffffffffffffffff16021790555033816006015f6101000a81548173ffffffffffffffffffffffffffffffffffffffff021916908373ffffffffffffffffffffffffffffffffffffffff16021790555060018160070181905550600181600801819055506001816004015f600181526020019081526020015f208190555050565b5f5f7f171def12e82c8f3351e4c79b7854be19ad60a75b888f74b9660c07cd7461963390508091505090565b5f82825260208201905092915050565b7f616c726561647920696e697469616c697a6564000000000000000000000000005f82015250565b5f6101ea6013836101a6565b91506101f5826101b6565b602082019050919050565b5f6020820190508181035f830152610217816101de565b9050919050565b6141f98061022b5f395ff3fe608060405234801561000f575f5ffd5b50600436106101e3575f3560e01c8063793122451161010d578063c12f1a42116100a0578063ca05588a1161006f578063ca05588a14610597578063ccb78fb6146105b3578063e6ad2928146105e3578063f75c8b2d146105ff576101e3565b8063c12f1a42146104eb578063c1aff8991461051b578063c5f5b9841461054b578063c704668c14610567576101e3565b806392141552116100dc578063921415521461047b57806396a7cc5414610497578063a6b6b672146104b3578063bac710ea146104cf576101e3565b806379312245146103e15780637af361ef146103fd5780638845698c1461042d57806390222cad1461044b576101e3565b8063542970ed116101855780636e06ac9c116101545780636e06ac9c146103495780636fe1fb8414610365578063719fac4314610395578063749e4d07146103c5576101e3565b8063542970ed146102c55780635d861c72146102f5578063683f2de8146103115780636a3d77a91461032d576101e3565b806340b4d453116101c157806340b4d453146102515780634705161e1461026d578063497179351461028b5780634cd882ac146102a7576101e3565b80630f9a6021146101e7578063291ff1ea146102055780632fa92e4114610235575b5f5ffd5b6101ef61062f565b6040516101fc9190612f0d565b60405180910390f35b61021f600480360381019061021a9190612f61565b610641565b60405161022c91906131a5565b60405180910390f35b61024f600480360381019061024a91906132f1565b6109f7565b005b61026b600480360381019061026691906133a0565b610ad7565b005b610275610bc2565b6040516102829190612f0d565b60405180910390f35b6102a560048036038101906102a09190612f61565b610bd4565b005b6102af610d16565b6040516102bc91906133ed565b60405180910390f35b6102df60048036038101906102da9190612f61565b610d47565b6040516102ec9190613515565b60405180910390f35b61030f600480360381019061030a9190613535565b610f93565b005b61032b600480360381019061032691906133a0565b61101d565b005b61034760048036038101906103429190613585565b6110bd565b005b610363600480360381019061035e9190613535565b611159565b005b61037f600480360381019061037a9190613621565b6111c1565b60405161038c9190612f0d565b60405180910390f35b6103af60048036038101906103aa9190613621565b6111e4565b6040516103bc9190613666565b60405180910390f35b6103df60048036038101906103da919061376d565b6111f6565b005b6103fb60048036038101906103f691906138a4565b611389565b005b61041760048036038101906104129190613535565b6115bd565b60405161042491906131a5565b60405180910390f35b61043561192e565b60405161044291906133ed565b60405180910390f35b61046560048036038101906104609190613953565b61195f565b6040516104729190612f0d565b60405180910390f35b61049560048036038101906104909190613991565b6119b7565b005b6104b160048036038101906104ac9190613a40565b611bb4565b005b6104cd60048036038101906104c891906132f1565b611c62565b005b6104e960048036038101906104e49190613535565b611ce7565b005b61050560048036038101906105009190613621565b611d45565b6040516105129190612f0d565b60405180910390f35b61053560048036038101906105309190613621565b611d68565b6040516105429190612f0d565b60405180910390f35b610565600480360381019061056091906133a0565b611d8b565b005b610581600480360381019061057c9190613535565b611eb2565b60405161058e9190613c8d565b60405180910390f35b6105b160048036038101906105ac91906133a0565b61219e565b005b6105cd60048036038101906105c89190613621565b6121ca565b6040516105da91906133ed565b60405180910390f35b6105fd60048036038101906105f89190613cad565b61220c565b005b61061960048036038101906106149190613535565b612261565b6040516106269190613515565b60405180910390f35b5f610638612497565b60080154905090565b60605f61064d866124c3565b90505f610658612497565b90505f82600d015f8881526020019081526020015f2090505f5f6106886106818460050161254a565b898961255d565b915091505f8167ffffffffffffffff8111156106a7576106a66131cd565b5b6040519080825280602002602001820160405280156106e057816020015b6106cd612ded565b8152602001906001900390816106c55790505b5090505f5f90505b828110156109e5575f61071282866107009190613d05565b876005016125c790919063ffffffff16565b90505f876003015f8381526020019081526020015f205f9054906101000a900473ffffffffffffffffffffffffffffffffffffffff1690508084848151811061075e5761075d613d38565b5b60200260200101516060019073ffffffffffffffffffffffffffffffffffffffff16908173ffffffffffffffffffffffffffffffffffffffff1681525050886012015f8273ffffffffffffffffffffffffffffffffffffffff1673ffffffffffffffffffffffffffffffffffffffff1681526020019081526020015f2060010180546107e990613d92565b80601f016020809104026020016040519081016040528092919081815260200182805461081590613d92565b80156108605780601f1061083757610100808354040283529160200191610860565b820191905f5260205f20905b81548152906001019060200180831161084357829003601f168201915b505050505084848151811061087857610877613d38565b5b602002602001015160200181905250886012015f8273ffffffffffffffffffffffffffffffffffffffff1673ffffffffffffffffffffffffffffffffffffffff1681526020019081526020015f2060020180546108d490613d92565b80601f016020809104026020016040519081016040528092919081815260200182805461090090613d92565b801561094b5780601f106109225761010080835404028352916020019161094b565b820191905f5260205f20905b81548152906001019060200180831161092e57829003601f168201915b505050505084848151811061096357610962613d38565b5b602002602001015160400181905250886012015f8273ffffffffffffffffffffffffffffffffffffffff1673ffffffffffffffffffffffffffffffffffffffff1681526020019081526020015f205f01548484815181106109c7576109c6613d38565b5b60200260200101515f018181525050505080806001019150506106e8565b50809650505050505050949350505050565b610a0185856125de565b610a0a856125f5565b5f610a13612497565b90505f815f015f8881526020019081526020015f209050610a528582600d015f8981526020019081526020015f2060030161265b90919063ffffffff16565b5084816010015f8781526020019081526020015f205f018190555083816010015f8781526020019081526020015f206001019081610a909190613f62565b5082816010015f8781526020019081526020015f206002019081610ab49190613f62565b50806015015f815480929190610ac990614031565b919050555050505050505050565b610ae033612672565b610ae982612686565b610af2826125f5565b5f610afb612497565b90505f816002015f8581526020019081526020015f205490505f825f015f8381526020019081526020015f2090505f85825f016003015414610b4f5781600a015f8781526020019081526020015f20610b53565b815f015b90508481600501541015610ba05785856040517fcf479181000000000000000000000000000000000000000000000000000000008152600401610b97929190614078565b60405180910390fd5b84816005015f828254610bb3919061409f565b92505081905550505050505050565b5f610bcb612497565b60070154905090565b610bdd84612686565b5f610be6612497565b90505f816002015f8781526020019081526020015f205490505f825f015f8381526020019081526020015f20600a015f8781526020019081526020015f2090508581600301819055508481600401819055508381600501819055506001816006015f6101000a81548160ff0219169083151502179055505f8160060160016101000a81548160ff0219169083151502179055505f8160060160026101000a81548160ff0219169083151502179055505f8160060160036101000a81548160ff0219169083151502179055505f8160060160046101000a81548160ff021916908315150217905550610cf486845f015f8581526020019081526020015f2060080161265b90919063ffffffff16565b5081836002015f8881526020019081526020015f208190555050505050505050565b5f610d1f612497565b6006015f9054906101000a900473ffffffffffffffffffffffffffffffffffffffff16905090565b60605f610d53866124c3565b90505f81600d015f8781526020019081526020015f2090505f610d788260030161254a565b90505f5f610d8783898961255d565b915091505f8167ffffffffffffffff811115610da657610da56131cd565b5b604051908082528060200260200182016040528015610ddf57816020015b610dcc612e29565b815260200190600190039081610dc45790505b5090505f5f90505b82811015610f8157866010015f610e158387610e039190613d05565b896003016125c790919063ffffffff16565b81526020019081526020015f206040518060600160405290815f8201548152602001600182018054610e4690613d92565b80601f0160208091040260200160405190810160405280929190818152602001828054610e7290613d92565b8015610ebd5780601f10610e9457610100808354040283529160200191610ebd565b820191905f5260205f20905b815481529060010190602001808311610ea057829003601f168201915b50505050508152602001600282018054610ed690613d92565b80601f0160208091040260200160405190810160405280929190818152602001828054610f0290613d92565b8015610f4d5780601f10610f2457610100808354040283529160200191610f4d565b820191905f5260205f20905b815481529060010190602001808311610f3057829003601f168201915b505050505081525050828281518110610f6957610f68613d38565b5b60200260200101819052508080600101915050610de7565b50809650505050505050949350505050565b610f9e838383612693565b610fa7836125f5565b5f610fb0612497565b90505f815f015f8681526020019081526020015f209050610fef8382600d015f8781526020019081526020015f2060030161272c90919063ffffffff16565b505f8160150154111561101657806015015f815480929190611010906140d2565b91905055505b5050505050565b61102633612672565b61102f82612686565b611038826125f5565b5f611041612497565b90505f816002015f8581526020019081526020015f205490505f825f015f8381526020019081526020015f2090505f85825f0160030154146110955781600a015f8781526020019081526020015f20611099565b815f015b905084816005015f8282546110ae9190613d05565b92505081905550505050505050565b6110c684612686565b6110d08484612743565b6110d9846125f5565b5f6110e2612497565b905082815f015f8781526020019081526020015f20600a015f8681526020019081526020015f205f01600101908161111a9190613f62565b5081815f015f8781526020019081526020015f20600a015f8681526020019081526020015f205f0160020190816111519190613f62565b505050505050565b61116283612686565b61116d8383836127c0565b611176836125f5565b5f61117f612497565b90506111ba82825f015f8781526020019081526020015f20600d015f8681526020019081526020015f2060050161272c90919063ffffffff16565b5050505050565b5f6111ca612497565b6001015f8381526020019081526020015f20549050919050565b5f6111ef8233612859565b9050919050565b6111ff87612686565b611208876125f5565b5f611211612497565b90505f815f015f8a81526020019081526020015f209050611242816016015482600b0161265b90919063ffffffff16565b505f81600d015f836016015481526020019081526020015f2090508160160154815f015f018190555088815f01600101908161127e9190613f62565b5087815f0160020190816112929190613f62565b505f5f90505b87518110156112df576112d18882815181106112b7576112b6613d38565b5b60200260200101518360030161265b90919063ffffffff16565b508080600101915050611298565b505f5f90505b865181101561132c5761131e87828151811061130457611303613d38565b5b60200260200101518360050161265b90919063ffffffff16565b5080806001019150506112e5565b5084816007015f6101000a81548160ff021916908315150217905550838160070160016101000a81548160ff021916908315150217905550816016015f81548092919061137890614031565b919050555050505050505050505050565b6113923361299b565b5f61139b612497565b90505f816002015f8881526020019081526020015f2054146113f457856040517f8be1f3fb0000000000000000000000000000000000000000000000000000000081526004016113eb9190612f0d565b60405180910390fd5b5f815f015f8881526020019081526020015f20905085816013015f6101000a81548160ff02191690831515021790555082816007015f6101000a81548173ffffffffffffffffffffffffffffffffffffffff021916908373ffffffffffffffffffffffffffffffffffffffff16021790555086815f015f015f018190555084815f015f0160010190816114879190613f62565b5083815f015f01600201908161149d9190613f62565b505f815f016006015f6101000a81548160ff0219169083151502179055506001815f0160060160016101000a81548160ff0219169083151502179055506001815f0160060160026101000a81548160ff0219169083151502179055506001815f0160060160036101000a81548160ff0219169083151502179055506001815f0160060160046101000a81548160ff02191690831515021790555086815f01600301819055506312cc0300426115529190613d05565b815f01600401819055505f815f016005018190555086826002015f8981526020019081526020015f208190555086826001015f846008015481526020019081526020015f2081905550816008015f8154809291906115af90614031565b919050555050505050505050565b60605f6115c9856124c3565b90505f5f6115dc8360140154878761255d565b915091505f8167ffffffffffffffff8111156115fb576115fa6131cd565b5b60405190808252806020026020018201604052801561163457816020015b611621612ded565b8152602001906001900390816116195790505b5090505f5f90505b8281101561191f575f856011015f83876116569190613d05565b81526020019081526020015f205f9054906101000a900473ffffffffffffffffffffffffffffffffffffffff1690508083838151811061169957611698613d38565b5b60200260200101516060019073ffffffffffffffffffffffffffffffffffffffff16908173ffffffffffffffffffffffffffffffffffffffff1681525050856012015f8273ffffffffffffffffffffffffffffffffffffffff1673ffffffffffffffffffffffffffffffffffffffff1681526020019081526020015f20600101805461172490613d92565b80601f016020809104026020016040519081016040528092919081815260200182805461175090613d92565b801561179b5780601f106117725761010080835404028352916020019161179b565b820191905f5260205f20905b81548152906001019060200180831161177e57829003601f168201915b50505050508383815181106117b3576117b2613d38565b5b602002602001015160200181905250856012015f8273ffffffffffffffffffffffffffffffffffffffff1673ffffffffffffffffffffffffffffffffffffffff1681526020019081526020015f20600201805461180f90613d92565b80601f016020809104026020016040519081016040528092919081815260200182805461183b90613d92565b80156118865780601f1061185d57610100808354040283529160200191611886565b820191905f5260205f20905b81548152906001019060200180831161186957829003601f168201915b505050505083838151811061189e5761189d613d38565b5b602002602001015160400181905250856012015f8273ffffffffffffffffffffffffffffffffffffffff1673ffffffffffffffffffffffffffffffffffffffff1681526020019081526020015f205f015483838151811061190257611901613d38565b5b60200260200101515f01818152505050808060010191505061163c565b50809450505050509392505050565b5f611937612497565b6005015f9054906101000a900473ffffffffffffffffffffffffffffffffffffffff16905090565b5f5f61196a846124c3565b9050806012015f8473ffffffffffffffffffffffffffffffffffffffff1673ffffffffffffffffffffffffffffffffffffffff1681526020019081526020015f205f015491505092915050565b6119c085612686565b6119c9856125f5565b5f6119d2612497565b90505f815f015f8881526020019081526020015f20905084816012015f8873ffffffffffffffffffffffffffffffffffffffff1673ffffffffffffffffffffffffffffffffffffffff1681526020019081526020015f205f018190555083816012015f8873ffffffffffffffffffffffffffffffffffffffff1673ffffffffffffffffffffffffffffffffffffffff1681526020019081526020015f206001019081611a7e9190613f62565b5082816012015f8873ffffffffffffffffffffffffffffffffffffffff1673ffffffffffffffffffffffffffffffffffffffff1681526020019081526020015f206002019081611ace9190613f62565b5085816011015f836014015481526020019081526020015f205f6101000a81548173ffffffffffffffffffffffffffffffffffffffff021916908373ffffffffffffffffffffffffffffffffffffffff16021790555085826003015f846007015481526020019081526020015f205f6101000a81548173ffffffffffffffffffffffffffffffffffffffff021916908373ffffffffffffffffffffffffffffffffffffffff160217905550806014015f815480929190611b8d90614031565b9190505550816007015f815480929190611ba690614031565b919050555050505050505050565b611bbe86866125de565b611bc7866125f5565b5f611bd0612497565b90505f815f015f8981526020019081526020015f20600d015f8881526020019081526020015f20905085815f016001019081611c0c9190613f62565b5084815f016002019081611c209190613f62565b5083816007015f6101000a81548160ff021916908315150217905550828160070160016101000a81548160ff0219169083151502179055505050505050505050565b611c6d858486612693565b611c76856125f5565b5f611c7f612497565b90505f815f015f8881526020019081526020015f20905083816010015f8881526020019081526020015f206001019081611cb99190613f62565b5082816010015f8881526020019081526020015f206002019081611cdd9190613f62565b5050505050505050565b611cf183836125de565b611cfa836125f5565b5f611d03612497565b9050611d3e82825f015f8781526020019081526020015f20600d015f8681526020019081526020015f2060050161265b90919063ffffffff16565b5050505050565b5f611d4e612497565b6004015f8381526020019081526020015f20549050919050565b5f611d71612497565b6004015f8381526020019081526020015f20549050919050565b611d9482612686565b611d9e8282612743565b611da7826125f5565b5f611db0612497565b90505f815f015f8581526020019081526020015f209050611ddd838260080161272c90919063ffffffff16565b5080600a015f8481526020019081526020015f205f5f82015f5f82015f9055600182015f611e0b9190612e49565b600282015f611e1a9190612e49565b5050600382015f9055600482015f9055600582015f9055600682015f6101000a81549060ff02191690556006820160016101000a81549060ff02191690556006820160026101000a81549060ff02191690556006820160036101000a81549060ff02191690556006820160046101000a81549060ff02191690555050816002015f8481526020019081526020015f205f905550505050565b60605f611ebe856124c3565b90505f611ecd8260080161254a565b90505f5f611edc83888861255d565b915091505f8167ffffffffffffffff811115611efb57611efa6131cd565b5b604051908082528060200260200182016040528015611f3457816020015b611f21612e86565b815260200190600190039081611f195790505b5090505f5f90505b8281101561218e5785600a015f611f6a8387611f589190613d05565b896008016125c790919063ffffffff16565b81526020019081526020015f20604051806101200160405290815f82016040518060600160405290815f8201548152602001600182018054611fab90613d92565b80601f0160208091040260200160405190810160405280929190818152602001828054611fd790613d92565b80156120225780601f10611ff957610100808354040283529160200191612022565b820191905f5260205f20905b81548152906001019060200180831161200557829003601f168201915b5050505050815260200160028201805461203b90613d92565b80601f016020809104026020016040519081016040528092919081815260200182805461206790613d92565b80156120b25780601f10612089576101008083540402835291602001916120b2565b820191905f5260205f20905b81548152906001019060200180831161209557829003601f168201915b5050505050815250508152602001600382015481526020016004820154815260200160058201548152602001600682015f9054906101000a900460ff161515151581526020016006820160019054906101000a900460ff161515151581526020016006820160029054906101000a900460ff161515151581526020016006820160039054906101000a900460ff161515151581526020016006820160049054906101000a900460ff16151515158152505082828151811061217657612175613d38565b5b60200260200101819052508080600101915050611f3c565b5080955050505050509392505050565b6121a733612672565b806121b0612497565b6004015f8481526020019081526020015f20819055505050565b5f6121d3612497565b6003015f8381526020019081526020015f205f9054906101000a900473ffffffffffffffffffffffffffffffffffffffff169050919050565b61221533612672565b8061221e612497565b6006015f6101000a81548173ffffffffffffffffffffffffffffffffffffffff021916908373ffffffffffffffffffffffffffffffffffffffff16021790555050565b60605f61226d856124c3565b90505f61227c82600b0161254a565b90505f5f61228b83888861255d565b915091505f8167ffffffffffffffff8111156122aa576122a96131cd565b5b6040519080825280602002602001820160405280156122e357816020015b6122d0612e29565b8152602001906001900390816122c85790505b5090505f5f90505b828110156124875785600d015f61231983876123079190613d05565b89600b016125c790919063ffffffff16565b81526020019081526020015f205f016040518060600160405290815f820154815260200160018201805461234c90613d92565b80601f016020809104026020016040519081016040528092919081815260200182805461237890613d92565b80156123c35780601f1061239a576101008083540402835291602001916123c3565b820191905f5260205f20905b8154815290600101906020018083116123a657829003601f168201915b505050505081526020016002820180546123dc90613d92565b80601f016020809104026020016040519081016040528092919081815260200182805461240890613d92565b80156124535780601f1061242a57610100808354040283529160200191612453565b820191905f5260205f20905b81548152906001019060200180831161243657829003601f168201915b50505050508152505082828151811061246f5761246e613d38565b5b602002602001018190525080806001019150506122eb565b5080955050505050509392505050565b5f5f7f171def12e82c8f3351e4c79b7854be19ad60a75b888f74b9660c07cd7461963390508091505090565b5f5f6124cd612497565b90505f816002015f8581526020019081526020015f205490505f810361252a57836040517fd4a847370000000000000000000000000000000000000000000000000000000081526004016125219190612f0d565b60405180910390fd5b5f825f015f8381526020019081526020015f209050809350505050919050565b5f612556825f01612a3d565b9050919050565b5f5f8483111561256e578492505f93505b5f838561257b91906140f9565b9050858110612590575f5f92509250506125bf565b5f848261259d9190613d05565b9050868111156125ab578690505b8182826125b8919061409f565b9350935050505b935093915050565b5f6125d4835f0183612a4c565b5f1c905092915050565b6125e782612686565b6125f18282612a73565b5050565b5f6125fe612497565b905081816002015f8481526020019081526020015f20541461265757816040517f1d0932ee00000000000000000000000000000000000000000000000000000000815260040161264e9190612f0d565b60405180910390fd5b5050565b5f61266a835f01835f1b612ac4565b905092915050565b61268361267d612497565b82612b2b565b50565b6126908133612c1f565b50565b61269d83836125de565b5f6126a6612497565b90506126e182825f015f8781526020019081526020015f20600d015f8681526020019081526020015f20600301612c7090919063ffffffff16565b612726578383836040517fef25d02d00000000000000000000000000000000000000000000000000000000815260040161271d9392919061413a565b60405180910390fd5b50505050565b5f61273b835f01835f1b612c87565b905092915050565b5f61274c612497565b905081815f015f8581526020019081526020015f20600a015f8481526020019081526020015f2060030154146127bb5782826040517f748e712a0000000000000000000000000000000000000000000000000000000081526004016127b2929190614078565b60405180910390fd5b505050565b6127ca83836125de565b5f6127d3612497565b905061280e82825f015f8781526020019081526020015f20600d015f8681526020019081526020015f20600501612c7090919063ffffffff16565b612853578383836040517f7916785800000000000000000000000000000000000000000000000000000000815260040161284a9392919061413a565b60405180910390fd5b50505050565b5f5f612863612497565b90505f816002015f8681526020019081526020015f205490505f810361288d575f92505050612995565b5f825f015f8381526020019081526020015f20905081815f0160030154146128ba575f9350505050612995565b826005015f9054906101000a900473ffffffffffffffffffffffffffffffffffffffff1673ffffffffffffffffffffffffffffffffffffffff168573ffffffffffffffffffffffffffffffffffffffff1614801561292c575060011515816013015f9054906101000a900460ff161515145b1561293d5760019350505050612995565b8473ffffffffffffffffffffffffffffffffffffffff16816007015f9054906101000a900473ffffffffffffffffffffffffffffffffffffffff1673ffffffffffffffffffffffffffffffffffffffff161493505050505b92915050565b5f6129a4612497565b9050806005015f9054906101000a900473ffffffffffffffffffffffffffffffffffffffff1673ffffffffffffffffffffffffffffffffffffffff168273ffffffffffffffffffffffffffffffffffffffff1614612a3957816040517f92f13c4e000000000000000000000000000000000000000000000000000000008152600401612a3091906133ed565b60405180910390fd5b5050565b5f815f01805490509050919050565b5f825f018281548110612a6257612a61613d38565b5b905f5260205f200154905092915050565b612a7d8282612d83565b612ac05781816040517f931a85b3000000000000000000000000000000000000000000000000000000008152600401612ab7929190614078565b60405180910390fd5b5050565b5f612acf8383612dcd565b612b2157825f0182908060018154018082558091505060019003905f5260205f20015f9091909190915055825f0180549050836001015f8481526020019081526020015f208190555060019050612b25565b5f90505b92915050565b816005015f9054906101000a900473ffffffffffffffffffffffffffffffffffffffff1673ffffffffffffffffffffffffffffffffffffffff168173ffffffffffffffffffffffffffffffffffffffff1614158015612bd95750816006015f9054906101000a900473ffffffffffffffffffffffffffffffffffffffff1673ffffffffffffffffffffffffffffffffffffffff168173ffffffffffffffffffffffffffffffffffffffff1614155b15612c1b57806040517f9ed88e07000000000000000000000000000000000000000000000000000000008152600401612c1291906133ed565b60405180910390fd5b5050565b612c298282612859565b612c6c5781816040517f7b0f9c07000000000000000000000000000000000000000000000000000000008152600401612c6392919061416f565b60405180910390fd5b5050565b5f612c7f835f01835f1b612dcd565b905092915050565b5f5f836001015f8481526020019081526020015f205490505f8114612d78575f600182612cb4919061409f565b90505f6001865f0180549050612cca919061409f565b9050808214612d30575f865f018281548110612ce957612ce8613d38565b5b905f5260205f200154905080875f018481548110612d0a57612d09613d38565b5b905f5260205f20018190555083876001015f8381526020019081526020015f2081905550505b855f01805480612d4357612d42614196565b5b600190038181905f5260205f20015f90559055856001015f8681526020019081526020015f205f905560019350505050612d7d565b5f9150505b92915050565b5f5f612d8d612497565b90505f815f015f8681526020019081526020015f2090505f81600d015f8681526020019081526020015f20905084815f015f015414935050505092915050565b5f5f836001015f8481526020019081526020015f20541415905092915050565b60405180608001604052805f815260200160608152602001606081526020015f73ffffffffffffffffffffffffffffffffffffffff1681525090565b60405180606001604052805f815260200160608152602001606081525090565b508054612e5590613d92565b5f825580601f10612e665750612e83565b601f0160209004905f5260205f2090810190612e829190612eda565b5b50565b604051806101200160405280612e9a612e29565b81526020015f81526020015f81526020015f81526020015f151581526020015f151581526020015f151581526020015f151581526020015f151581525090565b5b80821115612ef1575f815f905550600101612edb565b5090565b5f819050919050565b612f0781612ef5565b82525050565b5f602082019050612f205f830184612efe565b92915050565b5f604051905090565b5f5ffd5b5f5ffd5b612f4081612ef5565b8114612f4a575f5ffd5b50565b5f81359050612f5b81612f37565b92915050565b5f5f5f5f60808587031215612f7957612f78612f2f565b5b5f612f8687828801612f4d565b9450506020612f9787828801612f4d565b9350506040612fa887828801612f4d565b9250506060612fb987828801612f4d565b91505092959194509250565b5f81519050919050565b5f82825260208201905092915050565b5f819050602082019050919050565b612ff781612ef5565b82525050565b5f81519050919050565b5f82825260208201905092915050565b8281835e5f83830152505050565b5f601f19601f8301169050919050565b5f61303f82612ffd565b6130498185613007565b9350613059818560208601613017565b61306281613025565b840191505092915050565b5f73ffffffffffffffffffffffffffffffffffffffff82169050919050565b5f6130968261306d565b9050919050565b6130a68161308c565b82525050565b5f608083015f8301516130c15f860182612fee565b50602083015184820360208601526130d98282613035565b915050604083015184820360408601526130f38282613035565b9150506060830151613108606086018261309d565b508091505092915050565b5f61311e83836130ac565b905092915050565b5f602082019050919050565b5f61313c82612fc5565b6131468185612fcf565b93508360208202850161315885612fdf565b805f5b8581101561319357848403895281516131748582613113565b945061317f83613126565b925060208a0199505060018101905061315b565b50829750879550505050505092915050565b5f6020820190508181035f8301526131bd8184613132565b905092915050565b5f5ffd5b5f5ffd5b7f4e487b71000000000000000000000000000000000000000000000000000000005f52604160045260245ffd5b61320382613025565b810181811067ffffffffffffffff82111715613222576132216131cd565b5b80604052505050565b5f613234612f26565b905061324082826131fa565b919050565b5f67ffffffffffffffff82111561325f5761325e6131cd565b5b61326882613025565b9050602081019050919050565b828183375f83830152505050565b5f61329561329084613245565b61322b565b9050828152602081018484840111156132b1576132b06131c9565b5b6132bc848285613275565b509392505050565b5f82601f8301126132d8576132d76131c5565b5b81356132e8848260208601613283565b91505092915050565b5f5f5f5f5f60a0868803121561330a57613309612f2f565b5b5f61331788828901612f4d565b955050602061332888828901612f4d565b945050604061333988828901612f4d565b935050606086013567ffffffffffffffff81111561335a57613359612f33565b5b613366888289016132c4565b925050608086013567ffffffffffffffff81111561338757613386612f33565b5b613393888289016132c4565b9150509295509295909350565b5f5f604083850312156133b6576133b5612f2f565b5b5f6133c385828601612f4d565b92505060206133d485828601612f4d565b9150509250929050565b6133e78161308c565b82525050565b5f6020820190506134005f8301846133de565b92915050565b5f81519050919050565b5f82825260208201905092915050565b5f819050602082019050919050565b5f606083015f8301516134445f860182612fee565b506020830151848203602086015261345c8282613035565b915050604083015184820360408601526134768282613035565b9150508091505092915050565b5f61348e838361342f565b905092915050565b5f602082019050919050565b5f6134ac82613406565b6134b68185613410565b9350836020820285016134c885613420565b805f5b8581101561350357848403895281516134e48582613483565b94506134ef83613496565b925060208a019950506001810190506134cb565b50829750879550505050505092915050565b5f6020820190508181035f83015261352d81846134a2565b905092915050565b5f5f5f6060848603121561354c5761354b612f2f565b5b5f61355986828701612f4d565b935050602061356a86828701612f4d565b925050604061357b86828701612f4d565b9150509250925092565b5f5f5f5f6080858703121561359d5761359c612f2f565b5b5f6135aa87828801612f4d565b94505060206135bb87828801612f4d565b935050604085013567ffffffffffffffff8111156135dc576135db612f33565b5b6135e8878288016132c4565b925050606085013567ffffffffffffffff81111561360957613608612f33565b5b613615878288016132c4565b91505092959194509250565b5f6020828403121561363657613635612f2f565b5b5f61364384828501612f4d565b91505092915050565b5f8115159050919050565b6136608161364c565b82525050565b5f6020820190506136795f830184613657565b92915050565b5f67ffffffffffffffff821115613699576136986131cd565b5b602082029050602081019050919050565b5f5ffd5b5f6136c06136bb8461367f565b61322b565b905080838252602082019050602084028301858111156136e3576136e26136aa565b5b835b8181101561370c57806136f88882612f4d565b8452602084019350506020810190506136e5565b5050509392505050565b5f82601f83011261372a576137296131c5565b5b813561373a8482602086016136ae565b91505092915050565b61374c8161364c565b8114613756575f5ffd5b50565b5f8135905061376781613743565b92915050565b5f5f5f5f5f5f5f60e0888a03121561378857613787612f2f565b5b5f6137958a828b01612f4d565b975050602088013567ffffffffffffffff8111156137b6576137b5612f33565b5b6137c28a828b016132c4565b965050604088013567ffffffffffffffff8111156137e3576137e2612f33565b5b6137ef8a828b016132c4565b955050606088013567ffffffffffffffff8111156138105761380f612f33565b5b61381c8a828b01613716565b945050608088013567ffffffffffffffff81111561383d5761383c612f33565b5b6138498a828b01613716565b93505060a061385a8a828b01613759565b92505060c061386b8a828b01613759565b91505092959891949750929550565b6138838161308c565b811461388d575f5ffd5b50565b5f8135905061389e8161387a565b92915050565b5f5f5f5f5f60a086880312156138bd576138bc612f2f565b5b5f6138ca88828901612f4d565b95505060206138db88828901613759565b945050604086013567ffffffffffffffff8111156138fc576138fb612f33565b5b613908888289016132c4565b935050606086013567ffffffffffffffff81111561392957613928612f33565b5b613935888289016132c4565b925050608061394688828901613890565b9150509295509295909350565b5f5f6040838503121561396957613968612f2f565b5b5f61397685828601612f4d565b925050602061398785828601613890565b9150509250929050565b5f5f5f5f5f60a086880312156139aa576139a9612f2f565b5b5f6139b788828901612f4d565b95505060206139c888828901613890565b94505060406139d988828901612f4d565b935050606086013567ffffffffffffffff8111156139fa576139f9612f33565b5b613a06888289016132c4565b925050608086013567ffffffffffffffff811115613a2757613a26612f33565b5b613a33888289016132c4565b9150509295509295909350565b5f5f5f5f5f5f60c08789031215613a5a57613a59612f2f565b5b5f613a6789828a01612f4d565b9650506020613a7889828a01612f4d565b955050604087013567ffffffffffffffff811115613a9957613a98612f33565b5b613aa589828a016132c4565b945050606087013567ffffffffffffffff811115613ac657613ac5612f33565b5b613ad289828a016132c4565b9350506080613ae389828a01613759565b92505060a0613af489828a01613759565b9150509295509295509295565b5f81519050919050565b5f82825260208201905092915050565b5f819050602082019050919050565b613b338161364c565b82525050565b5f61012083015f8301518482035f860152613b54828261342f565b9150506020830151613b696020860182612fee565b506040830151613b7c6040860182612fee565b506060830151613b8f6060860182612fee565b506080830151613ba26080860182613b2a565b5060a0830151613bb560a0860182613b2a565b5060c0830151613bc860c0860182613b2a565b5060e0830151613bdb60e0860182613b2a565b50610100830151613bf0610100860182613b2a565b508091505092915050565b5f613c068383613b39565b905092915050565b5f602082019050919050565b5f613c2482613b01565b613c2e8185613b0b565b935083602082028501613c4085613b1b565b805f5b85811015613c7b5784840389528151613c5c8582613bfb565b9450613c6783613c0e565b925060208a01995050600181019050613c43565b50829750879550505050505092915050565b5f6020820190508181035f830152613ca58184613c1a565b905092915050565b5f60208284031215613cc257613cc1612f2f565b5b5f613ccf84828501613890565b91505092915050565b7f4e487b71000000000000000000000000000000000000000000000000000000005f52601160045260245ffd5b5f613d0f82612ef5565b9150613d1a83612ef5565b9250828201905080821115613d3257613d31613cd8565b5b92915050565b7f4e487b71000000000000000000000000000000000000000000000000000000005f52603260045260245ffd5b7f4e487b71000000000000000000000000000000000000000000000000000000005f52602260045260245ffd5b5f6002820490506001821680613da957607f821691505b602082108103613dbc57613dbb613d65565b5b50919050565b5f819050815f5260205f209050919050565b5f6020601f8301049050919050565b5f82821b905092915050565b5f60088302613e1e7fffffffffffffffffffffffffffffffffffffffffffffffffffffffffffffffff82613de3565b613e288683613de3565b95508019841693508086168417925050509392505050565b5f819050919050565b5f613e63613e5e613e5984612ef5565b613e40565b612ef5565b9050919050565b5f819050919050565b613e7c83613e49565b613e90613e8882613e6a565b848454613def565b825550505050565b5f5f905090565b613ea7613e98565b613eb2818484613e73565b505050565b5b81811015613ed557613eca5f82613e9f565b600181019050613eb8565b5050565b601f821115613f1a57613eeb81613dc2565b613ef484613dd4565b81016020851015613f03578190505b613f17613f0f85613dd4565b830182613eb7565b50505b505050565b5f82821c905092915050565b5f613f3a5f1984600802613f1f565b1980831691505092915050565b5f613f528383613f2b565b9150826002028217905092915050565b613f6b82612ffd565b67ffffffffffffffff811115613f8457613f836131cd565b5b613f8e8254613d92565b613f99828285613ed9565b5f60209050601f831160018114613fca575f8415613fb8578287015190505b613fc28582613f47565b865550614029565b601f198416613fd886613dc2565b5f5b82811015613fff57848901518255600182019150602085019450602081019050613fda565b8683101561401c5784890151614018601f891682613f2b565b8355505b6001600288020188555050505b505050505050565b5f61403b82612ef5565b91507fffffffffffffffffffffffffffffffffffffffffffffffffffffffffffffffff820361406d5761406c613cd8565b5b600182019050919050565b5f60408201905061408b5f830185612efe565b6140986020830184612efe565b9392505050565b5f6140a982612ef5565b91506140b483612ef5565b92508282039050818111156140cc576140cb613cd8565b5b92915050565b5f6140dc82612ef5565b91505f82036140ee576140ed613cd8565b5b600182039050919050565b5f61410382612ef5565b915061410e83612ef5565b925082820261411c81612ef5565b9150828204841483151761413357614132613cd8565b5b5092915050565b5f60608201905061414d5f830186612efe565b61415a6020830185612efe565b6141676040830184612efe565b949350505050565b5f6040820190506141825f830185612efe565b61418f60208301846133de565b9392505050565b7f4e487b71000000000000000000000000000000000000000000000000000000005f52603160045260245ffdfea2646970667358221220eec091c2072d97b360e8d3061d1ecc199b8ec958dd7f9b38e6f0986d3e97f8ce64736f6c634300081c0033",
  "linkReferences": {},
  "deployedLinkReferences": {},
  "immutableReferences": {},
  "inputSourceName": "project/contracts/AccountConfig.sol",
  "buildInfoId": "solc-0_8_28-36e85dbd4f9c33d04a510b0f3625819753cdbaea"
}