{
  "_format": "hh3-artifact-1",
  "contractName": "AccountConfig",
  "sourceName": "contracts/AccountConfig.sol",
  "abi": [
    {
      "inputs": [],
      "stateMutability": "nonpayable",
      "type": "constructor"
    },
    {
      "inputs": [
        {
          "internalType": "uint256",
          "name": "apiKeyHash",
          "type": "uint256"
        }
      ],
      "name": "AccountAlreadyExists",
      "type": "error"
    },
    {
      "inputs": [
        {
          "internalType": "uint256",
          "name": "apiKeyHash",
          "type": "uint256"
        }
      ],
      "name": "AccountDoesNotExist",
      "type": "error"
    },
    {
      "inputs": [
        {
          "internalType": "uint256",
          "name": "apiKeyHash",
          "type": "uint256"
        },
        {
          "internalType": "uint256",
          "name": "groupId",
          "type": "uint256"
        },
        {
          "internalType": "uint256",
          "name": "action",
          "type": "uint256"
        }
      ],
      "name": "ActionDoesNotExist",
      "type": "error"
    },
    {
      "inputs": [
        {
          "internalType": "uint256",
          "name": "apiKeyHash",
          "type": "uint256"
        },
        {
          "internalType": "uint256",
          "name": "groupId",
          "type": "uint256"
        }
      ],
      "name": "GroupDoesNotExist",
      "type": "error"
    },
    {
      "inputs": [
        {
          "internalType": "uint256",
          "name": "apiKeyHash",
          "type": "uint256"
        },
        {
          "internalType": "uint256",
          "name": "amount",
          "type": "uint256"
        }
      ],
      "name": "InsufficientBalance",
      "type": "error"
    },
    {
      "inputs": [
        {
          "internalType": "uint256",
          "name": "apiKeyHash",
          "type": "uint256"
        },
        {
          "internalType": "address",
          "name": "sender",
          "type": "address"
        }
      ],
      "name": "NoAccountAccess",
      "type": "error"
    },
    {
      "inputs": [
        {
          "internalType": "uint256",
          "name": "apiKeyHash",
          "type": "uint256"
        }
      ],
      "name": "NotMasterAccount",
      "type": "error"
    },
    {
      "inputs": [
        {
          "internalType": "address",
          "name": "caller",
          "type": "address"
        }
      ],
      "name": "OnlyApiPayer",
      "type": "error"
    },
    {
      "inputs": [
        {
          "internalType": "address",
          "name": "caller",
          "type": "address"
        }
      ],
      "name": "OnlyApiPayerOrOwner",
      "type": "error"
    },
    {
      "inputs": [
        {
          "internalType": "address",
          "name": "caller",
          "type": "address"
        }
      ],
      "name": "OnlyApiPayerOrPricingOperator",
      "type": "error"
    },
    {
      "inputs": [
        {
          "internalType": "uint256",
          "name": "apiKeyHash",
          "type": "uint256"
        },
        {
          "internalType": "uint256",
          "name": "usageApiKeyHash",
          "type": "uint256"
        }
      ],
      "name": "UsageApiKeyDoesNotExist",
      "type": "error"
    },
    {
      "inputs": [
        {
          "internalType": "uint256",
          "name": "apiKeyHash",
          "type": "uint256"
        },
        {
          "internalType": "uint256",
          "name": "groupId",
          "type": "uint256"
        },
        {
          "internalType": "uint256",
          "name": "Wallet",
          "type": "uint256"
        }
      ],
      "name": "WalletDoesNotExist",
      "type": "error"
    },
    {
      "inputs": [],
      "name": "accountCount",
      "outputs": [
        {
          "internalType": "uint256",
          "name": "",
          "type": "uint256"
        }
      ],
      "stateMutability": "view",
      "type": "function"
    },
    {
      "inputs": [
        {
          "internalType": "uint256",
          "name": "apiKeyHash",
          "type": "uint256"
        }
      ],
      "name": "accountExistsAndIsMutable",
      "outputs": [
        {
          "internalType": "bool",
          "name": "",
          "type": "bool"
        }
      ],
      "stateMutability": "view",
      "type": "function"
    },
    {
      "inputs": [
        {
          "internalType": "uint256",
          "name": "accountApiKeyHash",
          "type": "uint256"
        },
        {
          "internalType": "uint256",
          "name": "groupId",
          "type": "uint256"
        },
        {
          "internalType": "uint256",
          "name": "action",
          "type": "uint256"
        },
        {
          "internalType": "string",
          "name": "name",
          "type": "string"
        },
        {
          "internalType": "string",
          "name": "description",
          "type": "string"
        }
      ],
      "name": "addActionToGroup",
      "outputs": [],
      "stateMutability": "nonpayable",
      "type": "function"
    },
    {
      "inputs": [
        {
          "internalType": "uint256",
          "name": "accountApiKeyHash",
          "type": "uint256"
        },
        {
          "internalType": "uint256",
          "name": "usageApiKeyHash",
          "type": "uint256"
        },
        {
          "internalType": "uint256",
          "name": "expiration",
          "type": "uint256"
        },
        {
          "internalType": "uint256",
          "name": "balance",
          "type": "uint256"
        },
        {
          "internalType": "string",
          "name": "name",
          "type": "string"
        },
        {
          "internalType": "string",
          "name": "description",
          "type": "string"
        }
      ],
      "name": "addApiKey",
      "outputs": [],
      "stateMutability": "nonpayable",
      "type": "function"
    },
    {
      "inputs": [
        {
          "internalType": "uint256",
          "name": "accountApiKeyHash",
          "type": "uint256"
        },
        {
          "internalType": "string",
          "name": "name",
          "type": "string"
        },
        {
          "internalType": "string",
          "name": "description",
          "type": "string"
        },
        {
          "internalType": "uint256[]",
          "name": "permitted_actions",
          "type": "uint256[]"
        },
        {
          "internalType": "uint256[]",
          "name": "Wallets",
          "type": "uint256[]"
        },
        {
          "internalType": "bool",
          "name": "all_wallets_permitted",
          "type": "bool"
        },
        {
          "internalType": "bool",
          "name": "all_actions_permitted",
          "type": "bool"
        }
      ],
      "name": "addGroup",
      "outputs": [],
      "stateMutability": "nonpayable",
      "type": "function"
    },
    {
      "inputs": [
        {
          "internalType": "uint256",
          "name": "accountApiKeyHash",
          "type": "uint256"
        },
        {
          "internalType": "uint256",
          "name": "groupId",
          "type": "uint256"
        },
        {
          "internalType": "uint256",
          "name": "walletAddressHash",
          "type": "uint256"
        }
      ],
      "name": "addWalletToGroup",
      "outputs": [],
      "stateMutability": "nonpayable",
      "type": "function"
    },
    {
      "inputs": [],
      "name": "adminApiPayerAccount",
      "outputs": [
        {
          "internalType": "address",
          "name": "",
          "type": "address"
        }
      ],
      "stateMutability": "view",
      "type": "function"
    },
    {
      "inputs": [
        {
          "internalType": "uint256",
          "name": "index",
          "type": "uint256"
        }
      ],
      "name": "allWalletAddressesAt",
      "outputs": [
        {
          "internalType": "address",
          "name": "",
          "type": "address"
        }
      ],
      "stateMutability": "view",
      "type": "function"
    },
    {
      "inputs": [],
      "name": "apiPayerCount",
      "outputs": [
        {
          "internalType": "uint256",
          "name": "",
          "type": "uint256"
        }
      ],
      "stateMutability": "view",
      "type": "function"
    },
    {
      "inputs": [],
      "name": "api_payers",
      "outputs": [
        {
          "internalType": "address[]",
          "name": "",
          "type": "address[]"
        }
      ],
      "stateMutability": "view",
      "type": "function"
    },
    {
      "inputs": [
        {
          "internalType": "uint256",
          "name": "apiKeyHash",
          "type": "uint256"
        },
        {
          "internalType": "uint256",
          "name": "amount",
          "type": "uint256"
        }
      ],
      "name": "creditApiKey",
      "outputs": [],
      "stateMutability": "nonpayable",
      "type": "function"
    },
    {
      "inputs": [
        {
          "internalType": "uint256",
          "name": "apiKeyHash",
          "type": "uint256"
        },
        {
          "internalType": "uint256",
          "name": "amount",
          "type": "uint256"
        }
      ],
      "name": "debitApiKey",
      "outputs": [],
      "stateMutability": "nonpayable",
      "type": "function"
    },
    {
      "inputs": [
        {
          "internalType": "uint256",
          "name": "pricingItemId",
          "type": "uint256"
        }
      ],
      "name": "getPricing",
      "outputs": [
        {
          "internalType": "uint256",
          "name": "",
          "type": "uint256"
        }
      ],
      "stateMutability": "view",
      "type": "function"
    },
    {
      "inputs": [
        {
          "internalType": "uint256",
          "name": "apiKeyHash",
          "type": "uint256"
        },
        {
          "internalType": "address",
          "name": "walletAddress",
          "type": "address"
        }
      ],
      "name": "getWalletDerivation",
      "outputs": [
        {
          "internalType": "uint256",
          "name": "",
          "type": "uint256"
        }
      ],
      "stateMutability": "view",
      "type": "function"
    },
    {
      "inputs": [
        {
          "internalType": "uint256",
          "name": "index",
          "type": "uint256"
        }
      ],
      "name": "indexToAccountHashAt",
      "outputs": [
        {
          "internalType": "uint256",
          "name": "",
          "type": "uint256"
        }
      ],
      "stateMutability": "view",
      "type": "function"
    },
    {
      "inputs": [
        {
          "internalType": "uint256",
          "name": "accountApiKeyHash",
          "type": "uint256"
        },
        {
          "internalType": "uint256",
          "name": "groupId",
          "type": "uint256"
        },
        {
          "internalType": "uint256",
          "name": "pageNumber",
          "type": "uint256"
        },
        {
          "internalType": "uint256",
          "name": "pageSize",
          "type": "uint256"
        }
      ],
      "name": "listActions",
      "outputs": [
        {
          "components": [
            {
              "internalType": "uint256",
              "name": "id",
              "type": "uint256"
            },
            {
              "internalType": "string",
              "name": "name",
              "type": "string"
            },
            {
              "internalType": "string",
              "name": "description",
              "type": "string"
            }
          ],
          "internalType": "struct LibAccountConfigStorage.Metadata[]",
          "name": "",
          "type": "tuple[]"
        }
      ],
      "stateMutability": "view",
      "type": "function"
    },
    {
      "inputs": [
        {
          "internalType": "uint256",
          "name": "accountApiKeyHash",
          "type": "uint256"
        },
        {
          "internalType": "uint256",
          "name": "pageNumber",
          "type": "uint256"
        },
        {
          "internalType": "uint256",
          "name": "pageSize",
          "type": "uint256"
        }
      ],
      "name": "listApiKeys",
      "outputs": [
        {
          "components": [
            {
              "components": [
                {
                  "internalType": "uint256",
                  "name": "id",
                  "type": "uint256"
                },
                {
                  "internalType": "string",
                  "name": "name",
                  "type": "string"
                },
                {
                  "internalType": "string",
                  "name": "description",
                  "type": "string"
                }
              ],
              "internalType": "struct LibAccountConfigStorage.Metadata",
              "name": "metadata",
              "type": "tuple"
            },
            {
              "internalType": "uint256",
              "name": "apiKeyHash",
              "type": "uint256"
            },
            {
              "internalType": "uint256",
              "name": "expiration",
              "type": "uint256"
            },
            {
              "internalType": "uint256",
              "name": "balance",
              "type": "uint256"
            },
            {
              "internalType": "bool",
              "name": "runActions",
              "type": "bool"
            },
            {
              "internalType": "bool",
              "name": "manageGroups",
              "type": "bool"
            },
            {
              "internalType": "bool",
              "name": "manageWallets",
              "type": "bool"
            },
            {
              "internalType": "bool",
              "name": "manageIPFSIds",
              "type": "bool"
            },
            {
              "internalType": "bool",
              "name": "manageUsageApiKeys",
              "type": "bool"
            }
          ],
          "internalType": "struct LibAccountConfigStorage.UsageApiKey[]",
          "name": "",
          "type": "tuple[]"
        }
      ],
      "stateMutability": "view",
      "type": "function"
    },
    {
      "inputs": [
        {
          "internalType": "uint256",
          "name": "accountApiKeyHash",
          "type": "uint256"
        },
        {
          "internalType": "uint256",
          "name": "pageNumber",
          "type": "uint256"
        },
        {
          "internalType": "uint256",
          "name": "pageSize",
          "type": "uint256"
        }
      ],
      "name": "listGroups",
      "outputs": [
        {
          "components": [
            {
              "internalType": "uint256",
              "name": "id",
              "type": "uint256"
            },
            {
              "internalType": "string",
              "name": "name",
              "type": "string"
            },
            {
              "internalType": "string",
              "name": "description",
              "type": "string"
            }
          ],
          "internalType": "struct LibAccountConfigStorage.Metadata[]",
          "name": "",
          "type": "tuple[]"
        }
      ],
      "stateMutability": "view",
      "type": "function"
    },
    {
      "inputs": [
        {
          "internalType": "uint256",
          "name": "accountApiKeyHash",
          "type": "uint256"
        },
        {
          "internalType": "uint256",
          "name": "pageNumber",
          "type": "uint256"
        },
        {
          "internalType": "uint256",
          "name": "pageSize",
          "type": "uint256"
        }
      ],
      "name": "listWallets",
      "outputs": [
        {
          "components": [
            {
              "internalType": "uint256",
              "name": "id",
              "type": "uint256"
            },
            {
              "internalType": "string",
              "name": "name",
              "type": "string"
            },
            {
              "internalType": "string",
              "name": "description",
              "type": "string"
            },
            {
              "internalType": "address",
              "name": "walletAddress",
              "type": "address"
            }
          ],
          "internalType": "struct LibAccountConfigStorage.WalletData[]",
          "name": "",
          "type": "tuple[]"
        }
      ],
      "stateMutability": "view",
      "type": "function"
    },
    {
      "inputs": [
        {
          "internalType": "uint256",
          "name": "accountApiKeyHash",
          "type": "uint256"
        },
        {
          "internalType": "uint256",
          "name": "groupId",
          "type": "uint256"
        },
        {
          "internalType": "uint256",
          "name": "pageNumber",
          "type": "uint256"
        },
        {
          "internalType": "uint256",
          "name": "pageSize",
          "type": "uint256"
        }
      ],
      "name": "listWalletsInGroup",
      "outputs": [
        {
          "components": [
            {
              "internalType": "uint256",
              "name": "id",
              "type": "uint256"
            },
            {
              "internalType": "string",
              "name": "name",
              "type": "string"
            },
            {
              "internalType": "string",
              "name": "description",
              "type": "string"
            },
            {
              "internalType": "address",
              "name": "walletAddress",
              "type": "address"
            }
          ],
          "internalType": "struct LibAccountConfigStorage.WalletData[]",
          "name": "",
          "type": "tuple[]"
        }
      ],
      "stateMutability": "view",
      "type": "function"
    },
    {
      "inputs": [
        {
          "internalType": "uint256",
          "name": "apiKeyHash",
          "type": "uint256"
        },
        {
          "internalType": "bool",
          "name": "managed",
          "type": "bool"
        },
        {
          "internalType": "string",
          "name": "accountName",
          "type": "string"
        },
        {
          "internalType": "string",
          "name": "accountDescription",
          "type": "string"
        },
        {
          "internalType": "address",
          "name": "creatorWalletAddress",
          "type": "address"
        }
      ],
      "name": "newAccount",
      "outputs": [],
      "stateMutability": "nonpayable",
      "type": "function"
    },
    {
      "inputs": [],
      "name": "owner",
      "outputs": [
        {
          "internalType": "address",
          "name": "",
          "type": "address"
        }
      ],
      "stateMutability": "view",
      "type": "function"
    },
    {
      "inputs": [
        {
          "internalType": "uint256",
          "name": "index",
          "type": "uint256"
        }
      ],
      "name": "pricingAt",
      "outputs": [
        {
          "internalType": "uint256",
          "name": "",
          "type": "uint256"
        }
      ],
      "stateMutability": "view",
      "type": "function"
    },
    {
      "inputs": [],
      "name": "pricingOperator",
      "outputs": [
        {
          "internalType": "address",
          "name": "",
          "type": "address"
        }
      ],
      "stateMutability": "view",
      "type": "function"
    },
    {
      "inputs": [
        {
          "internalType": "uint256",
          "name": "accountApiKeyHash",
          "type": "uint256"
        },
        {
          "internalType": "address",
          "name": "walletAddress",
          "type": "address"
        },
        {
          "internalType": "uint256",
          "name": "derivationPath",
          "type": "uint256"
        },
        {
          "internalType": "string",
          "name": "name",
          "type": "string"
        },
        {
          "internalType": "string",
          "name": "description",
          "type": "string"
        }
      ],
      "name": "registerWalletDerivation",
      "outputs": [],
      "stateMutability": "nonpayable",
      "type": "function"
    },
    {
      "inputs": [
        {
          "internalType": "uint256",
          "name": "accountApiKeyHash",
          "type": "uint256"
        },
        {
          "internalType": "uint256",
          "name": "groupId",
          "type": "uint256"
        },
        {
          "internalType": "uint256",
          "name": "action",
          "type": "uint256"
        }
      ],
      "name": "removeActionFromGroup",
      "outputs": [],
      "stateMutability": "nonpayable",
      "type": "function"
    },
    {
      "inputs": [
        {
          "internalType": "uint256",
          "name": "accountApiKeyHash",
          "type": "uint256"
        },
        {
          "internalType": "uint256",
          "name": "usageApiKeyHash",
          "type": "uint256"
        }
      ],
      "name": "removeUsageApiKey",
      "outputs": [],
      "stateMutability": "nonpayable",
      "type": "function"
    },
    {
      "inputs": [
        {
          "internalType": "uint256",
          "name": "accountApiKeyHash",
          "type": "uint256"
        },
        {
          "internalType": "uint256",
          "name": "groupId",
          "type": "uint256"
        },
        {
          "internalType": "uint256",
          "name": "walletAddressHash",
          "type": "uint256"
        }
      ],
      "name": "removeWalletFromGroup",
      "outputs": [],
      "stateMutability": "nonpayable",
      "type": "function"
    },
    {
      "inputs": [],
      "name": "requestedApiPayerCount",
      "outputs": [
        {
          "internalType": "uint256",
          "name": "",
          "type": "uint256"
        }
      ],
      "stateMutability": "view",
      "type": "function"
    },
    {
      "inputs": [
        {
          "internalType": "address",
          "name": "newAdminApiPayerAccount",
          "type": "address"
        }
      ],
      "name": "setAdminApiPayerAccount",
      "outputs": [],
      "stateMutability": "nonpayable",
      "type": "function"
    },
    {
      "inputs": [
        {
          "internalType": "address[]",
          "name": "newApiPayers",
          "type": "address[]"
        }
      ],
      "name": "setApiPayers",
      "outputs": [],
      "stateMutability": "nonpayable",
      "type": "function"
    },
    {
      "inputs": [
        {
          "internalType": "uint256",
          "name": "pricingItemId",
          "type": "uint256"
        },
        {
          "internalType": "uint256",
          "name": "price",
          "type": "uint256"
        }
      ],
      "name": "setPricing",
      "outputs": [],
      "stateMutability": "nonpayable",
      "type": "function"
    },
    {
      "inputs": [
        {
          "internalType": "address",
          "name": "newPricingOperator",
          "type": "address"
        }
      ],
      "name": "setPricingOperator",
      "outputs": [],
      "stateMutability": "nonpayable",
      "type": "function"
    },
    {
      "inputs": [
        {
          "internalType": "uint256",
          "name": "newRequestedApiPayerCount",
          "type": "uint256"
        }
      ],
      "name": "setRequestedApiPayerCount",
      "outputs": [],
      "stateMutability": "nonpayable",
      "type": "function"
    },
    {
      "inputs": [
        {
          "internalType": "uint256",
          "name": "accountApiKeyHash",
          "type": "uint256"
        },
        {
          "internalType": "uint256",
          "name": "actionHash",
          "type": "uint256"
        },
        {
          "internalType": "uint256",
          "name": "groupId",
          "type": "uint256"
        },
        {
          "internalType": "string",
          "name": "name",
          "type": "string"
        },
        {
          "internalType": "string",
          "name": "description",
          "type": "string"
        }
      ],
      "name": "updateActionMetadata",
      "outputs": [],
      "stateMutability": "nonpayable",
      "type": "function"
    },
    {
      "inputs": [
        {
          "internalType": "uint256",
          "name": "accountApiKeyHash",
          "type": "uint256"
        },
        {
          "internalType": "uint256",
          "name": "groupId",
          "type": "uint256"
        },
        {
          "internalType": "string",
          "name": "name",
          "type": "string"
        },
        {
          "internalType": "string",
          "name": "description",
          "type": "string"
        },
        {
          "internalType": "bool",
          "name": "all_wallets_permitted",
          "type": "bool"
        },
        {
          "internalType": "bool",
          "name": "all_actions_permitted",
          "type": "bool"
        }
      ],
      "name": "updateGroup",
      "outputs": [],
      "stateMutability": "nonpayable",
      "type": "function"
    },
    {
      "inputs": [
        {
          "internalType": "uint256",
          "name": "accountApiKeyHash",
          "type": "uint256"
        },
        {
          "internalType": "uint256",
          "name": "usageApiKeyHash",
          "type": "uint256"
        },
        {
          "internalType": "string",
          "name": "name",
          "type": "string"
        },
        {
          "internalType": "string",
          "name": "description",
          "type": "string"
        }
      ],
      "name": "updateUsageApiKeyMetadata",
      "outputs": [],
      "stateMutability": "nonpayable",
      "type": "function"
    },
    {
      "inputs": [],
      "name": "walletCount",
      "outputs": [
        {
          "internalType": "uint256",
          "name": "",
          "type": "uint256"
        }
      ],
      "stateMutability": "view",
      "type": "function"
    }
  ],
  "bytecode": "0x608060405234801561000f575f5ffd5b5061001e61002360201b60201c565b6101fe565b5f61003261013260201b60201c565b90505f6100478260050161015e60201b60201c565b14610087576040517f08c379a000000000000000000000000000000000000000000000000000000000815260040161007e906101e0565b60405180910390fd5b33816008015f6101000a81548173ffffffffffffffffffffffffffffffffffffffff021916908373ffffffffffffffffffffffffffffffffffffffff16021790555033816007015f6101000a81548173ffffffffffffffffffffffffffffffffffffffff021916908373ffffffffffffffffffffffffffffffffffffffff1602179055506001816004015f600181526020019081526020015f2081905550600381600c018190555050565b5f5f7f171def12e82c8f3351e4c79b7854be19ad60a75b888f74b9660c07cd7461963390508091505090565b5f610170825f0161017760201b60201c565b9050919050565b5f815f01805490509050919050565b5f82825260208201905092915050565b7f616c726561647920696e697469616c697a6564000000000000000000000000005f82015250565b5f6101ca601383610186565b91506101d582610196565b602082019050919050565b5f6020820190508181035f8301526101f7816101be565b9050919050565b61490e8061020b5f395ff3fe608060405234801561000f575f5ffd5b5060043610610230575f3560e01c8063921415521161012e578063c1aff899116100b6578063ccb78fb61161007a578063ccb78fb614610692578063e4af29fc146106c2578063e6ad2928146106e0578063f75c8b2d146106fc578063fec99aef1461072c57610230565b8063c1aff899146105dc578063c5f5b9841461060c578063c704668c14610628578063ca05588a14610658578063cb53ad261461067457610230565b8063ae8c49a5116100fd578063ae8c49a51461053a578063b8037ffe14610556578063bac710ea14610574578063c001bc7914610590578063c12f1a42146105ac57610230565b806392141552146104c857806393c8bc43146104e457806396a7cc5414610502578063a6b6b6721461051e57610230565b8063683f2de8116101bc578063749e4d0711610180578063749e4d0714610412578063793122451461042e5780637af361ef1461044a5780638da5cb5b1461047a57806390222cad1461049857610230565b8063683f2de81461035e5780636a3d77a91461037a5780636e06ac9c146103965780636fe1fb84146103b2578063719fac43146103e257610230565b8063383603fe11610203578063383603fe146102bc57806340b4d453146102da57806352067859146102f6578063542970ed146103125780635d861c721461034257610230565b8063291ff1ea1461023457806329b57c69146102645780632fa92e411461028257806334b7f87a1461029e575b5f5ffd5b61024e600480360381019061024991906133be565b610748565b60405161025b9190613602565b60405180910390f35b61026c610afe565b6040516102799190613631565b60405180910390f35b61029c60048036038101906102979190613776565b610b10565b005b6102a6610bf0565b6040516102b39190613631565b60405180910390f35b6102c4610c02565b6040516102d19190613834565b60405180910390f35b6102f460048036038101906102ef919061384d565b610c38565b005b610310600480360381019061030b919061388b565b610d23565b005b61032c600480360381019061032791906133be565b610d44565b60405161033991906139c5565b60405180910390f35b61035c600480360381019061035791906139e5565b610f90565b005b6103786004803603810190610373919061384d565b61101a565b005b610394600480360381019061038f9190613a35565b6110ba565b005b6103b060048036038101906103ab91906139e5565b611156565b005b6103cc60048036038101906103c7919061388b565b6111be565b6040516103d99190613631565b60405180910390f35b6103fc60048036038101906103f7919061388b565b6111e1565b6040516104099190613aeb565b60405180910390f35b61042c60048036038101906104279190613bf2565b6111f3565b005b61044860048036038101906104439190613d29565b611386565b005b610464600480360381019061045f91906139e5565b6115ba565b6040516104719190613602565b60405180910390f35b61048261192b565b60405161048f9190613834565b60405180910390f35b6104b260048036038101906104ad9190613dd8565b61195c565b6040516104bf9190613631565b60405180910390f35b6104e260048036038101906104dd9190613e16565b6119b4565b005b6104ec611bb1565b6040516104f99190613f6d565b60405180910390f35b61051c60048036038101906105179190613f8d565b611bd0565b005b61053860048036038101906105339190613776565b611c7e565b005b610554600480360381019061054f919061410e565b611d03565b005b61055e611d74565b60405161056b9190613631565b60405180910390f35b61058e600480360381019061058991906139e5565b611d8d565b005b6105aa60048036038101906105a59190614155565b611deb565b005b6105c660048036038101906105c1919061388b565b611e45565b6040516105d39190613631565b60405180910390f35b6105f660048036038101906105f1919061388b565b611e68565b6040516106039190613631565b60405180910390f35b6106266004803603810190610621919061384d565b611e8b565b005b610642600480360381019061063d91906139e5565b611fb2565b60405161064f919061430c565b60405180910390f35b610672600480360381019061066d919061384d565b61229e565b005b61067c6122ca565b6040516106899190613834565b60405180910390f35b6106ac60048036038101906106a7919061388b565b6122fb565b6040516106b99190613834565b60405180910390f35b6106ca61233d565b6040516106d79190613631565b60405180910390f35b6106fa60048036038101906106f59190614155565b61234f565b005b610716600480360381019061071191906139e5565b6123a4565b60405161072391906139c5565b60405180910390f35b6107466004803603810190610741919061432c565b6125da565b005b60605f61075486612750565b90505f61075f6127d7565b90505f82600d015f8881526020019081526020015f2090505f5f61078f61078884600501612803565b8989612816565b915091505f8167ffffffffffffffff8111156107ae576107ad613652565b5b6040519080825280602002602001820160405280156107e757816020015b6107d4613272565b8152602001906001900390816107cc5790505b5090505f5f90505b82811015610aec575f6108198286610807919061441a565b8760050161288090919063ffffffff16565b90505f876003015f8381526020019081526020015f205f9054906101000a900473ffffffffffffffffffffffffffffffffffffffff169050808484815181106108655761086461444d565b5b60200260200101516060019073ffffffffffffffffffffffffffffffffffffffff16908173ffffffffffffffffffffffffffffffffffffffff1681525050886012015f8273ffffffffffffffffffffffffffffffffffffffff1673ffffffffffffffffffffffffffffffffffffffff1681526020019081526020015f2060010180546108f0906144a7565b80601f016020809104026020016040519081016040528092919081815260200182805461091c906144a7565b80156109675780601f1061093e57610100808354040283529160200191610967565b820191905f5260205f20905b81548152906001019060200180831161094a57829003601f168201915b505050505084848151811061097f5761097e61444d565b5b602002602001015160200181905250886012015f8273ffffffffffffffffffffffffffffffffffffffff1673ffffffffffffffffffffffffffffffffffffffff1681526020019081526020015f2060020180546109db906144a7565b80601f0160208091040260200160405190810160405280929190818152602001828054610a07906144a7565b8015610a525780601f10610a2957610100808354040283529160200191610a52565b820191905f5260205f20905b815481529060010190602001808311610a3557829003601f168201915b5050505050848481518110610a6a57610a6961444d565b5b602002602001015160400181905250886012015f8273ffffffffffffffffffffffffffffffffffffffff1673ffffffffffffffffffffffffffffffffffffffff1681526020019081526020015f205f0154848481518110610ace57610acd61444d565b5b60200260200101515f018181525050505080806001019150506107ef565b50809650505050505050949350505050565b5f610b076127d7565b60090154905090565b610b1a8585612897565b610b23856128ae565b5f610b2c6127d7565b90505f815f015f8881526020019081526020015f209050610b6b8582600d015f8981526020019081526020015f2060030161291490919063ffffffff16565b5084816010015f8781526020019081526020015f205f018190555083816010015f8781526020019081526020015f206001019081610ba99190614677565b5082816010015f8781526020019081526020015f206002019081610bcd9190614677565b50806015015f815480929190610be290614746565b919050555050505050505050565b5f610bf96127d7565b600c0154905090565b5f5f610c0c6127d7565b905080600b015f9054906101000a900473ffffffffffffffffffffffffffffffffffffffff1691505090565b610c413361292b565b610c4a8261293f565b610c53826128ae565b5f610c5c6127d7565b90505f816002015f8581526020019081526020015f205490505f825f015f8381526020019081526020015f2090505f85825f016003015414610cb05781600a015f8781526020019081526020015f20610cb4565b815f015b90508481600501541015610d015785856040517fcf479181000000000000000000000000000000000000000000000000000000008152600401610cf892919061478d565b60405180910390fd5b84816005015f828254610d1491906147b4565b92505081905550505050505050565b610d2c3361294c565b5f610d356127d7565b90508181600c01819055505050565b60605f610d5086612750565b90505f81600d015f8781526020019081526020015f2090505f610d7582600301612803565b90505f5f610d84838989612816565b915091505f8167ffffffffffffffff811115610da357610da2613652565b5b604051908082528060200260200182016040528015610ddc57816020015b610dc96132ae565b815260200190600190039081610dc15790505b5090505f5f90505b82811015610f7e57866010015f610e128387610e00919061441a565b8960030161288090919063ffffffff16565b81526020019081526020015f206040518060600160405290815f8201548152602001600182018054610e43906144a7565b80601f0160208091040260200160405190810160405280929190818152602001828054610e6f906144a7565b8015610eba5780601f10610e9157610100808354040283529160200191610eba565b820191905f5260205f20905b815481529060010190602001808311610e9d57829003601f168201915b50505050508152602001600282018054610ed3906144a7565b80601f0160208091040260200160405190810160405280929190818152602001828054610eff906144a7565b8015610f4a5780601f10610f2157610100808354040283529160200191610f4a565b820191905f5260205f20905b815481529060010190602001808311610f2d57829003601f168201915b505050505081525050828281518110610f6657610f6561444d565b5b60200260200101819052508080600101915050610de4565b50809650505050505050949350505050565b610f9b838383612a6a565b610fa4836128ae565b5f610fad6127d7565b90505f815f015f8681526020019081526020015f209050610fec8382600d015f8781526020019081526020015f20600301612b0390919063ffffffff16565b505f8160150154111561101357806015015f81548092919061100d906147e7565b91905055505b5050505050565b6110233361292b565b61102c8261293f565b611035826128ae565b5f61103e6127d7565b90505f816002015f8581526020019081526020015f205490505f825f015f8381526020019081526020015f2090505f85825f0160030154146110925781600a015f8781526020019081526020015f20611096565b815f015b905084816005015f8282546110ab919061441a565b92505081905550505050505050565b6110c38461293f565b6110cd8484612b1a565b6110d6846128ae565b5f6110df6127d7565b905082815f015f8781526020019081526020015f20600a015f8681526020019081526020015f205f0160010190816111179190614677565b5081815f015f8781526020019081526020015f20600a015f8681526020019081526020015f205f01600201908161114e9190614677565b505050505050565b61115f8361293f565b61116a838383612b97565b611173836128ae565b5f61117c6127d7565b90506111b782825f015f8781526020019081526020015f20600d015f8681526020019081526020015f20600501612b0390919063ffffffff16565b5050505050565b5f6111c76127d7565b6001015f8381526020019081526020015f20549050919050565b5f6111ec8233612c30565b9050919050565b6111fc8761293f565b611205876128ae565b5f61120e6127d7565b90505f815f015f8a81526020019081526020015f20905061123f816016015482600b0161291490919063ffffffff16565b505f81600d015f836016015481526020019081526020015f2090508160160154815f015f018190555088815f01600101908161127b9190614677565b5087815f01600201908161128f9190614677565b505f5f90505b87518110156112dc576112ce8882815181106112b4576112b361444d565b5b60200260200101518360030161291490919063ffffffff16565b508080600101915050611295565b505f5f90505b86518110156113295761131b8782815181106113015761130061444d565b5b60200260200101518360050161291490919063ffffffff16565b5080806001019150506112e2565b5084816007015f6101000a81548160ff021916908315150217905550838160070160016101000a81548160ff021916908315150217905550816016015f81548092919061137590614746565b919050555050505050505050505050565b61138f33612d36565b5f6113986127d7565b90505f816002015f8881526020019081526020015f2054146113f157856040517f8be1f3fb0000000000000000000000000000000000000000000000000000000081526004016113e89190613631565b60405180910390fd5b5f815f015f8881526020019081526020015f20905085816013015f6101000a81548160ff02191690831515021790555082816007015f6101000a81548173ffffffffffffffffffffffffffffffffffffffff021916908373ffffffffffffffffffffffffffffffffffffffff16021790555086815f015f015f018190555084815f015f0160010190816114849190614677565b5083815f015f01600201908161149a9190614677565b505f815f016006015f6101000a81548160ff0219169083151502179055506001815f0160060160016101000a81548160ff0219169083151502179055506001815f0160060160026101000a81548160ff0219169083151502179055506001815f0160060160036101000a81548160ff0219169083151502179055506001815f0160060160046101000a81548160ff02191690831515021790555086815f01600301819055506312cc03004261154f919061441a565b815f01600401819055505f815f016005018190555086826002015f8981526020019081526020015f208190555081600a015f81548092919061159090614746565b919050555086826001015f84600a015481526020019081526020015f208190555050505050505050565b60605f6115c685612750565b90505f5f6115d983601401548787612816565b915091505f8167ffffffffffffffff8111156115f8576115f7613652565b5b60405190808252806020026020018201604052801561163157816020015b61161e613272565b8152602001906001900390816116165790505b5090505f5f90505b8281101561191c575f856011015f8387611653919061441a565b81526020019081526020015f205f9054906101000a900473ffffffffffffffffffffffffffffffffffffffff169050808383815181106116965761169561444d565b5b60200260200101516060019073ffffffffffffffffffffffffffffffffffffffff16908173ffffffffffffffffffffffffffffffffffffffff1681525050856012015f8273ffffffffffffffffffffffffffffffffffffffff1673ffffffffffffffffffffffffffffffffffffffff1681526020019081526020015f206001018054611721906144a7565b80601f016020809104026020016040519081016040528092919081815260200182805461174d906144a7565b80156117985780601f1061176f57610100808354040283529160200191611798565b820191905f5260205f20905b81548152906001019060200180831161177b57829003601f168201915b50505050508383815181106117b0576117af61444d565b5b602002602001015160200181905250856012015f8273ffffffffffffffffffffffffffffffffffffffff1673ffffffffffffffffffffffffffffffffffffffff1681526020019081526020015f20600201805461180c906144a7565b80601f0160208091040260200160405190810160405280929190818152602001828054611838906144a7565b80156118835780601f1061185a57610100808354040283529160200191611883565b820191905f5260205f20905b81548152906001019060200180831161186657829003601f168201915b505050505083838151811061189b5761189a61444d565b5b602002602001015160400181905250856012015f8273ffffffffffffffffffffffffffffffffffffffff1673ffffffffffffffffffffffffffffffffffffffff1681526020019081526020015f205f01548383815181106118ff576118fe61444d565b5b60200260200101515f018181525050508080600101915050611639565b50809450505050509392505050565b5f6119346127d7565b6007015f9054906101000a900473ffffffffffffffffffffffffffffffffffffffff16905090565b5f5f61196784612750565b9050806012015f8473ffffffffffffffffffffffffffffffffffffffff1673ffffffffffffffffffffffffffffffffffffffff1681526020019081526020015f205f015491505092915050565b6119bd8561293f565b6119c6856128ae565b5f6119cf6127d7565b90505f815f015f8881526020019081526020015f20905084816012015f8873ffffffffffffffffffffffffffffffffffffffff1673ffffffffffffffffffffffffffffffffffffffff1681526020019081526020015f205f018190555083816012015f8873ffffffffffffffffffffffffffffffffffffffff1673ffffffffffffffffffffffffffffffffffffffff1681526020019081526020015f206001019081611a7b9190614677565b5082816012015f8873ffffffffffffffffffffffffffffffffffffffff1673ffffffffffffffffffffffffffffffffffffffff1681526020019081526020015f206002019081611acb9190614677565b5085816011015f836014015481526020019081526020015f205f6101000a81548173ffffffffffffffffffffffffffffffffffffffff021916908373ffffffffffffffffffffffffffffffffffffffff160217905550806014015f815480929190611b3590614746565b9190505550816009015f815480929190611b4e90614746565b919050555085826003015f846009015481526020019081526020015f205f6101000a81548173ffffffffffffffffffffffffffffffffffffffff021916908373ffffffffffffffffffffffffffffffffffffffff16021790555050505050505050565b60605f611bbc6127d7565b9050611bca81600501612d9c565b91505090565b611bda8686612897565b611be3866128ae565b5f611bec6127d7565b90505f815f015f8981526020019081526020015f20600d015f8881526020019081526020015f20905085815f016001019081611c289190614677565b5084815f016002019081611c3c9190614677565b5083816007015f6101000a81548160ff021916908315150217905550828160070160016101000a81548160ff0219169083151502179055505050505050505050565b611c89858486612a6a565b611c92856128ae565b5f611c9b6127d7565b90505f815f015f8881526020019081526020015f20905083816010015f8881526020019081526020015f206001019081611cd59190614677565b5082816010015f8881526020019081526020015f206002019081611cf99190614677565b5050505050505050565b611d0c3361294c565b5f611d156127d7565b9050611d2381600501612dbb565b5f5f90505b8251811015611d6f57611d61838281518110611d4757611d4661444d565b5b602002602001015183600501612dc990919063ffffffff16565b508080600101915050611d28565b505050565b5f611d88611d806127d7565b600501612df6565b905090565b611d978383612897565b611da0836128ae565b5f611da96127d7565b9050611de482825f015f8781526020019081526020015f20600d015f8681526020019081526020015f2060050161291490919063ffffffff16565b5050505050565b611df43361294c565b5f611dfd6127d7565b90508181600b015f6101000a81548173ffffffffffffffffffffffffffffffffffffffff021916908373ffffffffffffffffffffffffffffffffffffffff1602179055505050565b5f611e4e6127d7565b6004015f8381526020019081526020015f20549050919050565b5f611e716127d7565b6004015f8381526020019081526020015f20549050919050565b611e948261293f565b611e9e8282612b1a565b611ea7826128ae565b5f611eb06127d7565b90505f815f015f8581526020019081526020015f209050611edd8382600801612b0390919063ffffffff16565b5080600a015f8481526020019081526020015f205f5f82015f5f82015f9055600182015f611f0b91906132ce565b600282015f611f1a91906132ce565b5050600382015f9055600482015f9055600582015f9055600682015f6101000a81549060ff02191690556006820160016101000a81549060ff02191690556006820160026101000a81549060ff02191690556006820160036101000a81549060ff02191690556006820160046101000a81549060ff02191690555050816002015f8481526020019081526020015f205f905550505050565b60605f611fbe85612750565b90505f611fcd82600801612803565b90505f5f611fdc838888612816565b915091505f8167ffffffffffffffff811115611ffb57611ffa613652565b5b60405190808252806020026020018201604052801561203457816020015b61202161330b565b8152602001906001900390816120195790505b5090505f5f90505b8281101561228e5785600a015f61206a8387612058919061441a565b8960080161288090919063ffffffff16565b81526020019081526020015f20604051806101200160405290815f82016040518060600160405290815f82015481526020016001820180546120ab906144a7565b80601f01602080910402602001604051908101604052809291908181526020018280546120d7906144a7565b80156121225780601f106120f957610100808354040283529160200191612122565b820191905f5260205f20905b81548152906001019060200180831161210557829003601f168201915b5050505050815260200160028201805461213b906144a7565b80601f0160208091040260200160405190810160405280929190818152602001828054612167906144a7565b80156121b25780601f10612189576101008083540402835291602001916121b2565b820191905f5260205f20905b81548152906001019060200180831161219557829003601f168201915b5050505050815250508152602001600382015481526020016004820154815260200160058201548152602001600682015f9054906101000a900460ff161515151581526020016006820160019054906101000a900460ff161515151581526020016006820160029054906101000a900460ff161515151581526020016006820160039054906101000a900460ff161515151581526020016006820160049054906101000a900460ff1615151515815250508282815181106122765761227561444d565b5b6020026020010181905250808060010191505061203c565b5080955050505050509392505050565b6122a73361292b565b806122b06127d7565b6004015f8481526020019081526020015f20819055505050565b5f6122d36127d7565b6008015f9054906101000a900473ffffffffffffffffffffffffffffffffffffffff16905090565b5f6123046127d7565b6003015f8381526020019081526020015f205f9054906101000a900473ffffffffffffffffffffffffffffffffffffffff169050919050565b5f6123466127d7565b600a0154905090565b6123583361292b565b806123616127d7565b6008015f6101000a81548173ffffffffffffffffffffffffffffffffffffffff021916908373ffffffffffffffffffffffffffffffffffffffff16021790555050565b60605f6123b085612750565b90505f6123bf82600b01612803565b90505f5f6123ce838888612816565b915091505f8167ffffffffffffffff8111156123ed576123ec613652565b5b60405190808252806020026020018201604052801561242657816020015b6124136132ae565b81526020019060019003908161240b5790505b5090505f5f90505b828110156125ca5785600d015f61245c838761244a919061441a565b89600b0161288090919063ffffffff16565b81526020019081526020015f205f016040518060600160405290815f820154815260200160018201805461248f906144a7565b80601f01602080910402602001604051908101604052809291908181526020018280546124bb906144a7565b80156125065780601f106124dd57610100808354040283529160200191612506565b820191905f5260205f20905b8154815290600101906020018083116124e957829003601f168201915b5050505050815260200160028201805461251f906144a7565b80601f016020809104026020016040519081016040528092919081815260200182805461254b906144a7565b80156125965780601f1061256d57610100808354040283529160200191612596565b820191905f5260205f20905b81548152906001019060200180831161257957829003601f168201915b5050505050815250508282815181106125b2576125b161444d565b5b6020026020010181905250808060010191505061242e565b5080955050505050509392505050565b6125e38661293f565b5f6125ec6127d7565b90505f816002015f8981526020019081526020015f205490505f825f015f8381526020019081526020015f20600a015f8981526020019081526020015f2090508781600301819055508681600401819055508581600501819055506001816006015f6101000a81548160ff0219169083151502179055505f8160060160016101000a81548160ff0219169083151502179055505f8160060160026101000a81548160ff0219169083151502179055505f8160060160036101000a81548160ff0219169083151502179055505f8160060160046101000a81548160ff02191690831515021790555087815f015f018190555084815f0160010190816126f09190614677565b5083815f0160020190816127049190614677565b5061272c88845f015f8581526020019081526020015f2060080161291490919063ffffffff16565b5081836002015f8a81526020019081526020015f2081905550505050505050505050565b5f5f61275a6127d7565b90505f816002015f8581526020019081526020015f205490505f81036127b757836040517fd4a847370000000000000000000000000000000000000000000000000000000081526004016127ae9190613631565b60405180910390fd5b5f825f015f8381526020019081526020015f209050809350505050919050565b5f5f7f171def12e82c8f3351e4c79b7854be19ad60a75b888f74b9660c07cd7461963390508091505090565b5f61280f825f01612e09565b9050919050565b5f5f84831115612827578492505f93505b5f8385612834919061480e565b9050858110612849575f5f9250925050612878565b5f8482612856919061441a565b905086811115612864578690505b81828261287191906147b4565b9350935050505b935093915050565b5f61288d835f0183612e18565b5f1c905092915050565b6128a08261293f565b6128aa8282612e3f565b5050565b5f6128b76127d7565b905081816002015f8481526020019081526020015f20541461291057816040517f1d0932ee0000000000000000000000000000000000000000000000000000000081526004016129079190613631565b60405180910390fd5b5050565b5f612923835f01835f1b612e90565b905092915050565b61293c6129366127d7565b82612ef7565b50565b6129498133612faf565b50565b5f6129556127d7565b905061296d828260050161300090919063ffffffff16565b1580156129c95750806007015f9054906101000a900473ffffffffffffffffffffffffffffffffffffffff1673ffffffffffffffffffffffffffffffffffffffff168273ffffffffffffffffffffffffffffffffffffffff1614155b8015612a24575080600b015f9054906101000a900473ffffffffffffffffffffffffffffffffffffffff1673ffffffffffffffffffffffffffffffffffffffff168273ffffffffffffffffffffffffffffffffffffffff1614155b15612a6657816040517f2d87faed000000000000000000000000000000000000000000000000000000008152600401612a5d9190613834565b60405180910390fd5b5050565b612a748383612897565b5f612a7d6127d7565b9050612ab882825f015f8781526020019081526020015f20600d015f8681526020019081526020015f2060030161302d90919063ffffffff16565b612afd578383836040517fef25d02d000000000000000000000000000000000000000000000000000000008152600401612af49392919061484f565b60405180910390fd5b50505050565b5f612b12835f01835f1b613044565b905092915050565b5f612b236127d7565b905081815f015f8581526020019081526020015f20600a015f8481526020019081526020015f206003015414612b925782826040517f748e712a000000000000000000000000000000000000000000000000000000008152600401612b8992919061478d565b60405180910390fd5b505050565b612ba18383612897565b5f612baa6127d7565b9050612be582825f015f8781526020019081526020015f20600d015f8681526020019081526020015f2060050161302d90919063ffffffff16565b612c2a578383836040517f79167858000000000000000000000000000000000000000000000000000000008152600401612c219392919061484f565b60405180910390fd5b50505050565b5f5f612c3a6127d7565b90505f816002015f8681526020019081526020015f205490505f8103612c64575f92505050612d30565b5f825f015f8381526020019081526020015f20905081815f016003015414612c91575f9350505050612d30565b612ca7858460050161300090919063ffffffff16565b8015612cc7575060011515816013015f9054906101000a900460ff161515145b15612cd85760019350505050612d30565b8473ffffffffffffffffffffffffffffffffffffffff16816007015f9054906101000a900473ffffffffffffffffffffffffffffffffffffffff1673ffffffffffffffffffffffffffffffffffffffff161493505050505b92915050565b5f612d3f6127d7565b9050612d57828260050161300090919063ffffffff16565b612d9857816040517f92f13c4e000000000000000000000000000000000000000000000000000000008152600401612d8f9190613834565b60405180910390fd5b5050565b60605f612daa835f01613140565b905060608190508092505050919050565b612dc6815f01613199565b50565b5f612dee835f018373ffffffffffffffffffffffffffffffffffffffff165f1b612e90565b905092915050565b5f612e02825f01612e09565b9050919050565b5f815f01805490509050919050565b5f825f018281548110612e2e57612e2d61444d565b5b905f5260205f200154905092915050565b612e498282613201565b612e8c5781816040517f931a85b3000000000000000000000000000000000000000000000000000000008152600401612e8392919061478d565b60405180910390fd5b5050565b5f612e9b838361324b565b612eed57825f0182908060018154018082558091505060019003905f5260205f20015f9091909190915055825f0180549050836001015f8481526020019081526020015f208190555060019050612ef1565b5f90505b92915050565b612f0d818360050161300090919063ffffffff16565b158015612f695750816008015f9054906101000a900473ffffffffffffffffffffffffffffffffffffffff1673ffffffffffffffffffffffffffffffffffffffff168173ffffffffffffffffffffffffffffffffffffffff1614155b15612fab57806040517f9ed88e07000000000000000000000000000000000000000000000000000000008152600401612fa29190613834565b60405180910390fd5b5050565b612fb98282612c30565b612ffc5781816040517f7b0f9c07000000000000000000000000000000000000000000000000000000008152600401612ff3929190614884565b60405180910390fd5b5050565b5f613025835f018373ffffffffffffffffffffffffffffffffffffffff165f1b61324b565b905092915050565b5f61303c835f01835f1b61324b565b905092915050565b5f5f836001015f8481526020019081526020015f205490505f8114613135575f60018261307191906147b4565b90505f6001865f018054905061308791906147b4565b90508082146130ed575f865f0182815481106130a6576130a561444d565b5b905f5260205f200154905080875f0184815481106130c7576130c661444d565b5b905f5260205f20018190555083876001015f8381526020019081526020015f2081905550505b855f01805480613100576130ff6148ab565b5b600190038181905f5260205f20015f90559055856001015f8681526020019081526020015f205f90556001935050505061313a565b5f9150505b92915050565b6060815f0180548060200260200160405190810160405280929190818152602001828054801561318d57602002820191905f5260205f20905b815481526020019060010190808311613179575b50505050509050919050565b5f6131a382612e09565b90505f5f90505b818110156131f057826001015f845f0183815481106131cc576131cb61444d565b5b905f5260205f20015481526020019081526020015f205f90558060010190506131aa565b506131fd825f015f61326b565b5050565b5f5f61320b6127d7565b90505f815f015f8681526020019081526020015f2090505f81600d015f8681526020019081526020015f20905084815f015f015414935050505092915050565b5f5f836001015f8481526020019081526020015f20541415905092915050565b8082555050565b60405180608001604052805f815260200160608152602001606081526020015f73ffffffffffffffffffffffffffffffffffffffff1681525090565b60405180606001604052805f815260200160608152602001606081525090565b5080546132da906144a7565b5f825580601f106132eb5750613308565b601f0160209004905f5260205f2090810190613307919061335f565b5b50565b60405180610120016040528061331f6132ae565b81526020015f81526020015f81526020015f81526020015f151581526020015f151581526020015f151581526020015f151581526020015f151581525090565b5b80821115613376575f815f905550600101613360565b5090565b5f604051905090565b5f5ffd5b5f5ffd5b5f819050919050565b61339d8161338b565b81146133a7575f5ffd5b50565b5f813590506133b881613394565b92915050565b5f5f5f5f608085870312156133d6576133d5613383565b5b5f6133e3878288016133aa565b94505060206133f4878288016133aa565b9350506040613405878288016133aa565b9250506060613416878288016133aa565b91505092959194509250565b5f81519050919050565b5f82825260208201905092915050565b5f819050602082019050919050565b6134548161338b565b82525050565b5f81519050919050565b5f82825260208201905092915050565b8281835e5f83830152505050565b5f601f19601f8301169050919050565b5f61349c8261345a565b6134a68185613464565b93506134b6818560208601613474565b6134bf81613482565b840191505092915050565b5f73ffffffffffffffffffffffffffffffffffffffff82169050919050565b5f6134f3826134ca565b9050919050565b613503816134e9565b82525050565b5f608083015f83015161351e5f86018261344b565b50602083015184820360208601526135368282613492565b915050604083015184820360408601526135508282613492565b915050606083015161356560608601826134fa565b508091505092915050565b5f61357b8383613509565b905092915050565b5f602082019050919050565b5f61359982613422565b6135a3818561342c565b9350836020820285016135b58561343c565b805f5b858110156135f057848403895281516135d18582613570565b94506135dc83613583565b925060208a019950506001810190506135b8565b50829750879550505050505092915050565b5f6020820190508181035f83015261361a818461358f565b905092915050565b61362b8161338b565b82525050565b5f6020820190506136445f830184613622565b92915050565b5f5ffd5b5f5ffd5b7f4e487b71000000000000000000000000000000000000000000000000000000005f52604160045260245ffd5b61368882613482565b810181811067ffffffffffffffff821117156136a7576136a6613652565b5b80604052505050565b5f6136b961337a565b90506136c5828261367f565b919050565b5f67ffffffffffffffff8211156136e4576136e3613652565b5b6136ed82613482565b9050602081019050919050565b828183375f83830152505050565b5f61371a613715846136ca565b6136b0565b9050828152602081018484840111156137365761373561364e565b5b6137418482856136fa565b509392505050565b5f82601f83011261375d5761375c61364a565b5b813561376d848260208601613708565b91505092915050565b5f5f5f5f5f60a0868803121561378f5761378e613383565b5b5f61379c888289016133aa565b95505060206137ad888289016133aa565b94505060406137be888289016133aa565b935050606086013567ffffffffffffffff8111156137df576137de613387565b5b6137eb88828901613749565b925050608086013567ffffffffffffffff81111561380c5761380b613387565b5b61381888828901613749565b9150509295509295909350565b61382e816134e9565b82525050565b5f6020820190506138475f830184613825565b92915050565b5f5f6040838503121561386357613862613383565b5b5f613870858286016133aa565b9250506020613881858286016133aa565b9150509250929050565b5f602082840312156138a05761389f613383565b5b5f6138ad848285016133aa565b91505092915050565b5f81519050919050565b5f82825260208201905092915050565b5f819050602082019050919050565b5f606083015f8301516138f45f86018261344b565b506020830151848203602086015261390c8282613492565b915050604083015184820360408601526139268282613492565b9150508091505092915050565b5f61393e83836138df565b905092915050565b5f602082019050919050565b5f61395c826138b6565b61396681856138c0565b935083602082028501613978856138d0565b805f5b858110156139b357848403895281516139948582613933565b945061399f83613946565b925060208a0199505060018101905061397b565b50829750879550505050505092915050565b5f6020820190508181035f8301526139dd8184613952565b905092915050565b5f5f5f606084860312156139fc576139fb613383565b5b5f613a09868287016133aa565b9350506020613a1a868287016133aa565b9250506040613a2b868287016133aa565b9150509250925092565b5f5f5f5f60808587031215613a4d57613a4c613383565b5b5f613a5a878288016133aa565b9450506020613a6b878288016133aa565b935050604085013567ffffffffffffffff811115613a8c57613a8b613387565b5b613a9887828801613749565b925050606085013567ffffffffffffffff811115613ab957613ab8613387565b5b613ac587828801613749565b91505092959194509250565b5f8115159050919050565b613ae581613ad1565b82525050565b5f602082019050613afe5f830184613adc565b92915050565b5f67ffffffffffffffff821115613b1e57613b1d613652565b5b602082029050602081019050919050565b5f5ffd5b5f613b45613b4084613b04565b6136b0565b90508083825260208201905060208402830185811115613b6857613b67613b2f565b5b835b81811015613b915780613b7d88826133aa565b845260208401935050602081019050613b6a565b5050509392505050565b5f82601f830112613baf57613bae61364a565b5b8135613bbf848260208601613b33565b91505092915050565b613bd181613ad1565b8114613bdb575f5ffd5b50565b5f81359050613bec81613bc8565b92915050565b5f5f5f5f5f5f5f60e0888a031215613c0d57613c0c613383565b5b5f613c1a8a828b016133aa565b975050602088013567ffffffffffffffff811115613c3b57613c3a613387565b5b613c478a828b01613749565b965050604088013567ffffffffffffffff811115613c6857613c67613387565b5b613c748a828b01613749565b955050606088013567ffffffffffffffff811115613c9557613c94613387565b5b613ca18a828b01613b9b565b945050608088013567ffffffffffffffff811115613cc257613cc1613387565b5b613cce8a828b01613b9b565b93505060a0613cdf8a828b01613bde565b92505060c0613cf08a828b01613bde565b91505092959891949750929550565b613d08816134e9565b8114613d12575f5ffd5b50565b5f81359050613d2381613cff565b92915050565b5f5f5f5f5f60a08688031215613d4257613d41613383565b5b5f613d4f888289016133aa565b9550506020613d6088828901613bde565b945050604086013567ffffffffffffffff811115613d8157613d80613387565b5b613d8d88828901613749565b935050606086013567ffffffffffffffff811115613dae57613dad613387565b5b613dba88828901613749565b9250506080613dcb88828901613d15565b9150509295509295909350565b5f5f60408385031215613dee57613ded613383565b5b5f613dfb858286016133aa565b9250506020613e0c85828601613d15565b9150509250929050565b5f5f5f5f5f60a08688031215613e2f57613e2e613383565b5b5f613e3c888289016133aa565b9550506020613e4d88828901613d15565b9450506040613e5e888289016133aa565b935050606086013567ffffffffffffffff811115613e7f57613e7e613387565b5b613e8b88828901613749565b925050608086013567ffffffffffffffff811115613eac57613eab613387565b5b613eb888828901613749565b9150509295509295909350565b5f81519050919050565b5f82825260208201905092915050565b5f819050602082019050919050565b5f613ef983836134fa565b60208301905092915050565b5f602082019050919050565b5f613f1b82613ec5565b613f258185613ecf565b9350613f3083613edf565b805f5b83811015613f60578151613f478882613eee565b9750613f5283613f05565b925050600181019050613f33565b5085935050505092915050565b5f6020820190508181035f830152613f858184613f11565b905092915050565b5f5f5f5f5f5f60c08789031215613fa757613fa6613383565b5b5f613fb489828a016133aa565b9650506020613fc589828a016133aa565b955050604087013567ffffffffffffffff811115613fe657613fe5613387565b5b613ff289828a01613749565b945050606087013567ffffffffffffffff81111561401357614012613387565b5b61401f89828a01613749565b935050608061403089828a01613bde565b92505060a061404189828a01613bde565b9150509295509295509295565b5f67ffffffffffffffff82111561406857614067613652565b5b602082029050602081019050919050565b5f61408b6140868461404e565b6136b0565b905080838252602082019050602084028301858111156140ae576140ad613b2f565b5b835b818110156140d757806140c38882613d15565b8452602084019350506020810190506140b0565b5050509392505050565b5f82601f8301126140f5576140f461364a565b5b8135614105848260208601614079565b91505092915050565b5f6020828403121561412357614122613383565b5b5f82013567ffffffffffffffff8111156141405761413f613387565b5b61414c848285016140e1565b91505092915050565b5f6020828403121561416a57614169613383565b5b5f61417784828501613d15565b91505092915050565b5f81519050919050565b5f82825260208201905092915050565b5f819050602082019050919050565b6141b281613ad1565b82525050565b5f61012083015f8301518482035f8601526141d382826138df565b91505060208301516141e8602086018261344b565b5060408301516141fb604086018261344b565b50606083015161420e606086018261344b565b50608083015161422160808601826141a9565b5060a083015161423460a08601826141a9565b5060c083015161424760c08601826141a9565b5060e083015161425a60e08601826141a9565b5061010083015161426f6101008601826141a9565b508091505092915050565b5f61428583836141b8565b905092915050565b5f602082019050919050565b5f6142a382614180565b6142ad818561418a565b9350836020820285016142bf8561419a565b805f5b858110156142fa57848403895281516142db858261427a565b94506142e68361428d565b925060208a019950506001810190506142c2565b50829750879550505050505092915050565b5f6020820190508181035f8301526143248184614299565b905092915050565b5f5f5f5f5f5f60c0878903121561434657614345613383565b5b5f61435389828a016133aa565b965050602061436489828a016133aa565b955050604061437589828a016133aa565b945050606061438689828a016133aa565b935050608087013567ffffffffffffffff8111156143a7576143a6613387565b5b6143b389828a01613749565b92505060a087013567ffffffffffffffff8111156143d4576143d3613387565b5b6143e089828a01613749565b9150509295509295509295565b7f4e487b71000000000000000000000000000000000000000000000000000000005f52601160045260245ffd5b5f6144248261338b565b915061442f8361338b565b9250828201905080821115614447576144466143ed565b5b92915050565b7f4e487b71000000000000000000000000000000000000000000000000000000005f52603260045260245ffd5b7f4e487b71000000000000000000000000000000000000000000000000000000005f52602260045260245ffd5b5f60028204905060018216806144be57607f821691505b6020821081036144d1576144d061447a565b5b50919050565b5f819050815f5260205f209050919050565b5f6020601f8301049050919050565b5f82821b905092915050565b5f600883026145337fffffffffffffffffffffffffffffffffffffffffffffffffffffffffffffffff826144f8565b61453d86836144f8565b95508019841693508086168417925050509392505050565b5f819050919050565b5f61457861457361456e8461338b565b614555565b61338b565b9050919050565b5f819050919050565b6145918361455e565b6145a561459d8261457f565b848454614504565b825550505050565b5f5f905090565b6145bc6145ad565b6145c7818484614588565b505050565b5b818110156145ea576145df5f826145b4565b6001810190506145cd565b5050565b601f82111561462f57614600816144d7565b614609846144e9565b81016020851015614618578190505b61462c614624856144e9565b8301826145cc565b50505b505050565b5f82821c905092915050565b5f61464f5f1984600802614634565b1980831691505092915050565b5f6146678383614640565b9150826002028217905092915050565b6146808261345a565b67ffffffffffffffff81111561469957614698613652565b5b6146a382546144a7565b6146ae8282856145ee565b5f60209050601f8311600181146146df575f84156146cd578287015190505b6146d7858261465c565b86555061473e565b601f1984166146ed866144d7565b5f5b82811015614714578489015182556001820191506020850194506020810190506146ef565b86831015614731578489015161472d601f891682614640565b8355505b6001600288020188555050505b505050505050565b5f6147508261338b565b91507fffffffffffffffffffffffffffffffffffffffffffffffffffffffffffffffff8203614782576147816143ed565b5b600182019050919050565b5f6040820190506147a05f830185613622565b6147ad6020830184613622565b9392505050565b5f6147be8261338b565b91506147c98361338b565b92508282039050818111156147e1576147e06143ed565b5b92915050565b5f6147f18261338b565b91505f8203614803576148026143ed565b5b600182039050919050565b5f6148188261338b565b91506148238361338b565b92508282026148318161338b565b91508282048414831517614848576148476143ed565b5b5092915050565b5f6060820190506148625f830186613622565b61486f6020830185613622565b61487c6040830184613622565b949350505050565b5f6040820190506148975f830185613622565b6148a46020830184613825565b9392505050565b7f4e487b71000000000000000000000000000000000000000000000000000000005f52603160045260245ffdfea2646970667358221220cf96b61597e872fbd939c132f4b219a8348b6b7b9db296d773b2f402bdf007a164736f6c634300081c0033",
  "linkReferences": {},
  "deployedLinkReferences": {},
  "immutableReferences": {},
  "inputSourceName": "project/contracts/AccountConfig.sol",
  "buildInfoId": "solc-0_8_28-baba6f5551820cc4a50f2598819d79a4d84742c2"
}