{
  "_format": "hh3-artifact-1",
  "contractName": "AccountConfig",
  "sourceName": "contracts/AccountConfig.sol",
  "abi": [
    {
      "inputs": [],
      "stateMutability": "nonpayable",
      "type": "constructor"
    },
    {
      "inputs": [
        {
          "internalType": "uint256",
          "name": "apiKey",
          "type": "uint256"
        },
        {
          "internalType": "uint256",
          "name": "accountApiKey",
          "type": "uint256"
        }
      ],
      "name": "AccountApiKeyDoesNotExist",
      "type": "error"
    },
    {
      "inputs": [
        {
          "internalType": "uint256",
          "name": "apiKey",
          "type": "uint256"
        }
      ],
      "name": "AccountDoesNotExist",
      "type": "error"
    },
    {
      "inputs": [
        {
          "internalType": "uint256",
          "name": "apiKey",
          "type": "uint256"
        },
        {
          "internalType": "uint256",
          "name": "groupId",
          "type": "uint256"
        },
        {
          "internalType": "uint256",
          "name": "action",
          "type": "uint256"
        }
      ],
      "name": "ActionDoesNotExist",
      "type": "error"
    },
    {
      "inputs": [
        {
          "internalType": "uint256",
          "name": "apiKey",
          "type": "uint256"
        },
        {
          "internalType": "uint256",
          "name": "groupId",
          "type": "uint256"
        }
      ],
      "name": "GroupDoesNotExist",
      "type": "error"
    },
    {
      "inputs": [
        {
          "internalType": "uint256",
          "name": "apiKey",
          "type": "uint256"
        },
        {
          "internalType": "uint256",
          "name": "groupId",
          "type": "uint256"
        },
        {
          "internalType": "uint256",
          "name": "pkp",
          "type": "uint256"
        }
      ],
      "name": "PkpDoesNotExist",
      "type": "error"
    },
    {
      "inputs": [
        {
          "internalType": "uint256",
          "name": "apiKey",
          "type": "uint256"
        },
        {
          "internalType": "uint256",
          "name": "groupId",
          "type": "uint256"
        },
        {
          "internalType": "uint256",
          "name": "action",
          "type": "uint256"
        }
      ],
      "name": "addActionToGroup",
      "outputs": [],
      "stateMutability": "nonpayable",
      "type": "function"
    },
    {
      "inputs": [
        {
          "internalType": "uint256",
          "name": "apiKey",
          "type": "uint256"
        },
        {
          "internalType": "uint256",
          "name": "expiration",
          "type": "uint256"
        },
        {
          "internalType": "uint256",
          "name": "balance",
          "type": "uint256"
        }
      ],
      "name": "addApiKey",
      "outputs": [],
      "stateMutability": "nonpayable",
      "type": "function"
    },
    {
      "inputs": [
        {
          "internalType": "uint256",
          "name": "apiKey",
          "type": "uint256"
        },
        {
          "internalType": "uint256[]",
          "name": "permitted_actions",
          "type": "uint256[]"
        },
        {
          "internalType": "uint256[]",
          "name": "pkps",
          "type": "uint256[]"
        }
      ],
      "name": "addGroup",
      "outputs": [],
      "stateMutability": "nonpayable",
      "type": "function"
    },
    {
      "inputs": [
        {
          "internalType": "uint256",
          "name": "apiKey",
          "type": "uint256"
        },
        {
          "internalType": "uint256",
          "name": "groupId",
          "type": "uint256"
        },
        {
          "internalType": "uint256",
          "name": "pkp",
          "type": "uint256"
        }
      ],
      "name": "addPkpToGroup",
      "outputs": [],
      "stateMutability": "nonpayable",
      "type": "function"
    },
    {
      "inputs": [
        {
          "internalType": "uint256",
          "name": "apiKey",
          "type": "uint256"
        },
        {
          "internalType": "bool",
          "name": "managed",
          "type": "bool"
        }
      ],
      "name": "newAccount",
      "outputs": [],
      "stateMutability": "nonpayable",
      "type": "function"
    },
    {
      "inputs": [],
      "name": "nextPkpId",
      "outputs": [
        {
          "internalType": "uint256",
          "name": "",
          "type": "uint256"
        }
      ],
      "stateMutability": "view",
      "type": "function"
    },
    {
      "inputs": [
        {
          "internalType": "uint256",
          "name": "apiKey",
          "type": "uint256"
        },
        {
          "internalType": "uint256",
          "name": "accountApiKey",
          "type": "uint256"
        }
      ],
      "name": "removeAccountApiKey",
      "outputs": [],
      "stateMutability": "nonpayable",
      "type": "function"
    },
    {
      "inputs": [
        {
          "internalType": "uint256",
          "name": "apiKey",
          "type": "uint256"
        },
        {
          "internalType": "uint256",
          "name": "groupId",
          "type": "uint256"
        },
        {
          "internalType": "uint256",
          "name": "action",
          "type": "uint256"
        }
      ],
      "name": "removeActionFromGroup",
      "outputs": [],
      "stateMutability": "nonpayable",
      "type": "function"
    },
    {
      "inputs": [
        {
          "internalType": "uint256",
          "name": "apiKey",
          "type": "uint256"
        },
        {
          "internalType": "uint256",
          "name": "groupId",
          "type": "uint256"
        },
        {
          "internalType": "uint256",
          "name": "pkp",
          "type": "uint256"
        }
      ],
      "name": "removePkpFromGroup",
      "outputs": [],
      "stateMutability": "nonpayable",
      "type": "function"
    }
  ],
  "bytecode": "0x6080604052348015600e575f5ffd5b505f600181905550610f59806100235f395ff3fe608060405234801561000f575f5ffd5b5060043610610091575f3560e01c8063b0584f7c11610064578063b0584f7c14610105578063c9d0d75614610121578063d2796adf1461013d578063e43c6d0614610159578063f0339c3b1461017757610091565b80631f52aa42146100955780635d861c72146100b1578063a506fed0146100cd578063aefab5ac146100e9575b5f5ffd5b6100af60048036038101906100aa9190610ac5565b610193565b005b6100cb60048036038101906100c69190610ac5565b610222565b005b6100e760048036038101906100e29190610ac5565b6102b4565b005b61010360048036038101906100fe9190610ac5565b610343565b005b61011f600480360381019061011a9190610c65565b6103d2565b005b61013b60048036038101906101369190610ced565b61052a565b005b61015760048036038101906101529190610d60565b6105b9565b005b6101616105f4565b60405161016e9190610dad565b60405180910390f35b610191600480360381019061018c9190610ac5565b6105fa565b005b61019d838361068c565b6101e05782826040517f931a85b30000000000000000000000000000000000000000000000000000000081526004016101d7929190610dc6565b60405180910390fd5b5f5f5f8581526020019081526020015f20905061021b82826004015f8681526020019081526020015f2060010161070690919063ffffffff16565b5050505050565b61022d83838361071d565b610272578282826040517fef25d02d00000000000000000000000000000000000000000000000000000000815260040161026993929190610ded565b60405180910390fd5b5f5f5f8581526020019081526020015f2090506102ad82826004015f8681526020019081526020015f206001016107ab90919063ffffffff16565b5050505050565b6102be838361068c565b6103015782826040517f931a85b30000000000000000000000000000000000000000000000000000000081526004016102f8929190610dc6565b60405180910390fd5b5f5f5f8581526020019081526020015f20905061033c82826004015f8681526020019081526020015f2060030161070690919063ffffffff16565b5050505050565b61034c836107c2565b61038d57826040517fd4a847370000000000000000000000000000000000000000000000000000000081526004016103849190610dad565b60405180910390fd5b5f5f5f8581526020019081526020015f206001015f8581526020019081526020015f20905083815f018190555082816001018190555081816002018190555050505050565b6103db836107c2565b61041c57826040517fd4a847370000000000000000000000000000000000000000000000000000000081526004016104139190610dad565b60405180910390fd5b5f5f5f8581526020019081526020015f20905061044981600601548260020161070690919063ffffffff16565b505f816004015f836006015481526020019081526020015f2090508160060154815f01819055505f5f90505b84518110156104bc576104ae85828151811061049457610493610e22565b5b60200260200101518360010161070690919063ffffffff16565b508080600101915050610475565b505f5f90505b8351811015610509576104fb8482815181106104e1576104e0610e22565b5b60200260200101518360030161070690919063ffffffff16565b5080806001019150506104c2565b50816006015f81548092919061051e90610e7c565b91905055505050505050565b61053482826107df565b6105775781816040517ff411afbe00000000000000000000000000000000000000000000000000000000815260040161056e929190610dc6565b60405180910390fd5b5f5f5f8481526020019081526020015f209050806001015f8381526020019081526020015f205f5f82015f9055600182015f9055600282015f90555050505050565b5f5f5f8481526020019081526020015f20905082815f018190555081816005015f6101000a81548160ff021916908315150217905550505050565b60015481565b610605838383610859565b61064a578282826040517fcec324d800000000000000000000000000000000000000000000000000000000815260040161064193929190610ded565b60405180910390fd5b5f5f5f8581526020019081526020015f20905061068582826004015f8681526020019081526020015f206003016107ab90919063ffffffff16565b5050505050565b5f610696836107c2565b6106d757826040517fd4a847370000000000000000000000000000000000000000000000000000000081526004016106ce9190610dad565b60405180910390fd5b815f5f8581526020019081526020015f206004015f8481526020019081526020015f205f015414905092915050565b5f610715835f01835f1b6108e7565b905092915050565b5f610728848461068c565b61076b5783836040517f931a85b3000000000000000000000000000000000000000000000000000000008152600401610762929190610dc6565b60405180910390fd5b6107a2825f5f8781526020019081526020015f206004015f8681526020019081526020015f2060010161094e90919063ffffffff16565b90509392505050565b5f6107ba835f01835f1b610965565b905092915050565b5f815f5f8481526020019081526020015f205f0154149050919050565b5f6107e9836107c2565b61082a57826040517fd4a847370000000000000000000000000000000000000000000000000000000081526004016108219190610dad565b60405180910390fd5b815f5f8581526020019081526020015f206001015f8481526020019081526020015f205f015414905092915050565b5f610864848461068c565b6108a75783836040517f931a85b300000000000000000000000000000000000000000000000000000000815260040161089e929190610dc6565b60405180910390fd5b6108de825f5f8781526020019081526020015f206004015f8681526020019081526020015f2060030161094e90919063ffffffff16565b90509392505050565b5f6108f28383610a61565b61094457825f0182908060018154018082558091505060019003905f5260205f20015f9091909190915055825f0180549050836001015f8481526020019081526020015f208190555060019050610948565b5f90505b92915050565b5f61095d835f01835f1b610a61565b905092915050565b5f5f836001015f8481526020019081526020015f205490505f8114610a56575f6001826109929190610ec3565b90505f6001865f01805490506109a89190610ec3565b9050808214610a0e575f865f0182815481106109c7576109c6610e22565b5b905f5260205f200154905080875f0184815481106109e8576109e7610e22565b5b905f5260205f20018190555083876001015f8381526020019081526020015f2081905550505b855f01805480610a2157610a20610ef6565b5b600190038181905f5260205f20015f90559055856001015f8681526020019081526020015f205f905560019350505050610a5b565b5f9150505b92915050565b5f5f836001015f8481526020019081526020015f20541415905092915050565b5f604051905090565b5f5ffd5b5f5ffd5b5f819050919050565b610aa481610a92565b8114610aae575f5ffd5b50565b5f81359050610abf81610a9b565b92915050565b5f5f5f60608486031215610adc57610adb610a8a565b5b5f610ae986828701610ab1565b9350506020610afa86828701610ab1565b9250506040610b0b86828701610ab1565b9150509250925092565b5f5ffd5b5f601f19601f8301169050919050565b7f4e487b71000000000000000000000000000000000000000000000000000000005f52604160045260245ffd5b610b5f82610b19565b810181811067ffffffffffffffff82111715610b7e57610b7d610b29565b5b80604052505050565b5f610b90610a81565b9050610b9c8282610b56565b919050565b5f67ffffffffffffffff821115610bbb57610bba610b29565b5b602082029050602081019050919050565b5f5ffd5b5f610be2610bdd84610ba1565b610b87565b90508083825260208201905060208402830185811115610c0557610c04610bcc565b5b835b81811015610c2e5780610c1a8882610ab1565b845260208401935050602081019050610c07565b5050509392505050565b5f82601f830112610c4c57610c4b610b15565b5b8135610c5c848260208601610bd0565b91505092915050565b5f5f5f60608486031215610c7c57610c7b610a8a565b5b5f610c8986828701610ab1565b935050602084013567ffffffffffffffff811115610caa57610ca9610a8e565b5b610cb686828701610c38565b925050604084013567ffffffffffffffff811115610cd757610cd6610a8e565b5b610ce386828701610c38565b9150509250925092565b5f5f60408385031215610d0357610d02610a8a565b5b5f610d1085828601610ab1565b9250506020610d2185828601610ab1565b9150509250929050565b5f8115159050919050565b610d3f81610d2b565b8114610d49575f5ffd5b50565b5f81359050610d5a81610d36565b92915050565b5f5f60408385031215610d7657610d75610a8a565b5b5f610d8385828601610ab1565b9250506020610d9485828601610d4c565b9150509250929050565b610da781610a92565b82525050565b5f602082019050610dc05f830184610d9e565b92915050565b5f604082019050610dd95f830185610d9e565b610de66020830184610d9e565b9392505050565b5f606082019050610e005f830186610d9e565b610e0d6020830185610d9e565b610e1a6040830184610d9e565b949350505050565b7f4e487b71000000000000000000000000000000000000000000000000000000005f52603260045260245ffd5b7f4e487b71000000000000000000000000000000000000000000000000000000005f52601160045260245ffd5b5f610e8682610a92565b91507fffffffffffffffffffffffffffffffffffffffffffffffffffffffffffffffff8203610eb857610eb7610e4f565b5b600182019050919050565b5f610ecd82610a92565b9150610ed883610a92565b9250828203905081811115610ef057610eef610e4f565b5b92915050565b7f4e487b71000000000000000000000000000000000000000000000000000000005f52603160045260245ffdfea264697066735822122030087245381672552c979d733b2e7596cb96d0ff80c38d73121103586fe4dfab64736f6c634300081c0033",
  "linkReferences": {},
  "deployedLinkReferences": {},
  "immutableReferences": {},
  "inputSourceName": "project/contracts/AccountConfig.sol",
  "buildInfoId": "solc-0_8_28-4dfe26045caf77c7181cafda92d30605085a6ac5"
}