{
  "_format": "hh3-artifact-1",
  "contractName": "AccountConfig",
  "sourceName": "contracts/AccountConfig.sol",
  "abi": [
    {
      "inputs": [],
      "stateMutability": "nonpayable",
      "type": "constructor"
    },
    {
      "inputs": [
        {
          "internalType": "uint256",
          "name": "apiKey",
          "type": "uint256"
        }
      ],
      "name": "AccountAlreadyExists",
      "type": "error"
    },
    {
      "inputs": [
        {
          "internalType": "uint256",
          "name": "apiKey",
          "type": "uint256"
        }
      ],
      "name": "AccountDoesNotExist",
      "type": "error"
    },
    {
      "inputs": [
        {
          "internalType": "uint256",
          "name": "apiKey",
          "type": "uint256"
        },
        {
          "internalType": "uint256",
          "name": "groupId",
          "type": "uint256"
        },
        {
          "internalType": "uint256",
          "name": "action",
          "type": "uint256"
        }
      ],
      "name": "ActionDoesNotExist",
      "type": "error"
    },
    {
      "inputs": [
        {
          "internalType": "uint256",
          "name": "apiKey",
          "type": "uint256"
        },
        {
          "internalType": "uint256",
          "name": "groupId",
          "type": "uint256"
        }
      ],
      "name": "GroupDoesNotExist",
      "type": "error"
    },
    {
      "inputs": [
        {
          "internalType": "uint256",
          "name": "apiKey",
          "type": "uint256"
        },
        {
          "internalType": "uint256",
          "name": "amount",
          "type": "uint256"
        }
      ],
      "name": "InsufficientBalance",
      "type": "error"
    },
    {
      "inputs": [
        {
          "internalType": "uint256",
          "name": "apiKey",
          "type": "uint256"
        },
        {
          "internalType": "address",
          "name": "sender",
          "type": "address"
        }
      ],
      "name": "NoAccountAccess",
      "type": "error"
    },
    {
      "inputs": [
        {
          "internalType": "address",
          "name": "caller",
          "type": "address"
        }
      ],
      "name": "OnlyApiPayer",
      "type": "error"
    },
    {
      "inputs": [
        {
          "internalType": "address",
          "name": "caller",
          "type": "address"
        }
      ],
      "name": "OnlyApiPayerOrPricingOperator",
      "type": "error"
    },
    {
      "inputs": [
        {
          "internalType": "uint256",
          "name": "apiKey",
          "type": "uint256"
        },
        {
          "internalType": "uint256",
          "name": "usageApiKey",
          "type": "uint256"
        }
      ],
      "name": "UsageApiKeyDoesNotExist",
      "type": "error"
    },
    {
      "inputs": [
        {
          "internalType": "uint256",
          "name": "apiKey",
          "type": "uint256"
        },
        {
          "internalType": "uint256",
          "name": "groupId",
          "type": "uint256"
        },
        {
          "internalType": "uint256",
          "name": "Wallet",
          "type": "uint256"
        }
      ],
      "name": "WalletDoesNotExist",
      "type": "error"
    },
    {
      "inputs": [
        {
          "internalType": "uint256",
          "name": "apiKeyHash",
          "type": "uint256"
        }
      ],
      "name": "accountExistsAndIsMutable",
      "outputs": [
        {
          "internalType": "bool",
          "name": "",
          "type": "bool"
        }
      ],
      "stateMutability": "view",
      "type": "function"
    },
    {
      "inputs": [
        {
          "internalType": "uint256",
          "name": "accountApiKeyHash",
          "type": "uint256"
        },
        {
          "internalType": "uint256",
          "name": "groupId",
          "type": "uint256"
        },
        {
          "internalType": "uint256",
          "name": "action",
          "type": "uint256"
        },
        {
          "internalType": "string",
          "name": "name",
          "type": "string"
        },
        {
          "internalType": "string",
          "name": "description",
          "type": "string"
        }
      ],
      "name": "addActionToGroup",
      "outputs": [],
      "stateMutability": "nonpayable",
      "type": "function"
    },
    {
      "inputs": [
        {
          "internalType": "uint256",
          "name": "accountApiKeyHash",
          "type": "uint256"
        },
        {
          "internalType": "uint256",
          "name": "usageApiKeyHash",
          "type": "uint256"
        },
        {
          "internalType": "uint256",
          "name": "expiration",
          "type": "uint256"
        },
        {
          "internalType": "uint256",
          "name": "balance",
          "type": "uint256"
        }
      ],
      "name": "addApiKey",
      "outputs": [],
      "stateMutability": "nonpayable",
      "type": "function"
    },
    {
      "inputs": [
        {
          "internalType": "uint256",
          "name": "accountApiKeyHash",
          "type": "uint256"
        },
        {
          "internalType": "string",
          "name": "name",
          "type": "string"
        },
        {
          "internalType": "string",
          "name": "description",
          "type": "string"
        },
        {
          "internalType": "uint256[]",
          "name": "permitted_actions",
          "type": "uint256[]"
        },
        {
          "internalType": "uint256[]",
          "name": "Wallets",
          "type": "uint256[]"
        },
        {
          "internalType": "bool",
          "name": "all_wallets_permitted",
          "type": "bool"
        },
        {
          "internalType": "bool",
          "name": "all_actions_permitted",
          "type": "bool"
        }
      ],
      "name": "addGroup",
      "outputs": [],
      "stateMutability": "nonpayable",
      "type": "function"
    },
    {
      "inputs": [
        {
          "internalType": "uint256",
          "name": "accountApiKeyHash",
          "type": "uint256"
        },
        {
          "internalType": "uint256",
          "name": "groupId",
          "type": "uint256"
        },
        {
          "internalType": "uint256",
          "name": "walletAddressHash",
          "type": "uint256"
        }
      ],
      "name": "addWalletToGroup",
      "outputs": [],
      "stateMutability": "nonpayable",
      "type": "function"
    },
    {
      "inputs": [
        {
          "internalType": "uint256",
          "name": "index",
          "type": "uint256"
        }
      ],
      "name": "allWalletAddressesAt",
      "outputs": [
        {
          "internalType": "address",
          "name": "",
          "type": "address"
        }
      ],
      "stateMutability": "view",
      "type": "function"
    },
    {
      "inputs": [],
      "name": "api_payer",
      "outputs": [
        {
          "internalType": "address",
          "name": "",
          "type": "address"
        }
      ],
      "stateMutability": "view",
      "type": "function"
    },
    {
      "inputs": [
        {
          "internalType": "uint256",
          "name": "apiKeyHash",
          "type": "uint256"
        },
        {
          "internalType": "uint256",
          "name": "amount",
          "type": "uint256"
        }
      ],
      "name": "creditApiKey",
      "outputs": [],
      "stateMutability": "nonpayable",
      "type": "function"
    },
    {
      "inputs": [
        {
          "internalType": "uint256",
          "name": "apiKeyHash",
          "type": "uint256"
        },
        {
          "internalType": "uint256",
          "name": "amount",
          "type": "uint256"
        }
      ],
      "name": "debitApiKey",
      "outputs": [],
      "stateMutability": "nonpayable",
      "type": "function"
    },
    {
      "inputs": [
        {
          "internalType": "uint256",
          "name": "pricingItemId",
          "type": "uint256"
        }
      ],
      "name": "getPricing",
      "outputs": [
        {
          "internalType": "uint256",
          "name": "",
          "type": "uint256"
        }
      ],
      "stateMutability": "view",
      "type": "function"
    },
    {
      "inputs": [
        {
          "internalType": "uint256",
          "name": "apiKeyHash",
          "type": "uint256"
        },
        {
          "internalType": "address",
          "name": "walletAddress",
          "type": "address"
        }
      ],
      "name": "getWalletDerivation",
      "outputs": [
        {
          "internalType": "uint256",
          "name": "",
          "type": "uint256"
        }
      ],
      "stateMutability": "view",
      "type": "function"
    },
    {
      "inputs": [
        {
          "internalType": "uint256",
          "name": "index",
          "type": "uint256"
        }
      ],
      "name": "indexToAccountHashAt",
      "outputs": [
        {
          "internalType": "uint256",
          "name": "",
          "type": "uint256"
        }
      ],
      "stateMutability": "view",
      "type": "function"
    },
    {
      "inputs": [
        {
          "internalType": "uint256",
          "name": "accountApiKeyHash",
          "type": "uint256"
        },
        {
          "internalType": "uint256",
          "name": "groupId",
          "type": "uint256"
        },
        {
          "internalType": "uint256",
          "name": "pageNumber",
          "type": "uint256"
        },
        {
          "internalType": "uint256",
          "name": "pageSize",
          "type": "uint256"
        }
      ],
      "name": "listActions",
      "outputs": [
        {
          "components": [
            {
              "internalType": "uint256",
              "name": "id",
              "type": "uint256"
            },
            {
              "internalType": "string",
              "name": "name",
              "type": "string"
            },
            {
              "internalType": "string",
              "name": "description",
              "type": "string"
            }
          ],
          "internalType": "struct LibAccountConfigStorage.Metadata[]",
          "name": "",
          "type": "tuple[]"
        }
      ],
      "stateMutability": "view",
      "type": "function"
    },
    {
      "inputs": [
        {
          "internalType": "uint256",
          "name": "accountApiKeyHash",
          "type": "uint256"
        },
        {
          "internalType": "uint256",
          "name": "pageNumber",
          "type": "uint256"
        },
        {
          "internalType": "uint256",
          "name": "pageSize",
          "type": "uint256"
        }
      ],
      "name": "listApiKeys",
      "outputs": [
        {
          "components": [
            {
              "components": [
                {
                  "internalType": "uint256",
                  "name": "id",
                  "type": "uint256"
                },
                {
                  "internalType": "string",
                  "name": "name",
                  "type": "string"
                },
                {
                  "internalType": "string",
                  "name": "description",
                  "type": "string"
                }
              ],
              "internalType": "struct LibAccountConfigStorage.Metadata",
              "name": "metadata",
              "type": "tuple"
            },
            {
              "internalType": "uint256",
              "name": "apiKeyHash",
              "type": "uint256"
            },
            {
              "internalType": "uint256",
              "name": "expiration",
              "type": "uint256"
            },
            {
              "internalType": "uint256",
              "name": "balance",
              "type": "uint256"
            },
            {
              "internalType": "bool",
              "name": "runActions",
              "type": "bool"
            },
            {
              "internalType": "bool",
              "name": "manageGroups",
              "type": "bool"
            },
            {
              "internalType": "bool",
              "name": "manageWallets",
              "type": "bool"
            },
            {
              "internalType": "bool",
              "name": "manageIPFSIds",
              "type": "bool"
            },
            {
              "internalType": "bool",
              "name": "manageUsageApiKeys",
              "type": "bool"
            }
          ],
          "internalType": "struct LibAccountConfigStorage.UsageApiKey[]",
          "name": "",
          "type": "tuple[]"
        }
      ],
      "stateMutability": "view",
      "type": "function"
    },
    {
      "inputs": [
        {
          "internalType": "uint256",
          "name": "accountApiKeyHash",
          "type": "uint256"
        },
        {
          "internalType": "uint256",
          "name": "pageNumber",
          "type": "uint256"
        },
        {
          "internalType": "uint256",
          "name": "pageSize",
          "type": "uint256"
        }
      ],
      "name": "listGroups",
      "outputs": [
        {
          "components": [
            {
              "internalType": "uint256",
              "name": "id",
              "type": "uint256"
            },
            {
              "internalType": "string",
              "name": "name",
              "type": "string"
            },
            {
              "internalType": "string",
              "name": "description",
              "type": "string"
            }
          ],
          "internalType": "struct LibAccountConfigStorage.Metadata[]",
          "name": "",
          "type": "tuple[]"
        }
      ],
      "stateMutability": "view",
      "type": "function"
    },
    {
      "inputs": [
        {
          "internalType": "uint256",
          "name": "accountApiKeyHash",
          "type": "uint256"
        },
        {
          "internalType": "uint256",
          "name": "pageNumber",
          "type": "uint256"
        },
        {
          "internalType": "uint256",
          "name": "pageSize",
          "type": "uint256"
        }
      ],
      "name": "listWallets",
      "outputs": [
        {
          "components": [
            {
              "internalType": "uint256",
              "name": "id",
              "type": "uint256"
            },
            {
              "internalType": "string",
              "name": "name",
              "type": "string"
            },
            {
              "internalType": "string",
              "name": "description",
              "type": "string"
            },
            {
              "internalType": "address",
              "name": "walletAddress",
              "type": "address"
            }
          ],
          "internalType": "struct LibAccountConfigStorage.WalletData[]",
          "name": "",
          "type": "tuple[]"
        }
      ],
      "stateMutability": "view",
      "type": "function"
    },
    {
      "inputs": [
        {
          "internalType": "uint256",
          "name": "accountApiKeyHash",
          "type": "uint256"
        },
        {
          "internalType": "uint256",
          "name": "groupId",
          "type": "uint256"
        },
        {
          "internalType": "uint256",
          "name": "pageNumber",
          "type": "uint256"
        },
        {
          "internalType": "uint256",
          "name": "pageSize",
          "type": "uint256"
        }
      ],
      "name": "listWalletsInGroup",
      "outputs": [
        {
          "components": [
            {
              "internalType": "uint256",
              "name": "id",
              "type": "uint256"
            },
            {
              "internalType": "string",
              "name": "name",
              "type": "string"
            },
            {
              "internalType": "string",
              "name": "description",
              "type": "string"
            },
            {
              "internalType": "address",
              "name": "walletAddress",
              "type": "address"
            }
          ],
          "internalType": "struct LibAccountConfigStorage.WalletData[]",
          "name": "",
          "type": "tuple[]"
        }
      ],
      "stateMutability": "view",
      "type": "function"
    },
    {
      "inputs": [
        {
          "internalType": "uint256",
          "name": "apiKeyHash",
          "type": "uint256"
        },
        {
          "internalType": "bool",
          "name": "managed",
          "type": "bool"
        },
        {
          "internalType": "string",
          "name": "accountName",
          "type": "string"
        },
        {
          "internalType": "string",
          "name": "accountDescription",
          "type": "string"
        },
        {
          "internalType": "address",
          "name": "creatorWalletAddress",
          "type": "address"
        }
      ],
      "name": "newAccount",
      "outputs": [],
      "stateMutability": "nonpayable",
      "type": "function"
    },
    {
      "inputs": [],
      "name": "nextAccountCount",
      "outputs": [
        {
          "internalType": "uint256",
          "name": "",
          "type": "uint256"
        }
      ],
      "stateMutability": "view",
      "type": "function"
    },
    {
      "inputs": [],
      "name": "nextWalletCount",
      "outputs": [
        {
          "internalType": "uint256",
          "name": "",
          "type": "uint256"
        }
      ],
      "stateMutability": "view",
      "type": "function"
    },
    {
      "inputs": [
        {
          "internalType": "uint256",
          "name": "index",
          "type": "uint256"
        }
      ],
      "name": "pricingAt",
      "outputs": [
        {
          "internalType": "uint256",
          "name": "",
          "type": "uint256"
        }
      ],
      "stateMutability": "view",
      "type": "function"
    },
    {
      "inputs": [],
      "name": "pricing_operator",
      "outputs": [
        {
          "internalType": "address",
          "name": "",
          "type": "address"
        }
      ],
      "stateMutability": "view",
      "type": "function"
    },
    {
      "inputs": [
        {
          "internalType": "uint256",
          "name": "accountApiKeyHash",
          "type": "uint256"
        },
        {
          "internalType": "address",
          "name": "walletAddress",
          "type": "address"
        },
        {
          "internalType": "uint256",
          "name": "derivationPath",
          "type": "uint256"
        },
        {
          "internalType": "string",
          "name": "name",
          "type": "string"
        },
        {
          "internalType": "string",
          "name": "description",
          "type": "string"
        }
      ],
      "name": "registerWalletDerivation",
      "outputs": [],
      "stateMutability": "nonpayable",
      "type": "function"
    },
    {
      "inputs": [
        {
          "internalType": "uint256",
          "name": "accountApiKeyHash",
          "type": "uint256"
        },
        {
          "internalType": "uint256",
          "name": "groupId",
          "type": "uint256"
        },
        {
          "internalType": "uint256",
          "name": "action",
          "type": "uint256"
        }
      ],
      "name": "removeActionFromGroup",
      "outputs": [],
      "stateMutability": "nonpayable",
      "type": "function"
    },
    {
      "inputs": [
        {
          "internalType": "uint256",
          "name": "accountApiKeyHash",
          "type": "uint256"
        },
        {
          "internalType": "uint256",
          "name": "usageApiKeyHash",
          "type": "uint256"
        }
      ],
      "name": "removeUsageApiKey",
      "outputs": [],
      "stateMutability": "nonpayable",
      "type": "function"
    },
    {
      "inputs": [
        {
          "internalType": "uint256",
          "name": "accountApiKeyHash",
          "type": "uint256"
        },
        {
          "internalType": "uint256",
          "name": "groupId",
          "type": "uint256"
        },
        {
          "internalType": "uint256",
          "name": "walletAddressHash",
          "type": "uint256"
        }
      ],
      "name": "removeWalletFromGroup",
      "outputs": [],
      "stateMutability": "nonpayable",
      "type": "function"
    },
    {
      "inputs": [
        {
          "internalType": "uint256",
          "name": "pricingItemId",
          "type": "uint256"
        },
        {
          "internalType": "uint256",
          "name": "price",
          "type": "uint256"
        }
      ],
      "name": "setPricing",
      "outputs": [],
      "stateMutability": "nonpayable",
      "type": "function"
    },
    {
      "inputs": [
        {
          "internalType": "address",
          "name": "newPricingOperator",
          "type": "address"
        }
      ],
      "name": "setPricingOperator",
      "outputs": [],
      "stateMutability": "nonpayable",
      "type": "function"
    },
    {
      "inputs": [
        {
          "internalType": "uint256",
          "name": "accountApiKeyHash",
          "type": "uint256"
        },
        {
          "internalType": "uint256",
          "name": "actionHash",
          "type": "uint256"
        },
        {
          "internalType": "uint256",
          "name": "groupId",
          "type": "uint256"
        },
        {
          "internalType": "string",
          "name": "name",
          "type": "string"
        },
        {
          "internalType": "string",
          "name": "description",
          "type": "string"
        }
      ],
      "name": "updateActionMetadata",
      "outputs": [],
      "stateMutability": "nonpayable",
      "type": "function"
    },
    {
      "inputs": [
        {
          "internalType": "uint256",
          "name": "accountApiKeyHash",
          "type": "uint256"
        },
        {
          "internalType": "uint256",
          "name": "groupId",
          "type": "uint256"
        },
        {
          "internalType": "string",
          "name": "name",
          "type": "string"
        },
        {
          "internalType": "string",
          "name": "description",
          "type": "string"
        },
        {
          "internalType": "bool",
          "name": "all_wallets_permitted",
          "type": "bool"
        },
        {
          "internalType": "bool",
          "name": "all_actions_permitted",
          "type": "bool"
        }
      ],
      "name": "updateGroup",
      "outputs": [],
      "stateMutability": "nonpayable",
      "type": "function"
    },
    {
      "inputs": [
        {
          "internalType": "uint256",
          "name": "accountApiKeyHash",
          "type": "uint256"
        },
        {
          "internalType": "uint256",
          "name": "usageApiKeyHash",
          "type": "uint256"
        },
        {
          "internalType": "string",
          "name": "name",
          "type": "string"
        },
        {
          "internalType": "string",
          "name": "description",
          "type": "string"
        }
      ],
      "name": "updateUsageApiKeyMetadata",
      "outputs": [],
      "stateMutability": "nonpayable",
      "type": "function"
    }
  ],
  "bytecode": "0x608060405234801561000f575f5ffd5b5061001e61002360201b60201c565b610214565b5f61003261017060201b60201c565b90505f73ffffffffffffffffffffffffffffffffffffffff16816005015f9054906101000a900473ffffffffffffffffffffffffffffffffffffffff1673ffffffffffffffffffffffffffffffffffffffff16146100c5576040517f08c379a00000000000000000000000000000000000000000000000000000000081526004016100bc906101f6565b60405180910390fd5b33816005015f6101000a81548173ffffffffffffffffffffffffffffffffffffffff021916908373ffffffffffffffffffffffffffffffffffffffff16021790555033816006015f6101000a81548173ffffffffffffffffffffffffffffffffffffffff021916908373ffffffffffffffffffffffffffffffffffffffff160217905550600181600701819055506001816004015f600181526020019081526020015f208190555050565b5f5f7f171def12e82c8f3351e4c79b7854be19ad60a75b888f74b9660c07cd7461963390508091505090565b5f82825260208201905092915050565b7f616c726561647920696e697469616c697a6564000000000000000000000000005f82015250565b5f6101e060138361019c565b91506101eb826101ac565b602082019050919050565b5f6020820190508181035f83015261020d816101d4565b9050919050565b614175806102215f395ff3fe608060405234801561000f575f5ffd5b50600436106101e3575f3560e01c8063793122451161010d578063c12f1a42116100a0578063ca05588a1161006f578063ca05588a14610597578063ccb78fb6146105b3578063e6ad2928146105e3578063f75c8b2d146105ff576101e3565b8063c12f1a42146104eb578063c1aff8991461051b578063c5f5b9841461054b578063c704668c14610567576101e3565b806392141552116100dc578063921415521461047b57806396a7cc5414610497578063a6b6b672146104b3578063bac710ea146104cf576101e3565b806379312245146103e15780637af361ef146103fd5780638845698c1461042d57806390222cad1461044b576101e3565b8063542970ed116101855780636e06ac9c116101545780636e06ac9c146103495780636fe1fb8414610365578063719fac4314610395578063749e4d07146103c5576101e3565b8063542970ed146102c55780635d861c72146102f5578063683f2de8146103115780636a3d77a91461032d576101e3565b806340b4d453116101c157806340b4d453146102515780634705161e1461026d578063497179351461028b5780634cd882ac146102a7576101e3565b80630f9a6021146101e7578063291ff1ea146102055780632fa92e4114610235575b5f5ffd5b6101ef61062f565b6040516101fc9190612e89565b60405180910390f35b61021f600480360381019061021a9190612edd565b610641565b60405161022c9190613121565b60405180910390f35b61024f600480360381019061024a919061326d565b6109d1565b005b61026b6004803603810190610266919061331c565b610aa8565b005b610275610b8a565b6040516102829190612e89565b60405180910390f35b6102a560048036038101906102a09190612edd565b610b9c565b005b6102af610cde565b6040516102bc9190613369565b60405180910390f35b6102df60048036038101906102da9190612edd565b610d0f565b6040516102ec9190613491565b60405180910390f35b61030f600480360381019061030a91906134b1565b610f5b565b005b61032b6004803603810190610326919061331c565b610fdc565b005b61034760048036038101906103429190613501565b611073565b005b610363600480360381019061035e91906134b1565b611106565b005b61037f600480360381019061037a919061359d565b611165565b60405161038c9190612e89565b60405180910390f35b6103af60048036038101906103aa919061359d565b611188565b6040516103bc91906135e2565b60405180910390f35b6103df60048036038101906103da91906136e9565b61119a565b005b6103fb60048036038101906103f69190613820565b611324565b005b610417600480360381019061041291906134b1565b611558565b6040516104249190613121565b60405180910390f35b6104356118d5565b6040516104429190613369565b60405180910390f35b610465600480360381019061046091906138cf565b611906565b6040516104729190612e89565b60405180910390f35b6104956004803603810190610490919061390d565b61195e565b005b6104b160048036038101906104ac91906139bc565b611b87565b005b6104cd60048036038101906104c8919061326d565b611c2c565b005b6104e960048036038101906104e491906134b1565b611ca8565b005b6105056004803603810190610500919061359d565b611cfd565b6040516105129190612e89565b60405180910390f35b6105356004803603810190610530919061359d565b611d20565b6040516105429190612e89565b60405180910390f35b6105656004803603810190610560919061331c565b611d43565b005b610581600480360381019061057c91906134b1565b611e61565b60405161058e9190613c09565b60405180910390f35b6105b160048036038101906105ac919061331c565b61214d565b005b6105cd60048036038101906105c8919061359d565b612179565b6040516105da9190613369565b60405180910390f35b6105fd60048036038101906105f89190613c29565b6121bb565b005b610619600480360381019061061491906134b1565b612210565b6040516106269190613491565b60405180910390f35b5f610638612446565b60080154905090565b60605f61064d86612472565b90505f81600d015f8781526020019081526020015f2090505f5f61067d610676846005016124f9565b888861250c565b915091505f8167ffffffffffffffff81111561069c5761069b613149565b5b6040519080825280602002602001820160405280156106d557816020015b6106c2612d69565b8152602001906001900390816106ba5790505b5090505f5f90505b828110156109c0575f866011015f83876106f79190613c81565b81526020019081526020015f205f9054906101000a900473ffffffffffffffffffffffffffffffffffffffff1690508083838151811061073a57610739613cb4565b5b60200260200101516060019073ffffffffffffffffffffffffffffffffffffffff16908173ffffffffffffffffffffffffffffffffffffffff1681525050866012015f8273ffffffffffffffffffffffffffffffffffffffff1673ffffffffffffffffffffffffffffffffffffffff1681526020019081526020015f2060010180546107c590613d0e565b80601f01602080910402602001604051908101604052809291908181526020018280546107f190613d0e565b801561083c5780601f106108135761010080835404028352916020019161083c565b820191905f5260205f20905b81548152906001019060200180831161081f57829003601f168201915b505050505083838151811061085457610853613cb4565b5b602002602001015160200181905250866012015f8273ffffffffffffffffffffffffffffffffffffffff1673ffffffffffffffffffffffffffffffffffffffff1681526020019081526020015f2060020180546108b090613d0e565b80601f01602080910402602001604051908101604052809291908181526020018280546108dc90613d0e565b80156109275780601f106108fe57610100808354040283529160200191610927565b820191905f5260205f20905b81548152906001019060200180831161090a57829003601f168201915b505050505083838151811061093f5761093e613cb4565b5b602002602001015160400181905250866012015f8273ffffffffffffffffffffffffffffffffffffffff1673ffffffffffffffffffffffffffffffffffffffff1681526020019081526020015f205f01548383815181106109a3576109a2613cb4565b5b60200260200101515f0181815250505080806001019150506106dd565b508095505050505050949350505050565b6109db8585612576565b5f6109e4612446565b90505f815f015f8881526020019081526020015f209050610a238582600d015f8981526020019081526020015f2060030161258d90919063ffffffff16565b5084816010015f8781526020019081526020015f205f018190555083816010015f8781526020019081526020015f206001019081610a619190613ede565b5082816010015f8781526020019081526020015f206002019081610a859190613ede565b50806015015f815480929190610a9a90613fad565b919050555050505050505050565b610ab1336125a4565b610aba826125b8565b5f610ac3612446565b90505f816002015f8581526020019081526020015f205490505f825f015f8381526020019081526020015f2090505f85825f016003015414610b175781600a015f8781526020019081526020015f20610b1b565b815f015b90508481600501541015610b685785856040517fcf479181000000000000000000000000000000000000000000000000000000008152600401610b5f929190613ff4565b60405180910390fd5b84816005015f828254610b7b919061401b565b92505081905550505050505050565b5f610b93612446565b60070154905090565b610ba5846125b8565b5f610bae612446565b90505f816002015f8781526020019081526020015f205490505f825f015f8381526020019081526020015f20600a015f8781526020019081526020015f2090508581600301819055508481600401819055508381600501819055506001816006015f6101000a81548160ff0219169083151502179055505f8160060160016101000a81548160ff0219169083151502179055505f8160060160026101000a81548160ff0219169083151502179055505f8160060160036101000a81548160ff0219169083151502179055505f8160060160046101000a81548160ff021916908315150217905550610cbc86845f015f8581526020019081526020015f2060080161258d90919063ffffffff16565b5081836002015f8881526020019081526020015f208190555050505050505050565b5f610ce7612446565b6006015f9054906101000a900473ffffffffffffffffffffffffffffffffffffffff16905090565b60605f610d1b86612472565b90505f81600d015f8781526020019081526020015f2090505f610d40826003016124f9565b90505f5f610d4f83898961250c565b915091505f8167ffffffffffffffff811115610d6e57610d6d613149565b5b604051908082528060200260200182016040528015610da757816020015b610d94612da5565b815260200190600190039081610d8c5790505b5090505f5f90505b82811015610f4957866010015f610ddd8387610dcb9190613c81565b896003016125c590919063ffffffff16565b81526020019081526020015f206040518060600160405290815f8201548152602001600182018054610e0e90613d0e565b80601f0160208091040260200160405190810160405280929190818152602001828054610e3a90613d0e565b8015610e855780601f10610e5c57610100808354040283529160200191610e85565b820191905f5260205f20905b815481529060010190602001808311610e6857829003601f168201915b50505050508152602001600282018054610e9e90613d0e565b80601f0160208091040260200160405190810160405280929190818152602001828054610eca90613d0e565b8015610f155780601f10610eec57610100808354040283529160200191610f15565b820191905f5260205f20905b815481529060010190602001808311610ef857829003601f168201915b505050505081525050828281518110610f3157610f30613cb4565b5b60200260200101819052508080600101915050610daf565b50809650505050505050949350505050565b610f668383836125dc565b5f610f6f612446565b90505f815f015f8681526020019081526020015f209050610fae8382600d015f8781526020019081526020015f2060030161267590919063ffffffff16565b505f81601501541115610fd557806015015f815480929190610fcf9061404e565b91905055505b5050505050565b610fe5336125a4565b610fee826125b8565b5f610ff7612446565b90505f816002015f8581526020019081526020015f205490505f825f015f8381526020019081526020015f2090505f85825f01600301541461104b5781600a015f8781526020019081526020015f2061104f565b815f015b905084816005015f8282546110649190613c81565b92505081905550505050505050565b61107c846125b8565b611086848461268c565b5f61108f612446565b905082815f015f8781526020019081526020015f20600a015f8681526020019081526020015f205f0160010190816110c79190613ede565b5081815f015f8781526020019081526020015f20600a015f8681526020019081526020015f205f0160020190816110fe9190613ede565b505050505050565b61110f836125b8565b61111a838383612709565b5f611123612446565b905061115e82825f015f8781526020019081526020015f20600d015f8681526020019081526020015f2060050161267590919063ffffffff16565b5050505050565b5f61116e612446565b6001015f8381526020019081526020015f20549050919050565b5f61119382336127a2565b9050919050565b6111a3876125b8565b5f6111ac612446565b90505f815f015f8a81526020019081526020015f2090506111dd816016015482600b0161258d90919063ffffffff16565b505f81600d015f836016015481526020019081526020015f2090508160160154815f015f018190555088815f0160010190816112199190613ede565b5087815f01600201908161122d9190613ede565b505f5f90505b875181101561127a5761126c88828151811061125257611251613cb4565b5b60200260200101518360030161258d90919063ffffffff16565b508080600101915050611233565b505f5f90505b86518110156112c7576112b987828151811061129f5761129e613cb4565b5b60200260200101518360050161258d90919063ffffffff16565b508080600101915050611280565b5084816007015f6101000a81548160ff021916908315150217905550838160070160016101000a81548160ff021916908315150217905550816016015f81548092919061131390613fad565b919050555050505050505050505050565b61132d33612917565b5f611336612446565b90505f816002015f8881526020019081526020015f20541461138f57856040517f8be1f3fb0000000000000000000000000000000000000000000000000000000081526004016113869190612e89565b60405180910390fd5b5f815f015f8881526020019081526020015f20905085816013015f6101000a81548160ff02191690831515021790555082816007015f6101000a81548173ffffffffffffffffffffffffffffffffffffffff021916908373ffffffffffffffffffffffffffffffffffffffff16021790555086815f015f015f018190555084815f015f0160010190816114229190613ede565b5083815f015f0160020190816114389190613ede565b505f815f016006015f6101000a81548160ff0219169083151502179055506001815f0160060160016101000a81548160ff0219169083151502179055506001815f0160060160026101000a81548160ff0219169083151502179055506001815f0160060160036101000a81548160ff0219169083151502179055506001815f0160060160046101000a81548160ff02191690831515021790555086815f01600301819055506312cc0300426114ed9190613c81565b815f01600401819055505f815f016005018190555086826002015f8981526020019081526020015f208190555086826001015f846008015481526020019081526020015f2081905550816008015f81548092919061154a90613fad565b919050555050505050505050565b60605f61156485612472565b90505f5f6115836001846014015461157c919061401b565b878761250c565b915091505f8167ffffffffffffffff8111156115a2576115a1613149565b5b6040519080825280602002602001820160405280156115db57816020015b6115c8612d69565b8152602001906001900390816115c05790505b5090505f5f90505b828110156118c6575f856011015f83876115fd9190613c81565b81526020019081526020015f205f9054906101000a900473ffffffffffffffffffffffffffffffffffffffff169050808383815181106116405761163f613cb4565b5b60200260200101516060019073ffffffffffffffffffffffffffffffffffffffff16908173ffffffffffffffffffffffffffffffffffffffff1681525050856012015f8273ffffffffffffffffffffffffffffffffffffffff1673ffffffffffffffffffffffffffffffffffffffff1681526020019081526020015f2060010180546116cb90613d0e565b80601f01602080910402602001604051908101604052809291908181526020018280546116f790613d0e565b80156117425780601f1061171957610100808354040283529160200191611742565b820191905f5260205f20905b81548152906001019060200180831161172557829003601f168201915b505050505083838151811061175a57611759613cb4565b5b602002602001015160200181905250856012015f8273ffffffffffffffffffffffffffffffffffffffff1673ffffffffffffffffffffffffffffffffffffffff1681526020019081526020015f2060020180546117b690613d0e565b80601f01602080910402602001604051908101604052809291908181526020018280546117e290613d0e565b801561182d5780601f106118045761010080835404028352916020019161182d565b820191905f5260205f20905b81548152906001019060200180831161181057829003601f168201915b505050505083838151811061184557611844613cb4565b5b602002602001015160400181905250856012015f8273ffffffffffffffffffffffffffffffffffffffff1673ffffffffffffffffffffffffffffffffffffffff1681526020019081526020015f205f01548383815181106118a9576118a8613cb4565b5b60200260200101515f0181815250505080806001019150506115e3565b50809450505050509392505050565b5f6118de612446565b6005015f9054906101000a900473ffffffffffffffffffffffffffffffffffffffff16905090565b5f5f61191184612472565b9050806012015f8473ffffffffffffffffffffffffffffffffffffffff1673ffffffffffffffffffffffffffffffffffffffff1681526020019081526020015f205f015491505092915050565b611967856125b8565b5f611970612446565b90505f815f015f8881526020019081526020015f20905086826001015f846008015481526020019081526020015f2081905550816008015f8154809291906119b790613fad565b919050555084816012015f8873ffffffffffffffffffffffffffffffffffffffff1673ffffffffffffffffffffffffffffffffffffffff1681526020019081526020015f205f018190555083816012015f8873ffffffffffffffffffffffffffffffffffffffff1673ffffffffffffffffffffffffffffffffffffffff1681526020019081526020015f206001019081611a519190613ede565b5082816012015f8873ffffffffffffffffffffffffffffffffffffffff1673ffffffffffffffffffffffffffffffffffffffff1681526020019081526020015f206002019081611aa19190613ede565b5085816011015f836014015481526020019081526020015f205f6101000a81548173ffffffffffffffffffffffffffffffffffffffff021916908373ffffffffffffffffffffffffffffffffffffffff16021790555085826003015f846007015481526020019081526020015f205f6101000a81548173ffffffffffffffffffffffffffffffffffffffff021916908373ffffffffffffffffffffffffffffffffffffffff160217905550806014015f815480929190611b6090613fad565b9190505550816007015f815480929190611b7990613fad565b919050555050505050505050565b611b918686612576565b5f611b9a612446565b90505f815f015f8981526020019081526020015f20600d015f8881526020019081526020015f20905085815f016001019081611bd69190613ede565b5084815f016002019081611bea9190613ede565b5083816007015f6101000a81548160ff021916908315150217905550828160070160016101000a81548160ff0219169083151502179055505050505050505050565b611c378584866125dc565b5f611c40612446565b90505f815f015f8881526020019081526020015f20905083816010015f8881526020019081526020015f206001019081611c7a9190613ede565b5082816010015f8881526020019081526020015f206002019081611c9e9190613ede565b5050505050505050565b611cb28383612576565b5f611cbb612446565b9050611cf682825f015f8781526020019081526020015f20600d015f8681526020019081526020015f2060050161258d90919063ffffffff16565b5050505050565b5f611d06612446565b6004015f8381526020019081526020015f20549050919050565b5f611d29612446565b6004015f8381526020019081526020015f20549050919050565b611d4c826125b8565b611d56828261268c565b5f611d5f612446565b90505f815f015f8581526020019081526020015f209050611d8c838260080161267590919063ffffffff16565b5080600a015f8481526020019081526020015f205f5f82015f5f82015f9055600182015f611dba9190612dc5565b600282015f611dc99190612dc5565b5050600382015f9055600482015f9055600582015f9055600682015f6101000a81549060ff02191690556006820160016101000a81549060ff02191690556006820160026101000a81549060ff02191690556006820160036101000a81549060ff02191690556006820160046101000a81549060ff02191690555050816002015f8481526020019081526020015f205f905550505050565b60605f611e6d85612472565b90505f611e7c826008016124f9565b90505f5f611e8b83888861250c565b915091505f8167ffffffffffffffff811115611eaa57611ea9613149565b5b604051908082528060200260200182016040528015611ee357816020015b611ed0612e02565b815260200190600190039081611ec85790505b5090505f5f90505b8281101561213d5785600a015f611f198387611f079190613c81565b896008016125c590919063ffffffff16565b81526020019081526020015f20604051806101200160405290815f82016040518060600160405290815f8201548152602001600182018054611f5a90613d0e565b80601f0160208091040260200160405190810160405280929190818152602001828054611f8690613d0e565b8015611fd15780601f10611fa857610100808354040283529160200191611fd1565b820191905f5260205f20905b815481529060010190602001808311611fb457829003601f168201915b50505050508152602001600282018054611fea90613d0e565b80601f016020809104026020016040519081016040528092919081815260200182805461201690613d0e565b80156120615780601f1061203857610100808354040283529160200191612061565b820191905f5260205f20905b81548152906001019060200180831161204457829003601f168201915b5050505050815250508152602001600382015481526020016004820154815260200160058201548152602001600682015f9054906101000a900460ff161515151581526020016006820160019054906101000a900460ff161515151581526020016006820160029054906101000a900460ff161515151581526020016006820160039054906101000a900460ff161515151581526020016006820160049054906101000a900460ff16151515158152505082828151811061212557612124613cb4565b5b60200260200101819052508080600101915050611eeb565b5080955050505050509392505050565b612156336125a4565b8061215f612446565b6004015f8481526020019081526020015f20819055505050565b5f612182612446565b6003015f8381526020019081526020015f205f9054906101000a900473ffffffffffffffffffffffffffffffffffffffff169050919050565b6121c4336125a4565b806121cd612446565b6006015f6101000a81548173ffffffffffffffffffffffffffffffffffffffff021916908373ffffffffffffffffffffffffffffffffffffffff16021790555050565b60605f61221c85612472565b90505f61222b82600b016124f9565b90505f5f61223a83888861250c565b915091505f8167ffffffffffffffff81111561225957612258613149565b5b60405190808252806020026020018201604052801561229257816020015b61227f612da5565b8152602001906001900390816122775790505b5090505f5f90505b828110156124365785600d015f6122c883876122b69190613c81565b89600b016125c590919063ffffffff16565b81526020019081526020015f205f016040518060600160405290815f82015481526020016001820180546122fb90613d0e565b80601f016020809104026020016040519081016040528092919081815260200182805461232790613d0e565b80156123725780601f1061234957610100808354040283529160200191612372565b820191905f5260205f20905b81548152906001019060200180831161235557829003601f168201915b5050505050815260200160028201805461238b90613d0e565b80601f01602080910402602001604051908101604052809291908181526020018280546123b790613d0e565b80156124025780601f106123d957610100808354040283529160200191612402565b820191905f5260205f20905b8154815290600101906020018083116123e557829003601f168201915b50505050508152505082828151811061241e5761241d613cb4565b5b6020026020010181905250808060010191505061229a565b5080955050505050509392505050565b5f5f7f171def12e82c8f3351e4c79b7854be19ad60a75b888f74b9660c07cd7461963390508091505090565b5f5f61247c612446565b90505f816002015f8581526020019081526020015f205490505f81036124d957836040517fd4a847370000000000000000000000000000000000000000000000000000000081526004016124d09190612e89565b60405180910390fd5b5f825f015f8381526020019081526020015f209050809350505050919050565b5f612505825f016129b9565b9050919050565b5f5f8483111561251d578492505f93505b5f838561252a9190614075565b905085811061253f575f5f925092505061256e565b5f848261254c9190613c81565b90508681111561255a578690505b818282612567919061401b565b9350935050505b935093915050565b61257f826125b8565b61258982826129c8565b5050565b5f61259c835f01835f1b612a19565b905092915050565b6125b56125af612446565b82612a80565b50565b6125c28133612b74565b50565b5f6125d2835f0183612bc5565b5f1c905092915050565b6125e68383612576565b5f6125ef612446565b905061262a82825f015f8781526020019081526020015f20600d015f8681526020019081526020015f20600301612bec90919063ffffffff16565b61266f578383836040517fef25d02d000000000000000000000000000000000000000000000000000000008152600401612666939291906140b6565b60405180910390fd5b50505050565b5f612684835f01835f1b612c03565b905092915050565b5f612695612446565b905081815f015f8581526020019081526020015f20600a015f8481526020019081526020015f2060030154146127045782826040517f748e712a0000000000000000000000000000000000000000000000000000000081526004016126fb929190613ff4565b60405180910390fd5b505050565b6127138383612576565b5f61271c612446565b905061275782825f015f8781526020019081526020015f20600d015f8681526020019081526020015f20600501612bec90919063ffffffff16565b61279c578383836040517f79167858000000000000000000000000000000000000000000000000000000008152600401612793939291906140b6565b60405180910390fd5b50505050565b5f5f6127ac612446565b90505f816002015f8681526020019081526020015f205490505f810361280957846040517fd4a847370000000000000000000000000000000000000000000000000000000081526004016128009190612e89565b60405180910390fd5b5f825f015f8381526020019081526020015f20905081815f016003015414612836575f9350505050612911565b826005015f9054906101000a900473ffffffffffffffffffffffffffffffffffffffff1673ffffffffffffffffffffffffffffffffffffffff168573ffffffffffffffffffffffffffffffffffffffff161480156128a8575060011515816013015f9054906101000a900460ff161515145b156128b95760019350505050612911565b8473ffffffffffffffffffffffffffffffffffffffff16816007015f9054906101000a900473ffffffffffffffffffffffffffffffffffffffff1673ffffffffffffffffffffffffffffffffffffffff161493505050505b92915050565b5f612920612446565b9050806005015f9054906101000a900473ffffffffffffffffffffffffffffffffffffffff1673ffffffffffffffffffffffffffffffffffffffff168273ffffffffffffffffffffffffffffffffffffffff16146129b557816040517f92f13c4e0000000000000000000000000000000000000000000000000000000081526004016129ac9190613369565b60405180910390fd5b5050565b5f815f01805490509050919050565b6129d28282612cff565b612a155781816040517f931a85b3000000000000000000000000000000000000000000000000000000008152600401612a0c929190613ff4565b60405180910390fd5b5050565b5f612a248383612d49565b612a7657825f0182908060018154018082558091505060019003905f5260205f20015f9091909190915055825f0180549050836001015f8481526020019081526020015f208190555060019050612a7a565b5f90505b92915050565b816005015f9054906101000a900473ffffffffffffffffffffffffffffffffffffffff1673ffffffffffffffffffffffffffffffffffffffff168173ffffffffffffffffffffffffffffffffffffffff1614158015612b2e5750816006015f9054906101000a900473ffffffffffffffffffffffffffffffffffffffff1673ffffffffffffffffffffffffffffffffffffffff168173ffffffffffffffffffffffffffffffffffffffff1614155b15612b7057806040517f9ed88e07000000000000000000000000000000000000000000000000000000008152600401612b679190613369565b60405180910390fd5b5050565b612b7e82826127a2565b612bc15781816040517f7b0f9c07000000000000000000000000000000000000000000000000000000008152600401612bb89291906140eb565b60405180910390fd5b5050565b5f825f018281548110612bdb57612bda613cb4565b5b905f5260205f200154905092915050565b5f612bfb835f01835f1b612d49565b905092915050565b5f5f836001015f8481526020019081526020015f205490505f8114612cf4575f600182612c30919061401b565b90505f6001865f0180549050612c46919061401b565b9050808214612cac575f865f018281548110612c6557612c64613cb4565b5b905f5260205f200154905080875f018481548110612c8657612c85613cb4565b5b905f5260205f20018190555083876001015f8381526020019081526020015f2081905550505b855f01805480612cbf57612cbe614112565b5b600190038181905f5260205f20015f90559055856001015f8681526020019081526020015f205f905560019350505050612cf9565b5f9150505b92915050565b5f5f612d09612446565b90505f815f015f8681526020019081526020015f2090505f81600d015f8681526020019081526020015f20905084815f015f015414935050505092915050565b5f5f836001015f8481526020019081526020015f20541415905092915050565b60405180608001604052805f815260200160608152602001606081526020015f73ffffffffffffffffffffffffffffffffffffffff1681525090565b60405180606001604052805f815260200160608152602001606081525090565b508054612dd190613d0e565b5f825580601f10612de25750612dff565b601f0160209004905f5260205f2090810190612dfe9190612e56565b5b50565b604051806101200160405280612e16612da5565b81526020015f81526020015f81526020015f81526020015f151581526020015f151581526020015f151581526020015f151581526020015f151581525090565b5b80821115612e6d575f815f905550600101612e57565b5090565b5f819050919050565b612e8381612e71565b82525050565b5f602082019050612e9c5f830184612e7a565b92915050565b5f604051905090565b5f5ffd5b5f5ffd5b612ebc81612e71565b8114612ec6575f5ffd5b50565b5f81359050612ed781612eb3565b92915050565b5f5f5f5f60808587031215612ef557612ef4612eab565b5b5f612f0287828801612ec9565b9450506020612f1387828801612ec9565b9350506040612f2487828801612ec9565b9250506060612f3587828801612ec9565b91505092959194509250565b5f81519050919050565b5f82825260208201905092915050565b5f819050602082019050919050565b612f7381612e71565b82525050565b5f81519050919050565b5f82825260208201905092915050565b8281835e5f83830152505050565b5f601f19601f8301169050919050565b5f612fbb82612f79565b612fc58185612f83565b9350612fd5818560208601612f93565b612fde81612fa1565b840191505092915050565b5f73ffffffffffffffffffffffffffffffffffffffff82169050919050565b5f61301282612fe9565b9050919050565b61302281613008565b82525050565b5f608083015f83015161303d5f860182612f6a565b50602083015184820360208601526130558282612fb1565b9150506040830151848203604086015261306f8282612fb1565b91505060608301516130846060860182613019565b508091505092915050565b5f61309a8383613028565b905092915050565b5f602082019050919050565b5f6130b882612f41565b6130c28185612f4b565b9350836020820285016130d485612f5b565b805f5b8581101561310f57848403895281516130f0858261308f565b94506130fb836130a2565b925060208a019950506001810190506130d7565b50829750879550505050505092915050565b5f6020820190508181035f83015261313981846130ae565b905092915050565b5f5ffd5b5f5ffd5b7f4e487b71000000000000000000000000000000000000000000000000000000005f52604160045260245ffd5b61317f82612fa1565b810181811067ffffffffffffffff8211171561319e5761319d613149565b5b80604052505050565b5f6131b0612ea2565b90506131bc8282613176565b919050565b5f67ffffffffffffffff8211156131db576131da613149565b5b6131e482612fa1565b9050602081019050919050565b828183375f83830152505050565b5f61321161320c846131c1565b6131a7565b90508281526020810184848401111561322d5761322c613145565b5b6132388482856131f1565b509392505050565b5f82601f83011261325457613253613141565b5b81356132648482602086016131ff565b91505092915050565b5f5f5f5f5f60a0868803121561328657613285612eab565b5b5f61329388828901612ec9565b95505060206132a488828901612ec9565b94505060406132b588828901612ec9565b935050606086013567ffffffffffffffff8111156132d6576132d5612eaf565b5b6132e288828901613240565b925050608086013567ffffffffffffffff81111561330357613302612eaf565b5b61330f88828901613240565b9150509295509295909350565b5f5f6040838503121561333257613331612eab565b5b5f61333f85828601612ec9565b925050602061335085828601612ec9565b9150509250929050565b61336381613008565b82525050565b5f60208201905061337c5f83018461335a565b92915050565b5f81519050919050565b5f82825260208201905092915050565b5f819050602082019050919050565b5f606083015f8301516133c05f860182612f6a565b50602083015184820360208601526133d88282612fb1565b915050604083015184820360408601526133f28282612fb1565b9150508091505092915050565b5f61340a83836133ab565b905092915050565b5f602082019050919050565b5f61342882613382565b613432818561338c565b9350836020820285016134448561339c565b805f5b8581101561347f578484038952815161346085826133ff565b945061346b83613412565b925060208a01995050600181019050613447565b50829750879550505050505092915050565b5f6020820190508181035f8301526134a9818461341e565b905092915050565b5f5f5f606084860312156134c8576134c7612eab565b5b5f6134d586828701612ec9565b93505060206134e686828701612ec9565b92505060406134f786828701612ec9565b9150509250925092565b5f5f5f5f6080858703121561351957613518612eab565b5b5f61352687828801612ec9565b945050602061353787828801612ec9565b935050604085013567ffffffffffffffff81111561355857613557612eaf565b5b61356487828801613240565b925050606085013567ffffffffffffffff81111561358557613584612eaf565b5b61359187828801613240565b91505092959194509250565b5f602082840312156135b2576135b1612eab565b5b5f6135bf84828501612ec9565b91505092915050565b5f8115159050919050565b6135dc816135c8565b82525050565b5f6020820190506135f55f8301846135d3565b92915050565b5f67ffffffffffffffff82111561361557613614613149565b5b602082029050602081019050919050565b5f5ffd5b5f61363c613637846135fb565b6131a7565b9050808382526020820190506020840283018581111561365f5761365e613626565b5b835b8181101561368857806136748882612ec9565b845260208401935050602081019050613661565b5050509392505050565b5f82601f8301126136a6576136a5613141565b5b81356136b684826020860161362a565b91505092915050565b6136c8816135c8565b81146136d2575f5ffd5b50565b5f813590506136e3816136bf565b92915050565b5f5f5f5f5f5f5f60e0888a03121561370457613703612eab565b5b5f6137118a828b01612ec9565b975050602088013567ffffffffffffffff81111561373257613731612eaf565b5b61373e8a828b01613240565b965050604088013567ffffffffffffffff81111561375f5761375e612eaf565b5b61376b8a828b01613240565b955050606088013567ffffffffffffffff81111561378c5761378b612eaf565b5b6137988a828b01613692565b945050608088013567ffffffffffffffff8111156137b9576137b8612eaf565b5b6137c58a828b01613692565b93505060a06137d68a828b016136d5565b92505060c06137e78a828b016136d5565b91505092959891949750929550565b6137ff81613008565b8114613809575f5ffd5b50565b5f8135905061381a816137f6565b92915050565b5f5f5f5f5f60a0868803121561383957613838612eab565b5b5f61384688828901612ec9565b9550506020613857888289016136d5565b945050604086013567ffffffffffffffff81111561387857613877612eaf565b5b61388488828901613240565b935050606086013567ffffffffffffffff8111156138a5576138a4612eaf565b5b6138b188828901613240565b92505060806138c28882890161380c565b9150509295509295909350565b5f5f604083850312156138e5576138e4612eab565b5b5f6138f285828601612ec9565b92505060206139038582860161380c565b9150509250929050565b5f5f5f5f5f60a0868803121561392657613925612eab565b5b5f61393388828901612ec9565b95505060206139448882890161380c565b945050604061395588828901612ec9565b935050606086013567ffffffffffffffff81111561397657613975612eaf565b5b61398288828901613240565b925050608086013567ffffffffffffffff8111156139a3576139a2612eaf565b5b6139af88828901613240565b9150509295509295909350565b5f5f5f5f5f5f60c087890312156139d6576139d5612eab565b5b5f6139e389828a01612ec9565b96505060206139f489828a01612ec9565b955050604087013567ffffffffffffffff811115613a1557613a14612eaf565b5b613a2189828a01613240565b945050606087013567ffffffffffffffff811115613a4257613a41612eaf565b5b613a4e89828a01613240565b9350506080613a5f89828a016136d5565b92505060a0613a7089828a016136d5565b9150509295509295509295565b5f81519050919050565b5f82825260208201905092915050565b5f819050602082019050919050565b613aaf816135c8565b82525050565b5f61012083015f8301518482035f860152613ad082826133ab565b9150506020830151613ae56020860182612f6a565b506040830151613af86040860182612f6a565b506060830151613b0b6060860182612f6a565b506080830151613b1e6080860182613aa6565b5060a0830151613b3160a0860182613aa6565b5060c0830151613b4460c0860182613aa6565b5060e0830151613b5760e0860182613aa6565b50610100830151613b6c610100860182613aa6565b508091505092915050565b5f613b828383613ab5565b905092915050565b5f602082019050919050565b5f613ba082613a7d565b613baa8185613a87565b935083602082028501613bbc85613a97565b805f5b85811015613bf75784840389528151613bd88582613b77565b9450613be383613b8a565b925060208a01995050600181019050613bbf565b50829750879550505050505092915050565b5f6020820190508181035f830152613c218184613b96565b905092915050565b5f60208284031215613c3e57613c3d612eab565b5b5f613c4b8482850161380c565b91505092915050565b7f4e487b71000000000000000000000000000000000000000000000000000000005f52601160045260245ffd5b5f613c8b82612e71565b9150613c9683612e71565b9250828201905080821115613cae57613cad613c54565b5b92915050565b7f4e487b71000000000000000000000000000000000000000000000000000000005f52603260045260245ffd5b7f4e487b71000000000000000000000000000000000000000000000000000000005f52602260045260245ffd5b5f6002820490506001821680613d2557607f821691505b602082108103613d3857613d37613ce1565b5b50919050565b5f819050815f5260205f209050919050565b5f6020601f8301049050919050565b5f82821b905092915050565b5f60088302613d9a7fffffffffffffffffffffffffffffffffffffffffffffffffffffffffffffffff82613d5f565b613da48683613d5f565b95508019841693508086168417925050509392505050565b5f819050919050565b5f613ddf613dda613dd584612e71565b613dbc565b612e71565b9050919050565b5f819050919050565b613df883613dc5565b613e0c613e0482613de6565b848454613d6b565b825550505050565b5f5f905090565b613e23613e14565b613e2e818484613def565b505050565b5b81811015613e5157613e465f82613e1b565b600181019050613e34565b5050565b601f821115613e9657613e6781613d3e565b613e7084613d50565b81016020851015613e7f578190505b613e93613e8b85613d50565b830182613e33565b50505b505050565b5f82821c905092915050565b5f613eb65f1984600802613e9b565b1980831691505092915050565b5f613ece8383613ea7565b9150826002028217905092915050565b613ee782612f79565b67ffffffffffffffff811115613f0057613eff613149565b5b613f0a8254613d0e565b613f15828285613e55565b5f60209050601f831160018114613f46575f8415613f34578287015190505b613f3e8582613ec3565b865550613fa5565b601f198416613f5486613d3e565b5f5b82811015613f7b57848901518255600182019150602085019450602081019050613f56565b86831015613f985784890151613f94601f891682613ea7565b8355505b6001600288020188555050505b505050505050565b5f613fb782612e71565b91507fffffffffffffffffffffffffffffffffffffffffffffffffffffffffffffffff8203613fe957613fe8613c54565b5b600182019050919050565b5f6040820190506140075f830185612e7a565b6140146020830184612e7a565b9392505050565b5f61402582612e71565b915061403083612e71565b925082820390508181111561404857614047613c54565b5b92915050565b5f61405882612e71565b91505f820361406a57614069613c54565b5b600182039050919050565b5f61407f82612e71565b915061408a83612e71565b925082820261409881612e71565b915082820484148315176140af576140ae613c54565b5b5092915050565b5f6060820190506140c95f830186612e7a565b6140d66020830185612e7a565b6140e36040830184612e7a565b949350505050565b5f6040820190506140fe5f830185612e7a565b61410b602083018461335a565b9392505050565b7f4e487b71000000000000000000000000000000000000000000000000000000005f52603160045260245ffdfea2646970667358221220a36eb77faec82cd4167837bfaf4837b0d43a07c33bb85030405cfcd04d3d04e264736f6c634300081c0033",
  "linkReferences": {},
  "deployedLinkReferences": {},
  "immutableReferences": {},
  "inputSourceName": "project/contracts/AccountConfig.sol",
  "buildInfoId": "solc-0_8_28-d0d7526b71dfc943fcc808512c0c74097ee889f3"
}