{
  "_format": "hh3-artifact-1",
  "contractName": "AccountConfig",
  "sourceName": "contracts/AccountConfig.sol",
  "abi": [
    {
      "inputs": [],
      "stateMutability": "nonpayable",
      "type": "constructor"
    },
    {
      "inputs": [
        {
          "internalType": "uint256",
          "name": "apiKeyHash",
          "type": "uint256"
        }
      ],
      "name": "AccountAlreadyExists",
      "type": "error"
    },
    {
      "inputs": [
        {
          "internalType": "uint256",
          "name": "apiKeyHash",
          "type": "uint256"
        }
      ],
      "name": "AccountDoesNotExist",
      "type": "error"
    },
    {
      "inputs": [
        {
          "internalType": "uint256",
          "name": "apiKeyHash",
          "type": "uint256"
        },
        {
          "internalType": "uint256",
          "name": "groupId",
          "type": "uint256"
        },
        {
          "internalType": "uint256",
          "name": "action",
          "type": "uint256"
        }
      ],
      "name": "ActionDoesNotExist",
      "type": "error"
    },
    {
      "inputs": [
        {
          "internalType": "uint256",
          "name": "apiKeyHash",
          "type": "uint256"
        },
        {
          "internalType": "uint256",
          "name": "groupId",
          "type": "uint256"
        }
      ],
      "name": "GroupDoesNotExist",
      "type": "error"
    },
    {
      "inputs": [
        {
          "internalType": "uint256",
          "name": "apiKeyHash",
          "type": "uint256"
        },
        {
          "internalType": "uint256",
          "name": "amount",
          "type": "uint256"
        }
      ],
      "name": "InsufficientBalance",
      "type": "error"
    },
    {
      "inputs": [
        {
          "internalType": "uint256",
          "name": "apiKeyHash",
          "type": "uint256"
        },
        {
          "internalType": "address",
          "name": "sender",
          "type": "address"
        }
      ],
      "name": "NoAccountAccess",
      "type": "error"
    },
    {
      "inputs": [
        {
          "internalType": "uint256",
          "name": "apiKeyHash",
          "type": "uint256"
        }
      ],
      "name": "NotMasterAccount",
      "type": "error"
    },
    {
      "inputs": [
        {
          "internalType": "address",
          "name": "caller",
          "type": "address"
        }
      ],
      "name": "OnlyApiPayer",
      "type": "error"
    },
    {
      "inputs": [
        {
          "internalType": "address",
          "name": "caller",
          "type": "address"
        }
      ],
      "name": "OnlyApiPayerOrOwner",
      "type": "error"
    },
    {
      "inputs": [
        {
          "internalType": "address",
          "name": "caller",
          "type": "address"
        }
      ],
      "name": "OnlyApiPayerOrPricingOperator",
      "type": "error"
    },
    {
      "inputs": [
        {
          "internalType": "uint256",
          "name": "apiKeyHash",
          "type": "uint256"
        },
        {
          "internalType": "uint256",
          "name": "usageApiKeyHash",
          "type": "uint256"
        }
      ],
      "name": "UsageApiKeyDoesNotExist",
      "type": "error"
    },
    {
      "inputs": [
        {
          "internalType": "uint256",
          "name": "apiKeyHash",
          "type": "uint256"
        },
        {
          "internalType": "uint256",
          "name": "groupId",
          "type": "uint256"
        },
        {
          "internalType": "uint256",
          "name": "Wallet",
          "type": "uint256"
        }
      ],
      "name": "WalletDoesNotExist",
      "type": "error"
    },
    {
      "inputs": [
        {
          "internalType": "uint256",
          "name": "apiKeyHash",
          "type": "uint256"
        }
      ],
      "name": "accountExistsAndIsMutable",
      "outputs": [
        {
          "internalType": "bool",
          "name": "",
          "type": "bool"
        }
      ],
      "stateMutability": "view",
      "type": "function"
    },
    {
      "inputs": [
        {
          "internalType": "uint256",
          "name": "accountApiKeyHash",
          "type": "uint256"
        },
        {
          "internalType": "uint256",
          "name": "groupId",
          "type": "uint256"
        },
        {
          "internalType": "uint256",
          "name": "action",
          "type": "uint256"
        },
        {
          "internalType": "string",
          "name": "name",
          "type": "string"
        },
        {
          "internalType": "string",
          "name": "description",
          "type": "string"
        }
      ],
      "name": "addActionToGroup",
      "outputs": [],
      "stateMutability": "nonpayable",
      "type": "function"
    },
    {
      "inputs": [
        {
          "internalType": "uint256",
          "name": "accountApiKeyHash",
          "type": "uint256"
        },
        {
          "internalType": "uint256",
          "name": "usageApiKeyHash",
          "type": "uint256"
        },
        {
          "internalType": "uint256",
          "name": "expiration",
          "type": "uint256"
        },
        {
          "internalType": "uint256",
          "name": "balance",
          "type": "uint256"
        },
        {
          "internalType": "string",
          "name": "name",
          "type": "string"
        },
        {
          "internalType": "string",
          "name": "description",
          "type": "string"
        }
      ],
      "name": "addApiKey",
      "outputs": [],
      "stateMutability": "nonpayable",
      "type": "function"
    },
    {
      "inputs": [
        {
          "internalType": "uint256",
          "name": "accountApiKeyHash",
          "type": "uint256"
        },
        {
          "internalType": "string",
          "name": "name",
          "type": "string"
        },
        {
          "internalType": "string",
          "name": "description",
          "type": "string"
        },
        {
          "internalType": "uint256[]",
          "name": "permitted_actions",
          "type": "uint256[]"
        },
        {
          "internalType": "uint256[]",
          "name": "Wallets",
          "type": "uint256[]"
        },
        {
          "internalType": "bool",
          "name": "all_wallets_permitted",
          "type": "bool"
        },
        {
          "internalType": "bool",
          "name": "all_actions_permitted",
          "type": "bool"
        }
      ],
      "name": "addGroup",
      "outputs": [],
      "stateMutability": "nonpayable",
      "type": "function"
    },
    {
      "inputs": [
        {
          "internalType": "uint256",
          "name": "accountApiKeyHash",
          "type": "uint256"
        },
        {
          "internalType": "uint256",
          "name": "groupId",
          "type": "uint256"
        },
        {
          "internalType": "uint256",
          "name": "walletAddressHash",
          "type": "uint256"
        }
      ],
      "name": "addWalletToGroup",
      "outputs": [],
      "stateMutability": "nonpayable",
      "type": "function"
    },
    {
      "inputs": [
        {
          "internalType": "uint256",
          "name": "index",
          "type": "uint256"
        }
      ],
      "name": "allWalletAddressesAt",
      "outputs": [
        {
          "internalType": "address",
          "name": "",
          "type": "address"
        }
      ],
      "stateMutability": "view",
      "type": "function"
    },
    {
      "inputs": [],
      "name": "api_payer",
      "outputs": [
        {
          "internalType": "address",
          "name": "",
          "type": "address"
        }
      ],
      "stateMutability": "view",
      "type": "function"
    },
    {
      "inputs": [
        {
          "internalType": "uint256",
          "name": "apiKeyHash",
          "type": "uint256"
        },
        {
          "internalType": "uint256",
          "name": "amount",
          "type": "uint256"
        }
      ],
      "name": "creditApiKey",
      "outputs": [],
      "stateMutability": "nonpayable",
      "type": "function"
    },
    {
      "inputs": [
        {
          "internalType": "uint256",
          "name": "apiKeyHash",
          "type": "uint256"
        },
        {
          "internalType": "uint256",
          "name": "amount",
          "type": "uint256"
        }
      ],
      "name": "debitApiKey",
      "outputs": [],
      "stateMutability": "nonpayable",
      "type": "function"
    },
    {
      "inputs": [
        {
          "internalType": "uint256",
          "name": "pricingItemId",
          "type": "uint256"
        }
      ],
      "name": "getPricing",
      "outputs": [
        {
          "internalType": "uint256",
          "name": "",
          "type": "uint256"
        }
      ],
      "stateMutability": "view",
      "type": "function"
    },
    {
      "inputs": [
        {
          "internalType": "uint256",
          "name": "apiKeyHash",
          "type": "uint256"
        },
        {
          "internalType": "address",
          "name": "walletAddress",
          "type": "address"
        }
      ],
      "name": "getWalletDerivation",
      "outputs": [
        {
          "internalType": "uint256",
          "name": "",
          "type": "uint256"
        }
      ],
      "stateMutability": "view",
      "type": "function"
    },
    {
      "inputs": [
        {
          "internalType": "uint256",
          "name": "index",
          "type": "uint256"
        }
      ],
      "name": "indexToAccountHashAt",
      "outputs": [
        {
          "internalType": "uint256",
          "name": "",
          "type": "uint256"
        }
      ],
      "stateMutability": "view",
      "type": "function"
    },
    {
      "inputs": [
        {
          "internalType": "uint256",
          "name": "accountApiKeyHash",
          "type": "uint256"
        },
        {
          "internalType": "uint256",
          "name": "groupId",
          "type": "uint256"
        },
        {
          "internalType": "uint256",
          "name": "pageNumber",
          "type": "uint256"
        },
        {
          "internalType": "uint256",
          "name": "pageSize",
          "type": "uint256"
        }
      ],
      "name": "listActions",
      "outputs": [
        {
          "components": [
            {
              "internalType": "uint256",
              "name": "id",
              "type": "uint256"
            },
            {
              "internalType": "string",
              "name": "name",
              "type": "string"
            },
            {
              "internalType": "string",
              "name": "description",
              "type": "string"
            }
          ],
          "internalType": "struct LibAccountConfigStorage.Metadata[]",
          "name": "",
          "type": "tuple[]"
        }
      ],
      "stateMutability": "view",
      "type": "function"
    },
    {
      "inputs": [
        {
          "internalType": "uint256",
          "name": "accountApiKeyHash",
          "type": "uint256"
        },
        {
          "internalType": "uint256",
          "name": "pageNumber",
          "type": "uint256"
        },
        {
          "internalType": "uint256",
          "name": "pageSize",
          "type": "uint256"
        }
      ],
      "name": "listApiKeys",
      "outputs": [
        {
          "components": [
            {
              "components": [
                {
                  "internalType": "uint256",
                  "name": "id",
                  "type": "uint256"
                },
                {
                  "internalType": "string",
                  "name": "name",
                  "type": "string"
                },
                {
                  "internalType": "string",
                  "name": "description",
                  "type": "string"
                }
              ],
              "internalType": "struct LibAccountConfigStorage.Metadata",
              "name": "metadata",
              "type": "tuple"
            },
            {
              "internalType": "uint256",
              "name": "apiKeyHash",
              "type": "uint256"
            },
            {
              "internalType": "uint256",
              "name": "expiration",
              "type": "uint256"
            },
            {
              "internalType": "uint256",
              "name": "balance",
              "type": "uint256"
            },
            {
              "internalType": "bool",
              "name": "runActions",
              "type": "bool"
            },
            {
              "internalType": "bool",
              "name": "manageGroups",
              "type": "bool"
            },
            {
              "internalType": "bool",
              "name": "manageWallets",
              "type": "bool"
            },
            {
              "internalType": "bool",
              "name": "manageIPFSIds",
              "type": "bool"
            },
            {
              "internalType": "bool",
              "name": "manageUsageApiKeys",
              "type": "bool"
            }
          ],
          "internalType": "struct LibAccountConfigStorage.UsageApiKey[]",
          "name": "",
          "type": "tuple[]"
        }
      ],
      "stateMutability": "view",
      "type": "function"
    },
    {
      "inputs": [
        {
          "internalType": "uint256",
          "name": "accountApiKeyHash",
          "type": "uint256"
        },
        {
          "internalType": "uint256",
          "name": "pageNumber",
          "type": "uint256"
        },
        {
          "internalType": "uint256",
          "name": "pageSize",
          "type": "uint256"
        }
      ],
      "name": "listGroups",
      "outputs": [
        {
          "components": [
            {
              "internalType": "uint256",
              "name": "id",
              "type": "uint256"
            },
            {
              "internalType": "string",
              "name": "name",
              "type": "string"
            },
            {
              "internalType": "string",
              "name": "description",
              "type": "string"
            }
          ],
          "internalType": "struct LibAccountConfigStorage.Metadata[]",
          "name": "",
          "type": "tuple[]"
        }
      ],
      "stateMutability": "view",
      "type": "function"
    },
    {
      "inputs": [
        {
          "internalType": "uint256",
          "name": "accountApiKeyHash",
          "type": "uint256"
        },
        {
          "internalType": "uint256",
          "name": "pageNumber",
          "type": "uint256"
        },
        {
          "internalType": "uint256",
          "name": "pageSize",
          "type": "uint256"
        }
      ],
      "name": "listWallets",
      "outputs": [
        {
          "components": [
            {
              "internalType": "uint256",
              "name": "id",
              "type": "uint256"
            },
            {
              "internalType": "string",
              "name": "name",
              "type": "string"
            },
            {
              "internalType": "string",
              "name": "description",
              "type": "string"
            },
            {
              "internalType": "address",
              "name": "walletAddress",
              "type": "address"
            }
          ],
          "internalType": "struct LibAccountConfigStorage.WalletData[]",
          "name": "",
          "type": "tuple[]"
        }
      ],
      "stateMutability": "view",
      "type": "function"
    },
    {
      "inputs": [
        {
          "internalType": "uint256",
          "name": "accountApiKeyHash",
          "type": "uint256"
        },
        {
          "internalType": "uint256",
          "name": "groupId",
          "type": "uint256"
        },
        {
          "internalType": "uint256",
          "name": "pageNumber",
          "type": "uint256"
        },
        {
          "internalType": "uint256",
          "name": "pageSize",
          "type": "uint256"
        }
      ],
      "name": "listWalletsInGroup",
      "outputs": [
        {
          "components": [
            {
              "internalType": "uint256",
              "name": "id",
              "type": "uint256"
            },
            {
              "internalType": "string",
              "name": "name",
              "type": "string"
            },
            {
              "internalType": "string",
              "name": "description",
              "type": "string"
            },
            {
              "internalType": "address",
              "name": "walletAddress",
              "type": "address"
            }
          ],
          "internalType": "struct LibAccountConfigStorage.WalletData[]",
          "name": "",
          "type": "tuple[]"
        }
      ],
      "stateMutability": "view",
      "type": "function"
    },
    {
      "inputs": [
        {
          "internalType": "uint256",
          "name": "apiKeyHash",
          "type": "uint256"
        },
        {
          "internalType": "bool",
          "name": "managed",
          "type": "bool"
        },
        {
          "internalType": "string",
          "name": "accountName",
          "type": "string"
        },
        {
          "internalType": "string",
          "name": "accountDescription",
          "type": "string"
        },
        {
          "internalType": "address",
          "name": "creatorWalletAddress",
          "type": "address"
        }
      ],
      "name": "newAccount",
      "outputs": [],
      "stateMutability": "nonpayable",
      "type": "function"
    },
    {
      "inputs": [],
      "name": "nextAccountCount",
      "outputs": [
        {
          "internalType": "uint256",
          "name": "",
          "type": "uint256"
        }
      ],
      "stateMutability": "view",
      "type": "function"
    },
    {
      "inputs": [],
      "name": "nextWalletCount",
      "outputs": [
        {
          "internalType": "uint256",
          "name": "",
          "type": "uint256"
        }
      ],
      "stateMutability": "view",
      "type": "function"
    },
    {
      "inputs": [],
      "name": "owner",
      "outputs": [
        {
          "internalType": "address",
          "name": "",
          "type": "address"
        }
      ],
      "stateMutability": "view",
      "type": "function"
    },
    {
      "inputs": [
        {
          "internalType": "uint256",
          "name": "index",
          "type": "uint256"
        }
      ],
      "name": "pricingAt",
      "outputs": [
        {
          "internalType": "uint256",
          "name": "",
          "type": "uint256"
        }
      ],
      "stateMutability": "view",
      "type": "function"
    },
    {
      "inputs": [],
      "name": "pricing_operator",
      "outputs": [
        {
          "internalType": "address",
          "name": "",
          "type": "address"
        }
      ],
      "stateMutability": "view",
      "type": "function"
    },
    {
      "inputs": [
        {
          "internalType": "uint256",
          "name": "accountApiKeyHash",
          "type": "uint256"
        },
        {
          "internalType": "address",
          "name": "walletAddress",
          "type": "address"
        },
        {
          "internalType": "uint256",
          "name": "derivationPath",
          "type": "uint256"
        },
        {
          "internalType": "string",
          "name": "name",
          "type": "string"
        },
        {
          "internalType": "string",
          "name": "description",
          "type": "string"
        }
      ],
      "name": "registerWalletDerivation",
      "outputs": [],
      "stateMutability": "nonpayable",
      "type": "function"
    },
    {
      "inputs": [
        {
          "internalType": "uint256",
          "name": "accountApiKeyHash",
          "type": "uint256"
        },
        {
          "internalType": "uint256",
          "name": "groupId",
          "type": "uint256"
        },
        {
          "internalType": "uint256",
          "name": "action",
          "type": "uint256"
        }
      ],
      "name": "removeActionFromGroup",
      "outputs": [],
      "stateMutability": "nonpayable",
      "type": "function"
    },
    {
      "inputs": [
        {
          "internalType": "uint256",
          "name": "accountApiKeyHash",
          "type": "uint256"
        },
        {
          "internalType": "uint256",
          "name": "usageApiKeyHash",
          "type": "uint256"
        }
      ],
      "name": "removeUsageApiKey",
      "outputs": [],
      "stateMutability": "nonpayable",
      "type": "function"
    },
    {
      "inputs": [
        {
          "internalType": "uint256",
          "name": "accountApiKeyHash",
          "type": "uint256"
        },
        {
          "internalType": "uint256",
          "name": "groupId",
          "type": "uint256"
        },
        {
          "internalType": "uint256",
          "name": "walletAddressHash",
          "type": "uint256"
        }
      ],
      "name": "removeWalletFromGroup",
      "outputs": [],
      "stateMutability": "nonpayable",
      "type": "function"
    },
    {
      "inputs": [
        {
          "internalType": "address",
          "name": "newApiPayer",
          "type": "address"
        }
      ],
      "name": "setApiPayer",
      "outputs": [],
      "stateMutability": "nonpayable",
      "type": "function"
    },
    {
      "inputs": [
        {
          "internalType": "uint256",
          "name": "pricingItemId",
          "type": "uint256"
        },
        {
          "internalType": "uint256",
          "name": "price",
          "type": "uint256"
        }
      ],
      "name": "setPricing",
      "outputs": [],
      "stateMutability": "nonpayable",
      "type": "function"
    },
    {
      "inputs": [
        {
          "internalType": "address",
          "name": "newPricingOperator",
          "type": "address"
        }
      ],
      "name": "setPricingOperator",
      "outputs": [],
      "stateMutability": "nonpayable",
      "type": "function"
    },
    {
      "inputs": [
        {
          "internalType": "uint256",
          "name": "accountApiKeyHash",
          "type": "uint256"
        },
        {
          "internalType": "uint256",
          "name": "actionHash",
          "type": "uint256"
        },
        {
          "internalType": "uint256",
          "name": "groupId",
          "type": "uint256"
        },
        {
          "internalType": "string",
          "name": "name",
          "type": "string"
        },
        {
          "internalType": "string",
          "name": "description",
          "type": "string"
        }
      ],
      "name": "updateActionMetadata",
      "outputs": [],
      "stateMutability": "nonpayable",
      "type": "function"
    },
    {
      "inputs": [
        {
          "internalType": "uint256",
          "name": "accountApiKeyHash",
          "type": "uint256"
        },
        {
          "internalType": "uint256",
          "name": "groupId",
          "type": "uint256"
        },
        {
          "internalType": "string",
          "name": "name",
          "type": "string"
        },
        {
          "internalType": "string",
          "name": "description",
          "type": "string"
        },
        {
          "internalType": "bool",
          "name": "all_wallets_permitted",
          "type": "bool"
        },
        {
          "internalType": "bool",
          "name": "all_actions_permitted",
          "type": "bool"
        }
      ],
      "name": "updateGroup",
      "outputs": [],
      "stateMutability": "nonpayable",
      "type": "function"
    },
    {
      "inputs": [
        {
          "internalType": "uint256",
          "name": "accountApiKeyHash",
          "type": "uint256"
        },
        {
          "internalType": "uint256",
          "name": "usageApiKeyHash",
          "type": "uint256"
        },
        {
          "internalType": "string",
          "name": "name",
          "type": "string"
        },
        {
          "internalType": "string",
          "name": "description",
          "type": "string"
        }
      ],
      "name": "updateUsageApiKeyMetadata",
      "outputs": [],
      "stateMutability": "nonpayable",
      "type": "function"
    }
  ],
  "bytecode": "0x608060405234801561000f575f5ffd5b5061001e61002360201b60201c565b610260565b5f6100326101bc60201b60201c565b90505f73ffffffffffffffffffffffffffffffffffffffff16816005015f9054906101000a900473ffffffffffffffffffffffffffffffffffffffff1673ffffffffffffffffffffffffffffffffffffffff16146100c5576040517f08c379a00000000000000000000000000000000000000000000000000000000081526004016100bc90610242565b60405180910390fd5b33816005015f6101000a81548173ffffffffffffffffffffffffffffffffffffffff021916908373ffffffffffffffffffffffffffffffffffffffff16021790555033816007015f6101000a81548173ffffffffffffffffffffffffffffffffffffffff021916908373ffffffffffffffffffffffffffffffffffffffff16021790555033816006015f6101000a81548173ffffffffffffffffffffffffffffffffffffffff021916908373ffffffffffffffffffffffffffffffffffffffff16021790555060018160080181905550600181600901819055506001816004015f600181526020019081526020015f208190555050565b5f5f7f171def12e82c8f3351e4c79b7854be19ad60a75b888f74b9660c07cd7461963390508091505090565b5f82825260208201905092915050565b7f616c726561647920696e697469616c697a6564000000000000000000000000005f82015250565b5f61022c6013836101e8565b9150610237826101f8565b602082019050919050565b5f6020820190508181035f83015261025981610220565b9050919050565b6144c38061026d5f395ff3fe608060405234801561000f575f5ffd5b50600436106101f9575f3560e01c80637af361ef11610118578063c12f1a42116100ab578063ca05588a1161007a578063ca05588a146105cb578063ccb78fb6146105e7578063e6ad292814610617578063f75c8b2d14610633578063fec99aef14610663576101f9565b8063c12f1a421461051f578063c1aff8991461054f578063c5f5b9841461057f578063c704668c1461059b576101f9565b806392141552116100e757806392141552146104af57806396a7cc54146104cb578063a6b6b672146104e7578063bac710ea14610503576101f9565b80637af361ef146104135780638845698c146104435780638da5cb5b1461046157806390222cad1461047f576101f9565b8063683f2de8116101905780636fe1fb841161015f5780636fe1fb841461037b578063719fac43146103ab578063749e4d07146103db57806379312245146103f7576101f9565b8063683f2de81461030b57806369d63c21146103275780636a3d77a9146103435780636e06ac9c1461035f576101f9565b80634705161e116101cc5780634705161e146102835780634cd882ac146102a1578063542970ed146102bf5780635d861c72146102ef576101f9565b80630f9a6021146101fd578063291ff1ea1461021b5780632fa92e411461024b57806340b4d45314610267575b5f5ffd5b61020561067f565b6040516102129190613116565b60405180910390f35b6102356004803603810190610230919061316a565b610691565b60405161024291906133ae565b60405180910390f35b610265600480360381019061026091906134fa565b610a47565b005b610281600480360381019061027c91906135a9565b610b27565b005b61028b610c12565b6040516102989190613116565b60405180910390f35b6102a9610c24565b6040516102b691906135f6565b60405180910390f35b6102d960048036038101906102d4919061316a565b610c55565b6040516102e6919061371e565b60405180910390f35b6103096004803603810190610304919061373e565b610ea1565b005b610325600480360381019061032091906135a9565b610f2b565b005b610341600480360381019061033c91906137b8565b610fcb565b005b61035d600480360381019061035891906137e3565b611020565b005b6103796004803603810190610374919061373e565b6110bc565b005b6103956004803603810190610390919061387f565b611124565b6040516103a29190613116565b60405180910390f35b6103c560048036038101906103c0919061387f565b611147565b6040516103d291906138c4565b60405180910390f35b6103f560048036038101906103f091906139cb565b611159565b005b610411600480360381019061040c9190613ad8565b6112ec565b005b61042d6004803603810190610428919061373e565b611520565b60405161043a91906133ae565b60405180910390f35b61044b611891565b60405161045891906135f6565b60405180910390f35b6104696118c2565b60405161047691906135f6565b60405180910390f35b61049960048036038101906104949190613b87565b6118f3565b6040516104a69190613116565b60405180910390f35b6104c960048036038101906104c49190613bc5565b61194b565b005b6104e560048036038101906104e09190613c74565b611b48565b005b61050160048036038101906104fc91906134fa565b611bf6565b005b61051d6004803603810190610518919061373e565b611c7b565b005b6105396004803603810190610534919061387f565b611cd9565b6040516105469190613116565b60405180910390f35b6105696004803603810190610564919061387f565b611cfc565b6040516105769190613116565b60405180910390f35b610599600480360381019061059491906135a9565b611d1f565b005b6105b560048036038101906105b0919061373e565b611e46565b6040516105c29190613ec1565b60405180910390f35b6105e560048036038101906105e091906135a9565b612132565b005b61060160048036038101906105fc919061387f565b61215e565b60405161060e91906135f6565b60405180910390f35b610631600480360381019061062c91906137b8565b6121a0565b005b61064d6004803603810190610648919061373e565b6121f5565b60405161065a919061371e565b60405180910390f35b61067d60048036038101906106789190613ee1565b61242b565b005b5f6106886125a1565b60090154905090565b60605f61069d866125cd565b90505f6106a86125a1565b90505f82600d015f8881526020019081526020015f2090505f5f6106d86106d184600501612654565b8989612667565b915091505f8167ffffffffffffffff8111156106f7576106f66133d6565b5b60405190808252806020026020018201604052801561073057816020015b61071d612ff6565b8152602001906001900390816107155790505b5090505f5f90505b82811015610a35575f61076282866107509190613fcf565b876005016126d190919063ffffffff16565b90505f876003015f8381526020019081526020015f205f9054906101000a900473ffffffffffffffffffffffffffffffffffffffff169050808484815181106107ae576107ad614002565b5b60200260200101516060019073ffffffffffffffffffffffffffffffffffffffff16908173ffffffffffffffffffffffffffffffffffffffff1681525050886012015f8273ffffffffffffffffffffffffffffffffffffffff1673ffffffffffffffffffffffffffffffffffffffff1681526020019081526020015f2060010180546108399061405c565b80601f01602080910402602001604051908101604052809291908181526020018280546108659061405c565b80156108b05780601f10610887576101008083540402835291602001916108b0565b820191905f5260205f20905b81548152906001019060200180831161089357829003601f168201915b50505050508484815181106108c8576108c7614002565b5b602002602001015160200181905250886012015f8273ffffffffffffffffffffffffffffffffffffffff1673ffffffffffffffffffffffffffffffffffffffff1681526020019081526020015f2060020180546109249061405c565b80601f01602080910402602001604051908101604052809291908181526020018280546109509061405c565b801561099b5780601f106109725761010080835404028352916020019161099b565b820191905f5260205f20905b81548152906001019060200180831161097e57829003601f168201915b50505050508484815181106109b3576109b2614002565b5b602002602001015160400181905250886012015f8273ffffffffffffffffffffffffffffffffffffffff1673ffffffffffffffffffffffffffffffffffffffff1681526020019081526020015f205f0154848481518110610a1757610a16614002565b5b60200260200101515f01818152505050508080600101915050610738565b50809650505050505050949350505050565b610a5185856126e8565b610a5a856126ff565b5f610a636125a1565b90505f815f015f8881526020019081526020015f209050610aa28582600d015f8981526020019081526020015f2060030161276590919063ffffffff16565b5084816010015f8781526020019081526020015f205f018190555083816010015f8781526020019081526020015f206001019081610ae0919061422c565b5082816010015f8781526020019081526020015f206002019081610b04919061422c565b50806015015f815480929190610b19906142fb565b919050555050505050505050565b610b303361277c565b610b3982612790565b610b42826126ff565b5f610b4b6125a1565b90505f816002015f8581526020019081526020015f205490505f825f015f8381526020019081526020015f2090505f85825f016003015414610b9f5781600a015f8781526020019081526020015f20610ba3565b815f015b90508481600501541015610bf05785856040517fcf479181000000000000000000000000000000000000000000000000000000008152600401610be7929190614342565b60405180910390fd5b84816005015f828254610c039190614369565b92505081905550505050505050565b5f610c1b6125a1565b60080154905090565b5f610c2d6125a1565b6007015f9054906101000a900473ffffffffffffffffffffffffffffffffffffffff16905090565b60605f610c61866125cd565b90505f81600d015f8781526020019081526020015f2090505f610c8682600301612654565b90505f5f610c95838989612667565b915091505f8167ffffffffffffffff811115610cb457610cb36133d6565b5b604051908082528060200260200182016040528015610ced57816020015b610cda613032565b815260200190600190039081610cd25790505b5090505f5f90505b82811015610e8f57866010015f610d238387610d119190613fcf565b896003016126d190919063ffffffff16565b81526020019081526020015f206040518060600160405290815f8201548152602001600182018054610d549061405c565b80601f0160208091040260200160405190810160405280929190818152602001828054610d809061405c565b8015610dcb5780601f10610da257610100808354040283529160200191610dcb565b820191905f5260205f20905b815481529060010190602001808311610dae57829003601f168201915b50505050508152602001600282018054610de49061405c565b80601f0160208091040260200160405190810160405280929190818152602001828054610e109061405c565b8015610e5b5780601f10610e3257610100808354040283529160200191610e5b565b820191905f5260205f20905b815481529060010190602001808311610e3e57829003601f168201915b505050505081525050828281518110610e7757610e76614002565b5b60200260200101819052508080600101915050610cf5565b50809650505050505050949350505050565b610eac83838361279d565b610eb5836126ff565b5f610ebe6125a1565b90505f815f015f8681526020019081526020015f209050610efd8382600d015f8781526020019081526020015f2060030161283690919063ffffffff16565b505f81601501541115610f2457806015015f815480929190610f1e9061439c565b91905055505b5050505050565b610f343361277c565b610f3d82612790565b610f46826126ff565b5f610f4f6125a1565b90505f816002015f8581526020019081526020015f205490505f825f015f8381526020019081526020015f2090505f85825f016003015414610fa35781600a015f8781526020019081526020015f20610fa7565b815f015b905084816005015f828254610fbc9190613fcf565b92505081905550505050505050565b610fd43361284d565b80610fdd6125a1565b6005015f6101000a81548173ffffffffffffffffffffffffffffffffffffffff021916908373ffffffffffffffffffffffffffffffffffffffff16021790555050565b61102984612790565b611033848461294c565b61103c846126ff565b5f6110456125a1565b905082815f015f8781526020019081526020015f20600a015f8681526020019081526020015f205f01600101908161107d919061422c565b5081815f015f8781526020019081526020015f20600a015f8681526020019081526020015f205f0160020190816110b4919061422c565b505050505050565b6110c583612790565b6110d08383836129c9565b6110d9836126ff565b5f6110e26125a1565b905061111d82825f015f8781526020019081526020015f20600d015f8681526020019081526020015f2060050161283690919063ffffffff16565b5050505050565b5f61112d6125a1565b6001015f8381526020019081526020015f20549050919050565b5f6111528233612a62565b9050919050565b61116287612790565b61116b876126ff565b5f6111746125a1565b90505f815f015f8a81526020019081526020015f2090506111a5816016015482600b0161276590919063ffffffff16565b505f81600d015f836016015481526020019081526020015f2090508160160154815f015f018190555088815f0160010190816111e1919061422c565b5087815f0160020190816111f5919061422c565b505f5f90505b87518110156112425761123488828151811061121a57611219614002565b5b60200260200101518360030161276590919063ffffffff16565b5080806001019150506111fb565b505f5f90505b865181101561128f5761128187828151811061126757611266614002565b5b60200260200101518360050161276590919063ffffffff16565b508080600101915050611248565b5084816007015f6101000a81548160ff021916908315150217905550838160070160016101000a81548160ff021916908315150217905550816016015f8154809291906112db906142fb565b919050555050505050505050505050565b6112f533612ba4565b5f6112fe6125a1565b90505f816002015f8881526020019081526020015f20541461135757856040517f8be1f3fb00000000000000000000000000000000000000000000000000000000815260040161134e9190613116565b60405180910390fd5b5f815f015f8881526020019081526020015f20905085816013015f6101000a81548160ff02191690831515021790555082816007015f6101000a81548173ffffffffffffffffffffffffffffffffffffffff021916908373ffffffffffffffffffffffffffffffffffffffff16021790555086815f015f015f018190555084815f015f0160010190816113ea919061422c565b5083815f015f016002019081611400919061422c565b505f815f016006015f6101000a81548160ff0219169083151502179055506001815f0160060160016101000a81548160ff0219169083151502179055506001815f0160060160026101000a81548160ff0219169083151502179055506001815f0160060160036101000a81548160ff0219169083151502179055506001815f0160060160046101000a81548160ff02191690831515021790555086815f01600301819055506312cc0300426114b59190613fcf565b815f01600401819055505f815f016005018190555086826002015f8981526020019081526020015f208190555086826001015f846009015481526020019081526020015f2081905550816009015f815480929190611512906142fb565b919050555050505050505050565b60605f61152c856125cd565b90505f5f61153f83601401548787612667565b915091505f8167ffffffffffffffff81111561155e5761155d6133d6565b5b60405190808252806020026020018201604052801561159757816020015b611584612ff6565b81526020019060019003908161157c5790505b5090505f5f90505b82811015611882575f856011015f83876115b99190613fcf565b81526020019081526020015f205f9054906101000a900473ffffffffffffffffffffffffffffffffffffffff169050808383815181106115fc576115fb614002565b5b60200260200101516060019073ffffffffffffffffffffffffffffffffffffffff16908173ffffffffffffffffffffffffffffffffffffffff1681525050856012015f8273ffffffffffffffffffffffffffffffffffffffff1673ffffffffffffffffffffffffffffffffffffffff1681526020019081526020015f2060010180546116879061405c565b80601f01602080910402602001604051908101604052809291908181526020018280546116b39061405c565b80156116fe5780601f106116d5576101008083540402835291602001916116fe565b820191905f5260205f20905b8154815290600101906020018083116116e157829003601f168201915b505050505083838151811061171657611715614002565b5b602002602001015160200181905250856012015f8273ffffffffffffffffffffffffffffffffffffffff1673ffffffffffffffffffffffffffffffffffffffff1681526020019081526020015f2060020180546117729061405c565b80601f016020809104026020016040519081016040528092919081815260200182805461179e9061405c565b80156117e95780601f106117c0576101008083540402835291602001916117e9565b820191905f5260205f20905b8154815290600101906020018083116117cc57829003601f168201915b505050505083838151811061180157611800614002565b5b602002602001015160400181905250856012015f8273ffffffffffffffffffffffffffffffffffffffff1673ffffffffffffffffffffffffffffffffffffffff1681526020019081526020015f205f015483838151811061186557611864614002565b5b60200260200101515f01818152505050808060010191505061159f565b50809450505050509392505050565b5f61189a6125a1565b6005015f9054906101000a900473ffffffffffffffffffffffffffffffffffffffff16905090565b5f6118cb6125a1565b6006015f9054906101000a900473ffffffffffffffffffffffffffffffffffffffff16905090565b5f5f6118fe846125cd565b9050806012015f8473ffffffffffffffffffffffffffffffffffffffff1673ffffffffffffffffffffffffffffffffffffffff1681526020019081526020015f205f015491505092915050565b61195485612790565b61195d856126ff565b5f6119666125a1565b90505f815f015f8881526020019081526020015f20905084816012015f8873ffffffffffffffffffffffffffffffffffffffff1673ffffffffffffffffffffffffffffffffffffffff1681526020019081526020015f205f018190555083816012015f8873ffffffffffffffffffffffffffffffffffffffff1673ffffffffffffffffffffffffffffffffffffffff1681526020019081526020015f206001019081611a12919061422c565b5082816012015f8873ffffffffffffffffffffffffffffffffffffffff1673ffffffffffffffffffffffffffffffffffffffff1681526020019081526020015f206002019081611a62919061422c565b5085816011015f836014015481526020019081526020015f205f6101000a81548173ffffffffffffffffffffffffffffffffffffffff021916908373ffffffffffffffffffffffffffffffffffffffff16021790555085826003015f846008015481526020019081526020015f205f6101000a81548173ffffffffffffffffffffffffffffffffffffffff021916908373ffffffffffffffffffffffffffffffffffffffff160217905550806014015f815480929190611b21906142fb565b9190505550816008015f815480929190611b3a906142fb565b919050555050505050505050565b611b5286866126e8565b611b5b866126ff565b5f611b646125a1565b90505f815f015f8981526020019081526020015f20600d015f8881526020019081526020015f20905085815f016001019081611ba0919061422c565b5084815f016002019081611bb4919061422c565b5083816007015f6101000a81548160ff021916908315150217905550828160070160016101000a81548160ff0219169083151502179055505050505050505050565b611c0185848661279d565b611c0a856126ff565b5f611c136125a1565b90505f815f015f8881526020019081526020015f20905083816010015f8881526020019081526020015f206001019081611c4d919061422c565b5082816010015f8881526020019081526020015f206002019081611c71919061422c565b5050505050505050565b611c8583836126e8565b611c8e836126ff565b5f611c976125a1565b9050611cd282825f015f8781526020019081526020015f20600d015f8681526020019081526020015f2060050161276590919063ffffffff16565b5050505050565b5f611ce26125a1565b6004015f8381526020019081526020015f20549050919050565b5f611d056125a1565b6004015f8381526020019081526020015f20549050919050565b611d2882612790565b611d32828261294c565b611d3b826126ff565b5f611d446125a1565b90505f815f015f8581526020019081526020015f209050611d71838260080161283690919063ffffffff16565b5080600a015f8481526020019081526020015f205f5f82015f5f82015f9055600182015f611d9f9190613052565b600282015f611dae9190613052565b5050600382015f9055600482015f9055600582015f9055600682015f6101000a81549060ff02191690556006820160016101000a81549060ff02191690556006820160026101000a81549060ff02191690556006820160036101000a81549060ff02191690556006820160046101000a81549060ff02191690555050816002015f8481526020019081526020015f205f905550505050565b60605f611e52856125cd565b90505f611e6182600801612654565b90505f5f611e70838888612667565b915091505f8167ffffffffffffffff811115611e8f57611e8e6133d6565b5b604051908082528060200260200182016040528015611ec857816020015b611eb561308f565b815260200190600190039081611ead5790505b5090505f5f90505b828110156121225785600a015f611efe8387611eec9190613fcf565b896008016126d190919063ffffffff16565b81526020019081526020015f20604051806101200160405290815f82016040518060600160405290815f8201548152602001600182018054611f3f9061405c565b80601f0160208091040260200160405190810160405280929190818152602001828054611f6b9061405c565b8015611fb65780601f10611f8d57610100808354040283529160200191611fb6565b820191905f5260205f20905b815481529060010190602001808311611f9957829003601f168201915b50505050508152602001600282018054611fcf9061405c565b80601f0160208091040260200160405190810160405280929190818152602001828054611ffb9061405c565b80156120465780601f1061201d57610100808354040283529160200191612046565b820191905f5260205f20905b81548152906001019060200180831161202957829003601f168201915b5050505050815250508152602001600382015481526020016004820154815260200160058201548152602001600682015f9054906101000a900460ff161515151581526020016006820160019054906101000a900460ff161515151581526020016006820160029054906101000a900460ff161515151581526020016006820160039054906101000a900460ff161515151581526020016006820160049054906101000a900460ff16151515158152505082828151811061210a57612109614002565b5b60200260200101819052508080600101915050611ed0565b5080955050505050509392505050565b61213b3361277c565b806121446125a1565b6004015f8481526020019081526020015f20819055505050565b5f6121676125a1565b6003015f8381526020019081526020015f205f9054906101000a900473ffffffffffffffffffffffffffffffffffffffff169050919050565b6121a93361277c565b806121b26125a1565b6007015f6101000a81548173ffffffffffffffffffffffffffffffffffffffff021916908373ffffffffffffffffffffffffffffffffffffffff16021790555050565b60605f612201856125cd565b90505f61221082600b01612654565b90505f5f61221f838888612667565b915091505f8167ffffffffffffffff81111561223e5761223d6133d6565b5b60405190808252806020026020018201604052801561227757816020015b612264613032565b81526020019060019003908161225c5790505b5090505f5f90505b8281101561241b5785600d015f6122ad838761229b9190613fcf565b89600b016126d190919063ffffffff16565b81526020019081526020015f205f016040518060600160405290815f82015481526020016001820180546122e09061405c565b80601f016020809104026020016040519081016040528092919081815260200182805461230c9061405c565b80156123575780601f1061232e57610100808354040283529160200191612357565b820191905f5260205f20905b81548152906001019060200180831161233a57829003601f168201915b505050505081526020016002820180546123709061405c565b80601f016020809104026020016040519081016040528092919081815260200182805461239c9061405c565b80156123e75780601f106123be576101008083540402835291602001916123e7565b820191905f5260205f20905b8154815290600101906020018083116123ca57829003601f168201915b50505050508152505082828151811061240357612402614002565b5b6020026020010181905250808060010191505061227f565b5080955050505050509392505050565b61243486612790565b5f61243d6125a1565b90505f816002015f8981526020019081526020015f205490505f825f015f8381526020019081526020015f20600a015f8981526020019081526020015f2090508781600301819055508681600401819055508581600501819055506001816006015f6101000a81548160ff0219169083151502179055505f8160060160016101000a81548160ff0219169083151502179055505f8160060160026101000a81548160ff0219169083151502179055505f8160060160036101000a81548160ff0219169083151502179055505f8160060160046101000a81548160ff02191690831515021790555087815f015f018190555084815f016001019081612541919061422c565b5083815f016002019081612555919061422c565b5061257d88845f015f8581526020019081526020015f2060080161276590919063ffffffff16565b5081836002015f8a81526020019081526020015f2081905550505050505050505050565b5f5f7f171def12e82c8f3351e4c79b7854be19ad60a75b888f74b9660c07cd7461963390508091505090565b5f5f6125d76125a1565b90505f816002015f8581526020019081526020015f205490505f810361263457836040517fd4a8473700000000000000000000000000000000000000000000000000000000815260040161262b9190613116565b60405180910390fd5b5f825f015f8381526020019081526020015f209050809350505050919050565b5f612660825f01612c46565b9050919050565b5f5f84831115612678578492505f93505b5f838561268591906143c3565b905085811061269a575f5f92509250506126c9565b5f84826126a79190613fcf565b9050868111156126b5578690505b8182826126c29190614369565b9350935050505b935093915050565b5f6126de835f0183612c55565b5f1c905092915050565b6126f182612790565b6126fb8282612c7c565b5050565b5f6127086125a1565b905081816002015f8481526020019081526020015f20541461276157816040517f1d0932ee0000000000000000000000000000000000000000000000000000000081526004016127589190613116565b60405180910390fd5b5050565b5f612774835f01835f1b612ccd565b905092915050565b61278d6127876125a1565b82612d34565b50565b61279a8133612e28565b50565b6127a783836126e8565b5f6127b06125a1565b90506127eb82825f015f8781526020019081526020015f20600d015f8681526020019081526020015f20600301612e7990919063ffffffff16565b612830578383836040517fef25d02d00000000000000000000000000000000000000000000000000000000815260040161282793929190614404565b60405180910390fd5b50505050565b5f612845835f01835f1b612e90565b905092915050565b5f6128566125a1565b9050806005015f9054906101000a900473ffffffffffffffffffffffffffffffffffffffff1673ffffffffffffffffffffffffffffffffffffffff168273ffffffffffffffffffffffffffffffffffffffff16141580156129065750806006015f9054906101000a900473ffffffffffffffffffffffffffffffffffffffff1673ffffffffffffffffffffffffffffffffffffffff168273ffffffffffffffffffffffffffffffffffffffff1614155b1561294857816040517f2d87faed00000000000000000000000000000000000000000000000000000000815260040161293f91906135f6565b60405180910390fd5b5050565b5f6129556125a1565b905081815f015f8581526020019081526020015f20600a015f8481526020019081526020015f2060030154146129c45782826040517f748e712a0000000000000000000000000000000000000000000000000000000081526004016129bb929190614342565b60405180910390fd5b505050565b6129d383836126e8565b5f6129dc6125a1565b9050612a1782825f015f8781526020019081526020015f20600d015f8681526020019081526020015f20600501612e7990919063ffffffff16565b612a5c578383836040517f79167858000000000000000000000000000000000000000000000000000000008152600401612a5393929190614404565b60405180910390fd5b50505050565b5f5f612a6c6125a1565b90505f816002015f8681526020019081526020015f205490505f8103612a96575f92505050612b9e565b5f825f015f8381526020019081526020015f20905081815f016003015414612ac3575f9350505050612b9e565b826005015f9054906101000a900473ffffffffffffffffffffffffffffffffffffffff1673ffffffffffffffffffffffffffffffffffffffff168573ffffffffffffffffffffffffffffffffffffffff16148015612b35575060011515816013015f9054906101000a900460ff161515145b15612b465760019350505050612b9e565b8473ffffffffffffffffffffffffffffffffffffffff16816007015f9054906101000a900473ffffffffffffffffffffffffffffffffffffffff1673ffffffffffffffffffffffffffffffffffffffff161493505050505b92915050565b5f612bad6125a1565b9050806005015f9054906101000a900473ffffffffffffffffffffffffffffffffffffffff1673ffffffffffffffffffffffffffffffffffffffff168273ffffffffffffffffffffffffffffffffffffffff1614612c4257816040517f92f13c4e000000000000000000000000000000000000000000000000000000008152600401612c3991906135f6565b60405180910390fd5b5050565b5f815f01805490509050919050565b5f825f018281548110612c6b57612c6a614002565b5b905f5260205f200154905092915050565b612c868282612f8c565b612cc95781816040517f931a85b3000000000000000000000000000000000000000000000000000000008152600401612cc0929190614342565b60405180910390fd5b5050565b5f612cd88383612fd6565b612d2a57825f0182908060018154018082558091505060019003905f5260205f20015f9091909190915055825f0180549050836001015f8481526020019081526020015f208190555060019050612d2e565b5f90505b92915050565b816005015f9054906101000a900473ffffffffffffffffffffffffffffffffffffffff1673ffffffffffffffffffffffffffffffffffffffff168173ffffffffffffffffffffffffffffffffffffffff1614158015612de25750816007015f9054906101000a900473ffffffffffffffffffffffffffffffffffffffff1673ffffffffffffffffffffffffffffffffffffffff168173ffffffffffffffffffffffffffffffffffffffff1614155b15612e2457806040517f9ed88e07000000000000000000000000000000000000000000000000000000008152600401612e1b91906135f6565b60405180910390fd5b5050565b612e328282612a62565b612e755781816040517f7b0f9c07000000000000000000000000000000000000000000000000000000008152600401612e6c929190614439565b60405180910390fd5b5050565b5f612e88835f01835f1b612fd6565b905092915050565b5f5f836001015f8481526020019081526020015f205490505f8114612f81575f600182612ebd9190614369565b90505f6001865f0180549050612ed39190614369565b9050808214612f39575f865f018281548110612ef257612ef1614002565b5b905f5260205f200154905080875f018481548110612f1357612f12614002565b5b905f5260205f20018190555083876001015f8381526020019081526020015f2081905550505b855f01805480612f4c57612f4b614460565b5b600190038181905f5260205f20015f90559055856001015f8681526020019081526020015f205f905560019350505050612f86565b5f9150505b92915050565b5f5f612f966125a1565b90505f815f015f8681526020019081526020015f2090505f81600d015f8681526020019081526020015f20905084815f015f015414935050505092915050565b5f5f836001015f8481526020019081526020015f20541415905092915050565b60405180608001604052805f815260200160608152602001606081526020015f73ffffffffffffffffffffffffffffffffffffffff1681525090565b60405180606001604052805f815260200160608152602001606081525090565b50805461305e9061405c565b5f825580601f1061306f575061308c565b601f0160209004905f5260205f209081019061308b91906130e3565b5b50565b6040518061012001604052806130a3613032565b81526020015f81526020015f81526020015f81526020015f151581526020015f151581526020015f151581526020015f151581526020015f151581525090565b5b808211156130fa575f815f9055506001016130e4565b5090565b5f819050919050565b613110816130fe565b82525050565b5f6020820190506131295f830184613107565b92915050565b5f604051905090565b5f5ffd5b5f5ffd5b613149816130fe565b8114613153575f5ffd5b50565b5f8135905061316481613140565b92915050565b5f5f5f5f6080858703121561318257613181613138565b5b5f61318f87828801613156565b94505060206131a087828801613156565b93505060406131b187828801613156565b92505060606131c287828801613156565b91505092959194509250565b5f81519050919050565b5f82825260208201905092915050565b5f819050602082019050919050565b613200816130fe565b82525050565b5f81519050919050565b5f82825260208201905092915050565b8281835e5f83830152505050565b5f601f19601f8301169050919050565b5f61324882613206565b6132528185613210565b9350613262818560208601613220565b61326b8161322e565b840191505092915050565b5f73ffffffffffffffffffffffffffffffffffffffff82169050919050565b5f61329f82613276565b9050919050565b6132af81613295565b82525050565b5f608083015f8301516132ca5f8601826131f7565b50602083015184820360208601526132e2828261323e565b915050604083015184820360408601526132fc828261323e565b915050606083015161331160608601826132a6565b508091505092915050565b5f61332783836132b5565b905092915050565b5f602082019050919050565b5f613345826131ce565b61334f81856131d8565b935083602082028501613361856131e8565b805f5b8581101561339c578484038952815161337d858261331c565b94506133888361332f565b925060208a01995050600181019050613364565b50829750879550505050505092915050565b5f6020820190508181035f8301526133c6818461333b565b905092915050565b5f5ffd5b5f5ffd5b7f4e487b71000000000000000000000000000000000000000000000000000000005f52604160045260245ffd5b61340c8261322e565b810181811067ffffffffffffffff8211171561342b5761342a6133d6565b5b80604052505050565b5f61343d61312f565b90506134498282613403565b919050565b5f67ffffffffffffffff821115613468576134676133d6565b5b6134718261322e565b9050602081019050919050565b828183375f83830152505050565b5f61349e6134998461344e565b613434565b9050828152602081018484840111156134ba576134b96133d2565b5b6134c584828561347e565b509392505050565b5f82601f8301126134e1576134e06133ce565b5b81356134f184826020860161348c565b91505092915050565b5f5f5f5f5f60a0868803121561351357613512613138565b5b5f61352088828901613156565b955050602061353188828901613156565b945050604061354288828901613156565b935050606086013567ffffffffffffffff8111156135635761356261313c565b5b61356f888289016134cd565b925050608086013567ffffffffffffffff8111156135905761358f61313c565b5b61359c888289016134cd565b9150509295509295909350565b5f5f604083850312156135bf576135be613138565b5b5f6135cc85828601613156565b92505060206135dd85828601613156565b9150509250929050565b6135f081613295565b82525050565b5f6020820190506136095f8301846135e7565b92915050565b5f81519050919050565b5f82825260208201905092915050565b5f819050602082019050919050565b5f606083015f83015161364d5f8601826131f7565b5060208301518482036020860152613665828261323e565b9150506040830151848203604086015261367f828261323e565b9150508091505092915050565b5f6136978383613638565b905092915050565b5f602082019050919050565b5f6136b58261360f565b6136bf8185613619565b9350836020820285016136d185613629565b805f5b8581101561370c57848403895281516136ed858261368c565b94506136f88361369f565b925060208a019950506001810190506136d4565b50829750879550505050505092915050565b5f6020820190508181035f83015261373681846136ab565b905092915050565b5f5f5f6060848603121561375557613754613138565b5b5f61376286828701613156565b935050602061377386828701613156565b925050604061378486828701613156565b9150509250925092565b61379781613295565b81146137a1575f5ffd5b50565b5f813590506137b28161378e565b92915050565b5f602082840312156137cd576137cc613138565b5b5f6137da848285016137a4565b91505092915050565b5f5f5f5f608085870312156137fb576137fa613138565b5b5f61380887828801613156565b945050602061381987828801613156565b935050604085013567ffffffffffffffff81111561383a5761383961313c565b5b613846878288016134cd565b925050606085013567ffffffffffffffff8111156138675761386661313c565b5b613873878288016134cd565b91505092959194509250565b5f6020828403121561389457613893613138565b5b5f6138a184828501613156565b91505092915050565b5f8115159050919050565b6138be816138aa565b82525050565b5f6020820190506138d75f8301846138b5565b92915050565b5f67ffffffffffffffff8211156138f7576138f66133d6565b5b602082029050602081019050919050565b5f5ffd5b5f61391e613919846138dd565b613434565b9050808382526020820190506020840283018581111561394157613940613908565b5b835b8181101561396a57806139568882613156565b845260208401935050602081019050613943565b5050509392505050565b5f82601f830112613988576139876133ce565b5b813561399884826020860161390c565b91505092915050565b6139aa816138aa565b81146139b4575f5ffd5b50565b5f813590506139c5816139a1565b92915050565b5f5f5f5f5f5f5f60e0888a0312156139e6576139e5613138565b5b5f6139f38a828b01613156565b975050602088013567ffffffffffffffff811115613a1457613a1361313c565b5b613a208a828b016134cd565b965050604088013567ffffffffffffffff811115613a4157613a4061313c565b5b613a4d8a828b016134cd565b955050606088013567ffffffffffffffff811115613a6e57613a6d61313c565b5b613a7a8a828b01613974565b945050608088013567ffffffffffffffff811115613a9b57613a9a61313c565b5b613aa78a828b01613974565b93505060a0613ab88a828b016139b7565b92505060c0613ac98a828b016139b7565b91505092959891949750929550565b5f5f5f5f5f60a08688031215613af157613af0613138565b5b5f613afe88828901613156565b9550506020613b0f888289016139b7565b945050604086013567ffffffffffffffff811115613b3057613b2f61313c565b5b613b3c888289016134cd565b935050606086013567ffffffffffffffff811115613b5d57613b5c61313c565b5b613b69888289016134cd565b9250506080613b7a888289016137a4565b9150509295509295909350565b5f5f60408385031215613b9d57613b9c613138565b5b5f613baa85828601613156565b9250506020613bbb858286016137a4565b9150509250929050565b5f5f5f5f5f60a08688031215613bde57613bdd613138565b5b5f613beb88828901613156565b9550506020613bfc888289016137a4565b9450506040613c0d88828901613156565b935050606086013567ffffffffffffffff811115613c2e57613c2d61313c565b5b613c3a888289016134cd565b925050608086013567ffffffffffffffff811115613c5b57613c5a61313c565b5b613c67888289016134cd565b9150509295509295909350565b5f5f5f5f5f5f60c08789031215613c8e57613c8d613138565b5b5f613c9b89828a01613156565b9650506020613cac89828a01613156565b955050604087013567ffffffffffffffff811115613ccd57613ccc61313c565b5b613cd989828a016134cd565b945050606087013567ffffffffffffffff811115613cfa57613cf961313c565b5b613d0689828a016134cd565b9350506080613d1789828a016139b7565b92505060a0613d2889828a016139b7565b9150509295509295509295565b5f81519050919050565b5f82825260208201905092915050565b5f819050602082019050919050565b613d67816138aa565b82525050565b5f61012083015f8301518482035f860152613d888282613638565b9150506020830151613d9d60208601826131f7565b506040830151613db060408601826131f7565b506060830151613dc360608601826131f7565b506080830151613dd66080860182613d5e565b5060a0830151613de960a0860182613d5e565b5060c0830151613dfc60c0860182613d5e565b5060e0830151613e0f60e0860182613d5e565b50610100830151613e24610100860182613d5e565b508091505092915050565b5f613e3a8383613d6d565b905092915050565b5f602082019050919050565b5f613e5882613d35565b613e628185613d3f565b935083602082028501613e7485613d4f565b805f5b85811015613eaf5784840389528151613e908582613e2f565b9450613e9b83613e42565b925060208a01995050600181019050613e77565b50829750879550505050505092915050565b5f6020820190508181035f830152613ed98184613e4e565b905092915050565b5f5f5f5f5f5f60c08789031215613efb57613efa613138565b5b5f613f0889828a01613156565b9650506020613f1989828a01613156565b9550506040613f2a89828a01613156565b9450506060613f3b89828a01613156565b935050608087013567ffffffffffffffff811115613f5c57613f5b61313c565b5b613f6889828a016134cd565b92505060a087013567ffffffffffffffff811115613f8957613f8861313c565b5b613f9589828a016134cd565b9150509295509295509295565b7f4e487b71000000000000000000000000000000000000000000000000000000005f52601160045260245ffd5b5f613fd9826130fe565b9150613fe4836130fe565b9250828201905080821115613ffc57613ffb613fa2565b5b92915050565b7f4e487b71000000000000000000000000000000000000000000000000000000005f52603260045260245ffd5b7f4e487b71000000000000000000000000000000000000000000000000000000005f52602260045260245ffd5b5f600282049050600182168061407357607f821691505b6020821081036140865761408561402f565b5b50919050565b5f819050815f5260205f209050919050565b5f6020601f8301049050919050565b5f82821b905092915050565b5f600883026140e87fffffffffffffffffffffffffffffffffffffffffffffffffffffffffffffffff826140ad565b6140f286836140ad565b95508019841693508086168417925050509392505050565b5f819050919050565b5f61412d614128614123846130fe565b61410a565b6130fe565b9050919050565b5f819050919050565b61414683614113565b61415a61415282614134565b8484546140b9565b825550505050565b5f5f905090565b614171614162565b61417c81848461413d565b505050565b5b8181101561419f576141945f82614169565b600181019050614182565b5050565b601f8211156141e4576141b58161408c565b6141be8461409e565b810160208510156141cd578190505b6141e16141d98561409e565b830182614181565b50505b505050565b5f82821c905092915050565b5f6142045f19846008026141e9565b1980831691505092915050565b5f61421c83836141f5565b9150826002028217905092915050565b61423582613206565b67ffffffffffffffff81111561424e5761424d6133d6565b5b614258825461405c565b6142638282856141a3565b5f60209050601f831160018114614294575f8415614282578287015190505b61428c8582614211565b8655506142f3565b601f1984166142a28661408c565b5f5b828110156142c9578489015182556001820191506020850194506020810190506142a4565b868310156142e657848901516142e2601f8916826141f5565b8355505b6001600288020188555050505b505050505050565b5f614305826130fe565b91507fffffffffffffffffffffffffffffffffffffffffffffffffffffffffffffffff820361433757614336613fa2565b5b600182019050919050565b5f6040820190506143555f830185613107565b6143626020830184613107565b9392505050565b5f614373826130fe565b915061437e836130fe565b925082820390508181111561439657614395613fa2565b5b92915050565b5f6143a6826130fe565b91505f82036143b8576143b7613fa2565b5b600182039050919050565b5f6143cd826130fe565b91506143d8836130fe565b92508282026143e6816130fe565b915082820484148315176143fd576143fc613fa2565b5b5092915050565b5f6060820190506144175f830186613107565b6144246020830185613107565b6144316040830184613107565b949350505050565b5f60408201905061444c5f830185613107565b61445960208301846135e7565b9392505050565b7f4e487b71000000000000000000000000000000000000000000000000000000005f52603160045260245ffdfea2646970667358221220f26bf79da8aa9cc24689e5d2670174248653a55516ce7560cb3e86c43e71f66d64736f6c634300081c0033",
  "linkReferences": {},
  "deployedLinkReferences": {},
  "immutableReferences": {},
  "inputSourceName": "project/contracts/AccountConfig.sol",
  "buildInfoId": "solc-0_8_28-7e9513bfecd56b49cee48e64cd091ddf9510b74e"
}