{
  "_format": "hh3-artifact-1",
  "contractName": "AccountConfig",
  "sourceName": "contracts/AccountConfig.sol",
  "abi": [
    {
      "inputs": [],
      "stateMutability": "nonpayable",
      "type": "constructor"
    },
    {
      "inputs": [
        {
          "internalType": "uint256",
          "name": "apiKey",
          "type": "uint256"
        }
      ],
      "name": "AccountDoesNotExist",
      "type": "error"
    },
    {
      "inputs": [
        {
          "internalType": "uint256",
          "name": "apiKey",
          "type": "uint256"
        },
        {
          "internalType": "uint256",
          "name": "groupId",
          "type": "uint256"
        },
        {
          "internalType": "uint256",
          "name": "action",
          "type": "uint256"
        }
      ],
      "name": "ActionDoesNotExist",
      "type": "error"
    },
    {
      "inputs": [
        {
          "internalType": "uint256",
          "name": "apiKey",
          "type": "uint256"
        },
        {
          "internalType": "uint256",
          "name": "groupId",
          "type": "uint256"
        }
      ],
      "name": "GroupDoesNotExist",
      "type": "error"
    },
    {
      "inputs": [
        {
          "internalType": "uint256",
          "name": "apiKey",
          "type": "uint256"
        },
        {
          "internalType": "uint256",
          "name": "amount",
          "type": "uint256"
        }
      ],
      "name": "InsufficientBalance",
      "type": "error"
    },
    {
      "inputs": [
        {
          "internalType": "address",
          "name": "caller",
          "type": "address"
        }
      ],
      "name": "OnlyApiPayerOrPricingOperator",
      "type": "error"
    },
    {
      "inputs": [
        {
          "internalType": "uint256",
          "name": "apiKey",
          "type": "uint256"
        },
        {
          "internalType": "uint256",
          "name": "usageApiKey",
          "type": "uint256"
        }
      ],
      "name": "UsageApiKeyDoesNotExist",
      "type": "error"
    },
    {
      "inputs": [
        {
          "internalType": "uint256",
          "name": "apiKey",
          "type": "uint256"
        },
        {
          "internalType": "uint256",
          "name": "groupId",
          "type": "uint256"
        },
        {
          "internalType": "uint256",
          "name": "Wallet",
          "type": "uint256"
        }
      ],
      "name": "WalletDoesNotExist",
      "type": "error"
    },
    {
      "inputs": [
        {
          "internalType": "uint256",
          "name": "apiKeyHash",
          "type": "uint256"
        }
      ],
      "name": "accountExistsAndIsMutable",
      "outputs": [
        {
          "internalType": "bool",
          "name": "",
          "type": "bool"
        }
      ],
      "stateMutability": "view",
      "type": "function"
    },
    {
      "inputs": [
        {
          "internalType": "uint256",
          "name": "accountApiKeyHash",
          "type": "uint256"
        },
        {
          "internalType": "uint256",
          "name": "groupId",
          "type": "uint256"
        },
        {
          "internalType": "uint256",
          "name": "action",
          "type": "uint256"
        },
        {
          "internalType": "string",
          "name": "name",
          "type": "string"
        },
        {
          "internalType": "string",
          "name": "description",
          "type": "string"
        }
      ],
      "name": "addActionToGroup",
      "outputs": [],
      "stateMutability": "nonpayable",
      "type": "function"
    },
    {
      "inputs": [
        {
          "internalType": "uint256",
          "name": "accountApiKeyHash",
          "type": "uint256"
        },
        {
          "internalType": "uint256",
          "name": "usageApiKeyHash",
          "type": "uint256"
        },
        {
          "internalType": "uint256",
          "name": "expiration",
          "type": "uint256"
        },
        {
          "internalType": "uint256",
          "name": "balance",
          "type": "uint256"
        }
      ],
      "name": "addApiKey",
      "outputs": [],
      "stateMutability": "nonpayable",
      "type": "function"
    },
    {
      "inputs": [
        {
          "internalType": "uint256",
          "name": "accountApiKeyHash",
          "type": "uint256"
        },
        {
          "internalType": "string",
          "name": "name",
          "type": "string"
        },
        {
          "internalType": "string",
          "name": "description",
          "type": "string"
        },
        {
          "internalType": "uint256[]",
          "name": "permitted_actions",
          "type": "uint256[]"
        },
        {
          "internalType": "uint256[]",
          "name": "Wallets",
          "type": "uint256[]"
        },
        {
          "internalType": "bool",
          "name": "all_wallets_permitted",
          "type": "bool"
        },
        {
          "internalType": "bool",
          "name": "all_actions_permitted",
          "type": "bool"
        }
      ],
      "name": "addGroup",
      "outputs": [],
      "stateMutability": "nonpayable",
      "type": "function"
    },
    {
      "inputs": [
        {
          "internalType": "uint256",
          "name": "accountApiKeyHash",
          "type": "uint256"
        },
        {
          "internalType": "uint256",
          "name": "groupId",
          "type": "uint256"
        },
        {
          "internalType": "uint256",
          "name": "walletAddressHash",
          "type": "uint256"
        }
      ],
      "name": "addWalletToGroup",
      "outputs": [],
      "stateMutability": "nonpayable",
      "type": "function"
    },
    {
      "inputs": [],
      "name": "api_payer",
      "outputs": [
        {
          "internalType": "address",
          "name": "",
          "type": "address"
        }
      ],
      "stateMutability": "view",
      "type": "function"
    },
    {
      "inputs": [
        {
          "internalType": "uint256",
          "name": "apiKeyHash",
          "type": "uint256"
        },
        {
          "internalType": "uint256",
          "name": "amount",
          "type": "uint256"
        }
      ],
      "name": "creditApiKey",
      "outputs": [],
      "stateMutability": "nonpayable",
      "type": "function"
    },
    {
      "inputs": [
        {
          "internalType": "uint256",
          "name": "apiKeyHash",
          "type": "uint256"
        },
        {
          "internalType": "uint256",
          "name": "amount",
          "type": "uint256"
        }
      ],
      "name": "debitApiKey",
      "outputs": [],
      "stateMutability": "nonpayable",
      "type": "function"
    },
    {
      "inputs": [
        {
          "internalType": "uint256",
          "name": "pricingItemId",
          "type": "uint256"
        }
      ],
      "name": "getPricing",
      "outputs": [
        {
          "internalType": "uint256",
          "name": "",
          "type": "uint256"
        }
      ],
      "stateMutability": "view",
      "type": "function"
    },
    {
      "inputs": [
        {
          "internalType": "uint256",
          "name": "apiKeyHash",
          "type": "uint256"
        },
        {
          "internalType": "uint256",
          "name": "walletAddressHash",
          "type": "uint256"
        }
      ],
      "name": "getWalletDerivation",
      "outputs": [
        {
          "internalType": "uint256",
          "name": "",
          "type": "uint256"
        }
      ],
      "stateMutability": "view",
      "type": "function"
    },
    {
      "inputs": [
        {
          "internalType": "uint256",
          "name": "accountApiKeyHash",
          "type": "uint256"
        },
        {
          "internalType": "uint256",
          "name": "groupId",
          "type": "uint256"
        },
        {
          "internalType": "uint256",
          "name": "pageNumber",
          "type": "uint256"
        },
        {
          "internalType": "uint256",
          "name": "pageSize",
          "type": "uint256"
        }
      ],
      "name": "listActions",
      "outputs": [
        {
          "components": [
            {
              "internalType": "uint256",
              "name": "id",
              "type": "uint256"
            },
            {
              "internalType": "string",
              "name": "name",
              "type": "string"
            },
            {
              "internalType": "string",
              "name": "description",
              "type": "string"
            }
          ],
          "internalType": "struct LibAccountConfigStorage.Metadata[]",
          "name": "",
          "type": "tuple[]"
        }
      ],
      "stateMutability": "view",
      "type": "function"
    },
    {
      "inputs": [
        {
          "internalType": "uint256",
          "name": "accountApiKeyHash",
          "type": "uint256"
        },
        {
          "internalType": "uint256",
          "name": "pageNumber",
          "type": "uint256"
        },
        {
          "internalType": "uint256",
          "name": "pageSize",
          "type": "uint256"
        }
      ],
      "name": "listApiKeys",
      "outputs": [
        {
          "components": [
            {
              "components": [
                {
                  "internalType": "uint256",
                  "name": "id",
                  "type": "uint256"
                },
                {
                  "internalType": "string",
                  "name": "name",
                  "type": "string"
                },
                {
                  "internalType": "string",
                  "name": "description",
                  "type": "string"
                }
              ],
              "internalType": "struct LibAccountConfigStorage.Metadata",
              "name": "metadata",
              "type": "tuple"
            },
            {
              "internalType": "uint256",
              "name": "apiKeyHash",
              "type": "uint256"
            },
            {
              "internalType": "uint256",
              "name": "expiration",
              "type": "uint256"
            },
            {
              "internalType": "uint256",
              "name": "balance",
              "type": "uint256"
            }
          ],
          "internalType": "struct LibAccountConfigStorage.UsageApiKey[]",
          "name": "",
          "type": "tuple[]"
        }
      ],
      "stateMutability": "view",
      "type": "function"
    },
    {
      "inputs": [
        {
          "internalType": "uint256",
          "name": "accountApiKeyHash",
          "type": "uint256"
        },
        {
          "internalType": "uint256",
          "name": "pageNumber",
          "type": "uint256"
        },
        {
          "internalType": "uint256",
          "name": "pageSize",
          "type": "uint256"
        }
      ],
      "name": "listGroups",
      "outputs": [
        {
          "components": [
            {
              "internalType": "uint256",
              "name": "id",
              "type": "uint256"
            },
            {
              "internalType": "string",
              "name": "name",
              "type": "string"
            },
            {
              "internalType": "string",
              "name": "description",
              "type": "string"
            }
          ],
          "internalType": "struct LibAccountConfigStorage.Metadata[]",
          "name": "",
          "type": "tuple[]"
        }
      ],
      "stateMutability": "view",
      "type": "function"
    },
    {
      "inputs": [
        {
          "internalType": "uint256",
          "name": "accountApiKeyHash",
          "type": "uint256"
        },
        {
          "internalType": "uint256",
          "name": "pageNumber",
          "type": "uint256"
        },
        {
          "internalType": "uint256",
          "name": "pageSize",
          "type": "uint256"
        }
      ],
      "name": "listWallets",
      "outputs": [
        {
          "components": [
            {
              "internalType": "uint256",
              "name": "id",
              "type": "uint256"
            },
            {
              "internalType": "string",
              "name": "name",
              "type": "string"
            },
            {
              "internalType": "string",
              "name": "description",
              "type": "string"
            }
          ],
          "internalType": "struct LibAccountConfigStorage.Metadata[]",
          "name": "",
          "type": "tuple[]"
        }
      ],
      "stateMutability": "view",
      "type": "function"
    },
    {
      "inputs": [
        {
          "internalType": "uint256",
          "name": "accountApiKeyHash",
          "type": "uint256"
        },
        {
          "internalType": "uint256",
          "name": "groupId",
          "type": "uint256"
        },
        {
          "internalType": "uint256",
          "name": "pageNumber",
          "type": "uint256"
        },
        {
          "internalType": "uint256",
          "name": "pageSize",
          "type": "uint256"
        }
      ],
      "name": "listWalletsInGroup",
      "outputs": [
        {
          "components": [
            {
              "internalType": "uint256",
              "name": "id",
              "type": "uint256"
            },
            {
              "internalType": "string",
              "name": "name",
              "type": "string"
            },
            {
              "internalType": "string",
              "name": "description",
              "type": "string"
            }
          ],
          "internalType": "struct LibAccountConfigStorage.Metadata[]",
          "name": "",
          "type": "tuple[]"
        }
      ],
      "stateMutability": "view",
      "type": "function"
    },
    {
      "inputs": [
        {
          "internalType": "uint256",
          "name": "apiKeyHash",
          "type": "uint256"
        },
        {
          "internalType": "bool",
          "name": "managed",
          "type": "bool"
        },
        {
          "internalType": "string",
          "name": "accountName",
          "type": "string"
        },
        {
          "internalType": "string",
          "name": "accountDescription",
          "type": "string"
        },
        {
          "internalType": "address",
          "name": "creatorWalletAddress",
          "type": "address"
        },
        {
          "internalType": "uint256",
          "name": "initialBalance",
          "type": "uint256"
        }
      ],
      "name": "newAccount",
      "outputs": [],
      "stateMutability": "nonpayable",
      "type": "function"
    },
    {
      "inputs": [],
      "name": "nextWalletCount",
      "outputs": [
        {
          "internalType": "uint256",
          "name": "",
          "type": "uint256"
        }
      ],
      "stateMutability": "view",
      "type": "function"
    },
    {
      "inputs": [],
      "name": "pricing_operator",
      "outputs": [
        {
          "internalType": "address",
          "name": "",
          "type": "address"
        }
      ],
      "stateMutability": "view",
      "type": "function"
    },
    {
      "inputs": [
        {
          "internalType": "uint256",
          "name": "accountApiKeyHash",
          "type": "uint256"
        },
        {
          "internalType": "uint256",
          "name": "walletAddressHash",
          "type": "uint256"
        },
        {
          "internalType": "uint256",
          "name": "derivationPath",
          "type": "uint256"
        },
        {
          "internalType": "string",
          "name": "name",
          "type": "string"
        },
        {
          "internalType": "string",
          "name": "description",
          "type": "string"
        }
      ],
      "name": "registerWalletDerivation",
      "outputs": [],
      "stateMutability": "nonpayable",
      "type": "function"
    },
    {
      "inputs": [
        {
          "internalType": "uint256",
          "name": "accountApiKeyHash",
          "type": "uint256"
        },
        {
          "internalType": "uint256",
          "name": "groupId",
          "type": "uint256"
        },
        {
          "internalType": "uint256",
          "name": "action",
          "type": "uint256"
        }
      ],
      "name": "removeActionFromGroup",
      "outputs": [],
      "stateMutability": "nonpayable",
      "type": "function"
    },
    {
      "inputs": [
        {
          "internalType": "uint256",
          "name": "accountApiKeyHash",
          "type": "uint256"
        },
        {
          "internalType": "uint256",
          "name": "usageApiKeyHash",
          "type": "uint256"
        }
      ],
      "name": "removeUsageApiKey",
      "outputs": [],
      "stateMutability": "nonpayable",
      "type": "function"
    },
    {
      "inputs": [
        {
          "internalType": "uint256",
          "name": "accountApiKeyHash",
          "type": "uint256"
        },
        {
          "internalType": "uint256",
          "name": "groupId",
          "type": "uint256"
        },
        {
          "internalType": "uint256",
          "name": "walletAddressHash",
          "type": "uint256"
        }
      ],
      "name": "removeWalletFromGroup",
      "outputs": [],
      "stateMutability": "nonpayable",
      "type": "function"
    },
    {
      "inputs": [
        {
          "internalType": "uint256",
          "name": "pricingItemId",
          "type": "uint256"
        },
        {
          "internalType": "uint256",
          "name": "price",
          "type": "uint256"
        }
      ],
      "name": "setPricing",
      "outputs": [],
      "stateMutability": "nonpayable",
      "type": "function"
    },
    {
      "inputs": [
        {
          "internalType": "address",
          "name": "newPricingOperator",
          "type": "address"
        }
      ],
      "name": "setPricingOperator",
      "outputs": [],
      "stateMutability": "nonpayable",
      "type": "function"
    },
    {
      "inputs": [
        {
          "internalType": "uint256",
          "name": "accountApiKeyHash",
          "type": "uint256"
        },
        {
          "internalType": "uint256",
          "name": "actionHash",
          "type": "uint256"
        },
        {
          "internalType": "uint256",
          "name": "groupId",
          "type": "uint256"
        },
        {
          "internalType": "string",
          "name": "name",
          "type": "string"
        },
        {
          "internalType": "string",
          "name": "description",
          "type": "string"
        }
      ],
      "name": "updateActionMetadata",
      "outputs": [],
      "stateMutability": "nonpayable",
      "type": "function"
    },
    {
      "inputs": [
        {
          "internalType": "uint256",
          "name": "accountApiKeyHash",
          "type": "uint256"
        },
        {
          "internalType": "uint256",
          "name": "groupId",
          "type": "uint256"
        },
        {
          "internalType": "string",
          "name": "name",
          "type": "string"
        },
        {
          "internalType": "string",
          "name": "description",
          "type": "string"
        },
        {
          "internalType": "bool",
          "name": "all_wallets_permitted",
          "type": "bool"
        },
        {
          "internalType": "bool",
          "name": "all_actions_permitted",
          "type": "bool"
        }
      ],
      "name": "updateGroup",
      "outputs": [],
      "stateMutability": "nonpayable",
      "type": "function"
    },
    {
      "inputs": [
        {
          "internalType": "uint256",
          "name": "accountApiKeyHash",
          "type": "uint256"
        },
        {
          "internalType": "uint256",
          "name": "usageApiKeyHash",
          "type": "uint256"
        },
        {
          "internalType": "string",
          "name": "name",
          "type": "string"
        },
        {
          "internalType": "string",
          "name": "description",
          "type": "string"
        }
      ],
      "name": "updateUsageApiKeyMetadata",
      "outputs": [],
      "stateMutability": "nonpayable",
      "type": "function"
    }
  ],
  "bytecode": "0x608060405234801561000f575f5ffd5b5061001e61002360201b60201c565b610214565b5f61003261017060201b60201c565b90505f73ffffffffffffffffffffffffffffffffffffffff16816004015f9054906101000a900473ffffffffffffffffffffffffffffffffffffffff1673ffffffffffffffffffffffffffffffffffffffff16146100c5576040517f08c379a00000000000000000000000000000000000000000000000000000000081526004016100bc906101f6565b60405180910390fd5b33816004015f6101000a81548173ffffffffffffffffffffffffffffffffffffffff021916908373ffffffffffffffffffffffffffffffffffffffff16021790555033816005015f6101000a81548173ffffffffffffffffffffffffffffffffffffffff021916908373ffffffffffffffffffffffffffffffffffffffff160217905550600181600601819055506001816003015f600181526020019081526020015f208190555050565b5f5f7f171def12e82c8f3351e4c79b7854be19ad60a75b888f74b9660c07cd7461963390508091505090565b5f82825260208201905092915050565b7f616c726561647920696e697469616c697a6564000000000000000000000000005f82015250565b5f6101e060138361019c565b91506101eb826101ac565b602082019050919050565b5f6020820190508181035f83015261020d816101d4565b9050919050565b613625806102215f395ff3fe608060405234801561000f575f5ffd5b50600436106101a7575f3560e01c806379b8e691116100f7578063c12f1a4211610095578063ca05588a1161006f578063ca05588a146104c1578063dbb17a0b146104dd578063e6ad2928146104f9578063f75c8b2d14610515576101a7565b8063c12f1a4214610445578063c5f5b98414610475578063c704668c14610491576101a7565b806396a7cc54116100d157806396a7cc54146103d5578063a6b6b672146103f1578063bac710ea1461040d578063bd9aed5114610429576101a7565b806379b8e691146103575780637af361ef146103875780638845698c146103b7576101a7565b8063542970ed116101645780636a3d77a91161013e5780636a3d77a9146102d35780636e06ac9c146102ef578063719fac431461030b578063749e4d071461033b576101a7565b8063542970ed1461026b5780635d861c721461029b578063683f2de8146102b7576101a7565b8063291ff1ea146101ab5780632fa92e41146101db57806340b4d453146101f75780634705161e1461021357806349717935146102315780634cd882ac1461024d575b5f5ffd5b6101c560048036038101906101c09190612629565b610545565b6040516101d2919061281b565b60405180910390f35b6101f560048036038101906101f09190612967565b61081e565b005b610211600480360381019061020c9190612a16565b6108f5565b005b61021b6109d9565b6040516102289190612a63565b60405180910390f35b61024b60048036038101906102469190612629565b6109eb565b005b610255610a89565b6040516102629190612abb565b60405180910390f35b61028560048036038101906102809190612629565b610aba565b604051610292919061281b565b60405180910390f35b6102b560048036038101906102b09190612ad4565b610d93565b005b6102d160048036038101906102cc9190612a16565b610e14565b005b6102ed60048036038101906102e89190612b24565b610ead565b005b61030960048036038101906103049190612ad4565b610f37565b005b61032560048036038101906103209190612bc0565b610f8d565b6040516103329190612c05565b60405180910390f35b61035560048036038101906103509190612d0c565b610fa7565b005b610371600480360381019061036c9190612a16565b611131565b60405161037e9190612a63565b60405180910390f35b6103a1600480360381019061039c9190612ad4565b61119a565b6040516103ae919061281b565b60405180910390f35b6103bf61142b565b6040516103cc9190612abb565b60405180910390f35b6103ef60048036038101906103ea9190612e19565b61145c565b005b61040b60048036038101906104069190612967565b611501565b005b61042760048036038101906104229190612ad4565b61157d565b005b610443600480360381019061043e9190612f04565b6115d2565b005b61045f600480360381019061045a9190612bc0565b6116d6565b60405161046c9190612a63565b60405180910390f35b61048f600480360381019061048a9190612a16565b6116f9565b005b6104ab60048036038101906104a69190612ad4565b61173b565b6040516104b891906130e0565b60405180910390f35b6104db60048036038101906104d69190612a16565b6119ff565b005b6104f760048036038101906104f29190612967565b611a2b565b005b610513600480360381019061050e9190613100565b611b41565b005b61052f600480360381019061052a9190612ad4565b611b96565b60405161053c919061281b565b60405180910390f35b6060610559610552611e47565b8633611e73565b61056b610564611e47565b8686611ec4565b5f610574611e47565b90505f815f015f8881526020019081526020015f2090505f81600f015f8881526020019081526020015f2090506105ad81600501611f17565b8511156105c6576105c081600501611f17565b94505f95505b5f85876105d39190613158565b90505f86826105e29190613199565b90506105f083600501611f17565b8111156106065761060383600501611f17565b90505b5f828261061391906131cc565b90505f8167ffffffffffffffff8111156106305761062f612843565b5b60405190808252806020026020018201604052801561066957816020015b61065661259a565b81526020019060019003908161064e5790505b5090505f5f90505b8281101561080b57866016015f61069f838861068d9190613199565b89600501611f2a90919063ffffffff16565b81526020019081526020015f206040518060600160405290815f82015481526020016001820180546106d09061322c565b80601f01602080910402602001604051908101604052809291908181526020018280546106fc9061322c565b80156107475780601f1061071e57610100808354040283529160200191610747565b820191905f5260205f20905b81548152906001019060200180831161072a57829003601f168201915b505050505081526020016002820180546107609061322c565b80601f016020809104026020016040519081016040528092919081815260200182805461078c9061322c565b80156107d75780601f106107ae576101008083540402835291602001916107d7565b820191905f5260205f20905b8154815290600101906020018083116107ba57829003601f168201915b5050505050815250508282815181106107f3576107f261325c565b5b60200260200101819052508080600101915050610671565b5080975050505050505050949350505050565b6108288585611f41565b5f610831611e47565b90505f815f015f8881526020019081526020015f2090506108708582600f015f8981526020019081526020015f20600301611f6090919063ffffffff16565b5084816012015f8781526020019081526020015f205f018190555083816012015f8781526020019081526020015f2060010190816108ae9190613429565b5082816012015f8781526020019081526020015f2060020190816108d29190613429565b50806018015f8154809291906108e7906134f8565b919050555050505050505050565b6108fe33611f77565b61090782611f8b565b5f610910611e47565b90505f816001015f8581526020019081526020015f205490505f825f015f8381526020019081526020015f2090505f858260030160030154146109655781600c015f8781526020019081526020015f2061096a565b816003015b905084816005015410156109b75785856040517fcf4791810000000000000000000000000000000000000000000000000000000081526004016109ae92919061353f565b60405180910390fd5b84816005015f8282546109ca91906131cc565b92505081905550505050505050565b5f6109e2611e47565b60060154905090565b6109f484611f8b565b5f6109fd611e47565b90505f815f015f8781526020019081526020015f20600c015f8681526020019081526020015f209050848160030181905550838160040181905550828160050181905550610a6885835f015f8981526020019081526020015f20600a01611f6090919063ffffffff16565b5085826001015f8781526020019081526020015f2081905550505050505050565b5f610a92611e47565b6005015f9054906101000a900473ffffffffffffffffffffffffffffffffffffffff16905090565b6060610ace610ac7611e47565b8633611e73565b610ae0610ad9611e47565b8686611ec4565b5f610ae9611e47565b90505f815f015f8881526020019081526020015f2090505f81600f015f8881526020019081526020015f209050610b2281600301611f17565b851115610b3b57610b3581600301611f17565b94505f95505b5f8587610b489190613158565b90505f8682610b579190613199565b9050610b6583600301611f17565b811115610b7b57610b7883600301611f17565b90505b5f8282610b8891906131cc565b90505f8167ffffffffffffffff811115610ba557610ba4612843565b5b604051908082528060200260200182016040528015610bde57816020015b610bcb61259a565b815260200190600190039081610bc35790505b5090505f5f90505b82811015610d8057866012015f610c148388610c029190613199565b89600301611f2a90919063ffffffff16565b81526020019081526020015f206040518060600160405290815f8201548152602001600182018054610c459061322c565b80601f0160208091040260200160405190810160405280929190818152602001828054610c719061322c565b8015610cbc5780601f10610c9357610100808354040283529160200191610cbc565b820191905f5260205f20905b815481529060010190602001808311610c9f57829003601f168201915b50505050508152602001600282018054610cd59061322c565b80601f0160208091040260200160405190810160405280929190818152602001828054610d019061322c565b8015610d4c5780601f10610d2357610100808354040283529160200191610d4c565b820191905f5260205f20905b815481529060010190602001808311610d2f57829003601f168201915b505050505081525050828281518110610d6857610d6761325c565b5b60200260200101819052508080600101915050610be6565b5080975050505050505050949350505050565b610d9e838383611fa0565b5f610da7611e47565b90505f815f015f8681526020019081526020015f209050610de68382600f015f8781526020019081526020015f2060030161202f90919063ffffffff16565b505f81601801541115610e0d57806018015f815480929190610e0790613566565b91905055505b5050505050565b610e1d33611f77565b610e2682611f8b565b5f610e2f611e47565b90505f816001015f8581526020019081526020015f205490505f825f015f8381526020019081526020015f2090505f85826003016003015414610e845781600c015f8781526020019081526020015f20610e89565b816003015b905084816005015f828254610e9e9190613199565b92505081905550505050505050565b610eb78484612046565b5f610ec0611e47565b905082815f015f8781526020019081526020015f20600c015f8681526020019081526020015f205f016001019081610ef89190613429565b5081815f015f8781526020019081526020015f20600c015f8681526020019081526020015f205f016002019081610f2f9190613429565b505050505050565b610f428383836120c3565b5f610f4b611e47565b9050610f8682825f015f8781526020019081526020015f20600f015f8681526020019081526020015f2060050161202f90919063ffffffff16565b5050505050565b5f610fa0610f99611e47565b8333612152565b9050919050565b610fb087611f8b565b5f610fb9611e47565b90505f815f015f8a81526020019081526020015f209050610fea816019015482600d01611f6090919063ffffffff16565b505f81600f015f836019015481526020019081526020015f2090508160190154815f015f018190555088815f0160010190816110269190613429565b5087815f01600201908161103a9190613429565b505f5f90505b87518110156110875761107988828151811061105f5761105e61325c565b5b602002602001015183600301611f6090919063ffffffff16565b508080600101915050611040565b505f5f90505b86518110156110d4576110c68782815181106110ac576110ab61325c565b5b602002602001015183600501611f6090919063ffffffff16565b50808060010191505061108d565b5084816007015f6101000a81548160ff021916908315150217905550838160070160016101000a81548160ff021916908315150217905550816019015f815480929190611120906134f8565b919050555050505050505050505050565b5f61114461113d611e47565b8433611e73565b5f61114d611e47565b90505f816001015f8681526020019081526020015f205490505f825f015f8381526020019081526020015f209050806015015f8681526020019081526020015f2054935050505092915050565b60606111ae6111a7611e47565b8533611e73565b5f6111b7611e47565b90505f815f015f8781526020019081526020015f20905080601701548411156111e557806017015493505f94505b5f84866111f29190613158565b90505f85826112019190613199565b9050826017015481111561121757826017015490505b5f828261122491906131cc565b90505f8167ffffffffffffffff81111561124157611240612843565b5b60405190808252806020026020018201604052801561127a57816020015b61126761259a565b81526020019060019003908161125f5790505b5090505f5f90505b8281101561141a57856016015f876014015f84896112a09190613199565b81526020019081526020015f205481526020019081526020015f206040518060600160405290815f82015481526020016001820180546112df9061322c565b80601f016020809104026020016040519081016040528092919081815260200182805461130b9061322c565b80156113565780601f1061132d57610100808354040283529160200191611356565b820191905f5260205f20905b81548152906001019060200180831161133957829003601f168201915b5050505050815260200160028201805461136f9061322c565b80601f016020809104026020016040519081016040528092919081815260200182805461139b9061322c565b80156113e65780601f106113bd576101008083540402835291602001916113e6565b820191905f5260205f20905b8154815290600101906020018083116113c957829003601f168201915b5050505050815250508282815181106114025761140161325c565b5b60200260200101819052508080600101915050611282565b508096505050505050509392505050565b5f611434611e47565b6004015f9054906101000a900473ffffffffffffffffffffffffffffffffffffffff16905090565b6114668686611f41565b5f61146f611e47565b90505f815f015f8981526020019081526020015f20600f015f8881526020019081526020015f20905085815f0160010190816114ab9190613429565b5084815f0160020190816114bf9190613429565b5083816007015f6101000a81548160ff021916908315150217905550828160070160016101000a81548160ff0219169083151502179055505050505050505050565b61150c858486611fa0565b5f611515611e47565b90505f815f015f8881526020019081526020015f20905083816012015f8881526020019081526020015f20600101908161154f9190613429565b5082816012015f8881526020019081526020015f2060020190816115739190613429565b5050505050505050565b6115878383611f41565b5f611590611e47565b90506115cb82825f015f8781526020019081526020015f20600f015f8681526020019081526020015f20600501611f6090919063ffffffff16565b5050505050565b5f6115db611e47565b90505f815f015f8981526020019081526020015f20905086816013015f6101000a81548160ff02191690831515021790555083816009015f6101000a81548173ffffffffffffffffffffffffffffffffffffffff021916908373ffffffffffffffffffffffffffffffffffffffff16021790555087815f015f018190555085815f01600101908161166c9190613429565b5084815f0160020190816116809190613429565b508781600301600301819055506312cc03004261169d9190613199565b816003016004018190555082816003016005018190555087826001015f8a81526020019081526020015f20819055505050505050505050565b5f6116df611e47565b6003015f8381526020019081526020015f20549050919050565b6117038282612046565b5f61170c611e47565b905061173582825f015f8681526020019081526020015f20600a0161202f90919063ffffffff16565b50505050565b606061174f611748611e47565b8533611e73565b5f611758611e47565b90505f815f015f8781526020019081526020015f2090505f61177c82600a01611f17565b90508085111561178d578094505f95505b5f858761179a9190613158565b90505f86826117a99190613199565b9050828111156117b7578290505b5f82826117c491906131cc565b90505f8167ffffffffffffffff8111156117e1576117e0612843565b5b60405190808252806020026020018201604052801561181a57816020015b6118076125ba565b8152602001906001900390816117ff5790505b5090505f5f90505b828110156119ed5786600c015f611850838861183e9190613199565b8a600a01611f2a90919063ffffffff16565b81526020019081526020015f206040518060800160405290815f82016040518060600160405290815f82015481526020016001820180546118909061322c565b80601f01602080910402602001604051908101604052809291908181526020018280546118bc9061322c565b80156119075780601f106118de57610100808354040283529160200191611907565b820191905f5260205f20905b8154815290600101906020018083116118ea57829003601f168201915b505050505081526020016002820180546119209061322c565b80601f016020809104026020016040519081016040528092919081815260200182805461194c9061322c565b80156119975780601f1061196e57610100808354040283529160200191611997565b820191905f5260205f20905b81548152906001019060200180831161197a57829003601f168201915b505050505081525050815260200160038201548152602001600482015481526020016005820154815250508282815181106119d5576119d461325c565b5b60200260200101819052508080600101915050611822565b50809750505050505050509392505050565b611a0833611f77565b80611a11611e47565b6003015f8481526020019081526020015f20819055505050565b611a3485611f8b565b5f611a3d611e47565b90505f815f015f8881526020019081526020015f20905084816015015f8881526020019081526020015f208190555085816016015f8881526020019081526020015f205f018190555083816016015f8881526020019081526020015f206001019081611aa99190613429565b5082816016015f8881526020019081526020015f206002019081611acd9190613429565b5085816014015f836017015481526020019081526020015f208190555085826002015f846006015481526020019081526020015f2081905550806017015f815480929190611b1a906134f8565b9190505550816006015f815480929190611b33906134f8565b919050555050505050505050565b611b4a33611f77565b80611b53611e47565b6005015f6101000a81548173ffffffffffffffffffffffffffffffffffffffff021916908373ffffffffffffffffffffffffffffffffffffffff16021790555050565b6060611baa611ba3611e47565b8533611e73565b5f611bb3611e47565b90505f815f015f8781526020019081526020015f209050611bd681600d01611f17565b841115611bef57611be981600d01611f17565b93505f94505b5f8486611bfc9190613158565b90505f8582611c0b9190613199565b9050611c1983600d01611f17565b811115611c2f57611c2c83600d01611f17565b90505b5f8282611c3c91906131cc565b90505f8167ffffffffffffffff811115611c5957611c58612843565b5b604051908082528060200260200182016040528015611c9257816020015b611c7f61259a565b815260200190600190039081611c775790505b5090505f5f90505b82811015611e365785600f015f611cc88388611cb69190613199565b89600d01611f2a90919063ffffffff16565b81526020019081526020015f205f016040518060600160405290815f8201548152602001600182018054611cfb9061322c565b80601f0160208091040260200160405190810160405280929190818152602001828054611d279061322c565b8015611d725780601f10611d4957610100808354040283529160200191611d72565b820191905f5260205f20905b815481529060010190602001808311611d5557829003601f168201915b50505050508152602001600282018054611d8b9061322c565b80601f0160208091040260200160405190810160405280929190818152602001828054611db79061322c565b8015611e025780601f10611dd957610100808354040283529160200191611e02565b820191905f5260205f20905b815481529060010190602001808311611de557829003601f168201915b505050505081525050828281518110611e1e57611e1d61325c565b5b60200260200101819052508080600101915050611c9a565b508096505050505050509392505050565b5f5f7f171def12e82c8f3351e4c79b7854be19ad60a75b888f74b9660c07cd7461963390508091505090565b611e7e838383612152565b611ebf57816040517fd4a84737000000000000000000000000000000000000000000000000000000008152600401611eb69190612a63565b60405180910390fd5b505050565b611ecf838383612297565b611f125781816040517f931a85b3000000000000000000000000000000000000000000000000000000008152600401611f0992919061353f565b60405180910390fd5b505050565b5f611f23825f016122d6565b9050919050565b5f611f37835f01836122e5565b5f1c905092915050565b611f4a82611f8b565b611f5c611f55611e47565b8383611ec4565b5050565b5f611f6f835f01835f1b61230c565b905092915050565b611f88611f82611e47565b82612373565b50565b611f9d611f96611e47565b8233611e73565b50565b5f611fa9611e47565b9050611fe482825f015f8781526020019081526020015f20600f015f8681526020019081526020015f2060030161246790919063ffffffff16565b612029578383836040517fef25d02d0000000000000000000000000000000000000000000000000000000081526004016120209392919061358d565b60405180910390fd5b50505050565b5f61203e835f01835f1b61247e565b905092915050565b5f61204f611e47565b905081815f015f8581526020019081526020015f20600c015f8481526020019081526020015f2060030154146120be5782826040517f748e712a0000000000000000000000000000000000000000000000000000000081526004016120b592919061353f565b60405180910390fd5b505050565b5f6120cc611e47565b905061210782825f015f8781526020019081526020015f20600f015f8681526020019081526020015f2060050161246790919063ffffffff16565b61214c578383836040517f791678580000000000000000000000000000000000000000000000000000000081526004016121439392919061358d565b60405180910390fd5b50505050565b5f5f846001015f8581526020019081526020015f205403612175575f9050612290565b5f846001015f8581526020019081526020015f205490505f855f015f8381526020019081526020015f20905081815f015f0154146121b7575f92505050612290565b856004015f9054906101000a900473ffffffffffffffffffffffffffffffffffffffff1673ffffffffffffffffffffffffffffffffffffffff168473ffffffffffffffffffffffffffffffffffffffff16148015612229575060011515816013015f9054906101000a900460ff161515145b1561223957600192505050612290565b8373ffffffffffffffffffffffffffffffffffffffff16816009015f9054906101000a900473ffffffffffffffffffffffffffffffffffffffff1673ffffffffffffffffffffffffffffffffffffffff1614925050505b9392505050565b5f5f845f015f8581526020019081526020015f2090505f81600f015f8581526020019081526020015f20905083815f015f015414925050509392505050565b5f815f01805490509050919050565b5f825f0182815481106122fb576122fa61325c565b5b905f5260205f200154905092915050565b5f612317838361257a565b61236957825f0182908060018154018082558091505060019003905f5260205f20015f9091909190915055825f0180549050836001015f8481526020019081526020015f20819055506001905061236d565b5f90505b92915050565b816004015f9054906101000a900473ffffffffffffffffffffffffffffffffffffffff1673ffffffffffffffffffffffffffffffffffffffff168173ffffffffffffffffffffffffffffffffffffffff16141580156124215750816005015f9054906101000a900473ffffffffffffffffffffffffffffffffffffffff1673ffffffffffffffffffffffffffffffffffffffff168173ffffffffffffffffffffffffffffffffffffffff1614155b1561246357806040517f9ed88e0700000000000000000000000000000000000000000000000000000000815260040161245a9190612abb565b60405180910390fd5b5050565b5f612476835f01835f1b61257a565b905092915050565b5f5f836001015f8481526020019081526020015f205490505f811461256f575f6001826124ab91906131cc565b90505f6001865f01805490506124c191906131cc565b9050808214612527575f865f0182815481106124e0576124df61325c565b5b905f5260205f200154905080875f0184815481106125015761250061325c565b5b905f5260205f20018190555083876001015f8381526020019081526020015f2081905550505b855f0180548061253a576125396135c2565b5b600190038181905f5260205f20015f90559055856001015f8681526020019081526020015f205f905560019350505050612574565b5f9150505b92915050565b5f5f836001015f8481526020019081526020015f20541415905092915050565b60405180606001604052805f815260200160608152602001606081525090565b60405180608001604052806125cd61259a565b81526020015f81526020015f81526020015f81525090565b5f604051905090565b5f5ffd5b5f5ffd5b5f819050919050565b612608816125f6565b8114612612575f5ffd5b50565b5f81359050612623816125ff565b92915050565b5f5f5f5f60808587031215612641576126406125ee565b5b5f61264e87828801612615565b945050602061265f87828801612615565b935050604061267087828801612615565b925050606061268187828801612615565b91505092959194509250565b5f81519050919050565b5f82825260208201905092915050565b5f819050602082019050919050565b6126bf816125f6565b82525050565b5f81519050919050565b5f82825260208201905092915050565b8281835e5f83830152505050565b5f601f19601f8301169050919050565b5f612707826126c5565b61271181856126cf565b93506127218185602086016126df565b61272a816126ed565b840191505092915050565b5f606083015f83015161274a5f8601826126b6565b506020830151848203602086015261276282826126fd565b9150506040830151848203604086015261277c82826126fd565b9150508091505092915050565b5f6127948383612735565b905092915050565b5f602082019050919050565b5f6127b28261268d565b6127bc8185612697565b9350836020820285016127ce856126a7565b805f5b8581101561280957848403895281516127ea8582612789565b94506127f58361279c565b925060208a019950506001810190506127d1565b50829750879550505050505092915050565b5f6020820190508181035f83015261283381846127a8565b905092915050565b5f5ffd5b5f5ffd5b7f4e487b71000000000000000000000000000000000000000000000000000000005f52604160045260245ffd5b612879826126ed565b810181811067ffffffffffffffff8211171561289857612897612843565b5b80604052505050565b5f6128aa6125e5565b90506128b68282612870565b919050565b5f67ffffffffffffffff8211156128d5576128d4612843565b5b6128de826126ed565b9050602081019050919050565b828183375f83830152505050565b5f61290b612906846128bb565b6128a1565b9050828152602081018484840111156129275761292661283f565b5b6129328482856128eb565b509392505050565b5f82601f83011261294e5761294d61283b565b5b813561295e8482602086016128f9565b91505092915050565b5f5f5f5f5f60a086880312156129805761297f6125ee565b5b5f61298d88828901612615565b955050602061299e88828901612615565b94505060406129af88828901612615565b935050606086013567ffffffffffffffff8111156129d0576129cf6125f2565b5b6129dc8882890161293a565b925050608086013567ffffffffffffffff8111156129fd576129fc6125f2565b5b612a098882890161293a565b9150509295509295909350565b5f5f60408385031215612a2c57612a2b6125ee565b5b5f612a3985828601612615565b9250506020612a4a85828601612615565b9150509250929050565b612a5d816125f6565b82525050565b5f602082019050612a765f830184612a54565b92915050565b5f73ffffffffffffffffffffffffffffffffffffffff82169050919050565b5f612aa582612a7c565b9050919050565b612ab581612a9b565b82525050565b5f602082019050612ace5f830184612aac565b92915050565b5f5f5f60608486031215612aeb57612aea6125ee565b5b5f612af886828701612615565b9350506020612b0986828701612615565b9250506040612b1a86828701612615565b9150509250925092565b5f5f5f5f60808587031215612b3c57612b3b6125ee565b5b5f612b4987828801612615565b9450506020612b5a87828801612615565b935050604085013567ffffffffffffffff811115612b7b57612b7a6125f2565b5b612b878782880161293a565b925050606085013567ffffffffffffffff811115612ba857612ba76125f2565b5b612bb48782880161293a565b91505092959194509250565b5f60208284031215612bd557612bd46125ee565b5b5f612be284828501612615565b91505092915050565b5f8115159050919050565b612bff81612beb565b82525050565b5f602082019050612c185f830184612bf6565b92915050565b5f67ffffffffffffffff821115612c3857612c37612843565b5b602082029050602081019050919050565b5f5ffd5b5f612c5f612c5a84612c1e565b6128a1565b90508083825260208201905060208402830185811115612c8257612c81612c49565b5b835b81811015612cab5780612c978882612615565b845260208401935050602081019050612c84565b5050509392505050565b5f82601f830112612cc957612cc861283b565b5b8135612cd9848260208601612c4d565b91505092915050565b612ceb81612beb565b8114612cf5575f5ffd5b50565b5f81359050612d0681612ce2565b92915050565b5f5f5f5f5f5f5f60e0888a031215612d2757612d266125ee565b5b5f612d348a828b01612615565b975050602088013567ffffffffffffffff811115612d5557612d546125f2565b5b612d618a828b0161293a565b965050604088013567ffffffffffffffff811115612d8257612d816125f2565b5b612d8e8a828b0161293a565b955050606088013567ffffffffffffffff811115612daf57612dae6125f2565b5b612dbb8a828b01612cb5565b945050608088013567ffffffffffffffff811115612ddc57612ddb6125f2565b5b612de88a828b01612cb5565b93505060a0612df98a828b01612cf8565b92505060c0612e0a8a828b01612cf8565b91505092959891949750929550565b5f5f5f5f5f5f60c08789031215612e3357612e326125ee565b5b5f612e4089828a01612615565b9650506020612e5189828a01612615565b955050604087013567ffffffffffffffff811115612e7257612e716125f2565b5b612e7e89828a0161293a565b945050606087013567ffffffffffffffff811115612e9f57612e9e6125f2565b5b612eab89828a0161293a565b9350506080612ebc89828a01612cf8565b92505060a0612ecd89828a01612cf8565b9150509295509295509295565b612ee381612a9b565b8114612eed575f5ffd5b50565b5f81359050612efe81612eda565b92915050565b5f5f5f5f5f5f60c08789031215612f1e57612f1d6125ee565b5b5f612f2b89828a01612615565b9650506020612f3c89828a01612cf8565b955050604087013567ffffffffffffffff811115612f5d57612f5c6125f2565b5b612f6989828a0161293a565b945050606087013567ffffffffffffffff811115612f8a57612f896125f2565b5b612f9689828a0161293a565b9350506080612fa789828a01612ef0565b92505060a0612fb889828a01612615565b9150509295509295509295565b5f81519050919050565b5f82825260208201905092915050565b5f819050602082019050919050565b5f608083015f8301518482035f8601526130088282612735565b915050602083015161301d60208601826126b6565b50604083015161303060408601826126b6565b50606083015161304360608601826126b6565b508091505092915050565b5f6130598383612fee565b905092915050565b5f602082019050919050565b5f61307782612fc5565b6130818185612fcf565b93508360208202850161309385612fdf565b805f5b858110156130ce57848403895281516130af858261304e565b94506130ba83613061565b925060208a01995050600181019050613096565b50829750879550505050505092915050565b5f6020820190508181035f8301526130f8818461306d565b905092915050565b5f60208284031215613115576131146125ee565b5b5f61312284828501612ef0565b91505092915050565b7f4e487b71000000000000000000000000000000000000000000000000000000005f52601160045260245ffd5b5f613162826125f6565b915061316d836125f6565b925082820261317b816125f6565b915082820484148315176131925761319161312b565b5b5092915050565b5f6131a3826125f6565b91506131ae836125f6565b92508282019050808211156131c6576131c561312b565b5b92915050565b5f6131d6826125f6565b91506131e1836125f6565b92508282039050818111156131f9576131f861312b565b5b92915050565b7f4e487b71000000000000000000000000000000000000000000000000000000005f52602260045260245ffd5b5f600282049050600182168061324357607f821691505b602082108103613256576132556131ff565b5b50919050565b7f4e487b71000000000000000000000000000000000000000000000000000000005f52603260045260245ffd5b5f819050815f5260205f209050919050565b5f6020601f8301049050919050565b5f82821b905092915050565b5f600883026132e57fffffffffffffffffffffffffffffffffffffffffffffffffffffffffffffffff826132aa565b6132ef86836132aa565b95508019841693508086168417925050509392505050565b5f819050919050565b5f61332a613325613320846125f6565b613307565b6125f6565b9050919050565b5f819050919050565b61334383613310565b61335761334f82613331565b8484546132b6565b825550505050565b5f5f905090565b61336e61335f565b61337981848461333a565b505050565b5b8181101561339c576133915f82613366565b60018101905061337f565b5050565b601f8211156133e1576133b281613289565b6133bb8461329b565b810160208510156133ca578190505b6133de6133d68561329b565b83018261337e565b50505b505050565b5f82821c905092915050565b5f6134015f19846008026133e6565b1980831691505092915050565b5f61341983836133f2565b9150826002028217905092915050565b613432826126c5565b67ffffffffffffffff81111561344b5761344a612843565b5b613455825461322c565b6134608282856133a0565b5f60209050601f831160018114613491575f841561347f578287015190505b613489858261340e565b8655506134f0565b601f19841661349f86613289565b5f5b828110156134c6578489015182556001820191506020850194506020810190506134a1565b868310156134e357848901516134df601f8916826133f2565b8355505b6001600288020188555050505b505050505050565b5f613502826125f6565b91507fffffffffffffffffffffffffffffffffffffffffffffffffffffffffffffffff82036135345761353361312b565b5b600182019050919050565b5f6040820190506135525f830185612a54565b61355f6020830184612a54565b9392505050565b5f613570826125f6565b91505f82036135825761358161312b565b5b600182039050919050565b5f6060820190506135a05f830186612a54565b6135ad6020830185612a54565b6135ba6040830184612a54565b949350505050565b7f4e487b71000000000000000000000000000000000000000000000000000000005f52603160045260245ffdfea26469706673582212207ce983c3d8416c9eea09cab496c6ffc1e0b5febe9b7fc6d9d487f22a5e801e6e64736f6c634300081c0033",
  "linkReferences": {},
  "deployedLinkReferences": {},
  "immutableReferences": {},
  "inputSourceName": "project/contracts/AccountConfig.sol",
  "buildInfoId": "solc-0_8_28-083b2e92bf2dd93bc0242e63fd31e13653db0492"
}