{
  "_format": "hh3-artifact-1",
  "contractName": "AccountConfig",
  "sourceName": "contracts/AccountConfig.sol",
  "abi": [
    {
      "inputs": [],
      "stateMutability": "nonpayable",
      "type": "constructor"
    },
    {
      "inputs": [
        {
          "internalType": "uint256",
          "name": "apiKeyHash",
          "type": "uint256"
        }
      ],
      "name": "AccountAlreadyExists",
      "type": "error"
    },
    {
      "inputs": [
        {
          "internalType": "uint256",
          "name": "apiKeyHash",
          "type": "uint256"
        }
      ],
      "name": "AccountDoesNotExist",
      "type": "error"
    },
    {
      "inputs": [
        {
          "internalType": "uint256",
          "name": "apiKeyHash",
          "type": "uint256"
        },
        {
          "internalType": "uint256",
          "name": "groupId",
          "type": "uint256"
        },
        {
          "internalType": "uint256",
          "name": "action",
          "type": "uint256"
        }
      ],
      "name": "ActionDoesNotExist",
      "type": "error"
    },
    {
      "inputs": [
        {
          "internalType": "uint256",
          "name": "apiKeyHash",
          "type": "uint256"
        },
        {
          "internalType": "uint256",
          "name": "groupId",
          "type": "uint256"
        }
      ],
      "name": "GroupDoesNotExist",
      "type": "error"
    },
    {
      "inputs": [
        {
          "internalType": "uint256",
          "name": "apiKeyHash",
          "type": "uint256"
        },
        {
          "internalType": "uint256",
          "name": "amount",
          "type": "uint256"
        }
      ],
      "name": "InsufficientBalance",
      "type": "error"
    },
    {
      "inputs": [
        {
          "internalType": "uint256",
          "name": "apiKeyHash",
          "type": "uint256"
        },
        {
          "internalType": "address",
          "name": "sender",
          "type": "address"
        }
      ],
      "name": "NoAccountAccess",
      "type": "error"
    },
    {
      "inputs": [
        {
          "internalType": "uint256",
          "name": "apiKeyHash",
          "type": "uint256"
        }
      ],
      "name": "NotMasterAccount",
      "type": "error"
    },
    {
      "inputs": [
        {
          "internalType": "address",
          "name": "caller",
          "type": "address"
        }
      ],
      "name": "OnlyApiPayer",
      "type": "error"
    },
    {
      "inputs": [
        {
          "internalType": "address",
          "name": "caller",
          "type": "address"
        }
      ],
      "name": "OnlyApiPayerOrOwner",
      "type": "error"
    },
    {
      "inputs": [
        {
          "internalType": "address",
          "name": "caller",
          "type": "address"
        }
      ],
      "name": "OnlyApiPayerOrPricingOperator",
      "type": "error"
    },
    {
      "inputs": [
        {
          "internalType": "uint256",
          "name": "apiKeyHash",
          "type": "uint256"
        },
        {
          "internalType": "uint256",
          "name": "usageApiKeyHash",
          "type": "uint256"
        }
      ],
      "name": "UsageApiKeyDoesNotExist",
      "type": "error"
    },
    {
      "inputs": [
        {
          "internalType": "uint256",
          "name": "apiKeyHash",
          "type": "uint256"
        },
        {
          "internalType": "uint256",
          "name": "groupId",
          "type": "uint256"
        },
        {
          "internalType": "uint256",
          "name": "Wallet",
          "type": "uint256"
        }
      ],
      "name": "WalletDoesNotExist",
      "type": "error"
    },
    {
      "inputs": [
        {
          "internalType": "uint256",
          "name": "apiKeyHash",
          "type": "uint256"
        }
      ],
      "name": "accountExistsAndIsMutable",
      "outputs": [
        {
          "internalType": "bool",
          "name": "",
          "type": "bool"
        }
      ],
      "stateMutability": "view",
      "type": "function"
    },
    {
      "inputs": [
        {
          "internalType": "uint256",
          "name": "accountApiKeyHash",
          "type": "uint256"
        },
        {
          "internalType": "uint256",
          "name": "groupId",
          "type": "uint256"
        },
        {
          "internalType": "uint256",
          "name": "action",
          "type": "uint256"
        },
        {
          "internalType": "string",
          "name": "name",
          "type": "string"
        },
        {
          "internalType": "string",
          "name": "description",
          "type": "string"
        }
      ],
      "name": "addActionToGroup",
      "outputs": [],
      "stateMutability": "nonpayable",
      "type": "function"
    },
    {
      "inputs": [
        {
          "internalType": "uint256",
          "name": "accountApiKeyHash",
          "type": "uint256"
        },
        {
          "internalType": "uint256",
          "name": "usageApiKeyHash",
          "type": "uint256"
        },
        {
          "internalType": "uint256",
          "name": "expiration",
          "type": "uint256"
        },
        {
          "internalType": "uint256",
          "name": "balance",
          "type": "uint256"
        },
        {
          "internalType": "string",
          "name": "name",
          "type": "string"
        },
        {
          "internalType": "string",
          "name": "description",
          "type": "string"
        }
      ],
      "name": "addApiKey",
      "outputs": [],
      "stateMutability": "nonpayable",
      "type": "function"
    },
    {
      "inputs": [
        {
          "internalType": "uint256",
          "name": "accountApiKeyHash",
          "type": "uint256"
        },
        {
          "internalType": "string",
          "name": "name",
          "type": "string"
        },
        {
          "internalType": "string",
          "name": "description",
          "type": "string"
        },
        {
          "internalType": "uint256[]",
          "name": "permitted_actions",
          "type": "uint256[]"
        },
        {
          "internalType": "uint256[]",
          "name": "Wallets",
          "type": "uint256[]"
        },
        {
          "internalType": "bool",
          "name": "all_wallets_permitted",
          "type": "bool"
        },
        {
          "internalType": "bool",
          "name": "all_actions_permitted",
          "type": "bool"
        }
      ],
      "name": "addGroup",
      "outputs": [],
      "stateMutability": "nonpayable",
      "type": "function"
    },
    {
      "inputs": [
        {
          "internalType": "uint256",
          "name": "accountApiKeyHash",
          "type": "uint256"
        },
        {
          "internalType": "uint256",
          "name": "groupId",
          "type": "uint256"
        },
        {
          "internalType": "uint256",
          "name": "walletAddressHash",
          "type": "uint256"
        }
      ],
      "name": "addWalletToGroup",
      "outputs": [],
      "stateMutability": "nonpayable",
      "type": "function"
    },
    {
      "inputs": [
        {
          "internalType": "uint256",
          "name": "index",
          "type": "uint256"
        }
      ],
      "name": "allWalletAddressesAt",
      "outputs": [
        {
          "internalType": "address",
          "name": "",
          "type": "address"
        }
      ],
      "stateMutability": "view",
      "type": "function"
    },
    {
      "inputs": [],
      "name": "api_payer",
      "outputs": [
        {
          "internalType": "address",
          "name": "",
          "type": "address"
        }
      ],
      "stateMutability": "view",
      "type": "function"
    },
    {
      "inputs": [
        {
          "internalType": "uint256",
          "name": "apiKeyHash",
          "type": "uint256"
        },
        {
          "internalType": "uint256",
          "name": "amount",
          "type": "uint256"
        }
      ],
      "name": "creditApiKey",
      "outputs": [],
      "stateMutability": "nonpayable",
      "type": "function"
    },
    {
      "inputs": [
        {
          "internalType": "uint256",
          "name": "apiKeyHash",
          "type": "uint256"
        },
        {
          "internalType": "uint256",
          "name": "amount",
          "type": "uint256"
        }
      ],
      "name": "debitApiKey",
      "outputs": [],
      "stateMutability": "nonpayable",
      "type": "function"
    },
    {
      "inputs": [
        {
          "internalType": "uint256",
          "name": "pricingItemId",
          "type": "uint256"
        }
      ],
      "name": "getPricing",
      "outputs": [
        {
          "internalType": "uint256",
          "name": "",
          "type": "uint256"
        }
      ],
      "stateMutability": "view",
      "type": "function"
    },
    {
      "inputs": [
        {
          "internalType": "uint256",
          "name": "apiKeyHash",
          "type": "uint256"
        },
        {
          "internalType": "address",
          "name": "walletAddress",
          "type": "address"
        }
      ],
      "name": "getWalletDerivation",
      "outputs": [
        {
          "internalType": "uint256",
          "name": "",
          "type": "uint256"
        }
      ],
      "stateMutability": "view",
      "type": "function"
    },
    {
      "inputs": [
        {
          "internalType": "uint256",
          "name": "index",
          "type": "uint256"
        }
      ],
      "name": "indexToAccountHashAt",
      "outputs": [
        {
          "internalType": "uint256",
          "name": "",
          "type": "uint256"
        }
      ],
      "stateMutability": "view",
      "type": "function"
    },
    {
      "inputs": [
        {
          "internalType": "uint256",
          "name": "accountApiKeyHash",
          "type": "uint256"
        },
        {
          "internalType": "uint256",
          "name": "groupId",
          "type": "uint256"
        },
        {
          "internalType": "uint256",
          "name": "pageNumber",
          "type": "uint256"
        },
        {
          "internalType": "uint256",
          "name": "pageSize",
          "type": "uint256"
        }
      ],
      "name": "listActions",
      "outputs": [
        {
          "components": [
            {
              "internalType": "uint256",
              "name": "id",
              "type": "uint256"
            },
            {
              "internalType": "string",
              "name": "name",
              "type": "string"
            },
            {
              "internalType": "string",
              "name": "description",
              "type": "string"
            }
          ],
          "internalType": "struct LibAccountConfigStorage.Metadata[]",
          "name": "",
          "type": "tuple[]"
        }
      ],
      "stateMutability": "view",
      "type": "function"
    },
    {
      "inputs": [
        {
          "internalType": "uint256",
          "name": "accountApiKeyHash",
          "type": "uint256"
        },
        {
          "internalType": "uint256",
          "name": "pageNumber",
          "type": "uint256"
        },
        {
          "internalType": "uint256",
          "name": "pageSize",
          "type": "uint256"
        }
      ],
      "name": "listApiKeys",
      "outputs": [
        {
          "components": [
            {
              "components": [
                {
                  "internalType": "uint256",
                  "name": "id",
                  "type": "uint256"
                },
                {
                  "internalType": "string",
                  "name": "name",
                  "type": "string"
                },
                {
                  "internalType": "string",
                  "name": "description",
                  "type": "string"
                }
              ],
              "internalType": "struct LibAccountConfigStorage.Metadata",
              "name": "metadata",
              "type": "tuple"
            },
            {
              "internalType": "uint256",
              "name": "apiKeyHash",
              "type": "uint256"
            },
            {
              "internalType": "uint256",
              "name": "expiration",
              "type": "uint256"
            },
            {
              "internalType": "uint256",
              "name": "balance",
              "type": "uint256"
            },
            {
              "internalType": "bool",
              "name": "runActions",
              "type": "bool"
            },
            {
              "internalType": "bool",
              "name": "manageGroups",
              "type": "bool"
            },
            {
              "internalType": "bool",
              "name": "manageWallets",
              "type": "bool"
            },
            {
              "internalType": "bool",
              "name": "manageIPFSIds",
              "type": "bool"
            },
            {
              "internalType": "bool",
              "name": "manageUsageApiKeys",
              "type": "bool"
            }
          ],
          "internalType": "struct LibAccountConfigStorage.UsageApiKey[]",
          "name": "",
          "type": "tuple[]"
        }
      ],
      "stateMutability": "view",
      "type": "function"
    },
    {
      "inputs": [
        {
          "internalType": "uint256",
          "name": "accountApiKeyHash",
          "type": "uint256"
        },
        {
          "internalType": "uint256",
          "name": "pageNumber",
          "type": "uint256"
        },
        {
          "internalType": "uint256",
          "name": "pageSize",
          "type": "uint256"
        }
      ],
      "name": "listGroups",
      "outputs": [
        {
          "components": [
            {
              "internalType": "uint256",
              "name": "id",
              "type": "uint256"
            },
            {
              "internalType": "string",
              "name": "name",
              "type": "string"
            },
            {
              "internalType": "string",
              "name": "description",
              "type": "string"
            }
          ],
          "internalType": "struct LibAccountConfigStorage.Metadata[]",
          "name": "",
          "type": "tuple[]"
        }
      ],
      "stateMutability": "view",
      "type": "function"
    },
    {
      "inputs": [
        {
          "internalType": "uint256",
          "name": "accountApiKeyHash",
          "type": "uint256"
        },
        {
          "internalType": "uint256",
          "name": "pageNumber",
          "type": "uint256"
        },
        {
          "internalType": "uint256",
          "name": "pageSize",
          "type": "uint256"
        }
      ],
      "name": "listWallets",
      "outputs": [
        {
          "components": [
            {
              "internalType": "uint256",
              "name": "id",
              "type": "uint256"
            },
            {
              "internalType": "string",
              "name": "name",
              "type": "string"
            },
            {
              "internalType": "string",
              "name": "description",
              "type": "string"
            },
            {
              "internalType": "address",
              "name": "walletAddress",
              "type": "address"
            }
          ],
          "internalType": "struct LibAccountConfigStorage.WalletData[]",
          "name": "",
          "type": "tuple[]"
        }
      ],
      "stateMutability": "view",
      "type": "function"
    },
    {
      "inputs": [
        {
          "internalType": "uint256",
          "name": "accountApiKeyHash",
          "type": "uint256"
        },
        {
          "internalType": "uint256",
          "name": "groupId",
          "type": "uint256"
        },
        {
          "internalType": "uint256",
          "name": "pageNumber",
          "type": "uint256"
        },
        {
          "internalType": "uint256",
          "name": "pageSize",
          "type": "uint256"
        }
      ],
      "name": "listWalletsInGroup",
      "outputs": [
        {
          "components": [
            {
              "internalType": "uint256",
              "name": "id",
              "type": "uint256"
            },
            {
              "internalType": "string",
              "name": "name",
              "type": "string"
            },
            {
              "internalType": "string",
              "name": "description",
              "type": "string"
            },
            {
              "internalType": "address",
              "name": "walletAddress",
              "type": "address"
            }
          ],
          "internalType": "struct LibAccountConfigStorage.WalletData[]",
          "name": "",
          "type": "tuple[]"
        }
      ],
      "stateMutability": "view",
      "type": "function"
    },
    {
      "inputs": [
        {
          "internalType": "uint256",
          "name": "apiKeyHash",
          "type": "uint256"
        },
        {
          "internalType": "bool",
          "name": "managed",
          "type": "bool"
        },
        {
          "internalType": "string",
          "name": "accountName",
          "type": "string"
        },
        {
          "internalType": "string",
          "name": "accountDescription",
          "type": "string"
        },
        {
          "internalType": "address",
          "name": "creatorWalletAddress",
          "type": "address"
        }
      ],
      "name": "newAccount",
      "outputs": [],
      "stateMutability": "nonpayable",
      "type": "function"
    },
    {
      "inputs": [],
      "name": "nextAccountCount",
      "outputs": [
        {
          "internalType": "uint256",
          "name": "",
          "type": "uint256"
        }
      ],
      "stateMutability": "view",
      "type": "function"
    },
    {
      "inputs": [],
      "name": "nextWalletCount",
      "outputs": [
        {
          "internalType": "uint256",
          "name": "",
          "type": "uint256"
        }
      ],
      "stateMutability": "view",
      "type": "function"
    },
    {
      "inputs": [],
      "name": "owner",
      "outputs": [
        {
          "internalType": "address",
          "name": "",
          "type": "address"
        }
      ],
      "stateMutability": "view",
      "type": "function"
    },
    {
      "inputs": [
        {
          "internalType": "uint256",
          "name": "index",
          "type": "uint256"
        }
      ],
      "name": "pricingAt",
      "outputs": [
        {
          "internalType": "uint256",
          "name": "",
          "type": "uint256"
        }
      ],
      "stateMutability": "view",
      "type": "function"
    },
    {
      "inputs": [],
      "name": "pricing_operator",
      "outputs": [
        {
          "internalType": "address",
          "name": "",
          "type": "address"
        }
      ],
      "stateMutability": "view",
      "type": "function"
    },
    {
      "inputs": [
        {
          "internalType": "uint256",
          "name": "accountApiKeyHash",
          "type": "uint256"
        },
        {
          "internalType": "address",
          "name": "walletAddress",
          "type": "address"
        },
        {
          "internalType": "uint256",
          "name": "derivationPath",
          "type": "uint256"
        },
        {
          "internalType": "string",
          "name": "name",
          "type": "string"
        },
        {
          "internalType": "string",
          "name": "description",
          "type": "string"
        }
      ],
      "name": "registerWalletDerivation",
      "outputs": [],
      "stateMutability": "nonpayable",
      "type": "function"
    },
    {
      "inputs": [
        {
          "internalType": "uint256",
          "name": "accountApiKeyHash",
          "type": "uint256"
        },
        {
          "internalType": "uint256",
          "name": "groupId",
          "type": "uint256"
        },
        {
          "internalType": "uint256",
          "name": "action",
          "type": "uint256"
        }
      ],
      "name": "removeActionFromGroup",
      "outputs": [],
      "stateMutability": "nonpayable",
      "type": "function"
    },
    {
      "inputs": [
        {
          "internalType": "uint256",
          "name": "accountApiKeyHash",
          "type": "uint256"
        },
        {
          "internalType": "uint256",
          "name": "usageApiKeyHash",
          "type": "uint256"
        }
      ],
      "name": "removeUsageApiKey",
      "outputs": [],
      "stateMutability": "nonpayable",
      "type": "function"
    },
    {
      "inputs": [
        {
          "internalType": "uint256",
          "name": "accountApiKeyHash",
          "type": "uint256"
        },
        {
          "internalType": "uint256",
          "name": "groupId",
          "type": "uint256"
        },
        {
          "internalType": "uint256",
          "name": "walletAddressHash",
          "type": "uint256"
        }
      ],
      "name": "removeWalletFromGroup",
      "outputs": [],
      "stateMutability": "nonpayable",
      "type": "function"
    },
    {
      "inputs": [
        {
          "internalType": "address",
          "name": "newApiPayer",
          "type": "address"
        }
      ],
      "name": "setApiPayer",
      "outputs": [],
      "stateMutability": "nonpayable",
      "type": "function"
    },
    {
      "inputs": [
        {
          "internalType": "uint256",
          "name": "pricingItemId",
          "type": "uint256"
        },
        {
          "internalType": "uint256",
          "name": "price",
          "type": "uint256"
        }
      ],
      "name": "setPricing",
      "outputs": [],
      "stateMutability": "nonpayable",
      "type": "function"
    },
    {
      "inputs": [
        {
          "internalType": "address",
          "name": "newPricingOperator",
          "type": "address"
        }
      ],
      "name": "setPricingOperator",
      "outputs": [],
      "stateMutability": "nonpayable",
      "type": "function"
    },
    {
      "inputs": [
        {
          "internalType": "uint256",
          "name": "newSignerCount",
          "type": "uint256"
        }
      ],
      "name": "setSignerCount",
      "outputs": [],
      "stateMutability": "nonpayable",
      "type": "function"
    },
    {
      "inputs": [],
      "name": "signerCount",
      "outputs": [
        {
          "internalType": "uint256",
          "name": "",
          "type": "uint256"
        }
      ],
      "stateMutability": "view",
      "type": "function"
    },
    {
      "inputs": [
        {
          "internalType": "uint256",
          "name": "accountApiKeyHash",
          "type": "uint256"
        },
        {
          "internalType": "uint256",
          "name": "actionHash",
          "type": "uint256"
        },
        {
          "internalType": "uint256",
          "name": "groupId",
          "type": "uint256"
        },
        {
          "internalType": "string",
          "name": "name",
          "type": "string"
        },
        {
          "internalType": "string",
          "name": "description",
          "type": "string"
        }
      ],
      "name": "updateActionMetadata",
      "outputs": [],
      "stateMutability": "nonpayable",
      "type": "function"
    },
    {
      "inputs": [
        {
          "internalType": "uint256",
          "name": "accountApiKeyHash",
          "type": "uint256"
        },
        {
          "internalType": "uint256",
          "name": "groupId",
          "type": "uint256"
        },
        {
          "internalType": "string",
          "name": "name",
          "type": "string"
        },
        {
          "internalType": "string",
          "name": "description",
          "type": "string"
        },
        {
          "internalType": "bool",
          "name": "all_wallets_permitted",
          "type": "bool"
        },
        {
          "internalType": "bool",
          "name": "all_actions_permitted",
          "type": "bool"
        }
      ],
      "name": "updateGroup",
      "outputs": [],
      "stateMutability": "nonpayable",
      "type": "function"
    },
    {
      "inputs": [
        {
          "internalType": "uint256",
          "name": "accountApiKeyHash",
          "type": "uint256"
        },
        {
          "internalType": "uint256",
          "name": "usageApiKeyHash",
          "type": "uint256"
        },
        {
          "internalType": "string",
          "name": "name",
          "type": "string"
        },
        {
          "internalType": "string",
          "name": "description",
          "type": "string"
        }
      ],
      "name": "updateUsageApiKeyMetadata",
      "outputs": [],
      "stateMutability": "nonpayable",
      "type": "function"
    }
  ],
  "bytecode": "0x608060405234801561000f575f5ffd5b5061001e61002360201b60201c565b61026a565b5f6100326101c660201b60201c565b90505f73ffffffffffffffffffffffffffffffffffffffff16816005015f9054906101000a900473ffffffffffffffffffffffffffffffffffffffff1673ffffffffffffffffffffffffffffffffffffffff16146100c5576040517f08c379a00000000000000000000000000000000000000000000000000000000081526004016100bc9061024c565b60405180910390fd5b33816005015f6101000a81548173ffffffffffffffffffffffffffffffffffffffff021916908373ffffffffffffffffffffffffffffffffffffffff16021790555033816007015f6101000a81548173ffffffffffffffffffffffffffffffffffffffff021916908373ffffffffffffffffffffffffffffffffffffffff16021790555033816006015f6101000a81548173ffffffffffffffffffffffffffffffffffffffff021916908373ffffffffffffffffffffffffffffffffffffffff1602179055506001816008018190555060018160090181905550600181600a01819055506001816004015f600181526020019081526020015f208190555050565b5f5f7f171def12e82c8f3351e4c79b7854be19ad60a75b888f74b9660c07cd7461963390508091505090565b5f82825260208201905092915050565b7f616c726561647920696e697469616c697a6564000000000000000000000000005f82015250565b5f6102366013836101f2565b915061024182610202565b602082019050919050565b5f6020820190508181035f8301526102638161022a565b9050919050565b614541806102775f395ff3fe608060405234801561000f575f5ffd5b506004361061020f575f3560e01c80637af361ef11610123578063c12f1a42116100ab578063ca05588a1161007a578063ca05588a1461061b578063ccb78fb614610637578063e6ad292814610667578063f75c8b2d14610683578063fec99aef146106b35761020f565b8063c12f1a421461056f578063c1aff8991461059f578063c5f5b984146105cf578063c704668c146105eb5761020f565b806390222cad116100f257806390222cad146104cf57806392141552146104ff57806396a7cc541461051b578063a6b6b67214610537578063bac710ea146105535761020f565b80637af361ef146104455780637ca548c6146104755780638845698c146104935780638da5cb5b146104b15761020f565b806366832396116101a65780636e06ac9c116101755780636e06ac9c146103915780636fe1fb84146103ad578063719fac43146103dd578063749e4d071461040d57806379312245146104295761020f565b80636683239614610321578063683f2de81461033d57806369d63c21146103595780636a3d77a9146103755761020f565b80634705161e116101e25780634705161e146102995780634cd882ac146102b7578063542970ed146102d55780635d861c72146103055761020f565b80630f9a602114610213578063291ff1ea146102315780632fa92e411461026157806340b4d4531461027d575b5f5ffd5b61021b6106cf565b6040516102289190613194565b60405180910390f35b61024b600480360381019061024691906131e8565b6106e1565b604051610258919061342c565b60405180910390f35b61027b60048036038101906102769190613578565b610a97565b005b61029760048036038101906102929190613627565b610b77565b005b6102a1610c62565b6040516102ae9190613194565b60405180910390f35b6102bf610c74565b6040516102cc9190613674565b60405180910390f35b6102ef60048036038101906102ea91906131e8565b610ca5565b6040516102fc919061379c565b60405180910390f35b61031f600480360381019061031a91906137bc565b610ef1565b005b61033b6004803603810190610336919061380c565b610f7b565b005b61035760048036038101906103529190613627565b610f97565b005b610373600480360381019061036e9190613861565b611037565b005b61038f600480360381019061038a919061388c565b61108c565b005b6103ab60048036038101906103a691906137bc565b611128565b005b6103c760048036038101906103c2919061380c565b611190565b6040516103d49190613194565b60405180910390f35b6103f760048036038101906103f2919061380c565b6111b3565b6040516104049190613942565b60405180910390f35b61042760048036038101906104229190613a49565b6111c5565b005b610443600480360381019061043e9190613b56565b611358565b005b61045f600480360381019061045a91906137bc565b61158c565b60405161046c919061342c565b60405180910390f35b61047d6118fd565b60405161048a9190613194565b60405180910390f35b61049b61190f565b6040516104a89190613674565b60405180910390f35b6104b9611940565b6040516104c69190613674565b60405180910390f35b6104e960048036038101906104e49190613c05565b611971565b6040516104f69190613194565b60405180910390f35b61051960048036038101906105149190613c43565b6119c9565b005b61053560048036038101906105309190613cf2565b611bc6565b005b610551600480360381019061054c9190613578565b611c74565b005b61056d600480360381019061056891906137bc565b611cf9565b005b6105896004803603810190610584919061380c565b611d57565b6040516105969190613194565b60405180910390f35b6105b960048036038101906105b4919061380c565b611d7a565b6040516105c69190613194565b60405180910390f35b6105e960048036038101906105e49190613627565b611d9d565b005b610605600480360381019061060091906137bc565b611ec4565b6040516106129190613f3f565b60405180910390f35b61063560048036038101906106309190613627565b6121b0565b005b610651600480360381019061064c919061380c565b6121dc565b60405161065e9190613674565b60405180910390f35b610681600480360381019061067c9190613861565b61221e565b005b61069d600480360381019061069891906137bc565b612273565b6040516106aa919061379c565b60405180910390f35b6106cd60048036038101906106c89190613f5f565b6124a9565b005b5f6106d861261f565b60090154905090565b60605f6106ed8661264b565b90505f6106f861261f565b90505f82600d015f8881526020019081526020015f2090505f5f610728610721846005016126d2565b89896126e5565b915091505f8167ffffffffffffffff81111561074757610746613454565b5b60405190808252806020026020018201604052801561078057816020015b61076d613074565b8152602001906001900390816107655790505b5090505f5f90505b82811015610a85575f6107b282866107a0919061404d565b8760050161274f90919063ffffffff16565b90505f876003015f8381526020019081526020015f205f9054906101000a900473ffffffffffffffffffffffffffffffffffffffff169050808484815181106107fe576107fd614080565b5b60200260200101516060019073ffffffffffffffffffffffffffffffffffffffff16908173ffffffffffffffffffffffffffffffffffffffff1681525050886012015f8273ffffffffffffffffffffffffffffffffffffffff1673ffffffffffffffffffffffffffffffffffffffff1681526020019081526020015f206001018054610889906140da565b80601f01602080910402602001604051908101604052809291908181526020018280546108b5906140da565b80156109005780601f106108d757610100808354040283529160200191610900565b820191905f5260205f20905b8154815290600101906020018083116108e357829003601f168201915b505050505084848151811061091857610917614080565b5b602002602001015160200181905250886012015f8273ffffffffffffffffffffffffffffffffffffffff1673ffffffffffffffffffffffffffffffffffffffff1681526020019081526020015f206002018054610974906140da565b80601f01602080910402602001604051908101604052809291908181526020018280546109a0906140da565b80156109eb5780601f106109c2576101008083540402835291602001916109eb565b820191905f5260205f20905b8154815290600101906020018083116109ce57829003601f168201915b5050505050848481518110610a0357610a02614080565b5b602002602001015160400181905250886012015f8273ffffffffffffffffffffffffffffffffffffffff1673ffffffffffffffffffffffffffffffffffffffff1681526020019081526020015f205f0154848481518110610a6757610a66614080565b5b60200260200101515f01818152505050508080600101915050610788565b50809650505050505050949350505050565b610aa18585612766565b610aaa8561277d565b5f610ab361261f565b90505f815f015f8881526020019081526020015f209050610af28582600d015f8981526020019081526020015f206003016127e390919063ffffffff16565b5084816010015f8781526020019081526020015f205f018190555083816010015f8781526020019081526020015f206001019081610b3091906142aa565b5082816010015f8781526020019081526020015f206002019081610b5491906142aa565b50806015015f815480929190610b6990614379565b919050555050505050505050565b610b80336127fa565b610b898261280e565b610b928261277d565b5f610b9b61261f565b90505f816002015f8581526020019081526020015f205490505f825f015f8381526020019081526020015f2090505f85825f016003015414610bef5781600a015f8781526020019081526020015f20610bf3565b815f015b90508481600501541015610c405785856040517fcf479181000000000000000000000000000000000000000000000000000000008152600401610c379291906143c0565b60405180910390fd5b84816005015f828254610c5391906143e7565b92505081905550505050505050565b5f610c6b61261f565b60080154905090565b5f610c7d61261f565b6007015f9054906101000a900473ffffffffffffffffffffffffffffffffffffffff16905090565b60605f610cb18661264b565b90505f81600d015f8781526020019081526020015f2090505f610cd6826003016126d2565b90505f5f610ce58389896126e5565b915091505f8167ffffffffffffffff811115610d0457610d03613454565b5b604051908082528060200260200182016040528015610d3d57816020015b610d2a6130b0565b815260200190600190039081610d225790505b5090505f5f90505b82811015610edf57866010015f610d738387610d61919061404d565b8960030161274f90919063ffffffff16565b81526020019081526020015f206040518060600160405290815f8201548152602001600182018054610da4906140da565b80601f0160208091040260200160405190810160405280929190818152602001828054610dd0906140da565b8015610e1b5780601f10610df257610100808354040283529160200191610e1b565b820191905f5260205f20905b815481529060010190602001808311610dfe57829003601f168201915b50505050508152602001600282018054610e34906140da565b80601f0160208091040260200160405190810160405280929190818152602001828054610e60906140da565b8015610eab5780601f10610e8257610100808354040283529160200191610eab565b820191905f5260205f20905b815481529060010190602001808311610e8e57829003601f168201915b505050505081525050828281518110610ec757610ec6614080565b5b60200260200101819052508080600101915050610d45565b50809650505050505050949350505050565b610efc83838361281b565b610f058361277d565b5f610f0e61261f565b90505f815f015f8681526020019081526020015f209050610f4d8382600d015f8781526020019081526020015f206003016128b490919063ffffffff16565b505f81601501541115610f7457806015015f815480929190610f6e9061441a565b91905055505b5050505050565b610f84336128cb565b80610f8d61261f565b600a018190555050565b610fa0336127fa565b610fa98261280e565b610fb28261277d565b5f610fbb61261f565b90505f816002015f8581526020019081526020015f205490505f825f015f8381526020019081526020015f2090505f85825f01600301541461100f5781600a015f8781526020019081526020015f20611013565b815f015b905084816005015f828254611028919061404d565b92505081905550505050505050565b611040336128cb565b8061104961261f565b6005015f6101000a81548173ffffffffffffffffffffffffffffffffffffffff021916908373ffffffffffffffffffffffffffffffffffffffff16021790555050565b6110958461280e565b61109f84846129ca565b6110a88461277d565b5f6110b161261f565b905082815f015f8781526020019081526020015f20600a015f8681526020019081526020015f205f0160010190816110e991906142aa565b5081815f015f8781526020019081526020015f20600a015f8681526020019081526020015f205f01600201908161112091906142aa565b505050505050565b6111318361280e565b61113c838383612a47565b6111458361277d565b5f61114e61261f565b905061118982825f015f8781526020019081526020015f20600d015f8681526020019081526020015f206005016128b490919063ffffffff16565b5050505050565b5f61119961261f565b6001015f8381526020019081526020015f20549050919050565b5f6111be8233612ae0565b9050919050565b6111ce8761280e565b6111d78761277d565b5f6111e061261f565b90505f815f015f8a81526020019081526020015f209050611211816016015482600b016127e390919063ffffffff16565b505f81600d015f836016015481526020019081526020015f2090508160160154815f015f018190555088815f01600101908161124d91906142aa565b5087815f01600201908161126191906142aa565b505f5f90505b87518110156112ae576112a088828151811061128657611285614080565b5b6020026020010151836003016127e390919063ffffffff16565b508080600101915050611267565b505f5f90505b86518110156112fb576112ed8782815181106112d3576112d2614080565b5b6020026020010151836005016127e390919063ffffffff16565b5080806001019150506112b4565b5084816007015f6101000a81548160ff021916908315150217905550838160070160016101000a81548160ff021916908315150217905550816016015f81548092919061134790614379565b919050555050505050505050505050565b61136133612c22565b5f61136a61261f565b90505f816002015f8881526020019081526020015f2054146113c357856040517f8be1f3fb0000000000000000000000000000000000000000000000000000000081526004016113ba9190613194565b60405180910390fd5b5f815f015f8881526020019081526020015f20905085816013015f6101000a81548160ff02191690831515021790555082816007015f6101000a81548173ffffffffffffffffffffffffffffffffffffffff021916908373ffffffffffffffffffffffffffffffffffffffff16021790555086815f015f015f018190555084815f015f01600101908161145691906142aa565b5083815f015f01600201908161146c91906142aa565b505f815f016006015f6101000a81548160ff0219169083151502179055506001815f0160060160016101000a81548160ff0219169083151502179055506001815f0160060160026101000a81548160ff0219169083151502179055506001815f0160060160036101000a81548160ff0219169083151502179055506001815f0160060160046101000a81548160ff02191690831515021790555086815f01600301819055506312cc030042611521919061404d565b815f01600401819055505f815f016005018190555086826002015f8981526020019081526020015f208190555086826001015f846009015481526020019081526020015f2081905550816009015f81548092919061157e90614379565b919050555050505050505050565b60605f6115988561264b565b90505f5f6115ab836014015487876126e5565b915091505f8167ffffffffffffffff8111156115ca576115c9613454565b5b60405190808252806020026020018201604052801561160357816020015b6115f0613074565b8152602001906001900390816115e85790505b5090505f5f90505b828110156118ee575f856011015f8387611625919061404d565b81526020019081526020015f205f9054906101000a900473ffffffffffffffffffffffffffffffffffffffff1690508083838151811061166857611667614080565b5b60200260200101516060019073ffffffffffffffffffffffffffffffffffffffff16908173ffffffffffffffffffffffffffffffffffffffff1681525050856012015f8273ffffffffffffffffffffffffffffffffffffffff1673ffffffffffffffffffffffffffffffffffffffff1681526020019081526020015f2060010180546116f3906140da565b80601f016020809104026020016040519081016040528092919081815260200182805461171f906140da565b801561176a5780601f106117415761010080835404028352916020019161176a565b820191905f5260205f20905b81548152906001019060200180831161174d57829003601f168201915b505050505083838151811061178257611781614080565b5b602002602001015160200181905250856012015f8273ffffffffffffffffffffffffffffffffffffffff1673ffffffffffffffffffffffffffffffffffffffff1681526020019081526020015f2060020180546117de906140da565b80601f016020809104026020016040519081016040528092919081815260200182805461180a906140da565b80156118555780601f1061182c57610100808354040283529160200191611855565b820191905f5260205f20905b81548152906001019060200180831161183857829003601f168201915b505050505083838151811061186d5761186c614080565b5b602002602001015160400181905250856012015f8273ffffffffffffffffffffffffffffffffffffffff1673ffffffffffffffffffffffffffffffffffffffff1681526020019081526020015f205f01548383815181106118d1576118d0614080565b5b60200260200101515f01818152505050808060010191505061160b565b50809450505050509392505050565b5f61190661261f565b600a0154905090565b5f61191861261f565b6005015f9054906101000a900473ffffffffffffffffffffffffffffffffffffffff16905090565b5f61194961261f565b6006015f9054906101000a900473ffffffffffffffffffffffffffffffffffffffff16905090565b5f5f61197c8461264b565b9050806012015f8473ffffffffffffffffffffffffffffffffffffffff1673ffffffffffffffffffffffffffffffffffffffff1681526020019081526020015f205f015491505092915050565b6119d28561280e565b6119db8561277d565b5f6119e461261f565b90505f815f015f8881526020019081526020015f20905084816012015f8873ffffffffffffffffffffffffffffffffffffffff1673ffffffffffffffffffffffffffffffffffffffff1681526020019081526020015f205f018190555083816012015f8873ffffffffffffffffffffffffffffffffffffffff1673ffffffffffffffffffffffffffffffffffffffff1681526020019081526020015f206001019081611a9091906142aa565b5082816012015f8873ffffffffffffffffffffffffffffffffffffffff1673ffffffffffffffffffffffffffffffffffffffff1681526020019081526020015f206002019081611ae091906142aa565b5085816011015f836014015481526020019081526020015f205f6101000a81548173ffffffffffffffffffffffffffffffffffffffff021916908373ffffffffffffffffffffffffffffffffffffffff16021790555085826003015f846008015481526020019081526020015f205f6101000a81548173ffffffffffffffffffffffffffffffffffffffff021916908373ffffffffffffffffffffffffffffffffffffffff160217905550806014015f815480929190611b9f90614379565b9190505550816008015f815480929190611bb890614379565b919050555050505050505050565b611bd08686612766565b611bd98661277d565b5f611be261261f565b90505f815f015f8981526020019081526020015f20600d015f8881526020019081526020015f20905085815f016001019081611c1e91906142aa565b5084815f016002019081611c3291906142aa565b5083816007015f6101000a81548160ff021916908315150217905550828160070160016101000a81548160ff0219169083151502179055505050505050505050565b611c7f85848661281b565b611c888561277d565b5f611c9161261f565b90505f815f015f8881526020019081526020015f20905083816010015f8881526020019081526020015f206001019081611ccb91906142aa565b5082816010015f8881526020019081526020015f206002019081611cef91906142aa565b5050505050505050565b611d038383612766565b611d0c8361277d565b5f611d1561261f565b9050611d5082825f015f8781526020019081526020015f20600d015f8681526020019081526020015f206005016127e390919063ffffffff16565b5050505050565b5f611d6061261f565b6004015f8381526020019081526020015f20549050919050565b5f611d8361261f565b6004015f8381526020019081526020015f20549050919050565b611da68261280e565b611db082826129ca565b611db98261277d565b5f611dc261261f565b90505f815f015f8581526020019081526020015f209050611def83826008016128b490919063ffffffff16565b5080600a015f8481526020019081526020015f205f5f82015f5f82015f9055600182015f611e1d91906130d0565b600282015f611e2c91906130d0565b5050600382015f9055600482015f9055600582015f9055600682015f6101000a81549060ff02191690556006820160016101000a81549060ff02191690556006820160026101000a81549060ff02191690556006820160036101000a81549060ff02191690556006820160046101000a81549060ff02191690555050816002015f8481526020019081526020015f205f905550505050565b60605f611ed08561264b565b90505f611edf826008016126d2565b90505f5f611eee8388886126e5565b915091505f8167ffffffffffffffff811115611f0d57611f0c613454565b5b604051908082528060200260200182016040528015611f4657816020015b611f3361310d565b815260200190600190039081611f2b5790505b5090505f5f90505b828110156121a05785600a015f611f7c8387611f6a919061404d565b8960080161274f90919063ffffffff16565b81526020019081526020015f20604051806101200160405290815f82016040518060600160405290815f8201548152602001600182018054611fbd906140da565b80601f0160208091040260200160405190810160405280929190818152602001828054611fe9906140da565b80156120345780601f1061200b57610100808354040283529160200191612034565b820191905f5260205f20905b81548152906001019060200180831161201757829003601f168201915b5050505050815260200160028201805461204d906140da565b80601f0160208091040260200160405190810160405280929190818152602001828054612079906140da565b80156120c45780601f1061209b576101008083540402835291602001916120c4565b820191905f5260205f20905b8154815290600101906020018083116120a757829003601f168201915b5050505050815250508152602001600382015481526020016004820154815260200160058201548152602001600682015f9054906101000a900460ff161515151581526020016006820160019054906101000a900460ff161515151581526020016006820160029054906101000a900460ff161515151581526020016006820160039054906101000a900460ff161515151581526020016006820160049054906101000a900460ff16151515158152505082828151811061218857612187614080565b5b60200260200101819052508080600101915050611f4e565b5080955050505050509392505050565b6121b9336127fa565b806121c261261f565b6004015f8481526020019081526020015f20819055505050565b5f6121e561261f565b6003015f8381526020019081526020015f205f9054906101000a900473ffffffffffffffffffffffffffffffffffffffff169050919050565b612227336127fa565b8061223061261f565b6007015f6101000a81548173ffffffffffffffffffffffffffffffffffffffff021916908373ffffffffffffffffffffffffffffffffffffffff16021790555050565b60605f61227f8561264b565b90505f61228e82600b016126d2565b90505f5f61229d8388886126e5565b915091505f8167ffffffffffffffff8111156122bc576122bb613454565b5b6040519080825280602002602001820160405280156122f557816020015b6122e26130b0565b8152602001906001900390816122da5790505b5090505f5f90505b828110156124995785600d015f61232b8387612319919061404d565b89600b0161274f90919063ffffffff16565b81526020019081526020015f205f016040518060600160405290815f820154815260200160018201805461235e906140da565b80601f016020809104026020016040519081016040528092919081815260200182805461238a906140da565b80156123d55780601f106123ac576101008083540402835291602001916123d5565b820191905f5260205f20905b8154815290600101906020018083116123b857829003601f168201915b505050505081526020016002820180546123ee906140da565b80601f016020809104026020016040519081016040528092919081815260200182805461241a906140da565b80156124655780601f1061243c57610100808354040283529160200191612465565b820191905f5260205f20905b81548152906001019060200180831161244857829003601f168201915b50505050508152505082828151811061248157612480614080565b5b602002602001018190525080806001019150506122fd565b5080955050505050509392505050565b6124b28661280e565b5f6124bb61261f565b90505f816002015f8981526020019081526020015f205490505f825f015f8381526020019081526020015f20600a015f8981526020019081526020015f2090508781600301819055508681600401819055508581600501819055506001816006015f6101000a81548160ff0219169083151502179055505f8160060160016101000a81548160ff0219169083151502179055505f8160060160026101000a81548160ff0219169083151502179055505f8160060160036101000a81548160ff0219169083151502179055505f8160060160046101000a81548160ff02191690831515021790555087815f015f018190555084815f0160010190816125bf91906142aa565b5083815f0160020190816125d391906142aa565b506125fb88845f015f8581526020019081526020015f206008016127e390919063ffffffff16565b5081836002015f8a81526020019081526020015f2081905550505050505050505050565b5f5f7f171def12e82c8f3351e4c79b7854be19ad60a75b888f74b9660c07cd7461963390508091505090565b5f5f61265561261f565b90505f816002015f8581526020019081526020015f205490505f81036126b257836040517fd4a847370000000000000000000000000000000000000000000000000000000081526004016126a99190613194565b60405180910390fd5b5f825f015f8381526020019081526020015f209050809350505050919050565b5f6126de825f01612cc4565b9050919050565b5f5f848311156126f6578492505f93505b5f83856127039190614441565b9050858110612718575f5f9250925050612747565b5f8482612725919061404d565b905086811115612733578690505b81828261274091906143e7565b9350935050505b935093915050565b5f61275c835f0183612cd3565b5f1c905092915050565b61276f8261280e565b6127798282612cfa565b5050565b5f61278661261f565b905081816002015f8481526020019081526020015f2054146127df57816040517f1d0932ee0000000000000000000000000000000000000000000000000000000081526004016127d69190613194565b60405180910390fd5b5050565b5f6127f2835f01835f1b612d4b565b905092915050565b61280b61280561261f565b82612db2565b50565b6128188133612ea6565b50565b6128258383612766565b5f61282e61261f565b905061286982825f015f8781526020019081526020015f20600d015f8681526020019081526020015f20600301612ef790919063ffffffff16565b6128ae578383836040517fef25d02d0000000000000000000000000000000000000000000000000000000081526004016128a593929190614482565b60405180910390fd5b50505050565b5f6128c3835f01835f1b612f0e565b905092915050565b5f6128d461261f565b9050806005015f9054906101000a900473ffffffffffffffffffffffffffffffffffffffff1673ffffffffffffffffffffffffffffffffffffffff168273ffffffffffffffffffffffffffffffffffffffff16141580156129845750806006015f9054906101000a900473ffffffffffffffffffffffffffffffffffffffff1673ffffffffffffffffffffffffffffffffffffffff168273ffffffffffffffffffffffffffffffffffffffff1614155b156129c657816040517f2d87faed0000000000000000000000000000000000000000000000000000000081526004016129bd9190613674565b60405180910390fd5b5050565b5f6129d361261f565b905081815f015f8581526020019081526020015f20600a015f8481526020019081526020015f206003015414612a425782826040517f748e712a000000000000000000000000000000000000000000000000000000008152600401612a399291906143c0565b60405180910390fd5b505050565b612a518383612766565b5f612a5a61261f565b9050612a9582825f015f8781526020019081526020015f20600d015f8681526020019081526020015f20600501612ef790919063ffffffff16565b612ada578383836040517f79167858000000000000000000000000000000000000000000000000000000008152600401612ad193929190614482565b60405180910390fd5b50505050565b5f5f612aea61261f565b90505f816002015f8681526020019081526020015f205490505f8103612b14575f92505050612c1c565b5f825f015f8381526020019081526020015f20905081815f016003015414612b41575f9350505050612c1c565b826005015f9054906101000a900473ffffffffffffffffffffffffffffffffffffffff1673ffffffffffffffffffffffffffffffffffffffff168573ffffffffffffffffffffffffffffffffffffffff16148015612bb3575060011515816013015f9054906101000a900460ff161515145b15612bc45760019350505050612c1c565b8473ffffffffffffffffffffffffffffffffffffffff16816007015f9054906101000a900473ffffffffffffffffffffffffffffffffffffffff1673ffffffffffffffffffffffffffffffffffffffff161493505050505b92915050565b5f612c2b61261f565b9050806005015f9054906101000a900473ffffffffffffffffffffffffffffffffffffffff1673ffffffffffffffffffffffffffffffffffffffff168273ffffffffffffffffffffffffffffffffffffffff1614612cc057816040517f92f13c4e000000000000000000000000000000000000000000000000000000008152600401612cb79190613674565b60405180910390fd5b5050565b5f815f01805490509050919050565b5f825f018281548110612ce957612ce8614080565b5b905f5260205f200154905092915050565b612d04828261300a565b612d475781816040517f931a85b3000000000000000000000000000000000000000000000000000000008152600401612d3e9291906143c0565b60405180910390fd5b5050565b5f612d568383613054565b612da857825f0182908060018154018082558091505060019003905f5260205f20015f9091909190915055825f0180549050836001015f8481526020019081526020015f208190555060019050612dac565b5f90505b92915050565b816005015f9054906101000a900473ffffffffffffffffffffffffffffffffffffffff1673ffffffffffffffffffffffffffffffffffffffff168173ffffffffffffffffffffffffffffffffffffffff1614158015612e605750816007015f9054906101000a900473ffffffffffffffffffffffffffffffffffffffff1673ffffffffffffffffffffffffffffffffffffffff168173ffffffffffffffffffffffffffffffffffffffff1614155b15612ea257806040517f9ed88e07000000000000000000000000000000000000000000000000000000008152600401612e999190613674565b60405180910390fd5b5050565b612eb08282612ae0565b612ef35781816040517f7b0f9c07000000000000000000000000000000000000000000000000000000008152600401612eea9291906144b7565b60405180910390fd5b5050565b5f612f06835f01835f1b613054565b905092915050565b5f5f836001015f8481526020019081526020015f205490505f8114612fff575f600182612f3b91906143e7565b90505f6001865f0180549050612f5191906143e7565b9050808214612fb7575f865f018281548110612f7057612f6f614080565b5b905f5260205f200154905080875f018481548110612f9157612f90614080565b5b905f5260205f20018190555083876001015f8381526020019081526020015f2081905550505b855f01805480612fca57612fc96144de565b5b600190038181905f5260205f20015f90559055856001015f8681526020019081526020015f205f905560019350505050613004565b5f9150505b92915050565b5f5f61301461261f565b90505f815f015f8681526020019081526020015f2090505f81600d015f8681526020019081526020015f20905084815f015f015414935050505092915050565b5f5f836001015f8481526020019081526020015f20541415905092915050565b60405180608001604052805f815260200160608152602001606081526020015f73ffffffffffffffffffffffffffffffffffffffff1681525090565b60405180606001604052805f815260200160608152602001606081525090565b5080546130dc906140da565b5f825580601f106130ed575061310a565b601f0160209004905f5260205f20908101906131099190613161565b5b50565b6040518061012001604052806131216130b0565b81526020015f81526020015f81526020015f81526020015f151581526020015f151581526020015f151581526020015f151581526020015f151581525090565b5b80821115613178575f815f905550600101613162565b5090565b5f819050919050565b61318e8161317c565b82525050565b5f6020820190506131a75f830184613185565b92915050565b5f604051905090565b5f5ffd5b5f5ffd5b6131c78161317c565b81146131d1575f5ffd5b50565b5f813590506131e2816131be565b92915050565b5f5f5f5f60808587031215613200576131ff6131b6565b5b5f61320d878288016131d4565b945050602061321e878288016131d4565b935050604061322f878288016131d4565b9250506060613240878288016131d4565b91505092959194509250565b5f81519050919050565b5f82825260208201905092915050565b5f819050602082019050919050565b61327e8161317c565b82525050565b5f81519050919050565b5f82825260208201905092915050565b8281835e5f83830152505050565b5f601f19601f8301169050919050565b5f6132c682613284565b6132d0818561328e565b93506132e081856020860161329e565b6132e9816132ac565b840191505092915050565b5f73ffffffffffffffffffffffffffffffffffffffff82169050919050565b5f61331d826132f4565b9050919050565b61332d81613313565b82525050565b5f608083015f8301516133485f860182613275565b506020830151848203602086015261336082826132bc565b9150506040830151848203604086015261337a82826132bc565b915050606083015161338f6060860182613324565b508091505092915050565b5f6133a58383613333565b905092915050565b5f602082019050919050565b5f6133c38261324c565b6133cd8185613256565b9350836020820285016133df85613266565b805f5b8581101561341a57848403895281516133fb858261339a565b9450613406836133ad565b925060208a019950506001810190506133e2565b50829750879550505050505092915050565b5f6020820190508181035f83015261344481846133b9565b905092915050565b5f5ffd5b5f5ffd5b7f4e487b71000000000000000000000000000000000000000000000000000000005f52604160045260245ffd5b61348a826132ac565b810181811067ffffffffffffffff821117156134a9576134a8613454565b5b80604052505050565b5f6134bb6131ad565b90506134c78282613481565b919050565b5f67ffffffffffffffff8211156134e6576134e5613454565b5b6134ef826132ac565b9050602081019050919050565b828183375f83830152505050565b5f61351c613517846134cc565b6134b2565b90508281526020810184848401111561353857613537613450565b5b6135438482856134fc565b509392505050565b5f82601f83011261355f5761355e61344c565b5b813561356f84826020860161350a565b91505092915050565b5f5f5f5f5f60a08688031215613591576135906131b6565b5b5f61359e888289016131d4565b95505060206135af888289016131d4565b94505060406135c0888289016131d4565b935050606086013567ffffffffffffffff8111156135e1576135e06131ba565b5b6135ed8882890161354b565b925050608086013567ffffffffffffffff81111561360e5761360d6131ba565b5b61361a8882890161354b565b9150509295509295909350565b5f5f6040838503121561363d5761363c6131b6565b5b5f61364a858286016131d4565b925050602061365b858286016131d4565b9150509250929050565b61366e81613313565b82525050565b5f6020820190506136875f830184613665565b92915050565b5f81519050919050565b5f82825260208201905092915050565b5f819050602082019050919050565b5f606083015f8301516136cb5f860182613275565b50602083015184820360208601526136e382826132bc565b915050604083015184820360408601526136fd82826132bc565b9150508091505092915050565b5f61371583836136b6565b905092915050565b5f602082019050919050565b5f6137338261368d565b61373d8185613697565b93508360208202850161374f856136a7565b805f5b8581101561378a578484038952815161376b858261370a565b94506137768361371d565b925060208a01995050600181019050613752565b50829750879550505050505092915050565b5f6020820190508181035f8301526137b48184613729565b905092915050565b5f5f5f606084860312156137d3576137d26131b6565b5b5f6137e0868287016131d4565b93505060206137f1868287016131d4565b9250506040613802868287016131d4565b9150509250925092565b5f60208284031215613821576138206131b6565b5b5f61382e848285016131d4565b91505092915050565b61384081613313565b811461384a575f5ffd5b50565b5f8135905061385b81613837565b92915050565b5f60208284031215613876576138756131b6565b5b5f6138838482850161384d565b91505092915050565b5f5f5f5f608085870312156138a4576138a36131b6565b5b5f6138b1878288016131d4565b94505060206138c2878288016131d4565b935050604085013567ffffffffffffffff8111156138e3576138e26131ba565b5b6138ef8782880161354b565b925050606085013567ffffffffffffffff8111156139105761390f6131ba565b5b61391c8782880161354b565b91505092959194509250565b5f8115159050919050565b61393c81613928565b82525050565b5f6020820190506139555f830184613933565b92915050565b5f67ffffffffffffffff82111561397557613974613454565b5b602082029050602081019050919050565b5f5ffd5b5f61399c6139978461395b565b6134b2565b905080838252602082019050602084028301858111156139bf576139be613986565b5b835b818110156139e857806139d488826131d4565b8452602084019350506020810190506139c1565b5050509392505050565b5f82601f830112613a0657613a0561344c565b5b8135613a1684826020860161398a565b91505092915050565b613a2881613928565b8114613a32575f5ffd5b50565b5f81359050613a4381613a1f565b92915050565b5f5f5f5f5f5f5f60e0888a031215613a6457613a636131b6565b5b5f613a718a828b016131d4565b975050602088013567ffffffffffffffff811115613a9257613a916131ba565b5b613a9e8a828b0161354b565b965050604088013567ffffffffffffffff811115613abf57613abe6131ba565b5b613acb8a828b0161354b565b955050606088013567ffffffffffffffff811115613aec57613aeb6131ba565b5b613af88a828b016139f2565b945050608088013567ffffffffffffffff811115613b1957613b186131ba565b5b613b258a828b016139f2565b93505060a0613b368a828b01613a35565b92505060c0613b478a828b01613a35565b91505092959891949750929550565b5f5f5f5f5f60a08688031215613b6f57613b6e6131b6565b5b5f613b7c888289016131d4565b9550506020613b8d88828901613a35565b945050604086013567ffffffffffffffff811115613bae57613bad6131ba565b5b613bba8882890161354b565b935050606086013567ffffffffffffffff811115613bdb57613bda6131ba565b5b613be78882890161354b565b9250506080613bf88882890161384d565b9150509295509295909350565b5f5f60408385031215613c1b57613c1a6131b6565b5b5f613c28858286016131d4565b9250506020613c398582860161384d565b9150509250929050565b5f5f5f5f5f60a08688031215613c5c57613c5b6131b6565b5b5f613c69888289016131d4565b9550506020613c7a8882890161384d565b9450506040613c8b888289016131d4565b935050606086013567ffffffffffffffff811115613cac57613cab6131ba565b5b613cb88882890161354b565b925050608086013567ffffffffffffffff811115613cd957613cd86131ba565b5b613ce58882890161354b565b9150509295509295909350565b5f5f5f5f5f5f60c08789031215613d0c57613d0b6131b6565b5b5f613d1989828a016131d4565b9650506020613d2a89828a016131d4565b955050604087013567ffffffffffffffff811115613d4b57613d4a6131ba565b5b613d5789828a0161354b565b945050606087013567ffffffffffffffff811115613d7857613d776131ba565b5b613d8489828a0161354b565b9350506080613d9589828a01613a35565b92505060a0613da689828a01613a35565b9150509295509295509295565b5f81519050919050565b5f82825260208201905092915050565b5f819050602082019050919050565b613de581613928565b82525050565b5f61012083015f8301518482035f860152613e0682826136b6565b9150506020830151613e1b6020860182613275565b506040830151613e2e6040860182613275565b506060830151613e416060860182613275565b506080830151613e546080860182613ddc565b5060a0830151613e6760a0860182613ddc565b5060c0830151613e7a60c0860182613ddc565b5060e0830151613e8d60e0860182613ddc565b50610100830151613ea2610100860182613ddc565b508091505092915050565b5f613eb88383613deb565b905092915050565b5f602082019050919050565b5f613ed682613db3565b613ee08185613dbd565b935083602082028501613ef285613dcd565b805f5b85811015613f2d5784840389528151613f0e8582613ead565b9450613f1983613ec0565b925060208a01995050600181019050613ef5565b50829750879550505050505092915050565b5f6020820190508181035f830152613f578184613ecc565b905092915050565b5f5f5f5f5f5f60c08789031215613f7957613f786131b6565b5b5f613f8689828a016131d4565b9650506020613f9789828a016131d4565b9550506040613fa889828a016131d4565b9450506060613fb989828a016131d4565b935050608087013567ffffffffffffffff811115613fda57613fd96131ba565b5b613fe689828a0161354b565b92505060a087013567ffffffffffffffff811115614007576140066131ba565b5b61401389828a0161354b565b9150509295509295509295565b7f4e487b71000000000000000000000000000000000000000000000000000000005f52601160045260245ffd5b5f6140578261317c565b91506140628361317c565b925082820190508082111561407a57614079614020565b5b92915050565b7f4e487b71000000000000000000000000000000000000000000000000000000005f52603260045260245ffd5b7f4e487b71000000000000000000000000000000000000000000000000000000005f52602260045260245ffd5b5f60028204905060018216806140f157607f821691505b602082108103614104576141036140ad565b5b50919050565b5f819050815f5260205f209050919050565b5f6020601f8301049050919050565b5f82821b905092915050565b5f600883026141667fffffffffffffffffffffffffffffffffffffffffffffffffffffffffffffffff8261412b565b614170868361412b565b95508019841693508086168417925050509392505050565b5f819050919050565b5f6141ab6141a66141a18461317c565b614188565b61317c565b9050919050565b5f819050919050565b6141c483614191565b6141d86141d0826141b2565b848454614137565b825550505050565b5f5f905090565b6141ef6141e0565b6141fa8184846141bb565b505050565b5b8181101561421d576142125f826141e7565b600181019050614200565b5050565b601f821115614262576142338161410a565b61423c8461411c565b8101602085101561424b578190505b61425f6142578561411c565b8301826141ff565b50505b505050565b5f82821c905092915050565b5f6142825f1984600802614267565b1980831691505092915050565b5f61429a8383614273565b9150826002028217905092915050565b6142b382613284565b67ffffffffffffffff8111156142cc576142cb613454565b5b6142d682546140da565b6142e1828285614221565b5f60209050601f831160018114614312575f8415614300578287015190505b61430a858261428f565b865550614371565b601f1984166143208661410a565b5f5b8281101561434757848901518255600182019150602085019450602081019050614322565b868310156143645784890151614360601f891682614273565b8355505b6001600288020188555050505b505050505050565b5f6143838261317c565b91507fffffffffffffffffffffffffffffffffffffffffffffffffffffffffffffffff82036143b5576143b4614020565b5b600182019050919050565b5f6040820190506143d35f830185613185565b6143e06020830184613185565b9392505050565b5f6143f18261317c565b91506143fc8361317c565b925082820390508181111561441457614413614020565b5b92915050565b5f6144248261317c565b91505f820361443657614435614020565b5b600182039050919050565b5f61444b8261317c565b91506144568361317c565b92508282026144648161317c565b9150828204841483151761447b5761447a614020565b5b5092915050565b5f6060820190506144955f830186613185565b6144a26020830185613185565b6144af6040830184613185565b949350505050565b5f6040820190506144ca5f830185613185565b6144d76020830184613665565b9392505050565b7f4e487b71000000000000000000000000000000000000000000000000000000005f52603160045260245ffdfea2646970667358221220dcec530115bd48528891fb8c3c86bb2ac872c9dcc30544020aaf2ef64083321a64736f6c634300081c0033",
  "linkReferences": {},
  "deployedLinkReferences": {},
  "immutableReferences": {},
  "inputSourceName": "project/contracts/AccountConfig.sol",
  "buildInfoId": "solc-0_8_28-f1e76cd3f40f72de899e98951319c48d6baa9a4f"
}