{
  "_format": "hh3-artifact-1",
  "contractName": "AccountConfig",
  "sourceName": "contracts/AccountConfig.sol",
  "abi": [
    {
      "inputs": [],
      "stateMutability": "nonpayable",
      "type": "constructor"
    },
    {
      "inputs": [
        {
          "internalType": "uint256",
          "name": "apiKeyHash",
          "type": "uint256"
        }
      ],
      "name": "AccountAlreadyExists",
      "type": "error"
    },
    {
      "inputs": [
        {
          "internalType": "uint256",
          "name": "apiKeyHash",
          "type": "uint256"
        }
      ],
      "name": "AccountDoesNotExist",
      "type": "error"
    },
    {
      "inputs": [
        {
          "internalType": "uint256",
          "name": "apiKeyHash",
          "type": "uint256"
        },
        {
          "internalType": "uint256",
          "name": "groupId",
          "type": "uint256"
        },
        {
          "internalType": "uint256",
          "name": "action",
          "type": "uint256"
        }
      ],
      "name": "ActionDoesNotExist",
      "type": "error"
    },
    {
      "inputs": [
        {
          "internalType": "uint256",
          "name": "apiKeyHash",
          "type": "uint256"
        },
        {
          "internalType": "uint256",
          "name": "groupId",
          "type": "uint256"
        }
      ],
      "name": "GroupDoesNotExist",
      "type": "error"
    },
    {
      "inputs": [
        {
          "internalType": "uint256",
          "name": "apiKeyHash",
          "type": "uint256"
        },
        {
          "internalType": "uint256",
          "name": "amount",
          "type": "uint256"
        }
      ],
      "name": "InsufficientBalance",
      "type": "error"
    },
    {
      "inputs": [
        {
          "internalType": "uint256",
          "name": "apiKeyHash",
          "type": "uint256"
        },
        {
          "internalType": "address",
          "name": "sender",
          "type": "address"
        }
      ],
      "name": "NoAccountAccess",
      "type": "error"
    },
    {
      "inputs": [
        {
          "internalType": "uint256",
          "name": "apiKeyHash",
          "type": "uint256"
        }
      ],
      "name": "NotMasterAccount",
      "type": "error"
    },
    {
      "inputs": [
        {
          "internalType": "address",
          "name": "caller",
          "type": "address"
        }
      ],
      "name": "OnlyApiPayer",
      "type": "error"
    },
    {
      "inputs": [
        {
          "internalType": "address",
          "name": "caller",
          "type": "address"
        }
      ],
      "name": "OnlyApiPayerOrOwner",
      "type": "error"
    },
    {
      "inputs": [
        {
          "internalType": "address",
          "name": "caller",
          "type": "address"
        }
      ],
      "name": "OnlyApiPayerOrPricingOperator",
      "type": "error"
    },
    {
      "inputs": [
        {
          "internalType": "uint256",
          "name": "apiKeyHash",
          "type": "uint256"
        },
        {
          "internalType": "uint256",
          "name": "usageApiKeyHash",
          "type": "uint256"
        }
      ],
      "name": "UsageApiKeyDoesNotExist",
      "type": "error"
    },
    {
      "inputs": [
        {
          "internalType": "uint256",
          "name": "apiKeyHash",
          "type": "uint256"
        },
        {
          "internalType": "uint256",
          "name": "groupId",
          "type": "uint256"
        },
        {
          "internalType": "uint256",
          "name": "Wallet",
          "type": "uint256"
        }
      ],
      "name": "WalletDoesNotExist",
      "type": "error"
    },
    {
      "inputs": [],
      "name": "accountCount",
      "outputs": [
        {
          "internalType": "uint256",
          "name": "",
          "type": "uint256"
        }
      ],
      "stateMutability": "view",
      "type": "function"
    },
    {
      "inputs": [
        {
          "internalType": "uint256",
          "name": "apiKeyHash",
          "type": "uint256"
        }
      ],
      "name": "accountExistsAndIsMutable",
      "outputs": [
        {
          "internalType": "bool",
          "name": "",
          "type": "bool"
        }
      ],
      "stateMutability": "view",
      "type": "function"
    },
    {
      "inputs": [
        {
          "internalType": "uint256",
          "name": "accountApiKeyHash",
          "type": "uint256"
        },
        {
          "internalType": "uint256",
          "name": "groupId",
          "type": "uint256"
        },
        {
          "internalType": "uint256",
          "name": "action",
          "type": "uint256"
        },
        {
          "internalType": "string",
          "name": "name",
          "type": "string"
        },
        {
          "internalType": "string",
          "name": "description",
          "type": "string"
        }
      ],
      "name": "addActionToGroup",
      "outputs": [],
      "stateMutability": "nonpayable",
      "type": "function"
    },
    {
      "inputs": [
        {
          "internalType": "uint256",
          "name": "accountApiKeyHash",
          "type": "uint256"
        },
        {
          "internalType": "uint256",
          "name": "usageApiKeyHash",
          "type": "uint256"
        },
        {
          "internalType": "uint256",
          "name": "expiration",
          "type": "uint256"
        },
        {
          "internalType": "uint256",
          "name": "balance",
          "type": "uint256"
        },
        {
          "internalType": "string",
          "name": "name",
          "type": "string"
        },
        {
          "internalType": "string",
          "name": "description",
          "type": "string"
        }
      ],
      "name": "addApiKey",
      "outputs": [],
      "stateMutability": "nonpayable",
      "type": "function"
    },
    {
      "inputs": [
        {
          "internalType": "uint256",
          "name": "accountApiKeyHash",
          "type": "uint256"
        },
        {
          "internalType": "string",
          "name": "name",
          "type": "string"
        },
        {
          "internalType": "string",
          "name": "description",
          "type": "string"
        },
        {
          "internalType": "uint256[]",
          "name": "permitted_actions",
          "type": "uint256[]"
        },
        {
          "internalType": "uint256[]",
          "name": "Wallets",
          "type": "uint256[]"
        },
        {
          "internalType": "bool",
          "name": "all_wallets_permitted",
          "type": "bool"
        },
        {
          "internalType": "bool",
          "name": "all_actions_permitted",
          "type": "bool"
        }
      ],
      "name": "addGroup",
      "outputs": [],
      "stateMutability": "nonpayable",
      "type": "function"
    },
    {
      "inputs": [
        {
          "internalType": "uint256",
          "name": "accountApiKeyHash",
          "type": "uint256"
        },
        {
          "internalType": "uint256",
          "name": "groupId",
          "type": "uint256"
        },
        {
          "internalType": "uint256",
          "name": "walletAddressHash",
          "type": "uint256"
        }
      ],
      "name": "addWalletToGroup",
      "outputs": [],
      "stateMutability": "nonpayable",
      "type": "function"
    },
    {
      "inputs": [],
      "name": "adminApiPayerAccount",
      "outputs": [
        {
          "internalType": "address",
          "name": "",
          "type": "address"
        }
      ],
      "stateMutability": "view",
      "type": "function"
    },
    {
      "inputs": [
        {
          "internalType": "uint256",
          "name": "index",
          "type": "uint256"
        }
      ],
      "name": "allWalletAddressesAt",
      "outputs": [
        {
          "internalType": "address",
          "name": "",
          "type": "address"
        }
      ],
      "stateMutability": "view",
      "type": "function"
    },
    {
      "inputs": [],
      "name": "apiPayerCount",
      "outputs": [
        {
          "internalType": "uint256",
          "name": "",
          "type": "uint256"
        }
      ],
      "stateMutability": "view",
      "type": "function"
    },
    {
      "inputs": [],
      "name": "api_payers",
      "outputs": [
        {
          "internalType": "address[]",
          "name": "",
          "type": "address[]"
        }
      ],
      "stateMutability": "view",
      "type": "function"
    },
    {
      "inputs": [
        {
          "internalType": "uint256",
          "name": "apiKeyHash",
          "type": "uint256"
        },
        {
          "internalType": "uint256",
          "name": "amount",
          "type": "uint256"
        }
      ],
      "name": "creditApiKey",
      "outputs": [],
      "stateMutability": "nonpayable",
      "type": "function"
    },
    {
      "inputs": [
        {
          "internalType": "uint256",
          "name": "apiKeyHash",
          "type": "uint256"
        },
        {
          "internalType": "uint256",
          "name": "amount",
          "type": "uint256"
        }
      ],
      "name": "debitApiKey",
      "outputs": [],
      "stateMutability": "nonpayable",
      "type": "function"
    },
    {
      "inputs": [
        {
          "internalType": "uint256",
          "name": "pricingItemId",
          "type": "uint256"
        }
      ],
      "name": "getPricing",
      "outputs": [
        {
          "internalType": "uint256",
          "name": "",
          "type": "uint256"
        }
      ],
      "stateMutability": "view",
      "type": "function"
    },
    {
      "inputs": [
        {
          "internalType": "uint256",
          "name": "apiKeyHash",
          "type": "uint256"
        },
        {
          "internalType": "address",
          "name": "walletAddress",
          "type": "address"
        }
      ],
      "name": "getWalletDerivation",
      "outputs": [
        {
          "internalType": "uint256",
          "name": "",
          "type": "uint256"
        }
      ],
      "stateMutability": "view",
      "type": "function"
    },
    {
      "inputs": [
        {
          "internalType": "uint256",
          "name": "index",
          "type": "uint256"
        }
      ],
      "name": "indexToAccountHashAt",
      "outputs": [
        {
          "internalType": "uint256",
          "name": "",
          "type": "uint256"
        }
      ],
      "stateMutability": "view",
      "type": "function"
    },
    {
      "inputs": [
        {
          "internalType": "uint256",
          "name": "accountApiKeyHash",
          "type": "uint256"
        },
        {
          "internalType": "uint256",
          "name": "groupId",
          "type": "uint256"
        },
        {
          "internalType": "uint256",
          "name": "pageNumber",
          "type": "uint256"
        },
        {
          "internalType": "uint256",
          "name": "pageSize",
          "type": "uint256"
        }
      ],
      "name": "listActions",
      "outputs": [
        {
          "components": [
            {
              "internalType": "uint256",
              "name": "id",
              "type": "uint256"
            },
            {
              "internalType": "string",
              "name": "name",
              "type": "string"
            },
            {
              "internalType": "string",
              "name": "description",
              "type": "string"
            }
          ],
          "internalType": "struct LibAccountConfigStorage.Metadata[]",
          "name": "",
          "type": "tuple[]"
        }
      ],
      "stateMutability": "view",
      "type": "function"
    },
    {
      "inputs": [
        {
          "internalType": "uint256",
          "name": "accountApiKeyHash",
          "type": "uint256"
        },
        {
          "internalType": "uint256",
          "name": "pageNumber",
          "type": "uint256"
        },
        {
          "internalType": "uint256",
          "name": "pageSize",
          "type": "uint256"
        }
      ],
      "name": "listApiKeys",
      "outputs": [
        {
          "components": [
            {
              "components": [
                {
                  "internalType": "uint256",
                  "name": "id",
                  "type": "uint256"
                },
                {
                  "internalType": "string",
                  "name": "name",
                  "type": "string"
                },
                {
                  "internalType": "string",
                  "name": "description",
                  "type": "string"
                }
              ],
              "internalType": "struct LibAccountConfigStorage.Metadata",
              "name": "metadata",
              "type": "tuple"
            },
            {
              "internalType": "uint256",
              "name": "apiKeyHash",
              "type": "uint256"
            },
            {
              "internalType": "uint256",
              "name": "expiration",
              "type": "uint256"
            },
            {
              "internalType": "uint256",
              "name": "balance",
              "type": "uint256"
            },
            {
              "internalType": "bool",
              "name": "runActions",
              "type": "bool"
            },
            {
              "internalType": "bool",
              "name": "manageGroups",
              "type": "bool"
            },
            {
              "internalType": "bool",
              "name": "manageWallets",
              "type": "bool"
            },
            {
              "internalType": "bool",
              "name": "manageIPFSIds",
              "type": "bool"
            },
            {
              "internalType": "bool",
              "name": "manageUsageApiKeys",
              "type": "bool"
            }
          ],
          "internalType": "struct LibAccountConfigStorage.UsageApiKey[]",
          "name": "",
          "type": "tuple[]"
        }
      ],
      "stateMutability": "view",
      "type": "function"
    },
    {
      "inputs": [
        {
          "internalType": "uint256",
          "name": "accountApiKeyHash",
          "type": "uint256"
        },
        {
          "internalType": "uint256",
          "name": "pageNumber",
          "type": "uint256"
        },
        {
          "internalType": "uint256",
          "name": "pageSize",
          "type": "uint256"
        }
      ],
      "name": "listGroups",
      "outputs": [
        {
          "components": [
            {
              "internalType": "uint256",
              "name": "id",
              "type": "uint256"
            },
            {
              "internalType": "string",
              "name": "name",
              "type": "string"
            },
            {
              "internalType": "string",
              "name": "description",
              "type": "string"
            }
          ],
          "internalType": "struct LibAccountConfigStorage.Metadata[]",
          "name": "",
          "type": "tuple[]"
        }
      ],
      "stateMutability": "view",
      "type": "function"
    },
    {
      "inputs": [
        {
          "internalType": "uint256",
          "name": "accountApiKeyHash",
          "type": "uint256"
        },
        {
          "internalType": "uint256",
          "name": "pageNumber",
          "type": "uint256"
        },
        {
          "internalType": "uint256",
          "name": "pageSize",
          "type": "uint256"
        }
      ],
      "name": "listWallets",
      "outputs": [
        {
          "components": [
            {
              "internalType": "uint256",
              "name": "id",
              "type": "uint256"
            },
            {
              "internalType": "string",
              "name": "name",
              "type": "string"
            },
            {
              "internalType": "string",
              "name": "description",
              "type": "string"
            },
            {
              "internalType": "address",
              "name": "walletAddress",
              "type": "address"
            }
          ],
          "internalType": "struct LibAccountConfigStorage.WalletData[]",
          "name": "",
          "type": "tuple[]"
        }
      ],
      "stateMutability": "view",
      "type": "function"
    },
    {
      "inputs": [
        {
          "internalType": "uint256",
          "name": "accountApiKeyHash",
          "type": "uint256"
        },
        {
          "internalType": "uint256",
          "name": "groupId",
          "type": "uint256"
        },
        {
          "internalType": "uint256",
          "name": "pageNumber",
          "type": "uint256"
        },
        {
          "internalType": "uint256",
          "name": "pageSize",
          "type": "uint256"
        }
      ],
      "name": "listWalletsInGroup",
      "outputs": [
        {
          "components": [
            {
              "internalType": "uint256",
              "name": "id",
              "type": "uint256"
            },
            {
              "internalType": "string",
              "name": "name",
              "type": "string"
            },
            {
              "internalType": "string",
              "name": "description",
              "type": "string"
            },
            {
              "internalType": "address",
              "name": "walletAddress",
              "type": "address"
            }
          ],
          "internalType": "struct LibAccountConfigStorage.WalletData[]",
          "name": "",
          "type": "tuple[]"
        }
      ],
      "stateMutability": "view",
      "type": "function"
    },
    {
      "inputs": [
        {
          "internalType": "uint256",
          "name": "apiKeyHash",
          "type": "uint256"
        },
        {
          "internalType": "bool",
          "name": "managed",
          "type": "bool"
        },
        {
          "internalType": "string",
          "name": "accountName",
          "type": "string"
        },
        {
          "internalType": "string",
          "name": "accountDescription",
          "type": "string"
        },
        {
          "internalType": "address",
          "name": "creatorWalletAddress",
          "type": "address"
        }
      ],
      "name": "newAccount",
      "outputs": [],
      "stateMutability": "nonpayable",
      "type": "function"
    },
    {
      "inputs": [],
      "name": "owner",
      "outputs": [
        {
          "internalType": "address",
          "name": "",
          "type": "address"
        }
      ],
      "stateMutability": "view",
      "type": "function"
    },
    {
      "inputs": [],
      "name": "owner",
      "outputs": [
        {
          "internalType": "address",
          "name": "",
          "type": "address"
        }
      ],
      "stateMutability": "view",
      "type": "function"
    },
    {
      "inputs": [
        {
          "internalType": "uint256",
          "name": "index",
          "type": "uint256"
        }
      ],
      "name": "pricingAt",
      "outputs": [
        {
          "internalType": "uint256",
          "name": "",
          "type": "uint256"
        }
      ],
      "stateMutability": "view",
      "type": "function"
    },
    {
      "inputs": [],
      "name": "pricingOperator",
      "outputs": [
        {
          "internalType": "address",
          "name": "",
          "type": "address"
        }
      ],
      "stateMutability": "view",
      "type": "function"
    },
    {
      "inputs": [],
      "name": "rebalanceAmount",
      "outputs": [
        {
          "internalType": "uint256",
          "name": "",
          "type": "uint256"
        }
      ],
      "stateMutability": "view",
      "type": "function"
    },
    {
      "inputs": [
        {
          "internalType": "uint256",
          "name": "accountApiKeyHash",
          "type": "uint256"
        },
        {
          "internalType": "address",
          "name": "walletAddress",
          "type": "address"
        },
        {
          "internalType": "uint256",
          "name": "derivationPath",
          "type": "uint256"
        },
        {
          "internalType": "string",
          "name": "name",
          "type": "string"
        },
        {
          "internalType": "string",
          "name": "description",
          "type": "string"
        }
      ],
      "name": "registerWalletDerivation",
      "outputs": [],
      "stateMutability": "nonpayable",
      "type": "function"
    },
    {
      "inputs": [
        {
          "internalType": "uint256",
          "name": "accountApiKeyHash",
          "type": "uint256"
        },
        {
          "internalType": "uint256",
          "name": "groupId",
          "type": "uint256"
        },
        {
          "internalType": "uint256",
          "name": "action",
          "type": "uint256"
        }
      ],
      "name": "removeActionFromGroup",
      "outputs": [],
      "stateMutability": "nonpayable",
      "type": "function"
    },
    {
      "inputs": [
        {
          "internalType": "uint256",
          "name": "accountApiKeyHash",
          "type": "uint256"
        },
        {
          "internalType": "uint256",
          "name": "usageApiKeyHash",
          "type": "uint256"
        }
      ],
      "name": "removeUsageApiKey",
      "outputs": [],
      "stateMutability": "nonpayable",
      "type": "function"
    },
    {
      "inputs": [
        {
          "internalType": "uint256",
          "name": "accountApiKeyHash",
          "type": "uint256"
        },
        {
          "internalType": "uint256",
          "name": "groupId",
          "type": "uint256"
        },
        {
          "internalType": "uint256",
          "name": "walletAddressHash",
          "type": "uint256"
        }
      ],
      "name": "removeWalletFromGroup",
      "outputs": [],
      "stateMutability": "nonpayable",
      "type": "function"
    },
    {
      "inputs": [],
      "name": "requestedApiPayerCount",
      "outputs": [
        {
          "internalType": "uint256",
          "name": "",
          "type": "uint256"
        }
      ],
      "stateMutability": "view",
      "type": "function"
    },
    {
      "inputs": [
        {
          "internalType": "address",
          "name": "newAdminApiPayerAccount",
          "type": "address"
        }
      ],
      "name": "setAdminApiPayerAccount",
      "outputs": [],
      "stateMutability": "nonpayable",
      "type": "function"
    },
    {
      "inputs": [
        {
          "internalType": "address[]",
          "name": "newApiPayers",
          "type": "address[]"
        }
      ],
      "name": "setApiPayers",
      "outputs": [],
      "stateMutability": "nonpayable",
      "type": "function"
    },
    {
      "inputs": [
        {
          "internalType": "address",
          "name": "newApiPayer",
          "type": "address"
        }
      ],
      "name": "setApiPayer",
      "outputs": [],
      "stateMutability": "nonpayable",
      "type": "function"
    },
    {
      "inputs": [
        {
          "internalType": "uint256",
          "name": "pricingItemId",
          "type": "uint256"
        },
        {
          "internalType": "uint256",
          "name": "price",
          "type": "uint256"
        }
      ],
      "name": "setPricing",
      "outputs": [],
      "stateMutability": "nonpayable",
      "type": "function"
    },
    {
      "inputs": [
        {
          "internalType": "address",
          "name": "newPricingOperator",
          "type": "address"
        }
      ],
      "name": "setPricingOperator",
      "outputs": [],
      "stateMutability": "nonpayable",
      "type": "function"
    },
    {
      "inputs": [
        {
          "internalType": "uint256",
          "name": "newRebalanceAmount",
          "type": "uint256"
        }
      ],
      "name": "setRebalanceAmount",
      "outputs": [],
      "stateMutability": "nonpayable",
      "type": "function"
    },
    {
      "inputs": [
        {
          "internalType": "uint256",
          "name": "newRequestedApiPayerCount",
          "type": "uint256"
        }
      ],
      "name": "setRequestedApiPayerCount",
      "outputs": [],
      "stateMutability": "nonpayable",
      "type": "function"
    },
    {
      "inputs": [
        {
          "internalType": "uint256",
          "name": "accountApiKeyHash",
          "type": "uint256"
        },
        {
          "internalType": "uint256",
          "name": "actionHash",
          "type": "uint256"
        },
        {
          "internalType": "uint256",
          "name": "groupId",
          "type": "uint256"
        },
        {
          "internalType": "string",
          "name": "name",
          "type": "string"
        },
        {
          "internalType": "string",
          "name": "description",
          "type": "string"
        }
      ],
      "name": "updateActionMetadata",
      "outputs": [],
      "stateMutability": "nonpayable",
      "type": "function"
    },
    {
      "inputs": [
        {
          "internalType": "uint256",
          "name": "accountApiKeyHash",
          "type": "uint256"
        },
        {
          "internalType": "uint256",
          "name": "groupId",
          "type": "uint256"
        },
        {
          "internalType": "string",
          "name": "name",
          "type": "string"
        },
        {
          "internalType": "string",
          "name": "description",
          "type": "string"
        },
        {
          "internalType": "bool",
          "name": "all_wallets_permitted",
          "type": "bool"
        },
        {
          "internalType": "bool",
          "name": "all_actions_permitted",
          "type": "bool"
        }
      ],
      "name": "updateGroup",
      "outputs": [],
      "stateMutability": "nonpayable",
      "type": "function"
    },
    {
      "inputs": [
        {
          "internalType": "uint256",
          "name": "accountApiKeyHash",
          "type": "uint256"
        },
        {
          "internalType": "uint256",
          "name": "usageApiKeyHash",
          "type": "uint256"
        },
        {
          "internalType": "string",
          "name": "name",
          "type": "string"
        },
        {
          "internalType": "string",
          "name": "description",
          "type": "string"
        }
      ],
      "name": "updateUsageApiKeyMetadata",
      "outputs": [],
      "stateMutability": "nonpayable",
      "type": "function"
    },
    {
      "inputs": [],
      "name": "walletCount",
      "outputs": [
        {
          "internalType": "uint256",
          "name": "",
          "type": "uint256"
        }
      ],
      "stateMutability": "view",
      "type": "function"
    }
  ],
  "bytecode": "0x608060405234801561000f575f5ffd5b5061001e61002360201b60201c565b6101fe565b5f61003261013260201b60201c565b90505f6100478260050161015e60201b60201c565b14610087576040517f08c379a000000000000000000000000000000000000000000000000000000000815260040161007e906101e0565b60405180910390fd5b33816008015f6101000a81548173ffffffffffffffffffffffffffffffffffffffff021916908373ffffffffffffffffffffffffffffffffffffffff16021790555033816007015f6101000a81548173ffffffffffffffffffffffffffffffffffffffff021916908373ffffffffffffffffffffffffffffffffffffffff1602179055506001816004015f600181526020019081526020015f2081905550600381600c018190555050565b5f5f7f171def12e82c8f3351e4c79b7854be19ad60a75b888f74b9660c07cd7461963390508091505090565b5f610170825f0161017760201b60201c565b9050919050565b5f815f01805490509050919050565b5f82825260208201905092915050565b7f616c726561647920696e697469616c697a6564000000000000000000000000005f82015250565b5f6101ca601383610186565b91506101d582610196565b602082019050919050565b5f6020820190508181035f8301526101f7816101be565b9050919050565b6149918061020b5f395ff3fe608060405234801561000f575f5ffd5b5060043610610246575f3560e01c80639214155211610139578063c5f5b984116100b6578063e4af29fc1161007a578063e4af29fc146106f6578063e6ad292814610714578063f75c8b2d14610730578063fdbfc9b714610760578063fec99aef1461077c57610246565b8063c5f5b98414610640578063c704668c1461065c578063ca05588a1461068c578063cb53ad26146106a8578063ccb78fb6146106c657610246565b8063b8037ffe116100fd578063b8037ffe1461058a578063bac710ea146105a8578063c001bc79146105c4578063c12f1a42146105e0578063c1aff8991461061057610246565b806392141552146104fc57806393c8bc431461051857806396a7cc5414610536578063a6b6b67214610552578063ae8c49a51461056e57610246565b8063683f2de8116101c7578063749e4d071161018b578063749e4d071461044657806379312245146104625780637af361ef1461047e5780638da5cb5b146104ae57806390222cad146104cc57610246565b8063683f2de8146103925780636a3d77a9146103ae5780636e06ac9c146103ca5780636fe1fb84146103e6578063719fac431461041657610246565b8063383603fe1161020e578063383603fe146102f057806340b4d4531461030e578063520678591461032a578063542970ed146103465780635d861c721461037657610246565b8063291ff1ea1461024a57806329b57c691461027a5780632fa92e41146102985780633150289b146102b457806334b7f87a146102d2575b5f5ffd5b610264600480360381019061025f9190613441565b610798565b6040516102719190613685565b60405180910390f35b610282610b4e565b60405161028f91906136b4565b60405180910390f35b6102b260048036038101906102ad91906137f9565b610b60565b005b6102bc610c40565b6040516102c991906136b4565b60405180910390f35b6102da610c52565b6040516102e791906136b4565b60405180910390f35b6102f8610c64565b60405161030591906138b7565b60405180910390f35b610328600480360381019061032391906138d0565b610c9a565b005b610344600480360381019061033f919061390e565b610d85565b005b610360600480360381019061035b9190613441565b610da6565b60405161036d9190613a48565b60405180910390f35b610390600480360381019061038b9190613a68565b610ff2565b005b6103ac60048036038101906103a791906138d0565b61107c565b005b6103c860048036038101906103c39190613ab8565b61111c565b005b6103e460048036038101906103df9190613a68565b6111b8565b005b61040060048036038101906103fb919061390e565b611220565b60405161040d91906136b4565b60405180910390f35b610430600480360381019061042b919061390e565b611243565b60405161043d9190613b6e565b60405180910390f35b610460600480360381019061045b9190613c75565b611255565b005b61047c60048036038101906104779190613dac565b6113e8565b005b61049860048036038101906104939190613a68565b61161c565b6040516104a59190613685565b60405180910390f35b6104b661198d565b6040516104c391906138b7565b60405180910390f35b6104e660048036038101906104e19190613e5b565b6119be565b6040516104f391906136b4565b60405180910390f35b61051660048036038101906105119190613e99565b611a16565b005b610520611c13565b60405161052d9190613ff0565b60405180910390f35b610550600480360381019061054b9190614010565b611c32565b005b61056c600480360381019061056791906137f9565b611ce0565b005b61058860048036038101906105839190614191565b611d65565b005b610592611dd6565b60405161059f91906136b4565b60405180910390f35b6105c260048036038101906105bd9190613a68565b611def565b005b6105de60048036038101906105d991906141d8565b611e4d565b005b6105fa60048036038101906105f5919061390e565b611ea7565b60405161060791906136b4565b60405180910390f35b61062a6004803603810190610625919061390e565b611eca565b60405161063791906136b4565b60405180910390f35b61065a600480360381019061065591906138d0565b611eed565b005b61067660048036038101906106719190613a68565b612014565b604051610683919061438f565b60405180910390f35b6106a660048036038101906106a191906138d0565b612300565b005b6106b061232c565b6040516106bd91906138b7565b60405180910390f35b6106e060048036038101906106db919061390e565b61235d565b6040516106ed91906138b7565b60405180910390f35b6106fe61239f565b60405161070b91906136b4565b60405180910390f35b61072e600480360381019061072991906141d8565b6123b1565b005b61074a60048036038101906107459190613a68565b612406565b6040516107579190613a48565b60405180910390f35b61077a6004803603810190610775919061390e565b61263c565b005b610796600480360381019061079191906143af565b61265d565b005b60605f6107a4866127d3565b90505f6107af61285a565b90505f82600d015f8881526020019081526020015f2090505f5f6107df6107d884600501612886565b8989612899565b915091505f8167ffffffffffffffff8111156107fe576107fd6136d5565b5b60405190808252806020026020018201604052801561083757816020015b6108246132f5565b81526020019060019003908161081c5790505b5090505f5f90505b82811015610b3c575f6108698286610857919061449d565b8760050161290390919063ffffffff16565b90505f876003015f8381526020019081526020015f205f9054906101000a900473ffffffffffffffffffffffffffffffffffffffff169050808484815181106108b5576108b46144d0565b5b60200260200101516060019073ffffffffffffffffffffffffffffffffffffffff16908173ffffffffffffffffffffffffffffffffffffffff1681525050886012015f8273ffffffffffffffffffffffffffffffffffffffff1673ffffffffffffffffffffffffffffffffffffffff1681526020019081526020015f2060010180546109409061452a565b80601f016020809104026020016040519081016040528092919081815260200182805461096c9061452a565b80156109b75780601f1061098e576101008083540402835291602001916109b7565b820191905f5260205f20905b81548152906001019060200180831161099a57829003601f168201915b50505050508484815181106109cf576109ce6144d0565b5b602002602001015160200181905250886012015f8273ffffffffffffffffffffffffffffffffffffffff1673ffffffffffffffffffffffffffffffffffffffff1681526020019081526020015f206002018054610a2b9061452a565b80601f0160208091040260200160405190810160405280929190818152602001828054610a579061452a565b8015610aa25780601f10610a7957610100808354040283529160200191610aa2565b820191905f5260205f20905b815481529060010190602001808311610a8557829003601f168201915b5050505050848481518110610aba57610ab96144d0565b5b602002602001015160400181905250886012015f8273ffffffffffffffffffffffffffffffffffffffff1673ffffffffffffffffffffffffffffffffffffffff1681526020019081526020015f205f0154848481518110610b1e57610b1d6144d0565b5b60200260200101515f0181815250505050808060010191505061083f565b50809650505050505050949350505050565b5f610b5761285a565b60090154905090565b610b6a858561291a565b610b7385612931565b5f610b7c61285a565b90505f815f015f8881526020019081526020015f209050610bbb8582600d015f8981526020019081526020015f2060030161299790919063ffffffff16565b5084816010015f8781526020019081526020015f205f018190555083816010015f8781526020019081526020015f206001019081610bf991906146fa565b5082816010015f8781526020019081526020015f206002019081610c1d91906146fa565b50806015015f815480929190610c32906147c9565b919050555050505050505050565b5f610c4961285a565b600d0154905090565b5f610c5b61285a565b600c0154905090565b5f5f610c6e61285a565b905080600b015f9054906101000a900473ffffffffffffffffffffffffffffffffffffffff1691505090565b610ca3336129ae565b610cac826129c2565b610cb582612931565b5f610cbe61285a565b90505f816002015f8581526020019081526020015f205490505f825f015f8381526020019081526020015f2090505f85825f016003015414610d125781600a015f8781526020019081526020015f20610d16565b815f015b90508481600501541015610d635785856040517fcf479181000000000000000000000000000000000000000000000000000000008152600401610d5a929190614810565b60405180910390fd5b84816005015f828254610d769190614837565b92505081905550505050505050565b610d8e336129cf565b5f610d9761285a565b90508181600c01819055505050565b60605f610db2866127d3565b90505f81600d015f8781526020019081526020015f2090505f610dd782600301612886565b90505f5f610de6838989612899565b915091505f8167ffffffffffffffff811115610e0557610e046136d5565b5b604051908082528060200260200182016040528015610e3e57816020015b610e2b613331565b815260200190600190039081610e235790505b5090505f5f90505b82811015610fe057866010015f610e748387610e62919061449d565b8960030161290390919063ffffffff16565b81526020019081526020015f206040518060600160405290815f8201548152602001600182018054610ea59061452a565b80601f0160208091040260200160405190810160405280929190818152602001828054610ed19061452a565b8015610f1c5780601f10610ef357610100808354040283529160200191610f1c565b820191905f5260205f20905b815481529060010190602001808311610eff57829003601f168201915b50505050508152602001600282018054610f359061452a565b80601f0160208091040260200160405190810160405280929190818152602001828054610f619061452a565b8015610fac5780601f10610f8357610100808354040283529160200191610fac565b820191905f5260205f20905b815481529060010190602001808311610f8f57829003601f168201915b505050505081525050828281518110610fc857610fc76144d0565b5b60200260200101819052508080600101915050610e46565b50809650505050505050949350505050565b610ffd838383612aed565b61100683612931565b5f61100f61285a565b90505f815f015f8681526020019081526020015f20905061104e8382600d015f8781526020019081526020015f20600301612b8690919063ffffffff16565b505f8160150154111561107557806015015f81548092919061106f9061486a565b91905055505b5050505050565b611085336129ae565b61108e826129c2565b61109782612931565b5f6110a061285a565b90505f816002015f8581526020019081526020015f205490505f825f015f8381526020019081526020015f2090505f85825f0160030154146110f45781600a015f8781526020019081526020015f206110f8565b815f015b905084816005015f82825461110d919061449d565b92505081905550505050505050565b611125846129c2565b61112f8484612b9d565b61113884612931565b5f61114161285a565b905082815f015f8781526020019081526020015f20600a015f8681526020019081526020015f205f01600101908161117991906146fa565b5081815f015f8781526020019081526020015f20600a015f8681526020019081526020015f205f0160020190816111b091906146fa565b505050505050565b6111c1836129c2565b6111cc838383612c1a565b6111d583612931565b5f6111de61285a565b905061121982825f015f8781526020019081526020015f20600d015f8681526020019081526020015f20600501612b8690919063ffffffff16565b5050505050565b5f61122961285a565b6001015f8381526020019081526020015f20549050919050565b5f61124e8233612cb3565b9050919050565b61125e876129c2565b61126787612931565b5f61127061285a565b90505f815f015f8a81526020019081526020015f2090506112a1816016015482600b0161299790919063ffffffff16565b505f81600d015f836016015481526020019081526020015f2090508160160154815f015f018190555088815f0160010190816112dd91906146fa565b5087815f0160020190816112f191906146fa565b505f5f90505b875181101561133e57611330888281518110611316576113156144d0565b5b60200260200101518360030161299790919063ffffffff16565b5080806001019150506112f7565b505f5f90505b865181101561138b5761137d878281518110611363576113626144d0565b5b60200260200101518360050161299790919063ffffffff16565b508080600101915050611344565b5084816007015f6101000a81548160ff021916908315150217905550838160070160016101000a81548160ff021916908315150217905550816016015f8154809291906113d7906147c9565b919050555050505050505050505050565b6113f133612db9565b5f6113fa61285a565b90505f816002015f8881526020019081526020015f20541461145357856040517f8be1f3fb00000000000000000000000000000000000000000000000000000000815260040161144a91906136b4565b60405180910390fd5b5f815f015f8881526020019081526020015f20905085816013015f6101000a81548160ff02191690831515021790555082816007015f6101000a81548173ffffffffffffffffffffffffffffffffffffffff021916908373ffffffffffffffffffffffffffffffffffffffff16021790555086815f015f015f018190555084815f015f0160010190816114e691906146fa565b5083815f015f0160020190816114fc91906146fa565b505f815f016006015f6101000a81548160ff0219169083151502179055506001815f0160060160016101000a81548160ff0219169083151502179055506001815f0160060160026101000a81548160ff0219169083151502179055506001815f0160060160036101000a81548160ff0219169083151502179055506001815f0160060160046101000a81548160ff02191690831515021790555086815f01600301819055506312cc0300426115b1919061449d565b815f01600401819055505f815f016005018190555086826002015f8981526020019081526020015f208190555081600a015f8154809291906115f2906147c9565b919050555086826001015f84600a015481526020019081526020015f208190555050505050505050565b60605f611628856127d3565b90505f5f61163b83601401548787612899565b915091505f8167ffffffffffffffff81111561165a576116596136d5565b5b60405190808252806020026020018201604052801561169357816020015b6116806132f5565b8152602001906001900390816116785790505b5090505f5f90505b8281101561197e575f856011015f83876116b5919061449d565b81526020019081526020015f205f9054906101000a900473ffffffffffffffffffffffffffffffffffffffff169050808383815181106116f8576116f76144d0565b5b60200260200101516060019073ffffffffffffffffffffffffffffffffffffffff16908173ffffffffffffffffffffffffffffffffffffffff1681525050856012015f8273ffffffffffffffffffffffffffffffffffffffff1673ffffffffffffffffffffffffffffffffffffffff1681526020019081526020015f2060010180546117839061452a565b80601f01602080910402602001604051908101604052809291908181526020018280546117af9061452a565b80156117fa5780601f106117d1576101008083540402835291602001916117fa565b820191905f5260205f20905b8154815290600101906020018083116117dd57829003601f168201915b5050505050838381518110611812576118116144d0565b5b602002602001015160200181905250856012015f8273ffffffffffffffffffffffffffffffffffffffff1673ffffffffffffffffffffffffffffffffffffffff1681526020019081526020015f20600201805461186e9061452a565b80601f016020809104026020016040519081016040528092919081815260200182805461189a9061452a565b80156118e55780601f106118bc576101008083540402835291602001916118e5565b820191905f5260205f20905b8154815290600101906020018083116118c857829003601f168201915b50505050508383815181106118fd576118fc6144d0565b5b602002602001015160400181905250856012015f8273ffffffffffffffffffffffffffffffffffffffff1673ffffffffffffffffffffffffffffffffffffffff1681526020019081526020015f205f0154838381518110611961576119606144d0565b5b60200260200101515f01818152505050808060010191505061169b565b50809450505050509392505050565b5f61199661285a565b6007015f9054906101000a900473ffffffffffffffffffffffffffffffffffffffff16905090565b5f5f6119c9846127d3565b9050806012015f8473ffffffffffffffffffffffffffffffffffffffff1673ffffffffffffffffffffffffffffffffffffffff1681526020019081526020015f205f015491505092915050565b611a1f856129c2565b611a2885612931565b5f611a3161285a565b90505f815f015f8881526020019081526020015f20905084816012015f8873ffffffffffffffffffffffffffffffffffffffff1673ffffffffffffffffffffffffffffffffffffffff1681526020019081526020015f205f018190555083816012015f8873ffffffffffffffffffffffffffffffffffffffff1673ffffffffffffffffffffffffffffffffffffffff1681526020019081526020015f206001019081611add91906146fa565b5082816012015f8873ffffffffffffffffffffffffffffffffffffffff1673ffffffffffffffffffffffffffffffffffffffff1681526020019081526020015f206002019081611b2d91906146fa565b5085816011015f836014015481526020019081526020015f205f6101000a81548173ffffffffffffffffffffffffffffffffffffffff021916908373ffffffffffffffffffffffffffffffffffffffff160217905550806014015f815480929190611b97906147c9565b9190505550816009015f815480929190611bb0906147c9565b919050555085826003015f846009015481526020019081526020015f205f6101000a81548173ffffffffffffffffffffffffffffffffffffffff021916908373ffffffffffffffffffffffffffffffffffffffff16021790555050505050505050565b60605f611c1e61285a565b9050611c2c81600501612e1f565b91505090565b611c3c868661291a565b611c4586612931565b5f611c4e61285a565b90505f815f015f8981526020019081526020015f20600d015f8881526020019081526020015f20905085815f016001019081611c8a91906146fa565b5084815f016002019081611c9e91906146fa565b5083816007015f6101000a81548160ff021916908315150217905550828160070160016101000a81548160ff0219169083151502179055505050505050505050565b611ceb858486612aed565b611cf485612931565b5f611cfd61285a565b90505f815f015f8881526020019081526020015f20905083816010015f8881526020019081526020015f206001019081611d3791906146fa565b5082816010015f8881526020019081526020015f206002019081611d5b91906146fa565b5050505050505050565b611d6e336129cf565b5f611d7761285a565b9050611d8581600501612e3e565b5f5f90505b8251811015611dd157611dc3838281518110611da957611da86144d0565b5b602002602001015183600501612e4c90919063ffffffff16565b508080600101915050611d8a565b505050565b5f611dea611de261285a565b600501612e79565b905090565b611df9838361291a565b611e0283612931565b5f611e0b61285a565b9050611e4682825f015f8781526020019081526020015f20600d015f8681526020019081526020015f2060050161299790919063ffffffff16565b5050505050565b611e56336129cf565b5f611e5f61285a565b90508181600b015f6101000a81548173ffffffffffffffffffffffffffffffffffffffff021916908373ffffffffffffffffffffffffffffffffffffffff1602179055505050565b5f611eb061285a565b6004015f8381526020019081526020015f20549050919050565b5f611ed361285a565b6004015f8381526020019081526020015f20549050919050565b611ef6826129c2565b611f008282612b9d565b611f0982612931565b5f611f1261285a565b90505f815f015f8581526020019081526020015f209050611f3f8382600801612b8690919063ffffffff16565b5080600a015f8481526020019081526020015f205f5f82015f5f82015f9055600182015f611f6d9190613351565b600282015f611f7c9190613351565b5050600382015f9055600482015f9055600582015f9055600682015f6101000a81549060ff02191690556006820160016101000a81549060ff02191690556006820160026101000a81549060ff02191690556006820160036101000a81549060ff02191690556006820160046101000a81549060ff02191690555050816002015f8481526020019081526020015f205f905550505050565b60605f612020856127d3565b90505f61202f82600801612886565b90505f5f61203e838888612899565b915091505f8167ffffffffffffffff81111561205d5761205c6136d5565b5b60405190808252806020026020018201604052801561209657816020015b61208361338e565b81526020019060019003908161207b5790505b5090505f5f90505b828110156122f05785600a015f6120cc83876120ba919061449d565b8960080161290390919063ffffffff16565b81526020019081526020015f20604051806101200160405290815f82016040518060600160405290815f820154815260200160018201805461210d9061452a565b80601f01602080910402602001604051908101604052809291908181526020018280546121399061452a565b80156121845780601f1061215b57610100808354040283529160200191612184565b820191905f5260205f20905b81548152906001019060200180831161216757829003601f168201915b5050505050815260200160028201805461219d9061452a565b80601f01602080910402602001604051908101604052809291908181526020018280546121c99061452a565b80156122145780601f106121eb57610100808354040283529160200191612214565b820191905f5260205f20905b8154815290600101906020018083116121f757829003601f168201915b5050505050815250508152602001600382015481526020016004820154815260200160058201548152602001600682015f9054906101000a900460ff161515151581526020016006820160019054906101000a900460ff161515151581526020016006820160029054906101000a900460ff161515151581526020016006820160039054906101000a900460ff161515151581526020016006820160049054906101000a900460ff1615151515815250508282815181106122d8576122d76144d0565b5b6020026020010181905250808060010191505061209e565b5080955050505050509392505050565b612309336129ae565b8061231261285a565b6004015f8481526020019081526020015f20819055505050565b5f61233561285a565b6008015f9054906101000a900473ffffffffffffffffffffffffffffffffffffffff16905090565b5f61236661285a565b6003015f8381526020019081526020015f205f9054906101000a900473ffffffffffffffffffffffffffffffffffffffff169050919050565b5f6123a861285a565b600a0154905090565b6123ba336129ae565b806123c361285a565b6008015f6101000a81548173ffffffffffffffffffffffffffffffffffffffff021916908373ffffffffffffffffffffffffffffffffffffffff16021790555050565b60605f612412856127d3565b90505f61242182600b01612886565b90505f5f612430838888612899565b915091505f8167ffffffffffffffff81111561244f5761244e6136d5565b5b60405190808252806020026020018201604052801561248857816020015b612475613331565b81526020019060019003908161246d5790505b5090505f5f90505b8281101561262c5785600d015f6124be83876124ac919061449d565b89600b0161290390919063ffffffff16565b81526020019081526020015f205f016040518060600160405290815f82015481526020016001820180546124f19061452a565b80601f016020809104026020016040519081016040528092919081815260200182805461251d9061452a565b80156125685780601f1061253f57610100808354040283529160200191612568565b820191905f5260205f20905b81548152906001019060200180831161254b57829003601f168201915b505050505081526020016002820180546125819061452a565b80601f01602080910402602001604051908101604052809291908181526020018280546125ad9061452a565b80156125f85780601f106125cf576101008083540402835291602001916125f8565b820191905f5260205f20905b8154815290600101906020018083116125db57829003601f168201915b505050505081525050828281518110612614576126136144d0565b5b60200260200101819052508080600101915050612490565b5080955050505050509392505050565b612645336129cf565b5f61264e61285a565b90508181600d01819055505050565b612666866129c2565b5f61266f61285a565b90505f816002015f8981526020019081526020015f205490505f825f015f8381526020019081526020015f20600a015f8981526020019081526020015f2090508781600301819055508681600401819055508581600501819055506001816006015f6101000a81548160ff0219169083151502179055505f8160060160016101000a81548160ff0219169083151502179055505f8160060160026101000a81548160ff0219169083151502179055505f8160060160036101000a81548160ff0219169083151502179055505f8160060160046101000a81548160ff02191690831515021790555087815f015f018190555084815f01600101908161277391906146fa565b5083815f01600201908161278791906146fa565b506127af88845f015f8581526020019081526020015f2060080161299790919063ffffffff16565b5081836002015f8a81526020019081526020015f2081905550505050505050505050565b5f5f6127dd61285a565b90505f816002015f8581526020019081526020015f205490505f810361283a57836040517fd4a8473700000000000000000000000000000000000000000000000000000000815260040161283191906136b4565b60405180910390fd5b5f825f015f8381526020019081526020015f209050809350505050919050565b5f5f7f171def12e82c8f3351e4c79b7854be19ad60a75b888f74b9660c07cd7461963390508091505090565b5f612892825f01612e8c565b9050919050565b5f5f848311156128aa578492505f93505b5f83856128b79190614891565b90508581106128cc575f5f92509250506128fb565b5f84826128d9919061449d565b9050868111156128e7578690505b8182826128f49190614837565b9350935050505b935093915050565b5f612910835f0183612e9b565b5f1c905092915050565b612923826129c2565b61292d8282612ec2565b5050565b5f61293a61285a565b905081816002015f8481526020019081526020015f20541461299357816040517f1d0932ee00000000000000000000000000000000000000000000000000000000815260040161298a91906136b4565b60405180910390fd5b5050565b5f6129a6835f01835f1b612f13565b905092915050565b6129bf6129b961285a565b82612f7a565b50565b6129cc8133613032565b50565b5f6129d861285a565b90506129f0828260050161308390919063ffffffff16565b158015612a4c5750806007015f9054906101000a900473ffffffffffffffffffffffffffffffffffffffff1673ffffffffffffffffffffffffffffffffffffffff168273ffffffffffffffffffffffffffffffffffffffff1614155b8015612aa7575080600b015f9054906101000a900473ffffffffffffffffffffffffffffffffffffffff1673ffffffffffffffffffffffffffffffffffffffff168273ffffffffffffffffffffffffffffffffffffffff1614155b15612ae957816040517f2d87faed000000000000000000000000000000000000000000000000000000008152600401612ae091906138b7565b60405180910390fd5b5050565b612af7838361291a565b5f612b0061285a565b9050612b3b82825f015f8781526020019081526020015f20600d015f8681526020019081526020015f206003016130b090919063ffffffff16565b612b80578383836040517fef25d02d000000000000000000000000000000000000000000000000000000008152600401612b77939291906148d2565b60405180910390fd5b50505050565b5f612b95835f01835f1b6130c7565b905092915050565b5f612ba661285a565b905081815f015f8581526020019081526020015f20600a015f8481526020019081526020015f206003015414612c155782826040517f748e712a000000000000000000000000000000000000000000000000000000008152600401612c0c929190614810565b60405180910390fd5b505050565b612c24838361291a565b5f612c2d61285a565b9050612c6882825f015f8781526020019081526020015f20600d015f8681526020019081526020015f206005016130b090919063ffffffff16565b612cad578383836040517f79167858000000000000000000000000000000000000000000000000000000008152600401612ca4939291906148d2565b60405180910390fd5b50505050565b5f5f612cbd61285a565b90505f816002015f8681526020019081526020015f205490505f8103612ce7575f92505050612db3565b5f825f015f8381526020019081526020015f20905081815f016003015414612d14575f9350505050612db3565b612d2a858460050161308390919063ffffffff16565b8015612d4a575060011515816013015f9054906101000a900460ff161515145b15612d5b5760019350505050612db3565b8473ffffffffffffffffffffffffffffffffffffffff16816007015f9054906101000a900473ffffffffffffffffffffffffffffffffffffffff1673ffffffffffffffffffffffffffffffffffffffff161493505050505b92915050565b5f612dc261285a565b9050612dda828260050161308390919063ffffffff16565b612e1b57816040517f92f13c4e000000000000000000000000000000000000000000000000000000008152600401612e1291906138b7565b60405180910390fd5b5050565b60605f612e2d835f016131c3565b905060608190508092505050919050565b612e49815f0161321c565b50565b5f612e71835f018373ffffffffffffffffffffffffffffffffffffffff165f1b612f13565b905092915050565b5f612e85825f01612e8c565b9050919050565b5f815f01805490509050919050565b5f825f018281548110612eb157612eb06144d0565b5b905f5260205f200154905092915050565b612ecc8282613284565b612f0f5781816040517f931a85b3000000000000000000000000000000000000000000000000000000008152600401612f06929190614810565b60405180910390fd5b5050565b5f612f1e83836132ce565b612f7057825f0182908060018154018082558091505060019003905f5260205f20015f9091909190915055825f0180549050836001015f8481526020019081526020015f208190555060019050612f74565b5f90505b92915050565b612f90818360050161308390919063ffffffff16565b158015612fec5750816008015f9054906101000a900473ffffffffffffffffffffffffffffffffffffffff1673ffffffffffffffffffffffffffffffffffffffff168173ffffffffffffffffffffffffffffffffffffffff1614155b1561302e57806040517f9ed88e0700000000000000000000000000000000000000000000000000000000815260040161302591906138b7565b60405180910390fd5b5050565b61303c8282612cb3565b61307f5781816040517f7b0f9c07000000000000000000000000000000000000000000000000000000008152600401613076929190614907565b60405180910390fd5b5050565b5f6130a8835f018373ffffffffffffffffffffffffffffffffffffffff165f1b6132ce565b905092915050565b5f6130bf835f01835f1b6132ce565b905092915050565b5f5f836001015f8481526020019081526020015f205490505f81146131b8575f6001826130f49190614837565b90505f6001865f018054905061310a9190614837565b9050808214613170575f865f018281548110613129576131286144d0565b5b905f5260205f200154905080875f01848154811061314a576131496144d0565b5b905f5260205f20018190555083876001015f8381526020019081526020015f2081905550505b855f018054806131835761318261492e565b5b600190038181905f5260205f20015f90559055856001015f8681526020019081526020015f205f9055600193505050506131bd565b5f9150505b92915050565b6060815f0180548060200260200160405190810160405280929190818152602001828054801561321057602002820191905f5260205f20905b8154815260200190600101908083116131fc575b50505050509050919050565b5f61322682612e8c565b90505f5f90505b8181101561327357826001015f845f01838154811061324f5761324e6144d0565b5b905f5260205f20015481526020019081526020015f205f905580600101905061322d565b50613280825f015f6132ee565b5050565b5f5f61328e61285a565b90505f815f015f8681526020019081526020015f2090505f81600d015f8681526020019081526020015f20905084815f015f015414935050505092915050565b5f5f836001015f8481526020019081526020015f20541415905092915050565b8082555050565b60405180608001604052805f815260200160608152602001606081526020015f73ffffffffffffffffffffffffffffffffffffffff1681525090565b60405180606001604052805f815260200160608152602001606081525090565b50805461335d9061452a565b5f825580601f1061336e575061338b565b601f0160209004905f5260205f209081019061338a91906133e2565b5b50565b6040518061012001604052806133a2613331565b81526020015f81526020015f81526020015f81526020015f151581526020015f151581526020015f151581526020015f151581526020015f151581525090565b5b808211156133f9575f815f9055506001016133e3565b5090565b5f604051905090565b5f5ffd5b5f5ffd5b5f819050919050565b6134208161340e565b811461342a575f5ffd5b50565b5f8135905061343b81613417565b92915050565b5f5f5f5f6080858703121561345957613458613406565b5b5f6134668782880161342d565b94505060206134778782880161342d565b93505060406134888782880161342d565b92505060606134998782880161342d565b91505092959194509250565b5f81519050919050565b5f82825260208201905092915050565b5f819050602082019050919050565b6134d78161340e565b82525050565b5f81519050919050565b5f82825260208201905092915050565b8281835e5f83830152505050565b5f601f19601f8301169050919050565b5f61351f826134dd565b61352981856134e7565b93506135398185602086016134f7565b61354281613505565b840191505092915050565b5f73ffffffffffffffffffffffffffffffffffffffff82169050919050565b5f6135768261354d565b9050919050565b6135868161356c565b82525050565b5f608083015f8301516135a15f8601826134ce565b50602083015184820360208601526135b98282613515565b915050604083015184820360408601526135d38282613515565b91505060608301516135e8606086018261357d565b508091505092915050565b5f6135fe838361358c565b905092915050565b5f602082019050919050565b5f61361c826134a5565b61362681856134af565b935083602082028501613638856134bf565b805f5b85811015613673578484038952815161365485826135f3565b945061365f83613606565b925060208a0199505060018101905061363b565b50829750879550505050505092915050565b5f6020820190508181035f83015261369d8184613612565b905092915050565b6136ae8161340e565b82525050565b5f6020820190506136c75f8301846136a5565b92915050565b5f5ffd5b5f5ffd5b7f4e487b71000000000000000000000000000000000000000000000000000000005f52604160045260245ffd5b61370b82613505565b810181811067ffffffffffffffff8211171561372a576137296136d5565b5b80604052505050565b5f61373c6133fd565b90506137488282613702565b919050565b5f67ffffffffffffffff821115613767576137666136d5565b5b61377082613505565b9050602081019050919050565b828183375f83830152505050565b5f61379d6137988461374d565b613733565b9050828152602081018484840111156137b9576137b86136d1565b5b6137c484828561377d565b509392505050565b5f82601f8301126137e0576137df6136cd565b5b81356137f084826020860161378b565b91505092915050565b5f5f5f5f5f60a0868803121561381257613811613406565b5b5f61381f8882890161342d565b95505060206138308882890161342d565b94505060406138418882890161342d565b935050606086013567ffffffffffffffff8111156138625761386161340a565b5b61386e888289016137cc565b925050608086013567ffffffffffffffff81111561388f5761388e61340a565b5b61389b888289016137cc565b9150509295509295909350565b6138b18161356c565b82525050565b5f6020820190506138ca5f8301846138a8565b92915050565b5f5f604083850312156138e6576138e5613406565b5b5f6138f38582860161342d565b92505060206139048582860161342d565b9150509250929050565b5f6020828403121561392357613922613406565b5b5f6139308482850161342d565b91505092915050565b5f81519050919050565b5f82825260208201905092915050565b5f819050602082019050919050565b5f606083015f8301516139775f8601826134ce565b506020830151848203602086015261398f8282613515565b915050604083015184820360408601526139a98282613515565b9150508091505092915050565b5f6139c18383613962565b905092915050565b5f602082019050919050565b5f6139df82613939565b6139e98185613943565b9350836020820285016139fb85613953565b805f5b85811015613a365784840389528151613a1785826139b6565b9450613a22836139c9565b925060208a019950506001810190506139fe565b50829750879550505050505092915050565b5f6020820190508181035f830152613a6081846139d5565b905092915050565b5f5f5f60608486031215613a7f57613a7e613406565b5b5f613a8c8682870161342d565b9350506020613a9d8682870161342d565b9250506040613aae8682870161342d565b9150509250925092565b5f5f5f5f60808587031215613ad057613acf613406565b5b5f613add8782880161342d565b9450506020613aee8782880161342d565b935050604085013567ffffffffffffffff811115613b0f57613b0e61340a565b5b613b1b878288016137cc565b925050606085013567ffffffffffffffff811115613b3c57613b3b61340a565b5b613b48878288016137cc565b91505092959194509250565b5f8115159050919050565b613b6881613b54565b82525050565b5f602082019050613b815f830184613b5f565b92915050565b5f67ffffffffffffffff821115613ba157613ba06136d5565b5b602082029050602081019050919050565b5f5ffd5b5f613bc8613bc384613b87565b613733565b90508083825260208201905060208402830185811115613beb57613bea613bb2565b5b835b81811015613c145780613c00888261342d565b845260208401935050602081019050613bed565b5050509392505050565b5f82601f830112613c3257613c316136cd565b5b8135613c42848260208601613bb6565b91505092915050565b613c5481613b54565b8114613c5e575f5ffd5b50565b5f81359050613c6f81613c4b565b92915050565b5f5f5f5f5f5f5f60e0888a031215613c9057613c8f613406565b5b5f613c9d8a828b0161342d565b975050602088013567ffffffffffffffff811115613cbe57613cbd61340a565b5b613cca8a828b016137cc565b965050604088013567ffffffffffffffff811115613ceb57613cea61340a565b5b613cf78a828b016137cc565b955050606088013567ffffffffffffffff811115613d1857613d1761340a565b5b613d248a828b01613c1e565b945050608088013567ffffffffffffffff811115613d4557613d4461340a565b5b613d518a828b01613c1e565b93505060a0613d628a828b01613c61565b92505060c0613d738a828b01613c61565b91505092959891949750929550565b613d8b8161356c565b8114613d95575f5ffd5b50565b5f81359050613da681613d82565b92915050565b5f5f5f5f5f60a08688031215613dc557613dc4613406565b5b5f613dd28882890161342d565b9550506020613de388828901613c61565b945050604086013567ffffffffffffffff811115613e0457613e0361340a565b5b613e10888289016137cc565b935050606086013567ffffffffffffffff811115613e3157613e3061340a565b5b613e3d888289016137cc565b9250506080613e4e88828901613d98565b9150509295509295909350565b5f5f60408385031215613e7157613e70613406565b5b5f613e7e8582860161342d565b9250506020613e8f85828601613d98565b9150509250929050565b5f5f5f5f5f60a08688031215613eb257613eb1613406565b5b5f613ebf8882890161342d565b9550506020613ed088828901613d98565b9450506040613ee18882890161342d565b935050606086013567ffffffffffffffff811115613f0257613f0161340a565b5b613f0e888289016137cc565b925050608086013567ffffffffffffffff811115613f2f57613f2e61340a565b5b613f3b888289016137cc565b9150509295509295909350565b5f81519050919050565b5f82825260208201905092915050565b5f819050602082019050919050565b5f613f7c838361357d565b60208301905092915050565b5f602082019050919050565b5f613f9e82613f48565b613fa88185613f52565b9350613fb383613f62565b805f5b83811015613fe3578151613fca8882613f71565b9750613fd583613f88565b925050600181019050613fb6565b5085935050505092915050565b5f6020820190508181035f8301526140088184613f94565b905092915050565b5f5f5f5f5f5f60c0878903121561402a57614029613406565b5b5f61403789828a0161342d565b965050602061404889828a0161342d565b955050604087013567ffffffffffffffff8111156140695761406861340a565b5b61407589828a016137cc565b945050606087013567ffffffffffffffff8111156140965761409561340a565b5b6140a289828a016137cc565b93505060806140b389828a01613c61565b92505060a06140c489828a01613c61565b9150509295509295509295565b5f67ffffffffffffffff8211156140eb576140ea6136d5565b5b602082029050602081019050919050565b5f61410e614109846140d1565b613733565b9050808382526020820190506020840283018581111561413157614130613bb2565b5b835b8181101561415a57806141468882613d98565b845260208401935050602081019050614133565b5050509392505050565b5f82601f830112614178576141776136cd565b5b81356141888482602086016140fc565b91505092915050565b5f602082840312156141a6576141a5613406565b5b5f82013567ffffffffffffffff8111156141c3576141c261340a565b5b6141cf84828501614164565b91505092915050565b5f602082840312156141ed576141ec613406565b5b5f6141fa84828501613d98565b91505092915050565b5f81519050919050565b5f82825260208201905092915050565b5f819050602082019050919050565b61423581613b54565b82525050565b5f61012083015f8301518482035f8601526142568282613962565b915050602083015161426b60208601826134ce565b50604083015161427e60408601826134ce565b50606083015161429160608601826134ce565b5060808301516142a4608086018261422c565b5060a08301516142b760a086018261422c565b5060c08301516142ca60c086018261422c565b5060e08301516142dd60e086018261422c565b506101008301516142f261010086018261422c565b508091505092915050565b5f614308838361423b565b905092915050565b5f602082019050919050565b5f61432682614203565b614330818561420d565b9350836020820285016143428561421d565b805f5b8581101561437d578484038952815161435e85826142fd565b945061436983614310565b925060208a01995050600181019050614345565b50829750879550505050505092915050565b5f6020820190508181035f8301526143a7818461431c565b905092915050565b5f5f5f5f5f5f60c087890312156143c9576143c8613406565b5b5f6143d689828a0161342d565b96505060206143e789828a0161342d565b95505060406143f889828a0161342d565b945050606061440989828a0161342d565b935050608087013567ffffffffffffffff81111561442a5761442961340a565b5b61443689828a016137cc565b92505060a087013567ffffffffffffffff8111156144575761445661340a565b5b61446389828a016137cc565b9150509295509295509295565b7f4e487b71000000000000000000000000000000000000000000000000000000005f52601160045260245ffd5b5f6144a78261340e565b91506144b28361340e565b92508282019050808211156144ca576144c9614470565b5b92915050565b7f4e487b71000000000000000000000000000000000000000000000000000000005f52603260045260245ffd5b7f4e487b71000000000000000000000000000000000000000000000000000000005f52602260045260245ffd5b5f600282049050600182168061454157607f821691505b602082108103614554576145536144fd565b5b50919050565b5f819050815f5260205f209050919050565b5f6020601f8301049050919050565b5f82821b905092915050565b5f600883026145b67fffffffffffffffffffffffffffffffffffffffffffffffffffffffffffffffff8261457b565b6145c0868361457b565b95508019841693508086168417925050509392505050565b5f819050919050565b5f6145fb6145f66145f18461340e565b6145d8565b61340e565b9050919050565b5f819050919050565b614614836145e1565b61462861462082614602565b848454614587565b825550505050565b5f5f905090565b61463f614630565b61464a81848461460b565b505050565b5b8181101561466d576146625f82614637565b600181019050614650565b5050565b601f8211156146b2576146838161455a565b61468c8461456c565b8101602085101561469b578190505b6146af6146a78561456c565b83018261464f565b50505b505050565b5f82821c905092915050565b5f6146d25f19846008026146b7565b1980831691505092915050565b5f6146ea83836146c3565b9150826002028217905092915050565b614703826134dd565b67ffffffffffffffff81111561471c5761471b6136d5565b5b614726825461452a565b614731828285614671565b5f60209050601f831160018114614762575f8415614750578287015190505b61475a85826146df565b8655506147c1565b601f1984166147708661455a565b5f5b8281101561479757848901518255600182019150602085019450602081019050614772565b868310156147b457848901516147b0601f8916826146c3565b8355505b6001600288020188555050505b505050505050565b5f6147d38261340e565b91507fffffffffffffffffffffffffffffffffffffffffffffffffffffffffffffffff820361480557614804614470565b5b600182019050919050565b5f6040820190506148235f8301856136a5565b61483060208301846136a5565b9392505050565b5f6148418261340e565b915061484c8361340e565b925082820390508181111561486457614863614470565b5b92915050565b5f6148748261340e565b91505f820361488657614885614470565b5b600182039050919050565b5f61489b8261340e565b91506148a68361340e565b92508282026148b48161340e565b915082820484148315176148cb576148ca614470565b5b5092915050565b5f6060820190506148e55f8301866136a5565b6148f260208301856136a5565b6148ff60408301846136a5565b949350505050565b5f60408201905061491a5f8301856136a5565b61492760208301846138a8565b9392505050565b7f4e487b71000000000000000000000000000000000000000000000000000000005f52603160045260245ffdfea2646970667358221220bff6f4738de6ac3178992bca9094022bf0bd4fe6696bc2c12e0d252c48a501ae64736f6c634300081c0033",
  "linkReferences": {},
  "deployedLinkReferences": {},
  "immutableReferences": {},
  "inputSourceName": "project/contracts/AccountConfig.sol",
  "buildInfoId": "solc-0_8_28-e77933fd190d98ff0e8d93a1bf10f2113d772ed4"
}