{
  "_format": "hh3-artifact-1",
  "contractName": "QuoteStorage",
  "sourceName": "contracts/quote.sol",
  "abi": [
    {
      "inputs": [],
      "stateMutability": "nonpayable",
      "type": "constructor"
    },
    {
      "anonymous": false,
      "inputs": [
        {
          "indexed": false,
          "internalType": "uint256",
          "name": "quoteId",
          "type": "uint256"
        }
      ],
      "name": "NewQuote",
      "type": "event"
    },
    {
      "anonymous": false,
      "inputs": [
        {
          "indexed": false,
          "internalType": "uint256",
          "name": "swapRequestId",
          "type": "uint256"
        }
      ],
      "name": "NewSwapRequest",
      "type": "event"
    },
    {
      "inputs": [
        {
          "internalType": "uint256",
          "name": "quoteId",
          "type": "uint256"
        }
      ],
      "name": "getQuote",
      "outputs": [
        {
          "components": [
            {
              "internalType": "uint256",
              "name": "swapRequestId",
              "type": "uint256"
            },
            {
              "internalType": "address",
              "name": "providerRefundAddress",
              "type": "address"
            },
            {
              "internalType": "uint256",
              "name": "quoteExpiry",
              "type": "uint256"
            },
            {
              "internalType": "uint256",
              "name": "createdAt",
              "type": "uint256"
            },
            {
              "internalType": "uint256",
              "name": "feesTotal",
              "type": "uint256"
            }
          ],
          "internalType": "struct QuoteStorage.Quote",
          "name": "",
          "type": "tuple"
        }
      ],
      "stateMutability": "view",
      "type": "function"
    },
    {
      "inputs": [
        {
          "internalType": "uint256",
          "name": "count",
          "type": "uint256"
        }
      ],
      "name": "getRecentQuotes",
      "outputs": [
        {
          "components": [
            {
              "internalType": "uint256",
              "name": "swapRequestId",
              "type": "uint256"
            },
            {
              "internalType": "address",
              "name": "providerRefundAddress",
              "type": "address"
            },
            {
              "internalType": "uint256",
              "name": "quoteExpiry",
              "type": "uint256"
            },
            {
              "internalType": "uint256",
              "name": "createdAt",
              "type": "uint256"
            },
            {
              "internalType": "uint256",
              "name": "feesTotal",
              "type": "uint256"
            }
          ],
          "internalType": "struct QuoteStorage.Quote[]",
          "name": "",
          "type": "tuple[]"
        }
      ],
      "stateMutability": "view",
      "type": "function"
    },
    {
      "inputs": [
        {
          "internalType": "uint256",
          "name": "count",
          "type": "uint256"
        }
      ],
      "name": "getRecentSwapRequests",
      "outputs": [
        {
          "components": [
            {
              "internalType": "address",
              "name": "from",
              "type": "address"
            },
            {
              "internalType": "string",
              "name": "originSymbol",
              "type": "string"
            },
            {
              "internalType": "string",
              "name": "originChain",
              "type": "string"
            },
            {
              "internalType": "uint256",
              "name": "originAmount",
              "type": "uint256"
            },
            {
              "internalType": "string",
              "name": "destinationSymbol",
              "type": "string"
            },
            {
              "internalType": "string",
              "name": "destinationChain",
              "type": "string"
            },
            {
              "internalType": "uint256",
              "name": "destinationAmount",
              "type": "uint256"
            },
            {
              "internalType": "uint256",
              "name": "slippage",
              "type": "uint256"
            },
            {
              "internalType": "enum QuoteStorage.QuotePricingType",
              "name": "pricingType",
              "type": "uint8"
            },
            {
              "internalType": "uint256",
              "name": "quoteDeadlineSeconds",
              "type": "uint256"
            },
            {
              "internalType": "address",
              "name": "originAddress",
              "type": "address"
            },
            {
              "internalType": "address",
              "name": "refundAddress",
              "type": "address"
            },
            {
              "internalType": "uint256",
              "name": "transactionDeadlineSeconds",
              "type": "uint256"
            },
            {
              "internalType": "address",
              "name": "pkpAddress",
              "type": "address"
            },
            {
              "internalType": "uint256",
              "name": "pkpTokenId",
              "type": "uint256"
            },
            {
              "internalType": "string",
              "name": "message",
              "type": "string"
            }
          ],
          "internalType": "struct QuoteStorage.SwapRequest[]",
          "name": "",
          "type": "tuple[]"
        }
      ],
      "stateMutability": "view",
      "type": "function"
    },
    {
      "inputs": [
        {
          "internalType": "uint256[]",
          "name": "requestIds",
          "type": "uint256[]"
        }
      ],
      "name": "getRequestsByIds",
      "outputs": [
        {
          "components": [
            {
              "internalType": "address",
              "name": "from",
              "type": "address"
            },
            {
              "internalType": "string",
              "name": "originSymbol",
              "type": "string"
            },
            {
              "internalType": "string",
              "name": "originChain",
              "type": "string"
            },
            {
              "internalType": "uint256",
              "name": "originAmount",
              "type": "uint256"
            },
            {
              "internalType": "string",
              "name": "destinationSymbol",
              "type": "string"
            },
            {
              "internalType": "string",
              "name": "destinationChain",
              "type": "string"
            },
            {
              "internalType": "uint256",
              "name": "destinationAmount",
              "type": "uint256"
            },
            {
              "internalType": "uint256",
              "name": "slippage",
              "type": "uint256"
            },
            {
              "internalType": "enum QuoteStorage.QuotePricingType",
              "name": "pricingType",
              "type": "uint8"
            },
            {
              "internalType": "uint256",
              "name": "quoteDeadlineSeconds",
              "type": "uint256"
            },
            {
              "internalType": "address",
              "name": "originAddress",
              "type": "address"
            },
            {
              "internalType": "address",
              "name": "refundAddress",
              "type": "address"
            },
            {
              "internalType": "uint256",
              "name": "transactionDeadlineSeconds",
              "type": "uint256"
            },
            {
              "internalType": "address",
              "name": "pkpAddress",
              "type": "address"
            },
            {
              "internalType": "uint256",
              "name": "pkpTokenId",
              "type": "uint256"
            },
            {
              "internalType": "string",
              "name": "message",
              "type": "string"
            }
          ],
          "internalType": "struct QuoteStorage.SwapRequest[]",
          "name": "",
          "type": "tuple[]"
        }
      ],
      "stateMutability": "view",
      "type": "function"
    },
    {
      "inputs": [
        {
          "internalType": "uint256",
          "name": "swapRequestId",
          "type": "uint256"
        }
      ],
      "name": "getSwapRequest",
      "outputs": [
        {
          "components": [
            {
              "internalType": "address",
              "name": "from",
              "type": "address"
            },
            {
              "internalType": "string",
              "name": "originSymbol",
              "type": "string"
            },
            {
              "internalType": "string",
              "name": "originChain",
              "type": "string"
            },
            {
              "internalType": "uint256",
              "name": "originAmount",
              "type": "uint256"
            },
            {
              "internalType": "string",
              "name": "destinationSymbol",
              "type": "string"
            },
            {
              "internalType": "string",
              "name": "destinationChain",
              "type": "string"
            },
            {
              "internalType": "uint256",
              "name": "destinationAmount",
              "type": "uint256"
            },
            {
              "internalType": "uint256",
              "name": "slippage",
              "type": "uint256"
            },
            {
              "internalType": "enum QuoteStorage.QuotePricingType",
              "name": "pricingType",
              "type": "uint8"
            },
            {
              "internalType": "uint256",
              "name": "quoteDeadlineSeconds",
              "type": "uint256"
            },
            {
              "internalType": "address",
              "name": "originAddress",
              "type": "address"
            },
            {
              "internalType": "address",
              "name": "refundAddress",
              "type": "address"
            },
            {
              "internalType": "uint256",
              "name": "transactionDeadlineSeconds",
              "type": "uint256"
            },
            {
              "internalType": "address",
              "name": "pkpAddress",
              "type": "address"
            },
            {
              "internalType": "uint256",
              "name": "pkpTokenId",
              "type": "uint256"
            },
            {
              "internalType": "string",
              "name": "message",
              "type": "string"
            }
          ],
          "internalType": "struct QuoteStorage.SwapRequest",
          "name": "",
          "type": "tuple"
        }
      ],
      "stateMutability": "view",
      "type": "function"
    },
    {
      "inputs": [
        {
          "internalType": "uint256",
          "name": "swapRequestId",
          "type": "uint256"
        },
        {
          "internalType": "address",
          "name": "providerRefundAddress",
          "type": "address"
        }
      ],
      "name": "newQuote",
      "outputs": [
        {
          "internalType": "uint256",
          "name": "",
          "type": "uint256"
        }
      ],
      "stateMutability": "nonpayable",
      "type": "function"
    },
    {
      "inputs": [
        {
          "components": [
            {
              "internalType": "address",
              "name": "from",
              "type": "address"
            },
            {
              "internalType": "string",
              "name": "originSymbol",
              "type": "string"
            },
            {
              "internalType": "string",
              "name": "originChain",
              "type": "string"
            },
            {
              "internalType": "uint256",
              "name": "originAmount",
              "type": "uint256"
            },
            {
              "internalType": "string",
              "name": "destinationSymbol",
              "type": "string"
            },
            {
              "internalType": "string",
              "name": "destinationChain",
              "type": "string"
            },
            {
              "internalType": "uint256",
              "name": "destinationAmount",
              "type": "uint256"
            },
            {
              "internalType": "uint256",
              "name": "slippage",
              "type": "uint256"
            },
            {
              "internalType": "enum QuoteStorage.QuotePricingType",
              "name": "pricingType",
              "type": "uint8"
            },
            {
              "internalType": "uint256",
              "name": "quoteDeadlineSeconds",
              "type": "uint256"
            },
            {
              "internalType": "address",
              "name": "originAddress",
              "type": "address"
            },
            {
              "internalType": "address",
              "name": "refundAddress",
              "type": "address"
            },
            {
              "internalType": "uint256",
              "name": "transactionDeadlineSeconds",
              "type": "uint256"
            },
            {
              "internalType": "address",
              "name": "pkpAddress",
              "type": "address"
            },
            {
              "internalType": "uint256",
              "name": "pkpTokenId",
              "type": "uint256"
            },
            {
              "internalType": "string",
              "name": "message",
              "type": "string"
            }
          ],
          "internalType": "struct QuoteStorage.SwapRequest",
          "name": "data",
          "type": "tuple"
        }
      ],
      "name": "newSwapRequest",
      "outputs": [
        {
          "internalType": "uint256",
          "name": "",
          "type": "uint256"
        }
      ],
      "stateMutability": "nonpayable",
      "type": "function"
    },
    {
      "inputs": [],
      "name": "openQuotesCount",
      "outputs": [
        {
          "internalType": "uint256",
          "name": "",
          "type": "uint256"
        }
      ],
      "stateMutability": "view",
      "type": "function"
    },
    {
      "inputs": [],
      "name": "openSwapRequestsCount",
      "outputs": [
        {
          "internalType": "uint256",
          "name": "",
          "type": "uint256"
        }
      ],
      "stateMutability": "view",
      "type": "function"
    },
    {
      "inputs": [],
      "name": "quoteCounter",
      "outputs": [
        {
          "internalType": "uint256",
          "name": "",
          "type": "uint256"
        }
      ],
      "stateMutability": "view",
      "type": "function"
    },
    {
      "inputs": [],
      "name": "swapRequestCounter",
      "outputs": [
        {
          "internalType": "uint256",
          "name": "",
          "type": "uint256"
        }
      ],
      "stateMutability": "view",
      "type": "function"
    }
  ],
  "bytecode": "0x6080604052348015600e575f5ffd5b505f6008819055505f600981905550612fd58061002a5f395ff3fe608060405234801561000f575f5ffd5b50600436106100a7575f3560e01c8063a1ae27e61161006f578063a1ae27e614610189578063a3b8e33d146101a7578063bafa6b6b146101d7578063bfdce33f146101f5578063cf39918e14610225578063d88955dd14610255576100a7565b806308ae2b67146100ab5780634a23656d146100db5780636659af271461010b5780638a95c9a21461013b5780638af03c031461016b575b5f5ffd5b6100c560048036038101906100c09190611c95565b610273565b6040516100d29190611cf4565b60405180910390f35b6100f560048036038101906100f09190611d37565b6105de565b6040516101029190612004565b60405180910390f35b6101256004803603810190610120919061204e565b610aa3565b6040516101329190611cf4565b60405180910390f35b61015560048036038101906101509190611d37565b610c08565b604051610162919061219a565b60405180910390f35b610173610d62565b6040516101809190611cf4565b60405180910390f35b610191610d68565b60405161019e9190611cf4565b60405180910390f35b6101c160048036038101906101bc91906122fa565b610d79565b6040516101ce919061256d565b60405180910390f35b6101df6112e6565b6040516101ec9190611cf4565b60405180910390f35b61020f600480360381019061020a9190611d37565b6112ec565b60405161021c919061256d565b60405180910390f35b61023f600480360381019061023a9190611d37565b611865565b60405161024c91906125f3565b60405180910390f35b61025d61190c565b60405161026a9190611cf4565b60405180910390f35b5f60085f81548092919061028690612639565b91905055508160055f60085481526020019081526020015f2081816102ab9190612dac565b9050506102c4600854600261191c90919063ffffffff16565b5060055f60085481526020019081526020015f2060075f845f0160208101906102ed9190612dba565b73ffffffffffffffffffffffffffffffffffffffff1673ffffffffffffffffffffffffffffffffffffffff1681526020019081526020015f205f82015f9054906101000a900473ffffffffffffffffffffffffffffffffffffffff16815f015f6101000a81548173ffffffffffffffffffffffffffffffffffffffff021916908373ffffffffffffffffffffffffffffffffffffffff1602179055506001820181600101908161039d9190612dfa565b50600282018160020190816103b29190612dfa565b5060038201548160030155600482018160040190816103d19190612dfa565b50600582018160050190816103e69190612dfa565b506006820154816006015560078201548160070155600882015f9054906101000a900460ff16816008015f6101000a81548160ff0219169083600181111561043157610430611e20565b5b021790555060098201548160090155600a82015f9054906101000a900473ffffffffffffffffffffffffffffffffffffffff1681600a015f6101000a81548173ffffffffffffffffffffffffffffffffffffffff021916908373ffffffffffffffffffffffffffffffffffffffff160217905550600b82015f9054906101000a900473ffffffffffffffffffffffffffffffffffffffff1681600b015f6101000a81548173ffffffffffffffffffffffffffffffffffffffff021916908373ffffffffffffffffffffffffffffffffffffffff160217905550600c82015481600c0155600d82015f9054906101000a900473ffffffffffffffffffffffffffffffffffffffff1681600d015f6101000a81548173ffffffffffffffffffffffffffffffffffffffff021916908373ffffffffffffffffffffffffffffffffffffffff160217905550600e82015481600e0155600f820181600f0190816105979190612dfa565b509050507fbfc17d8eee9c08f676eaa9ad80d7cbceee511a33942f8d12e41120ae221351a46008546040516105cc9190611cf4565b60405180910390a16008549050919050565b6105e6611b45565b60055f8381526020019081526020015f20604051806102000160405290815f82015f9054906101000a900473ffffffffffffffffffffffffffffffffffffffff1673ffffffffffffffffffffffffffffffffffffffff1673ffffffffffffffffffffffffffffffffffffffff168152602001600182018054610667906127f2565b80601f0160208091040260200160405190810160405280929190818152602001828054610693906127f2565b80156106de5780601f106106b5576101008083540402835291602001916106de565b820191905f5260205f20905b8154815290600101906020018083116106c157829003601f168201915b505050505081526020016002820180546106f7906127f2565b80601f0160208091040260200160405190810160405280929190818152602001828054610723906127f2565b801561076e5780601f106107455761010080835404028352916020019161076e565b820191905f5260205f20905b81548152906001019060200180831161075157829003601f168201915b5050505050815260200160038201548152602001600482018054610791906127f2565b80601f01602080910402602001604051908101604052809291908181526020018280546107bd906127f2565b80156108085780601f106107df57610100808354040283529160200191610808565b820191905f5260205f20905b8154815290600101906020018083116107eb57829003601f168201915b50505050508152602001600582018054610821906127f2565b80601f016020809104026020016040519081016040528092919081815260200182805461084d906127f2565b80156108985780601f1061086f57610100808354040283529160200191610898565b820191905f5260205f20905b81548152906001019060200180831161087b57829003601f168201915b505050505081526020016006820154815260200160078201548152602001600882015f9054906101000a900460ff1660018111156108d9576108d8611e20565b5b60018111156108eb576108ea611e20565b5b815260200160098201548152602001600a82015f9054906101000a900473ffffffffffffffffffffffffffffffffffffffff1673ffffffffffffffffffffffffffffffffffffffff1673ffffffffffffffffffffffffffffffffffffffff168152602001600b82015f9054906101000a900473ffffffffffffffffffffffffffffffffffffffff1673ffffffffffffffffffffffffffffffffffffffff1673ffffffffffffffffffffffffffffffffffffffff168152602001600c8201548152602001600d82015f9054906101000a900473ffffffffffffffffffffffffffffffffffffffff1673ffffffffffffffffffffffffffffffffffffffff1673ffffffffffffffffffffffffffffffffffffffff168152602001600e8201548152602001600f82018054610a1c906127f2565b80601f0160208091040260200160405190810160405280929190818152602001828054610a48906127f2565b8015610a935780601f10610a6a57610100808354040283529160200191610a93565b820191905f5260205f20905b815481529060010190602001808311610a7657829003601f168201915b5050505050815250509050919050565b5f60095f815480929190610ab690612639565b91905055508160045f60095481526020019081526020015f206001015f6101000a81548173ffffffffffffffffffffffffffffffffffffffff021916908373ffffffffffffffffffffffffffffffffffffffff16021790555060055f8481526020019081526020015f206009015442610b2f9190612edf565b60045f60095481526020019081526020015f20600201819055504260045f60095481526020019081526020015f20600301819055505f60045f60095481526020019081526020015f20600401819055508260045f60095481526020019081526020015f205f0181905550610bad83600261193390919063ffffffff16565b50610bc36009545f61191c90919063ffffffff16565b507f5c1019188007805217d52899f92ee2a806de676dba6cf33562b41458d3af561d600954604051610bf59190611cf4565b60405180910390a1600954905092915050565b60605f610c145f61194a565b90505f8367ffffffffffffffff811115610c3157610c306121be565b5b604051908082528060200260200182016040528015610c6a57816020015b610c57611c21565b815260200190600190039081610c4f5790505b5090505f5f90505b84811015610d575760045f848381518110610c9057610c8f612f12565b5b602002602001015181526020019081526020015f206040518060a00160405290815f8201548152602001600182015f9054906101000a900473ffffffffffffffffffffffffffffffffffffffff1673ffffffffffffffffffffffffffffffffffffffff1673ffffffffffffffffffffffffffffffffffffffff1681526020016002820154815260200160038201548152602001600482015481525050828281518110610d3f57610d3e612f12565b5b60200260200101819052508080600101915050610c72565b508092505050919050565b60095481565b5f610d73600261194a565b51905090565b60605f825167ffffffffffffffff811115610d9757610d966121be565b5b604051908082528060200260200182016040528015610dd057816020015b610dbd611b45565b815260200190600190039081610db55790505b5090505f5f90505b83518110156112dc5760055f858381518110610df757610df6612f12565b5b602002602001015181526020019081526020015f20604051806102000160405290815f82015f9054906101000a900473ffffffffffffffffffffffffffffffffffffffff1673ffffffffffffffffffffffffffffffffffffffff1673ffffffffffffffffffffffffffffffffffffffff168152602001600182018054610e7c906127f2565b80601f0160208091040260200160405190810160405280929190818152602001828054610ea8906127f2565b8015610ef35780601f10610eca57610100808354040283529160200191610ef3565b820191905f5260205f20905b815481529060010190602001808311610ed657829003601f168201915b50505050508152602001600282018054610f0c906127f2565b80601f0160208091040260200160405190810160405280929190818152602001828054610f38906127f2565b8015610f835780601f10610f5a57610100808354040283529160200191610f83565b820191905f5260205f20905b815481529060010190602001808311610f6657829003601f168201915b5050505050815260200160038201548152602001600482018054610fa6906127f2565b80601f0160208091040260200160405190810160405280929190818152602001828054610fd2906127f2565b801561101d5780601f10610ff45761010080835404028352916020019161101d565b820191905f5260205f20905b81548152906001019060200180831161100057829003601f168201915b50505050508152602001600582018054611036906127f2565b80601f0160208091040260200160405190810160405280929190818152602001828054611062906127f2565b80156110ad5780601f10611084576101008083540402835291602001916110ad565b820191905f5260205f20905b81548152906001019060200180831161109057829003601f168201915b505050505081526020016006820154815260200160078201548152602001600882015f9054906101000a900460ff1660018111156110ee576110ed611e20565b5b6001811115611100576110ff611e20565b5b815260200160098201548152602001600a82015f9054906101000a900473ffffffffffffffffffffffffffffffffffffffff1673ffffffffffffffffffffffffffffffffffffffff1673ffffffffffffffffffffffffffffffffffffffff168152602001600b82015f9054906101000a900473ffffffffffffffffffffffffffffffffffffffff1673ffffffffffffffffffffffffffffffffffffffff1673ffffffffffffffffffffffffffffffffffffffff168152602001600c8201548152602001600d82015f9054906101000a900473ffffffffffffffffffffffffffffffffffffffff1673ffffffffffffffffffffffffffffffffffffffff1673ffffffffffffffffffffffffffffffffffffffff168152602001600e8201548152602001600f82018054611231906127f2565b80601f016020809104026020016040519081016040528092919081815260200182805461125d906127f2565b80156112a85780601f1061127f576101008083540402835291602001916112a8565b820191905f5260205f20905b81548152906001019060200180831161128b57829003601f168201915b5050505050815250508282815181106112c4576112c3612f12565b5b60200260200101819052508080600101915050610dd8565b5080915050919050565b60085481565b60605f6112f9600261194a565b90505f8367ffffffffffffffff811115611316576113156121be565b5b60405190808252806020026020018201604052801561134f57816020015b61133c611b45565b8152602001906001900390816113345790505b5090505f5f90505b8481101561185a5760055f84838151811061137557611374612f12565b5b602002602001015181526020019081526020015f20604051806102000160405290815f82015f9054906101000a900473ffffffffffffffffffffffffffffffffffffffff1673ffffffffffffffffffffffffffffffffffffffff1673ffffffffffffffffffffffffffffffffffffffff1681526020016001820180546113fa906127f2565b80601f0160208091040260200160405190810160405280929190818152602001828054611426906127f2565b80156114715780601f1061144857610100808354040283529160200191611471565b820191905f5260205f20905b81548152906001019060200180831161145457829003601f168201915b5050505050815260200160028201805461148a906127f2565b80601f01602080910402602001604051908101604052809291908181526020018280546114b6906127f2565b80156115015780601f106114d857610100808354040283529160200191611501565b820191905f5260205f20905b8154815290600101906020018083116114e457829003601f168201915b5050505050815260200160038201548152602001600482018054611524906127f2565b80601f0160208091040260200160405190810160405280929190818152602001828054611550906127f2565b801561159b5780601f106115725761010080835404028352916020019161159b565b820191905f5260205f20905b81548152906001019060200180831161157e57829003601f168201915b505050505081526020016005820180546115b4906127f2565b80601f01602080910402602001604051908101604052809291908181526020018280546115e0906127f2565b801561162b5780601f106116025761010080835404028352916020019161162b565b820191905f5260205f20905b81548152906001019060200180831161160e57829003601f168201915b505050505081526020016006820154815260200160078201548152602001600882015f9054906101000a900460ff16600181111561166c5761166b611e20565b5b600181111561167e5761167d611e20565b5b815260200160098201548152602001600a82015f9054906101000a900473ffffffffffffffffffffffffffffffffffffffff1673ffffffffffffffffffffffffffffffffffffffff1673ffffffffffffffffffffffffffffffffffffffff168152602001600b82015f9054906101000a900473ffffffffffffffffffffffffffffffffffffffff1673ffffffffffffffffffffffffffffffffffffffff1673ffffffffffffffffffffffffffffffffffffffff168152602001600c8201548152602001600d82015f9054906101000a900473ffffffffffffffffffffffffffffffffffffffff1673ffffffffffffffffffffffffffffffffffffffff1673ffffffffffffffffffffffffffffffffffffffff168152602001600e8201548152602001600f820180546117af906127f2565b80601f01602080910402602001604051908101604052809291908181526020018280546117db906127f2565b80156118265780601f106117fd57610100808354040283529160200191611826565b820191905f5260205f20905b81548152906001019060200180831161180957829003601f168201915b50505050508152505082828151811061184257611841612f12565b5b60200260200101819052508080600101915050611357565b508092505050919050565b61186d611c21565b60045f8381526020019081526020015f206040518060a00160405290815f8201548152602001600182015f9054906101000a900473ffffffffffffffffffffffffffffffffffffffff1673ffffffffffffffffffffffffffffffffffffffff1673ffffffffffffffffffffffffffffffffffffffff16815260200160028201548152602001600382015481526020016004820154815250509050919050565b5f6119165f61194a565b51905090565b5f61192b835f01835f1b611969565b905092915050565b5f611942835f01835f1b6119d0565b905092915050565b60605f611958835f01611acc565b905060608190508092505050919050565b5f6119748383611b25565b6119c657825f0182908060018154018082558091505060019003905f5260205f20015f9091909190915055825f0180549050836001015f8481526020019081526020015f2081905550600190506119ca565b5f90505b92915050565b5f5f836001015f8481526020019081526020015f205490505f8114611ac1575f6001826119fd9190612f3f565b90505f6001865f0180549050611a139190612f3f565b9050808214611a79575f865f018281548110611a3257611a31612f12565b5b905f5260205f200154905080875f018481548110611a5357611a52612f12565b5b905f5260205f20018190555083876001015f8381526020019081526020015f2081905550505b855f01805480611a8c57611a8b612f72565b5b600190038181905f5260205f20015f90559055856001015f8681526020019081526020015f205f905560019350505050611ac6565b5f9150505b92915050565b6060815f01805480602002602001604051908101604052809291908181526020018280548015611b1957602002820191905f5260205f20905b815481526020019060010190808311611b05575b50505050509050919050565b5f5f836001015f8481526020019081526020015f20541415905092915050565b6040518061020001604052805f73ffffffffffffffffffffffffffffffffffffffff16815260200160608152602001606081526020015f815260200160608152602001606081526020015f81526020015f81526020015f6001811115611bae57611bad611e20565b5b81526020015f81526020015f73ffffffffffffffffffffffffffffffffffffffff1681526020015f73ffffffffffffffffffffffffffffffffffffffff1681526020015f81526020015f73ffffffffffffffffffffffffffffffffffffffff1681526020015f8152602001606081525090565b6040518060a001604052805f81526020015f73ffffffffffffffffffffffffffffffffffffffff1681526020015f81526020015f81526020015f81525090565b5f604051905090565b5f5ffd5b5f5ffd5b5f5ffd5b5f6102008284031215611c8c57611c8b611c72565b5b81905092915050565b5f60208284031215611caa57611ca9611c6a565b5b5f82013567ffffffffffffffff811115611cc757611cc6611c6e565b5b611cd384828501611c76565b91505092915050565b5f819050919050565b611cee81611cdc565b82525050565b5f602082019050611d075f830184611ce5565b92915050565b611d1681611cdc565b8114611d20575f5ffd5b50565b5f81359050611d3181611d0d565b92915050565b5f60208284031215611d4c57611d4b611c6a565b5b5f611d5984828501611d23565b91505092915050565b5f73ffffffffffffffffffffffffffffffffffffffff82169050919050565b5f611d8b82611d62565b9050919050565b611d9b81611d81565b82525050565b5f81519050919050565b5f82825260208201905092915050565b8281835e5f83830152505050565b5f601f19601f8301169050919050565b5f611de382611da1565b611ded8185611dab565b9350611dfd818560208601611dbb565b611e0681611dc9565b840191505092915050565b611e1a81611cdc565b82525050565b7f4e487b71000000000000000000000000000000000000000000000000000000005f52602160045260245ffd5b60028110611e5e57611e5d611e20565b5b50565b5f819050611e6e82611e4d565b919050565b5f611e7d82611e61565b9050919050565b611e8d81611e73565b82525050565b5f61020083015f830151611ea95f860182611d92565b5060208301518482036020860152611ec18282611dd9565b91505060408301518482036040860152611edb8282611dd9565b9150506060830151611ef06060860182611e11565b5060808301518482036080860152611f088282611dd9565b91505060a083015184820360a0860152611f228282611dd9565b91505060c0830151611f3760c0860182611e11565b5060e0830151611f4a60e0860182611e11565b50610100830151611f5f610100860182611e84565b50610120830151611f74610120860182611e11565b50610140830151611f89610140860182611d92565b50610160830151611f9e610160860182611d92565b50610180830151611fb3610180860182611e11565b506101a0830151611fc86101a0860182611d92565b506101c0830151611fdd6101c0860182611e11565b506101e08301518482036101e0860152611ff78282611dd9565b9150508091505092915050565b5f6020820190508181035f83015261201c8184611e93565b905092915050565b61202d81611d81565b8114612037575f5ffd5b50565b5f8135905061204881612024565b92915050565b5f5f6040838503121561206457612063611c6a565b5b5f61207185828601611d23565b92505060206120828582860161203a565b9150509250929050565b5f81519050919050565b5f82825260208201905092915050565b5f819050602082019050919050565b60a082015f8201516120c95f850182611e11565b5060208201516120dc6020850182611d92565b5060408201516120ef6040850182611e11565b5060608201516121026060850182611e11565b5060808201516121156080850182611e11565b50505050565b5f61212683836120b5565b60a08301905092915050565b5f602082019050919050565b5f6121488261208c565b6121528185612096565b935061215d836120a6565b805f5b8381101561218d578151612174888261211b565b975061217f83612132565b925050600181019050612160565b5085935050505092915050565b5f6020820190508181035f8301526121b2818461213e565b905092915050565b5f5ffd5b7f4e487b71000000000000000000000000000000000000000000000000000000005f52604160045260245ffd5b6121f482611dc9565b810181811067ffffffffffffffff82111715612213576122126121be565b5b80604052505050565b5f612225611c61565b905061223182826121eb565b919050565b5f67ffffffffffffffff8211156122505761224f6121be565b5b602082029050602081019050919050565b5f5ffd5b5f61227761227284612236565b61221c565b9050808382526020820190506020840283018581111561229a57612299612261565b5b835b818110156122c357806122af8882611d23565b84526020840193505060208101905061229c565b5050509392505050565b5f82601f8301126122e1576122e06121ba565b5b81356122f1848260208601612265565b91505092915050565b5f6020828403121561230f5761230e611c6a565b5b5f82013567ffffffffffffffff81111561232c5761232b611c6e565b5b612338848285016122cd565b91505092915050565b5f81519050919050565b5f82825260208201905092915050565b5f819050602082019050919050565b5f61020083015f8301516123805f860182611d92565b50602083015184820360208601526123988282611dd9565b915050604083015184820360408601526123b28282611dd9565b91505060608301516123c76060860182611e11565b50608083015184820360808601526123df8282611dd9565b91505060a083015184820360a08601526123f98282611dd9565b91505060c083015161240e60c0860182611e11565b5060e083015161242160e0860182611e11565b50610100830151612436610100860182611e84565b5061012083015161244b610120860182611e11565b50610140830151612460610140860182611d92565b50610160830151612475610160860182611d92565b5061018083015161248a610180860182611e11565b506101a083015161249f6101a0860182611d92565b506101c08301516124b46101c0860182611e11565b506101e08301518482036101e08601526124ce8282611dd9565b9150508091505092915050565b5f6124e6838361236a565b905092915050565b5f602082019050919050565b5f61250482612341565b61250e818561234b565b9350836020820285016125208561235b565b805f5b8581101561255b578484038952815161253c85826124db565b9450612547836124ee565b925060208a01995050600181019050612523565b50829750879550505050505092915050565b5f6020820190508181035f83015261258581846124fa565b905092915050565b60a082015f8201516125a15f850182611e11565b5060208201516125b46020850182611d92565b5060408201516125c76040850182611e11565b5060608201516125da6060850182611e11565b5060808201516125ed6080850182611e11565b50505050565b5f60a0820190506126065f83018461258d565b92915050565b7f4e487b71000000000000000000000000000000000000000000000000000000005f52601160045260245ffd5b5f61264382611cdc565b91507fffffffffffffffffffffffffffffffffffffffffffffffffffffffffffffffff82036126755761267461260c565b5b600182019050919050565b5f813561268c81612024565b80915050919050565b5f815f1b9050919050565b5f73ffffffffffffffffffffffffffffffffffffffff6126bf84612695565b9350801983169250808416831791505092915050565b5f819050919050565b5f6126f86126f36126ee84611d62565b6126d5565b611d62565b9050919050565b5f612709826126de565b9050919050565b5f61271a826126ff565b9050919050565b5f819050919050565b61273382612710565b61274661273f82612721565b83546126a0565b8255505050565b5f5ffd5b5f5ffd5b5f5ffd5b5f5f833560016020038436030381126127755761277461274d565b5b80840192508235915067ffffffffffffffff82111561279757612796612751565b5b6020830192506001820236038313156127b3576127b2612755565b5b509250929050565b5f82905092915050565b7f4e487b71000000000000000000000000000000000000000000000000000000005f52602260045260245ffd5b5f600282049050600182168061280957607f821691505b60208210810361281c5761281b6127c5565b5b50919050565b5f819050815f5260205f209050919050565b5f6020601f8301049050919050565b5f82821b905092915050565b5f6008830261287e7fffffffffffffffffffffffffffffffffffffffffffffffffffffffffffffffff82612843565b6128888683612843565b95508019841693508086168417925050509392505050565b5f6128ba6128b56128b084611cdc565b6126d5565b611cdc565b9050919050565b5f819050919050565b6128d3836128a0565b6128e76128df826128c1565b84845461284f565b825550505050565b5f5f905090565b6128fe6128ef565b6129098184846128ca565b505050565b5b8181101561292c576129215f826128f6565b60018101905061290f565b5050565b601f8211156129715761294281612822565b61294b84612834565b8101602085101561295a578190505b61296e61296685612834565b83018261290e565b50505b505050565b5f82821c905092915050565b5f6129915f1984600802612976565b1980831691505092915050565b5f6129a98383612982565b9150826002028217905092915050565b6129c383836127bb565b67ffffffffffffffff8111156129dc576129db6121be565b5b6129e682546127f2565b6129f1828285612930565b5f601f831160018114612a1e575f8415612a0c578287013590505b612a16858261299e565b865550612a7d565b601f198416612a2c86612822565b5f5b82811015612a5357848901358255600182019150602085019450602081019050612a2e565b86831015612a705784890135612a6c601f891682612982565b8355505b6001600288020188555050505b50505050505050565b612a918383836129b9565b505050565b5f8135612aa281611d0d565b80915050919050565b5f7fffffffffffffffffffffffffffffffffffffffffffffffffffffffffffffffff612ad684612695565b9350801983169250808416831791505092915050565b612af5826128a0565b612b08612b01826128c1565b8354612aab565b8255505050565b60028110612b1b575f5ffd5b50565b5f8135612b2a81612b0f565b80915050919050565b5f60ff612b3f84612695565b9350801983169250808416831791505092915050565b5f612b5f82611e61565b9050919050565b5f819050919050565b612b7882612b55565b612b8b612b8482612b66565b8354612b33565b8255505050565b5f81015f830180612ba281612680565b9050612bae818461272a565b5050506001810160208301612bc38185612759565b612bce818386612a86565b505050506002810160408301612be48185612759565b612bef818386612a86565b50505050600381016060830180612c0581612a96565b9050612c118184612aec565b5050506004810160808301612c268185612759565b612c31818386612a86565b505050506005810160a08301612c478185612759565b612c52818386612a86565b505050506006810160c0830180612c6881612a96565b9050612c748184612aec565b5050506007810160e0830180612c8981612a96565b9050612c958184612aec565b50505060088101610100830180612cab81612b1e565b9050612cb78184612b6f565b50505060098101610120830180612ccd81612a96565b9050612cd98184612aec565b505050600a8101610140830180612cef81612680565b9050612cfb818461272a565b505050600b8101610160830180612d1181612680565b9050612d1d818461272a565b505050600c8101610180830180612d3381612a96565b9050612d3f8184612aec565b505050600d81016101a0830180612d5581612680565b9050612d61818461272a565b505050600e81016101c0830180612d7781612a96565b9050612d838184612aec565b505050600f81016101e08301612d998185612759565b612da4818386612a86565b505050505050565b612db68282612b92565b5050565b5f60208284031215612dcf57612dce611c6a565b5b5f612ddc8482850161203a565b91505092915050565b5f81549050612df3816127f2565b9050919050565b818103612e08575050612edd565b612e1182612de5565b67ffffffffffffffff811115612e2a57612e296121be565b5b612e3482546127f2565b612e3f828285612930565b5f601f831160018114612e6c575f8415612e5a578287015490505b612e64858261299e565b865550612ed6565b601f198416612e7a87612822565b9650612e8586612822565b5f5b82811015612eac57848901548255600182019150600185019450602081019050612e87565b86831015612ec95784890154612ec5601f891682612982565b8355505b6001600288020188555050505b5050505050505b565b5f612ee982611cdc565b9150612ef483611cdc565b9250828201905080821115612f0c57612f0b61260c565b5b92915050565b7f4e487b71000000000000000000000000000000000000000000000000000000005f52603260045260245ffd5b5f612f4982611cdc565b9150612f5483611cdc565b9250828203905081811115612f6c57612f6b61260c565b5b92915050565b7f4e487b71000000000000000000000000000000000000000000000000000000005f52603160045260245ffdfea2646970667358221220f82c0b0a77e3d839c3cce4c7eaed6ab7f61f627ba010c14a57f00ae843c4934064736f6c634300081c0033",
  "linkReferences": {},
  "deployedLinkReferences": {},
  "immutableReferences": {},
  "inputSourceName": "project/contracts/quote.sol",
  "buildInfoId": "solc-0_8_28-548962f6b5055cd7e3838c1d3fd5400c25518037"
}