{
	"data": {
		"bytecode": {
			"linkReferences": {},
			"object": "608060405234801561000f575f5ffd5b5061001e61002360201b60201c565b6101fe565b5f61003261013260201b60201c565b90505f6100478260050161015e60201b60201c565b14610087576040517f08c379a000000000000000000000000000000000000000000000000000000000815260040161007e906101e0565b60405180910390fd5b33816008015f6101000a81548173ffffffffffffffffffffffffffffffffffffffff021916908373ffffffffffffffffffffffffffffffffffffffff16021790555033816007015f6101000a81548173ffffffffffffffffffffffffffffffffffffffff021916908373ffffffffffffffffffffffffffffffffffffffff1602179055506001816004015f600181526020019081526020015f2081905550600381600c018190555050565b5f5f7f171def12e82c8f3351e4c79b7854be19ad60a75b888f74b9660c07cd7461963390508091505090565b5f610170825f0161017760201b60201c565b9050919050565b5f815f01805490509050919050565b5f82825260208201905092915050565b7f616c726561647920696e697469616c697a6564000000000000000000000000005f82015250565b5f6101ca601383610186565b91506101d582610196565b602082019050919050565b5f6020820190508181035f8301526101f7816101be565b9050919050565b61490e8061020b5f395ff3fe608060405234801561000f575f5ffd5b5060043610610230575f3560e01c8063921415521161012e578063c1aff899116100b6578063ccb78fb61161007a578063ccb78fb614610692578063e4af29fc146106c2578063e6ad2928146106e0578063f75c8b2d146106fc578063fec99aef1461072c57610230565b8063c1aff899146105dc578063c5f5b9841461060c578063c704668c14610628578063ca05588a14610658578063cb53ad261461067457610230565b8063ae8c49a5116100fd578063ae8c49a51461053a578063b8037ffe14610556578063bac710ea14610574578063c001bc7914610590578063c12f1a42146105ac57610230565b806392141552146104c857806393c8bc43146104e457806396a7cc5414610502578063a6b6b6721461051e57610230565b8063683f2de8116101bc578063749e4d0711610180578063749e4d0714610412578063793122451461042e5780637af361ef1461044a5780638da5cb5b1461047a57806390222cad1461049857610230565b8063683f2de81461035e5780636a3d77a91461037a5780636e06ac9c146103965780636fe1fb84146103b2578063719fac43146103e257610230565b8063383603fe11610203578063383603fe146102bc57806340b4d453146102da57806352067859146102f6578063542970ed146103125780635d861c721461034257610230565b8063291ff1ea1461023457806329b57c69146102645780632fa92e411461028257806334b7f87a1461029e575b5f5ffd5b61024e600480360381019061024991906133be565b610748565b60405161025b9190613602565b60405180910390f35b61026c610afe565b6040516102799190613631565b60405180910390f35b61029c60048036038101906102979190613776565b610b10565b005b6102a6610bf0565b6040516102b39190613631565b60405180910390f35b6102c4610c02565b6040516102d19190613834565b60405180910390f35b6102f460048036038101906102ef919061384d565b610c38565b005b610310600480360381019061030b919061388b565b610d23565b005b61032c600480360381019061032791906133be565b610d44565b60405161033991906139c5565b60405180910390f35b61035c600480360381019061035791906139e5565b610f90565b005b6103786004803603810190610373919061384d565b61101a565b005b610394600480360381019061038f9190613a35565b6110ba565b005b6103b060048036038101906103ab91906139e5565b611156565b005b6103cc60048036038101906103c7919061388b565b6111be565b6040516103d99190613631565b60405180910390f35b6103fc60048036038101906103f7919061388b565b6111e1565b6040516104099190613aeb565b60405180910390f35b61042c60048036038101906104279190613bf2565b6111f3565b005b61044860048036038101906104439190613d29565b611386565b005b610464600480360381019061045f91906139e5565b6115ba565b6040516104719190613602565b60405180910390f35b61048261192b565b60405161048f9190613834565b60405180910390f35b6104b260048036038101906104ad9190613dd8565b61195c565b6040516104bf9190613631565b60405180910390f35b6104e260048036038101906104dd9190613e16565b6119b4565b005b6104ec611bb1565b6040516104f99190613f6d565b60405180910390f35b61051c60048036038101906105179190613f8d565b611bd0565b005b61053860048036038101906105339190613776565b611c7e565b005b610554600480360381019061054f919061410e565b611d03565b005b61055e611d74565b60405161056b9190613631565b60405180910390f35b61058e600480360381019061058991906139e5565b611d8d565b005b6105aa60048036038101906105a59190614155565b611deb565b005b6105c660048036038101906105c1919061388b565b611e45565b6040516105d39190613631565b60405180910390f35b6105f660048036038101906105f1919061388b565b611e68565b6040516106039190613631565b60405180910390f35b6106266004803603810190610621919061384d565b611e8b565b005b610642600480360381019061063d91906139e5565b611fb2565b60405161064f919061430c565b60405180910390f35b610672600480360381019061066d919061384d565b61229e565b005b61067c6122ca565b6040516106899190613834565b60405180910390f35b6106ac60048036038101906106a7919061388b565b6122fb565b6040516106b99190613834565b60405180910390f35b6106ca61233d565b6040516106d79190613631565b60405180910390f35b6106fa60048036038101906106f59190614155565b61234f565b005b610716600480360381019061071191906139e5565b6123a4565b60405161072391906139c5565b60405180910390f35b6107466004803603810190610741919061432c565b6125da565b005b60605f61075486612750565b90505f61075f6127d7565b90505f82600d015f8881526020019081526020015f2090505f5f61078f61078884600501612803565b8989612816565b915091505f8167ffffffffffffffff8111156107ae576107ad613652565b5b6040519080825280602002602001820160405280156107e757816020015b6107d4613272565b8152602001906001900390816107cc5790505b5090505f5f90505b82811015610aec575f6108198286610807919061441a565b8760050161288090919063ffffffff16565b90505f876003015f8381526020019081526020015f205f9054906101000a900473ffffffffffffffffffffffffffffffffffffffff169050808484815181106108655761086461444d565b5b60200260200101516060019073ffffffffffffffffffffffffffffffffffffffff16908173ffffffffffffffffffffffffffffffffffffffff1681525050886012015f8273ffffffffffffffffffffffffffffffffffffffff1673ffffffffffffffffffffffffffffffffffffffff1681526020019081526020015f2060010180546108f0906144a7565b80601f016020809104026020016040519081016040528092919081815260200182805461091c906144a7565b80156109675780601f1061093e57610100808354040283529160200191610967565b820191905f5260205f20905b81548152906001019060200180831161094a57829003601f168201915b505050505084848151811061097f5761097e61444d565b5b602002602001015160200181905250886012015f8273ffffffffffffffffffffffffffffffffffffffff1673ffffffffffffffffffffffffffffffffffffffff1681526020019081526020015f2060020180546109db906144a7565b80601f0160208091040260200160405190810160405280929190818152602001828054610a07906144a7565b8015610a525780601f10610a2957610100808354040283529160200191610a52565b820191905f5260205f20905b815481529060010190602001808311610a3557829003601f168201915b5050505050848481518110610a6a57610a6961444d565b5b602002602001015160400181905250886012015f8273ffffffffffffffffffffffffffffffffffffffff1673ffffffffffffffffffffffffffffffffffffffff1681526020019081526020015f205f0154848481518110610ace57610acd61444d565b5b60200260200101515f018181525050505080806001019150506107ef565b50809650505050505050949350505050565b5f610b076127d7565b60090154905090565b610b1a8585612897565b610b23856128ae565b5f610b2c6127d7565b90505f815f015f8881526020019081526020015f209050610b6b8582600d015f8981526020019081526020015f2060030161291490919063ffffffff16565b5084816010015f8781526020019081526020015f205f018190555083816010015f8781526020019081526020015f206001019081610ba99190614677565b5082816010015f8781526020019081526020015f206002019081610bcd9190614677565b50806015015f815480929190610be290614746565b919050555050505050505050565b5f610bf96127d7565b600c0154905090565b5f5f610c0c6127d7565b905080600b015f9054906101000a900473ffffffffffffffffffffffffffffffffffffffff1691505090565b610c413361292b565b610c4a8261293f565b610c53826128ae565b5f610c5c6127d7565b90505f816002015f8581526020019081526020015f205490505f825f015f8381526020019081526020015f2090505f85825f016003015414610cb05781600a015f8781526020019081526020015f20610cb4565b815f015b90508481600501541015610d015785856040517fcf479181000000000000000000000000000000000000000000000000000000008152600401610cf892919061478d565b60405180910390fd5b84816005015f828254610d1491906147b4565b92505081905550505050505050565b610d2c3361294c565b5f610d356127d7565b90508181600c01819055505050565b60605f610d5086612750565b90505f81600d015f8781526020019081526020015f2090505f610d7582600301612803565b90505f5f610d84838989612816565b915091505f8167ffffffffffffffff811115610da357610da2613652565b5b604051908082528060200260200182016040528015610ddc57816020015b610dc96132ae565b815260200190600190039081610dc15790505b5090505f5f90505b82811015610f7e57866010015f610e128387610e00919061441a565b8960030161288090919063ffffffff16565b81526020019081526020015f206040518060600160405290815f8201548152602001600182018054610e43906144a7565b80601f0160208091040260200160405190810160405280929190818152602001828054610e6f906144a7565b8015610eba5780601f10610e9157610100808354040283529160200191610eba565b820191905f5260205f20905b815481529060010190602001808311610e9d57829003601f168201915b50505050508152602001600282018054610ed3906144a7565b80601f0160208091040260200160405190810160405280929190818152602001828054610eff906144a7565b8015610f4a5780601f10610f2157610100808354040283529160200191610f4a565b820191905f5260205f20905b815481529060010190602001808311610f2d57829003601f168201915b505050505081525050828281518110610f6657610f6561444d565b5b60200260200101819052508080600101915050610de4565b50809650505050505050949350505050565b610f9b838383612a6a565b610fa4836128ae565b5f610fad6127d7565b90505f815f015f8681526020019081526020015f209050610fec8382600d015f8781526020019081526020015f20600301612b0390919063ffffffff16565b505f8160150154111561101357806015015f81548092919061100d906147e7565b91905055505b5050505050565b6110233361292b565b61102c8261293f565b611035826128ae565b5f61103e6127d7565b90505f816002015f8581526020019081526020015f205490505f825f015f8381526020019081526020015f2090505f85825f0160030154146110925781600a015f8781526020019081526020015f20611096565b815f015b905084816005015f8282546110ab919061441a565b92505081905550505050505050565b6110c38461293f565b6110cd8484612b1a565b6110d6846128ae565b5f6110df6127d7565b905082815f015f8781526020019081526020015f20600a015f8681526020019081526020015f205f0160010190816111179190614677565b5081815f015f8781526020019081526020015f20600a015f8681526020019081526020015f205f01600201908161114e9190614677565b505050505050565b61115f8361293f565b61116a838383612b97565b611173836128ae565b5f61117c6127d7565b90506111b782825f015f8781526020019081526020015f20600d015f8681526020019081526020015f20600501612b0390919063ffffffff16565b5050505050565b5f6111c76127d7565b6001015f8381526020019081526020015f20549050919050565b5f6111ec8233612c30565b9050919050565b6111fc8761293f565b611205876128ae565b5f61120e6127d7565b90505f815f015f8a81526020019081526020015f20905061123f816016015482600b0161291490919063ffffffff16565b505f81600d015f836016015481526020019081526020015f2090508160160154815f015f018190555088815f01600101908161127b9190614677565b5087815f01600201908161128f9190614677565b505f5f90505b87518110156112dc576112ce8882815181106112b4576112b361444d565b5b60200260200101518360030161291490919063ffffffff16565b508080600101915050611295565b505f5f90505b86518110156113295761131b8782815181106113015761130061444d565b5b60200260200101518360050161291490919063ffffffff16565b5080806001019150506112e2565b5084816007015f6101000a81548160ff021916908315150217905550838160070160016101000a81548160ff021916908315150217905550816016015f81548092919061137590614746565b919050555050505050505050505050565b61138f33612d36565b5f6113986127d7565b90505f816002015f8881526020019081526020015f2054146113f157856040517f8be1f3fb0000000000000000000000000000000000000000000000000000000081526004016113e89190613631565b60405180910390fd5b5f815f015f8881526020019081526020015f20905085816013015f6101000a81548160ff02191690831515021790555082816007015f6101000a81548173ffffffffffffffffffffffffffffffffffffffff021916908373ffffffffffffffffffffffffffffffffffffffff16021790555086815f015f015f018190555084815f015f0160010190816114849190614677565b5083815f015f01600201908161149a9190614677565b505f815f016006015f6101000a81548160ff0219169083151502179055506001815f0160060160016101000a81548160ff0219169083151502179055506001815f0160060160026101000a81548160ff0219169083151502179055506001815f0160060160036101000a81548160ff0219169083151502179055506001815f0160060160046101000a81548160ff02191690831515021790555086815f01600301819055506312cc03004261154f919061441a565b815f01600401819055505f815f016005018190555086826002015f8981526020019081526020015f208190555081600a015f81548092919061159090614746565b919050555086826001015f84600a015481526020019081526020015f208190555050505050505050565b60605f6115c685612750565b90505f5f6115d983601401548787612816565b915091505f8167ffffffffffffffff8111156115f8576115f7613652565b5b60405190808252806020026020018201604052801561163157816020015b61161e613272565b8152602001906001900390816116165790505b5090505f5f90505b8281101561191c575f856011015f8387611653919061441a565b81526020019081526020015f205f9054906101000a900473ffffffffffffffffffffffffffffffffffffffff169050808383815181106116965761169561444d565b5b60200260200101516060019073ffffffffffffffffffffffffffffffffffffffff16908173ffffffffffffffffffffffffffffffffffffffff1681525050856012015f8273ffffffffffffffffffffffffffffffffffffffff1673ffffffffffffffffffffffffffffffffffffffff1681526020019081526020015f206001018054611721906144a7565b80601f016020809104026020016040519081016040528092919081815260200182805461174d906144a7565b80156117985780601f1061176f57610100808354040283529160200191611798565b820191905f5260205f20905b81548152906001019060200180831161177b57829003601f168201915b50505050508383815181106117b0576117af61444d565b5b602002602001015160200181905250856012015f8273ffffffffffffffffffffffffffffffffffffffff1673ffffffffffffffffffffffffffffffffffffffff1681526020019081526020015f20600201805461180c906144a7565b80601f0160208091040260200160405190810160405280929190818152602001828054611838906144a7565b80156118835780601f1061185a57610100808354040283529160200191611883565b820191905f5260205f20905b81548152906001019060200180831161186657829003601f168201915b505050505083838151811061189b5761189a61444d565b5b602002602001015160400181905250856012015f8273ffffffffffffffffffffffffffffffffffffffff1673ffffffffffffffffffffffffffffffffffffffff1681526020019081526020015f205f01548383815181106118ff576118fe61444d565b5b60200260200101515f018181525050508080600101915050611639565b50809450505050509392505050565b5f6119346127d7565b6007015f9054906101000a900473ffffffffffffffffffffffffffffffffffffffff16905090565b5f5f61196784612750565b9050806012015f8473ffffffffffffffffffffffffffffffffffffffff1673ffffffffffffffffffffffffffffffffffffffff1681526020019081526020015f205f015491505092915050565b6119bd8561293f565b6119c6856128ae565b5f6119cf6127d7565b90505f815f015f8881526020019081526020015f20905084816012015f8873ffffffffffffffffffffffffffffffffffffffff1673ffffffffffffffffffffffffffffffffffffffff1681526020019081526020015f205f018190555083816012015f8873ffffffffffffffffffffffffffffffffffffffff1673ffffffffffffffffffffffffffffffffffffffff1681526020019081526020015f206001019081611a7b9190614677565b5082816012015f8873ffffffffffffffffffffffffffffffffffffffff1673ffffffffffffffffffffffffffffffffffffffff1681526020019081526020015f206002019081611acb9190614677565b5085816011015f836014015481526020019081526020015f205f6101000a81548173ffffffffffffffffffffffffffffffffffffffff021916908373ffffffffffffffffffffffffffffffffffffffff160217905550806014015f815480929190611b3590614746565b9190505550816009015f815480929190611b4e90614746565b919050555085826003015f846009015481526020019081526020015f205f6101000a81548173ffffffffffffffffffffffffffffffffffffffff021916908373ffffffffffffffffffffffffffffffffffffffff16021790555050505050505050565b60605f611bbc6127d7565b9050611bca81600501612d9c565b91505090565b611bda8686612897565b611be3866128ae565b5f611bec6127d7565b90505f815f015f8981526020019081526020015f20600d015f8881526020019081526020015f20905085815f016001019081611c289190614677565b5084815f016002019081611c3c9190614677565b5083816007015f6101000a81548160ff021916908315150217905550828160070160016101000a81548160ff0219169083151502179055505050505050505050565b611c89858486612a6a565b611c92856128ae565b5f611c9b6127d7565b90505f815f015f8881526020019081526020015f20905083816010015f8881526020019081526020015f206001019081611cd59190614677565b5082816010015f8881526020019081526020015f206002019081611cf99190614677565b5050505050505050565b611d0c3361294c565b5f611d156127d7565b9050611d2381600501612dbb565b5f5f90505b8251811015611d6f57611d61838281518110611d4757611d4661444d565b5b602002602001015183600501612dc990919063ffffffff16565b508080600101915050611d28565b505050565b5f611d88611d806127d7565b600501612df6565b905090565b611d978383612897565b611da0836128ae565b5f611da96127d7565b9050611de482825f015f8781526020019081526020015f20600d015f8681526020019081526020015f2060050161291490919063ffffffff16565b5050505050565b611df43361294c565b5f611dfd6127d7565b90508181600b015f6101000a81548173ffffffffffffffffffffffffffffffffffffffff021916908373ffffffffffffffffffffffffffffffffffffffff1602179055505050565b5f611e4e6127d7565b6004015f8381526020019081526020015f20549050919050565b5f611e716127d7565b6004015f8381526020019081526020015f20549050919050565b611e948261293f565b611e9e8282612b1a565b611ea7826128ae565b5f611eb06127d7565b90505f815f015f8581526020019081526020015f209050611edd8382600801612b0390919063ffffffff16565b5080600a015f8481526020019081526020015f205f5f82015f5f82015f9055600182015f611f0b91906132ce565b600282015f611f1a91906132ce565b5050600382015f9055600482015f9055600582015f9055600682015f6101000a81549060ff02191690556006820160016101000a81549060ff02191690556006820160026101000a81549060ff02191690556006820160036101000a81549060ff02191690556006820160046101000a81549060ff02191690555050816002015f8481526020019081526020015f205f905550505050565b60605f611fbe85612750565b90505f611fcd82600801612803565b90505f5f611fdc838888612816565b915091505f8167ffffffffffffffff811115611ffb57611ffa613652565b5b60405190808252806020026020018201604052801561203457816020015b61202161330b565b8152602001906001900390816120195790505b5090505f5f90505b8281101561228e5785600a015f61206a8387612058919061441a565b8960080161288090919063ffffffff16565b81526020019081526020015f20604051806101200160405290815f82016040518060600160405290815f82015481526020016001820180546120ab906144a7565b80601f01602080910402602001604051908101604052809291908181526020018280546120d7906144a7565b80156121225780601f106120f957610100808354040283529160200191612122565b820191905f5260205f20905b81548152906001019060200180831161210557829003601f168201915b5050505050815260200160028201805461213b906144a7565b80601f0160208091040260200160405190810160405280929190818152602001828054612167906144a7565b80156121b25780601f10612189576101008083540402835291602001916121b2565b820191905f5260205f20905b81548152906001019060200180831161219557829003601f168201915b5050505050815250508152602001600382015481526020016004820154815260200160058201548152602001600682015f9054906101000a900460ff161515151581526020016006820160019054906101000a900460ff161515151581526020016006820160029054906101000a900460ff161515151581526020016006820160039054906101000a900460ff161515151581526020016006820160049054906101000a900460ff1615151515815250508282815181106122765761227561444d565b5b6020026020010181905250808060010191505061203c565b5080955050505050509392505050565b6122a73361292b565b806122b06127d7565b6004015f8481526020019081526020015f20819055505050565b5f6122d36127d7565b6008015f9054906101000a900473ffffffffffffffffffffffffffffffffffffffff16905090565b5f6123046127d7565b6003015f8381526020019081526020015f205f9054906101000a900473ffffffffffffffffffffffffffffffffffffffff169050919050565b5f6123466127d7565b600a0154905090565b6123583361292b565b806123616127d7565b6008015f6101000a81548173ffffffffffffffffffffffffffffffffffffffff021916908373ffffffffffffffffffffffffffffffffffffffff16021790555050565b60605f6123b085612750565b90505f6123bf82600b01612803565b90505f5f6123ce838888612816565b915091505f8167ffffffffffffffff8111156123ed576123ec613652565b5b60405190808252806020026020018201604052801561242657816020015b6124136132ae565b81526020019060019003908161240b5790505b5090505f5f90505b828110156125ca5785600d015f61245c838761244a919061441a565b89600b0161288090919063ffffffff16565b81526020019081526020015f205f016040518060600160405290815f820154815260200160018201805461248f906144a7565b80601f01602080910402602001604051908101604052809291908181526020018280546124bb906144a7565b80156125065780601f106124dd57610100808354040283529160200191612506565b820191905f5260205f20905b8154815290600101906020018083116124e957829003601f168201915b5050505050815260200160028201805461251f906144a7565b80601f016020809104026020016040519081016040528092919081815260200182805461254b906144a7565b80156125965780601f1061256d57610100808354040283529160200191612596565b820191905f5260205f20905b81548152906001019060200180831161257957829003601f168201915b5050505050815250508282815181106125b2576125b161444d565b5b6020026020010181905250808060010191505061242e565b5080955050505050509392505050565b6125e38661293f565b5f6125ec6127d7565b90505f816002015f8981526020019081526020015f205490505f825f015f8381526020019081526020015f20600a015f8981526020019081526020015f2090508781600301819055508681600401819055508581600501819055506001816006015f6101000a81548160ff0219169083151502179055505f8160060160016101000a81548160ff0219169083151502179055505f8160060160026101000a81548160ff0219169083151502179055505f8160060160036101000a81548160ff0219169083151502179055505f8160060160046101000a81548160ff02191690831515021790555087815f015f018190555084815f0160010190816126f09190614677565b5083815f0160020190816127049190614677565b5061272c88845f015f8581526020019081526020015f2060080161291490919063ffffffff16565b5081836002015f8a81526020019081526020015f2081905550505050505050505050565b5f5f61275a6127d7565b90505f816002015f8581526020019081526020015f205490505f81036127b757836040517fd4a847370000000000000000000000000000000000000000000000000000000081526004016127ae9190613631565b60405180910390fd5b5f825f015f8381526020019081526020015f209050809350505050919050565b5f5f7f171def12e82c8f3351e4c79b7854be19ad60a75b888f74b9660c07cd7461963390508091505090565b5f61280f825f01612e09565b9050919050565b5f5f84831115612827578492505f93505b5f8385612834919061480e565b9050858110612849575f5f9250925050612878565b5f8482612856919061441a565b905086811115612864578690505b81828261287191906147b4565b9350935050505b935093915050565b5f61288d835f0183612e18565b5f1c905092915050565b6128a08261293f565b6128aa8282612e3f565b5050565b5f6128b76127d7565b905081816002015f8481526020019081526020015f20541461291057816040517f1d0932ee0000000000000000000000000000000000000000000000000000000081526004016129079190613631565b60405180910390fd5b5050565b5f612923835f01835f1b612e90565b905092915050565b61293c6129366127d7565b82612ef7565b50565b6129498133612faf565b50565b5f6129556127d7565b905061296d828260050161300090919063ffffffff16565b1580156129c95750806007015f9054906101000a900473ffffffffffffffffffffffffffffffffffffffff1673ffffffffffffffffffffffffffffffffffffffff168273ffffffffffffffffffffffffffffffffffffffff1614155b8015612a24575080600b015f9054906101000a900473ffffffffffffffffffffffffffffffffffffffff1673ffffffffffffffffffffffffffffffffffffffff168273ffffffffffffffffffffffffffffffffffffffff1614155b15612a6657816040517f2d87faed000000000000000000000000000000000000000000000000000000008152600401612a5d9190613834565b60405180910390fd5b5050565b612a748383612897565b5f612a7d6127d7565b9050612ab882825f015f8781526020019081526020015f20600d015f8681526020019081526020015f2060030161302d90919063ffffffff16565b612afd578383836040517fef25d02d000000000000000000000000000000000000000000000000000000008152600401612af49392919061484f565b60405180910390fd5b50505050565b5f612b12835f01835f1b613044565b905092915050565b5f612b236127d7565b905081815f015f8581526020019081526020015f20600a015f8481526020019081526020015f206003015414612b925782826040517f748e712a000000000000000000000000000000000000000000000000000000008152600401612b8992919061478d565b60405180910390fd5b505050565b612ba18383612897565b5f612baa6127d7565b9050612be582825f015f8781526020019081526020015f20600d015f8681526020019081526020015f2060050161302d90919063ffffffff16565b612c2a578383836040517f79167858000000000000000000000000000000000000000000000000000000008152600401612c219392919061484f565b60405180910390fd5b50505050565b5f5f612c3a6127d7565b90505f816002015f8681526020019081526020015f205490505f8103612c64575f92505050612d30565b5f825f015f8381526020019081526020015f20905081815f016003015414612c91575f9350505050612d30565b612ca7858460050161300090919063ffffffff16565b8015612cc7575060011515816013015f9054906101000a900460ff161515145b15612cd85760019350505050612d30565b8473ffffffffffffffffffffffffffffffffffffffff16816007015f9054906101000a900473ffffffffffffffffffffffffffffffffffffffff1673ffffffffffffffffffffffffffffffffffffffff161493505050505b92915050565b5f612d3f6127d7565b9050612d57828260050161300090919063ffffffff16565b612d9857816040517f92f13c4e000000000000000000000000000000000000000000000000000000008152600401612d8f9190613834565b60405180910390fd5b5050565b60605f612daa835f01613140565b905060608190508092505050919050565b612dc6815f01613199565b50565b5f612dee835f018373ffffffffffffffffffffffffffffffffffffffff165f1b612e90565b905092915050565b5f612e02825f01612e09565b9050919050565b5f815f01805490509050919050565b5f825f018281548110612e2e57612e2d61444d565b5b905f5260205f200154905092915050565b612e498282613201565b612e8c5781816040517f931a85b3000000000000000000000000000000000000000000000000000000008152600401612e8392919061478d565b60405180910390fd5b5050565b5f612e9b838361324b565b612eed57825f0182908060018154018082558091505060019003905f5260205f20015f9091909190915055825f0180549050836001015f8481526020019081526020015f208190555060019050612ef1565b5f90505b92915050565b612f0d818360050161300090919063ffffffff16565b158015612f695750816008015f9054906101000a900473ffffffffffffffffffffffffffffffffffffffff1673ffffffffffffffffffffffffffffffffffffffff168173ffffffffffffffffffffffffffffffffffffffff1614155b15612fab57806040517f9ed88e07000000000000000000000000000000000000000000000000000000008152600401612fa29190613834565b60405180910390fd5b5050565b612fb98282612c30565b612ffc5781816040517f7b0f9c07000000000000000000000000000000000000000000000000000000008152600401612ff3929190614884565b60405180910390fd5b5050565b5f613025835f018373ffffffffffffffffffffffffffffffffffffffff165f1b61324b565b905092915050565b5f61303c835f01835f1b61324b565b905092915050565b5f5f836001015f8481526020019081526020015f205490505f8114613135575f60018261307191906147b4565b90505f6001865f018054905061308791906147b4565b90508082146130ed575f865f0182815481106130a6576130a561444d565b5b905f5260205f200154905080875f0184815481106130c7576130c661444d565b5b905f5260205f20018190555083876001015f8381526020019081526020015f2081905550505b855f01805480613100576130ff6148ab565b5b600190038181905f5260205f20015f90559055856001015f8681526020019081526020015f205f90556001935050505061313a565b5f9150505b92915050565b6060815f0180548060200260200160405190810160405280929190818152602001828054801561318d57602002820191905f5260205f20905b815481526020019060010190808311613179575b50505050509050919050565b5f6131a382612e09565b90505f5f90505b818110156131f057826001015f845f0183815481106131cc576131cb61444d565b5b905f5260205f20015481526020019081526020015f205f90558060010190506131aa565b506131fd825f015f61326b565b5050565b5f5f61320b6127d7565b90505f815f015f8681526020019081526020015f2090505f81600d015f8681526020019081526020015f20905084815f015f015414935050505092915050565b5f5f836001015f8481526020019081526020015f20541415905092915050565b8082555050565b60405180608001604052805f815260200160608152602001606081526020015f73ffffffffffffffffffffffffffffffffffffffff1681525090565b60405180606001604052805f815260200160608152602001606081525090565b5080546132da906144a7565b5f825580601f106132eb5750613308565b601f0160209004905f5260205f2090810190613307919061335f565b5b50565b60405180610120016040528061331f6132ae565b81526020015f81526020015f81526020015f81526020015f151581526020015f151581526020015f151581526020015f151581526020015f151581525090565b5b80821115613376575f815f905550600101613360565b5090565b5f604051905090565b5f5ffd5b5f5ffd5b5f819050919050565b61339d8161338b565b81146133a7575f5ffd5b50565b5f813590506133b881613394565b92915050565b5f5f5f5f608085870312156133d6576133d5613383565b5b5f6133e3878288016133aa565b94505060206133f4878288016133aa565b9350506040613405878288016133aa565b9250506060613416878288016133aa565b91505092959194509250565b5f81519050919050565b5f82825260208201905092915050565b5f819050602082019050919050565b6134548161338b565b82525050565b5f81519050919050565b5f82825260208201905092915050565b8281835e5f83830152505050565b5f601f19601f8301169050919050565b5f61349c8261345a565b6134a68185613464565b93506134b6818560208601613474565b6134bf81613482565b840191505092915050565b5f73ffffffffffffffffffffffffffffffffffffffff82169050919050565b5f6134f3826134ca565b9050919050565b613503816134e9565b82525050565b5f608083015f83015161351e5f86018261344b565b50602083015184820360208601526135368282613492565b915050604083015184820360408601526135508282613492565b915050606083015161356560608601826134fa565b508091505092915050565b5f61357b8383613509565b905092915050565b5f602082019050919050565b5f61359982613422565b6135a3818561342c565b9350836020820285016135b58561343c565b805f5b858110156135f057848403895281516135d18582613570565b94506135dc83613583565b925060208a019950506001810190506135b8565b50829750879550505050505092915050565b5f6020820190508181035f83015261361a818461358f565b905092915050565b61362b8161338b565b82525050565b5f6020820190506136445f830184613622565b92915050565b5f5ffd5b5f5ffd5b7f4e487b71000000000000000000000000000000000000000000000000000000005f52604160045260245ffd5b61368882613482565b810181811067ffffffffffffffff821117156136a7576136a6613652565b5b80604052505050565b5f6136b961337a565b90506136c5828261367f565b919050565b5f67ffffffffffffffff8211156136e4576136e3613652565b5b6136ed82613482565b9050602081019050919050565b828183375f83830152505050565b5f61371a613715846136ca565b6136b0565b9050828152602081018484840111156137365761373561364e565b5b6137418482856136fa565b509392505050565b5f82601f83011261375d5761375c61364a565b5b813561376d848260208601613708565b91505092915050565b5f5f5f5f5f60a0868803121561378f5761378e613383565b5b5f61379c888289016133aa565b95505060206137ad888289016133aa565b94505060406137be888289016133aa565b935050606086013567ffffffffffffffff8111156137df576137de613387565b5b6137eb88828901613749565b925050608086013567ffffffffffffffff81111561380c5761380b613387565b5b61381888828901613749565b9150509295509295909350565b61382e816134e9565b82525050565b5f6020820190506138475f830184613825565b92915050565b5f5f6040838503121561386357613862613383565b5b5f613870858286016133aa565b9250506020613881858286016133aa565b9150509250929050565b5f602082840312156138a05761389f613383565b5b5f6138ad848285016133aa565b91505092915050565b5f81519050919050565b5f82825260208201905092915050565b5f819050602082019050919050565b5f606083015f8301516138f45f86018261344b565b506020830151848203602086015261390c8282613492565b915050604083015184820360408601526139268282613492565b9150508091505092915050565b5f61393e83836138df565b905092915050565b5f602082019050919050565b5f61395c826138b6565b61396681856138c0565b935083602082028501613978856138d0565b805f5b858110156139b357848403895281516139948582613933565b945061399f83613946565b925060208a0199505060018101905061397b565b50829750879550505050505092915050565b5f6020820190508181035f8301526139dd8184613952565b905092915050565b5f5f5f606084860312156139fc576139fb613383565b5b5f613a09868287016133aa565b9350506020613a1a868287016133aa565b9250506040613a2b868287016133aa565b9150509250925092565b5f5f5f5f60808587031215613a4d57613a4c613383565b5b5f613a5a878288016133aa565b9450506020613a6b878288016133aa565b935050604085013567ffffffffffffffff811115613a8c57613a8b613387565b5b613a9887828801613749565b925050606085013567ffffffffffffffff811115613ab957613ab8613387565b5b613ac587828801613749565b91505092959194509250565b5f8115159050919050565b613ae581613ad1565b82525050565b5f602082019050613afe5f830184613adc565b92915050565b5f67ffffffffffffffff821115613b1e57613b1d613652565b5b602082029050602081019050919050565b5f5ffd5b5f613b45613b4084613b04565b6136b0565b90508083825260208201905060208402830185811115613b6857613b67613b2f565b5b835b81811015613b915780613b7d88826133aa565b845260208401935050602081019050613b6a565b5050509392505050565b5f82601f830112613baf57613bae61364a565b5b8135613bbf848260208601613b33565b91505092915050565b613bd181613ad1565b8114613bdb575f5ffd5b50565b5f81359050613bec81613bc8565b92915050565b5f5f5f5f5f5f5f60e0888a031215613c0d57613c0c613383565b5b5f613c1a8a828b016133aa565b975050602088013567ffffffffffffffff811115613c3b57613c3a613387565b5b613c478a828b01613749565b965050604088013567ffffffffffffffff811115613c6857613c67613387565b5b613c748a828b01613749565b955050606088013567ffffffffffffffff811115613c9557613c94613387565b5b613ca18a828b01613b9b565b945050608088013567ffffffffffffffff811115613cc257613cc1613387565b5b613cce8a828b01613b9b565b93505060a0613cdf8a828b01613bde565b92505060c0613cf08a828b01613bde565b91505092959891949750929550565b613d08816134e9565b8114613d12575f5ffd5b50565b5f81359050613d2381613cff565b92915050565b5f5f5f5f5f60a08688031215613d4257613d41613383565b5b5f613d4f888289016133aa565b9550506020613d6088828901613bde565b945050604086013567ffffffffffffffff811115613d8157613d80613387565b5b613d8d88828901613749565b935050606086013567ffffffffffffffff811115613dae57613dad613387565b5b613dba88828901613749565b9250506080613dcb88828901613d15565b9150509295509295909350565b5f5f60408385031215613dee57613ded613383565b5b5f613dfb858286016133aa565b9250506020613e0c85828601613d15565b9150509250929050565b5f5f5f5f5f60a08688031215613e2f57613e2e613383565b5b5f613e3c888289016133aa565b9550506020613e4d88828901613d15565b9450506040613e5e888289016133aa565b935050606086013567ffffffffffffffff811115613e7f57613e7e613387565b5b613e8b88828901613749565b925050608086013567ffffffffffffffff811115613eac57613eab613387565b5b613eb888828901613749565b9150509295509295909350565b5f81519050919050565b5f82825260208201905092915050565b5f819050602082019050919050565b5f613ef983836134fa565b60208301905092915050565b5f602082019050919050565b5f613f1b82613ec5565b613f258185613ecf565b9350613f3083613edf565b805f5b83811015613f60578151613f478882613eee565b9750613f5283613f05565b925050600181019050613f33565b5085935050505092915050565b5f6020820190508181035f830152613f858184613f11565b905092915050565b5f5f5f5f5f5f60c08789031215613fa757613fa6613383565b5b5f613fb489828a016133aa565b9650506020613fc589828a016133aa565b955050604087013567ffffffffffffffff811115613fe657613fe5613387565b5b613ff289828a01613749565b945050606087013567ffffffffffffffff81111561401357614012613387565b5b61401f89828a01613749565b935050608061403089828a01613bde565b92505060a061404189828a01613bde565b9150509295509295509295565b5f67ffffffffffffffff82111561406857614067613652565b5b602082029050602081019050919050565b5f61408b6140868461404e565b6136b0565b905080838252602082019050602084028301858111156140ae576140ad613b2f565b5b835b818110156140d757806140c38882613d15565b8452602084019350506020810190506140b0565b5050509392505050565b5f82601f8301126140f5576140f461364a565b5b8135614105848260208601614079565b91505092915050565b5f6020828403121561412357614122613383565b5b5f82013567ffffffffffffffff8111156141405761413f613387565b5b61414c848285016140e1565b91505092915050565b5f6020828403121561416a57614169613383565b5b5f61417784828501613d15565b91505092915050565b5f81519050919050565b5f82825260208201905092915050565b5f819050602082019050919050565b6141b281613ad1565b82525050565b5f61012083015f8301518482035f8601526141d382826138df565b91505060208301516141e8602086018261344b565b5060408301516141fb604086018261344b565b50606083015161420e606086018261344b565b50608083015161422160808601826141a9565b5060a083015161423460a08601826141a9565b5060c083015161424760c08601826141a9565b5060e083015161425a60e08601826141a9565b5061010083015161426f6101008601826141a9565b508091505092915050565b5f61428583836141b8565b905092915050565b5f602082019050919050565b5f6142a382614180565b6142ad818561418a565b9350836020820285016142bf8561419a565b805f5b858110156142fa57848403895281516142db858261427a565b94506142e68361428d565b925060208a019950506001810190506142c2565b50829750879550505050505092915050565b5f6020820190508181035f8301526143248184614299565b905092915050565b5f5f5f5f5f5f60c0878903121561434657614345613383565b5b5f61435389828a016133aa565b965050602061436489828a016133aa565b955050604061437589828a016133aa565b945050606061438689828a016133aa565b935050608087013567ffffffffffffffff8111156143a7576143a6613387565b5b6143b389828a01613749565b92505060a087013567ffffffffffffffff8111156143d4576143d3613387565b5b6143e089828a01613749565b9150509295509295509295565b7f4e487b71000000000000000000000000000000000000000000000000000000005f52601160045260245ffd5b5f6144248261338b565b915061442f8361338b565b9250828201905080821115614447576144466143ed565b5b92915050565b7f4e487b71000000000000000000000000000000000000000000000000000000005f52603260045260245ffd5b7f4e487b71000000000000000000000000000000000000000000000000000000005f52602260045260245ffd5b5f60028204905060018216806144be57607f821691505b6020821081036144d1576144d061447a565b5b50919050565b5f819050815f5260205f209050919050565b5f6020601f8301049050919050565b5f82821b905092915050565b5f600883026145337fffffffffffffffffffffffffffffffffffffffffffffffffffffffffffffffff826144f8565b61453d86836144f8565b95508019841693508086168417925050509392505050565b5f819050919050565b5f61457861457361456e8461338b565b614555565b61338b565b9050919050565b5f819050919050565b6145918361455e565b6145a561459d8261457f565b848454614504565b825550505050565b5f5f905090565b6145bc6145ad565b6145c7818484614588565b505050565b5b818110156145ea576145df5f826145b4565b6001810190506145cd565b5050565b601f82111561462f57614600816144d7565b614609846144e9565b81016020851015614618578190505b61462c614624856144e9565b8301826145cc565b50505b505050565b5f82821c905092915050565b5f61464f5f1984600802614634565b1980831691505092915050565b5f6146678383614640565b9150826002028217905092915050565b6146808261345a565b67ffffffffffffffff81111561469957614698613652565b5b6146a382546144a7565b6146ae8282856145ee565b5f60209050601f8311600181146146df575f84156146cd578287015190505b6146d7858261465c565b86555061473e565b601f1984166146ed866144d7565b5f5b82811015614714578489015182556001820191506020850194506020810190506146ef565b86831015614731578489015161472d601f891682614640565b8355505b6001600288020188555050505b505050505050565b5f6147508261338b565b91507fffffffffffffffffffffffffffffffffffffffffffffffffffffffffffffffff8203614782576147816143ed565b5b600182019050919050565b5f6040820190506147a05f830185613622565b6147ad6020830184613622565b9392505050565b5f6147be8261338b565b91506147c98361338b565b92508282039050818111156147e1576147e06143ed565b5b92915050565b5f6147f18261338b565b91505f8203614803576148026143ed565b5b600182039050919050565b5f6148188261338b565b91506148238361338b565b92508282026148318161338b565b91508282048414831517614848576148476143ed565b5b5092915050565b5f6060820190506148625f830186613622565b61486f6020830185613622565b61487c6040830184613622565b949350505050565b5f6040820190506148975f830185613622565b6148a46020830184613825565b9392505050565b7f4e487b71000000000000000000000000000000000000000000000000000000005f52603160045260245ffdfea26469706673582212207995c1e39ea82db53d72fa4d11641b4d3f8fb450ce64ac6cbbf10475760d689264736f6c634300081e0033",
			"opcodes": "PUSH1 0x80 PUSH1 0x40 MSTORE CALLVALUE DUP1 ISZERO PUSH2 0xF JUMPI PUSH0 PUSH0 REVERT JUMPDEST POP PUSH2 0x1E PUSH2 0x23 PUSH1 0x20 SHL PUSH1 0x20 SHR JUMP JUMPDEST PUSH2 0x1FE JUMP JUMPDEST PUSH0 PUSH2 0x32 PUSH2 0x132 PUSH1 0x20 SHL PUSH1 0x20 SHR JUMP JUMPDEST SWAP1 POP PUSH0 PUSH2 0x47 DUP3 PUSH1 0x5 ADD PUSH2 0x15E PUSH1 0x20 SHL PUSH1 0x20 SHR JUMP JUMPDEST EQ PUSH2 0x87 JUMPI PUSH1 0x40 MLOAD PUSH32 0x8C379A000000000000000000000000000000000000000000000000000000000 DUP2 MSTORE PUSH1 0x4 ADD PUSH2 0x7E SWAP1 PUSH2 0x1E0 JUMP JUMPDEST PUSH1 0x40 MLOAD DUP1 SWAP2 SUB SWAP1 REVERT JUMPDEST CALLER DUP2 PUSH1 0x8 ADD PUSH0 PUSH2 0x100 EXP DUP2 SLOAD DUP2 PUSH20 0xFFFFFFFFFFFFFFFFFFFFFFFFFFFFFFFFFFFFFFFF MUL NOT AND SWAP1 DUP4 PUSH20 0xFFFFFFFFFFFFFFFFFFFFFFFFFFFFFFFFFFFFFFFF AND MUL OR SWAP1 SSTORE POP CALLER DUP2 PUSH1 0x7 ADD PUSH0 PUSH2 0x100 EXP DUP2 SLOAD DUP2 PUSH20 0xFFFFFFFFFFFFFFFFFFFFFFFFFFFFFFFFFFFFFFFF MUL NOT AND SWAP1 DUP4 PUSH20 0xFFFFFFFFFFFFFFFFFFFFFFFFFFFFFFFFFFFFFFFF AND MUL OR SWAP1 SSTORE POP PUSH1 0x1 DUP2 PUSH1 0x4 ADD PUSH0 PUSH1 0x1 DUP2 MSTORE PUSH1 0x20 ADD SWAP1 DUP2 MSTORE PUSH1 0x20 ADD PUSH0 KECCAK256 DUP2 SWAP1 SSTORE POP PUSH1 0x3 DUP2 PUSH1 0xC ADD DUP2 SWAP1 SSTORE POP POP JUMP JUMPDEST PUSH0 PUSH0 PUSH32 0x171DEF12E82C8F3351E4C79B7854BE19AD60A75B888F74B9660C07CD74619633 SWAP1 POP DUP1 SWAP2 POP POP SWAP1 JUMP JUMPDEST PUSH0 PUSH2 0x170 DUP3 PUSH0 ADD PUSH2 0x177 PUSH1 0x20 SHL PUSH1 0x20 SHR JUMP JUMPDEST SWAP1 POP SWAP2 SWAP1 POP JUMP JUMPDEST PUSH0 DUP2 PUSH0 ADD DUP1 SLOAD SWAP1 POP SWAP1 POP SWAP2 SWAP1 POP JUMP JUMPDEST PUSH0 DUP3 DUP3 MSTORE PUSH1 0x20 DUP3 ADD SWAP1 POP SWAP3 SWAP2 POP POP JUMP JUMPDEST PUSH32 0x616C726561647920696E697469616C697A656400000000000000000000000000 PUSH0 DUP3 ADD MSTORE POP JUMP JUMPDEST PUSH0 PUSH2 0x1CA PUSH1 0x13 DUP4 PUSH2 0x186 JUMP JUMPDEST SWAP2 POP PUSH2 0x1D5 DUP3 PUSH2 0x196 JUMP JUMPDEST PUSH1 0x20 DUP3 ADD SWAP1 POP SWAP2 SWAP1 POP JUMP JUMPDEST PUSH0 PUSH1 0x20 DUP3 ADD SWAP1 POP DUP2 DUP2 SUB PUSH0 DUP4 ADD MSTORE PUSH2 0x1F7 DUP2 PUSH2 0x1BE JUMP JUMPDEST SWAP1 POP SWAP2 SWAP1 POP JUMP JUMPDEST PUSH2 0x490E DUP1 PUSH2 0x20B PUSH0 CODECOPY PUSH0 RETURN INVALID PUSH1 0x80 PUSH1 0x40 MSTORE CALLVALUE DUP1 ISZERO PUSH2 0xF JUMPI PUSH0 PUSH0 REVERT JUMPDEST POP PUSH1 0x4 CALLDATASIZE LT PUSH2 0x230 JUMPI PUSH0 CALLDATALOAD PUSH1 0xE0 SHR DUP1 PUSH4 0x92141552 GT PUSH2 0x12E JUMPI DUP1 PUSH4 0xC1AFF899 GT PUSH2 0xB6 JUMPI DUP1 PUSH4 0xCCB78FB6 GT PUSH2 0x7A JUMPI DUP1 PUSH4 0xCCB78FB6 EQ PUSH2 0x692 JUMPI DUP1 PUSH4 0xE4AF29FC EQ PUSH2 0x6C2 JUMPI DUP1 PUSH4 0xE6AD2928 EQ PUSH2 0x6E0 JUMPI DUP1 PUSH4 0xF75C8B2D EQ PUSH2 0x6FC JUMPI DUP1 PUSH4 0xFEC99AEF EQ PUSH2 0x72C JUMPI PUSH2 0x230 JUMP JUMPDEST DUP1 PUSH4 0xC1AFF899 EQ PUSH2 0x5DC JUMPI DUP1 PUSH4 0xC5F5B984 EQ PUSH2 0x60C JUMPI DUP1 PUSH4 0xC704668C EQ PUSH2 0x628 JUMPI DUP1 PUSH4 0xCA05588A EQ PUSH2 0x658 JUMPI DUP1 PUSH4 0xCB53AD26 EQ PUSH2 0x674 JUMPI PUSH2 0x230 JUMP JUMPDEST DUP1 PUSH4 0xAE8C49A5 GT PUSH2 0xFD JUMPI DUP1 PUSH4 0xAE8C49A5 EQ PUSH2 0x53A JUMPI DUP1 PUSH4 0xB8037FFE EQ PUSH2 0x556 JUMPI DUP1 PUSH4 0xBAC710EA EQ PUSH2 0x574 JUMPI DUP1 PUSH4 0xC001BC79 EQ PUSH2 0x590 JUMPI DUP1 PUSH4 0xC12F1A42 EQ PUSH2 0x5AC JUMPI PUSH2 0x230 JUMP JUMPDEST DUP1 PUSH4 0x92141552 EQ PUSH2 0x4C8 JUMPI DUP1 PUSH4 0x93C8BC43 EQ PUSH2 0x4E4 JUMPI DUP1 PUSH4 0x96A7CC54 EQ PUSH2 0x502 JUMPI DUP1 PUSH4 0xA6B6B672 EQ PUSH2 0x51E JUMPI PUSH2 0x230 JUMP JUMPDEST DUP1 PUSH4 0x683F2DE8 GT PUSH2 0x1BC JUMPI DUP1 PUSH4 0x749E4D07 GT PUSH2 0x180 JUMPI DUP1 PUSH4 0x749E4D07 EQ PUSH2 0x412 JUMPI DUP1 PUSH4 0x79312245 EQ PUSH2 0x42E JUMPI DUP1 PUSH4 0x7AF361EF EQ PUSH2 0x44A JUMPI DUP1 PUSH4 0x8DA5CB5B EQ PUSH2 0x47A JUMPI DUP1 PUSH4 0x90222CAD EQ PUSH2 0x498 JUMPI PUSH2 0x230 JUMP JUMPDEST DUP1 PUSH4 0x683F2DE8 EQ PUSH2 0x35E JUMPI DUP1 PUSH4 0x6A3D77A9 EQ PUSH2 0x37A JUMPI DUP1 PUSH4 0x6E06AC9C EQ PUSH2 0x396 JUMPI DUP1 PUSH4 0x6FE1FB84 EQ PUSH2 0x3B2 JUMPI DUP1 PUSH4 0x719FAC43 EQ PUSH2 0x3E2 JUMPI PUSH2 0x230 JUMP JUMPDEST DUP1 PUSH4 0x383603FE GT PUSH2 0x203 JUMPI DUP1 PUSH4 0x383603FE EQ PUSH2 0x2BC JUMPI DUP1 PUSH4 0x40B4D453 EQ PUSH2 0x2DA JUMPI DUP1 PUSH4 0x52067859 EQ PUSH2 0x2F6 JUMPI DUP1 PUSH4 0x542970ED EQ PUSH2 0x312 JUMPI DUP1 PUSH4 0x5D861C72 EQ PUSH2 0x342 JUMPI PUSH2 0x230 JUMP JUMPDEST DUP1 PUSH4 0x291FF1EA EQ PUSH2 0x234 JUMPI DUP1 PUSH4 0x29B57C69 EQ PUSH2 0x264 JUMPI DUP1 PUSH4 0x2FA92E41 EQ PUSH2 0x282 JUMPI DUP1 PUSH4 0x34B7F87A EQ PUSH2 0x29E JUMPI JUMPDEST PUSH0 PUSH0 REVERT JUMPDEST PUSH2 0x24E PUSH1 0x4 DUP1 CALLDATASIZE SUB DUP2 ADD SWAP1 PUSH2 0x249 SWAP2 SWAP1 PUSH2 0x33BE JUMP JUMPDEST PUSH2 0x748 JUMP JUMPDEST PUSH1 0x40 MLOAD PUSH2 0x25B SWAP2 SWAP1 PUSH2 0x3602 JUMP JUMPDEST PUSH1 0x40 MLOAD DUP1 SWAP2 SUB SWAP1 RETURN JUMPDEST PUSH2 0x26C PUSH2 0xAFE JUMP JUMPDEST PUSH1 0x40 MLOAD PUSH2 0x279 SWAP2 SWAP1 PUSH2 0x3631 JUMP JUMPDEST PUSH1 0x40 MLOAD DUP1 SWAP2 SUB SWAP1 RETURN JUMPDEST PUSH2 0x29C PUSH1 0x4 DUP1 CALLDATASIZE SUB DUP2 ADD SWAP1 PUSH2 0x297 SWAP2 SWAP1 PUSH2 0x3776 JUMP JUMPDEST PUSH2 0xB10 JUMP JUMPDEST STOP JUMPDEST PUSH2 0x2A6 PUSH2 0xBF0 JUMP JUMPDEST PUSH1 0x40 MLOAD PUSH2 0x2B3 SWAP2 SWAP1 PUSH2 0x3631 JUMP JUMPDEST PUSH1 0x40 MLOAD DUP1 SWAP2 SUB SWAP1 RETURN JUMPDEST PUSH2 0x2C4 PUSH2 0xC02 JUMP JUMPDEST PUSH1 0x40 MLOAD PUSH2 0x2D1 SWAP2 SWAP1 PUSH2 0x3834 JUMP JUMPDEST PUSH1 0x40 MLOAD DUP1 SWAP2 SUB SWAP1 RETURN JUMPDEST PUSH2 0x2F4 PUSH1 0x4 DUP1 CALLDATASIZE SUB DUP2 ADD SWAP1 PUSH2 0x2EF SWAP2 SWAP1 PUSH2 0x384D JUMP JUMPDEST PUSH2 0xC38 JUMP JUMPDEST STOP JUMPDEST PUSH2 0x310 PUSH1 0x4 DUP1 CALLDATASIZE SUB DUP2 ADD SWAP1 PUSH2 0x30B SWAP2 SWAP1 PUSH2 0x388B JUMP JUMPDEST PUSH2 0xD23 JUMP JUMPDEST STOP JUMPDEST PUSH2 0x32C PUSH1 0x4 DUP1 CALLDATASIZE SUB DUP2 ADD SWAP1 PUSH2 0x327 SWAP2 SWAP1 PUSH2 0x33BE JUMP JUMPDEST PUSH2 0xD44 JUMP JUMPDEST PUSH1 0x40 MLOAD PUSH2 0x339 SWAP2 SWAP1 PUSH2 0x39C5 JUMP JUMPDEST PUSH1 0x40 MLOAD DUP1 SWAP2 SUB SWAP1 RETURN JUMPDEST PUSH2 0x35C PUSH1 0x4 DUP1 CALLDATASIZE SUB DUP2 ADD SWAP1 PUSH2 0x357 SWAP2 SWAP1 PUSH2 0x39E5 JUMP JUMPDEST PUSH2 0xF90 JUMP JUMPDEST STOP JUMPDEST PUSH2 0x378 PUSH1 0x4 DUP1 CALLDATASIZE SUB DUP2 ADD SWAP1 PUSH2 0x373 SWAP2 SWAP1 PUSH2 0x384D JUMP JUMPDEST PUSH2 0x101A JUMP JUMPDEST STOP JUMPDEST PUSH2 0x394 PUSH1 0x4 DUP1 CALLDATASIZE SUB DUP2 ADD SWAP1 PUSH2 0x38F SWAP2 SWAP1 PUSH2 0x3A35 JUMP JUMPDEST PUSH2 0x10BA JUMP JUMPDEST STOP JUMPDEST PUSH2 0x3B0 PUSH1 0x4 DUP1 CALLDATASIZE SUB DUP2 ADD SWAP1 PUSH2 0x3AB SWAP2 SWAP1 PUSH2 0x39E5 JUMP JUMPDEST PUSH2 0x1156 JUMP JUMPDEST STOP JUMPDEST PUSH2 0x3CC PUSH1 0x4 DUP1 CALLDATASIZE SUB DUP2 ADD SWAP1 PUSH2 0x3C7 SWAP2 SWAP1 PUSH2 0x388B JUMP JUMPDEST PUSH2 0x11BE JUMP JUMPDEST PUSH1 0x40 MLOAD PUSH2 0x3D9 SWAP2 SWAP1 PUSH2 0x3631 JUMP JUMPDEST PUSH1 0x40 MLOAD DUP1 SWAP2 SUB SWAP1 RETURN JUMPDEST PUSH2 0x3FC PUSH1 0x4 DUP1 CALLDATASIZE SUB DUP2 ADD SWAP1 PUSH2 0x3F7 SWAP2 SWAP1 PUSH2 0x388B JUMP JUMPDEST PUSH2 0x11E1 JUMP JUMPDEST PUSH1 0x40 MLOAD PUSH2 0x409 SWAP2 SWAP1 PUSH2 0x3AEB JUMP JUMPDEST PUSH1 0x40 MLOAD DUP1 SWAP2 SUB SWAP1 RETURN JUMPDEST PUSH2 0x42C PUSH1 0x4 DUP1 CALLDATASIZE SUB DUP2 ADD SWAP1 PUSH2 0x427 SWAP2 SWAP1 PUSH2 0x3BF2 JUMP JUMPDEST PUSH2 0x11F3 JUMP JUMPDEST STOP JUMPDEST PUSH2 0x448 PUSH1 0x4 DUP1 CALLDATASIZE SUB DUP2 ADD SWAP1 PUSH2 0x443 SWAP2 SWAP1 PUSH2 0x3D29 JUMP JUMPDEST PUSH2 0x1386 JUMP JUMPDEST STOP JUMPDEST PUSH2 0x464 PUSH1 0x4 DUP1 CALLDATASIZE SUB DUP2 ADD SWAP1 PUSH2 0x45F SWAP2 SWAP1 PUSH2 0x39E5 JUMP JUMPDEST PUSH2 0x15BA JUMP JUMPDEST PUSH1 0x40 MLOAD PUSH2 0x471 SWAP2 SWAP1 PUSH2 0x3602 JUMP JUMPDEST PUSH1 0x40 MLOAD DUP1 SWAP2 SUB SWAP1 RETURN JUMPDEST PUSH2 0x482 PUSH2 0x192B JUMP JUMPDEST PUSH1 0x40 MLOAD PUSH2 0x48F SWAP2 SWAP1 PUSH2 0x3834 JUMP JUMPDEST PUSH1 0x40 MLOAD DUP1 SWAP2 SUB SWAP1 RETURN JUMPDEST PUSH2 0x4B2 PUSH1 0x4 DUP1 CALLDATASIZE SUB DUP2 ADD SWAP1 PUSH2 0x4AD SWAP2 SWAP1 PUSH2 0x3DD8 JUMP JUMPDEST PUSH2 0x195C JUMP JUMPDEST PUSH1 0x40 MLOAD PUSH2 0x4BF SWAP2 SWAP1 PUSH2 0x3631 JUMP JUMPDEST PUSH1 0x40 MLOAD DUP1 SWAP2 SUB SWAP1 RETURN JUMPDEST PUSH2 0x4E2 PUSH1 0x4 DUP1 CALLDATASIZE SUB DUP2 ADD SWAP1 PUSH2 0x4DD SWAP2 SWAP1 PUSH2 0x3E16 JUMP JUMPDEST PUSH2 0x19B4 JUMP JUMPDEST STOP JUMPDEST PUSH2 0x4EC PUSH2 0x1BB1 JUMP JUMPDEST PUSH1 0x40 MLOAD PUSH2 0x4F9 SWAP2 SWAP1 PUSH2 0x3F6D JUMP JUMPDEST PUSH1 0x40 MLOAD DUP1 SWAP2 SUB SWAP1 RETURN JUMPDEST PUSH2 0x51C PUSH1 0x4 DUP1 CALLDATASIZE SUB DUP2 ADD SWAP1 PUSH2 0x517 SWAP2 SWAP1 PUSH2 0x3F8D JUMP JUMPDEST PUSH2 0x1BD0 JUMP JUMPDEST STOP JUMPDEST PUSH2 0x538 PUSH1 0x4 DUP1 CALLDATASIZE SUB DUP2 ADD SWAP1 PUSH2 0x533 SWAP2 SWAP1 PUSH2 0x3776 JUMP JUMPDEST PUSH2 0x1C7E JUMP JUMPDEST STOP JUMPDEST PUSH2 0x554 PUSH1 0x4 DUP1 CALLDATASIZE SUB DUP2 ADD SWAP1 PUSH2 0x54F SWAP2 SWAP1 PUSH2 0x410E JUMP JUMPDEST PUSH2 0x1D03 JUMP JUMPDEST STOP JUMPDEST PUSH2 0x55E PUSH2 0x1D74 JUMP JUMPDEST PUSH1 0x40 MLOAD PUSH2 0x56B SWAP2 SWAP1 PUSH2 0x3631 JUMP JUMPDEST PUSH1 0x40 MLOAD DUP1 SWAP2 SUB SWAP1 RETURN JUMPDEST PUSH2 0x58E PUSH1 0x4 DUP1 CALLDATASIZE SUB DUP2 ADD SWAP1 PUSH2 0x589 SWAP2 SWAP1 PUSH2 0x39E5 JUMP JUMPDEST PUSH2 0x1D8D JUMP JUMPDEST STOP JUMPDEST PUSH2 0x5AA PUSH1 0x4 DUP1 CALLDATASIZE SUB DUP2 ADD SWAP1 PUSH2 0x5A5 SWAP2 SWAP1 PUSH2 0x4155 JUMP JUMPDEST PUSH2 0x1DEB JUMP JUMPDEST STOP JUMPDEST PUSH2 0x5C6 PUSH1 0x4 DUP1 CALLDATASIZE SUB DUP2 ADD SWAP1 PUSH2 0x5C1 SWAP2 SWAP1 PUSH2 0x388B JUMP JUMPDEST PUSH2 0x1E45 JUMP JUMPDEST PUSH1 0x40 MLOAD PUSH2 0x5D3 SWAP2 SWAP1 PUSH2 0x3631 JUMP JUMPDEST PUSH1 0x40 MLOAD DUP1 SWAP2 SUB SWAP1 RETURN JUMPDEST PUSH2 0x5F6 PUSH1 0x4 DUP1 CALLDATASIZE SUB DUP2 ADD SWAP1 PUSH2 0x5F1 SWAP2 SWAP1 PUSH2 0x388B JUMP JUMPDEST PUSH2 0x1E68 JUMP JUMPDEST PUSH1 0x40 MLOAD PUSH2 0x603 SWAP2 SWAP1 PUSH2 0x3631 JUMP JUMPDEST PUSH1 0x40 MLOAD DUP1 SWAP2 SUB SWAP1 RETURN JUMPDEST PUSH2 0x626 PUSH1 0x4 DUP1 CALLDATASIZE SUB DUP2 ADD SWAP1 PUSH2 0x621 SWAP2 SWAP1 PUSH2 0x384D JUMP JUMPDEST PUSH2 0x1E8B JUMP JUMPDEST STOP JUMPDEST PUSH2 0x642 PUSH1 0x4 DUP1 CALLDATASIZE SUB DUP2 ADD SWAP1 PUSH2 0x63D SWAP2 SWAP1 PUSH2 0x39E5 JUMP JUMPDEST PUSH2 0x1FB2 JUMP JUMPDEST PUSH1 0x40 MLOAD PUSH2 0x64F SWAP2 SWAP1 PUSH2 0x430C JUMP JUMPDEST PUSH1 0x40 MLOAD DUP1 SWAP2 SUB SWAP1 RETURN JUMPDEST PUSH2 0x672 PUSH1 0x4 DUP1 CALLDATASIZE SUB DUP2 ADD SWAP1 PUSH2 0x66D SWAP2 SWAP1 PUSH2 0x384D JUMP JUMPDEST PUSH2 0x229E JUMP JUMPDEST STOP JUMPDEST PUSH2 0x67C PUSH2 0x22CA JUMP JUMPDEST PUSH1 0x40 MLOAD PUSH2 0x689 SWAP2 SWAP1 PUSH2 0x3834 JUMP JUMPDEST PUSH1 0x40 MLOAD DUP1 SWAP2 SUB SWAP1 RETURN JUMPDEST PUSH2 0x6AC PUSH1 0x4 DUP1 CALLDATASIZE SUB DUP2 ADD SWAP1 PUSH2 0x6A7 SWAP2 SWAP1 PUSH2 0x388B JUMP JUMPDEST PUSH2 0x22FB JUMP JUMPDEST PUSH1 0x40 MLOAD PUSH2 0x6B9 SWAP2 SWAP1 PUSH2 0x3834 JUMP JUMPDEST PUSH1 0x40 MLOAD DUP1 SWAP2 SUB SWAP1 RETURN JUMPDEST PUSH2 0x6CA PUSH2 0x233D JUMP JUMPDEST PUSH1 0x40 MLOAD PUSH2 0x6D7 SWAP2 SWAP1 PUSH2 0x3631 JUMP JUMPDEST PUSH1 0x40 MLOAD DUP1 SWAP2 SUB SWAP1 RETURN JUMPDEST PUSH2 0x6FA PUSH1 0x4 DUP1 CALLDATASIZE SUB DUP2 ADD SWAP1 PUSH2 0x6F5 SWAP2 SWAP1 PUSH2 0x4155 JUMP JUMPDEST PUSH2 0x234F JUMP JUMPDEST STOP JUMPDEST PUSH2 0x716 PUSH1 0x4 DUP1 CALLDATASIZE SUB DUP2 ADD SWAP1 PUSH2 0x711 SWAP2 SWAP1 PUSH2 0x39E5 JUMP JUMPDEST PUSH2 0x23A4 JUMP JUMPDEST PUSH1 0x40 MLOAD PUSH2 0x723 SWAP2 SWAP1 PUSH2 0x39C5 JUMP JUMPDEST PUSH1 0x40 MLOAD DUP1 SWAP2 SUB SWAP1 RETURN JUMPDEST PUSH2 0x746 PUSH1 0x4 DUP1 CALLDATASIZE SUB DUP2 ADD SWAP1 PUSH2 0x741 SWAP2 SWAP1 PUSH2 0x432C JUMP JUMPDEST PUSH2 0x25DA JUMP JUMPDEST STOP JUMPDEST PUSH1 0x60 PUSH0 PUSH2 0x754 DUP7 PUSH2 0x2750 JUMP JUMPDEST SWAP1 POP PUSH0 PUSH2 0x75F PUSH2 0x27D7 JUMP JUMPDEST SWAP1 POP PUSH0 DUP3 PUSH1 0xD ADD PUSH0 DUP9 DUP2 MSTORE PUSH1 0x20 ADD SWAP1 DUP2 MSTORE PUSH1 0x20 ADD PUSH0 KECCAK256 SWAP1 POP PUSH0 PUSH0 PUSH2 0x78F PUSH2 0x788 DUP5 PUSH1 0x5 ADD PUSH2 0x2803 JUMP JUMPDEST DUP10 DUP10 PUSH2 0x2816 JUMP JUMPDEST SWAP2 POP SWAP2 POP PUSH0 DUP2 PUSH8 0xFFFFFFFFFFFFFFFF DUP2 GT ISZERO PUSH2 0x7AE JUMPI PUSH2 0x7AD PUSH2 0x3652 JUMP JUMPDEST JUMPDEST PUSH1 0x40 MLOAD SWAP1 DUP1 DUP3 MSTORE DUP1 PUSH1 0x20 MUL PUSH1 0x20 ADD DUP3 ADD PUSH1 0x40 MSTORE DUP1 ISZERO PUSH2 0x7E7 JUMPI DUP2 PUSH1 0x20 ADD JUMPDEST PUSH2 0x7D4 PUSH2 0x3272 JUMP JUMPDEST DUP2 MSTORE PUSH1 0x20 ADD SWAP1 PUSH1 0x1 SWAP1 SUB SWAP1 DUP2 PUSH2 0x7CC JUMPI SWAP1 POP JUMPDEST POP SWAP1 POP PUSH0 PUSH0 SWAP1 POP JUMPDEST DUP3 DUP2 LT ISZERO PUSH2 0xAEC JUMPI PUSH0 PUSH2 0x819 DUP3 DUP7 PUSH2 0x807 SWAP2 SWAP1 PUSH2 0x441A JUMP JUMPDEST DUP8 PUSH1 0x5 ADD PUSH2 0x2880 SWAP1 SWAP2 SWAP1 PUSH4 0xFFFFFFFF AND JUMP JUMPDEST SWAP1 POP PUSH0 DUP8 PUSH1 0x3 ADD PUSH0 DUP4 DUP2 MSTORE PUSH1 0x20 ADD SWAP1 DUP2 MSTORE PUSH1 0x20 ADD PUSH0 KECCAK256 PUSH0 SWAP1 SLOAD SWAP1 PUSH2 0x100 EXP SWAP1 DIV PUSH20 0xFFFFFFFFFFFFFFFFFFFFFFFFFFFFFFFFFFFFFFFF AND SWAP1 POP DUP1 DUP5 DUP5 DUP2 MLOAD DUP2 LT PUSH2 0x865 JUMPI PUSH2 0x864 PUSH2 0x444D JUMP JUMPDEST JUMPDEST PUSH1 0x20 MUL PUSH1 0x20 ADD ADD MLOAD PUSH1 0x60 ADD SWAP1 PUSH20 0xFFFFFFFFFFFFFFFFFFFFFFFFFFFFFFFFFFFFFFFF AND SWAP1 DUP2 PUSH20 0xFFFFFFFFFFFFFFFFFFFFFFFFFFFFFFFFFFFFFFFF AND DUP2 MSTORE POP POP DUP9 PUSH1 0x12 ADD PUSH0 DUP3 PUSH20 0xFFFFFFFFFFFFFFFFFFFFFFFFFFFFFFFFFFFFFFFF AND PUSH20 0xFFFFFFFFFFFFFFFFFFFFFFFFFFFFFFFFFFFFFFFF AND DUP2 MSTORE PUSH1 0x20 ADD SWAP1 DUP2 MSTORE PUSH1 0x20 ADD PUSH0 KECCAK256 PUSH1 0x1 ADD DUP1 SLOAD PUSH2 0x8F0 SWAP1 PUSH2 0x44A7 JUMP JUMPDEST DUP1 PUSH1 0x1F ADD PUSH1 0x20 DUP1 SWAP2 DIV MUL PUSH1 0x20 ADD PUSH1 0x40 MLOAD SWAP1 DUP2 ADD PUSH1 0x40 MSTORE DUP1 SWAP3 SWAP2 SWAP1 DUP2 DUP2 MSTORE PUSH1 0x20 ADD DUP3 DUP1 SLOAD PUSH2 0x91C SWAP1 PUSH2 0x44A7 JUMP JUMPDEST DUP1 ISZERO PUSH2 0x967 JUMPI DUP1 PUSH1 0x1F LT PUSH2 0x93E JUMPI PUSH2 0x100 DUP1 DUP4 SLOAD DIV MUL DUP4 MSTORE SWAP2 PUSH1 0x20 ADD SWAP2 PUSH2 0x967 JUMP JUMPDEST DUP3 ADD SWAP2 SWAP1 PUSH0 MSTORE PUSH1 0x20 PUSH0 KECCAK256 SWAP1 JUMPDEST DUP2 SLOAD DUP2 MSTORE SWAP1 PUSH1 0x1 ADD SWAP1 PUSH1 0x20 ADD DUP1 DUP4 GT PUSH2 0x94A JUMPI DUP3 SWAP1 SUB PUSH1 0x1F AND DUP3 ADD SWAP2 JUMPDEST POP POP POP POP POP DUP5 DUP5 DUP2 MLOAD DUP2 LT PUSH2 0x97F JUMPI PUSH2 0x97E PUSH2 0x444D JUMP JUMPDEST JUMPDEST PUSH1 0x20 MUL PUSH1 0x20 ADD ADD MLOAD PUSH1 0x20 ADD DUP2 SWAP1 MSTORE POP DUP9 PUSH1 0x12 ADD PUSH0 DUP3 PUSH20 0xFFFFFFFFFFFFFFFFFFFFFFFFFFFFFFFFFFFFFFFF AND PUSH20 0xFFFFFFFFFFFFFFFFFFFFFFFFFFFFFFFFFFFFFFFF AND DUP2 MSTORE PUSH1 0x20 ADD SWAP1 DUP2 MSTORE PUSH1 0x20 ADD PUSH0 KECCAK256 PUSH1 0x2 ADD DUP1 SLOAD PUSH2 0x9DB SWAP1 PUSH2 0x44A7 JUMP JUMPDEST DUP1 PUSH1 0x1F ADD PUSH1 0x20 DUP1 SWAP2 DIV MUL PUSH1 0x20 ADD PUSH1 0x40 MLOAD SWAP1 DUP2 ADD PUSH1 0x40 MSTORE DUP1 SWAP3 SWAP2 SWAP1 DUP2 DUP2 MSTORE PUSH1 0x20 ADD DUP3 DUP1 SLOAD PUSH2 0xA07 SWAP1 PUSH2 0x44A7 JUMP JUMPDEST DUP1 ISZERO PUSH2 0xA52 JUMPI DUP1 PUSH1 0x1F LT PUSH2 0xA29 JUMPI PUSH2 0x100 DUP1 DUP4 SLOAD DIV MUL DUP4 MSTORE SWAP2 PUSH1 0x20 ADD SWAP2 PUSH2 0xA52 JUMP JUMPDEST DUP3 ADD SWAP2 SWAP1 PUSH0 MSTORE PUSH1 0x20 PUSH0 KECCAK256 SWAP1 JUMPDEST DUP2 SLOAD DUP2 MSTORE SWAP1 PUSH1 0x1 ADD SWAP1 PUSH1 0x20 ADD DUP1 DUP4 GT PUSH2 0xA35 JUMPI DUP3 SWAP1 SUB PUSH1 0x1F AND DUP3 ADD SWAP2 JUMPDEST POP POP POP POP POP DUP5 DUP5 DUP2 MLOAD DUP2 LT PUSH2 0xA6A JUMPI PUSH2 0xA69 PUSH2 0x444D JUMP JUMPDEST JUMPDEST PUSH1 0x20 MUL PUSH1 0x20 ADD ADD MLOAD PUSH1 0x40 ADD DUP2 SWAP1 MSTORE POP DUP9 PUSH1 0x12 ADD PUSH0 DUP3 PUSH20 0xFFFFFFFFFFFFFFFFFFFFFFFFFFFFFFFFFFFFFFFF AND PUSH20 0xFFFFFFFFFFFFFFFFFFFFFFFFFFFFFFFFFFFFFFFF AND DUP2 MSTORE PUSH1 0x20 ADD SWAP1 DUP2 MSTORE PUSH1 0x20 ADD PUSH0 KECCAK256 PUSH0 ADD SLOAD DUP5 DUP5 DUP2 MLOAD DUP2 LT PUSH2 0xACE JUMPI PUSH2 0xACD PUSH2 0x444D JUMP JUMPDEST JUMPDEST PUSH1 0x20 MUL PUSH1 0x20 ADD ADD MLOAD PUSH0 ADD DUP2 DUP2 MSTORE POP POP POP POP DUP1 DUP1 PUSH1 0x1 ADD SWAP2 POP POP PUSH2 0x7EF JUMP JUMPDEST POP DUP1 SWAP7 POP POP POP POP POP POP POP SWAP5 SWAP4 POP POP POP POP JUMP JUMPDEST PUSH0 PUSH2 0xB07 PUSH2 0x27D7 JUMP JUMPDEST PUSH1 0x9 ADD SLOAD SWAP1 POP SWAP1 JUMP JUMPDEST PUSH2 0xB1A DUP6 DUP6 PUSH2 0x2897 JUMP JUMPDEST PUSH2 0xB23 DUP6 PUSH2 0x28AE JUMP JUMPDEST PUSH0 PUSH2 0xB2C PUSH2 0x27D7 JUMP JUMPDEST SWAP1 POP PUSH0 DUP2 PUSH0 ADD PUSH0 DUP9 DUP2 MSTORE PUSH1 0x20 ADD SWAP1 DUP2 MSTORE PUSH1 0x20 ADD PUSH0 KECCAK256 SWAP1 POP PUSH2 0xB6B DUP6 DUP3 PUSH1 0xD ADD PUSH0 DUP10 DUP2 MSTORE PUSH1 0x20 ADD SWAP1 DUP2 MSTORE PUSH1 0x20 ADD PUSH0 KECCAK256 PUSH1 0x3 ADD PUSH2 0x2914 SWAP1 SWAP2 SWAP1 PUSH4 0xFFFFFFFF AND JUMP JUMPDEST POP DUP5 DUP2 PUSH1 0x10 ADD PUSH0 DUP8 DUP2 MSTORE PUSH1 0x20 ADD SWAP1 DUP2 MSTORE PUSH1 0x20 ADD PUSH0 KECCAK256 PUSH0 ADD DUP2 SWAP1 SSTORE POP DUP4 DUP2 PUSH1 0x10 ADD PUSH0 DUP8 DUP2 MSTORE PUSH1 0x20 ADD SWAP1 DUP2 MSTORE PUSH1 0x20 ADD PUSH0 KECCAK256 PUSH1 0x1 ADD SWAP1 DUP2 PUSH2 0xBA9 SWAP2 SWAP1 PUSH2 0x4677 JUMP JUMPDEST POP DUP3 DUP2 PUSH1 0x10 ADD PUSH0 DUP8 DUP2 MSTORE PUSH1 0x20 ADD SWAP1 DUP2 MSTORE PUSH1 0x20 ADD PUSH0 KECCAK256 PUSH1 0x2 ADD SWAP1 DUP2 PUSH2 0xBCD SWAP2 SWAP1 PUSH2 0x4677 JUMP JUMPDEST POP DUP1 PUSH1 0x15 ADD PUSH0 DUP2 SLOAD DUP1 SWAP3 SWAP2 SWAP1 PUSH2 0xBE2 SWAP1 PUSH2 0x4746 JUMP JUMPDEST SWAP2 SWAP1 POP SSTORE POP POP POP POP POP POP POP POP JUMP JUMPDEST PUSH0 PUSH2 0xBF9 PUSH2 0x27D7 JUMP JUMPDEST PUSH1 0xC ADD SLOAD SWAP1 POP SWAP1 JUMP JUMPDEST PUSH0 PUSH0 PUSH2 0xC0C PUSH2 0x27D7 JUMP JUMPDEST SWAP1 POP DUP1 PUSH1 0xB ADD PUSH0 SWAP1 SLOAD SWAP1 PUSH2 0x100 EXP SWAP1 DIV PUSH20 0xFFFFFFFFFFFFFFFFFFFFFFFFFFFFFFFFFFFFFFFF AND SWAP2 POP POP SWAP1 JUMP JUMPDEST PUSH2 0xC41 CALLER PUSH2 0x292B JUMP JUMPDEST PUSH2 0xC4A DUP3 PUSH2 0x293F JUMP JUMPDEST PUSH2 0xC53 DUP3 PUSH2 0x28AE JUMP JUMPDEST PUSH0 PUSH2 0xC5C PUSH2 0x27D7 JUMP JUMPDEST SWAP1 POP PUSH0 DUP2 PUSH1 0x2 ADD PUSH0 DUP6 DUP2 MSTORE PUSH1 0x20 ADD SWAP1 DUP2 MSTORE PUSH1 0x20 ADD PUSH0 KECCAK256 SLOAD SWAP1 POP PUSH0 DUP3 PUSH0 ADD PUSH0 DUP4 DUP2 MSTORE PUSH1 0x20 ADD SWAP1 DUP2 MSTORE PUSH1 0x20 ADD PUSH0 KECCAK256 SWAP1 POP PUSH0 DUP6 DUP3 PUSH0 ADD PUSH1 0x3 ADD SLOAD EQ PUSH2 0xCB0 JUMPI DUP2 PUSH1 0xA ADD PUSH0 DUP8 DUP2 MSTORE PUSH1 0x20 ADD SWAP1 DUP2 MSTORE PUSH1 0x20 ADD PUSH0 KECCAK256 PUSH2 0xCB4 JUMP JUMPDEST DUP2 PUSH0 ADD JUMPDEST SWAP1 POP DUP5 DUP2 PUSH1 0x5 ADD SLOAD LT ISZERO PUSH2 0xD01 JUMPI DUP6 DUP6 PUSH1 0x40 MLOAD PUSH32 0xCF47918100000000000000000000000000000000000000000000000000000000 DUP2 MSTORE PUSH1 0x4 ADD PUSH2 0xCF8 SWAP3 SWAP2 SWAP1 PUSH2 0x478D JUMP JUMPDEST PUSH1 0x40 MLOAD DUP1 SWAP2 SUB SWAP1 REVERT JUMPDEST DUP5 DUP2 PUSH1 0x5 ADD PUSH0 DUP3 DUP3 SLOAD PUSH2 0xD14 SWAP2 SWAP1 PUSH2 0x47B4 JUMP JUMPDEST SWAP3 POP POP DUP2 SWAP1 SSTORE POP POP POP POP POP POP POP JUMP JUMPDEST PUSH2 0xD2C CALLER PUSH2 0x294C JUMP JUMPDEST PUSH0 PUSH2 0xD35 PUSH2 0x27D7 JUMP JUMPDEST SWAP1 POP DUP2 DUP2 PUSH1 0xC ADD DUP2 SWAP1 SSTORE POP POP POP JUMP JUMPDEST PUSH1 0x60 PUSH0 PUSH2 0xD50 DUP7 PUSH2 0x2750 JUMP JUMPDEST SWAP1 POP PUSH0 DUP2 PUSH1 0xD ADD PUSH0 DUP8 DUP2 MSTORE PUSH1 0x20 ADD SWAP1 DUP2 MSTORE PUSH1 0x20 ADD PUSH0 KECCAK256 SWAP1 POP PUSH0 PUSH2 0xD75 DUP3 PUSH1 0x3 ADD PUSH2 0x2803 JUMP JUMPDEST SWAP1 POP PUSH0 PUSH0 PUSH2 0xD84 DUP4 DUP10 DUP10 PUSH2 0x2816 JUMP JUMPDEST SWAP2 POP SWAP2 POP PUSH0 DUP2 PUSH8 0xFFFFFFFFFFFFFFFF DUP2 GT ISZERO PUSH2 0xDA3 JUMPI PUSH2 0xDA2 PUSH2 0x3652 JUMP JUMPDEST JUMPDEST PUSH1 0x40 MLOAD SWAP1 DUP1 DUP3 MSTORE DUP1 PUSH1 0x20 MUL PUSH1 0x20 ADD DUP3 ADD PUSH1 0x40 MSTORE DUP1 ISZERO PUSH2 0xDDC JUMPI DUP2 PUSH1 0x20 ADD JUMPDEST PUSH2 0xDC9 PUSH2 0x32AE JUMP JUMPDEST DUP2 MSTORE PUSH1 0x20 ADD SWAP1 PUSH1 0x1 SWAP1 SUB SWAP1 DUP2 PUSH2 0xDC1 JUMPI SWAP1 POP JUMPDEST POP SWAP1 POP PUSH0 PUSH0 SWAP1 POP JUMPDEST DUP3 DUP2 LT ISZERO PUSH2 0xF7E JUMPI DUP7 PUSH1 0x10 ADD PUSH0 PUSH2 0xE12 DUP4 DUP8 PUSH2 0xE00 SWAP2 SWAP1 PUSH2 0x441A JUMP JUMPDEST DUP10 PUSH1 0x3 ADD PUSH2 0x2880 SWAP1 SWAP2 SWAP1 PUSH4 0xFFFFFFFF AND JUMP JUMPDEST DUP2 MSTORE PUSH1 0x20 ADD SWAP1 DUP2 MSTORE PUSH1 0x20 ADD PUSH0 KECCAK256 PUSH1 0x40 MLOAD DUP1 PUSH1 0x60 ADD PUSH1 0x40 MSTORE SWAP1 DUP2 PUSH0 DUP3 ADD SLOAD DUP2 MSTORE PUSH1 0x20 ADD PUSH1 0x1 DUP3 ADD DUP1 SLOAD PUSH2 0xE43 SWAP1 PUSH2 0x44A7 JUMP JUMPDEST DUP1 PUSH1 0x1F ADD PUSH1 0x20 DUP1 SWAP2 DIV MUL PUSH1 0x20 ADD PUSH1 0x40 MLOAD SWAP1 DUP2 ADD PUSH1 0x40 MSTORE DUP1 SWAP3 SWAP2 SWAP1 DUP2 DUP2 MSTORE PUSH1 0x20 ADD DUP3 DUP1 SLOAD PUSH2 0xE6F SWAP1 PUSH2 0x44A7 JUMP JUMPDEST DUP1 ISZERO PUSH2 0xEBA JUMPI DUP1 PUSH1 0x1F LT PUSH2 0xE91 JUMPI PUSH2 0x100 DUP1 DUP4 SLOAD DIV MUL DUP4 MSTORE SWAP2 PUSH1 0x20 ADD SWAP2 PUSH2 0xEBA JUMP JUMPDEST DUP3 ADD SWAP2 SWAP1 PUSH0 MSTORE PUSH1 0x20 PUSH0 KECCAK256 SWAP1 JUMPDEST DUP2 SLOAD DUP2 MSTORE SWAP1 PUSH1 0x1 ADD SWAP1 PUSH1 0x20 ADD DUP1 DUP4 GT PUSH2 0xE9D JUMPI DUP3 SWAP1 SUB PUSH1 0x1F AND DUP3 ADD SWAP2 JUMPDEST POP POP POP POP POP DUP2 MSTORE PUSH1 0x20 ADD PUSH1 0x2 DUP3 ADD DUP1 SLOAD PUSH2 0xED3 SWAP1 PUSH2 0x44A7 JUMP JUMPDEST DUP1 PUSH1 0x1F ADD PUSH1 0x20 DUP1 SWAP2 DIV MUL PUSH1 0x20 ADD PUSH1 0x40 MLOAD SWAP1 DUP2 ADD PUSH1 0x40 MSTORE DUP1 SWAP3 SWAP2 SWAP1 DUP2 DUP2 MSTORE PUSH1 0x20 ADD DUP3 DUP1 SLOAD PUSH2 0xEFF SWAP1 PUSH2 0x44A7 JUMP JUMPDEST DUP1 ISZERO PUSH2 0xF4A JUMPI DUP1 PUSH1 0x1F LT PUSH2 0xF21 JUMPI PUSH2 0x100 DUP1 DUP4 SLOAD DIV MUL DUP4 MSTORE SWAP2 PUSH1 0x20 ADD SWAP2 PUSH2 0xF4A JUMP JUMPDEST DUP3 ADD SWAP2 SWAP1 PUSH0 MSTORE PUSH1 0x20 PUSH0 KECCAK256 SWAP1 JUMPDEST DUP2 SLOAD DUP2 MSTORE SWAP1 PUSH1 0x1 ADD SWAP1 PUSH1 0x20 ADD DUP1 DUP4 GT PUSH2 0xF2D JUMPI DUP3 SWAP1 SUB PUSH1 0x1F AND DUP3 ADD SWAP2 JUMPDEST POP POP POP POP POP DUP2 MSTORE POP POP DUP3 DUP3 DUP2 MLOAD DUP2 LT PUSH2 0xF66 JUMPI PUSH2 0xF65 PUSH2 0x444D JUMP JUMPDEST JUMPDEST PUSH1 0x20 MUL PUSH1 0x20 ADD ADD DUP2 SWAP1 MSTORE POP DUP1 DUP1 PUSH1 0x1 ADD SWAP2 POP POP PUSH2 0xDE4 JUMP JUMPDEST POP DUP1 SWAP7 POP POP POP POP POP POP POP SWAP5 SWAP4 POP POP POP POP JUMP JUMPDEST PUSH2 0xF9B DUP4 DUP4 DUP4 PUSH2 0x2A6A JUMP JUMPDEST PUSH2 0xFA4 DUP4 PUSH2 0x28AE JUMP JUMPDEST PUSH0 PUSH2 0xFAD PUSH2 0x27D7 JUMP JUMPDEST SWAP1 POP PUSH0 DUP2 PUSH0 ADD PUSH0 DUP7 DUP2 MSTORE PUSH1 0x20 ADD SWAP1 DUP2 MSTORE PUSH1 0x20 ADD PUSH0 KECCAK256 SWAP1 POP PUSH2 0xFEC DUP4 DUP3 PUSH1 0xD ADD PUSH0 DUP8 DUP2 MSTORE PUSH1 0x20 ADD SWAP1 DUP2 MSTORE PUSH1 0x20 ADD PUSH0 KECCAK256 PUSH1 0x3 ADD PUSH2 0x2B03 SWAP1 SWAP2 SWAP1 PUSH4 0xFFFFFFFF AND JUMP JUMPDEST POP PUSH0 DUP2 PUSH1 0x15 ADD SLOAD GT ISZERO PUSH2 0x1013 JUMPI DUP1 PUSH1 0x15 ADD PUSH0 DUP2 SLOAD DUP1 SWAP3 SWAP2 SWAP1 PUSH2 0x100D SWAP1 PUSH2 0x47E7 JUMP JUMPDEST SWAP2 SWAP1 POP SSTORE POP JUMPDEST POP POP POP POP POP JUMP JUMPDEST PUSH2 0x1023 CALLER PUSH2 0x292B JUMP JUMPDEST PUSH2 0x102C DUP3 PUSH2 0x293F JUMP JUMPDEST PUSH2 0x1035 DUP3 PUSH2 0x28AE JUMP JUMPDEST PUSH0 PUSH2 0x103E PUSH2 0x27D7 JUMP JUMPDEST SWAP1 POP PUSH0 DUP2 PUSH1 0x2 ADD PUSH0 DUP6 DUP2 MSTORE PUSH1 0x20 ADD SWAP1 DUP2 MSTORE PUSH1 0x20 ADD PUSH0 KECCAK256 SLOAD SWAP1 POP PUSH0 DUP3 PUSH0 ADD PUSH0 DUP4 DUP2 MSTORE PUSH1 0x20 ADD SWAP1 DUP2 MSTORE PUSH1 0x20 ADD PUSH0 KECCAK256 SWAP1 POP PUSH0 DUP6 DUP3 PUSH0 ADD PUSH1 0x3 ADD SLOAD EQ PUSH2 0x1092 JUMPI DUP2 PUSH1 0xA ADD PUSH0 DUP8 DUP2 MSTORE PUSH1 0x20 ADD SWAP1 DUP2 MSTORE PUSH1 0x20 ADD PUSH0 KECCAK256 PUSH2 0x1096 JUMP JUMPDEST DUP2 PUSH0 ADD JUMPDEST SWAP1 POP DUP5 DUP2 PUSH1 0x5 ADD PUSH0 DUP3 DUP3 SLOAD PUSH2 0x10AB SWAP2 SWAP1 PUSH2 0x441A JUMP JUMPDEST SWAP3 POP POP DUP2 SWAP1 SSTORE POP POP POP POP POP POP POP JUMP JUMPDEST PUSH2 0x10C3 DUP5 PUSH2 0x293F JUMP JUMPDEST PUSH2 0x10CD DUP5 DUP5 PUSH2 0x2B1A JUMP JUMPDEST PUSH2 0x10D6 DUP5 PUSH2 0x28AE JUMP JUMPDEST PUSH0 PUSH2 0x10DF PUSH2 0x27D7 JUMP JUMPDEST SWAP1 POP DUP3 DUP2 PUSH0 ADD PUSH0 DUP8 DUP2 MSTORE PUSH1 0x20 ADD SWAP1 DUP2 MSTORE PUSH1 0x20 ADD PUSH0 KECCAK256 PUSH1 0xA ADD PUSH0 DUP7 DUP2 MSTORE PUSH1 0x20 ADD SWAP1 DUP2 MSTORE PUSH1 0x20 ADD PUSH0 KECCAK256 PUSH0 ADD PUSH1 0x1 ADD SWAP1 DUP2 PUSH2 0x1117 SWAP2 SWAP1 PUSH2 0x4677 JUMP JUMPDEST POP DUP2 DUP2 PUSH0 ADD PUSH0 DUP8 DUP2 MSTORE PUSH1 0x20 ADD SWAP1 DUP2 MSTORE PUSH1 0x20 ADD PUSH0 KECCAK256 PUSH1 0xA ADD PUSH0 DUP7 DUP2 MSTORE PUSH1 0x20 ADD SWAP1 DUP2 MSTORE PUSH1 0x20 ADD PUSH0 KECCAK256 PUSH0 ADD PUSH1 0x2 ADD SWAP1 DUP2 PUSH2 0x114E SWAP2 SWAP1 PUSH2 0x4677 JUMP JUMPDEST POP POP POP POP POP POP JUMP JUMPDEST PUSH2 0x115F DUP4 PUSH2 0x293F JUMP JUMPDEST PUSH2 0x116A DUP4 DUP4 DUP4 PUSH2 0x2B97 JUMP JUMPDEST PUSH2 0x1173 DUP4 PUSH2 0x28AE JUMP JUMPDEST PUSH0 PUSH2 0x117C PUSH2 0x27D7 JUMP JUMPDEST SWAP1 POP PUSH2 0x11B7 DUP3 DUP3 PUSH0 ADD PUSH0 DUP8 DUP2 MSTORE PUSH1 0x20 ADD SWAP1 DUP2 MSTORE PUSH1 0x20 ADD PUSH0 KECCAK256 PUSH1 0xD ADD PUSH0 DUP7 DUP2 MSTORE PUSH1 0x20 ADD SWAP1 DUP2 MSTORE PUSH1 0x20 ADD PUSH0 KECCAK256 PUSH1 0x5 ADD PUSH2 0x2B03 SWAP1 SWAP2 SWAP1 PUSH4 0xFFFFFFFF AND JUMP JUMPDEST POP POP POP POP POP JUMP JUMPDEST PUSH0 PUSH2 0x11C7 PUSH2 0x27D7 JUMP JUMPDEST PUSH1 0x1 ADD PUSH0 DUP4 DUP2 MSTORE PUSH1 0x20 ADD SWAP1 DUP2 MSTORE PUSH1 0x20 ADD PUSH0 KECCAK256 SLOAD SWAP1 POP SWAP2 SWAP1 POP JUMP JUMPDEST PUSH0 PUSH2 0x11EC DUP3 CALLER PUSH2 0x2C30 JUMP JUMPDEST SWAP1 POP SWAP2 SWAP1 POP JUMP JUMPDEST PUSH2 0x11FC DUP8 PUSH2 0x293F JUMP JUMPDEST PUSH2 0x1205 DUP8 PUSH2 0x28AE JUMP JUMPDEST PUSH0 PUSH2 0x120E PUSH2 0x27D7 JUMP JUMPDEST SWAP1 POP PUSH0 DUP2 PUSH0 ADD PUSH0 DUP11 DUP2 MSTORE PUSH1 0x20 ADD SWAP1 DUP2 MSTORE PUSH1 0x20 ADD PUSH0 KECCAK256 SWAP1 POP PUSH2 0x123F DUP2 PUSH1 0x16 ADD SLOAD DUP3 PUSH1 0xB ADD PUSH2 0x2914 SWAP1 SWAP2 SWAP1 PUSH4 0xFFFFFFFF AND JUMP JUMPDEST POP PUSH0 DUP2 PUSH1 0xD ADD PUSH0 DUP4 PUSH1 0x16 ADD SLOAD DUP2 MSTORE PUSH1 0x20 ADD SWAP1 DUP2 MSTORE PUSH1 0x20 ADD PUSH0 KECCAK256 SWAP1 POP DUP2 PUSH1 0x16 ADD SLOAD DUP2 PUSH0 ADD PUSH0 ADD DUP2 SWAP1 SSTORE POP DUP9 DUP2 PUSH0 ADD PUSH1 0x1 ADD SWAP1 DUP2 PUSH2 0x127B SWAP2 SWAP1 PUSH2 0x4677 JUMP JUMPDEST POP DUP8 DUP2 PUSH0 ADD PUSH1 0x2 ADD SWAP1 DUP2 PUSH2 0x128F SWAP2 SWAP1 PUSH2 0x4677 JUMP JUMPDEST POP PUSH0 PUSH0 SWAP1 POP JUMPDEST DUP8 MLOAD DUP2 LT ISZERO PUSH2 0x12DC JUMPI PUSH2 0x12CE DUP9 DUP3 DUP2 MLOAD DUP2 LT PUSH2 0x12B4 JUMPI PUSH2 0x12B3 PUSH2 0x444D JUMP JUMPDEST JUMPDEST PUSH1 0x20 MUL PUSH1 0x20 ADD ADD MLOAD DUP4 PUSH1 0x3 ADD PUSH2 0x2914 SWAP1 SWAP2 SWAP1 PUSH4 0xFFFFFFFF AND JUMP JUMPDEST POP DUP1 DUP1 PUSH1 0x1 ADD SWAP2 POP POP PUSH2 0x1295 JUMP JUMPDEST POP PUSH0 PUSH0 SWAP1 POP JUMPDEST DUP7 MLOAD DUP2 LT ISZERO PUSH2 0x1329 JUMPI PUSH2 0x131B DUP8 DUP3 DUP2 MLOAD DUP2 LT PUSH2 0x1301 JUMPI PUSH2 0x1300 PUSH2 0x444D JUMP JUMPDEST JUMPDEST PUSH1 0x20 MUL PUSH1 0x20 ADD ADD MLOAD DUP4 PUSH1 0x5 ADD PUSH2 0x2914 SWAP1 SWAP2 SWAP1 PUSH4 0xFFFFFFFF AND JUMP JUMPDEST POP DUP1 DUP1 PUSH1 0x1 ADD SWAP2 POP POP PUSH2 0x12E2 JUMP JUMPDEST POP DUP5 DUP2 PUSH1 0x7 ADD PUSH0 PUSH2 0x100 EXP DUP2 SLOAD DUP2 PUSH1 0xFF MUL NOT AND SWAP1 DUP4 ISZERO ISZERO MUL OR SWAP1 SSTORE POP DUP4 DUP2 PUSH1 0x7 ADD PUSH1 0x1 PUSH2 0x100 EXP DUP2 SLOAD DUP2 PUSH1 0xFF MUL NOT AND SWAP1 DUP4 ISZERO ISZERO MUL OR SWAP1 SSTORE POP DUP2 PUSH1 0x16 ADD PUSH0 DUP2 SLOAD DUP1 SWAP3 SWAP2 SWAP1 PUSH2 0x1375 SWAP1 PUSH2 0x4746 JUMP JUMPDEST SWAP2 SWAP1 POP SSTORE POP POP POP POP POP POP POP POP POP POP POP JUMP JUMPDEST PUSH2 0x138F CALLER PUSH2 0x2D36 JUMP JUMPDEST PUSH0 PUSH2 0x1398 PUSH2 0x27D7 JUMP JUMPDEST SWAP1 POP PUSH0 DUP2 PUSH1 0x2 ADD PUSH0 DUP9 DUP2 MSTORE PUSH1 0x20 ADD SWAP1 DUP2 MSTORE PUSH1 0x20 ADD PUSH0 KECCAK256 SLOAD EQ PUSH2 0x13F1 JUMPI DUP6 PUSH1 0x40 MLOAD PUSH32 0x8BE1F3FB00000000000000000000000000000000000000000000000000000000 DUP2 MSTORE PUSH1 0x4 ADD PUSH2 0x13E8 SWAP2 SWAP1 PUSH2 0x3631 JUMP JUMPDEST PUSH1 0x40 MLOAD DUP1 SWAP2 SUB SWAP1 REVERT JUMPDEST PUSH0 DUP2 PUSH0 ADD PUSH0 DUP9 DUP2 MSTORE PUSH1 0x20 ADD SWAP1 DUP2 MSTORE PUSH1 0x20 ADD PUSH0 KECCAK256 SWAP1 POP DUP6 DUP2 PUSH1 0x13 ADD PUSH0 PUSH2 0x100 EXP DUP2 SLOAD DUP2 PUSH1 0xFF MUL NOT AND SWAP1 DUP4 ISZERO ISZERO MUL OR SWAP1 SSTORE POP DUP3 DUP2 PUSH1 0x7 ADD PUSH0 PUSH2 0x100 EXP DUP2 SLOAD DUP2 PUSH20 0xFFFFFFFFFFFFFFFFFFFFFFFFFFFFFFFFFFFFFFFF MUL NOT AND SWAP1 DUP4 PUSH20 0xFFFFFFFFFFFFFFFFFFFFFFFFFFFFFFFFFFFFFFFF AND MUL OR SWAP1 SSTORE POP DUP7 DUP2 PUSH0 ADD PUSH0 ADD PUSH0 ADD DUP2 SWAP1 SSTORE POP DUP5 DUP2 PUSH0 ADD PUSH0 ADD PUSH1 0x1 ADD SWAP1 DUP2 PUSH2 0x1484 SWAP2 SWAP1 PUSH2 0x4677 JUMP JUMPDEST POP DUP4 DUP2 PUSH0 ADD PUSH0 ADD PUSH1 0x2 ADD SWAP1 DUP2 PUSH2 0x149A SWAP2 SWAP1 PUSH2 0x4677 JUMP JUMPDEST POP PUSH0 DUP2 PUSH0 ADD PUSH1 0x6 ADD PUSH0 PUSH2 0x100 EXP DUP2 SLOAD DUP2 PUSH1 0xFF MUL NOT AND SWAP1 DUP4 ISZERO ISZERO MUL OR SWAP1 SSTORE POP PUSH1 0x1 DUP2 PUSH0 ADD PUSH1 0x6 ADD PUSH1 0x1 PUSH2 0x100 EXP DUP2 SLOAD DUP2 PUSH1 0xFF MUL NOT AND SWAP1 DUP4 ISZERO ISZERO MUL OR SWAP1 SSTORE POP PUSH1 0x1 DUP2 PUSH0 ADD PUSH1 0x6 ADD PUSH1 0x2 PUSH2 0x100 EXP DUP2 SLOAD DUP2 PUSH1 0xFF MUL NOT AND SWAP1 DUP4 ISZERO ISZERO MUL OR SWAP1 SSTORE POP PUSH1 0x1 DUP2 PUSH0 ADD PUSH1 0x6 ADD PUSH1 0x3 PUSH2 0x100 EXP DUP2 SLOAD DUP2 PUSH1 0xFF MUL NOT AND SWAP1 DUP4 ISZERO ISZERO MUL OR SWAP1 SSTORE POP PUSH1 0x1 DUP2 PUSH0 ADD PUSH1 0x6 ADD PUSH1 0x4 PUSH2 0x100 EXP DUP2 SLOAD DUP2 PUSH1 0xFF MUL NOT AND SWAP1 DUP4 ISZERO ISZERO MUL OR SWAP1 SSTORE POP DUP7 DUP2 PUSH0 ADD PUSH1 0x3 ADD DUP2 SWAP1 SSTORE POP PUSH4 0x12CC0300 TIMESTAMP PUSH2 0x154F SWAP2 SWAP1 PUSH2 0x441A JUMP JUMPDEST DUP2 PUSH0 ADD PUSH1 0x4 ADD DUP2 SWAP1 SSTORE POP PUSH0 DUP2 PUSH0 ADD PUSH1 0x5 ADD DUP2 SWAP1 SSTORE POP DUP7 DUP3 PUSH1 0x2 ADD PUSH0 DUP10 DUP2 MSTORE PUSH1 0x20 ADD SWAP1 DUP2 MSTORE PUSH1 0x20 ADD PUSH0 KECCAK256 DUP2 SWAP1 SSTORE POP DUP2 PUSH1 0xA ADD PUSH0 DUP2 SLOAD DUP1 SWAP3 SWAP2 SWAP1 PUSH2 0x1590 SWAP1 PUSH2 0x4746 JUMP JUMPDEST SWAP2 SWAP1 POP SSTORE POP DUP7 DUP3 PUSH1 0x1 ADD PUSH0 DUP5 PUSH1 0xA ADD SLOAD DUP2 MSTORE PUSH1 0x20 ADD SWAP1 DUP2 MSTORE PUSH1 0x20 ADD PUSH0 KECCAK256 DUP2 SWAP1 SSTORE POP POP POP POP POP POP POP POP JUMP JUMPDEST PUSH1 0x60 PUSH0 PUSH2 0x15C6 DUP6 PUSH2 0x2750 JUMP JUMPDEST SWAP1 POP PUSH0 PUSH0 PUSH2 0x15D9 DUP4 PUSH1 0x14 ADD SLOAD DUP8 DUP8 PUSH2 0x2816 JUMP JUMPDEST SWAP2 POP SWAP2 POP PUSH0 DUP2 PUSH8 0xFFFFFFFFFFFFFFFF DUP2 GT ISZERO PUSH2 0x15F8 JUMPI PUSH2 0x15F7 PUSH2 0x3652 JUMP JUMPDEST JUMPDEST PUSH1 0x40 MLOAD SWAP1 DUP1 DUP3 MSTORE DUP1 PUSH1 0x20 MUL PUSH1 0x20 ADD DUP3 ADD PUSH1 0x40 MSTORE DUP1 ISZERO PUSH2 0x1631 JUMPI DUP2 PUSH1 0x20 ADD JUMPDEST PUSH2 0x161E PUSH2 0x3272 JUMP JUMPDEST DUP2 MSTORE PUSH1 0x20 ADD SWAP1 PUSH1 0x1 SWAP1 SUB SWAP1 DUP2 PUSH2 0x1616 JUMPI SWAP1 POP JUMPDEST POP SWAP1 POP PUSH0 PUSH0 SWAP1 POP JUMPDEST DUP3 DUP2 LT ISZERO PUSH2 0x191C JUMPI PUSH0 DUP6 PUSH1 0x11 ADD PUSH0 DUP4 DUP8 PUSH2 0x1653 SWAP2 SWAP1 PUSH2 0x441A JUMP JUMPDEST DUP2 MSTORE PUSH1 0x20 ADD SWAP1 DUP2 MSTORE PUSH1 0x20 ADD PUSH0 KECCAK256 PUSH0 SWAP1 SLOAD SWAP1 PUSH2 0x100 EXP SWAP1 DIV PUSH20 0xFFFFFFFFFFFFFFFFFFFFFFFFFFFFFFFFFFFFFFFF AND SWAP1 POP DUP1 DUP4 DUP4 DUP2 MLOAD DUP2 LT PUSH2 0x1696 JUMPI PUSH2 0x1695 PUSH2 0x444D JUMP JUMPDEST JUMPDEST PUSH1 0x20 MUL PUSH1 0x20 ADD ADD MLOAD PUSH1 0x60 ADD SWAP1 PUSH20 0xFFFFFFFFFFFFFFFFFFFFFFFFFFFFFFFFFFFFFFFF AND SWAP1 DUP2 PUSH20 0xFFFFFFFFFFFFFFFFFFFFFFFFFFFFFFFFFFFFFFFF AND DUP2 MSTORE POP POP DUP6 PUSH1 0x12 ADD PUSH0 DUP3 PUSH20 0xFFFFFFFFFFFFFFFFFFFFFFFFFFFFFFFFFFFFFFFF AND PUSH20 0xFFFFFFFFFFFFFFFFFFFFFFFFFFFFFFFFFFFFFFFF AND DUP2 MSTORE PUSH1 0x20 ADD SWAP1 DUP2 MSTORE PUSH1 0x20 ADD PUSH0 KECCAK256 PUSH1 0x1 ADD DUP1 SLOAD PUSH2 0x1721 SWAP1 PUSH2 0x44A7 JUMP JUMPDEST DUP1 PUSH1 0x1F ADD PUSH1 0x20 DUP1 SWAP2 DIV MUL PUSH1 0x20 ADD PUSH1 0x40 MLOAD SWAP1 DUP2 ADD PUSH1 0x40 MSTORE DUP1 SWAP3 SWAP2 SWAP1 DUP2 DUP2 MSTORE PUSH1 0x20 ADD DUP3 DUP1 SLOAD PUSH2 0x174D SWAP1 PUSH2 0x44A7 JUMP JUMPDEST DUP1 ISZERO PUSH2 0x1798 JUMPI DUP1 PUSH1 0x1F LT PUSH2 0x176F JUMPI PUSH2 0x100 DUP1 DUP4 SLOAD DIV MUL DUP4 MSTORE SWAP2 PUSH1 0x20 ADD SWAP2 PUSH2 0x1798 JUMP JUMPDEST DUP3 ADD SWAP2 SWAP1 PUSH0 MSTORE PUSH1 0x20 PUSH0 KECCAK256 SWAP1 JUMPDEST DUP2 SLOAD DUP2 MSTORE SWAP1 PUSH1 0x1 ADD SWAP1 PUSH1 0x20 ADD DUP1 DUP4 GT PUSH2 0x177B JUMPI DUP3 SWAP1 SUB PUSH1 0x1F AND DUP3 ADD SWAP2 JUMPDEST POP POP POP POP POP DUP4 DUP4 DUP2 MLOAD DUP2 LT PUSH2 0x17B0 JUMPI PUSH2 0x17AF PUSH2 0x444D JUMP JUMPDEST JUMPDEST PUSH1 0x20 MUL PUSH1 0x20 ADD ADD MLOAD PUSH1 0x20 ADD DUP2 SWAP1 MSTORE POP DUP6 PUSH1 0x12 ADD PUSH0 DUP3 PUSH20 0xFFFFFFFFFFFFFFFFFFFFFFFFFFFFFFFFFFFFFFFF AND PUSH20 0xFFFFFFFFFFFFFFFFFFFFFFFFFFFFFFFFFFFFFFFF AND DUP2 MSTORE PUSH1 0x20 ADD SWAP1 DUP2 MSTORE PUSH1 0x20 ADD PUSH0 KECCAK256 PUSH1 0x2 ADD DUP1 SLOAD PUSH2 0x180C SWAP1 PUSH2 0x44A7 JUMP JUMPDEST DUP1 PUSH1 0x1F ADD PUSH1 0x20 DUP1 SWAP2 DIV MUL PUSH1 0x20 ADD PUSH1 0x40 MLOAD SWAP1 DUP2 ADD PUSH1 0x40 MSTORE DUP1 SWAP3 SWAP2 SWAP1 DUP2 DUP2 MSTORE PUSH1 0x20 ADD DUP3 DUP1 SLOAD PUSH2 0x1838 SWAP1 PUSH2 0x44A7 JUMP JUMPDEST DUP1 ISZERO PUSH2 0x1883 JUMPI DUP1 PUSH1 0x1F LT PUSH2 0x185A JUMPI PUSH2 0x100 DUP1 DUP4 SLOAD DIV MUL DUP4 MSTORE SWAP2 PUSH1 0x20 ADD SWAP2 PUSH2 0x1883 JUMP JUMPDEST DUP3 ADD SWAP2 SWAP1 PUSH0 MSTORE PUSH1 0x20 PUSH0 KECCAK256 SWAP1 JUMPDEST DUP2 SLOAD DUP2 MSTORE SWAP1 PUSH1 0x1 ADD SWAP1 PUSH1 0x20 ADD DUP1 DUP4 GT PUSH2 0x1866 JUMPI DUP3 SWAP1 SUB PUSH1 0x1F AND DUP3 ADD SWAP2 JUMPDEST POP POP POP POP POP DUP4 DUP4 DUP2 MLOAD DUP2 LT PUSH2 0x189B JUMPI PUSH2 0x189A PUSH2 0x444D JUMP JUMPDEST JUMPDEST PUSH1 0x20 MUL PUSH1 0x20 ADD ADD MLOAD PUSH1 0x40 ADD DUP2 SWAP1 MSTORE POP DUP6 PUSH1 0x12 ADD PUSH0 DUP3 PUSH20 0xFFFFFFFFFFFFFFFFFFFFFFFFFFFFFFFFFFFFFFFF AND PUSH20 0xFFFFFFFFFFFFFFFFFFFFFFFFFFFFFFFFFFFFFFFF AND DUP2 MSTORE PUSH1 0x20 ADD SWAP1 DUP2 MSTORE PUSH1 0x20 ADD PUSH0 KECCAK256 PUSH0 ADD SLOAD DUP4 DUP4 DUP2 MLOAD DUP2 LT PUSH2 0x18FF JUMPI PUSH2 0x18FE PUSH2 0x444D JUMP JUMPDEST JUMPDEST PUSH1 0x20 MUL PUSH1 0x20 ADD ADD MLOAD PUSH0 ADD DUP2 DUP2 MSTORE POP POP POP DUP1 DUP1 PUSH1 0x1 ADD SWAP2 POP POP PUSH2 0x1639 JUMP JUMPDEST POP DUP1 SWAP5 POP POP POP POP POP SWAP4 SWAP3 POP POP POP JUMP JUMPDEST PUSH0 PUSH2 0x1934 PUSH2 0x27D7 JUMP JUMPDEST PUSH1 0x7 ADD PUSH0 SWAP1 SLOAD SWAP1 PUSH2 0x100 EXP SWAP1 DIV PUSH20 0xFFFFFFFFFFFFFFFFFFFFFFFFFFFFFFFFFFFFFFFF AND SWAP1 POP SWAP1 JUMP JUMPDEST PUSH0 PUSH0 PUSH2 0x1967 DUP5 PUSH2 0x2750 JUMP JUMPDEST SWAP1 POP DUP1 PUSH1 0x12 ADD PUSH0 DUP5 PUSH20 0xFFFFFFFFFFFFFFFFFFFFFFFFFFFFFFFFFFFFFFFF AND PUSH20 0xFFFFFFFFFFFFFFFFFFFFFFFFFFFFFFFFFFFFFFFF AND DUP2 MSTORE PUSH1 0x20 ADD SWAP1 DUP2 MSTORE PUSH1 0x20 ADD PUSH0 KECCAK256 PUSH0 ADD SLOAD SWAP2 POP POP SWAP3 SWAP2 POP POP JUMP JUMPDEST PUSH2 0x19BD DUP6 PUSH2 0x293F JUMP JUMPDEST PUSH2 0x19C6 DUP6 PUSH2 0x28AE JUMP JUMPDEST PUSH0 PUSH2 0x19CF PUSH2 0x27D7 JUMP JUMPDEST SWAP1 POP PUSH0 DUP2 PUSH0 ADD PUSH0 DUP9 DUP2 MSTORE PUSH1 0x20 ADD SWAP1 DUP2 MSTORE PUSH1 0x20 ADD PUSH0 KECCAK256 SWAP1 POP DUP5 DUP2 PUSH1 0x12 ADD PUSH0 DUP9 PUSH20 0xFFFFFFFFFFFFFFFFFFFFFFFFFFFFFFFFFFFFFFFF AND PUSH20 0xFFFFFFFFFFFFFFFFFFFFFFFFFFFFFFFFFFFFFFFF AND DUP2 MSTORE PUSH1 0x20 ADD SWAP1 DUP2 MSTORE PUSH1 0x20 ADD PUSH0 KECCAK256 PUSH0 ADD DUP2 SWAP1 SSTORE POP DUP4 DUP2 PUSH1 0x12 ADD PUSH0 DUP9 PUSH20 0xFFFFFFFFFFFFFFFFFFFFFFFFFFFFFFFFFFFFFFFF AND PUSH20 0xFFFFFFFFFFFFFFFFFFFFFFFFFFFFFFFFFFFFFFFF AND DUP2 MSTORE PUSH1 0x20 ADD SWAP1 DUP2 MSTORE PUSH1 0x20 ADD PUSH0 KECCAK256 PUSH1 0x1 ADD SWAP1 DUP2 PUSH2 0x1A7B SWAP2 SWAP1 PUSH2 0x4677 JUMP JUMPDEST POP DUP3 DUP2 PUSH1 0x12 ADD PUSH0 DUP9 PUSH20 0xFFFFFFFFFFFFFFFFFFFFFFFFFFFFFFFFFFFFFFFF AND PUSH20 0xFFFFFFFFFFFFFFFFFFFFFFFFFFFFFFFFFFFFFFFF AND DUP2 MSTORE PUSH1 0x20 ADD SWAP1 DUP2 MSTORE PUSH1 0x20 ADD PUSH0 KECCAK256 PUSH1 0x2 ADD SWAP1 DUP2 PUSH2 0x1ACB SWAP2 SWAP1 PUSH2 0x4677 JUMP JUMPDEST POP DUP6 DUP2 PUSH1 0x11 ADD PUSH0 DUP4 PUSH1 0x14 ADD SLOAD DUP2 MSTORE PUSH1 0x20 ADD SWAP1 DUP2 MSTORE PUSH1 0x20 ADD PUSH0 KECCAK256 PUSH0 PUSH2 0x100 EXP DUP2 SLOAD DUP2 PUSH20 0xFFFFFFFFFFFFFFFFFFFFFFFFFFFFFFFFFFFFFFFF MUL NOT AND SWAP1 DUP4 PUSH20 0xFFFFFFFFFFFFFFFFFFFFFFFFFFFFFFFFFFFFFFFF AND MUL OR SWAP1 SSTORE POP DUP1 PUSH1 0x14 ADD PUSH0 DUP2 SLOAD DUP1 SWAP3 SWAP2 SWAP1 PUSH2 0x1B35 SWAP1 PUSH2 0x4746 JUMP JUMPDEST SWAP2 SWAP1 POP SSTORE POP DUP2 PUSH1 0x9 ADD PUSH0 DUP2 SLOAD DUP1 SWAP3 SWAP2 SWAP1 PUSH2 0x1B4E SWAP1 PUSH2 0x4746 JUMP JUMPDEST SWAP2 SWAP1 POP SSTORE POP DUP6 DUP3 PUSH1 0x3 ADD PUSH0 DUP5 PUSH1 0x9 ADD SLOAD DUP2 MSTORE PUSH1 0x20 ADD SWAP1 DUP2 MSTORE PUSH1 0x20 ADD PUSH0 KECCAK256 PUSH0 PUSH2 0x100 EXP DUP2 SLOAD DUP2 PUSH20 0xFFFFFFFFFFFFFFFFFFFFFFFFFFFFFFFFFFFFFFFF MUL NOT AND SWAP1 DUP4 PUSH20 0xFFFFFFFFFFFFFFFFFFFFFFFFFFFFFFFFFFFFFFFF AND MUL OR SWAP1 SSTORE POP POP POP POP POP POP POP POP JUMP JUMPDEST PUSH1 0x60 PUSH0 PUSH2 0x1BBC PUSH2 0x27D7 JUMP JUMPDEST SWAP1 POP PUSH2 0x1BCA DUP2 PUSH1 0x5 ADD PUSH2 0x2D9C JUMP JUMPDEST SWAP2 POP POP SWAP1 JUMP JUMPDEST PUSH2 0x1BDA DUP7 DUP7 PUSH2 0x2897 JUMP JUMPDEST PUSH2 0x1BE3 DUP7 PUSH2 0x28AE JUMP JUMPDEST PUSH0 PUSH2 0x1BEC PUSH2 0x27D7 JUMP JUMPDEST SWAP1 POP PUSH0 DUP2 PUSH0 ADD PUSH0 DUP10 DUP2 MSTORE PUSH1 0x20 ADD SWAP1 DUP2 MSTORE PUSH1 0x20 ADD PUSH0 KECCAK256 PUSH1 0xD ADD PUSH0 DUP9 DUP2 MSTORE PUSH1 0x20 ADD SWAP1 DUP2 MSTORE PUSH1 0x20 ADD PUSH0 KECCAK256 SWAP1 POP DUP6 DUP2 PUSH0 ADD PUSH1 0x1 ADD SWAP1 DUP2 PUSH2 0x1C28 SWAP2 SWAP1 PUSH2 0x4677 JUMP JUMPDEST POP DUP5 DUP2 PUSH0 ADD PUSH1 0x2 ADD SWAP1 DUP2 PUSH2 0x1C3C SWAP2 SWAP1 PUSH2 0x4677 JUMP JUMPDEST POP DUP4 DUP2 PUSH1 0x7 ADD PUSH0 PUSH2 0x100 EXP DUP2 SLOAD DUP2 PUSH1 0xFF MUL NOT AND SWAP1 DUP4 ISZERO ISZERO MUL OR SWAP1 SSTORE POP DUP3 DUP2 PUSH1 0x7 ADD PUSH1 0x1 PUSH2 0x100 EXP DUP2 SLOAD DUP2 PUSH1 0xFF MUL NOT AND SWAP1 DUP4 ISZERO ISZERO MUL OR SWAP1 SSTORE POP POP POP POP POP POP POP POP POP JUMP JUMPDEST PUSH2 0x1C89 DUP6 DUP5 DUP7 PUSH2 0x2A6A JUMP JUMPDEST PUSH2 0x1C92 DUP6 PUSH2 0x28AE JUMP JUMPDEST PUSH0 PUSH2 0x1C9B PUSH2 0x27D7 JUMP JUMPDEST SWAP1 POP PUSH0 DUP2 PUSH0 ADD PUSH0 DUP9 DUP2 MSTORE PUSH1 0x20 ADD SWAP1 DUP2 MSTORE PUSH1 0x20 ADD PUSH0 KECCAK256 SWAP1 POP DUP4 DUP2 PUSH1 0x10 ADD PUSH0 DUP9 DUP2 MSTORE PUSH1 0x20 ADD SWAP1 DUP2 MSTORE PUSH1 0x20 ADD PUSH0 KECCAK256 PUSH1 0x1 ADD SWAP1 DUP2 PUSH2 0x1CD5 SWAP2 SWAP1 PUSH2 0x4677 JUMP JUMPDEST POP DUP3 DUP2 PUSH1 0x10 ADD PUSH0 DUP9 DUP2 MSTORE PUSH1 0x20 ADD SWAP1 DUP2 MSTORE PUSH1 0x20 ADD PUSH0 KECCAK256 PUSH1 0x2 ADD SWAP1 DUP2 PUSH2 0x1CF9 SWAP2 SWAP1 PUSH2 0x4677 JUMP JUMPDEST POP POP POP POP POP POP POP POP JUMP JUMPDEST PUSH2 0x1D0C CALLER PUSH2 0x294C JUMP JUMPDEST PUSH0 PUSH2 0x1D15 PUSH2 0x27D7 JUMP JUMPDEST SWAP1 POP PUSH2 0x1D23 DUP2 PUSH1 0x5 ADD PUSH2 0x2DBB JUMP JUMPDEST PUSH0 PUSH0 SWAP1 POP JUMPDEST DUP3 MLOAD DUP2 LT ISZERO PUSH2 0x1D6F JUMPI PUSH2 0x1D61 DUP4 DUP3 DUP2 MLOAD DUP2 LT PUSH2 0x1D47 JUMPI PUSH2 0x1D46 PUSH2 0x444D JUMP JUMPDEST JUMPDEST PUSH1 0x20 MUL PUSH1 0x20 ADD ADD MLOAD DUP4 PUSH1 0x5 ADD PUSH2 0x2DC9 SWAP1 SWAP2 SWAP1 PUSH4 0xFFFFFFFF AND JUMP JUMPDEST POP DUP1 DUP1 PUSH1 0x1 ADD SWAP2 POP POP PUSH2 0x1D28 JUMP JUMPDEST POP POP POP JUMP JUMPDEST PUSH0 PUSH2 0x1D88 PUSH2 0x1D80 PUSH2 0x27D7 JUMP JUMPDEST PUSH1 0x5 ADD PUSH2 0x2DF6 JUMP JUMPDEST SWAP1 POP SWAP1 JUMP JUMPDEST PUSH2 0x1D97 DUP4 DUP4 PUSH2 0x2897 JUMP JUMPDEST PUSH2 0x1DA0 DUP4 PUSH2 0x28AE JUMP JUMPDEST PUSH0 PUSH2 0x1DA9 PUSH2 0x27D7 JUMP JUMPDEST SWAP1 POP PUSH2 0x1DE4 DUP3 DUP3 PUSH0 ADD PUSH0 DUP8 DUP2 MSTORE PUSH1 0x20 ADD SWAP1 DUP2 MSTORE PUSH1 0x20 ADD PUSH0 KECCAK256 PUSH1 0xD ADD PUSH0 DUP7 DUP2 MSTORE PUSH1 0x20 ADD SWAP1 DUP2 MSTORE PUSH1 0x20 ADD PUSH0 KECCAK256 PUSH1 0x5 ADD PUSH2 0x2914 SWAP1 SWAP2 SWAP1 PUSH4 0xFFFFFFFF AND JUMP JUMPDEST POP POP POP POP POP JUMP JUMPDEST PUSH2 0x1DF4 CALLER PUSH2 0x294C JUMP JUMPDEST PUSH0 PUSH2 0x1DFD PUSH2 0x27D7 JUMP JUMPDEST SWAP1 POP DUP2 DUP2 PUSH1 0xB ADD PUSH0 PUSH2 0x100 EXP DUP2 SLOAD DUP2 PUSH20 0xFFFFFFFFFFFFFFFFFFFFFFFFFFFFFFFFFFFFFFFF MUL NOT AND SWAP1 DUP4 PUSH20 0xFFFFFFFFFFFFFFFFFFFFFFFFFFFFFFFFFFFFFFFF AND MUL OR SWAP1 SSTORE POP POP POP JUMP JUMPDEST PUSH0 PUSH2 0x1E4E PUSH2 0x27D7 JUMP JUMPDEST PUSH1 0x4 ADD PUSH0 DUP4 DUP2 MSTORE PUSH1 0x20 ADD SWAP1 DUP2 MSTORE PUSH1 0x20 ADD PUSH0 KECCAK256 SLOAD SWAP1 POP SWAP2 SWAP1 POP JUMP JUMPDEST PUSH0 PUSH2 0x1E71 PUSH2 0x27D7 JUMP JUMPDEST PUSH1 0x4 ADD PUSH0 DUP4 DUP2 MSTORE PUSH1 0x20 ADD SWAP1 DUP2 MSTORE PUSH1 0x20 ADD PUSH0 KECCAK256 SLOAD SWAP1 POP SWAP2 SWAP1 POP JUMP JUMPDEST PUSH2 0x1E94 DUP3 PUSH2 0x293F JUMP JUMPDEST PUSH2 0x1E9E DUP3 DUP3 PUSH2 0x2B1A JUMP JUMPDEST PUSH2 0x1EA7 DUP3 PUSH2 0x28AE JUMP JUMPDEST PUSH0 PUSH2 0x1EB0 PUSH2 0x27D7 JUMP JUMPDEST SWAP1 POP PUSH0 DUP2 PUSH0 ADD PUSH0 DUP6 DUP2 MSTORE PUSH1 0x20 ADD SWAP1 DUP2 MSTORE PUSH1 0x20 ADD PUSH0 KECCAK256 SWAP1 POP PUSH2 0x1EDD DUP4 DUP3 PUSH1 0x8 ADD PUSH2 0x2B03 SWAP1 SWAP2 SWAP1 PUSH4 0xFFFFFFFF AND JUMP JUMPDEST POP DUP1 PUSH1 0xA ADD PUSH0 DUP5 DUP2 MSTORE PUSH1 0x20 ADD SWAP1 DUP2 MSTORE PUSH1 0x20 ADD PUSH0 KECCAK256 PUSH0 PUSH0 DUP3 ADD PUSH0 PUSH0 DUP3 ADD PUSH0 SWAP1 SSTORE PUSH1 0x1 DUP3 ADD PUSH0 PUSH2 0x1F0B SWAP2 SWAP1 PUSH2 0x32CE JUMP JUMPDEST PUSH1 0x2 DUP3 ADD PUSH0 PUSH2 0x1F1A SWAP2 SWAP1 PUSH2 0x32CE JUMP JUMPDEST POP POP PUSH1 0x3 DUP3 ADD PUSH0 SWAP1 SSTORE PUSH1 0x4 DUP3 ADD PUSH0 SWAP1 SSTORE PUSH1 0x5 DUP3 ADD PUSH0 SWAP1 SSTORE PUSH1 0x6 DUP3 ADD PUSH0 PUSH2 0x100 EXP DUP2 SLOAD SWAP1 PUSH1 0xFF MUL NOT AND SWAP1 SSTORE PUSH1 0x6 DUP3 ADD PUSH1 0x1 PUSH2 0x100 EXP DUP2 SLOAD SWAP1 PUSH1 0xFF MUL NOT AND SWAP1 SSTORE PUSH1 0x6 DUP3 ADD PUSH1 0x2 PUSH2 0x100 EXP DUP2 SLOAD SWAP1 PUSH1 0xFF MUL NOT AND SWAP1 SSTORE PUSH1 0x6 DUP3 ADD PUSH1 0x3 PUSH2 0x100 EXP DUP2 SLOAD SWAP1 PUSH1 0xFF MUL NOT AND SWAP1 SSTORE PUSH1 0x6 DUP3 ADD PUSH1 0x4 PUSH2 0x100 EXP DUP2 SLOAD SWAP1 PUSH1 0xFF MUL NOT AND SWAP1 SSTORE POP POP DUP2 PUSH1 0x2 ADD PUSH0 DUP5 DUP2 MSTORE PUSH1 0x20 ADD SWAP1 DUP2 MSTORE PUSH1 0x20 ADD PUSH0 KECCAK256 PUSH0 SWAP1 SSTORE POP POP POP POP JUMP JUMPDEST PUSH1 0x60 PUSH0 PUSH2 0x1FBE DUP6 PUSH2 0x2750 JUMP JUMPDEST SWAP1 POP PUSH0 PUSH2 0x1FCD DUP3 PUSH1 0x8 ADD PUSH2 0x2803 JUMP JUMPDEST SWAP1 POP PUSH0 PUSH0 PUSH2 0x1FDC DUP4 DUP9 DUP9 PUSH2 0x2816 JUMP JUMPDEST SWAP2 POP SWAP2 POP PUSH0 DUP2 PUSH8 0xFFFFFFFFFFFFFFFF DUP2 GT ISZERO PUSH2 0x1FFB JUMPI PUSH2 0x1FFA PUSH2 0x3652 JUMP JUMPDEST JUMPDEST PUSH1 0x40 MLOAD SWAP1 DUP1 DUP3 MSTORE DUP1 PUSH1 0x20 MUL PUSH1 0x20 ADD DUP3 ADD PUSH1 0x40 MSTORE DUP1 ISZERO PUSH2 0x2034 JUMPI DUP2 PUSH1 0x20 ADD JUMPDEST PUSH2 0x2021 PUSH2 0x330B JUMP JUMPDEST DUP2 MSTORE PUSH1 0x20 ADD SWAP1 PUSH1 0x1 SWAP1 SUB SWAP1 DUP2 PUSH2 0x2019 JUMPI SWAP1 POP JUMPDEST POP SWAP1 POP PUSH0 PUSH0 SWAP1 POP JUMPDEST DUP3 DUP2 LT ISZERO PUSH2 0x228E JUMPI DUP6 PUSH1 0xA ADD PUSH0 PUSH2 0x206A DUP4 DUP8 PUSH2 0x2058 SWAP2 SWAP1 PUSH2 0x441A JUMP JUMPDEST DUP10 PUSH1 0x8 ADD PUSH2 0x2880 SWAP1 SWAP2 SWAP1 PUSH4 0xFFFFFFFF AND JUMP JUMPDEST DUP2 MSTORE PUSH1 0x20 ADD SWAP1 DUP2 MSTORE PUSH1 0x20 ADD PUSH0 KECCAK256 PUSH1 0x40 MLOAD DUP1 PUSH2 0x120 ADD PUSH1 0x40 MSTORE SWAP1 DUP2 PUSH0 DUP3 ADD PUSH1 0x40 MLOAD DUP1 PUSH1 0x60 ADD PUSH1 0x40 MSTORE SWAP1 DUP2 PUSH0 DUP3 ADD SLOAD DUP2 MSTORE PUSH1 0x20 ADD PUSH1 0x1 DUP3 ADD DUP1 SLOAD PUSH2 0x20AB SWAP1 PUSH2 0x44A7 JUMP JUMPDEST DUP1 PUSH1 0x1F ADD PUSH1 0x20 DUP1 SWAP2 DIV MUL PUSH1 0x20 ADD PUSH1 0x40 MLOAD SWAP1 DUP2 ADD PUSH1 0x40 MSTORE DUP1 SWAP3 SWAP2 SWAP1 DUP2 DUP2 MSTORE PUSH1 0x20 ADD DUP3 DUP1 SLOAD PUSH2 0x20D7 SWAP1 PUSH2 0x44A7 JUMP JUMPDEST DUP1 ISZERO PUSH2 0x2122 JUMPI DUP1 PUSH1 0x1F LT PUSH2 0x20F9 JUMPI PUSH2 0x100 DUP1 DUP4 SLOAD DIV MUL DUP4 MSTORE SWAP2 PUSH1 0x20 ADD SWAP2 PUSH2 0x2122 JUMP JUMPDEST DUP3 ADD SWAP2 SWAP1 PUSH0 MSTORE PUSH1 0x20 PUSH0 KECCAK256 SWAP1 JUMPDEST DUP2 SLOAD DUP2 MSTORE SWAP1 PUSH1 0x1 ADD SWAP1 PUSH1 0x20 ADD DUP1 DUP4 GT PUSH2 0x2105 JUMPI DUP3 SWAP1 SUB PUSH1 0x1F AND DUP3 ADD SWAP2 JUMPDEST POP POP POP POP POP DUP2 MSTORE PUSH1 0x20 ADD PUSH1 0x2 DUP3 ADD DUP1 SLOAD PUSH2 0x213B SWAP1 PUSH2 0x44A7 JUMP JUMPDEST DUP1 PUSH1 0x1F ADD PUSH1 0x20 DUP1 SWAP2 DIV MUL PUSH1 0x20 ADD PUSH1 0x40 MLOAD SWAP1 DUP2 ADD PUSH1 0x40 MSTORE DUP1 SWAP3 SWAP2 SWAP1 DUP2 DUP2 MSTORE PUSH1 0x20 ADD DUP3 DUP1 SLOAD PUSH2 0x2167 SWAP1 PUSH2 0x44A7 JUMP JUMPDEST DUP1 ISZERO PUSH2 0x21B2 JUMPI DUP1 PUSH1 0x1F LT PUSH2 0x2189 JUMPI PUSH2 0x100 DUP1 DUP4 SLOAD DIV MUL DUP4 MSTORE SWAP2 PUSH1 0x20 ADD SWAP2 PUSH2 0x21B2 JUMP JUMPDEST DUP3 ADD SWAP2 SWAP1 PUSH0 MSTORE PUSH1 0x20 PUSH0 KECCAK256 SWAP1 JUMPDEST DUP2 SLOAD DUP2 MSTORE SWAP1 PUSH1 0x1 ADD SWAP1 PUSH1 0x20 ADD DUP1 DUP4 GT PUSH2 0x2195 JUMPI DUP3 SWAP1 SUB PUSH1 0x1F AND DUP3 ADD SWAP2 JUMPDEST POP POP POP POP POP DUP2 MSTORE POP POP DUP2 MSTORE PUSH1 0x20 ADD PUSH1 0x3 DUP3 ADD SLOAD DUP2 MSTORE PUSH1 0x20 ADD PUSH1 0x4 DUP3 ADD SLOAD DUP2 MSTORE PUSH1 0x20 ADD PUSH1 0x5 DUP3 ADD SLOAD DUP2 MSTORE PUSH1 0x20 ADD PUSH1 0x6 DUP3 ADD PUSH0 SWAP1 SLOAD SWAP1 PUSH2 0x100 EXP SWAP1 DIV PUSH1 0xFF AND ISZERO ISZERO ISZERO ISZERO DUP2 MSTORE PUSH1 0x20 ADD PUSH1 0x6 DUP3 ADD PUSH1 0x1 SWAP1 SLOAD SWAP1 PUSH2 0x100 EXP SWAP1 DIV PUSH1 0xFF AND ISZERO ISZERO ISZERO ISZERO DUP2 MSTORE PUSH1 0x20 ADD PUSH1 0x6 DUP3 ADD PUSH1 0x2 SWAP1 SLOAD SWAP1 PUSH2 0x100 EXP SWAP1 DIV PUSH1 0xFF AND ISZERO ISZERO ISZERO ISZERO DUP2 MSTORE PUSH1 0x20 ADD PUSH1 0x6 DUP3 ADD PUSH1 0x3 SWAP1 SLOAD SWAP1 PUSH2 0x100 EXP SWAP1 DIV PUSH1 0xFF AND ISZERO ISZERO ISZERO ISZERO DUP2 MSTORE PUSH1 0x20 ADD PUSH1 0x6 DUP3 ADD PUSH1 0x4 SWAP1 SLOAD SWAP1 PUSH2 0x100 EXP SWAP1 DIV PUSH1 0xFF AND ISZERO ISZERO ISZERO ISZERO DUP2 MSTORE POP POP DUP3 DUP3 DUP2 MLOAD DUP2 LT PUSH2 0x2276 JUMPI PUSH2 0x2275 PUSH2 0x444D JUMP JUMPDEST JUMPDEST PUSH1 0x20 MUL PUSH1 0x20 ADD ADD DUP2 SWAP1 MSTORE POP DUP1 DUP1 PUSH1 0x1 ADD SWAP2 POP POP PUSH2 0x203C JUMP JUMPDEST POP DUP1 SWAP6 POP POP POP POP POP POP SWAP4 SWAP3 POP POP POP JUMP JUMPDEST PUSH2 0x22A7 CALLER PUSH2 0x292B JUMP JUMPDEST DUP1 PUSH2 0x22B0 PUSH2 0x27D7 JUMP JUMPDEST PUSH1 0x4 ADD PUSH0 DUP5 DUP2 MSTORE PUSH1 0x20 ADD SWAP1 DUP2 MSTORE PUSH1 0x20 ADD PUSH0 KECCAK256 DUP2 SWAP1 SSTORE POP POP POP JUMP JUMPDEST PUSH0 PUSH2 0x22D3 PUSH2 0x27D7 JUMP JUMPDEST PUSH1 0x8 ADD PUSH0 SWAP1 SLOAD SWAP1 PUSH2 0x100 EXP SWAP1 DIV PUSH20 0xFFFFFFFFFFFFFFFFFFFFFFFFFFFFFFFFFFFFFFFF AND SWAP1 POP SWAP1 JUMP JUMPDEST PUSH0 PUSH2 0x2304 PUSH2 0x27D7 JUMP JUMPDEST PUSH1 0x3 ADD PUSH0 DUP4 DUP2 MSTORE PUSH1 0x20 ADD SWAP1 DUP2 MSTORE PUSH1 0x20 ADD PUSH0 KECCAK256 PUSH0 SWAP1 SLOAD SWAP1 PUSH2 0x100 EXP SWAP1 DIV PUSH20 0xFFFFFFFFFFFFFFFFFFFFFFFFFFFFFFFFFFFFFFFF AND SWAP1 POP SWAP2 SWAP1 POP JUMP JUMPDEST PUSH0 PUSH2 0x2346 PUSH2 0x27D7 JUMP JUMPDEST PUSH1 0xA ADD SLOAD SWAP1 POP SWAP1 JUMP JUMPDEST PUSH2 0x2358 CALLER PUSH2 0x292B JUMP JUMPDEST DUP1 PUSH2 0x2361 PUSH2 0x27D7 JUMP JUMPDEST PUSH1 0x8 ADD PUSH0 PUSH2 0x100 EXP DUP2 SLOAD DUP2 PUSH20 0xFFFFFFFFFFFFFFFFFFFFFFFFFFFFFFFFFFFFFFFF MUL NOT AND SWAP1 DUP4 PUSH20 0xFFFFFFFFFFFFFFFFFFFFFFFFFFFFFFFFFFFFFFFF AND MUL OR SWAP1 SSTORE POP POP JUMP JUMPDEST PUSH1 0x60 PUSH0 PUSH2 0x23B0 DUP6 PUSH2 0x2750 JUMP JUMPDEST SWAP1 POP PUSH0 PUSH2 0x23BF DUP3 PUSH1 0xB ADD PUSH2 0x2803 JUMP JUMPDEST SWAP1 POP PUSH0 PUSH0 PUSH2 0x23CE DUP4 DUP9 DUP9 PUSH2 0x2816 JUMP JUMPDEST SWAP2 POP SWAP2 POP PUSH0 DUP2 PUSH8 0xFFFFFFFFFFFFFFFF DUP2 GT ISZERO PUSH2 0x23ED JUMPI PUSH2 0x23EC PUSH2 0x3652 JUMP JUMPDEST JUMPDEST PUSH1 0x40 MLOAD SWAP1 DUP1 DUP3 MSTORE DUP1 PUSH1 0x20 MUL PUSH1 0x20 ADD DUP3 ADD PUSH1 0x40 MSTORE DUP1 ISZERO PUSH2 0x2426 JUMPI DUP2 PUSH1 0x20 ADD JUMPDEST PUSH2 0x2413 PUSH2 0x32AE JUMP JUMPDEST DUP2 MSTORE PUSH1 0x20 ADD SWAP1 PUSH1 0x1 SWAP1 SUB SWAP1 DUP2 PUSH2 0x240B JUMPI SWAP1 POP JUMPDEST POP SWAP1 POP PUSH0 PUSH0 SWAP1 POP JUMPDEST DUP3 DUP2 LT ISZERO PUSH2 0x25CA JUMPI DUP6 PUSH1 0xD ADD PUSH0 PUSH2 0x245C DUP4 DUP8 PUSH2 0x244A SWAP2 SWAP1 PUSH2 0x441A JUMP JUMPDEST DUP10 PUSH1 0xB ADD PUSH2 0x2880 SWAP1 SWAP2 SWAP1 PUSH4 0xFFFFFFFF AND JUMP JUMPDEST DUP2 MSTORE PUSH1 0x20 ADD SWAP1 DUP2 MSTORE PUSH1 0x20 ADD PUSH0 KECCAK256 PUSH0 ADD PUSH1 0x40 MLOAD DUP1 PUSH1 0x60 ADD PUSH1 0x40 MSTORE SWAP1 DUP2 PUSH0 DUP3 ADD SLOAD DUP2 MSTORE PUSH1 0x20 ADD PUSH1 0x1 DUP3 ADD DUP1 SLOAD PUSH2 0x248F SWAP1 PUSH2 0x44A7 JUMP JUMPDEST DUP1 PUSH1 0x1F ADD PUSH1 0x20 DUP1 SWAP2 DIV MUL PUSH1 0x20 ADD PUSH1 0x40 MLOAD SWAP1 DUP2 ADD PUSH1 0x40 MSTORE DUP1 SWAP3 SWAP2 SWAP1 DUP2 DUP2 MSTORE PUSH1 0x20 ADD DUP3 DUP1 SLOAD PUSH2 0x24BB SWAP1 PUSH2 0x44A7 JUMP JUMPDEST DUP1 ISZERO PUSH2 0x2506 JUMPI DUP1 PUSH1 0x1F LT PUSH2 0x24DD JUMPI PUSH2 0x100 DUP1 DUP4 SLOAD DIV MUL DUP4 MSTORE SWAP2 PUSH1 0x20 ADD SWAP2 PUSH2 0x2506 JUMP JUMPDEST DUP3 ADD SWAP2 SWAP1 PUSH0 MSTORE PUSH1 0x20 PUSH0 KECCAK256 SWAP1 JUMPDEST DUP2 SLOAD DUP2 MSTORE SWAP1 PUSH1 0x1 ADD SWAP1 PUSH1 0x20 ADD DUP1 DUP4 GT PUSH2 0x24E9 JUMPI DUP3 SWAP1 SUB PUSH1 0x1F AND DUP3 ADD SWAP2 JUMPDEST POP POP POP POP POP DUP2 MSTORE PUSH1 0x20 ADD PUSH1 0x2 DUP3 ADD DUP1 SLOAD PUSH2 0x251F SWAP1 PUSH2 0x44A7 JUMP JUMPDEST DUP1 PUSH1 0x1F ADD PUSH1 0x20 DUP1 SWAP2 DIV MUL PUSH1 0x20 ADD PUSH1 0x40 MLOAD SWAP1 DUP2 ADD PUSH1 0x40 MSTORE DUP1 SWAP3 SWAP2 SWAP1 DUP2 DUP2 MSTORE PUSH1 0x20 ADD DUP3 DUP1 SLOAD PUSH2 0x254B SWAP1 PUSH2 0x44A7 JUMP JUMPDEST DUP1 ISZERO PUSH2 0x2596 JUMPI DUP1 PUSH1 0x1F LT PUSH2 0x256D JUMPI PUSH2 0x100 DUP1 DUP4 SLOAD DIV MUL DUP4 MSTORE SWAP2 PUSH1 0x20 ADD SWAP2 PUSH2 0x2596 JUMP JUMPDEST DUP3 ADD SWAP2 SWAP1 PUSH0 MSTORE PUSH1 0x20 PUSH0 KECCAK256 SWAP1 JUMPDEST DUP2 SLOAD DUP2 MSTORE SWAP1 PUSH1 0x1 ADD SWAP1 PUSH1 0x20 ADD DUP1 DUP4 GT PUSH2 0x2579 JUMPI DUP3 SWAP1 SUB PUSH1 0x1F AND DUP3 ADD SWAP2 JUMPDEST POP POP POP POP POP DUP2 MSTORE POP POP DUP3 DUP3 DUP2 MLOAD DUP2 LT PUSH2 0x25B2 JUMPI PUSH2 0x25B1 PUSH2 0x444D JUMP JUMPDEST JUMPDEST PUSH1 0x20 MUL PUSH1 0x20 ADD ADD DUP2 SWAP1 MSTORE POP DUP1 DUP1 PUSH1 0x1 ADD SWAP2 POP POP PUSH2 0x242E JUMP JUMPDEST POP DUP1 SWAP6 POP POP POP POP POP POP SWAP4 SWAP3 POP POP POP JUMP JUMPDEST PUSH2 0x25E3 DUP7 PUSH2 0x293F JUMP JUMPDEST PUSH0 PUSH2 0x25EC PUSH2 0x27D7 JUMP JUMPDEST SWAP1 POP PUSH0 DUP2 PUSH1 0x2 ADD PUSH0 DUP10 DUP2 MSTORE PUSH1 0x20 ADD SWAP1 DUP2 MSTORE PUSH1 0x20 ADD PUSH0 KECCAK256 SLOAD SWAP1 POP PUSH0 DUP3 PUSH0 ADD PUSH0 DUP4 DUP2 MSTORE PUSH1 0x20 ADD SWAP1 DUP2 MSTORE PUSH1 0x20 ADD PUSH0 KECCAK256 PUSH1 0xA ADD PUSH0 DUP10 DUP2 MSTORE PUSH1 0x20 ADD SWAP1 DUP2 MSTORE PUSH1 0x20 ADD PUSH0 KECCAK256 SWAP1 POP DUP8 DUP2 PUSH1 0x3 ADD DUP2 SWAP1 SSTORE POP DUP7 DUP2 PUSH1 0x4 ADD DUP2 SWAP1 SSTORE POP DUP6 DUP2 PUSH1 0x5 ADD DUP2 SWAP1 SSTORE POP PUSH1 0x1 DUP2 PUSH1 0x6 ADD PUSH0 PUSH2 0x100 EXP DUP2 SLOAD DUP2 PUSH1 0xFF MUL NOT AND SWAP1 DUP4 ISZERO ISZERO MUL OR SWAP1 SSTORE POP PUSH0 DUP2 PUSH1 0x6 ADD PUSH1 0x1 PUSH2 0x100 EXP DUP2 SLOAD DUP2 PUSH1 0xFF MUL NOT AND SWAP1 DUP4 ISZERO ISZERO MUL OR SWAP1 SSTORE POP PUSH0 DUP2 PUSH1 0x6 ADD PUSH1 0x2 PUSH2 0x100 EXP DUP2 SLOAD DUP2 PUSH1 0xFF MUL NOT AND SWAP1 DUP4 ISZERO ISZERO MUL OR SWAP1 SSTORE POP PUSH0 DUP2 PUSH1 0x6 ADD PUSH1 0x3 PUSH2 0x100 EXP DUP2 SLOAD DUP2 PUSH1 0xFF MUL NOT AND SWAP1 DUP4 ISZERO ISZERO MUL OR SWAP1 SSTORE POP PUSH0 DUP2 PUSH1 0x6 ADD PUSH1 0x4 PUSH2 0x100 EXP DUP2 SLOAD DUP2 PUSH1 0xFF MUL NOT AND SWAP1 DUP4 ISZERO ISZERO MUL OR SWAP1 SSTORE POP DUP8 DUP2 PUSH0 ADD PUSH0 ADD DUP2 SWAP1 SSTORE POP DUP5 DUP2 PUSH0 ADD PUSH1 0x1 ADD SWAP1 DUP2 PUSH2 0x26F0 SWAP2 SWAP1 PUSH2 0x4677 JUMP JUMPDEST POP DUP4 DUP2 PUSH0 ADD PUSH1 0x2 ADD SWAP1 DUP2 PUSH2 0x2704 SWAP2 SWAP1 PUSH2 0x4677 JUMP JUMPDEST POP PUSH2 0x272C DUP9 DUP5 PUSH0 ADD PUSH0 DUP6 DUP2 MSTORE PUSH1 0x20 ADD SWAP1 DUP2 MSTORE PUSH1 0x20 ADD PUSH0 KECCAK256 PUSH1 0x8 ADD PUSH2 0x2914 SWAP1 SWAP2 SWAP1 PUSH4 0xFFFFFFFF AND JUMP JUMPDEST POP DUP2 DUP4 PUSH1 0x2 ADD PUSH0 DUP11 DUP2 MSTORE PUSH1 0x20 ADD SWAP1 DUP2 MSTORE PUSH1 0x20 ADD PUSH0 KECCAK256 DUP2 SWAP1 SSTORE POP POP POP POP POP POP POP POP POP POP JUMP JUMPDEST PUSH0 PUSH0 PUSH2 0x275A PUSH2 0x27D7 JUMP JUMPDEST SWAP1 POP PUSH0 DUP2 PUSH1 0x2 ADD PUSH0 DUP6 DUP2 MSTORE PUSH1 0x20 ADD SWAP1 DUP2 MSTORE PUSH1 0x20 ADD PUSH0 KECCAK256 SLOAD SWAP1 POP PUSH0 DUP2 SUB PUSH2 0x27B7 JUMPI DUP4 PUSH1 0x40 MLOAD PUSH32 0xD4A8473700000000000000000000000000000000000000000000000000000000 DUP2 MSTORE PUSH1 0x4 ADD PUSH2 0x27AE SWAP2 SWAP1 PUSH2 0x3631 JUMP JUMPDEST PUSH1 0x40 MLOAD DUP1 SWAP2 SUB SWAP1 REVERT JUMPDEST PUSH0 DUP3 PUSH0 ADD PUSH0 DUP4 DUP2 MSTORE PUSH1 0x20 ADD SWAP1 DUP2 MSTORE PUSH1 0x20 ADD PUSH0 KECCAK256 SWAP1 POP DUP1 SWAP4 POP POP POP POP SWAP2 SWAP1 POP JUMP JUMPDEST PUSH0 PUSH0 PUSH32 0x171DEF12E82C8F3351E4C79B7854BE19AD60A75B888F74B9660C07CD74619633 SWAP1 POP DUP1 SWAP2 POP POP SWAP1 JUMP JUMPDEST PUSH0 PUSH2 0x280F DUP3 PUSH0 ADD PUSH2 0x2E09 JUMP JUMPDEST SWAP1 POP SWAP2 SWAP1 POP JUMP JUMPDEST PUSH0 PUSH0 DUP5 DUP4 GT ISZERO PUSH2 0x2827 JUMPI DUP5 SWAP3 POP PUSH0 SWAP4 POP JUMPDEST PUSH0 DUP4 DUP6 PUSH2 0x2834 SWAP2 SWAP1 PUSH2 0x480E JUMP JUMPDEST SWAP1 POP DUP6 DUP2 LT PUSH2 0x2849 JUMPI PUSH0 PUSH0 SWAP3 POP SWAP3 POP POP PUSH2 0x2878 JUMP JUMPDEST PUSH0 DUP5 DUP3 PUSH2 0x2856 SWAP2 SWAP1 PUSH2 0x441A JUMP JUMPDEST SWAP1 POP DUP7 DUP2 GT ISZERO PUSH2 0x2864 JUMPI DUP7 SWAP1 POP JUMPDEST DUP2 DUP3 DUP3 PUSH2 0x2871 SWAP2 SWAP1 PUSH2 0x47B4 JUMP JUMPDEST SWAP4 POP SWAP4 POP POP POP JUMPDEST SWAP4 POP SWAP4 SWAP2 POP POP JUMP JUMPDEST PUSH0 PUSH2 0x288D DUP4 PUSH0 ADD DUP4 PUSH2 0x2E18 JUMP JUMPDEST PUSH0 SHR SWAP1 POP SWAP3 SWAP2 POP POP JUMP JUMPDEST PUSH2 0x28A0 DUP3 PUSH2 0x293F JUMP JUMPDEST PUSH2 0x28AA DUP3 DUP3 PUSH2 0x2E3F JUMP JUMPDEST POP POP JUMP JUMPDEST PUSH0 PUSH2 0x28B7 PUSH2 0x27D7 JUMP JUMPDEST SWAP1 POP DUP2 DUP2 PUSH1 0x2 ADD PUSH0 DUP5 DUP2 MSTORE PUSH1 0x20 ADD SWAP1 DUP2 MSTORE PUSH1 0x20 ADD PUSH0 KECCAK256 SLOAD EQ PUSH2 0x2910 JUMPI DUP2 PUSH1 0x40 MLOAD PUSH32 0x1D0932EE00000000000000000000000000000000000000000000000000000000 DUP2 MSTORE PUSH1 0x4 ADD PUSH2 0x2907 SWAP2 SWAP1 PUSH2 0x3631 JUMP JUMPDEST PUSH1 0x40 MLOAD DUP1 SWAP2 SUB SWAP1 REVERT JUMPDEST POP POP JUMP JUMPDEST PUSH0 PUSH2 0x2923 DUP4 PUSH0 ADD DUP4 PUSH0 SHL PUSH2 0x2E90 JUMP JUMPDEST SWAP1 POP SWAP3 SWAP2 POP POP JUMP JUMPDEST PUSH2 0x293C PUSH2 0x2936 PUSH2 0x27D7 JUMP JUMPDEST DUP3 PUSH2 0x2EF7 JUMP JUMPDEST POP JUMP JUMPDEST PUSH2 0x2949 DUP2 CALLER PUSH2 0x2FAF JUMP JUMPDEST POP JUMP JUMPDEST PUSH0 PUSH2 0x2955 PUSH2 0x27D7 JUMP JUMPDEST SWAP1 POP PUSH2 0x296D DUP3 DUP3 PUSH1 0x5 ADD PUSH2 0x3000 SWAP1 SWAP2 SWAP1 PUSH4 0xFFFFFFFF AND JUMP JUMPDEST ISZERO DUP1 ISZERO PUSH2 0x29C9 JUMPI POP DUP1 PUSH1 0x7 ADD PUSH0 SWAP1 SLOAD SWAP1 PUSH2 0x100 EXP SWAP1 DIV PUSH20 0xFFFFFFFFFFFFFFFFFFFFFFFFFFFFFFFFFFFFFFFF AND PUSH20 0xFFFFFFFFFFFFFFFFFFFFFFFFFFFFFFFFFFFFFFFF AND DUP3 PUSH20 0xFFFFFFFFFFFFFFFFFFFFFFFFFFFFFFFFFFFFFFFF AND EQ ISZERO JUMPDEST DUP1 ISZERO PUSH2 0x2A24 JUMPI POP DUP1 PUSH1 0xB ADD PUSH0 SWAP1 SLOAD SWAP1 PUSH2 0x100 EXP SWAP1 DIV PUSH20 0xFFFFFFFFFFFFFFFFFFFFFFFFFFFFFFFFFFFFFFFF AND PUSH20 0xFFFFFFFFFFFFFFFFFFFFFFFFFFFFFFFFFFFFFFFF AND DUP3 PUSH20 0xFFFFFFFFFFFFFFFFFFFFFFFFFFFFFFFFFFFFFFFF AND EQ ISZERO JUMPDEST ISZERO PUSH2 0x2A66 JUMPI DUP2 PUSH1 0x40 MLOAD PUSH32 0x2D87FAED00000000000000000000000000000000000000000000000000000000 DUP2 MSTORE PUSH1 0x4 ADD PUSH2 0x2A5D SWAP2 SWAP1 PUSH2 0x3834 JUMP JUMPDEST PUSH1 0x40 MLOAD DUP1 SWAP2 SUB SWAP1 REVERT JUMPDEST POP POP JUMP JUMPDEST PUSH2 0x2A74 DUP4 DUP4 PUSH2 0x2897 JUMP JUMPDEST PUSH0 PUSH2 0x2A7D PUSH2 0x27D7 JUMP JUMPDEST SWAP1 POP PUSH2 0x2AB8 DUP3 DUP3 PUSH0 ADD PUSH0 DUP8 DUP2 MSTORE PUSH1 0x20 ADD SWAP1 DUP2 MSTORE PUSH1 0x20 ADD PUSH0 KECCAK256 PUSH1 0xD ADD PUSH0 DUP7 DUP2 MSTORE PUSH1 0x20 ADD SWAP1 DUP2 MSTORE PUSH1 0x20 ADD PUSH0 KECCAK256 PUSH1 0x3 ADD PUSH2 0x302D SWAP1 SWAP2 SWAP1 PUSH4 0xFFFFFFFF AND JUMP JUMPDEST PUSH2 0x2AFD JUMPI DUP4 DUP4 DUP4 PUSH1 0x40 MLOAD PUSH32 0xEF25D02D00000000000000000000000000000000000000000000000000000000 DUP2 MSTORE PUSH1 0x4 ADD PUSH2 0x2AF4 SWAP4 SWAP3 SWAP2 SWAP1 PUSH2 0x484F JUMP JUMPDEST PUSH1 0x40 MLOAD DUP1 SWAP2 SUB SWAP1 REVERT JUMPDEST POP POP POP POP JUMP JUMPDEST PUSH0 PUSH2 0x2B12 DUP4 PUSH0 ADD DUP4 PUSH0 SHL PUSH2 0x3044 JUMP JUMPDEST SWAP1 POP SWAP3 SWAP2 POP POP JUMP JUMPDEST PUSH0 PUSH2 0x2B23 PUSH2 0x27D7 JUMP JUMPDEST SWAP1 POP DUP2 DUP2 PUSH0 ADD PUSH0 DUP6 DUP2 MSTORE PUSH1 0x20 ADD SWAP1 DUP2 MSTORE PUSH1 0x20 ADD PUSH0 KECCAK256 PUSH1 0xA ADD PUSH0 DUP5 DUP2 MSTORE PUSH1 0x20 ADD SWAP1 DUP2 MSTORE PUSH1 0x20 ADD PUSH0 KECCAK256 PUSH1 0x3 ADD SLOAD EQ PUSH2 0x2B92 JUMPI DUP3 DUP3 PUSH1 0x40 MLOAD PUSH32 0x748E712A00000000000000000000000000000000000000000000000000000000 DUP2 MSTORE PUSH1 0x4 ADD PUSH2 0x2B89 SWAP3 SWAP2 SWAP1 PUSH2 0x478D JUMP JUMPDEST PUSH1 0x40 MLOAD DUP1 SWAP2 SUB SWAP1 REVERT JUMPDEST POP POP POP JUMP JUMPDEST PUSH2 0x2BA1 DUP4 DUP4 PUSH2 0x2897 JUMP JUMPDEST PUSH0 PUSH2 0x2BAA PUSH2 0x27D7 JUMP JUMPDEST SWAP1 POP PUSH2 0x2BE5 DUP3 DUP3 PUSH0 ADD PUSH0 DUP8 DUP2 MSTORE PUSH1 0x20 ADD SWAP1 DUP2 MSTORE PUSH1 0x20 ADD PUSH0 KECCAK256 PUSH1 0xD ADD PUSH0 DUP7 DUP2 MSTORE PUSH1 0x20 ADD SWAP1 DUP2 MSTORE PUSH1 0x20 ADD PUSH0 KECCAK256 PUSH1 0x5 ADD PUSH2 0x302D SWAP1 SWAP2 SWAP1 PUSH4 0xFFFFFFFF AND JUMP JUMPDEST PUSH2 0x2C2A JUMPI DUP4 DUP4 DUP4 PUSH1 0x40 MLOAD PUSH32 0x7916785800000000000000000000000000000000000000000000000000000000 DUP2 MSTORE PUSH1 0x4 ADD PUSH2 0x2C21 SWAP4 SWAP3 SWAP2 SWAP1 PUSH2 0x484F JUMP JUMPDEST PUSH1 0x40 MLOAD DUP1 SWAP2 SUB SWAP1 REVERT JUMPDEST POP POP POP POP JUMP JUMPDEST PUSH0 PUSH0 PUSH2 0x2C3A PUSH2 0x27D7 JUMP JUMPDEST SWAP1 POP PUSH0 DUP2 PUSH1 0x2 ADD PUSH0 DUP7 DUP2 MSTORE PUSH1 0x20 ADD SWAP1 DUP2 MSTORE PUSH1 0x20 ADD PUSH0 KECCAK256 SLOAD SWAP1 POP PUSH0 DUP2 SUB PUSH2 0x2C64 JUMPI PUSH0 SWAP3 POP POP POP PUSH2 0x2D30 JUMP JUMPDEST PUSH0 DUP3 PUSH0 ADD PUSH0 DUP4 DUP2 MSTORE PUSH1 0x20 ADD SWAP1 DUP2 MSTORE PUSH1 0x20 ADD PUSH0 KECCAK256 SWAP1 POP DUP2 DUP2 PUSH0 ADD PUSH1 0x3 ADD SLOAD EQ PUSH2 0x2C91 JUMPI PUSH0 SWAP4 POP POP POP POP PUSH2 0x2D30 JUMP JUMPDEST PUSH2 0x2CA7 DUP6 DUP5 PUSH1 0x5 ADD PUSH2 0x3000 SWAP1 SWAP2 SWAP1 PUSH4 0xFFFFFFFF AND JUMP JUMPDEST DUP1 ISZERO PUSH2 0x2CC7 JUMPI POP PUSH1 0x1 ISZERO ISZERO DUP2 PUSH1 0x13 ADD PUSH0 SWAP1 SLOAD SWAP1 PUSH2 0x100 EXP SWAP1 DIV PUSH1 0xFF AND ISZERO ISZERO EQ JUMPDEST ISZERO PUSH2 0x2CD8 JUMPI PUSH1 0x1 SWAP4 POP POP POP POP PUSH2 0x2D30 JUMP JUMPDEST DUP5 PUSH20 0xFFFFFFFFFFFFFFFFFFFFFFFFFFFFFFFFFFFFFFFF AND DUP2 PUSH1 0x7 ADD PUSH0 SWAP1 SLOAD SWAP1 PUSH2 0x100 EXP SWAP1 DIV PUSH20 0xFFFFFFFFFFFFFFFFFFFFFFFFFFFFFFFFFFFFFFFF AND PUSH20 0xFFFFFFFFFFFFFFFFFFFFFFFFFFFFFFFFFFFFFFFF AND EQ SWAP4 POP POP POP POP JUMPDEST SWAP3 SWAP2 POP POP JUMP JUMPDEST PUSH0 PUSH2 0x2D3F PUSH2 0x27D7 JUMP JUMPDEST SWAP1 POP PUSH2 0x2D57 DUP3 DUP3 PUSH1 0x5 ADD PUSH2 0x3000 SWAP1 SWAP2 SWAP1 PUSH4 0xFFFFFFFF AND JUMP JUMPDEST PUSH2 0x2D98 JUMPI DUP2 PUSH1 0x40 MLOAD PUSH32 0x92F13C4E00000000000000000000000000000000000000000000000000000000 DUP2 MSTORE PUSH1 0x4 ADD PUSH2 0x2D8F SWAP2 SWAP1 PUSH2 0x3834 JUMP JUMPDEST PUSH1 0x40 MLOAD DUP1 SWAP2 SUB SWAP1 REVERT JUMPDEST POP POP JUMP JUMPDEST PUSH1 0x60 PUSH0 PUSH2 0x2DAA DUP4 PUSH0 ADD PUSH2 0x3140 JUMP JUMPDEST SWAP1 POP PUSH1 0x60 DUP2 SWAP1 POP DUP1 SWAP3 POP POP POP SWAP2 SWAP1 POP JUMP JUMPDEST PUSH2 0x2DC6 DUP2 PUSH0 ADD PUSH2 0x3199 JUMP JUMPDEST POP JUMP JUMPDEST PUSH0 PUSH2 0x2DEE DUP4 PUSH0 ADD DUP4 PUSH20 0xFFFFFFFFFFFFFFFFFFFFFFFFFFFFFFFFFFFFFFFF AND PUSH0 SHL PUSH2 0x2E90 JUMP JUMPDEST SWAP1 POP SWAP3 SWAP2 POP POP JUMP JUMPDEST PUSH0 PUSH2 0x2E02 DUP3 PUSH0 ADD PUSH2 0x2E09 JUMP JUMPDEST SWAP1 POP SWAP2 SWAP1 POP JUMP JUMPDEST PUSH0 DUP2 PUSH0 ADD DUP1 SLOAD SWAP1 POP SWAP1 POP SWAP2 SWAP1 POP JUMP JUMPDEST PUSH0 DUP3 PUSH0 ADD DUP3 DUP2 SLOAD DUP2 LT PUSH2 0x2E2E JUMPI PUSH2 0x2E2D PUSH2 0x444D JUMP JUMPDEST JUMPDEST SWAP1 PUSH0 MSTORE PUSH1 0x20 PUSH0 KECCAK256 ADD SLOAD SWAP1 POP SWAP3 SWAP2 POP POP JUMP JUMPDEST PUSH2 0x2E49 DUP3 DUP3 PUSH2 0x3201 JUMP JUMPDEST PUSH2 0x2E8C JUMPI DUP2 DUP2 PUSH1 0x40 MLOAD PUSH32 0x931A85B300000000000000000000000000000000000000000000000000000000 DUP2 MSTORE PUSH1 0x4 ADD PUSH2 0x2E83 SWAP3 SWAP2 SWAP1 PUSH2 0x478D JUMP JUMPDEST PUSH1 0x40 MLOAD DUP1 SWAP2 SUB SWAP1 REVERT JUMPDEST POP POP JUMP JUMPDEST PUSH0 PUSH2 0x2E9B DUP4 DUP4 PUSH2 0x324B JUMP JUMPDEST PUSH2 0x2EED JUMPI DUP3 PUSH0 ADD DUP3 SWAP1 DUP1 PUSH1 0x1 DUP2 SLOAD ADD DUP1 DUP3 SSTORE DUP1 SWAP2 POP POP PUSH1 0x1 SWAP1 SUB SWAP1 PUSH0 MSTORE PUSH1 0x20 PUSH0 KECCAK256 ADD PUSH0 SWAP1 SWAP2 SWAP1 SWAP2 SWAP1 SWAP2 POP SSTORE DUP3 PUSH0 ADD DUP1 SLOAD SWAP1 POP DUP4 PUSH1 0x1 ADD PUSH0 DUP5 DUP2 MSTORE PUSH1 0x20 ADD SWAP1 DUP2 MSTORE PUSH1 0x20 ADD PUSH0 KECCAK256 DUP2 SWAP1 SSTORE POP PUSH1 0x1 SWAP1 POP PUSH2 0x2EF1 JUMP JUMPDEST PUSH0 SWAP1 POP JUMPDEST SWAP3 SWAP2 POP POP JUMP JUMPDEST PUSH2 0x2F0D DUP2 DUP4 PUSH1 0x5 ADD PUSH2 0x3000 SWAP1 SWAP2 SWAP1 PUSH4 0xFFFFFFFF AND JUMP JUMPDEST ISZERO DUP1 ISZERO PUSH2 0x2F69 JUMPI POP DUP2 PUSH1 0x8 ADD PUSH0 SWAP1 SLOAD SWAP1 PUSH2 0x100 EXP SWAP1 DIV PUSH20 0xFFFFFFFFFFFFFFFFFFFFFFFFFFFFFFFFFFFFFFFF AND PUSH20 0xFFFFFFFFFFFFFFFFFFFFFFFFFFFFFFFFFFFFFFFF AND DUP2 PUSH20 0xFFFFFFFFFFFFFFFFFFFFFFFFFFFFFFFFFFFFFFFF AND EQ ISZERO JUMPDEST ISZERO PUSH2 0x2FAB JUMPI DUP1 PUSH1 0x40 MLOAD PUSH32 0x9ED88E0700000000000000000000000000000000000000000000000000000000 DUP2 MSTORE PUSH1 0x4 ADD PUSH2 0x2FA2 SWAP2 SWAP1 PUSH2 0x3834 JUMP JUMPDEST PUSH1 0x40 MLOAD DUP1 SWAP2 SUB SWAP1 REVERT JUMPDEST POP POP JUMP JUMPDEST PUSH2 0x2FB9 DUP3 DUP3 PUSH2 0x2C30 JUMP JUMPDEST PUSH2 0x2FFC JUMPI DUP2 DUP2 PUSH1 0x40 MLOAD PUSH32 0x7B0F9C0700000000000000000000000000000000000000000000000000000000 DUP2 MSTORE PUSH1 0x4 ADD PUSH2 0x2FF3 SWAP3 SWAP2 SWAP1 PUSH2 0x4884 JUMP JUMPDEST PUSH1 0x40 MLOAD DUP1 SWAP2 SUB SWAP1 REVERT JUMPDEST POP POP JUMP JUMPDEST PUSH0 PUSH2 0x3025 DUP4 PUSH0 ADD DUP4 PUSH20 0xFFFFFFFFFFFFFFFFFFFFFFFFFFFFFFFFFFFFFFFF AND PUSH0 SHL PUSH2 0x324B JUMP JUMPDEST SWAP1 POP SWAP3 SWAP2 POP POP JUMP JUMPDEST PUSH0 PUSH2 0x303C DUP4 PUSH0 ADD DUP4 PUSH0 SHL PUSH2 0x324B JUMP JUMPDEST SWAP1 POP SWAP3 SWAP2 POP POP JUMP JUMPDEST PUSH0 PUSH0 DUP4 PUSH1 0x1 ADD PUSH0 DUP5 DUP2 MSTORE PUSH1 0x20 ADD SWAP1 DUP2 MSTORE PUSH1 0x20 ADD PUSH0 KECCAK256 SLOAD SWAP1 POP PUSH0 DUP2 EQ PUSH2 0x3135 JUMPI PUSH0 PUSH1 0x1 DUP3 PUSH2 0x3071 SWAP2 SWAP1 PUSH2 0x47B4 JUMP JUMPDEST SWAP1 POP PUSH0 PUSH1 0x1 DUP7 PUSH0 ADD DUP1 SLOAD SWAP1 POP PUSH2 0x3087 SWAP2 SWAP1 PUSH2 0x47B4 JUMP JUMPDEST SWAP1 POP DUP1 DUP3 EQ PUSH2 0x30ED JUMPI PUSH0 DUP7 PUSH0 ADD DUP3 DUP2 SLOAD DUP2 LT PUSH2 0x30A6 JUMPI PUSH2 0x30A5 PUSH2 0x444D JUMP JUMPDEST JUMPDEST SWAP1 PUSH0 MSTORE PUSH1 0x20 PUSH0 KECCAK256 ADD SLOAD SWAP1 POP DUP1 DUP8 PUSH0 ADD DUP5 DUP2 SLOAD DUP2 LT PUSH2 0x30C7 JUMPI PUSH2 0x30C6 PUSH2 0x444D JUMP JUMPDEST JUMPDEST SWAP1 PUSH0 MSTORE PUSH1 0x20 PUSH0 KECCAK256 ADD DUP2 SWAP1 SSTORE POP DUP4 DUP8 PUSH1 0x1 ADD PUSH0 DUP4 DUP2 MSTORE PUSH1 0x20 ADD SWAP1 DUP2 MSTORE PUSH1 0x20 ADD PUSH0 KECCAK256 DUP2 SWAP1 SSTORE POP POP JUMPDEST DUP6 PUSH0 ADD DUP1 SLOAD DUP1 PUSH2 0x3100 JUMPI PUSH2 0x30FF PUSH2 0x48AB JUMP JUMPDEST JUMPDEST PUSH1 0x1 SWAP1 SUB DUP2 DUP2 SWAP1 PUSH0 MSTORE PUSH1 0x20 PUSH0 KECCAK256 ADD PUSH0 SWAP1 SSTORE SWAP1 SSTORE DUP6 PUSH1 0x1 ADD PUSH0 DUP7 DUP2 MSTORE PUSH1 0x20 ADD SWAP1 DUP2 MSTORE PUSH1 0x20 ADD PUSH0 KECCAK256 PUSH0 SWAP1 SSTORE PUSH1 0x1 SWAP4 POP POP POP POP PUSH2 0x313A JUMP JUMPDEST PUSH0 SWAP2 POP POP JUMPDEST SWAP3 SWAP2 POP POP JUMP JUMPDEST PUSH1 0x60 DUP2 PUSH0 ADD DUP1 SLOAD DUP1 PUSH1 0x20 MUL PUSH1 0x20 ADD PUSH1 0x40 MLOAD SWAP1 DUP2 ADD PUSH1 0x40 MSTORE DUP1 SWAP3 SWAP2 SWAP1 DUP2 DUP2 MSTORE PUSH1 0x20 ADD DUP3 DUP1 SLOAD DUP1 ISZERO PUSH2 0x318D JUMPI PUSH1 0x20 MUL DUP3 ADD SWAP2 SWAP1 PUSH0 MSTORE PUSH1 0x20 PUSH0 KECCAK256 SWAP1 JUMPDEST DUP2 SLOAD DUP2 MSTORE PUSH1 0x20 ADD SWAP1 PUSH1 0x1 ADD SWAP1 DUP1 DUP4 GT PUSH2 0x3179 JUMPI JUMPDEST POP POP POP POP POP SWAP1 POP SWAP2 SWAP1 POP JUMP JUMPDEST PUSH0 PUSH2 0x31A3 DUP3 PUSH2 0x2E09 JUMP JUMPDEST SWAP1 POP PUSH0 PUSH0 SWAP1 POP JUMPDEST DUP2 DUP2 LT ISZERO PUSH2 0x31F0 JUMPI DUP3 PUSH1 0x1 ADD PUSH0 DUP5 PUSH0 ADD DUP4 DUP2 SLOAD DUP2 LT PUSH2 0x31CC JUMPI PUSH2 0x31CB PUSH2 0x444D JUMP JUMPDEST JUMPDEST SWAP1 PUSH0 MSTORE PUSH1 0x20 PUSH0 KECCAK256 ADD SLOAD DUP2 MSTORE PUSH1 0x20 ADD SWAP1 DUP2 MSTORE PUSH1 0x20 ADD PUSH0 KECCAK256 PUSH0 SWAP1 SSTORE DUP1 PUSH1 0x1 ADD SWAP1 POP PUSH2 0x31AA JUMP JUMPDEST POP PUSH2 0x31FD DUP3 PUSH0 ADD PUSH0 PUSH2 0x326B JUMP JUMPDEST POP POP JUMP JUMPDEST PUSH0 PUSH0 PUSH2 0x320B PUSH2 0x27D7 JUMP JUMPDEST SWAP1 POP PUSH0 DUP2 PUSH0 ADD PUSH0 DUP7 DUP2 MSTORE PUSH1 0x20 ADD SWAP1 DUP2 MSTORE PUSH1 0x20 ADD PUSH0 KECCAK256 SWAP1 POP PUSH0 DUP2 PUSH1 0xD ADD PUSH0 DUP7 DUP2 MSTORE PUSH1 0x20 ADD SWAP1 DUP2 MSTORE PUSH1 0x20 ADD PUSH0 KECCAK256 SWAP1 POP DUP5 DUP2 PUSH0 ADD PUSH0 ADD SLOAD EQ SWAP4 POP POP POP POP SWAP3 SWAP2 POP POP JUMP JUMPDEST PUSH0 PUSH0 DUP4 PUSH1 0x1 ADD PUSH0 DUP5 DUP2 MSTORE PUSH1 0x20 ADD SWAP1 DUP2 MSTORE PUSH1 0x20 ADD PUSH0 KECCAK256 SLOAD EQ ISZERO SWAP1 POP SWAP3 SWAP2 POP POP JUMP JUMPDEST DUP1 DUP3 SSTORE POP POP JUMP JUMPDEST PUSH1 0x40 MLOAD DUP1 PUSH1 0x80 ADD PUSH1 0x40 MSTORE DUP1 PUSH0 DUP2 MSTORE PUSH1 0x20 ADD PUSH1 0x60 DUP2 MSTORE PUSH1 0x20 ADD PUSH1 0x60 DUP2 MSTORE PUSH1 0x20 ADD PUSH0 PUSH20 0xFFFFFFFFFFFFFFFFFFFFFFFFFFFFFFFFFFFFFFFF AND DUP2 MSTORE POP SWAP1 JUMP JUMPDEST PUSH1 0x40 MLOAD DUP1 PUSH1 0x60 ADD PUSH1 0x40 MSTORE DUP1 PUSH0 DUP2 MSTORE PUSH1 0x20 ADD PUSH1 0x60 DUP2 MSTORE PUSH1 0x20 ADD PUSH1 0x60 DUP2 MSTORE POP SWAP1 JUMP JUMPDEST POP DUP1 SLOAD PUSH2 0x32DA SWAP1 PUSH2 0x44A7 JUMP JUMPDEST PUSH0 DUP3 SSTORE DUP1 PUSH1 0x1F LT PUSH2 0x32EB JUMPI POP PUSH2 0x3308 JUMP JUMPDEST PUSH1 0x1F ADD PUSH1 0x20 SWAP1 DIV SWAP1 PUSH0 MSTORE PUSH1 0x20 PUSH0 KECCAK256 SWAP1 DUP2 ADD SWAP1 PUSH2 0x3307 SWAP2 SWAP1 PUSH2 0x335F JUMP JUMPDEST JUMPDEST POP JUMP JUMPDEST PUSH1 0x40 MLOAD DUP1 PUSH2 0x120 ADD PUSH1 0x40 MSTORE DUP1 PUSH2 0x331F PUSH2 0x32AE JUMP JUMPDEST DUP2 MSTORE PUSH1 0x20 ADD PUSH0 DUP2 MSTORE PUSH1 0x20 ADD PUSH0 DUP2 MSTORE PUSH1 0x20 ADD PUSH0 DUP2 MSTORE PUSH1 0x20 ADD PUSH0 ISZERO ISZERO DUP2 MSTORE PUSH1 0x20 ADD PUSH0 ISZERO ISZERO DUP2 MSTORE PUSH1 0x20 ADD PUSH0 ISZERO ISZERO DUP2 MSTORE PUSH1 0x20 ADD PUSH0 ISZERO ISZERO DUP2 MSTORE PUSH1 0x20 ADD PUSH0 ISZERO ISZERO DUP2 MSTORE POP SWAP1 JUMP JUMPDEST JUMPDEST DUP1 DUP3 GT ISZERO PUSH2 0x3376 JUMPI PUSH0 DUP2 PUSH0 SWAP1 SSTORE POP PUSH1 0x1 ADD PUSH2 0x3360 JUMP JUMPDEST POP SWAP1 JUMP JUMPDEST PUSH0 PUSH1 0x40 MLOAD SWAP1 POP SWAP1 JUMP JUMPDEST PUSH0 PUSH0 REVERT JUMPDEST PUSH0 PUSH0 REVERT JUMPDEST PUSH0 DUP2 SWAP1 POP SWAP2 SWAP1 POP JUMP JUMPDEST PUSH2 0x339D DUP2 PUSH2 0x338B JUMP JUMPDEST DUP2 EQ PUSH2 0x33A7 JUMPI PUSH0 PUSH0 REVERT JUMPDEST POP JUMP JUMPDEST PUSH0 DUP2 CALLDATALOAD SWAP1 POP PUSH2 0x33B8 DUP2 PUSH2 0x3394 JUMP JUMPDEST SWAP3 SWAP2 POP POP JUMP JUMPDEST PUSH0 PUSH0 PUSH0 PUSH0 PUSH1 0x80 DUP6 DUP8 SUB SLT ISZERO PUSH2 0x33D6 JUMPI PUSH2 0x33D5 PUSH2 0x3383 JUMP JUMPDEST JUMPDEST PUSH0 PUSH2 0x33E3 DUP8 DUP3 DUP9 ADD PUSH2 0x33AA JUMP JUMPDEST SWAP5 POP POP PUSH1 0x20 PUSH2 0x33F4 DUP8 DUP3 DUP9 ADD PUSH2 0x33AA JUMP JUMPDEST SWAP4 POP POP PUSH1 0x40 PUSH2 0x3405 DUP8 DUP3 DUP9 ADD PUSH2 0x33AA JUMP JUMPDEST SWAP3 POP POP PUSH1 0x60 PUSH2 0x3416 DUP8 DUP3 DUP9 ADD PUSH2 0x33AA JUMP JUMPDEST SWAP2 POP POP SWAP3 SWAP6 SWAP2 SWAP5 POP SWAP3 POP JUMP JUMPDEST PUSH0 DUP2 MLOAD SWAP1 POP SWAP2 SWAP1 POP JUMP JUMPDEST PUSH0 DUP3 DUP3 MSTORE PUSH1 0x20 DUP3 ADD SWAP1 POP SWAP3 SWAP2 POP POP JUMP JUMPDEST PUSH0 DUP2 SWAP1 POP PUSH1 0x20 DUP3 ADD SWAP1 POP SWAP2 SWAP1 POP JUMP JUMPDEST PUSH2 0x3454 DUP2 PUSH2 0x338B JUMP JUMPDEST DUP3 MSTORE POP POP JUMP JUMPDEST PUSH0 DUP2 MLOAD SWAP1 POP SWAP2 SWAP1 POP JUMP JUMPDEST PUSH0 DUP3 DUP3 MSTORE PUSH1 0x20 DUP3 ADD SWAP1 POP SWAP3 SWAP2 POP POP JUMP JUMPDEST DUP3 DUP2 DUP4 MCOPY PUSH0 DUP4 DUP4 ADD MSTORE POP POP POP JUMP JUMPDEST PUSH0 PUSH1 0x1F NOT PUSH1 0x1F DUP4 ADD AND SWAP1 POP SWAP2 SWAP1 POP JUMP JUMPDEST PUSH0 PUSH2 0x349C DUP3 PUSH2 0x345A JUMP JUMPDEST PUSH2 0x34A6 DUP2 DUP6 PUSH2 0x3464 JUMP JUMPDEST SWAP4 POP PUSH2 0x34B6 DUP2 DUP6 PUSH1 0x20 DUP7 ADD PUSH2 0x3474 JUMP JUMPDEST PUSH2 0x34BF DUP2 PUSH2 0x3482 JUMP JUMPDEST DUP5 ADD SWAP2 POP POP SWAP3 SWAP2 POP POP JUMP JUMPDEST PUSH0 PUSH20 0xFFFFFFFFFFFFFFFFFFFFFFFFFFFFFFFFFFFFFFFF DUP3 AND SWAP1 POP SWAP2 SWAP1 POP JUMP JUMPDEST PUSH0 PUSH2 0x34F3 DUP3 PUSH2 0x34CA JUMP JUMPDEST SWAP1 POP SWAP2 SWAP1 POP JUMP JUMPDEST PUSH2 0x3503 DUP2 PUSH2 0x34E9 JUMP JUMPDEST DUP3 MSTORE POP POP JUMP JUMPDEST PUSH0 PUSH1 0x80 DUP4 ADD PUSH0 DUP4 ADD MLOAD PUSH2 0x351E PUSH0 DUP7 ADD DUP3 PUSH2 0x344B JUMP JUMPDEST POP PUSH1 0x20 DUP4 ADD MLOAD DUP5 DUP3 SUB PUSH1 0x20 DUP7 ADD MSTORE PUSH2 0x3536 DUP3 DUP3 PUSH2 0x3492 JUMP JUMPDEST SWAP2 POP POP PUSH1 0x40 DUP4 ADD MLOAD DUP5 DUP3 SUB PUSH1 0x40 DUP7 ADD MSTORE PUSH2 0x3550 DUP3 DUP3 PUSH2 0x3492 JUMP JUMPDEST SWAP2 POP POP PUSH1 0x60 DUP4 ADD MLOAD PUSH2 0x3565 PUSH1 0x60 DUP7 ADD DUP3 PUSH2 0x34FA JUMP JUMPDEST POP DUP1 SWAP2 POP POP SWAP3 SWAP2 POP POP JUMP JUMPDEST PUSH0 PUSH2 0x357B DUP4 DUP4 PUSH2 0x3509 JUMP JUMPDEST SWAP1 POP SWAP3 SWAP2 POP POP JUMP JUMPDEST PUSH0 PUSH1 0x20 DUP3 ADD SWAP1 POP SWAP2 SWAP1 POP JUMP JUMPDEST PUSH0 PUSH2 0x3599 DUP3 PUSH2 0x3422 JUMP JUMPDEST PUSH2 0x35A3 DUP2 DUP6 PUSH2 0x342C JUMP JUMPDEST SWAP4 POP DUP4 PUSH1 0x20 DUP3 MUL DUP6 ADD PUSH2 0x35B5 DUP6 PUSH2 0x343C JUMP JUMPDEST DUP1 PUSH0 JUMPDEST DUP6 DUP2 LT ISZERO PUSH2 0x35F0 JUMPI DUP5 DUP5 SUB DUP10 MSTORE DUP2 MLOAD PUSH2 0x35D1 DUP6 DUP3 PUSH2 0x3570 JUMP JUMPDEST SWAP5 POP PUSH2 0x35DC DUP4 PUSH2 0x3583 JUMP JUMPDEST SWAP3 POP PUSH1 0x20 DUP11 ADD SWAP10 POP POP PUSH1 0x1 DUP2 ADD SWAP1 POP PUSH2 0x35B8 JUMP JUMPDEST POP DUP3 SWAP8 POP DUP8 SWAP6 POP POP POP POP POP POP SWAP3 SWAP2 POP POP JUMP JUMPDEST PUSH0 PUSH1 0x20 DUP3 ADD SWAP1 POP DUP2 DUP2 SUB PUSH0 DUP4 ADD MSTORE PUSH2 0x361A DUP2 DUP5 PUSH2 0x358F JUMP JUMPDEST SWAP1 POP SWAP3 SWAP2 POP POP JUMP JUMPDEST PUSH2 0x362B DUP2 PUSH2 0x338B JUMP JUMPDEST DUP3 MSTORE POP POP JUMP JUMPDEST PUSH0 PUSH1 0x20 DUP3 ADD SWAP1 POP PUSH2 0x3644 PUSH0 DUP4 ADD DUP5 PUSH2 0x3622 JUMP JUMPDEST SWAP3 SWAP2 POP POP JUMP JUMPDEST PUSH0 PUSH0 REVERT JUMPDEST PUSH0 PUSH0 REVERT JUMPDEST PUSH32 0x4E487B7100000000000000000000000000000000000000000000000000000000 PUSH0 MSTORE PUSH1 0x41 PUSH1 0x4 MSTORE PUSH1 0x24 PUSH0 REVERT JUMPDEST PUSH2 0x3688 DUP3 PUSH2 0x3482 JUMP JUMPDEST DUP2 ADD DUP2 DUP2 LT PUSH8 0xFFFFFFFFFFFFFFFF DUP3 GT OR ISZERO PUSH2 0x36A7 JUMPI PUSH2 0x36A6 PUSH2 0x3652 JUMP JUMPDEST JUMPDEST DUP1 PUSH1 0x40 MSTORE POP POP POP JUMP JUMPDEST PUSH0 PUSH2 0x36B9 PUSH2 0x337A JUMP JUMPDEST SWAP1 POP PUSH2 0x36C5 DUP3 DUP3 PUSH2 0x367F JUMP JUMPDEST SWAP2 SWAP1 POP JUMP JUMPDEST PUSH0 PUSH8 0xFFFFFFFFFFFFFFFF DUP3 GT ISZERO PUSH2 0x36E4 JUMPI PUSH2 0x36E3 PUSH2 0x3652 JUMP JUMPDEST JUMPDEST PUSH2 0x36ED DUP3 PUSH2 0x3482 JUMP JUMPDEST SWAP1 POP PUSH1 0x20 DUP2 ADD SWAP1 POP SWAP2 SWAP1 POP JUMP JUMPDEST DUP3 DUP2 DUP4 CALLDATACOPY PUSH0 DUP4 DUP4 ADD MSTORE POP POP POP JUMP JUMPDEST PUSH0 PUSH2 0x371A PUSH2 0x3715 DUP5 PUSH2 0x36CA JUMP JUMPDEST PUSH2 0x36B0 JUMP JUMPDEST SWAP1 POP DUP3 DUP2 MSTORE PUSH1 0x20 DUP2 ADD DUP5 DUP5 DUP5 ADD GT ISZERO PUSH2 0x3736 JUMPI PUSH2 0x3735 PUSH2 0x364E JUMP JUMPDEST JUMPDEST PUSH2 0x3741 DUP5 DUP3 DUP6 PUSH2 0x36FA JUMP JUMPDEST POP SWAP4 SWAP3 POP POP POP JUMP JUMPDEST PUSH0 DUP3 PUSH1 0x1F DUP4 ADD SLT PUSH2 0x375D JUMPI PUSH2 0x375C PUSH2 0x364A JUMP JUMPDEST JUMPDEST DUP2 CALLDATALOAD PUSH2 0x376D DUP5 DUP3 PUSH1 0x20 DUP7 ADD PUSH2 0x3708 JUMP JUMPDEST SWAP2 POP POP SWAP3 SWAP2 POP POP JUMP JUMPDEST PUSH0 PUSH0 PUSH0 PUSH0 PUSH0 PUSH1 0xA0 DUP7 DUP9 SUB SLT ISZERO PUSH2 0x378F JUMPI PUSH2 0x378E PUSH2 0x3383 JUMP JUMPDEST JUMPDEST PUSH0 PUSH2 0x379C DUP9 DUP3 DUP10 ADD PUSH2 0x33AA JUMP JUMPDEST SWAP6 POP POP PUSH1 0x20 PUSH2 0x37AD DUP9 DUP3 DUP10 ADD PUSH2 0x33AA JUMP JUMPDEST SWAP5 POP POP PUSH1 0x40 PUSH2 0x37BE DUP9 DUP3 DUP10 ADD PUSH2 0x33AA JUMP JUMPDEST SWAP4 POP POP PUSH1 0x60 DUP7 ADD CALLDATALOAD PUSH8 0xFFFFFFFFFFFFFFFF DUP2 GT ISZERO PUSH2 0x37DF JUMPI PUSH2 0x37DE PUSH2 0x3387 JUMP JUMPDEST JUMPDEST PUSH2 0x37EB DUP9 DUP3 DUP10 ADD PUSH2 0x3749 JUMP JUMPDEST SWAP3 POP POP PUSH1 0x80 DUP7 ADD CALLDATALOAD PUSH8 0xFFFFFFFFFFFFFFFF DUP2 GT ISZERO PUSH2 0x380C JUMPI PUSH2 0x380B PUSH2 0x3387 JUMP JUMPDEST JUMPDEST PUSH2 0x3818 DUP9 DUP3 DUP10 ADD PUSH2 0x3749 JUMP JUMPDEST SWAP2 POP POP SWAP3 SWAP6 POP SWAP3 SWAP6 SWAP1 SWAP4 POP JUMP JUMPDEST PUSH2 0x382E DUP2 PUSH2 0x34E9 JUMP JUMPDEST DUP3 MSTORE POP POP JUMP JUMPDEST PUSH0 PUSH1 0x20 DUP3 ADD SWAP1 POP PUSH2 0x3847 PUSH0 DUP4 ADD DUP5 PUSH2 0x3825 JUMP JUMPDEST SWAP3 SWAP2 POP POP JUMP JUMPDEST PUSH0 PUSH0 PUSH1 0x40 DUP4 DUP6 SUB SLT ISZERO PUSH2 0x3863 JUMPI PUSH2 0x3862 PUSH2 0x3383 JUMP JUMPDEST JUMPDEST PUSH0 PUSH2 0x3870 DUP6 DUP3 DUP7 ADD PUSH2 0x33AA JUMP JUMPDEST SWAP3 POP POP PUSH1 0x20 PUSH2 0x3881 DUP6 DUP3 DUP7 ADD PUSH2 0x33AA JUMP JUMPDEST SWAP2 POP POP SWAP3 POP SWAP3 SWAP1 POP JUMP JUMPDEST PUSH0 PUSH1 0x20 DUP3 DUP5 SUB SLT ISZERO PUSH2 0x38A0 JUMPI PUSH2 0x389F PUSH2 0x3383 JUMP JUMPDEST JUMPDEST PUSH0 PUSH2 0x38AD DUP5 DUP3 DUP6 ADD PUSH2 0x33AA JUMP JUMPDEST SWAP2 POP POP SWAP3 SWAP2 POP POP JUMP JUMPDEST PUSH0 DUP2 MLOAD SWAP1 POP SWAP2 SWAP1 POP JUMP JUMPDEST PUSH0 DUP3 DUP3 MSTORE PUSH1 0x20 DUP3 ADD SWAP1 POP SWAP3 SWAP2 POP POP JUMP JUMPDEST PUSH0 DUP2 SWAP1 POP PUSH1 0x20 DUP3 ADD SWAP1 POP SWAP2 SWAP1 POP JUMP JUMPDEST PUSH0 PUSH1 0x60 DUP4 ADD PUSH0 DUP4 ADD MLOAD PUSH2 0x38F4 PUSH0 DUP7 ADD DUP3 PUSH2 0x344B JUMP JUMPDEST POP PUSH1 0x20 DUP4 ADD MLOAD DUP5 DUP3 SUB PUSH1 0x20 DUP7 ADD MSTORE PUSH2 0x390C DUP3 DUP3 PUSH2 0x3492 JUMP JUMPDEST SWAP2 POP POP PUSH1 0x40 DUP4 ADD MLOAD DUP5 DUP3 SUB PUSH1 0x40 DUP7 ADD MSTORE PUSH2 0x3926 DUP3 DUP3 PUSH2 0x3492 JUMP JUMPDEST SWAP2 POP POP DUP1 SWAP2 POP POP SWAP3 SWAP2 POP POP JUMP JUMPDEST PUSH0 PUSH2 0x393E DUP4 DUP4 PUSH2 0x38DF JUMP JUMPDEST SWAP1 POP SWAP3 SWAP2 POP POP JUMP JUMPDEST PUSH0 PUSH1 0x20 DUP3 ADD SWAP1 POP SWAP2 SWAP1 POP JUMP JUMPDEST PUSH0 PUSH2 0x395C DUP3 PUSH2 0x38B6 JUMP JUMPDEST PUSH2 0x3966 DUP2 DUP6 PUSH2 0x38C0 JUMP JUMPDEST SWAP4 POP DUP4 PUSH1 0x20 DUP3 MUL DUP6 ADD PUSH2 0x3978 DUP6 PUSH2 0x38D0 JUMP JUMPDEST DUP1 PUSH0 JUMPDEST DUP6 DUP2 LT ISZERO PUSH2 0x39B3 JUMPI DUP5 DUP5 SUB DUP10 MSTORE DUP2 MLOAD PUSH2 0x3994 DUP6 DUP3 PUSH2 0x3933 JUMP JUMPDEST SWAP5 POP PUSH2 0x399F DUP4 PUSH2 0x3946 JUMP JUMPDEST SWAP3 POP PUSH1 0x20 DUP11 ADD SWAP10 POP POP PUSH1 0x1 DUP2 ADD SWAP1 POP PUSH2 0x397B JUMP JUMPDEST POP DUP3 SWAP8 POP DUP8 SWAP6 POP POP POP POP POP POP SWAP3 SWAP2 POP POP JUMP JUMPDEST PUSH0 PUSH1 0x20 DUP3 ADD SWAP1 POP DUP2 DUP2 SUB PUSH0 DUP4 ADD MSTORE PUSH2 0x39DD DUP2 DUP5 PUSH2 0x3952 JUMP JUMPDEST SWAP1 POP SWAP3 SWAP2 POP POP JUMP JUMPDEST PUSH0 PUSH0 PUSH0 PUSH1 0x60 DUP5 DUP7 SUB SLT ISZERO PUSH2 0x39FC JUMPI PUSH2 0x39FB PUSH2 0x3383 JUMP JUMPDEST JUMPDEST PUSH0 PUSH2 0x3A09 DUP7 DUP3 DUP8 ADD PUSH2 0x33AA JUMP JUMPDEST SWAP4 POP POP PUSH1 0x20 PUSH2 0x3A1A DUP7 DUP3 DUP8 ADD PUSH2 0x33AA JUMP JUMPDEST SWAP3 POP POP PUSH1 0x40 PUSH2 0x3A2B DUP7 DUP3 DUP8 ADD PUSH2 0x33AA JUMP JUMPDEST SWAP2 POP POP SWAP3 POP SWAP3 POP SWAP3 JUMP JUMPDEST PUSH0 PUSH0 PUSH0 PUSH0 PUSH1 0x80 DUP6 DUP8 SUB SLT ISZERO PUSH2 0x3A4D JUMPI PUSH2 0x3A4C PUSH2 0x3383 JUMP JUMPDEST JUMPDEST PUSH0 PUSH2 0x3A5A DUP8 DUP3 DUP9 ADD PUSH2 0x33AA JUMP JUMPDEST SWAP5 POP POP PUSH1 0x20 PUSH2 0x3A6B DUP8 DUP3 DUP9 ADD PUSH2 0x33AA JUMP JUMPDEST SWAP4 POP POP PUSH1 0x40 DUP6 ADD CALLDATALOAD PUSH8 0xFFFFFFFFFFFFFFFF DUP2 GT ISZERO PUSH2 0x3A8C JUMPI PUSH2 0x3A8B PUSH2 0x3387 JUMP JUMPDEST JUMPDEST PUSH2 0x3A98 DUP8 DUP3 DUP9 ADD PUSH2 0x3749 JUMP JUMPDEST SWAP3 POP POP PUSH1 0x60 DUP6 ADD CALLDATALOAD PUSH8 0xFFFFFFFFFFFFFFFF DUP2 GT ISZERO PUSH2 0x3AB9 JUMPI PUSH2 0x3AB8 PUSH2 0x3387 JUMP JUMPDEST JUMPDEST PUSH2 0x3AC5 DUP8 DUP3 DUP9 ADD PUSH2 0x3749 JUMP JUMPDEST SWAP2 POP POP SWAP3 SWAP6 SWAP2 SWAP5 POP SWAP3 POP JUMP JUMPDEST PUSH0 DUP2 ISZERO ISZERO SWAP1 POP SWAP2 SWAP1 POP JUMP JUMPDEST PUSH2 0x3AE5 DUP2 PUSH2 0x3AD1 JUMP JUMPDEST DUP3 MSTORE POP POP JUMP JUMPDEST PUSH0 PUSH1 0x20 DUP3 ADD SWAP1 POP PUSH2 0x3AFE PUSH0 DUP4 ADD DUP5 PUSH2 0x3ADC JUMP JUMPDEST SWAP3 SWAP2 POP POP JUMP JUMPDEST PUSH0 PUSH8 0xFFFFFFFFFFFFFFFF DUP3 GT ISZERO PUSH2 0x3B1E JUMPI PUSH2 0x3B1D PUSH2 0x3652 JUMP JUMPDEST JUMPDEST PUSH1 0x20 DUP3 MUL SWAP1 POP PUSH1 0x20 DUP2 ADD SWAP1 POP SWAP2 SWAP1 POP JUMP JUMPDEST PUSH0 PUSH0 REVERT JUMPDEST PUSH0 PUSH2 0x3B45 PUSH2 0x3B40 DUP5 PUSH2 0x3B04 JUMP JUMPDEST PUSH2 0x36B0 JUMP JUMPDEST SWAP1 POP DUP1 DUP4 DUP3 MSTORE PUSH1 0x20 DUP3 ADD SWAP1 POP PUSH1 0x20 DUP5 MUL DUP4 ADD DUP6 DUP2 GT ISZERO PUSH2 0x3B68 JUMPI PUSH2 0x3B67 PUSH2 0x3B2F JUMP JUMPDEST JUMPDEST DUP4 JUMPDEST DUP2 DUP2 LT ISZERO PUSH2 0x3B91 JUMPI DUP1 PUSH2 0x3B7D DUP9 DUP3 PUSH2 0x33AA JUMP JUMPDEST DUP5 MSTORE PUSH1 0x20 DUP5 ADD SWAP4 POP POP PUSH1 0x20 DUP2 ADD SWAP1 POP PUSH2 0x3B6A JUMP JUMPDEST POP POP POP SWAP4 SWAP3 POP POP POP JUMP JUMPDEST PUSH0 DUP3 PUSH1 0x1F DUP4 ADD SLT PUSH2 0x3BAF JUMPI PUSH2 0x3BAE PUSH2 0x364A JUMP JUMPDEST JUMPDEST DUP2 CALLDATALOAD PUSH2 0x3BBF DUP5 DUP3 PUSH1 0x20 DUP7 ADD PUSH2 0x3B33 JUMP JUMPDEST SWAP2 POP POP SWAP3 SWAP2 POP POP JUMP JUMPDEST PUSH2 0x3BD1 DUP2 PUSH2 0x3AD1 JUMP JUMPDEST DUP2 EQ PUSH2 0x3BDB JUMPI PUSH0 PUSH0 REVERT JUMPDEST POP JUMP JUMPDEST PUSH0 DUP2 CALLDATALOAD SWAP1 POP PUSH2 0x3BEC DUP2 PUSH2 0x3BC8 JUMP JUMPDEST SWAP3 SWAP2 POP POP JUMP JUMPDEST PUSH0 PUSH0 PUSH0 PUSH0 PUSH0 PUSH0 PUSH0 PUSH1 0xE0 DUP9 DUP11 SUB SLT ISZERO PUSH2 0x3C0D JUMPI PUSH2 0x3C0C PUSH2 0x3383 JUMP JUMPDEST JUMPDEST PUSH0 PUSH2 0x3C1A DUP11 DUP3 DUP12 ADD PUSH2 0x33AA JUMP JUMPDEST SWAP8 POP POP PUSH1 0x20 DUP9 ADD CALLDATALOAD PUSH8 0xFFFFFFFFFFFFFFFF DUP2 GT ISZERO PUSH2 0x3C3B JUMPI PUSH2 0x3C3A PUSH2 0x3387 JUMP JUMPDEST JUMPDEST PUSH2 0x3C47 DUP11 DUP3 DUP12 ADD PUSH2 0x3749 JUMP JUMPDEST SWAP7 POP POP PUSH1 0x40 DUP9 ADD CALLDATALOAD PUSH8 0xFFFFFFFFFFFFFFFF DUP2 GT ISZERO PUSH2 0x3C68 JUMPI PUSH2 0x3C67 PUSH2 0x3387 JUMP JUMPDEST JUMPDEST PUSH2 0x3C74 DUP11 DUP3 DUP12 ADD PUSH2 0x3749 JUMP JUMPDEST SWAP6 POP POP PUSH1 0x60 DUP9 ADD CALLDATALOAD PUSH8 0xFFFFFFFFFFFFFFFF DUP2 GT ISZERO PUSH2 0x3C95 JUMPI PUSH2 0x3C94 PUSH2 0x3387 JUMP JUMPDEST JUMPDEST PUSH2 0x3CA1 DUP11 DUP3 DUP12 ADD PUSH2 0x3B9B JUMP JUMPDEST SWAP5 POP POP PUSH1 0x80 DUP9 ADD CALLDATALOAD PUSH8 0xFFFFFFFFFFFFFFFF DUP2 GT ISZERO PUSH2 0x3CC2 JUMPI PUSH2 0x3CC1 PUSH2 0x3387 JUMP JUMPDEST JUMPDEST PUSH2 0x3CCE DUP11 DUP3 DUP12 ADD PUSH2 0x3B9B JUMP JUMPDEST SWAP4 POP POP PUSH1 0xA0 PUSH2 0x3CDF DUP11 DUP3 DUP12 ADD PUSH2 0x3BDE JUMP JUMPDEST SWAP3 POP POP PUSH1 0xC0 PUSH2 0x3CF0 DUP11 DUP3 DUP12 ADD PUSH2 0x3BDE JUMP JUMPDEST SWAP2 POP POP SWAP3 SWAP6 SWAP9 SWAP2 SWAP5 SWAP8 POP SWAP3 SWAP6 POP JUMP JUMPDEST PUSH2 0x3D08 DUP2 PUSH2 0x34E9 JUMP JUMPDEST DUP2 EQ PUSH2 0x3D12 JUMPI PUSH0 PUSH0 REVERT JUMPDEST POP JUMP JUMPDEST PUSH0 DUP2 CALLDATALOAD SWAP1 POP PUSH2 0x3D23 DUP2 PUSH2 0x3CFF JUMP JUMPDEST SWAP3 SWAP2 POP POP JUMP JUMPDEST PUSH0 PUSH0 PUSH0 PUSH0 PUSH0 PUSH1 0xA0 DUP7 DUP9 SUB SLT ISZERO PUSH2 0x3D42 JUMPI PUSH2 0x3D41 PUSH2 0x3383 JUMP JUMPDEST JUMPDEST PUSH0 PUSH2 0x3D4F DUP9 DUP3 DUP10 ADD PUSH2 0x33AA JUMP JUMPDEST SWAP6 POP POP PUSH1 0x20 PUSH2 0x3D60 DUP9 DUP3 DUP10 ADD PUSH2 0x3BDE JUMP JUMPDEST SWAP5 POP POP PUSH1 0x40 DUP7 ADD CALLDATALOAD PUSH8 0xFFFFFFFFFFFFFFFF DUP2 GT ISZERO PUSH2 0x3D81 JUMPI PUSH2 0x3D80 PUSH2 0x3387 JUMP JUMPDEST JUMPDEST PUSH2 0x3D8D DUP9 DUP3 DUP10 ADD PUSH2 0x3749 JUMP JUMPDEST SWAP4 POP POP PUSH1 0x60 DUP7 ADD CALLDATALOAD PUSH8 0xFFFFFFFFFFFFFFFF DUP2 GT ISZERO PUSH2 0x3DAE JUMPI PUSH2 0x3DAD PUSH2 0x3387 JUMP JUMPDEST JUMPDEST PUSH2 0x3DBA DUP9 DUP3 DUP10 ADD PUSH2 0x3749 JUMP JUMPDEST SWAP3 POP POP PUSH1 0x80 PUSH2 0x3DCB DUP9 DUP3 DUP10 ADD PUSH2 0x3D15 JUMP JUMPDEST SWAP2 POP POP SWAP3 SWAP6 POP SWAP3 SWAP6 SWAP1 SWAP4 POP JUMP JUMPDEST PUSH0 PUSH0 PUSH1 0x40 DUP4 DUP6 SUB SLT ISZERO PUSH2 0x3DEE JUMPI PUSH2 0x3DED PUSH2 0x3383 JUMP JUMPDEST JUMPDEST PUSH0 PUSH2 0x3DFB DUP6 DUP3 DUP7 ADD PUSH2 0x33AA JUMP JUMPDEST SWAP3 POP POP PUSH1 0x20 PUSH2 0x3E0C DUP6 DUP3 DUP7 ADD PUSH2 0x3D15 JUMP JUMPDEST SWAP2 POP POP SWAP3 POP SWAP3 SWAP1 POP JUMP JUMPDEST PUSH0 PUSH0 PUSH0 PUSH0 PUSH0 PUSH1 0xA0 DUP7 DUP9 SUB SLT ISZERO PUSH2 0x3E2F JUMPI PUSH2 0x3E2E PUSH2 0x3383 JUMP JUMPDEST JUMPDEST PUSH0 PUSH2 0x3E3C DUP9 DUP3 DUP10 ADD PUSH2 0x33AA JUMP JUMPDEST SWAP6 POP POP PUSH1 0x20 PUSH2 0x3E4D DUP9 DUP3 DUP10 ADD PUSH2 0x3D15 JUMP JUMPDEST SWAP5 POP POP PUSH1 0x40 PUSH2 0x3E5E DUP9 DUP3 DUP10 ADD PUSH2 0x33AA JUMP JUMPDEST SWAP4 POP POP PUSH1 0x60 DUP7 ADD CALLDATALOAD PUSH8 0xFFFFFFFFFFFFFFFF DUP2 GT ISZERO PUSH2 0x3E7F JUMPI PUSH2 0x3E7E PUSH2 0x3387 JUMP JUMPDEST JUMPDEST PUSH2 0x3E8B DUP9 DUP3 DUP10 ADD PUSH2 0x3749 JUMP JUMPDEST SWAP3 POP POP PUSH1 0x80 DUP7 ADD CALLDATALOAD PUSH8 0xFFFFFFFFFFFFFFFF DUP2 GT ISZERO PUSH2 0x3EAC JUMPI PUSH2 0x3EAB PUSH2 0x3387 JUMP JUMPDEST JUMPDEST PUSH2 0x3EB8 DUP9 DUP3 DUP10 ADD PUSH2 0x3749 JUMP JUMPDEST SWAP2 POP POP SWAP3 SWAP6 POP SWAP3 SWAP6 SWAP1 SWAP4 POP JUMP JUMPDEST PUSH0 DUP2 MLOAD SWAP1 POP SWAP2 SWAP1 POP JUMP JUMPDEST PUSH0 DUP3 DUP3 MSTORE PUSH1 0x20 DUP3 ADD SWAP1 POP SWAP3 SWAP2 POP POP JUMP JUMPDEST PUSH0 DUP2 SWAP1 POP PUSH1 0x20 DUP3 ADD SWAP1 POP SWAP2 SWAP1 POP JUMP JUMPDEST PUSH0 PUSH2 0x3EF9 DUP4 DUP4 PUSH2 0x34FA JUMP JUMPDEST PUSH1 0x20 DUP4 ADD SWAP1 POP SWAP3 SWAP2 POP POP JUMP JUMPDEST PUSH0 PUSH1 0x20 DUP3 ADD SWAP1 POP SWAP2 SWAP1 POP JUMP JUMPDEST PUSH0 PUSH2 0x3F1B DUP3 PUSH2 0x3EC5 JUMP JUMPDEST PUSH2 0x3F25 DUP2 DUP6 PUSH2 0x3ECF JUMP JUMPDEST SWAP4 POP PUSH2 0x3F30 DUP4 PUSH2 0x3EDF JUMP JUMPDEST DUP1 PUSH0 JUMPDEST DUP4 DUP2 LT ISZERO PUSH2 0x3F60 JUMPI DUP2 MLOAD PUSH2 0x3F47 DUP9 DUP3 PUSH2 0x3EEE JUMP JUMPDEST SWAP8 POP PUSH2 0x3F52 DUP4 PUSH2 0x3F05 JUMP JUMPDEST SWAP3 POP POP PUSH1 0x1 DUP2 ADD SWAP1 POP PUSH2 0x3F33 JUMP JUMPDEST POP DUP6 SWAP4 POP POP POP POP SWAP3 SWAP2 POP POP JUMP JUMPDEST PUSH0 PUSH1 0x20 DUP3 ADD SWAP1 POP DUP2 DUP2 SUB PUSH0 DUP4 ADD MSTORE PUSH2 0x3F85 DUP2 DUP5 PUSH2 0x3F11 JUMP JUMPDEST SWAP1 POP SWAP3 SWAP2 POP POP JUMP JUMPDEST PUSH0 PUSH0 PUSH0 PUSH0 PUSH0 PUSH0 PUSH1 0xC0 DUP8 DUP10 SUB SLT ISZERO PUSH2 0x3FA7 JUMPI PUSH2 0x3FA6 PUSH2 0x3383 JUMP JUMPDEST JUMPDEST PUSH0 PUSH2 0x3FB4 DUP10 DUP3 DUP11 ADD PUSH2 0x33AA JUMP JUMPDEST SWAP7 POP POP PUSH1 0x20 PUSH2 0x3FC5 DUP10 DUP3 DUP11 ADD PUSH2 0x33AA JUMP JUMPDEST SWAP6 POP POP PUSH1 0x40 DUP8 ADD CALLDATALOAD PUSH8 0xFFFFFFFFFFFFFFFF DUP2 GT ISZERO PUSH2 0x3FE6 JUMPI PUSH2 0x3FE5 PUSH2 0x3387 JUMP JUMPDEST JUMPDEST PUSH2 0x3FF2 DUP10 DUP3 DUP11 ADD PUSH2 0x3749 JUMP JUMPDEST SWAP5 POP POP PUSH1 0x60 DUP8 ADD CALLDATALOAD PUSH8 0xFFFFFFFFFFFFFFFF DUP2 GT ISZERO PUSH2 0x4013 JUMPI PUSH2 0x4012 PUSH2 0x3387 JUMP JUMPDEST JUMPDEST PUSH2 0x401F DUP10 DUP3 DUP11 ADD PUSH2 0x3749 JUMP JUMPDEST SWAP4 POP POP PUSH1 0x80 PUSH2 0x4030 DUP10 DUP3 DUP11 ADD PUSH2 0x3BDE JUMP JUMPDEST SWAP3 POP POP PUSH1 0xA0 PUSH2 0x4041 DUP10 DUP3 DUP11 ADD PUSH2 0x3BDE JUMP JUMPDEST SWAP2 POP POP SWAP3 SWAP6 POP SWAP3 SWAP6 POP SWAP3 SWAP6 JUMP JUMPDEST PUSH0 PUSH8 0xFFFFFFFFFFFFFFFF DUP3 GT ISZERO PUSH2 0x4068 JUMPI PUSH2 0x4067 PUSH2 0x3652 JUMP JUMPDEST JUMPDEST PUSH1 0x20 DUP3 MUL SWAP1 POP PUSH1 0x20 DUP2 ADD SWAP1 POP SWAP2 SWAP1 POP JUMP JUMPDEST PUSH0 PUSH2 0x408B PUSH2 0x4086 DUP5 PUSH2 0x404E JUMP JUMPDEST PUSH2 0x36B0 JUMP JUMPDEST SWAP1 POP DUP1 DUP4 DUP3 MSTORE PUSH1 0x20 DUP3 ADD SWAP1 POP PUSH1 0x20 DUP5 MUL DUP4 ADD DUP6 DUP2 GT ISZERO PUSH2 0x40AE JUMPI PUSH2 0x40AD PUSH2 0x3B2F JUMP JUMPDEST JUMPDEST DUP4 JUMPDEST DUP2 DUP2 LT ISZERO PUSH2 0x40D7 JUMPI DUP1 PUSH2 0x40C3 DUP9 DUP3 PUSH2 0x3D15 JUMP JUMPDEST DUP5 MSTORE PUSH1 0x20 DUP5 ADD SWAP4 POP POP PUSH1 0x20 DUP2 ADD SWAP1 POP PUSH2 0x40B0 JUMP JUMPDEST POP POP POP SWAP4 SWAP3 POP POP POP JUMP JUMPDEST PUSH0 DUP3 PUSH1 0x1F DUP4 ADD SLT PUSH2 0x40F5 JUMPI PUSH2 0x40F4 PUSH2 0x364A JUMP JUMPDEST JUMPDEST DUP2 CALLDATALOAD PUSH2 0x4105 DUP5 DUP3 PUSH1 0x20 DUP7 ADD PUSH2 0x4079 JUMP JUMPDEST SWAP2 POP POP SWAP3 SWAP2 POP POP JUMP JUMPDEST PUSH0 PUSH1 0x20 DUP3 DUP5 SUB SLT ISZERO PUSH2 0x4123 JUMPI PUSH2 0x4122 PUSH2 0x3383 JUMP JUMPDEST JUMPDEST PUSH0 DUP3 ADD CALLDATALOAD PUSH8 0xFFFFFFFFFFFFFFFF DUP2 GT ISZERO PUSH2 0x4140 JUMPI PUSH2 0x413F PUSH2 0x3387 JUMP JUMPDEST JUMPDEST PUSH2 0x414C DUP5 DUP3 DUP6 ADD PUSH2 0x40E1 JUMP JUMPDEST SWAP2 POP POP SWAP3 SWAP2 POP POP JUMP JUMPDEST PUSH0 PUSH1 0x20 DUP3 DUP5 SUB SLT ISZERO PUSH2 0x416A JUMPI PUSH2 0x4169 PUSH2 0x3383 JUMP JUMPDEST JUMPDEST PUSH0 PUSH2 0x4177 DUP5 DUP3 DUP6 ADD PUSH2 0x3D15 JUMP JUMPDEST SWAP2 POP POP SWAP3 SWAP2 POP POP JUMP JUMPDEST PUSH0 DUP2 MLOAD SWAP1 POP SWAP2 SWAP1 POP JUMP JUMPDEST PUSH0 DUP3 DUP3 MSTORE PUSH1 0x20 DUP3 ADD SWAP1 POP SWAP3 SWAP2 POP POP JUMP JUMPDEST PUSH0 DUP2 SWAP1 POP PUSH1 0x20 DUP3 ADD SWAP1 POP SWAP2 SWAP1 POP JUMP JUMPDEST PUSH2 0x41B2 DUP2 PUSH2 0x3AD1 JUMP JUMPDEST DUP3 MSTORE POP POP JUMP JUMPDEST PUSH0 PUSH2 0x120 DUP4 ADD PUSH0 DUP4 ADD MLOAD DUP5 DUP3 SUB PUSH0 DUP7 ADD MSTORE PUSH2 0x41D3 DUP3 DUP3 PUSH2 0x38DF JUMP JUMPDEST SWAP2 POP POP PUSH1 0x20 DUP4 ADD MLOAD PUSH2 0x41E8 PUSH1 0x20 DUP7 ADD DUP3 PUSH2 0x344B JUMP JUMPDEST POP PUSH1 0x40 DUP4 ADD MLOAD PUSH2 0x41FB PUSH1 0x40 DUP7 ADD DUP3 PUSH2 0x344B JUMP JUMPDEST POP PUSH1 0x60 DUP4 ADD MLOAD PUSH2 0x420E PUSH1 0x60 DUP7 ADD DUP3 PUSH2 0x344B JUMP JUMPDEST POP PUSH1 0x80 DUP4 ADD MLOAD PUSH2 0x4221 PUSH1 0x80 DUP7 ADD DUP3 PUSH2 0x41A9 JUMP JUMPDEST POP PUSH1 0xA0 DUP4 ADD MLOAD PUSH2 0x4234 PUSH1 0xA0 DUP7 ADD DUP3 PUSH2 0x41A9 JUMP JUMPDEST POP PUSH1 0xC0 DUP4 ADD MLOAD PUSH2 0x4247 PUSH1 0xC0 DUP7 ADD DUP3 PUSH2 0x41A9 JUMP JUMPDEST POP PUSH1 0xE0 DUP4 ADD MLOAD PUSH2 0x425A PUSH1 0xE0 DUP7 ADD DUP3 PUSH2 0x41A9 JUMP JUMPDEST POP PUSH2 0x100 DUP4 ADD MLOAD PUSH2 0x426F PUSH2 0x100 DUP7 ADD DUP3 PUSH2 0x41A9 JUMP JUMPDEST POP DUP1 SWAP2 POP POP SWAP3 SWAP2 POP POP JUMP JUMPDEST PUSH0 PUSH2 0x4285 DUP4 DUP4 PUSH2 0x41B8 JUMP JUMPDEST SWAP1 POP SWAP3 SWAP2 POP POP JUMP JUMPDEST PUSH0 PUSH1 0x20 DUP3 ADD SWAP1 POP SWAP2 SWAP1 POP JUMP JUMPDEST PUSH0 PUSH2 0x42A3 DUP3 PUSH2 0x4180 JUMP JUMPDEST PUSH2 0x42AD DUP2 DUP6 PUSH2 0x418A JUMP JUMPDEST SWAP4 POP DUP4 PUSH1 0x20 DUP3 MUL DUP6 ADD PUSH2 0x42BF DUP6 PUSH2 0x419A JUMP JUMPDEST DUP1 PUSH0 JUMPDEST DUP6 DUP2 LT ISZERO PUSH2 0x42FA JUMPI DUP5 DUP5 SUB DUP10 MSTORE DUP2 MLOAD PUSH2 0x42DB DUP6 DUP3 PUSH2 0x427A JUMP JUMPDEST SWAP5 POP PUSH2 0x42E6 DUP4 PUSH2 0x428D JUMP JUMPDEST SWAP3 POP PUSH1 0x20 DUP11 ADD SWAP10 POP POP PUSH1 0x1 DUP2 ADD SWAP1 POP PUSH2 0x42C2 JUMP JUMPDEST POP DUP3 SWAP8 POP DUP8 SWAP6 POP POP POP POP POP POP SWAP3 SWAP2 POP POP JUMP JUMPDEST PUSH0 PUSH1 0x20 DUP3 ADD SWAP1 POP DUP2 DUP2 SUB PUSH0 DUP4 ADD MSTORE PUSH2 0x4324 DUP2 DUP5 PUSH2 0x4299 JUMP JUMPDEST SWAP1 POP SWAP3 SWAP2 POP POP JUMP JUMPDEST PUSH0 PUSH0 PUSH0 PUSH0 PUSH0 PUSH0 PUSH1 0xC0 DUP8 DUP10 SUB SLT ISZERO PUSH2 0x4346 JUMPI PUSH2 0x4345 PUSH2 0x3383 JUMP JUMPDEST JUMPDEST PUSH0 PUSH2 0x4353 DUP10 DUP3 DUP11 ADD PUSH2 0x33AA JUMP JUMPDEST SWAP7 POP POP PUSH1 0x20 PUSH2 0x4364 DUP10 DUP3 DUP11 ADD PUSH2 0x33AA JUMP JUMPDEST SWAP6 POP POP PUSH1 0x40 PUSH2 0x4375 DUP10 DUP3 DUP11 ADD PUSH2 0x33AA JUMP JUMPDEST SWAP5 POP POP PUSH1 0x60 PUSH2 0x4386 DUP10 DUP3 DUP11 ADD PUSH2 0x33AA JUMP JUMPDEST SWAP4 POP POP PUSH1 0x80 DUP8 ADD CALLDATALOAD PUSH8 0xFFFFFFFFFFFFFFFF DUP2 GT ISZERO PUSH2 0x43A7 JUMPI PUSH2 0x43A6 PUSH2 0x3387 JUMP JUMPDEST JUMPDEST PUSH2 0x43B3 DUP10 DUP3 DUP11 ADD PUSH2 0x3749 JUMP JUMPDEST SWAP3 POP POP PUSH1 0xA0 DUP8 ADD CALLDATALOAD PUSH8 0xFFFFFFFFFFFFFFFF DUP2 GT ISZERO PUSH2 0x43D4 JUMPI PUSH2 0x43D3 PUSH2 0x3387 JUMP JUMPDEST JUMPDEST PUSH2 0x43E0 DUP10 DUP3 DUP11 ADD PUSH2 0x3749 JUMP JUMPDEST SWAP2 POP POP SWAP3 SWAP6 POP SWAP3 SWAP6 POP SWAP3 SWAP6 JUMP JUMPDEST PUSH32 0x4E487B7100000000000000000000000000000000000000000000000000000000 PUSH0 MSTORE PUSH1 0x11 PUSH1 0x4 MSTORE PUSH1 0x24 PUSH0 REVERT JUMPDEST PUSH0 PUSH2 0x4424 DUP3 PUSH2 0x338B JUMP JUMPDEST SWAP2 POP PUSH2 0x442F DUP4 PUSH2 0x338B JUMP JUMPDEST SWAP3 POP DUP3 DUP3 ADD SWAP1 POP DUP1 DUP3 GT ISZERO PUSH2 0x4447 JUMPI PUSH2 0x4446 PUSH2 0x43ED JUMP JUMPDEST JUMPDEST SWAP3 SWAP2 POP POP JUMP JUMPDEST PUSH32 0x4E487B7100000000000000000000000000000000000000000000000000000000 PUSH0 MSTORE PUSH1 0x32 PUSH1 0x4 MSTORE PUSH1 0x24 PUSH0 REVERT JUMPDEST PUSH32 0x4E487B7100000000000000000000000000000000000000000000000000000000 PUSH0 MSTORE PUSH1 0x22 PUSH1 0x4 MSTORE PUSH1 0x24 PUSH0 REVERT JUMPDEST PUSH0 PUSH1 0x2 DUP3 DIV SWAP1 POP PUSH1 0x1 DUP3 AND DUP1 PUSH2 0x44BE JUMPI PUSH1 0x7F DUP3 AND SWAP2 POP JUMPDEST PUSH1 0x20 DUP3 LT DUP2 SUB PUSH2 0x44D1 JUMPI PUSH2 0x44D0 PUSH2 0x447A JUMP JUMPDEST JUMPDEST POP SWAP2 SWAP1 POP JUMP JUMPDEST PUSH0 DUP2 SWAP1 POP DUP2 PUSH0 MSTORE PUSH1 0x20 PUSH0 KECCAK256 SWAP1 POP SWAP2 SWAP1 POP JUMP JUMPDEST PUSH0 PUSH1 0x20 PUSH1 0x1F DUP4 ADD DIV SWAP1 POP SWAP2 SWAP1 POP JUMP JUMPDEST PUSH0 DUP3 DUP3 SHL SWAP1 POP SWAP3 SWAP2 POP POP JUMP JUMPDEST PUSH0 PUSH1 0x8 DUP4 MUL PUSH2 0x4533 PUSH32 0xFFFFFFFFFFFFFFFFFFFFFFFFFFFFFFFFFFFFFFFFFFFFFFFFFFFFFFFFFFFFFFFF DUP3 PUSH2 0x44F8 JUMP JUMPDEST PUSH2 0x453D DUP7 DUP4 PUSH2 0x44F8 JUMP JUMPDEST SWAP6 POP DUP1 NOT DUP5 AND SWAP4 POP DUP1 DUP7 AND DUP5 OR SWAP3 POP POP POP SWAP4 SWAP3 POP POP POP JUMP JUMPDEST PUSH0 DUP2 SWAP1 POP SWAP2 SWAP1 POP JUMP JUMPDEST PUSH0 PUSH2 0x4578 PUSH2 0x4573 PUSH2 0x456E DUP5 PUSH2 0x338B JUMP JUMPDEST PUSH2 0x4555 JUMP JUMPDEST PUSH2 0x338B JUMP JUMPDEST SWAP1 POP SWAP2 SWAP1 POP JUMP JUMPDEST PUSH0 DUP2 SWAP1 POP SWAP2 SWAP1 POP JUMP JUMPDEST PUSH2 0x4591 DUP4 PUSH2 0x455E JUMP JUMPDEST PUSH2 0x45A5 PUSH2 0x459D DUP3 PUSH2 0x457F JUMP JUMPDEST DUP5 DUP5 SLOAD PUSH2 0x4504 JUMP JUMPDEST DUP3 SSTORE POP POP POP POP JUMP JUMPDEST PUSH0 PUSH0 SWAP1 POP SWAP1 JUMP JUMPDEST PUSH2 0x45BC PUSH2 0x45AD JUMP JUMPDEST PUSH2 0x45C7 DUP2 DUP5 DUP5 PUSH2 0x4588 JUMP JUMPDEST POP POP POP JUMP JUMPDEST JUMPDEST DUP2 DUP2 LT ISZERO PUSH2 0x45EA JUMPI PUSH2 0x45DF PUSH0 DUP3 PUSH2 0x45B4 JUMP JUMPDEST PUSH1 0x1 DUP2 ADD SWAP1 POP PUSH2 0x45CD JUMP JUMPDEST POP POP JUMP JUMPDEST PUSH1 0x1F DUP3 GT ISZERO PUSH2 0x462F JUMPI PUSH2 0x4600 DUP2 PUSH2 0x44D7 JUMP JUMPDEST PUSH2 0x4609 DUP5 PUSH2 0x44E9 JUMP JUMPDEST DUP2 ADD PUSH1 0x20 DUP6 LT ISZERO PUSH2 0x4618 JUMPI DUP2 SWAP1 POP JUMPDEST PUSH2 0x462C PUSH2 0x4624 DUP6 PUSH2 0x44E9 JUMP JUMPDEST DUP4 ADD DUP3 PUSH2 0x45CC JUMP JUMPDEST POP POP JUMPDEST POP POP POP JUMP JUMPDEST PUSH0 DUP3 DUP3 SHR SWAP1 POP SWAP3 SWAP2 POP POP JUMP JUMPDEST PUSH0 PUSH2 0x464F PUSH0 NOT DUP5 PUSH1 0x8 MUL PUSH2 0x4634 JUMP JUMPDEST NOT DUP1 DUP4 AND SWAP2 POP POP SWAP3 SWAP2 POP POP JUMP JUMPDEST PUSH0 PUSH2 0x4667 DUP4 DUP4 PUSH2 0x4640 JUMP JUMPDEST SWAP2 POP DUP3 PUSH1 0x2 MUL DUP3 OR SWAP1 POP SWAP3 SWAP2 POP POP JUMP JUMPDEST PUSH2 0x4680 DUP3 PUSH2 0x345A JUMP JUMPDEST PUSH8 0xFFFFFFFFFFFFFFFF DUP2 GT ISZERO PUSH2 0x4699 JUMPI PUSH2 0x4698 PUSH2 0x3652 JUMP JUMPDEST JUMPDEST PUSH2 0x46A3 DUP3 SLOAD PUSH2 0x44A7 JUMP JUMPDEST PUSH2 0x46AE DUP3 DUP3 DUP6 PUSH2 0x45EE JUMP JUMPDEST PUSH0 PUSH1 0x20 SWAP1 POP PUSH1 0x1F DUP4 GT PUSH1 0x1 DUP2 EQ PUSH2 0x46DF JUMPI PUSH0 DUP5 ISZERO PUSH2 0x46CD JUMPI DUP3 DUP8 ADD MLOAD SWAP1 POP JUMPDEST PUSH2 0x46D7 DUP6 DUP3 PUSH2 0x465C JUMP JUMPDEST DUP7 SSTORE POP PUSH2 0x473E JUMP JUMPDEST PUSH1 0x1F NOT DUP5 AND PUSH2 0x46ED DUP7 PUSH2 0x44D7 JUMP JUMPDEST PUSH0 JUMPDEST DUP3 DUP2 LT ISZERO PUSH2 0x4714 JUMPI DUP5 DUP10 ADD MLOAD DUP3 SSTORE PUSH1 0x1 DUP3 ADD SWAP2 POP PUSH1 0x20 DUP6 ADD SWAP5 POP PUSH1 0x20 DUP2 ADD SWAP1 POP PUSH2 0x46EF JUMP JUMPDEST DUP7 DUP4 LT ISZERO PUSH2 0x4731 JUMPI DUP5 DUP10 ADD MLOAD PUSH2 0x472D PUSH1 0x1F DUP10 AND DUP3 PUSH2 0x4640 JUMP JUMPDEST DUP4 SSTORE POP JUMPDEST PUSH1 0x1 PUSH1 0x2 DUP9 MUL ADD DUP9 SSTORE POP POP POP JUMPDEST POP POP POP POP POP POP JUMP JUMPDEST PUSH0 PUSH2 0x4750 DUP3 PUSH2 0x338B JUMP JUMPDEST SWAP2 POP PUSH32 0xFFFFFFFFFFFFFFFFFFFFFFFFFFFFFFFFFFFFFFFFFFFFFFFFFFFFFFFFFFFFFFFF DUP3 SUB PUSH2 0x4782 JUMPI PUSH2 0x4781 PUSH2 0x43ED JUMP JUMPDEST JUMPDEST PUSH1 0x1 DUP3 ADD SWAP1 POP SWAP2 SWAP1 POP JUMP JUMPDEST PUSH0 PUSH1 0x40 DUP3 ADD SWAP1 POP PUSH2 0x47A0 PUSH0 DUP4 ADD DUP6 PUSH2 0x3622 JUMP JUMPDEST PUSH2 0x47AD PUSH1 0x20 DUP4 ADD DUP5 PUSH2 0x3622 JUMP JUMPDEST SWAP4 SWAP3 POP POP POP JUMP JUMPDEST PUSH0 PUSH2 0x47BE DUP3 PUSH2 0x338B JUMP JUMPDEST SWAP2 POP PUSH2 0x47C9 DUP4 PUSH2 0x338B JUMP JUMPDEST SWAP3 POP DUP3 DUP3 SUB SWAP1 POP DUP2 DUP2 GT ISZERO PUSH2 0x47E1 JUMPI PUSH2 0x47E0 PUSH2 0x43ED JUMP JUMPDEST JUMPDEST SWAP3 SWAP2 POP POP JUMP JUMPDEST PUSH0 PUSH2 0x47F1 DUP3 PUSH2 0x338B JUMP JUMPDEST SWAP2 POP PUSH0 DUP3 SUB PUSH2 0x4803 JUMPI PUSH2 0x4802 PUSH2 0x43ED JUMP JUMPDEST JUMPDEST PUSH1 0x1 DUP3 SUB SWAP1 POP SWAP2 SWAP1 POP JUMP JUMPDEST PUSH0 PUSH2 0x4818 DUP3 PUSH2 0x338B JUMP JUMPDEST SWAP2 POP PUSH2 0x4823 DUP4 PUSH2 0x338B JUMP JUMPDEST SWAP3 POP DUP3 DUP3 MUL PUSH2 0x4831 DUP2 PUSH2 0x338B JUMP JUMPDEST SWAP2 POP DUP3 DUP3 DIV DUP5 EQ DUP4 ISZERO OR PUSH2 0x4848 JUMPI PUSH2 0x4847 PUSH2 0x43ED JUMP JUMPDEST JUMPDEST POP SWAP3 SWAP2 POP POP JUMP JUMPDEST PUSH0 PUSH1 0x60 DUP3 ADD SWAP1 POP PUSH2 0x4862 PUSH0 DUP4 ADD DUP7 PUSH2 0x3622 JUMP JUMPDEST PUSH2 0x486F PUSH1 0x20 DUP4 ADD DUP6 PUSH2 0x3622 JUMP JUMPDEST PUSH2 0x487C PUSH1 0x40 DUP4 ADD DUP5 PUSH2 0x3622 JUMP JUMPDEST SWAP5 SWAP4 POP POP POP POP JUMP JUMPDEST PUSH0 PUSH1 0x40 DUP3 ADD SWAP1 POP PUSH2 0x4897 PUSH0 DUP4 ADD DUP6 PUSH2 0x3622 JUMP JUMPDEST PUSH2 0x48A4 PUSH1 0x20 DUP4 ADD DUP5 PUSH2 0x3825 JUMP JUMPDEST SWAP4 SWAP3 POP POP POP JUMP JUMPDEST PUSH32 0x4E487B7100000000000000000000000000000000000000000000000000000000 PUSH0 MSTORE PUSH1 0x31 PUSH1 0x4 MSTORE PUSH1 0x24 PUSH0 REVERT INVALID LOG2 PUSH5 0x6970667358 0x22 SLT KECCAK256 PUSH26 0x95C1E39EA82DB53D72FA4D11641B4D3F8FB450CE64AC6CBBF104 PUSH22 0x760D689264736F6C634300081E003300000000000000 "
		},
		"gasEstimates": {
			"creation": {
				"codeDepositCost": "3740400",
				"executionCost": "infinite",
				"totalCost": "infinite"
			},
			"external": {
				"accountCount()": "2550",
				"accountExistsAndIsMutable(uint256)": "infinite",
				"addActionToGroup(uint256,uint256,uint256,string,string)": "infinite",
				"addApiKey(uint256,uint256,uint256,uint256,string,string)": "infinite",
				"addGroup(uint256,string,string,uint256[],uint256[],bool,bool)": "infinite",
				"addWalletToGroup(uint256,uint256,uint256)": "infinite",
				"adminApiPayerAccount()": "2625",
				"allWalletAddressesAt(uint256)": "2948",
				"apiPayerCount()": "2653",
				"api_payers()": "infinite",
				"creditApiKey(uint256,uint256)": "infinite",
				"debitApiKey(uint256,uint256)": "infinite",
				"getPricing(uint256)": "infinite",
				"getWalletDerivation(uint256,address)": "infinite",
				"indexToAccountHashAt(uint256)": "infinite",
				"listActions(uint256,uint256,uint256,uint256)": "infinite",
				"listApiKeys(uint256,uint256,uint256)": "infinite",
				"listGroups(uint256,uint256,uint256)": "infinite",
				"listWallets(uint256,uint256,uint256)": "infinite",
				"listWalletsInGroup(uint256,uint256,uint256,uint256)": "infinite",
				"newAccount(uint256,bool,string,string,address)": "infinite",
				"owner()": "2678",
				"pricingAt(uint256)": "infinite",
				"pricingOperator()": "2700",
				"registerWalletDerivation(uint256,address,uint256,string,string)": "infinite",
				"removeActionFromGroup(uint256,uint256,uint256)": "infinite",
				"removeUsageApiKey(uint256,uint256)": "infinite",
				"removeWalletFromGroup(uint256,uint256,uint256)": "infinite",
				"requestedApiPayerCount()": "2597",
				"setAdminApiPayerAccount(address)": "infinite",
				"setApiPayers(address[])": "infinite",
				"setPricing(uint256,uint256)": "infinite",
				"setPricingOperator(address)": "infinite",
				"setRequestedApiPayerCount(uint256)": "infinite",
				"updateActionMetadata(uint256,uint256,uint256,string,string)": "infinite",
				"updateGroup(uint256,uint256,string,string,bool,bool)": "infinite",
				"updateUsageApiKeyMetadata(uint256,uint256,string,string)": "infinite",
				"walletCount()": "2553"
			}
		},
		"methodIdentifiers": {
			"accountCount()": "e4af29fc",
			"accountExistsAndIsMutable(uint256)": "719fac43",
			"addActionToGroup(uint256,uint256,uint256,string,string)": "2fa92e41",
			"addApiKey(uint256,uint256,uint256,uint256,string,string)": "fec99aef",
			"addGroup(uint256,string,string,uint256[],uint256[],bool,bool)": "749e4d07",
			"addWalletToGroup(uint256,uint256,uint256)": "bac710ea",
			"adminApiPayerAccount()": "383603fe",
			"allWalletAddressesAt(uint256)": "ccb78fb6",
			"apiPayerCount()": "b8037ffe",
			"api_payers()": "93c8bc43",
			"creditApiKey(uint256,uint256)": "683f2de8",
			"debitApiKey(uint256,uint256)": "40b4d453",
			"getPricing(uint256)": "c12f1a42",
			"getWalletDerivation(uint256,address)": "90222cad",
			"indexToAccountHashAt(uint256)": "6fe1fb84",
			"listActions(uint256,uint256,uint256,uint256)": "542970ed",
			"listApiKeys(uint256,uint256,uint256)": "c704668c",
			"listGroups(uint256,uint256,uint256)": "f75c8b2d",
			"listWallets(uint256,uint256,uint256)": "7af361ef",
			"listWalletsInGroup(uint256,uint256,uint256,uint256)": "291ff1ea",
			"newAccount(uint256,bool,string,string,address)": "79312245",
			"owner()": "8da5cb5b",
			"pricingAt(uint256)": "c1aff899",
			"pricingOperator()": "cb53ad26",
			"registerWalletDerivation(uint256,address,uint256,string,string)": "92141552",
			"removeActionFromGroup(uint256,uint256,uint256)": "5d861c72",
			"removeUsageApiKey(uint256,uint256)": "c5f5b984",
			"removeWalletFromGroup(uint256,uint256,uint256)": "6e06ac9c",
			"requestedApiPayerCount()": "34b7f87a",
			"setAdminApiPayerAccount(address)": "c001bc79",
			"setApiPayers(address[])": "ae8c49a5",
			"setPricing(uint256,uint256)": "ca05588a",
			"setPricingOperator(address)": "e6ad2928",
			"setRequestedApiPayerCount(uint256)": "52067859",
			"updateActionMetadata(uint256,uint256,uint256,string,string)": "a6b6b672",
			"updateGroup(uint256,uint256,string,string,bool,bool)": "96a7cc54",
			"updateUsageApiKeyMetadata(uint256,uint256,string,string)": "6a3d77a9",
			"walletCount()": "29b57c69"
		}
	},
	"abi": [
		{
			"inputs": [],
			"stateMutability": "nonpayable",
			"type": "constructor"
		},
		{
			"inputs": [
				{
					"internalType": "uint256",
					"name": "apiKeyHash",
					"type": "uint256"
				}
			],
			"name": "AccountAlreadyExists",
			"type": "error"
		},
		{
			"inputs": [
				{
					"internalType": "uint256",
					"name": "apiKeyHash",
					"type": "uint256"
				}
			],
			"name": "AccountDoesNotExist",
			"type": "error"
		},
		{
			"inputs": [
				{
					"internalType": "uint256",
					"name": "apiKeyHash",
					"type": "uint256"
				},
				{
					"internalType": "uint256",
					"name": "groupId",
					"type": "uint256"
				},
				{
					"internalType": "uint256",
					"name": "action",
					"type": "uint256"
				}
			],
			"name": "ActionDoesNotExist",
			"type": "error"
		},
		{
			"inputs": [
				{
					"internalType": "uint256",
					"name": "apiKeyHash",
					"type": "uint256"
				},
				{
					"internalType": "uint256",
					"name": "groupId",
					"type": "uint256"
				}
			],
			"name": "GroupDoesNotExist",
			"type": "error"
		},
		{
			"inputs": [
				{
					"internalType": "uint256",
					"name": "apiKeyHash",
					"type": "uint256"
				},
				{
					"internalType": "uint256",
					"name": "amount",
					"type": "uint256"
				}
			],
			"name": "InsufficientBalance",
			"type": "error"
		},
		{
			"inputs": [
				{
					"internalType": "uint256",
					"name": "apiKeyHash",
					"type": "uint256"
				},
				{
					"internalType": "address",
					"name": "sender",
					"type": "address"
				}
			],
			"name": "NoAccountAccess",
			"type": "error"
		},
		{
			"inputs": [
				{
					"internalType": "uint256",
					"name": "apiKeyHash",
					"type": "uint256"
				}
			],
			"name": "NotMasterAccount",
			"type": "error"
		},
		{
			"inputs": [
				{
					"internalType": "address",
					"name": "caller",
					"type": "address"
				}
			],
			"name": "OnlyApiPayer",
			"type": "error"
		},
		{
			"inputs": [
				{
					"internalType": "address",
					"name": "caller",
					"type": "address"
				}
			],
			"name": "OnlyApiPayerOrOwner",
			"type": "error"
		},
		{
			"inputs": [
				{
					"internalType": "address",
					"name": "caller",
					"type": "address"
				}
			],
			"name": "OnlyApiPayerOrPricingOperator",
			"type": "error"
		},
		{
			"inputs": [
				{
					"internalType": "uint256",
					"name": "apiKeyHash",
					"type": "uint256"
				},
				{
					"internalType": "uint256",
					"name": "usageApiKeyHash",
					"type": "uint256"
				}
			],
			"name": "UsageApiKeyDoesNotExist",
			"type": "error"
		},
		{
			"inputs": [
				{
					"internalType": "uint256",
					"name": "apiKeyHash",
					"type": "uint256"
				},
				{
					"internalType": "uint256",
					"name": "groupId",
					"type": "uint256"
				},
				{
					"internalType": "uint256",
					"name": "Wallet",
					"type": "uint256"
				}
			],
			"name": "WalletDoesNotExist",
			"type": "error"
		},
		{
			"inputs": [],
			"name": "accountCount",
			"outputs": [
				{
					"internalType": "uint256",
					"name": "",
					"type": "uint256"
				}
			],
			"stateMutability": "view",
			"type": "function"
		},
		{
			"inputs": [
				{
					"internalType": "uint256",
					"name": "apiKeyHash",
					"type": "uint256"
				}
			],
			"name": "accountExistsAndIsMutable",
			"outputs": [
				{
					"internalType": "bool",
					"name": "",
					"type": "bool"
				}
			],
			"stateMutability": "view",
			"type": "function"
		},
		{
			"inputs": [
				{
					"internalType": "uint256",
					"name": "accountApiKeyHash",
					"type": "uint256"
				},
				{
					"internalType": "uint256",
					"name": "groupId",
					"type": "uint256"
				},
				{
					"internalType": "uint256",
					"name": "action",
					"type": "uint256"
				},
				{
					"internalType": "string",
					"name": "name",
					"type": "string"
				},
				{
					"internalType": "string",
					"name": "description",
					"type": "string"
				}
			],
			"name": "addActionToGroup",
			"outputs": [],
			"stateMutability": "nonpayable",
			"type": "function"
		},
		{
			"inputs": [
				{
					"internalType": "uint256",
					"name": "accountApiKeyHash",
					"type": "uint256"
				},
				{
					"internalType": "uint256",
					"name": "usageApiKeyHash",
					"type": "uint256"
				},
				{
					"internalType": "uint256",
					"name": "expiration",
					"type": "uint256"
				},
				{
					"internalType": "uint256",
					"name": "balance",
					"type": "uint256"
				},
				{
					"internalType": "string",
					"name": "name",
					"type": "string"
				},
				{
					"internalType": "string",
					"name": "description",
					"type": "string"
				}
			],
			"name": "addApiKey",
			"outputs": [],
			"stateMutability": "nonpayable",
			"type": "function"
		},
		{
			"inputs": [
				{
					"internalType": "uint256",
					"name": "accountApiKeyHash",
					"type": "uint256"
				},
				{
					"internalType": "string",
					"name": "name",
					"type": "string"
				},
				{
					"internalType": "string",
					"name": "description",
					"type": "string"
				},
				{
					"internalType": "uint256[]",
					"name": "permitted_actions",
					"type": "uint256[]"
				},
				{
					"internalType": "uint256[]",
					"name": "Wallets",
					"type": "uint256[]"
				},
				{
					"internalType": "bool",
					"name": "all_wallets_permitted",
					"type": "bool"
				},
				{
					"internalType": "bool",
					"name": "all_actions_permitted",
					"type": "bool"
				}
			],
			"name": "addGroup",
			"outputs": [],
			"stateMutability": "nonpayable",
			"type": "function"
		},
		{
			"inputs": [
				{
					"internalType": "uint256",
					"name": "accountApiKeyHash",
					"type": "uint256"
				},
				{
					"internalType": "uint256",
					"name": "groupId",
					"type": "uint256"
				},
				{
					"internalType": "uint256",
					"name": "walletAddressHash",
					"type": "uint256"
				}
			],
			"name": "addWalletToGroup",
			"outputs": [],
			"stateMutability": "nonpayable",
			"type": "function"
		},
		{
			"inputs": [],
			"name": "adminApiPayerAccount",
			"outputs": [
				{
					"internalType": "address",
					"name": "",
					"type": "address"
				}
			],
			"stateMutability": "view",
			"type": "function"
		},
		{
			"inputs": [
				{
					"internalType": "uint256",
					"name": "index",
					"type": "uint256"
				}
			],
			"name": "allWalletAddressesAt",
			"outputs": [
				{
					"internalType": "address",
					"name": "",
					"type": "address"
				}
			],
			"stateMutability": "view",
			"type": "function"
		},
		{
			"inputs": [],
			"name": "apiPayerCount",
			"outputs": [
				{
					"internalType": "uint256",
					"name": "",
					"type": "uint256"
				}
			],
			"stateMutability": "view",
			"type": "function"
		},
		{
			"inputs": [],
			"name": "api_payers",
			"outputs": [
				{
					"internalType": "address[]",
					"name": "",
					"type": "address[]"
				}
			],
			"stateMutability": "view",
			"type": "function"
		},
		{
			"inputs": [
				{
					"internalType": "uint256",
					"name": "apiKeyHash",
					"type": "uint256"
				},
				{
					"internalType": "uint256",
					"name": "amount",
					"type": "uint256"
				}
			],
			"name": "creditApiKey",
			"outputs": [],
			"stateMutability": "nonpayable",
			"type": "function"
		},
		{
			"inputs": [
				{
					"internalType": "uint256",
					"name": "apiKeyHash",
					"type": "uint256"
				},
				{
					"internalType": "uint256",
					"name": "amount",
					"type": "uint256"
				}
			],
			"name": "debitApiKey",
			"outputs": [],
			"stateMutability": "nonpayable",
			"type": "function"
		},
		{
			"inputs": [
				{
					"internalType": "uint256",
					"name": "pricingItemId",
					"type": "uint256"
				}
			],
			"name": "getPricing",
			"outputs": [
				{
					"internalType": "uint256",
					"name": "",
					"type": "uint256"
				}
			],
			"stateMutability": "view",
			"type": "function"
		},
		{
			"inputs": [
				{
					"internalType": "uint256",
					"name": "apiKeyHash",
					"type": "uint256"
				},
				{
					"internalType": "address",
					"name": "walletAddress",
					"type": "address"
				}
			],
			"name": "getWalletDerivation",
			"outputs": [
				{
					"internalType": "uint256",
					"name": "",
					"type": "uint256"
				}
			],
			"stateMutability": "view",
			"type": "function"
		},
		{
			"inputs": [
				{
					"internalType": "uint256",
					"name": "index",
					"type": "uint256"
				}
			],
			"name": "indexToAccountHashAt",
			"outputs": [
				{
					"internalType": "uint256",
					"name": "",
					"type": "uint256"
				}
			],
			"stateMutability": "view",
			"type": "function"
		},
		{
			"inputs": [
				{
					"internalType": "uint256",
					"name": "accountApiKeyHash",
					"type": "uint256"
				},
				{
					"internalType": "uint256",
					"name": "groupId",
					"type": "uint256"
				},
				{
					"internalType": "uint256",
					"name": "pageNumber",
					"type": "uint256"
				},
				{
					"internalType": "uint256",
					"name": "pageSize",
					"type": "uint256"
				}
			],
			"name": "listActions",
			"outputs": [
				{
					"components": [
						{
							"internalType": "uint256",
							"name": "id",
							"type": "uint256"
						},
						{
							"internalType": "string",
							"name": "name",
							"type": "string"
						},
						{
							"internalType": "string",
							"name": "description",
							"type": "string"
						}
					],
					"internalType": "struct LibAccountConfigStorage.Metadata[]",
					"name": "",
					"type": "tuple[]"
				}
			],
			"stateMutability": "view",
			"type": "function"
		},
		{
			"inputs": [
				{
					"internalType": "uint256",
					"name": "accountApiKeyHash",
					"type": "uint256"
				},
				{
					"internalType": "uint256",
					"name": "pageNumber",
					"type": "uint256"
				},
				{
					"internalType": "uint256",
					"name": "pageSize",
					"type": "uint256"
				}
			],
			"name": "listApiKeys",
			"outputs": [
				{
					"components": [
						{
							"components": [
								{
									"internalType": "uint256",
									"name": "id",
									"type": "uint256"
								},
								{
									"internalType": "string",
									"name": "name",
									"type": "string"
								},
								{
									"internalType": "string",
									"name": "description",
									"type": "string"
								}
							],
							"internalType": "struct LibAccountConfigStorage.Metadata",
							"name": "metadata",
							"type": "tuple"
						},
						{
							"internalType": "uint256",
							"name": "apiKeyHash",
							"type": "uint256"
						},
						{
							"internalType": "uint256",
							"name": "expiration",
							"type": "uint256"
						},
						{
							"internalType": "uint256",
							"name": "balance",
							"type": "uint256"
						},
						{
							"internalType": "bool",
							"name": "runActions",
							"type": "bool"
						},
						{
							"internalType": "bool",
							"name": "manageGroups",
							"type": "bool"
						},
						{
							"internalType": "bool",
							"name": "manageWallets",
							"type": "bool"
						},
						{
							"internalType": "bool",
							"name": "manageIPFSIds",
							"type": "bool"
						},
						{
							"internalType": "bool",
							"name": "manageUsageApiKeys",
							"type": "bool"
						}
					],
					"internalType": "struct LibAccountConfigStorage.UsageApiKey[]",
					"name": "",
					"type": "tuple[]"
				}
			],
			"stateMutability": "view",
			"type": "function"
		},
		{
			"inputs": [
				{
					"internalType": "uint256",
					"name": "accountApiKeyHash",
					"type": "uint256"
				},
				{
					"internalType": "uint256",
					"name": "pageNumber",
					"type": "uint256"
				},
				{
					"internalType": "uint256",
					"name": "pageSize",
					"type": "uint256"
				}
			],
			"name": "listGroups",
			"outputs": [
				{
					"components": [
						{
							"internalType": "uint256",
							"name": "id",
							"type": "uint256"
						},
						{
							"internalType": "string",
							"name": "name",
							"type": "string"
						},
						{
							"internalType": "string",
							"name": "description",
							"type": "string"
						}
					],
					"internalType": "struct LibAccountConfigStorage.Metadata[]",
					"name": "",
					"type": "tuple[]"
				}
			],
			"stateMutability": "view",
			"type": "function"
		},
		{
			"inputs": [
				{
					"internalType": "uint256",
					"name": "accountApiKeyHash",
					"type": "uint256"
				},
				{
					"internalType": "uint256",
					"name": "pageNumber",
					"type": "uint256"
				},
				{
					"internalType": "uint256",
					"name": "pageSize",
					"type": "uint256"
				}
			],
			"name": "listWallets",
			"outputs": [
				{
					"components": [
						{
							"internalType": "uint256",
							"name": "id",
							"type": "uint256"
						},
						{
							"internalType": "string",
							"name": "name",
							"type": "string"
						},
						{
							"internalType": "string",
							"name": "description",
							"type": "string"
						},
						{
							"internalType": "address",
							"name": "walletAddress",
							"type": "address"
						}
					],
					"internalType": "struct LibAccountConfigStorage.WalletData[]",
					"name": "",
					"type": "tuple[]"
				}
			],
			"stateMutability": "view",
			"type": "function"
		},
		{
			"inputs": [
				{
					"internalType": "uint256",
					"name": "accountApiKeyHash",
					"type": "uint256"
				},
				{
					"internalType": "uint256",
					"name": "groupId",
					"type": "uint256"
				},
				{
					"internalType": "uint256",
					"name": "pageNumber",
					"type": "uint256"
				},
				{
					"internalType": "uint256",
					"name": "pageSize",
					"type": "uint256"
				}
			],
			"name": "listWalletsInGroup",
			"outputs": [
				{
					"components": [
						{
							"internalType": "uint256",
							"name": "id",
							"type": "uint256"
						},
						{
							"internalType": "string",
							"name": "name",
							"type": "string"
						},
						{
							"internalType": "string",
							"name": "description",
							"type": "string"
						},
						{
							"internalType": "address",
							"name": "walletAddress",
							"type": "address"
						}
					],
					"internalType": "struct LibAccountConfigStorage.WalletData[]",
					"name": "",
					"type": "tuple[]"
				}
			],
			"stateMutability": "view",
			"type": "function"
		},
		{
			"inputs": [
				{
					"internalType": "uint256",
					"name": "apiKeyHash",
					"type": "uint256"
				},
				{
					"internalType": "bool",
					"name": "managed",
					"type": "bool"
				},
				{
					"internalType": "string",
					"name": "accountName",
					"type": "string"
				},
				{
					"internalType": "string",
					"name": "accountDescription",
					"type": "string"
				},
				{
					"internalType": "address",
					"name": "creatorWalletAddress",
					"type": "address"
				}
			],
			"name": "newAccount",
			"outputs": [],
			"stateMutability": "nonpayable",
			"type": "function"
		},
		{
			"inputs": [],
			"name": "owner",
			"outputs": [
				{
					"internalType": "address",
					"name": "",
					"type": "address"
				}
			],
			"stateMutability": "view",
			"type": "function"
		},
		{
			"inputs": [
				{
					"internalType": "uint256",
					"name": "index",
					"type": "uint256"
				}
			],
			"name": "pricingAt",
			"outputs": [
				{
					"internalType": "uint256",
					"name": "",
					"type": "uint256"
				}
			],
			"stateMutability": "view",
			"type": "function"
		},
		{
			"inputs": [],
			"name": "pricingOperator",
			"outputs": [
				{
					"internalType": "address",
					"name": "",
					"type": "address"
				}
			],
			"stateMutability": "view",
			"type": "function"
		},
		{
			"inputs": [
				{
					"internalType": "uint256",
					"name": "accountApiKeyHash",
					"type": "uint256"
				},
				{
					"internalType": "address",
					"name": "walletAddress",
					"type": "address"
				},
				{
					"internalType": "uint256",
					"name": "derivationPath",
					"type": "uint256"
				},
				{
					"internalType": "string",
					"name": "name",
					"type": "string"
				},
				{
					"internalType": "string",
					"name": "description",
					"type": "string"
				}
			],
			"name": "registerWalletDerivation",
			"outputs": [],
			"stateMutability": "nonpayable",
			"type": "function"
		},
		{
			"inputs": [
				{
					"internalType": "uint256",
					"name": "accountApiKeyHash",
					"type": "uint256"
				},
				{
					"internalType": "uint256",
					"name": "groupId",
					"type": "uint256"
				},
				{
					"internalType": "uint256",
					"name": "action",
					"type": "uint256"
				}
			],
			"name": "removeActionFromGroup",
			"outputs": [],
			"stateMutability": "nonpayable",
			"type": "function"
		},
		{
			"inputs": [
				{
					"internalType": "uint256",
					"name": "accountApiKeyHash",
					"type": "uint256"
				},
				{
					"internalType": "uint256",
					"name": "usageApiKeyHash",
					"type": "uint256"
				}
			],
			"name": "removeUsageApiKey",
			"outputs": [],
			"stateMutability": "nonpayable",
			"type": "function"
		},
		{
			"inputs": [
				{
					"internalType": "uint256",
					"name": "accountApiKeyHash",
					"type": "uint256"
				},
				{
					"internalType": "uint256",
					"name": "groupId",
					"type": "uint256"
				},
				{
					"internalType": "uint256",
					"name": "walletAddressHash",
					"type": "uint256"
				}
			],
			"name": "removeWalletFromGroup",
			"outputs": [],
			"stateMutability": "nonpayable",
			"type": "function"
		},
		{
			"inputs": [],
			"name": "requestedApiPayerCount",
			"outputs": [
				{
					"internalType": "uint256",
					"name": "",
					"type": "uint256"
				}
			],
			"stateMutability": "view",
			"type": "function"
		},
		{
			"inputs": [
				{
					"internalType": "address",
					"name": "newAdminApiPayerAccount",
					"type": "address"
				}
			],
			"name": "setAdminApiPayerAccount",
			"outputs": [],
			"stateMutability": "nonpayable",
			"type": "function"
		},
		{
			"inputs": [
				{
					"internalType": "address[]",
					"name": "newApiPayers",
					"type": "address[]"
				}
			],
			"name": "setApiPayers",
			"outputs": [],
			"stateMutability": "nonpayable",
			"type": "function"
		},
		{
			"inputs": [
				{
					"internalType": "uint256",
					"name": "pricingItemId",
					"type": "uint256"
				},
				{
					"internalType": "uint256",
					"name": "price",
					"type": "uint256"
				}
			],
			"name": "setPricing",
			"outputs": [],
			"stateMutability": "nonpayable",
			"type": "function"
		},
		{
			"inputs": [
				{
					"internalType": "address",
					"name": "newPricingOperator",
					"type": "address"
				}
			],
			"name": "setPricingOperator",
			"outputs": [],
			"stateMutability": "nonpayable",
			"type": "function"
		},
		{
			"inputs": [
				{
					"internalType": "uint256",
					"name": "newRequestedApiPayerCount",
					"type": "uint256"
				}
			],
			"name": "setRequestedApiPayerCount",
			"outputs": [],
			"stateMutability": "nonpayable",
			"type": "function"
		},
		{
			"inputs": [
				{
					"internalType": "uint256",
					"name": "accountApiKeyHash",
					"type": "uint256"
				},
				{
					"internalType": "uint256",
					"name": "actionHash",
					"type": "uint256"
				},
				{
					"internalType": "uint256",
					"name": "groupId",
					"type": "uint256"
				},
				{
					"internalType": "string",
					"name": "name",
					"type": "string"
				},
				{
					"internalType": "string",
					"name": "description",
					"type": "string"
				}
			],
			"name": "updateActionMetadata",
			"outputs": [],
			"stateMutability": "nonpayable",
			"type": "function"
		},
		{
			"inputs": [
				{
					"internalType": "uint256",
					"name": "accountApiKeyHash",
					"type": "uint256"
				},
				{
					"internalType": "uint256",
					"name": "groupId",
					"type": "uint256"
				},
				{
					"internalType": "string",
					"name": "name",
					"type": "string"
				},
				{
					"internalType": "string",
					"name": "description",
					"type": "string"
				},
				{
					"internalType": "bool",
					"name": "all_wallets_permitted",
					"type": "bool"
				},
				{
					"internalType": "bool",
					"name": "all_actions_permitted",
					"type": "bool"
				}
			],
			"name": "updateGroup",
			"outputs": [],
			"stateMutability": "nonpayable",
			"type": "function"
		},
		{
			"inputs": [
				{
					"internalType": "uint256",
					"name": "accountApiKeyHash",
					"type": "uint256"
				},
				{
					"internalType": "uint256",
					"name": "usageApiKeyHash",
					"type": "uint256"
				},
				{
					"internalType": "string",
					"name": "name",
					"type": "string"
				},
				{
					"internalType": "string",
					"name": "description",
					"type": "string"
				}
			],
			"name": "updateUsageApiKeyMetadata",
			"outputs": [],
			"stateMutability": "nonpayable",
			"type": "function"
		},
		{
			"inputs": [],
			"name": "walletCount",
			"outputs": [
				{
					"internalType": "uint256",
					"name": "",
					"type": "uint256"
				}
			],
			"stateMutability": "view",
			"type": "function"
		}
	]
}