{
  "_format": "hh-sol-artifact-1",
  "contractName": "DiamondLoupeFacetNoERC165",
  "sourceName": "contracts/DiamondPattern/DiamondLoupeFacetNoERC165.sol",
  "abi": [
    {
      "inputs": [
        {
          "internalType": "bytes4",
          "name": "_functionSelector",
          "type": "bytes4"
        }
      ],
      "name": "facetAddress",
      "outputs": [
        {
          "internalType": "address",
          "name": "facetAddress_",
          "type": "address"
        }
      ],
      "stateMutability": "view",
      "type": "function"
    },
    {
      "inputs": [],
      "name": "facetAddresses",
      "outputs": [
        {
          "internalType": "address[]",
          "name": "facetAddresses_",
          "type": "address[]"
        }
      ],
      "stateMutability": "view",
      "type": "function"
    },
    {
      "inputs": [
        {
          "internalType": "address",
          "name": "_facet",
          "type": "address"
        }
      ],
      "name": "facetFunctionSelectors",
      "outputs": [
        {
          "internalType": "bytes4[]",
          "name": "_facetFunctionSelectors",
          "type": "bytes4[]"
        }
      ],
      "stateMutability": "view",
      "type": "function"
    },
    {
      "inputs": [],
      "name": "facets",
      "outputs": [
        {
          "components": [
            {
              "internalType": "address",
              "name": "facetAddress",
              "type": "address"
            },
            {
              "internalType": "bytes4[]",
              "name": "functionSelectors",
              "type": "bytes4[]"
            }
          ],
          "internalType": "struct IDiamondLoupe.Facet[]",
          "name": "facets_",
          "type": "tuple[]"
        }
      ],
      "stateMutability": "view",
      "type": "function"
    }
  ],
  "bytecode": "0x608080604052346015576107e1908161001b8239f35b600080fdfe6080604052600436101561001257600080fd5b60003560e01c806352ef6b2c146100575780637a0ed62714610052578063adfca15e1461004d5763cdffacc61461004857600080fd5b61054f565b61048e565b61026d565b3461016f57600036600319011261016f5760008051602061078c83398151915254610081816105ec565b600080925b8084106100a2578183526040518061009e8582610174565b0390f35b906100d46100c76100c26100b58761062f565b90549060031b1c60e01b90565b61068f565b546001600160a01b031690565b60006001600160a01b038216815b84811061012c575b5050610122578161011361011892610104600195886106d4565b6001600160a01b039091169052565b6106fe565b935b019290610086565b509260019061011a565b61015561014961013c838a6106d4565b516001600160a01b031690565b6001600160a01b031690565b8214610163576001016100e2565b505050600186806100ea565b600080fd5b602060408183019282815284518094520192019060005b8181106101985750505090565b82516001600160a01b031684526020938401939092019160010161018b565b906020808351928381520192019060005b8181106101d55750505090565b82516001600160e01b0319168452602093840193909201916001016101c8565b602081016020825282518091526040820191602060408360051b8301019401926000915b83831061022857505050505090565b909192939460208061025e600193603f198682030187526040838b51878060a01b038151168452015191818582015201906101b7565b97019301930191939290610219565b3461016f57600036600319011261016f5760008051602061078c8339815191525461029781610712565b6102a0826105ec565b916000906000905b80821061030457505060005b8181106102cc578183526040518061009e85826101f5565b806102ee6102e76102df600194886106d4565b5161ffff1690565b61ffff1690565b60206102fa83876106d4565b51015152016102b4565b90916103126100b58461062f565b61031e6100c78261068f565b6000806001600160a01b0383165b8582106103c8575b50506103bd57916103a16103b492610362600195610352858b6106d4565b516001600160a01b039091169052565b61036b866105ec565b6020610377858b6106d4565b5101526103916020610389858b6106d4565b5101516106c7565b6001600160e01b03199091169052565b6101136103ae82896106d4565b60019052565b925b01906102a8565b5050916001906103b6565b806103f26101496103e4858d989c9d9e97969e9b999a9b6106d4565b51516001600160a01b031690565b1461040d576001809a0191929950979692979594939561032c565b50509680610449856103918b6104436102e76102df878a9f9e9a61043a9c9e9d9c6104719b6020926106d4565b510151946106d4565b906106d4565b61046861046161045c6102df848d6106d4565b610778565b918a6106d4565b9061ffff169052565b60013880610334565b90602061048b9281815201906101b7565b90565b3461016f57602036600319011261016f576004356001600160a01b0381169081900361016f5760008051602061078c8339815191525460006104cf826105ec565b9160005b8181106104eb578284526040518061009e868261047a565b6104f48161062f565b905460039190911b1c60e01b6001600160a01b036105118261068f565b54168614610523575b506001016104d3565b836105489161053560019496886106d4565b6001600160e01b031990911690526106fe565b929061051a565b3461016f57602036600319011261016f576004356001600160e01b03198116810361016f576020906001600160a01b03906105899061068f565b5416604051908152f35b634e487b7160e01b600052604160045260246000fd5b6040519190601f01601f1916820167ffffffffffffffff8111838210176105cf57604052565b610593565b67ffffffffffffffff81116105cf5760051b60200190565b906105fe6105f9836105d4565b6105a9565b828152809261060f601f19916105d4565b0190602036910137565b634e487b7160e01b600052603260045260246000fd5b9060008051602061078c8339815191525482101561068a5760008051602061078c833981519152600052600382901c7fc0d727610ea16241eff4447d08bb1b4595f7d2ec4515282437a13b7d0df4b922019160021b601c1690565b610619565b63ffffffff60e01b166000527fc8fcad8db84d3cc18b4c41d551ea0ee66dd599cde068d998e57d5e09332c131c602052604060002090565b80511561068a5760200190565b805182101561068a5760209160051b010190565b634e487b7160e01b600052601160045260246000fd5b600019811461070d5760010190565b6106e8565b9061071f6105f9836105d4565b8281528092610730601f19916105d4565b0160005b81811061074057505050565b60405190604082019180831067ffffffffffffffff8411176105cf576020926040526000815260608382015282828601015201610734565b61ffff1661ffff811461070d576001019056fec8fcad8db84d3cc18b4c41d551ea0ee66dd599cde068d998e57d5e09332c131da2646970667358221220766c3590f6aa1f3b54099a74f638162224c745799296b21ea92e1962795210b464736f6c634300081c0033",
  "linkReferences": {},
  "deployedLinkReferences": {}
}