{
  "_format": "hh-sol-artifact-1",
  "contractName": "DiamondMultiInit",
  "sourceName": "contracts/DiamondPattern/DiamondMultiInit.sol",
  "abi": [
    {
      "inputs": [
        {
          "internalType": "uint256",
          "name": "_addressesLength",
          "type": "uint256"
        },
        {
          "internalType": "uint256",
          "name": "_calldataLength",
          "type": "uint256"
        }
      ],
      "name": "AddressAndCalldataLengthDoNotMatch",
      "type": "error"
    },
    {
      "inputs": [
        {
          "internalType": "address",
          "name": "_initializationContractAddress",
          "type": "address"
        },
        {
          "internalType": "bytes",
          "name": "_calldata",
          "type": "bytes"
        }
      ],
      "name": "InitializationFunctionReverted",
      "type": "error"
    },
    {
      "inputs": [
        {
          "internalType": "address",
          "name": "_contractAddress",
          "type": "address"
        },
        {
          "internalType": "string",
          "name": "_message",
          "type": "string"
        }
      ],
      "name": "NoBytecodeAtAddress",
      "type": "error"
    },
    {
      "inputs": [
        {
          "internalType": "address[]",
          "name": "_addresses",
          "type": "address[]"
        },
        {
          "internalType": "bytes[]",
          "name": "_calldata",
          "type": "bytes[]"
        }
      ],
      "name": "multiInit",
      "outputs": [],
      "stateMutability": "nonpayable",
      "type": "function"
    }
  ],
  "bytecode": "0x6080806040523460155761036d908161001b8239f35b600080fdfe6080604052600436101561001257600080fd5b60003560e01c636e02fa3c1461002757600080fd5b3461015d57604036600319011261015d5760043567ffffffffffffffff811161015d57610058903690600401610162565b60243567ffffffffffffffff811161015d57610078903690600401610162565b9091818103610146579136819003601e19019060005b84811015610144576000600582901b87810135906001600160a01b03821682036101285786841015610130578401358581121561012857840191823567ffffffffffffffff811161012c57602084018136038113610128576100f76100f2836101cf565b610193565b9482865260208336920101116101285791602082610122959387958360019a9901378401015261022c565b0161008e565b8280fd5b5080fd5b634e487b7160e01b83526032600452602483fd5b005b6339a070b360e11b60005260045260245260446000fd5b600080fd5b9181601f8401121561015d5782359167ffffffffffffffff831161015d576020808501948460051b01011161015d57565b6040519190601f01601f1916820167ffffffffffffffff8111838210176101b957604052565b634e487b7160e01b600052604160045260246000fd5b67ffffffffffffffff81116101b957601f01601f191660200190565b919082519283825260005b848110610217575050826000602080949584010152601f8019910116010190565b806020809284010151828286010152016101f6565b6001600160a01b03811691908215610332576102486060610193565b602881527f4c69624469616d6f6e644375743a205f696e6974206164647265737320686173602082015267206e6f20636f646560c01b6040820152813b1561030857506000809183519060208501905af4913d15610300573d926102ae6100f2856101cf565b9384523d6000602086013e5b156102c457505050565b8251156102d357825160208401fd5b6102fc60405192839263192105d760e01b845260048401526040602484015260448301906101eb565b0390fd5b6060926102ba565b836102fc60405192839263919834b960e01b845260048401526040602484015260448301906101eb565b50505056fea2646970667358221220eb4944a8065513f6194ad4e4e0527a7474ca92c533851c0b437b60e812ea001b64736f6c634300081c0033",
  "linkReferences": {},
  "deployedLinkReferences": {}
}